{
	"ichoronium-galactic-contracts/users/ichorProfiles.sol": {
		"ichoroniumProfiles": {
			"abi": [
				{
					"inputs": [],
					"payable": false,
					"stateMutability": "nonpayable",
					"type": "constructor"
				},
				{
					"constant": false,
					"inputs": [
						{
							"internalType": "string",
							"name": "_realFirstName",
							"type": "string"
						},
						{
							"internalType": "string",
							"name": "_realLastName",
							"type": "string"
						},
						{
							"internalType": "string",
							"name": "_officialUserName",
							"type": "string"
						},
						{
							"internalType": "uint256",
							"name": "_benefactor",
							"type": "uint256"
						}
					],
					"name": "addGamer",
					"outputs": [],
					"payable": false,
					"stateMutability": "nonpayable",
					"type": "function"
				},
				{
					"constant": true,
					"inputs": [
						{
							"internalType": "uint256",
							"name": "_benefactor",
							"type": "uint256"
						}
					],
					"name": "checkBenefactorExist",
					"outputs": [],
					"payable": false,
					"stateMutability": "view",
					"type": "function"
				},
				{
					"constant": true,
					"inputs": [
						{
							"internalType": "uint256",
							"name": "",
							"type": "uint256"
						}
					],
					"name": "gamerFlags",
					"outputs": [
						{
							"internalType": "uint256",
							"name": "_id",
							"type": "uint256"
						},
						{
							"internalType": "bool",
							"name": "_smsVerified",
							"type": "bool"
						},
						{
							"internalType": "bool",
							"name": "_socialverfied",
							"type": "bool"
						},
						{
							"internalType": "bool",
							"name": "_kycVerified",
							"type": "bool"
						},
						{
							"internalType": "bool",
							"name": "_softBan",
							"type": "bool"
						},
						{
							"internalType": "bool",
							"name": "_hardBan",
							"type": "bool"
						},
						{
							"internalType": "bool",
							"name": "_isJin",
							"type": "bool"
						},
						{
							"internalType": "uint256",
							"name": "_hardBanAddress",
							"type": "uint256"
						},
						{
							"internalType": "uint256",
							"name": "_socialverificationAddress",
							"type": "uint256"
						},
						{
							"internalType": "uint256",
							"name": "_kycVericationAddress",
							"type": "uint256"
						},
						{
							"internalType": "uint256",
							"name": "_softBanAddress",
							"type": "uint256"
						}
					],
					"payable": false,
					"stateMutability": "view",
					"type": "function"
				},
				{
					"constant": true,
					"inputs": [
						{
							"internalType": "uint256",
							"name": "",
							"type": "uint256"
						}
					],
					"name": "gamers",
					"outputs": [
						{
							"internalType": "uint256",
							"name": "_id",
							"type": "uint256"
						},
						{
							"internalType": "uint256",
							"name": "_registrationDate",
							"type": "uint256"
						},
						{
							"internalType": "string",
							"name": "_realFirstName",
							"type": "string"
						},
						{
							"internalType": "string",
							"name": "_realLastName",
							"type": "string"
						},
						{
							"internalType": "string",
							"name": "_officialUsername",
							"type": "string"
						},
						{
							"internalType": "uint256",
							"name": "_ichoroniumLevel",
							"type": "uint256"
						},
						{
							"internalType": "uint256",
							"name": "_benefactor",
							"type": "uint256"
						}
					],
					"payable": false,
					"stateMutability": "view",
					"type": "function"
				},
				{
					"constant": true,
					"inputs": [
						{
							"internalType": "uint256",
							"name": "_id",
							"type": "uint256"
						}
					],
					"name": "hardBanStatus",
					"outputs": [
						{
							"internalType": "bool",
							"name": "",
							"type": "bool"
						}
					],
					"payable": false,
					"stateMutability": "view",
					"type": "function"
				},
				{
					"constant": false,
					"inputs": [
						{
							"internalType": "uint256",
							"name": "_user",
							"type": "uint256"
						}
					],
					"name": "hardbanToggle",
					"outputs": [],
					"payable": false,
					"stateMutability": "nonpayable",
					"type": "function"
				}
			],
			"devdoc": {
				"methods": {}
			},
			"evm": {
				"assembly": "    /* \"ichoronium-galactic-contracts/users/ichorProfiles.sol\":86:3613  contract ichoroniumProfiles {\r... */\n  mstore(0x40, 0x80)\n    /* \"ichoronium-galactic-contracts/users/ichorProfiles.sol\":142:143  0 */\n  0x00\n    /* \"ichoronium-galactic-contracts/users/ichorProfiles.sol\":121:143  uint256 gamerCount = 0 */\n  dup1\n  sstore\n    /* \"ichoronium-galactic-contracts/users/ichorProfiles.sol\":3457:3610  constructor() public\r... */\n  callvalue\n    /* \"--CODEGEN--\":8:17   */\n  dup1\n    /* \"--CODEGEN--\":5:7   */\n  iszero\n  tag_1\n  jumpi\n    /* \"--CODEGEN--\":30:31   */\n  0x00\n    /* \"--CODEGEN--\":27:28   */\n  dup1\n    /* \"--CODEGEN--\":20:32   */\n  revert\n    /* \"--CODEGEN--\":5:7   */\ntag_1:\n    /* \"ichoronium-galactic-contracts/users/ichorProfiles.sol\":3457:3610  constructor() public\r... */\n  pop\n    /* \"ichoronium-galactic-contracts/users/ichorProfiles.sol\":3527:3542  block.timestamp */\n  timestamp\n    /* \"ichoronium-galactic-contracts/users/ichorProfiles.sol\":3514:3524  todaysDate */\n  0x04\n    /* \"ichoronium-galactic-contracts/users/ichorProfiles.sol\":3514:3542  todaysDate = block.timestamp */\n  dup2\n  swap1\n  sstore\n  pop\n    /* \"ichoronium-galactic-contracts/users/ichorProfiles.sol\":3571:3581  msg.sender */\n  caller\n    /* \"ichoronium-galactic-contracts/users/ichorProfiles.sol\":3563:3568  owner */\n  0x03\n  0x00\n    /* \"ichoronium-galactic-contracts/users/ichorProfiles.sol\":3563:3581  owner = msg.sender */\n  0x0100\n  exp\n  dup2\n  sload\n  dup2\n  0xffffffffffffffffffffffffffffffffffffffff\n  mul\n  not\n  and\n  swap1\n  dup4\n  0xffffffffffffffffffffffffffffffffffffffff\n  and\n  mul\n  or\n  swap1\n  sstore\n  pop\n    /* \"ichoronium-galactic-contracts/users/ichorProfiles.sol\":86:3613  contract ichoroniumProfiles {\r... */\n  dataSize(sub_0)\n  dup1\n  dataOffset(sub_0)\n  0x00\n  codecopy\n  0x00\n  return\nstop\n\nsub_0: assembly {\n        /* \"ichoronium-galactic-contracts/users/ichorProfiles.sol\":86:3613  contract ichoroniumProfiles {\r... */\n      mstore(0x40, 0x80)\n      callvalue\n        /* \"--CODEGEN--\":8:17   */\n      dup1\n        /* \"--CODEGEN--\":5:7   */\n      iszero\n      tag_1\n      jumpi\n        /* \"--CODEGEN--\":30:31   */\n      0x00\n        /* \"--CODEGEN--\":27:28   */\n      dup1\n        /* \"--CODEGEN--\":20:32   */\n      revert\n        /* \"--CODEGEN--\":5:7   */\n    tag_1:\n        /* \"ichoronium-galactic-contracts/users/ichorProfiles.sol\":86:3613  contract ichoroniumProfiles {\r... */\n      pop\n      jumpi(tag_2, lt(calldatasize, 0x04))\n      shr(0xe0, calldataload(0x00))\n      dup1\n      0x1b1e2b3d\n      eq\n      tag_3\n      jumpi\n      dup1\n      0x2101c689\n      eq\n      tag_4\n      jumpi\n      dup1\n      0x3557ca3f\n      eq\n      tag_5\n      jumpi\n      dup1\n      0x57a6c279\n      eq\n      tag_6\n      jumpi\n      dup1\n      0xabf57908\n      eq\n      tag_7\n      jumpi\n      dup1\n      0xdf432393\n      eq\n      tag_8\n      jumpi\n    tag_2:\n      0x00\n      dup1\n      revert\n        /* \"ichoronium-galactic-contracts/users/ichorProfiles.sol\":3279:3434  function hardBanStatus(uint256 _id) public view returns (bool) {\r... */\n    tag_3:\n      tag_9\n      0x04\n      dup1\n      calldatasize\n      sub\n        /* \"--CODEGEN--\":13:15   */\n      0x20\n        /* \"--CODEGEN--\":8:11   */\n      dup2\n        /* \"--CODEGEN--\":5:16   */\n      lt\n        /* \"--CODEGEN--\":2:4   */\n      iszero\n      tag_10\n      jumpi\n        /* \"--CODEGEN--\":29:30   */\n      0x00\n        /* \"--CODEGEN--\":26:27   */\n      dup1\n        /* \"--CODEGEN--\":19:31   */\n      revert\n        /* \"--CODEGEN--\":2:4   */\n    tag_10:\n        /* \"ichoronium-galactic-contracts/users/ichorProfiles.sol\":3279:3434  function hardBanStatus(uint256 _id) public view returns (bool) {\r... */\n      dup2\n      add\n      swap1\n      dup1\n      dup1\n      calldataload\n      swap1\n      0x20\n      add\n      swap1\n      swap3\n      swap2\n      swap1\n      pop\n      pop\n      pop\n      tag_11\n      jump\t// in\n    tag_9:\n      mload(0x40)\n      dup1\n      dup3\n      iszero\n      iszero\n      iszero\n      iszero\n      dup2\n      mstore\n      0x20\n      add\n      swap2\n      pop\n      pop\n      mload(0x40)\n      dup1\n      swap2\n      sub\n      swap1\n      return\n        /* \"ichoronium-galactic-contracts/users/ichorProfiles.sol\":2862:3269  function hardbanToggle(uint256 _user) \r... */\n    tag_4:\n      tag_12\n      0x04\n      dup1\n      calldatasize\n      sub\n        /* \"--CODEGEN--\":13:15   */\n      0x20\n        /* \"--CODEGEN--\":8:11   */\n      dup2\n        /* \"--CODEGEN--\":5:16   */\n      lt\n        /* \"--CODEGEN--\":2:4   */\n      iszero\n      tag_13\n      jumpi\n        /* \"--CODEGEN--\":29:30   */\n      0x00\n        /* \"--CODEGEN--\":26:27   */\n      dup1\n        /* \"--CODEGEN--\":19:31   */\n      revert\n        /* \"--CODEGEN--\":2:4   */\n    tag_13:\n        /* \"ichoronium-galactic-contracts/users/ichorProfiles.sol\":2862:3269  function hardbanToggle(uint256 _user) \r... */\n      dup2\n      add\n      swap1\n      dup1\n      dup1\n      calldataload\n      swap1\n      0x20\n      add\n      swap1\n      swap3\n      swap2\n      swap1\n      pop\n      pop\n      pop\n      tag_14\n      jump\t// in\n    tag_12:\n      stop\n        /* \"ichoronium-galactic-contracts/users/ichorProfiles.sol\":207:254  mapping(uint256 => gamerFlag) public gamerFlags */\n    tag_5:\n      tag_15\n      0x04\n      dup1\n      calldatasize\n      sub\n        /* \"--CODEGEN--\":13:15   */\n      0x20\n        /* \"--CODEGEN--\":8:11   */\n      dup2\n        /* \"--CODEGEN--\":5:16   */\n      lt\n        /* \"--CODEGEN--\":2:4   */\n      iszero\n      tag_16\n      jumpi\n        /* \"--CODEGEN--\":29:30   */\n      0x00\n        /* \"--CODEGEN--\":26:27   */\n      dup1\n        /* \"--CODEGEN--\":19:31   */\n      revert\n        /* \"--CODEGEN--\":2:4   */\n    tag_16:\n        /* \"ichoronium-galactic-contracts/users/ichorProfiles.sol\":207:254  mapping(uint256 => gamerFlag) public gamerFlags */\n      dup2\n      add\n      swap1\n      dup1\n      dup1\n      calldataload\n      swap1\n      0x20\n      add\n      swap1\n      swap3\n      swap2\n      swap1\n      pop\n      pop\n      pop\n      tag_17\n      jump\t// in\n    tag_15:\n      mload(0x40)\n      dup1\n      dup13\n      dup2\n      mstore\n      0x20\n      add\n      dup12\n      iszero\n      iszero\n      iszero\n      iszero\n      dup2\n      mstore\n      0x20\n      add\n      dup11\n      iszero\n      iszero\n      iszero\n      iszero\n      dup2\n      mstore\n      0x20\n      add\n      dup10\n      iszero\n      iszero\n      iszero\n      iszero\n      dup2\n      mstore\n      0x20\n      add\n      dup9\n      iszero\n      iszero\n      iszero\n      iszero\n      dup2\n      mstore\n      0x20\n      add\n      dup8\n      iszero\n      iszero\n      iszero\n      iszero\n      dup2\n      mstore\n      0x20\n      add\n      dup7\n      iszero\n      iszero\n      iszero\n      iszero\n      dup2\n      mstore\n      0x20\n      add\n      dup6\n      dup2\n      mstore\n      0x20\n      add\n      dup5\n      dup2\n      mstore\n      0x20\n      add\n      dup4\n      dup2\n      mstore\n      0x20\n      add\n      dup3\n      dup2\n      mstore\n      0x20\n      add\n      swap12\n      pop\n      pop\n      pop\n      pop\n      pop\n      pop\n      pop\n      pop\n      pop\n      pop\n      pop\n      pop\n      mload(0x40)\n      dup1\n      swap2\n      sub\n      swap1\n      return\n        /* \"ichoronium-galactic-contracts/users/ichorProfiles.sol\":1140:1993  function addGamer(string memory _realFirstName, \r... */\n    tag_6:\n      tag_18\n      0x04\n      dup1\n      calldatasize\n      sub\n        /* \"--CODEGEN--\":13:16   */\n      0x80\n        /* \"--CODEGEN--\":8:11   */\n      dup2\n        /* \"--CODEGEN--\":5:17   */\n      lt\n        /* \"--CODEGEN--\":2:4   */\n      iszero\n      tag_19\n      jumpi\n        /* \"--CODEGEN--\":30:31   */\n      0x00\n        /* \"--CODEGEN--\":27:28   */\n      dup1\n        /* \"--CODEGEN--\":20:32   */\n      revert\n        /* \"--CODEGEN--\":2:4   */\n    tag_19:\n        /* \"ichoronium-galactic-contracts/users/ichorProfiles.sol\":1140:1993  function addGamer(string memory _realFirstName, \r... */\n      dup2\n      add\n      swap1\n      dup1\n      dup1\n      calldataload\n      swap1\n      0x20\n      add\n      swap1\n        /* \"--CODEGEN--\":21:32   */\n      0x0100000000\n        /* \"--CODEGEN--\":8:19   */\n      dup2\n        /* \"--CODEGEN--\":5:33   */\n      gt\n        /* \"--CODEGEN--\":2:4   */\n      iszero\n      tag_20\n      jumpi\n        /* \"--CODEGEN--\":46:47   */\n      0x00\n        /* \"--CODEGEN--\":43:44   */\n      dup1\n        /* \"--CODEGEN--\":36:48   */\n      revert\n        /* \"--CODEGEN--\":2:4   */\n    tag_20:\n        /* \"ichoronium-galactic-contracts/users/ichorProfiles.sol\":1140:1993  function addGamer(string memory _realFirstName, \r... */\n      dup3\n      add\n        /* \"--CODEGEN--\":35:44   */\n      dup4\n        /* \"--CODEGEN--\":28:32   */\n      0x20\n        /* \"--CODEGEN--\":12:26   */\n      dup3\n        /* \"--CODEGEN--\":8:33   */\n      add\n        /* \"--CODEGEN--\":5:45   */\n      gt\n        /* \"--CODEGEN--\":2:4   */\n      iszero\n      tag_21\n      jumpi\n        /* \"--CODEGEN--\":58:59   */\n      0x00\n        /* \"--CODEGEN--\":55:56   */\n      dup1\n        /* \"--CODEGEN--\":48:60   */\n      revert\n        /* \"--CODEGEN--\":2:4   */\n    tag_21:\n        /* \"ichoronium-galactic-contracts/users/ichorProfiles.sol\":1140:1993  function addGamer(string memory _realFirstName, \r... */\n      dup1\n      calldataload\n      swap1\n      0x20\n      add\n      swap2\n        /* \"--CODEGEN--\":100:109   */\n      dup5\n        /* \"--CODEGEN--\":95:96   */\n      0x01\n        /* \"--CODEGEN--\":81:93   */\n      dup4\n        /* \"--CODEGEN--\":77:97   */\n      mul\n        /* \"--CODEGEN--\":67:75   */\n      dup5\n        /* \"--CODEGEN--\":63:98   */\n      add\n        /* \"--CODEGEN--\":60:110   */\n      gt\n        /* \"--CODEGEN--\":39:50   */\n      0x0100000000\n        /* \"--CODEGEN--\":25:37   */\n      dup4\n        /* \"--CODEGEN--\":22:51   */\n      gt\n        /* \"--CODEGEN--\":11:118   */\n      or\n        /* \"--CODEGEN--\":8:10   */\n      iszero\n      tag_22\n      jumpi\n        /* \"--CODEGEN--\":131:132   */\n      0x00\n        /* \"--CODEGEN--\":128:129   */\n      dup1\n        /* \"--CODEGEN--\":121:133   */\n      revert\n        /* \"--CODEGEN--\":8:10   */\n    tag_22:\n        /* \"ichoronium-galactic-contracts/users/ichorProfiles.sol\":1140:1993  function addGamer(string memory _realFirstName, \r... */\n      swap2\n      swap1\n      dup1\n      dup1\n      0x1f\n      add\n      0x20\n      dup1\n      swap2\n      div\n      mul\n      0x20\n      add\n      mload(0x40)\n      swap1\n      dup2\n      add\n      0x40\n      mstore\n      dup1\n      swap4\n      swap3\n      swap2\n      swap1\n      dup2\n      dup2\n      mstore\n      0x20\n      add\n      dup4\n      dup4\n        /* \"--CODEGEN--\":30:33   */\n      dup1\n        /* \"--CODEGEN--\":22:28   */\n      dup3\n        /* \"--CODEGEN--\":14:20   */\n      dup5\n        /* \"--CODEGEN--\":1:34   */\n      calldatacopy\n        /* \"--CODEGEN--\":99:100   */\n      0x00\n        /* \"--CODEGEN--\":93:96   */\n      dup2\n        /* \"--CODEGEN--\":85:91   */\n      dup5\n        /* \"--CODEGEN--\":81:97   */\n      add\n        /* \"--CODEGEN--\":74:101   */\n      mstore\n        /* \"--CODEGEN--\":137:141   */\n      0x1f\n        /* \"--CODEGEN--\":133:142   */\n      not\n        /* \"--CODEGEN--\":126:130   */\n      0x1f\n        /* \"--CODEGEN--\":121:124   */\n      dup3\n        /* \"--CODEGEN--\":117:131   */\n      add\n        /* \"--CODEGEN--\":113:143   */\n      and\n        /* \"--CODEGEN--\":106:143   */\n      swap1\n      pop\n        /* \"--CODEGEN--\":169:172   */\n      dup1\n        /* \"--CODEGEN--\":161:167   */\n      dup4\n        /* \"--CODEGEN--\":157:173   */\n      add\n        /* \"--CODEGEN--\":147:173   */\n      swap3\n      pop\n        /* \"ichoronium-galactic-contracts/users/ichorProfiles.sol\":1140:1993  function addGamer(string memory _realFirstName, \r... */\n      pop\n      pop\n      pop\n      pop\n      pop\n      pop\n      swap2\n      swap3\n      swap2\n      swap3\n      swap1\n      dup1\n      calldataload\n      swap1\n      0x20\n      add\n      swap1\n        /* \"--CODEGEN--\":21:32   */\n      0x0100000000\n        /* \"--CODEGEN--\":8:19   */\n      dup2\n        /* \"--CODEGEN--\":5:33   */\n      gt\n        /* \"--CODEGEN--\":2:4   */\n      iszero\n      tag_23\n      jumpi\n        /* \"--CODEGEN--\":46:47   */\n      0x00\n        /* \"--CODEGEN--\":43:44   */\n      dup1\n        /* \"--CODEGEN--\":36:48   */\n      revert\n        /* \"--CODEGEN--\":2:4   */\n    tag_23:\n        /* \"ichoronium-galactic-contracts/users/ichorProfiles.sol\":1140:1993  function addGamer(string memory _realFirstName, \r... */\n      dup3\n      add\n        /* \"--CODEGEN--\":35:44   */\n      dup4\n        /* \"--CODEGEN--\":28:32   */\n      0x20\n        /* \"--CODEGEN--\":12:26   */\n      dup3\n        /* \"--CODEGEN--\":8:33   */\n      add\n        /* \"--CODEGEN--\":5:45   */\n      gt\n        /* \"--CODEGEN--\":2:4   */\n      iszero\n      tag_24\n      jumpi\n        /* \"--CODEGEN--\":58:59   */\n      0x00\n        /* \"--CODEGEN--\":55:56   */\n      dup1\n        /* \"--CODEGEN--\":48:60   */\n      revert\n        /* \"--CODEGEN--\":2:4   */\n    tag_24:\n        /* \"ichoronium-galactic-contracts/users/ichorProfiles.sol\":1140:1993  function addGamer(string memory _realFirstName, \r... */\n      dup1\n      calldataload\n      swap1\n      0x20\n      add\n      swap2\n        /* \"--CODEGEN--\":100:109   */\n      dup5\n        /* \"--CODEGEN--\":95:96   */\n      0x01\n        /* \"--CODEGEN--\":81:93   */\n      dup4\n        /* \"--CODEGEN--\":77:97   */\n      mul\n        /* \"--CODEGEN--\":67:75   */\n      dup5\n        /* \"--CODEGEN--\":63:98   */\n      add\n        /* \"--CODEGEN--\":60:110   */\n      gt\n        /* \"--CODEGEN--\":39:50   */\n      0x0100000000\n        /* \"--CODEGEN--\":25:37   */\n      dup4\n        /* \"--CODEGEN--\":22:51   */\n      gt\n        /* \"--CODEGEN--\":11:118   */\n      or\n        /* \"--CODEGEN--\":8:10   */\n      iszero\n      tag_25\n      jumpi\n        /* \"--CODEGEN--\":131:132   */\n      0x00\n        /* \"--CODEGEN--\":128:129   */\n      dup1\n        /* \"--CODEGEN--\":121:133   */\n      revert\n        /* \"--CODEGEN--\":8:10   */\n    tag_25:\n        /* \"ichoronium-galactic-contracts/users/ichorProfiles.sol\":1140:1993  function addGamer(string memory _realFirstName, \r... */\n      swap2\n      swap1\n      dup1\n      dup1\n      0x1f\n      add\n      0x20\n      dup1\n      swap2\n      div\n      mul\n      0x20\n      add\n      mload(0x40)\n      swap1\n      dup2\n      add\n      0x40\n      mstore\n      dup1\n      swap4\n      swap3\n      swap2\n      swap1\n      dup2\n      dup2\n      mstore\n      0x20\n      add\n      dup4\n      dup4\n        /* \"--CODEGEN--\":30:33   */\n      dup1\n        /* \"--CODEGEN--\":22:28   */\n      dup3\n        /* \"--CODEGEN--\":14:20   */\n      dup5\n        /* \"--CODEGEN--\":1:34   */\n      calldatacopy\n        /* \"--CODEGEN--\":99:100   */\n      0x00\n        /* \"--CODEGEN--\":93:96   */\n      dup2\n        /* \"--CODEGEN--\":85:91   */\n      dup5\n        /* \"--CODEGEN--\":81:97   */\n      add\n        /* \"--CODEGEN--\":74:101   */\n      mstore\n        /* \"--CODEGEN--\":137:141   */\n      0x1f\n        /* \"--CODEGEN--\":133:142   */\n      not\n        /* \"--CODEGEN--\":126:130   */\n      0x1f\n        /* \"--CODEGEN--\":121:124   */\n      dup3\n        /* \"--CODEGEN--\":117:131   */\n      add\n        /* \"--CODEGEN--\":113:143   */\n      and\n        /* \"--CODEGEN--\":106:143   */\n      swap1\n      pop\n        /* \"--CODEGEN--\":169:172   */\n      dup1\n        /* \"--CODEGEN--\":161:167   */\n      dup4\n        /* \"--CODEGEN--\":157:173   */\n      add\n        /* \"--CODEGEN--\":147:173   */\n      swap3\n      pop\n        /* \"ichoronium-galactic-contracts/users/ichorProfiles.sol\":1140:1993  function addGamer(string memory _realFirstName, \r... */\n      pop\n      pop\n      pop\n      pop\n      pop\n      pop\n      swap2\n      swap3\n      swap2\n      swap3\n      swap1\n      dup1\n      calldataload\n      swap1\n      0x20\n      add\n      swap1\n        /* \"--CODEGEN--\":21:32   */\n      0x0100000000\n        /* \"--CODEGEN--\":8:19   */\n      dup2\n        /* \"--CODEGEN--\":5:33   */\n      gt\n        /* \"--CODEGEN--\":2:4   */\n      iszero\n      tag_26\n      jumpi\n        /* \"--CODEGEN--\":46:47   */\n      0x00\n        /* \"--CODEGEN--\":43:44   */\n      dup1\n        /* \"--CODEGEN--\":36:48   */\n      revert\n        /* \"--CODEGEN--\":2:4   */\n    tag_26:\n        /* \"ichoronium-galactic-contracts/users/ichorProfiles.sol\":1140:1993  function addGamer(string memory _realFirstName, \r... */\n      dup3\n      add\n        /* \"--CODEGEN--\":35:44   */\n      dup4\n        /* \"--CODEGEN--\":28:32   */\n      0x20\n        /* \"--CODEGEN--\":12:26   */\n      dup3\n        /* \"--CODEGEN--\":8:33   */\n      add\n        /* \"--CODEGEN--\":5:45   */\n      gt\n        /* \"--CODEGEN--\":2:4   */\n      iszero\n      tag_27\n      jumpi\n        /* \"--CODEGEN--\":58:59   */\n      0x00\n        /* \"--CODEGEN--\":55:56   */\n      dup1\n        /* \"--CODEGEN--\":48:60   */\n      revert\n        /* \"--CODEGEN--\":2:4   */\n    tag_27:\n        /* \"ichoronium-galactic-contracts/users/ichorProfiles.sol\":1140:1993  function addGamer(string memory _realFirstName, \r... */\n      dup1\n      calldataload\n      swap1\n      0x20\n      add\n      swap2\n        /* \"--CODEGEN--\":100:109   */\n      dup5\n        /* \"--CODEGEN--\":95:96   */\n      0x01\n        /* \"--CODEGEN--\":81:93   */\n      dup4\n        /* \"--CODEGEN--\":77:97   */\n      mul\n        /* \"--CODEGEN--\":67:75   */\n      dup5\n        /* \"--CODEGEN--\":63:98   */\n      add\n        /* \"--CODEGEN--\":60:110   */\n      gt\n        /* \"--CODEGEN--\":39:50   */\n      0x0100000000\n        /* \"--CODEGEN--\":25:37   */\n      dup4\n        /* \"--CODEGEN--\":22:51   */\n      gt\n        /* \"--CODEGEN--\":11:118   */\n      or\n        /* \"--CODEGEN--\":8:10   */\n      iszero\n      tag_28\n      jumpi\n        /* \"--CODEGEN--\":131:132   */\n      0x00\n        /* \"--CODEGEN--\":128:129   */\n      dup1\n        /* \"--CODEGEN--\":121:133   */\n      revert\n        /* \"--CODEGEN--\":8:10   */\n    tag_28:\n        /* \"ichoronium-galactic-contracts/users/ichorProfiles.sol\":1140:1993  function addGamer(string memory _realFirstName, \r... */\n      swap2\n      swap1\n      dup1\n      dup1\n      0x1f\n      add\n      0x20\n      dup1\n      swap2\n      div\n      mul\n      0x20\n      add\n      mload(0x40)\n      swap1\n      dup2\n      add\n      0x40\n      mstore\n      dup1\n      swap4\n      swap3\n      swap2\n      swap1\n      dup2\n      dup2\n      mstore\n      0x20\n      add\n      dup4\n      dup4\n        /* \"--CODEGEN--\":30:33   */\n      dup1\n        /* \"--CODEGEN--\":22:28   */\n      dup3\n        /* \"--CODEGEN--\":14:20   */\n      dup5\n        /* \"--CODEGEN--\":1:34   */\n      calldatacopy\n        /* \"--CODEGEN--\":99:100   */\n      0x00\n        /* \"--CODEGEN--\":93:96   */\n      dup2\n        /* \"--CODEGEN--\":85:91   */\n      dup5\n        /* \"--CODEGEN--\":81:97   */\n      add\n        /* \"--CODEGEN--\":74:101   */\n      mstore\n        /* \"--CODEGEN--\":137:141   */\n      0x1f\n        /* \"--CODEGEN--\":133:142   */\n      not\n        /* \"--CODEGEN--\":126:130   */\n      0x1f\n        /* \"--CODEGEN--\":121:124   */\n      dup3\n        /* \"--CODEGEN--\":117:131   */\n      add\n        /* \"--CODEGEN--\":113:143   */\n      and\n        /* \"--CODEGEN--\":106:143   */\n      swap1\n      pop\n        /* \"--CODEGEN--\":169:172   */\n      dup1\n        /* \"--CODEGEN--\":161:167   */\n      dup4\n        /* \"--CODEGEN--\":157:173   */\n      add\n        /* \"--CODEGEN--\":147:173   */\n      swap3\n      pop\n        /* \"ichoronium-galactic-contracts/users/ichorProfiles.sol\":1140:1993  function addGamer(string memory _realFirstName, \r... */\n      pop\n      pop\n      pop\n      pop\n      pop\n      pop\n      swap2\n      swap3\n      swap2\n      swap3\n      swap1\n      dup1\n      calldataload\n      swap1\n      0x20\n      add\n      swap1\n      swap3\n      swap2\n      swap1\n      pop\n      pop\n      pop\n      tag_29\n      jump\t// in\n    tag_18:\n      stop\n        /* \"ichoronium-galactic-contracts/users/ichorProfiles.sol\":161:200  mapping(uint256 => Gamer) public gamers */\n    tag_7:\n      tag_30\n      0x04\n      dup1\n      calldatasize\n      sub\n        /* \"--CODEGEN--\":13:15   */\n      0x20\n        /* \"--CODEGEN--\":8:11   */\n      dup2\n        /* \"--CODEGEN--\":5:16   */\n      lt\n        /* \"--CODEGEN--\":2:4   */\n      iszero\n      tag_31\n      jumpi\n        /* \"--CODEGEN--\":29:30   */\n      0x00\n        /* \"--CODEGEN--\":26:27   */\n      dup1\n        /* \"--CODEGEN--\":19:31   */\n      revert\n        /* \"--CODEGEN--\":2:4   */\n    tag_31:\n        /* \"ichoronium-galactic-contracts/users/ichorProfiles.sol\":161:200  mapping(uint256 => Gamer) public gamers */\n      dup2\n      add\n      swap1\n      dup1\n      dup1\n      calldataload\n      swap1\n      0x20\n      add\n      swap1\n      swap3\n      swap2\n      swap1\n      pop\n      pop\n      pop\n      tag_32\n      jump\t// in\n    tag_30:\n      mload(0x40)\n      dup1\n      dup9\n      dup2\n      mstore\n      0x20\n      add\n      dup8\n      dup2\n      mstore\n      0x20\n      add\n      dup1\n      0x20\n      add\n      dup1\n      0x20\n      add\n      dup1\n      0x20\n      add\n      dup7\n      dup2\n      mstore\n      0x20\n      add\n      dup6\n      dup2\n      mstore\n      0x20\n      add\n      dup5\n      dup2\n      sub\n      dup5\n      mstore\n      dup10\n      dup2\n      dup2\n      mload\n      dup2\n      mstore\n      0x20\n      add\n      swap2\n      pop\n      dup1\n      mload\n      swap1\n      0x20\n      add\n      swap1\n      dup1\n      dup4\n      dup4\n        /* \"--CODEGEN--\":23:24   */\n      0x00\n        /* \"--CODEGEN--\":8:108   */\n    tag_33:\n        /* \"--CODEGEN--\":33:36   */\n      dup4\n        /* \"--CODEGEN--\":30:31   */\n      dup2\n        /* \"--CODEGEN--\":27:37   */\n      lt\n        /* \"--CODEGEN--\":8:108   */\n      iszero\n      tag_35\n      jumpi\n        /* \"--CODEGEN--\":99:100   */\n      dup1\n        /* \"--CODEGEN--\":94:97   */\n      dup3\n        /* \"--CODEGEN--\":90:101   */\n      add\n        /* \"--CODEGEN--\":84:102   */\n      mload\n        /* \"--CODEGEN--\":80:81   */\n      dup2\n        /* \"--CODEGEN--\":75:78   */\n      dup5\n        /* \"--CODEGEN--\":71:82   */\n      add\n        /* \"--CODEGEN--\":64:103   */\n      mstore\n        /* \"--CODEGEN--\":52:54   */\n      0x20\n        /* \"--CODEGEN--\":49:50   */\n      dup2\n        /* \"--CODEGEN--\":45:55   */\n      add\n        /* \"--CODEGEN--\":40:55   */\n      swap1\n      pop\n        /* \"--CODEGEN--\":8:108   */\n      jump(tag_33)\n    tag_35:\n        /* \"--CODEGEN--\":12:26   */\n      pop\n        /* \"ichoronium-galactic-contracts/users/ichorProfiles.sol\":161:200  mapping(uint256 => Gamer) public gamers */\n      pop\n      pop\n      pop\n      swap1\n      pop\n      swap1\n      dup2\n      add\n      swap1\n      0x1f\n      and\n      dup1\n      iszero\n      tag_36\n      jumpi\n      dup1\n      dup3\n      sub\n      dup1\n      mload\n      0x01\n      dup4\n      0x20\n      sub\n      0x0100\n      exp\n      sub\n      not\n      and\n      dup2\n      mstore\n      0x20\n      add\n      swap2\n      pop\n    tag_36:\n      pop\n      dup5\n      dup2\n      sub\n      dup4\n      mstore\n      dup9\n      dup2\n      dup2\n      mload\n      dup2\n      mstore\n      0x20\n      add\n      swap2\n      pop\n      dup1\n      mload\n      swap1\n      0x20\n      add\n      swap1\n      dup1\n      dup4\n      dup4\n        /* \"--CODEGEN--\":23:24   */\n      0x00\n        /* \"--CODEGEN--\":8:108   */\n    tag_37:\n        /* \"--CODEGEN--\":33:36   */\n      dup4\n        /* \"--CODEGEN--\":30:31   */\n      dup2\n        /* \"--CODEGEN--\":27:37   */\n      lt\n        /* \"--CODEGEN--\":8:108   */\n      iszero\n      tag_39\n      jumpi\n        /* \"--CODEGEN--\":99:100   */\n      dup1\n        /* \"--CODEGEN--\":94:97   */\n      dup3\n        /* \"--CODEGEN--\":90:101   */\n      add\n        /* \"--CODEGEN--\":84:102   */\n      mload\n        /* \"--CODEGEN--\":80:81   */\n      dup2\n        /* \"--CODEGEN--\":75:78   */\n      dup5\n        /* \"--CODEGEN--\":71:82   */\n      add\n        /* \"--CODEGEN--\":64:103   */\n      mstore\n        /* \"--CODEGEN--\":52:54   */\n      0x20\n        /* \"--CODEGEN--\":49:50   */\n      dup2\n        /* \"--CODEGEN--\":45:55   */\n      add\n        /* \"--CODEGEN--\":40:55   */\n      swap1\n      pop\n        /* \"--CODEGEN--\":8:108   */\n      jump(tag_37)\n    tag_39:\n        /* \"--CODEGEN--\":12:26   */\n      pop\n        /* \"ichoronium-galactic-contracts/users/ichorProfiles.sol\":161:200  mapping(uint256 => Gamer) public gamers */\n      pop\n      pop\n      pop\n      swap1\n      pop\n      swap1\n      dup2\n      add\n      swap1\n      0x1f\n      and\n      dup1\n      iszero\n      tag_40\n      jumpi\n      dup1\n      dup3\n      sub\n      dup1\n      mload\n      0x01\n      dup4\n      0x20\n      sub\n      0x0100\n      exp\n      sub\n      not\n      and\n      dup2\n      mstore\n      0x20\n      add\n      swap2\n      pop\n    tag_40:\n      pop\n      dup5\n      dup2\n      sub\n      dup3\n      mstore\n      dup8\n      dup2\n      dup2\n      mload\n      dup2\n      mstore\n      0x20\n      add\n      swap2\n      pop\n      dup1\n      mload\n      swap1\n      0x20\n      add\n      swap1\n      dup1\n      dup4\n      dup4\n        /* \"--CODEGEN--\":23:24   */\n      0x00\n        /* \"--CODEGEN--\":8:108   */\n    tag_41:\n        /* \"--CODEGEN--\":33:36   */\n      dup4\n        /* \"--CODEGEN--\":30:31   */\n      dup2\n        /* \"--CODEGEN--\":27:37   */\n      lt\n        /* \"--CODEGEN--\":8:108   */\n      iszero\n      tag_43\n      jumpi\n        /* \"--CODEGEN--\":99:100   */\n      dup1\n        /* \"--CODEGEN--\":94:97   */\n      dup3\n        /* \"--CODEGEN--\":90:101   */\n      add\n        /* \"--CODEGEN--\":84:102   */\n      mload\n        /* \"--CODEGEN--\":80:81   */\n      dup2\n        /* \"--CODEGEN--\":75:78   */\n      dup5\n        /* \"--CODEGEN--\":71:82   */\n      add\n        /* \"--CODEGEN--\":64:103   */\n      mstore\n        /* \"--CODEGEN--\":52:54   */\n      0x20\n        /* \"--CODEGEN--\":49:50   */\n      dup2\n        /* \"--CODEGEN--\":45:55   */\n      add\n        /* \"--CODEGEN--\":40:55   */\n      swap1\n      pop\n        /* \"--CODEGEN--\":8:108   */\n      jump(tag_41)\n    tag_43:\n        /* \"--CODEGEN--\":12:26   */\n      pop\n        /* \"ichoronium-galactic-contracts/users/ichorProfiles.sol\":161:200  mapping(uint256 => Gamer) public gamers */\n      pop\n      pop\n      pop\n      swap1\n      pop\n      swap1\n      dup2\n      add\n      swap1\n      0x1f\n      and\n      dup1\n      iszero\n      tag_44\n      jumpi\n      dup1\n      dup3\n      sub\n      dup1\n      mload\n      0x01\n      dup4\n      0x20\n      sub\n      0x0100\n      exp\n      sub\n      not\n      and\n      dup2\n      mstore\n      0x20\n      add\n      swap2\n      pop\n    tag_44:\n      pop\n      swap11\n      pop\n      pop\n      pop\n      pop\n      pop\n      pop\n      pop\n      pop\n      pop\n      pop\n      pop\n      mload(0x40)\n      dup1\n      swap2\n      sub\n      swap1\n      return\n        /* \"ichoronium-galactic-contracts/users/ichorProfiles.sol\":1999:2439  function checkBenefactorExist (uint256 _benefactor)\r... */\n    tag_8:\n      tag_45\n      0x04\n      dup1\n      calldatasize\n      sub\n        /* \"--CODEGEN--\":13:15   */\n      0x20\n        /* \"--CODEGEN--\":8:11   */\n      dup2\n        /* \"--CODEGEN--\":5:16   */\n      lt\n        /* \"--CODEGEN--\":2:4   */\n      iszero\n      tag_46\n      jumpi\n        /* \"--CODEGEN--\":29:30   */\n      0x00\n        /* \"--CODEGEN--\":26:27   */\n      dup1\n        /* \"--CODEGEN--\":19:31   */\n      revert\n        /* \"--CODEGEN--\":2:4   */\n    tag_46:\n        /* \"ichoronium-galactic-contracts/users/ichorProfiles.sol\":1999:2439  function checkBenefactorExist (uint256 _benefactor)\r... */\n      dup2\n      add\n      swap1\n      dup1\n      dup1\n      calldataload\n      swap1\n      0x20\n      add\n      swap1\n      swap3\n      swap2\n      swap1\n      pop\n      pop\n      pop\n      tag_47\n      jump\t// in\n    tag_45:\n      stop\n        /* \"ichoronium-galactic-contracts/users/ichorProfiles.sol\":3279:3434  function hardBanStatus(uint256 _id) public view returns (bool) {\r... */\n    tag_11:\n        /* \"ichoronium-galactic-contracts/users/ichorProfiles.sol\":3336:3340  bool */\n      0x00\n        /* \"ichoronium-galactic-contracts/users/ichorProfiles.sol\":3353:3376  gamerFlag storage flags */\n      dup1\n        /* \"ichoronium-galactic-contracts/users/ichorProfiles.sol\":3379:3389  gamerFlags */\n      0x02\n        /* \"ichoronium-galactic-contracts/users/ichorProfiles.sol\":3379:3394  gamerFlags[_id] */\n      0x00\n        /* \"ichoronium-galactic-contracts/users/ichorProfiles.sol\":3390:3393  _id */\n      dup5\n        /* \"ichoronium-galactic-contracts/users/ichorProfiles.sol\":3379:3394  gamerFlags[_id] */\n      dup2\n      mstore\n      0x20\n      add\n      swap1\n      dup2\n      mstore\n      0x20\n      add\n      0x00\n      keccak256\n        /* \"ichoronium-galactic-contracts/users/ichorProfiles.sol\":3353:3394  gamerFlag storage flags = gamerFlags[_id] */\n      swap1\n      pop\n        /* \"ichoronium-galactic-contracts/users/ichorProfiles.sol\":3412:3417  flags */\n      dup1\n        /* \"ichoronium-galactic-contracts/users/ichorProfiles.sol\":3412:3426  flags._hardBan */\n      0x01\n      add\n      0x04\n      swap1\n      sload\n      swap1\n      0x0100\n      exp\n      swap1\n      div\n      0xff\n      and\n        /* \"ichoronium-galactic-contracts/users/ichorProfiles.sol\":3405:3426  return flags._hardBan */\n      swap2\n      pop\n      pop\n        /* \"ichoronium-galactic-contracts/users/ichorProfiles.sol\":3279:3434  function hardBanStatus(uint256 _id) public view returns (bool) {\r... */\n      swap2\n      swap1\n      pop\n      jump\t// out\n        /* \"ichoronium-galactic-contracts/users/ichorProfiles.sol\":2862:3269  function hardbanToggle(uint256 _user) \r... */\n    tag_14:\n        /* \"ichoronium-galactic-contracts/users/ichorProfiles.sol\":999:1004  owner */\n      0x03\n      0x00\n      swap1\n      sload\n      swap1\n      0x0100\n      exp\n      swap1\n      div\n      0xffffffffffffffffffffffffffffffffffffffff\n      and\n        /* \"ichoronium-galactic-contracts/users/ichorProfiles.sol\":985:1004  msg.sender == owner */\n      0xffffffffffffffffffffffffffffffffffffffff\n      and\n        /* \"ichoronium-galactic-contracts/users/ichorProfiles.sol\":985:995  msg.sender */\n      caller\n        /* \"ichoronium-galactic-contracts/users/ichorProfiles.sol\":985:1004  msg.sender == owner */\n      0xffffffffffffffffffffffffffffffffffffffff\n      and\n      eq\n        /* \"ichoronium-galactic-contracts/users/ichorProfiles.sol\":976:1005  require (msg.sender == owner) */\n      tag_50\n      jumpi\n      0x00\n      dup1\n      revert\n    tag_50:\n        /* \"ichoronium-galactic-contracts/users/ichorProfiles.sol\":3003:3008  false */\n      0x00\n        /* \"ichoronium-galactic-contracts/users/ichorProfiles.sol\":2973:3008  gamerFlags[_user]._hardBan == false */\n      iszero\n      iszero\n        /* \"ichoronium-galactic-contracts/users/ichorProfiles.sol\":2973:2983  gamerFlags */\n      0x02\n        /* \"ichoronium-galactic-contracts/users/ichorProfiles.sol\":2973:2990  gamerFlags[_user] */\n      0x00\n        /* \"ichoronium-galactic-contracts/users/ichorProfiles.sol\":2984:2989  _user */\n      dup4\n        /* \"ichoronium-galactic-contracts/users/ichorProfiles.sol\":2973:2990  gamerFlags[_user] */\n      dup2\n      mstore\n      0x20\n      add\n      swap1\n      dup2\n      mstore\n      0x20\n      add\n      0x00\n      keccak256\n        /* \"ichoronium-galactic-contracts/users/ichorProfiles.sol\":2973:2999  gamerFlags[_user]._hardBan */\n      0x01\n      add\n      0x04\n      swap1\n      sload\n      swap1\n      0x0100\n      exp\n      swap1\n      div\n      0xff\n      and\n        /* \"ichoronium-galactic-contracts/users/ichorProfiles.sol\":2973:3008  gamerFlags[_user]._hardBan == false */\n      iszero\n      iszero\n      eq\n        /* \"ichoronium-galactic-contracts/users/ichorProfiles.sol\":2969:3252  if (gamerFlags[_user]._hardBan == false){\r... */\n      iszero\n      tag_52\n      jumpi\n        /* \"ichoronium-galactic-contracts/users/ichorProfiles.sol\":3062:3066  true */\n      0x01\n        /* \"ichoronium-galactic-contracts/users/ichorProfiles.sol\":3033:3043  gamerFlags */\n      0x02\n        /* \"ichoronium-galactic-contracts/users/ichorProfiles.sol\":3033:3050  gamerFlags[_user] */\n      0x00\n        /* \"ichoronium-galactic-contracts/users/ichorProfiles.sol\":3044:3049  _user */\n      dup4\n        /* \"ichoronium-galactic-contracts/users/ichorProfiles.sol\":3033:3050  gamerFlags[_user] */\n      dup2\n      mstore\n      0x20\n      add\n      swap1\n      dup2\n      mstore\n      0x20\n      add\n      0x00\n      keccak256\n        /* \"ichoronium-galactic-contracts/users/ichorProfiles.sol\":3033:3059  gamerFlags[_user]._hardBan */\n      0x01\n      add\n      0x04\n        /* \"ichoronium-galactic-contracts/users/ichorProfiles.sol\":3033:3066  gamerFlags[_user]._hardBan = true */\n      0x0100\n      exp\n      dup2\n      sload\n      dup2\n      0xff\n      mul\n      not\n      and\n      swap1\n      dup4\n      iszero\n      iszero\n      mul\n      or\n      swap1\n      sstore\n      pop\n        /* \"ichoronium-galactic-contracts/users/ichorProfiles.sol\":2969:3252  if (gamerFlags[_user]._hardBan == false){\r... */\n      jump(tag_53)\n    tag_52:\n        /* \"ichoronium-galactic-contracts/users/ichorProfiles.sol\":3168:3172  true */\n      0x01\n        /* \"ichoronium-galactic-contracts/users/ichorProfiles.sol\":3138:3172  gamerFlags[_user]._hardBan == true */\n      iszero\n      iszero\n        /* \"ichoronium-galactic-contracts/users/ichorProfiles.sol\":3138:3148  gamerFlags */\n      0x02\n        /* \"ichoronium-galactic-contracts/users/ichorProfiles.sol\":3138:3155  gamerFlags[_user] */\n      0x00\n        /* \"ichoronium-galactic-contracts/users/ichorProfiles.sol\":3149:3154  _user */\n      dup4\n        /* \"ichoronium-galactic-contracts/users/ichorProfiles.sol\":3138:3155  gamerFlags[_user] */\n      dup2\n      mstore\n      0x20\n      add\n      swap1\n      dup2\n      mstore\n      0x20\n      add\n      0x00\n      keccak256\n        /* \"ichoronium-galactic-contracts/users/ichorProfiles.sol\":3138:3164  gamerFlags[_user]._hardBan */\n      0x01\n      add\n      0x04\n      swap1\n      sload\n      swap1\n      0x0100\n      exp\n      swap1\n      div\n      0xff\n      and\n        /* \"ichoronium-galactic-contracts/users/ichorProfiles.sol\":3138:3172  gamerFlags[_user]._hardBan == true */\n      iszero\n      iszero\n      eq\n        /* \"ichoronium-galactic-contracts/users/ichorProfiles.sol\":3134:3252  if (gamerFlags[_user]._hardBan == true){\r... */\n      iszero\n      tag_54\n      jumpi\n        /* \"ichoronium-galactic-contracts/users/ichorProfiles.sol\":3226:3231  false */\n      0x00\n        /* \"ichoronium-galactic-contracts/users/ichorProfiles.sol\":3197:3207  gamerFlags */\n      0x02\n        /* \"ichoronium-galactic-contracts/users/ichorProfiles.sol\":3197:3214  gamerFlags[_user] */\n      0x00\n        /* \"ichoronium-galactic-contracts/users/ichorProfiles.sol\":3208:3213  _user */\n      dup4\n        /* \"ichoronium-galactic-contracts/users/ichorProfiles.sol\":3197:3214  gamerFlags[_user] */\n      dup2\n      mstore\n      0x20\n      add\n      swap1\n      dup2\n      mstore\n      0x20\n      add\n      0x00\n      keccak256\n        /* \"ichoronium-galactic-contracts/users/ichorProfiles.sol\":3197:3223  gamerFlags[_user]._hardBan */\n      0x01\n      add\n      0x04\n        /* \"ichoronium-galactic-contracts/users/ichorProfiles.sol\":3197:3231  gamerFlags[_user]._hardBan = false */\n      0x0100\n      exp\n      dup2\n      sload\n      dup2\n      0xff\n      mul\n      not\n      and\n      swap1\n      dup4\n      iszero\n      iszero\n      mul\n      or\n      swap1\n      sstore\n      pop\n        /* \"ichoronium-galactic-contracts/users/ichorProfiles.sol\":3134:3252  if (gamerFlags[_user]._hardBan == true){\r... */\n    tag_54:\n        /* \"ichoronium-galactic-contracts/users/ichorProfiles.sol\":2969:3252  if (gamerFlags[_user]._hardBan == false){\r... */\n    tag_53:\n        /* \"ichoronium-galactic-contracts/users/ichorProfiles.sol\":2862:3269  function hardbanToggle(uint256 _user) \r... */\n      pop\n      jump\t// out\n        /* \"ichoronium-galactic-contracts/users/ichorProfiles.sol\":207:254  mapping(uint256 => gamerFlag) public gamerFlags */\n    tag_17:\n      mstore(0x20, 0x02)\n      dup1\n      0x00\n      mstore\n      keccak256(0x00, 0x40)\n      0x00\n      swap2\n      pop\n      swap1\n      pop\n      dup1\n      0x00\n      add\n      sload\n      swap1\n      dup1\n      0x01\n      add\n      0x00\n      swap1\n      sload\n      swap1\n      0x0100\n      exp\n      swap1\n      div\n      0xff\n      and\n      swap1\n      dup1\n      0x01\n      add\n      0x01\n      swap1\n      sload\n      swap1\n      0x0100\n      exp\n      swap1\n      div\n      0xff\n      and\n      swap1\n      dup1\n      0x01\n      add\n      0x02\n      swap1\n      sload\n      swap1\n      0x0100\n      exp\n      swap1\n      div\n      0xff\n      and\n      swap1\n      dup1\n      0x01\n      add\n      0x03\n      swap1\n      sload\n      swap1\n      0x0100\n      exp\n      swap1\n      div\n      0xff\n      and\n      swap1\n      dup1\n      0x01\n      add\n      0x04\n      swap1\n      sload\n      swap1\n      0x0100\n      exp\n      swap1\n      div\n      0xff\n      and\n      swap1\n      dup1\n      0x01\n      add\n      0x05\n      swap1\n      sload\n      swap1\n      0x0100\n      exp\n      swap1\n      div\n      0xff\n      and\n      swap1\n      dup1\n      0x02\n      add\n      sload\n      swap1\n      dup1\n      0x03\n      add\n      sload\n      swap1\n      dup1\n      0x04\n      add\n      sload\n      swap1\n      dup1\n      0x05\n      add\n      sload\n      swap1\n      pop\n      dup12\n      jump\t// out\n        /* \"ichoronium-galactic-contracts/users/ichorProfiles.sol\":1140:1993  function addGamer(string memory _realFirstName, \r... */\n    tag_29:\n        /* \"ichoronium-galactic-contracts/users/ichorProfiles.sol\":999:1004  owner */\n      0x03\n      0x00\n      swap1\n      sload\n      swap1\n      0x0100\n      exp\n      swap1\n      div\n      0xffffffffffffffffffffffffffffffffffffffff\n      and\n        /* \"ichoronium-galactic-contracts/users/ichorProfiles.sol\":985:1004  msg.sender == owner */\n      0xffffffffffffffffffffffffffffffffffffffff\n      and\n        /* \"ichoronium-galactic-contracts/users/ichorProfiles.sol\":985:995  msg.sender */\n      caller\n        /* \"ichoronium-galactic-contracts/users/ichorProfiles.sol\":985:1004  msg.sender == owner */\n      0xffffffffffffffffffffffffffffffffffffffff\n      and\n      eq\n        /* \"ichoronium-galactic-contracts/users/ichorProfiles.sol\":976:1005  require (msg.sender == owner) */\n      tag_56\n      jumpi\n      0x00\n      dup1\n      revert\n    tag_56:\n        /* \"ichoronium-galactic-contracts/users/ichorProfiles.sol\":1465:1466  0 */\n      0x00\n        /* \"ichoronium-galactic-contracts/users/ichorProfiles.sol\":1451:1461  gamerCount */\n      dup1\n      sload\n        /* \"ichoronium-galactic-contracts/users/ichorProfiles.sol\":1451:1466  gamerCount == 0 */\n      eq\n        /* \"ichoronium-galactic-contracts/users/ichorProfiles.sol\":1447:1617  if (gamerCount == 0){\r... */\n      iszero\n      tag_58\n      jumpi\n        /* \"ichoronium-galactic-contracts/users/ichorProfiles.sol\":1496:1511  addFirstGamer() */\n      tag_59\n        /* \"ichoronium-galactic-contracts/users/ichorProfiles.sol\":1496:1509  addFirstGamer */\n      tag_60\n        /* \"ichoronium-galactic-contracts/users/ichorProfiles.sol\":1496:1511  addFirstGamer() */\n      jump\t// in\n    tag_59:\n        /* \"ichoronium-galactic-contracts/users/ichorProfiles.sol\":1543:1559  incrementCount() */\n      tag_61\n        /* \"ichoronium-galactic-contracts/users/ichorProfiles.sol\":1543:1557  incrementCount */\n      tag_62\n        /* \"ichoronium-galactic-contracts/users/ichorProfiles.sol\":1543:1559  incrementCount() */\n      jump\t// in\n    tag_61:\n        /* \"ichoronium-galactic-contracts/users/ichorProfiles.sol\":1447:1617  if (gamerCount == 0){\r... */\n    tag_58:\n        /* \"ichoronium-galactic-contracts/users/ichorProfiles.sol\":1642:1675  checkBenefactorExist(_benefactor) */\n      tag_63\n        /* \"ichoronium-galactic-contracts/users/ichorProfiles.sol\":1663:1674  _benefactor */\n      dup2\n        /* \"ichoronium-galactic-contracts/users/ichorProfiles.sol\":1642:1662  checkBenefactorExist */\n      tag_47\n        /* \"ichoronium-galactic-contracts/users/ichorProfiles.sol\":1642:1675  checkBenefactorExist(_benefactor) */\n      jump\t// in\n    tag_63:\n        /* \"ichoronium-galactic-contracts/users/ichorProfiles.sol\":1701:1717  incrementCount() */\n      tag_64\n        /* \"ichoronium-galactic-contracts/users/ichorProfiles.sol\":1701:1715  incrementCount */\n      tag_62\n        /* \"ichoronium-galactic-contracts/users/ichorProfiles.sol\":1701:1717  incrementCount() */\n      jump\t// in\n    tag_64:\n        /* \"ichoronium-galactic-contracts/users/ichorProfiles.sol\":1764:1853  Gamer(gamerCount,todaysDate,_realFirstName,_realLastName,_officialUserName,0,_benefactor) */\n      mload(0x40)\n      dup1\n      0xe0\n      add\n      0x40\n      mstore\n      dup1\n        /* \"ichoronium-galactic-contracts/users/ichorProfiles.sol\":1770:1780  gamerCount */\n      sload(0x00)\n        /* \"ichoronium-galactic-contracts/users/ichorProfiles.sol\":1764:1853  Gamer(gamerCount,todaysDate,_realFirstName,_realLastName,_officialUserName,0,_benefactor) */\n      dup2\n      mstore\n      0x20\n      add\n        /* \"ichoronium-galactic-contracts/users/ichorProfiles.sol\":1781:1791  todaysDate */\n      sload(0x04)\n        /* \"ichoronium-galactic-contracts/users/ichorProfiles.sol\":1764:1853  Gamer(gamerCount,todaysDate,_realFirstName,_realLastName,_officialUserName,0,_benefactor) */\n      dup2\n      mstore\n      0x20\n      add\n        /* \"ichoronium-galactic-contracts/users/ichorProfiles.sol\":1792:1806  _realFirstName */\n      dup6\n        /* \"ichoronium-galactic-contracts/users/ichorProfiles.sol\":1764:1853  Gamer(gamerCount,todaysDate,_realFirstName,_realLastName,_officialUserName,0,_benefactor) */\n      dup2\n      mstore\n      0x20\n      add\n        /* \"ichoronium-galactic-contracts/users/ichorProfiles.sol\":1807:1820  _realLastName */\n      dup5\n        /* \"ichoronium-galactic-contracts/users/ichorProfiles.sol\":1764:1853  Gamer(gamerCount,todaysDate,_realFirstName,_realLastName,_officialUserName,0,_benefactor) */\n      dup2\n      mstore\n      0x20\n      add\n        /* \"ichoronium-galactic-contracts/users/ichorProfiles.sol\":1821:1838  _officialUserName */\n      dup4\n        /* \"ichoronium-galactic-contracts/users/ichorProfiles.sol\":1764:1853  Gamer(gamerCount,todaysDate,_realFirstName,_realLastName,_officialUserName,0,_benefactor) */\n      dup2\n      mstore\n      0x20\n      add\n        /* \"ichoronium-galactic-contracts/users/ichorProfiles.sol\":1839:1840  0 */\n      0x00\n        /* \"ichoronium-galactic-contracts/users/ichorProfiles.sol\":1764:1853  Gamer(gamerCount,todaysDate,_realFirstName,_realLastName,_officialUserName,0,_benefactor) */\n      dup2\n      mstore\n      0x20\n      add\n        /* \"ichoronium-galactic-contracts/users/ichorProfiles.sol\":1841:1852  _benefactor */\n      dup3\n        /* \"ichoronium-galactic-contracts/users/ichorProfiles.sol\":1764:1853  Gamer(gamerCount,todaysDate,_realFirstName,_realLastName,_officialUserName,0,_benefactor) */\n      dup2\n      mstore\n      pop\n        /* \"ichoronium-galactic-contracts/users/ichorProfiles.sol\":1743:1749  gamers */\n      0x01\n        /* \"ichoronium-galactic-contracts/users/ichorProfiles.sol\":1743:1761  gamers[gamerCount] */\n      0x00\n        /* \"ichoronium-galactic-contracts/users/ichorProfiles.sol\":1750:1760  gamerCount */\n      dup1\n      sload\n        /* \"ichoronium-galactic-contracts/users/ichorProfiles.sol\":1743:1761  gamers[gamerCount] */\n      dup2\n      mstore\n      0x20\n      add\n      swap1\n      dup2\n      mstore\n      0x20\n      add\n      0x00\n      keccak256\n        /* \"ichoronium-galactic-contracts/users/ichorProfiles.sol\":1743:1853  gamers[gamerCount] = Gamer(gamerCount,todaysDate,_realFirstName,_realLastName,_officialUserName,0,_benefactor) */\n      0x00\n      dup3\n      add\n      mload\n      dup2\n      0x00\n      add\n      sstore\n      0x20\n      dup3\n      add\n      mload\n      dup2\n      0x01\n      add\n      sstore\n      0x40\n      dup3\n      add\n      mload\n      dup2\n      0x02\n      add\n      swap1\n      dup1\n      mload\n      swap1\n      0x20\n      add\n      swap1\n      tag_65\n      swap3\n      swap2\n      swap1\n      tag_66\n      jump\t// in\n    tag_65:\n      pop\n      0x60\n      dup3\n      add\n      mload\n      dup2\n      0x03\n      add\n      swap1\n      dup1\n      mload\n      swap1\n      0x20\n      add\n      swap1\n      tag_67\n      swap3\n      swap2\n      swap1\n      tag_66\n      jump\t// in\n    tag_67:\n      pop\n      0x80\n      dup3\n      add\n      mload\n      dup2\n      0x04\n      add\n      swap1\n      dup1\n      mload\n      swap1\n      0x20\n      add\n      swap1\n      tag_68\n      swap3\n      swap2\n      swap1\n      tag_66\n      jump\t// in\n    tag_68:\n      pop\n      0xa0\n      dup3\n      add\n      mload\n      dup2\n      0x05\n      add\n      sstore\n      0xc0\n      dup3\n      add\n      mload\n      dup2\n      0x06\n      add\n      sstore\n      swap1\n      pop\n      pop\n        /* \"ichoronium-galactic-contracts/users/ichorProfiles.sol\":1904:1969  gamerFlag(gamerCount,false,false,false,false,false,false,0,0,0,0) */\n      mload(0x40)\n      dup1\n      0x0160\n      add\n      0x40\n      mstore\n      dup1\n        /* \"ichoronium-galactic-contracts/users/ichorProfiles.sol\":1914:1924  gamerCount */\n      sload(0x00)\n        /* \"ichoronium-galactic-contracts/users/ichorProfiles.sol\":1904:1969  gamerFlag(gamerCount,false,false,false,false,false,false,0,0,0,0) */\n      dup2\n      mstore\n      0x20\n      add\n        /* \"ichoronium-galactic-contracts/users/ichorProfiles.sol\":1925:1930  false */\n      0x00\n        /* \"ichoronium-galactic-contracts/users/ichorProfiles.sol\":1904:1969  gamerFlag(gamerCount,false,false,false,false,false,false,0,0,0,0) */\n      iszero\n      iszero\n      dup2\n      mstore\n      0x20\n      add\n        /* \"ichoronium-galactic-contracts/users/ichorProfiles.sol\":1931:1936  false */\n      0x00\n        /* \"ichoronium-galactic-contracts/users/ichorProfiles.sol\":1904:1969  gamerFlag(gamerCount,false,false,false,false,false,false,0,0,0,0) */\n      iszero\n      iszero\n      dup2\n      mstore\n      0x20\n      add\n        /* \"ichoronium-galactic-contracts/users/ichorProfiles.sol\":1937:1942  false */\n      0x00\n        /* \"ichoronium-galactic-contracts/users/ichorProfiles.sol\":1904:1969  gamerFlag(gamerCount,false,false,false,false,false,false,0,0,0,0) */\n      iszero\n      iszero\n      dup2\n      mstore\n      0x20\n      add\n        /* \"ichoronium-galactic-contracts/users/ichorProfiles.sol\":1943:1948  false */\n      0x00\n        /* \"ichoronium-galactic-contracts/users/ichorProfiles.sol\":1904:1969  gamerFlag(gamerCount,false,false,false,false,false,false,0,0,0,0) */\n      iszero\n      iszero\n      dup2\n      mstore\n      0x20\n      add\n        /* \"ichoronium-galactic-contracts/users/ichorProfiles.sol\":1949:1954  false */\n      0x00\n        /* \"ichoronium-galactic-contracts/users/ichorProfiles.sol\":1904:1969  gamerFlag(gamerCount,false,false,false,false,false,false,0,0,0,0) */\n      iszero\n      iszero\n      dup2\n      mstore\n      0x20\n      add\n        /* \"ichoronium-galactic-contracts/users/ichorProfiles.sol\":1955:1960  false */\n      0x00\n        /* \"ichoronium-galactic-contracts/users/ichorProfiles.sol\":1904:1969  gamerFlag(gamerCount,false,false,false,false,false,false,0,0,0,0) */\n      iszero\n      iszero\n      dup2\n      mstore\n      0x20\n      add\n        /* \"ichoronium-galactic-contracts/users/ichorProfiles.sol\":1961:1962  0 */\n      0x00\n        /* \"ichoronium-galactic-contracts/users/ichorProfiles.sol\":1904:1969  gamerFlag(gamerCount,false,false,false,false,false,false,0,0,0,0) */\n      dup2\n      mstore\n      0x20\n      add\n        /* \"ichoronium-galactic-contracts/users/ichorProfiles.sol\":1963:1964  0 */\n      0x00\n        /* \"ichoronium-galactic-contracts/users/ichorProfiles.sol\":1904:1969  gamerFlag(gamerCount,false,false,false,false,false,false,0,0,0,0) */\n      dup2\n      mstore\n      0x20\n      add\n        /* \"ichoronium-galactic-contracts/users/ichorProfiles.sol\":1965:1966  0 */\n      0x00\n        /* \"ichoronium-galactic-contracts/users/ichorProfiles.sol\":1904:1969  gamerFlag(gamerCount,false,false,false,false,false,false,0,0,0,0) */\n      dup2\n      mstore\n      0x20\n      add\n        /* \"ichoronium-galactic-contracts/users/ichorProfiles.sol\":1967:1968  0 */\n      0x00\n        /* \"ichoronium-galactic-contracts/users/ichorProfiles.sol\":1904:1969  gamerFlag(gamerCount,false,false,false,false,false,false,0,0,0,0) */\n      dup2\n      mstore\n      pop\n        /* \"ichoronium-galactic-contracts/users/ichorProfiles.sol\":1879:1889  gamerFlags */\n      0x02\n        /* \"ichoronium-galactic-contracts/users/ichorProfiles.sol\":1879:1901  gamerFlags[gamerCount] */\n      0x00\n        /* \"ichoronium-galactic-contracts/users/ichorProfiles.sol\":1890:1900  gamerCount */\n      dup1\n      sload\n        /* \"ichoronium-galactic-contracts/users/ichorProfiles.sol\":1879:1901  gamerFlags[gamerCount] */\n      dup2\n      mstore\n      0x20\n      add\n      swap1\n      dup2\n      mstore\n      0x20\n      add\n      0x00\n      keccak256\n        /* \"ichoronium-galactic-contracts/users/ichorProfiles.sol\":1879:1969  gamerFlags[gamerCount] = gamerFlag(gamerCount,false,false,false,false,false,false,0,0,0,0) */\n      0x00\n      dup3\n      add\n      mload\n      dup2\n      0x00\n      add\n      sstore\n      0x20\n      dup3\n      add\n      mload\n      dup2\n      0x01\n      add\n      exp(0x0100, 0x00)\n      dup2\n      sload\n      dup2\n      0xff\n      mul\n      not\n      and\n      swap1\n      dup4\n      iszero\n      iszero\n      mul\n      or\n      swap1\n      sstore\n      pop\n      0x40\n      dup3\n      add\n      mload\n      dup2\n      0x01\n      add\n      exp(0x0100, 0x01)\n      dup2\n      sload\n      dup2\n      0xff\n      mul\n      not\n      and\n      swap1\n      dup4\n      iszero\n      iszero\n      mul\n      or\n      swap1\n      sstore\n      pop\n      0x60\n      dup3\n      add\n      mload\n      dup2\n      0x01\n      add\n      exp(0x0100, 0x02)\n      dup2\n      sload\n      dup2\n      0xff\n      mul\n      not\n      and\n      swap1\n      dup4\n      iszero\n      iszero\n      mul\n      or\n      swap1\n      sstore\n      pop\n      0x80\n      dup3\n      add\n      mload\n      dup2\n      0x01\n      add\n      exp(0x0100, 0x03)\n      dup2\n      sload\n      dup2\n      0xff\n      mul\n      not\n      and\n      swap1\n      dup4\n      iszero\n      iszero\n      mul\n      or\n      swap1\n      sstore\n      pop\n      0xa0\n      dup3\n      add\n      mload\n      dup2\n      0x01\n      add\n      exp(0x0100, 0x04)\n      dup2\n      sload\n      dup2\n      0xff\n      mul\n      not\n      and\n      swap1\n      dup4\n      iszero\n      iszero\n      mul\n      or\n      swap1\n      sstore\n      pop\n      0xc0\n      dup3\n      add\n      mload\n      dup2\n      0x01\n      add\n      exp(0x0100, 0x05)\n      dup2\n      sload\n      dup2\n      0xff\n      mul\n      not\n      and\n      swap1\n      dup4\n      iszero\n      iszero\n      mul\n      or\n      swap1\n      sstore\n      pop\n      0xe0\n      dup3\n      add\n      mload\n      dup2\n      0x02\n      add\n      sstore\n      0x0100\n      dup3\n      add\n      mload\n      dup2\n      0x03\n      add\n      sstore\n      0x0120\n      dup3\n      add\n      mload\n      dup2\n      0x04\n      add\n      sstore\n      0x0140\n      dup3\n      add\n      mload\n      dup2\n      0x05\n      add\n      sstore\n      swap1\n      pop\n      pop\n        /* \"ichoronium-galactic-contracts/users/ichorProfiles.sol\":1140:1993  function addGamer(string memory _realFirstName, \r... */\n      pop\n      pop\n      pop\n      pop\n      jump\t// out\n        /* \"ichoronium-galactic-contracts/users/ichorProfiles.sol\":161:200  mapping(uint256 => Gamer) public gamers */\n    tag_32:\n      mstore(0x20, 0x01)\n      dup1\n      0x00\n      mstore\n      keccak256(0x00, 0x40)\n      0x00\n      swap2\n      pop\n      swap1\n      pop\n      dup1\n      0x00\n      add\n      sload\n      swap1\n      dup1\n      0x01\n      add\n      sload\n      swap1\n      dup1\n      0x02\n      add\n      dup1\n      sload\n      0x01\n      dup2\n      0x01\n      and\n      iszero\n      0x0100\n      mul\n      sub\n      and\n      0x02\n      swap1\n      div\n      dup1\n      0x1f\n      add\n      0x20\n      dup1\n      swap2\n      div\n      mul\n      0x20\n      add\n      mload(0x40)\n      swap1\n      dup2\n      add\n      0x40\n      mstore\n      dup1\n      swap3\n      swap2\n      swap1\n      dup2\n      dup2\n      mstore\n      0x20\n      add\n      dup3\n      dup1\n      sload\n      0x01\n      dup2\n      0x01\n      and\n      iszero\n      0x0100\n      mul\n      sub\n      and\n      0x02\n      swap1\n      div\n      dup1\n      iszero\n      tag_69\n      jumpi\n      dup1\n      0x1f\n      lt\n      tag_70\n      jumpi\n      0x0100\n      dup1\n      dup4\n      sload\n      div\n      mul\n      dup4\n      mstore\n      swap2\n      0x20\n      add\n      swap2\n      jump(tag_69)\n    tag_70:\n      dup3\n      add\n      swap2\n      swap1\n      0x00\n      mstore\n      keccak256(0x00, 0x20)\n      swap1\n    tag_71:\n      dup2\n      sload\n      dup2\n      mstore\n      swap1\n      0x01\n      add\n      swap1\n      0x20\n      add\n      dup1\n      dup4\n      gt\n      tag_71\n      jumpi\n      dup3\n      swap1\n      sub\n      0x1f\n      and\n      dup3\n      add\n      swap2\n    tag_69:\n      pop\n      pop\n      pop\n      pop\n      pop\n      swap1\n      dup1\n      0x03\n      add\n      dup1\n      sload\n      0x01\n      dup2\n      0x01\n      and\n      iszero\n      0x0100\n      mul\n      sub\n      and\n      0x02\n      swap1\n      div\n      dup1\n      0x1f\n      add\n      0x20\n      dup1\n      swap2\n      div\n      mul\n      0x20\n      add\n      mload(0x40)\n      swap1\n      dup2\n      add\n      0x40\n      mstore\n      dup1\n      swap3\n      swap2\n      swap1\n      dup2\n      dup2\n      mstore\n      0x20\n      add\n      dup3\n      dup1\n      sload\n      0x01\n      dup2\n      0x01\n      and\n      iszero\n      0x0100\n      mul\n      sub\n      and\n      0x02\n      swap1\n      div\n      dup1\n      iszero\n      tag_72\n      jumpi\n      dup1\n      0x1f\n      lt\n      tag_73\n      jumpi\n      0x0100\n      dup1\n      dup4\n      sload\n      div\n      mul\n      dup4\n      mstore\n      swap2\n      0x20\n      add\n      swap2\n      jump(tag_72)\n    tag_73:\n      dup3\n      add\n      swap2\n      swap1\n      0x00\n      mstore\n      keccak256(0x00, 0x20)\n      swap1\n    tag_74:\n      dup2\n      sload\n      dup2\n      mstore\n      swap1\n      0x01\n      add\n      swap1\n      0x20\n      add\n      dup1\n      dup4\n      gt\n      tag_74\n      jumpi\n      dup3\n      swap1\n      sub\n      0x1f\n      and\n      dup3\n      add\n      swap2\n    tag_72:\n      pop\n      pop\n      pop\n      pop\n      pop\n      swap1\n      dup1\n      0x04\n      add\n      dup1\n      sload\n      0x01\n      dup2\n      0x01\n      and\n      iszero\n      0x0100\n      mul\n      sub\n      and\n      0x02\n      swap1\n      div\n      dup1\n      0x1f\n      add\n      0x20\n      dup1\n      swap2\n      div\n      mul\n      0x20\n      add\n      mload(0x40)\n      swap1\n      dup2\n      add\n      0x40\n      mstore\n      dup1\n      swap3\n      swap2\n      swap1\n      dup2\n      dup2\n      mstore\n      0x20\n      add\n      dup3\n      dup1\n      sload\n      0x01\n      dup2\n      0x01\n      and\n      iszero\n      0x0100\n      mul\n      sub\n      and\n      0x02\n      swap1\n      div\n      dup1\n      iszero\n      tag_75\n      jumpi\n      dup1\n      0x1f\n      lt\n      tag_76\n      jumpi\n      0x0100\n      dup1\n      dup4\n      sload\n      div\n      mul\n      dup4\n      mstore\n      swap2\n      0x20\n      add\n      swap2\n      jump(tag_75)\n    tag_76:\n      dup3\n      add\n      swap2\n      swap1\n      0x00\n      mstore\n      keccak256(0x00, 0x20)\n      swap1\n    tag_77:\n      dup2\n      sload\n      dup2\n      mstore\n      swap1\n      0x01\n      add\n      swap1\n      0x20\n      add\n      dup1\n      dup4\n      gt\n      tag_77\n      jumpi\n      dup3\n      swap1\n      sub\n      0x1f\n      and\n      dup3\n      add\n      swap2\n    tag_75:\n      pop\n      pop\n      pop\n      pop\n      pop\n      swap1\n      dup1\n      0x05\n      add\n      sload\n      swap1\n      dup1\n      0x06\n      add\n      sload\n      swap1\n      pop\n      dup8\n      jump\t// out\n        /* \"ichoronium-galactic-contracts/users/ichorProfiles.sol\":1999:2439  function checkBenefactorExist (uint256 _benefactor)\r... */\n    tag_47:\n        /* \"ichoronium-galactic-contracts/users/ichorProfiles.sol\":2105:2123  uint256 beneNumber */\n      0x00\n        /* \"ichoronium-galactic-contracts/users/ichorProfiles.sol\":2126:2132  gamers */\n      0x01\n        /* \"ichoronium-galactic-contracts/users/ichorProfiles.sol\":2126:2145  gamers[_benefactor] */\n      0x00\n        /* \"ichoronium-galactic-contracts/users/ichorProfiles.sol\":2133:2144  _benefactor */\n      dup4\n        /* \"ichoronium-galactic-contracts/users/ichorProfiles.sol\":2126:2145  gamers[_benefactor] */\n      dup2\n      mstore\n      0x20\n      add\n      swap1\n      dup2\n      mstore\n      0x20\n      add\n      0x00\n      keccak256\n        /* \"ichoronium-galactic-contracts/users/ichorProfiles.sol\":2126:2149  gamers[_benefactor]._id */\n      0x00\n      add\n      sload\n        /* \"ichoronium-galactic-contracts/users/ichorProfiles.sol\":2105:2149  uint256 beneNumber = gamers[_benefactor]._id */\n      swap1\n      pop\n        /* \"ichoronium-galactic-contracts/users/ichorProfiles.sol\":2198:2199  0 */\n      0x00\n        /* \"ichoronium-galactic-contracts/users/ichorProfiles.sol\":2184:2194  beneNumber */\n      dup2\n        /* \"ichoronium-galactic-contracts/users/ichorProfiles.sol\":2184:2199  beneNumber >= 0 */\n      lt\n      iszero\n        /* \"ichoronium-galactic-contracts/users/ichorProfiles.sol\":2184:2227  beneNumber >= 0 && beneNumber <= gamerCount */\n      dup1\n      iszero\n      tag_79\n      jumpi\n      pop\n        /* \"ichoronium-galactic-contracts/users/ichorProfiles.sol\":2217:2227  gamerCount */\n      sload(0x00)\n        /* \"ichoronium-galactic-contracts/users/ichorProfiles.sol\":2203:2213  beneNumber */\n      dup2\n        /* \"ichoronium-galactic-contracts/users/ichorProfiles.sol\":2203:2227  beneNumber <= gamerCount */\n      gt\n      iszero\n        /* \"ichoronium-galactic-contracts/users/ichorProfiles.sol\":2184:2227  beneNumber >= 0 && beneNumber <= gamerCount */\n    tag_79:\n        /* \"ichoronium-galactic-contracts/users/ichorProfiles.sol\":2180:2412  if( beneNumber >= 0 && beneNumber <= gamerCount){\r... */\n      iszero\n      tag_80\n      jumpi\n      jump(tag_81)\n    tag_80:\n        /* \"ichoronium-galactic-contracts/users/ichorProfiles.sol\":2345:2380  revert(\"Benefactor Does Not Exist\") */\n      mload(0x40)\n      0x08c379a000000000000000000000000000000000000000000000000000000000\n      dup2\n      mstore\n      0x04\n      add\n      dup1\n      dup1\n      0x20\n      add\n      dup3\n      dup2\n      sub\n      dup3\n      mstore\n      0x19\n      dup2\n      mstore\n      0x20\n      add\n      dup1\n      0x42656e65666163746f7220446f6573204e6f7420457869737400000000000000\n      dup2\n      mstore\n      pop\n      0x20\n      add\n      swap2\n      pop\n      pop\n      mload(0x40)\n      dup1\n      swap2\n      sub\n      swap1\n      revert\n        /* \"ichoronium-galactic-contracts/users/ichorProfiles.sol\":2180:2412  if( beneNumber >= 0 && beneNumber <= gamerCount){\r... */\n    tag_81:\n        /* \"ichoronium-galactic-contracts/users/ichorProfiles.sol\":1999:2439  function checkBenefactorExist (uint256 _benefactor)\r... */\n      pop\n      pop\n      jump\t// out\n        /* \"ichoronium-galactic-contracts/users/ichorProfiles.sol\":2445:2855  function addFirstGamer()\r... */\n    tag_60:\n        /* \"ichoronium-galactic-contracts/users/ichorProfiles.sol\":2522:2586  Gamer(0,todaysDate,\"Darth\",\"DeathDealer\",\"deathdealer007\",239,1) */\n      mload(0x40)\n      dup1\n      0xe0\n      add\n      0x40\n      mstore\n      dup1\n        /* \"ichoronium-galactic-contracts/users/ichorProfiles.sol\":2528:2529  0 */\n      0x00\n        /* \"ichoronium-galactic-contracts/users/ichorProfiles.sol\":2522:2586  Gamer(0,todaysDate,\"Darth\",\"DeathDealer\",\"deathdealer007\",239,1) */\n      dup2\n      mstore\n      0x20\n      add\n        /* \"ichoronium-galactic-contracts/users/ichorProfiles.sol\":2530:2540  todaysDate */\n      sload(0x04)\n        /* \"ichoronium-galactic-contracts/users/ichorProfiles.sol\":2522:2586  Gamer(0,todaysDate,\"Darth\",\"DeathDealer\",\"deathdealer007\",239,1) */\n      dup2\n      mstore\n      0x20\n      add\n      mload(0x40)\n      dup1\n      0x40\n      add\n      0x40\n      mstore\n      dup1\n      0x05\n      dup2\n      mstore\n      0x20\n      add\n      0x4461727468000000000000000000000000000000000000000000000000000000\n      dup2\n      mstore\n      pop\n      dup2\n      mstore\n      0x20\n      add\n      mload(0x40)\n      dup1\n      0x40\n      add\n      0x40\n      mstore\n      dup1\n      0x0b\n      dup2\n      mstore\n      0x20\n      add\n      0x44656174684465616c6572000000000000000000000000000000000000000000\n      dup2\n      mstore\n      pop\n      dup2\n      mstore\n      0x20\n      add\n      mload(0x40)\n      dup1\n      0x40\n      add\n      0x40\n      mstore\n      dup1\n      0x0e\n      dup2\n      mstore\n      0x20\n      add\n      0x64656174686465616c6572303037000000000000000000000000000000000000\n      dup2\n      mstore\n      pop\n      dup2\n      mstore\n      0x20\n      add\n        /* \"ichoronium-galactic-contracts/users/ichorProfiles.sol\":2580:2583  239 */\n      0xef\n        /* \"ichoronium-galactic-contracts/users/ichorProfiles.sol\":2522:2586  Gamer(0,todaysDate,\"Darth\",\"DeathDealer\",\"deathdealer007\",239,1) */\n      dup2\n      mstore\n      0x20\n      add\n        /* \"ichoronium-galactic-contracts/users/ichorProfiles.sol\":2584:2585  1 */\n      0x01\n        /* \"ichoronium-galactic-contracts/users/ichorProfiles.sol\":2522:2586  Gamer(0,todaysDate,\"Darth\",\"DeathDealer\",\"deathdealer007\",239,1) */\n      dup2\n      mstore\n      pop\n        /* \"ichoronium-galactic-contracts/users/ichorProfiles.sol\":2510:2516  gamers */\n      0x01\n        /* \"ichoronium-galactic-contracts/users/ichorProfiles.sol\":2510:2519  gamers[0] */\n      0x00\n        /* \"ichoronium-galactic-contracts/users/ichorProfiles.sol\":2517:2518  0 */\n      dup1\n        /* \"ichoronium-galactic-contracts/users/ichorProfiles.sol\":2510:2519  gamers[0] */\n      dup2\n      mstore\n      0x20\n      add\n      swap1\n      dup2\n      mstore\n      0x20\n      add\n      0x00\n      keccak256\n        /* \"ichoronium-galactic-contracts/users/ichorProfiles.sol\":2510:2586  gamers[0] = Gamer(0,todaysDate,\"Darth\",\"DeathDealer\",\"deathdealer007\",239,1) */\n      0x00\n      dup3\n      add\n      mload\n      dup2\n      0x00\n      add\n      sstore\n      0x20\n      dup3\n      add\n      mload\n      dup2\n      0x01\n      add\n      sstore\n      0x40\n      dup3\n      add\n      mload\n      dup2\n      0x02\n      add\n      swap1\n      dup1\n      mload\n      swap1\n      0x20\n      add\n      swap1\n      tag_83\n      swap3\n      swap2\n      swap1\n      tag_66\n      jump\t// in\n    tag_83:\n      pop\n      0x60\n      dup3\n      add\n      mload\n      dup2\n      0x03\n      add\n      swap1\n      dup1\n      mload\n      swap1\n      0x20\n      add\n      swap1\n      tag_84\n      swap3\n      swap2\n      swap1\n      tag_66\n      jump\t// in\n    tag_84:\n      pop\n      0x80\n      dup3\n      add\n      mload\n      dup2\n      0x04\n      add\n      swap1\n      dup1\n      mload\n      swap1\n      0x20\n      add\n      swap1\n      tag_85\n      swap3\n      swap2\n      swap1\n      tag_66\n      jump\t// in\n    tag_85:\n      pop\n      0xa0\n      dup3\n      add\n      mload\n      dup2\n      0x05\n      add\n      sstore\n      0xc0\n      dup3\n      add\n      mload\n      dup2\n      0x06\n      add\n      sstore\n      swap1\n      pop\n      pop\n        /* \"ichoronium-galactic-contracts/users/ichorProfiles.sol\":2616:2670  Gamer(1,todaysDate,\"Zul\",\"Zed\",\"firstwizard007\",239,1) */\n      mload(0x40)\n      dup1\n      0xe0\n      add\n      0x40\n      mstore\n      dup1\n        /* \"ichoronium-galactic-contracts/users/ichorProfiles.sol\":2622:2623  1 */\n      0x01\n        /* \"ichoronium-galactic-contracts/users/ichorProfiles.sol\":2616:2670  Gamer(1,todaysDate,\"Zul\",\"Zed\",\"firstwizard007\",239,1) */\n      dup2\n      mstore\n      0x20\n      add\n        /* \"ichoronium-galactic-contracts/users/ichorProfiles.sol\":2624:2634  todaysDate */\n      sload(0x04)\n        /* \"ichoronium-galactic-contracts/users/ichorProfiles.sol\":2616:2670  Gamer(1,todaysDate,\"Zul\",\"Zed\",\"firstwizard007\",239,1) */\n      dup2\n      mstore\n      0x20\n      add\n      mload(0x40)\n      dup1\n      0x40\n      add\n      0x40\n      mstore\n      dup1\n      0x03\n      dup2\n      mstore\n      0x20\n      add\n      0x5a756c0000000000000000000000000000000000000000000000000000000000\n      dup2\n      mstore\n      pop\n      dup2\n      mstore\n      0x20\n      add\n      mload(0x40)\n      dup1\n      0x40\n      add\n      0x40\n      mstore\n      dup1\n      0x03\n      dup2\n      mstore\n      0x20\n      add\n      0x5a65640000000000000000000000000000000000000000000000000000000000\n      dup2\n      mstore\n      pop\n      dup2\n      mstore\n      0x20\n      add\n      mload(0x40)\n      dup1\n      0x40\n      add\n      0x40\n      mstore\n      dup1\n      0x0e\n      dup2\n      mstore\n      0x20\n      add\n      0x666972737477697a617264303037000000000000000000000000000000000000\n      dup2\n      mstore\n      pop\n      dup2\n      mstore\n      0x20\n      add\n        /* \"ichoronium-galactic-contracts/users/ichorProfiles.sol\":2664:2667  239 */\n      0xef\n        /* \"ichoronium-galactic-contracts/users/ichorProfiles.sol\":2616:2670  Gamer(1,todaysDate,\"Zul\",\"Zed\",\"firstwizard007\",239,1) */\n      dup2\n      mstore\n      0x20\n      add\n        /* \"ichoronium-galactic-contracts/users/ichorProfiles.sol\":2668:2669  1 */\n      0x01\n        /* \"ichoronium-galactic-contracts/users/ichorProfiles.sol\":2616:2670  Gamer(1,todaysDate,\"Zul\",\"Zed\",\"firstwizard007\",239,1) */\n      dup2\n      mstore\n      pop\n        /* \"ichoronium-galactic-contracts/users/ichorProfiles.sol\":2604:2610  gamers */\n      0x01\n        /* \"ichoronium-galactic-contracts/users/ichorProfiles.sol\":2604:2613  gamers[1] */\n      0x00\n        /* \"ichoronium-galactic-contracts/users/ichorProfiles.sol\":2611:2612  1 */\n      0x01\n        /* \"ichoronium-galactic-contracts/users/ichorProfiles.sol\":2604:2613  gamers[1] */\n      dup2\n      mstore\n      0x20\n      add\n      swap1\n      dup2\n      mstore\n      0x20\n      add\n      0x00\n      keccak256\n        /* \"ichoronium-galactic-contracts/users/ichorProfiles.sol\":2604:2670  gamers[1] = Gamer(1,todaysDate,\"Zul\",\"Zed\",\"firstwizard007\",239,1) */\n      0x00\n      dup3\n      add\n      mload\n      dup2\n      0x00\n      add\n      sstore\n      0x20\n      dup3\n      add\n      mload\n      dup2\n      0x01\n      add\n      sstore\n      0x40\n      dup3\n      add\n      mload\n      dup2\n      0x02\n      add\n      swap1\n      dup1\n      mload\n      swap1\n      0x20\n      add\n      swap1\n      tag_86\n      swap3\n      swap2\n      swap1\n      tag_66\n      jump\t// in\n    tag_86:\n      pop\n      0x60\n      dup3\n      add\n      mload\n      dup2\n      0x03\n      add\n      swap1\n      dup1\n      mload\n      swap1\n      0x20\n      add\n      swap1\n      tag_87\n      swap3\n      swap2\n      swap1\n      tag_66\n      jump\t// in\n    tag_87:\n      pop\n      0x80\n      dup3\n      add\n      mload\n      dup2\n      0x04\n      add\n      swap1\n      dup1\n      mload\n      swap1\n      0x20\n      add\n      swap1\n      tag_88\n      swap3\n      swap2\n      swap1\n      tag_66\n      jump\t// in\n    tag_88:\n      pop\n      0xa0\n      dup3\n      add\n      mload\n      dup2\n      0x05\n      add\n      sstore\n      0xc0\n      dup3\n      add\n      mload\n      dup2\n      0x06\n      add\n      sstore\n      swap1\n      pop\n      pop\n        /* \"ichoronium-galactic-contracts/users/ichorProfiles.sol\":2704:2754  gamerFlag(0,true,true,true,true,true,true,0,0,0,0) */\n      mload(0x40)\n      dup1\n      0x0160\n      add\n      0x40\n      mstore\n      dup1\n        /* \"ichoronium-galactic-contracts/users/ichorProfiles.sol\":2714:2715  0 */\n      0x00\n        /* \"ichoronium-galactic-contracts/users/ichorProfiles.sol\":2704:2754  gamerFlag(0,true,true,true,true,true,true,0,0,0,0) */\n      dup2\n      mstore\n      0x20\n      add\n        /* \"ichoronium-galactic-contracts/users/ichorProfiles.sol\":2716:2720  true */\n      0x01\n        /* \"ichoronium-galactic-contracts/users/ichorProfiles.sol\":2704:2754  gamerFlag(0,true,true,true,true,true,true,0,0,0,0) */\n      iszero\n      iszero\n      dup2\n      mstore\n      0x20\n      add\n        /* \"ichoronium-galactic-contracts/users/ichorProfiles.sol\":2721:2725  true */\n      0x01\n        /* \"ichoronium-galactic-contracts/users/ichorProfiles.sol\":2704:2754  gamerFlag(0,true,true,true,true,true,true,0,0,0,0) */\n      iszero\n      iszero\n      dup2\n      mstore\n      0x20\n      add\n        /* \"ichoronium-galactic-contracts/users/ichorProfiles.sol\":2726:2730  true */\n      0x01\n        /* \"ichoronium-galactic-contracts/users/ichorProfiles.sol\":2704:2754  gamerFlag(0,true,true,true,true,true,true,0,0,0,0) */\n      iszero\n      iszero\n      dup2\n      mstore\n      0x20\n      add\n        /* \"ichoronium-galactic-contracts/users/ichorProfiles.sol\":2731:2735  true */\n      0x01\n        /* \"ichoronium-galactic-contracts/users/ichorProfiles.sol\":2704:2754  gamerFlag(0,true,true,true,true,true,true,0,0,0,0) */\n      iszero\n      iszero\n      dup2\n      mstore\n      0x20\n      add\n        /* \"ichoronium-galactic-contracts/users/ichorProfiles.sol\":2736:2740  true */\n      0x01\n        /* \"ichoronium-galactic-contracts/users/ichorProfiles.sol\":2704:2754  gamerFlag(0,true,true,true,true,true,true,0,0,0,0) */\n      iszero\n      iszero\n      dup2\n      mstore\n      0x20\n      add\n        /* \"ichoronium-galactic-contracts/users/ichorProfiles.sol\":2741:2745  true */\n      0x01\n        /* \"ichoronium-galactic-contracts/users/ichorProfiles.sol\":2704:2754  gamerFlag(0,true,true,true,true,true,true,0,0,0,0) */\n      iszero\n      iszero\n      dup2\n      mstore\n      0x20\n      add\n        /* \"ichoronium-galactic-contracts/users/ichorProfiles.sol\":2746:2747  0 */\n      0x00\n        /* \"ichoronium-galactic-contracts/users/ichorProfiles.sol\":2704:2754  gamerFlag(0,true,true,true,true,true,true,0,0,0,0) */\n      dup2\n      mstore\n      0x20\n      add\n        /* \"ichoronium-galactic-contracts/users/ichorProfiles.sol\":2748:2749  0 */\n      0x00\n        /* \"ichoronium-galactic-contracts/users/ichorProfiles.sol\":2704:2754  gamerFlag(0,true,true,true,true,true,true,0,0,0,0) */\n      dup2\n      mstore\n      0x20\n      add\n        /* \"ichoronium-galactic-contracts/users/ichorProfiles.sol\":2750:2751  0 */\n      0x00\n        /* \"ichoronium-galactic-contracts/users/ichorProfiles.sol\":2704:2754  gamerFlag(0,true,true,true,true,true,true,0,0,0,0) */\n      dup2\n      mstore\n      0x20\n      add\n        /* \"ichoronium-galactic-contracts/users/ichorProfiles.sol\":2752:2753  0 */\n      0x00\n        /* \"ichoronium-galactic-contracts/users/ichorProfiles.sol\":2704:2754  gamerFlag(0,true,true,true,true,true,true,0,0,0,0) */\n      dup2\n      mstore\n      pop\n        /* \"ichoronium-galactic-contracts/users/ichorProfiles.sol\":2688:2698  gamerFlags */\n      0x02\n        /* \"ichoronium-galactic-contracts/users/ichorProfiles.sol\":2688:2701  gamerFlags[0] */\n      0x00\n        /* \"ichoronium-galactic-contracts/users/ichorProfiles.sol\":2699:2700  0 */\n      dup1\n        /* \"ichoronium-galactic-contracts/users/ichorProfiles.sol\":2688:2701  gamerFlags[0] */\n      dup2\n      mstore\n      0x20\n      add\n      swap1\n      dup2\n      mstore\n      0x20\n      add\n      0x00\n      keccak256\n        /* \"ichoronium-galactic-contracts/users/ichorProfiles.sol\":2688:2754  gamerFlags[0] = gamerFlag(0,true,true,true,true,true,true,0,0,0,0) */\n      0x00\n      dup3\n      add\n      mload\n      dup2\n      0x00\n      add\n      sstore\n      0x20\n      dup3\n      add\n      mload\n      dup2\n      0x01\n      add\n      exp(0x0100, 0x00)\n      dup2\n      sload\n      dup2\n      0xff\n      mul\n      not\n      and\n      swap1\n      dup4\n      iszero\n      iszero\n      mul\n      or\n      swap1\n      sstore\n      pop\n      0x40\n      dup3\n      add\n      mload\n      dup2\n      0x01\n      add\n      exp(0x0100, 0x01)\n      dup2\n      sload\n      dup2\n      0xff\n      mul\n      not\n      and\n      swap1\n      dup4\n      iszero\n      iszero\n      mul\n      or\n      swap1\n      sstore\n      pop\n      0x60\n      dup3\n      add\n      mload\n      dup2\n      0x01\n      add\n      exp(0x0100, 0x02)\n      dup2\n      sload\n      dup2\n      0xff\n      mul\n      not\n      and\n      swap1\n      dup4\n      iszero\n      iszero\n      mul\n      or\n      swap1\n      sstore\n      pop\n      0x80\n      dup3\n      add\n      mload\n      dup2\n      0x01\n      add\n      exp(0x0100, 0x03)\n      dup2\n      sload\n      dup2\n      0xff\n      mul\n      not\n      and\n      swap1\n      dup4\n      iszero\n      iszero\n      mul\n      or\n      swap1\n      sstore\n      pop\n      0xa0\n      dup3\n      add\n      mload\n      dup2\n      0x01\n      add\n      exp(0x0100, 0x04)\n      dup2\n      sload\n      dup2\n      0xff\n      mul\n      not\n      and\n      swap1\n      dup4\n      iszero\n      iszero\n      mul\n      or\n      swap1\n      sstore\n      pop\n      0xc0\n      dup3\n      add\n      mload\n      dup2\n      0x01\n      add\n      exp(0x0100, 0x05)\n      dup2\n      sload\n      dup2\n      0xff\n      mul\n      not\n      and\n      swap1\n      dup4\n      iszero\n      iszero\n      mul\n      or\n      swap1\n      sstore\n      pop\n      0xe0\n      dup3\n      add\n      mload\n      dup2\n      0x02\n      add\n      sstore\n      0x0100\n      dup3\n      add\n      mload\n      dup2\n      0x03\n      add\n      sstore\n      0x0120\n      dup3\n      add\n      mload\n      dup2\n      0x04\n      add\n      sstore\n      0x0140\n      dup3\n      add\n      mload\n      dup2\n      0x05\n      add\n      sstore\n      swap1\n      pop\n      pop\n        /* \"ichoronium-galactic-contracts/users/ichorProfiles.sol\":2788:2838  gamerFlag(1,true,true,true,true,true,true,0,0,0,0) */\n      mload(0x40)\n      dup1\n      0x0160\n      add\n      0x40\n      mstore\n      dup1\n        /* \"ichoronium-galactic-contracts/users/ichorProfiles.sol\":2798:2799  1 */\n      0x01\n        /* \"ichoronium-galactic-contracts/users/ichorProfiles.sol\":2788:2838  gamerFlag(1,true,true,true,true,true,true,0,0,0,0) */\n      dup2\n      mstore\n      0x20\n      add\n        /* \"ichoronium-galactic-contracts/users/ichorProfiles.sol\":2800:2804  true */\n      0x01\n        /* \"ichoronium-galactic-contracts/users/ichorProfiles.sol\":2788:2838  gamerFlag(1,true,true,true,true,true,true,0,0,0,0) */\n      iszero\n      iszero\n      dup2\n      mstore\n      0x20\n      add\n        /* \"ichoronium-galactic-contracts/users/ichorProfiles.sol\":2805:2809  true */\n      0x01\n        /* \"ichoronium-galactic-contracts/users/ichorProfiles.sol\":2788:2838  gamerFlag(1,true,true,true,true,true,true,0,0,0,0) */\n      iszero\n      iszero\n      dup2\n      mstore\n      0x20\n      add\n        /* \"ichoronium-galactic-contracts/users/ichorProfiles.sol\":2810:2814  true */\n      0x01\n        /* \"ichoronium-galactic-contracts/users/ichorProfiles.sol\":2788:2838  gamerFlag(1,true,true,true,true,true,true,0,0,0,0) */\n      iszero\n      iszero\n      dup2\n      mstore\n      0x20\n      add\n        /* \"ichoronium-galactic-contracts/users/ichorProfiles.sol\":2815:2819  true */\n      0x01\n        /* \"ichoronium-galactic-contracts/users/ichorProfiles.sol\":2788:2838  gamerFlag(1,true,true,true,true,true,true,0,0,0,0) */\n      iszero\n      iszero\n      dup2\n      mstore\n      0x20\n      add\n        /* \"ichoronium-galactic-contracts/users/ichorProfiles.sol\":2820:2824  true */\n      0x01\n        /* \"ichoronium-galactic-contracts/users/ichorProfiles.sol\":2788:2838  gamerFlag(1,true,true,true,true,true,true,0,0,0,0) */\n      iszero\n      iszero\n      dup2\n      mstore\n      0x20\n      add\n        /* \"ichoronium-galactic-contracts/users/ichorProfiles.sol\":2825:2829  true */\n      0x01\n        /* \"ichoronium-galactic-contracts/users/ichorProfiles.sol\":2788:2838  gamerFlag(1,true,true,true,true,true,true,0,0,0,0) */\n      iszero\n      iszero\n      dup2\n      mstore\n      0x20\n      add\n        /* \"ichoronium-galactic-contracts/users/ichorProfiles.sol\":2830:2831  0 */\n      0x00\n        /* \"ichoronium-galactic-contracts/users/ichorProfiles.sol\":2788:2838  gamerFlag(1,true,true,true,true,true,true,0,0,0,0) */\n      dup2\n      mstore\n      0x20\n      add\n        /* \"ichoronium-galactic-contracts/users/ichorProfiles.sol\":2832:2833  0 */\n      0x00\n        /* \"ichoronium-galactic-contracts/users/ichorProfiles.sol\":2788:2838  gamerFlag(1,true,true,true,true,true,true,0,0,0,0) */\n      dup2\n      mstore\n      0x20\n      add\n        /* \"ichoronium-galactic-contracts/users/ichorProfiles.sol\":2834:2835  0 */\n      0x00\n        /* \"ichoronium-galactic-contracts/users/ichorProfiles.sol\":2788:2838  gamerFlag(1,true,true,true,true,true,true,0,0,0,0) */\n      dup2\n      mstore\n      0x20\n      add\n        /* \"ichoronium-galactic-contracts/users/ichorProfiles.sol\":2836:2837  0 */\n      0x00\n        /* \"ichoronium-galactic-contracts/users/ichorProfiles.sol\":2788:2838  gamerFlag(1,true,true,true,true,true,true,0,0,0,0) */\n      dup2\n      mstore\n      pop\n        /* \"ichoronium-galactic-contracts/users/ichorProfiles.sol\":2772:2782  gamerFlags */\n      0x02\n        /* \"ichoronium-galactic-contracts/users/ichorProfiles.sol\":2772:2785  gamerFlags[1] */\n      0x00\n        /* \"ichoronium-galactic-contracts/users/ichorProfiles.sol\":2783:2784  1 */\n      0x01\n        /* \"ichoronium-galactic-contracts/users/ichorProfiles.sol\":2772:2785  gamerFlags[1] */\n      dup2\n      mstore\n      0x20\n      add\n      swap1\n      dup2\n      mstore\n      0x20\n      add\n      0x00\n      keccak256\n        /* \"ichoronium-galactic-contracts/users/ichorProfiles.sol\":2772:2838  gamerFlags[1] = gamerFlag(1,true,true,true,true,true,true,0,0,0,0) */\n      0x00\n      dup3\n      add\n      mload\n      dup2\n      0x00\n      add\n      sstore\n      0x20\n      dup3\n      add\n      mload\n      dup2\n      0x01\n      add\n      exp(0x0100, 0x00)\n      dup2\n      sload\n      dup2\n      0xff\n      mul\n      not\n      and\n      swap1\n      dup4\n      iszero\n      iszero\n      mul\n      or\n      swap1\n      sstore\n      pop\n      0x40\n      dup3\n      add\n      mload\n      dup2\n      0x01\n      add\n      exp(0x0100, 0x01)\n      dup2\n      sload\n      dup2\n      0xff\n      mul\n      not\n      and\n      swap1\n      dup4\n      iszero\n      iszero\n      mul\n      or\n      swap1\n      sstore\n      pop\n      0x60\n      dup3\n      add\n      mload\n      dup2\n      0x01\n      add\n      exp(0x0100, 0x02)\n      dup2\n      sload\n      dup2\n      0xff\n      mul\n      not\n      and\n      swap1\n      dup4\n      iszero\n      iszero\n      mul\n      or\n      swap1\n      sstore\n      pop\n      0x80\n      dup3\n      add\n      mload\n      dup2\n      0x01\n      add\n      exp(0x0100, 0x03)\n      dup2\n      sload\n      dup2\n      0xff\n      mul\n      not\n      and\n      swap1\n      dup4\n      iszero\n      iszero\n      mul\n      or\n      swap1\n      sstore\n      pop\n      0xa0\n      dup3\n      add\n      mload\n      dup2\n      0x01\n      add\n      exp(0x0100, 0x04)\n      dup2\n      sload\n      dup2\n      0xff\n      mul\n      not\n      and\n      swap1\n      dup4\n      iszero\n      iszero\n      mul\n      or\n      swap1\n      sstore\n      pop\n      0xc0\n      dup3\n      add\n      mload\n      dup2\n      0x01\n      add\n      exp(0x0100, 0x05)\n      dup2\n      sload\n      dup2\n      0xff\n      mul\n      not\n      and\n      swap1\n      dup4\n      iszero\n      iszero\n      mul\n      or\n      swap1\n      sstore\n      pop\n      0xe0\n      dup3\n      add\n      mload\n      dup2\n      0x02\n      add\n      sstore\n      0x0100\n      dup3\n      add\n      mload\n      dup2\n      0x03\n      add\n      sstore\n      0x0120\n      dup3\n      add\n      mload\n      dup2\n      0x04\n      add\n      sstore\n      0x0140\n      dup3\n      add\n      mload\n      dup2\n      0x05\n      add\n      sstore\n      swap1\n      pop\n      pop\n        /* \"ichoronium-galactic-contracts/users/ichorProfiles.sol\":2445:2855  function addFirstGamer()\r... */\n      jump\t// out\n        /* \"ichoronium-galactic-contracts/users/ichorProfiles.sol\":1030:1128  function incrementCount()\r... */\n    tag_62:\n        /* \"ichoronium-galactic-contracts/users/ichorProfiles.sol\":1110:1111  1 */\n      0x01\n        /* \"ichoronium-galactic-contracts/users/ichorProfiles.sol\":1096:1106  gamerCount */\n      0x00\n      dup1\n        /* \"ichoronium-galactic-contracts/users/ichorProfiles.sol\":1096:1111  gamerCount += 1 */\n      dup3\n      dup3\n      sload\n      add\n      swap3\n      pop\n      pop\n      dup2\n      swap1\n      sstore\n      pop\n        /* \"ichoronium-galactic-contracts/users/ichorProfiles.sol\":1030:1128  function incrementCount()\r... */\n      jump\t// out\n        /* \"ichoronium-galactic-contracts/users/ichorProfiles.sol\":86:3613  contract ichoroniumProfiles {\r... */\n    tag_66:\n      dup3\n      dup1\n      sload\n      0x01\n      dup2\n      0x01\n      and\n      iszero\n      0x0100\n      mul\n      sub\n      and\n      0x02\n      swap1\n      div\n      swap1\n      0x00\n      mstore\n      keccak256(0x00, 0x20)\n      swap1\n      0x1f\n      add\n      0x20\n      swap1\n      div\n      dup2\n      add\n      swap3\n      dup3\n      0x1f\n      lt\n      tag_91\n      jumpi\n      dup1\n      mload\n      not(0xff)\n      and\n      dup4\n      dup1\n      add\n      or\n      dup6\n      sstore\n      jump(tag_90)\n    tag_91:\n      dup3\n      dup1\n      add\n      0x01\n      add\n      dup6\n      sstore\n      dup3\n      iszero\n      tag_90\n      jumpi\n      swap2\n      dup3\n      add\n    tag_92:\n      dup3\n      dup2\n      gt\n      iszero\n      tag_93\n      jumpi\n      dup3\n      mload\n      dup3\n      sstore\n      swap2\n      0x20\n      add\n      swap2\n      swap1\n      0x01\n      add\n      swap1\n      jump(tag_92)\n    tag_93:\n    tag_90:\n      pop\n      swap1\n      pop\n      tag_94\n      swap2\n      swap1\n      tag_95\n      jump\t// in\n    tag_94:\n      pop\n      swap1\n      jump\t// out\n    tag_95:\n      tag_96\n      swap2\n      swap1\n    tag_97:\n      dup1\n      dup3\n      gt\n      iszero\n      tag_98\n      jumpi\n      0x00\n      dup2\n      0x00\n      swap1\n      sstore\n      pop\n      0x01\n      add\n      jump(tag_97)\n    tag_98:\n      pop\n      swap1\n      jump\n    tag_96:\n      swap1\n      jump\t// out\n\n    auxdata: 0xa265627a7a72315820361b2a5b03ece3bba9bf3a5d42123d8275a85cba384b7bcd2c4331edcbb458f464736f6c63430005110032\n}\n",
				"bytecode": {
					"linkReferences": {},
					"object": "60806040526000805534801561001457600080fd5b504260048190555033600360006101000a81548173ffffffffffffffffffffffffffffffffffffffff021916908373ffffffffffffffffffffffffffffffffffffffff1602179055506113558061006c6000396000f3fe608060405234801561001057600080fd5b50600436106100625760003560e01c80631b1e2b3d146100675780632101c689146100ad5780633557ca3f146100db57806357a6c2791461017b578063abf579081461036e578063df43239314610509575b600080fd5b6100936004803603602081101561007d57600080fd5b8101908080359060200190929190505050610537565b604051808215151515815260200191505060405180910390f35b6100d9600480360360208110156100c357600080fd5b8101908080359060200190929190505050610569565b005b610107600480360360208110156100f157600080fd5b810190808035906020019092919050505061068b565b604051808c81526020018b1515151581526020018a151515158152602001891515151581526020018815151515815260200187151515158152602001861515151581526020018581526020018481526020018381526020018281526020019b50505050505050505050505060405180910390f35b61036c6004803603608081101561019157600080fd5b81019080803590602001906401000000008111156101ae57600080fd5b8201836020820111156101c057600080fd5b803590602001918460018302840111640100000000831117156101e257600080fd5b91908080601f016020809104026020016040519081016040528093929190818152602001838380828437600081840152601f19601f8201169050808301925050505050505091929192908035906020019064010000000081111561024557600080fd5b82018360208201111561025757600080fd5b8035906020019184600183028401116401000000008311171561027957600080fd5b91908080601f016020809104026020016040519081016040528093929190818152602001838380828437600081840152601f19601f820116905080830192505050505050509192919290803590602001906401000000008111156102dc57600080fd5b8201836020820111156102ee57600080fd5b8035906020019184600183028401116401000000008311171561031057600080fd5b91908080601f016020809104026020016040519081016040528093929190818152602001838380828437600081840152601f19601f82011690508083019250505050505050919291929080359060200190929190505050610733565b005b61039a6004803603602081101561038457600080fd5b81019080803590602001909291905050506109fd565b60405180888152602001878152602001806020018060200180602001868152602001858152602001848103845289818151815260200191508051906020019080838360005b838110156103fa5780820151818401526020810190506103df565b50505050905090810190601f1680156104275780820380516001836020036101000a031916815260200191505b50848103835288818151815260200191508051906020019080838360005b83811015610460578082015181840152602081019050610445565b50505050905090810190601f16801561048d5780820380516001836020036101000a031916815260200191505b50848103825287818151815260200191508051906020019080838360005b838110156104c65780820151818401526020810190506104ab565b50505050905090810190601f1680156104f35780820380516001836020036101000a031916815260200191505b509a505050505050505050505060405180910390f35b6105356004803603602081101561051f57600080fd5b8101908080359060200190929190505050610c07565b005b6000806002600084815260200190815260200160002090508060010160049054906101000a900460ff16915050919050565b600360009054906101000a900473ffffffffffffffffffffffffffffffffffffffff1673ffffffffffffffffffffffffffffffffffffffff163373ffffffffffffffffffffffffffffffffffffffff16146105c357600080fd5b600015156002600083815260200190815260200160002060010160049054906101000a900460ff16151514156106275760016002600083815260200190815260200160002060010160046101000a81548160ff021916908315150217905550610688565b600115156002600083815260200190815260200160002060010160049054906101000a900460ff16151514156106875760006002600083815260200190815260200160002060010160046101000a81548160ff0219169083151502179055505b5b50565b60026020528060005260406000206000915090508060000154908060010160009054906101000a900460ff16908060010160019054906101000a900460ff16908060010160029054906101000a900460ff16908060010160039054906101000a900460ff16908060010160049054906101000a900460ff16908060010160059054906101000a900460ff1690806002015490806003015490806004015490806005015490508b565b600360009054906101000a900473ffffffffffffffffffffffffffffffffffffffff1673ffffffffffffffffffffffffffffffffffffffff163373ffffffffffffffffffffffffffffffffffffffff161461078d57600080fd5b6000805414156107a85761079f610cb1565b6107a7611269565b5b6107b181610c07565b6107b9611269565b6040518060e0016040528060005481526020016004548152602001858152602001848152602001838152602001600081526020018281525060016000805481526020019081526020016000206000820151816000015560208201518160010155604082015181600201908051906020019061083592919061127b565b50606082015181600301908051906020019061085292919061127b565b50608082015181600401908051906020019061086f92919061127b565b5060a0820151816005015560c082015181600601559050506040518061016001604052806000548152602001600015158152602001600015158152602001600015158152602001600015158152602001600015158152602001600015158152602001600081526020016000815260200160008152602001600081525060026000805481526020019081526020016000206000820151816000015560208201518160010160006101000a81548160ff02191690831515021790555060408201518160010160016101000a81548160ff02191690831515021790555060608201518160010160026101000a81548160ff02191690831515021790555060808201518160010160036101000a81548160ff02191690831515021790555060a08201518160010160046101000a81548160ff02191690831515021790555060c08201518160010160056101000a81548160ff02191690831515021790555060e0820151816002015561010082015181600301556101208201518160040155610140820151816005015590505050505050565b6001602052806000526040600020600091509050806000015490806001015490806002018054600181600116156101000203166002900480601f016020809104026020016040519081016040528092919081815260200182805460018160011615610100020316600290048015610ab55780601f10610a8a57610100808354040283529160200191610ab5565b820191906000526020600020905b815481529060010190602001808311610a9857829003601f168201915b505050505090806003018054600181600116156101000203166002900480601f016020809104026020016040519081016040528092919081815260200182805460018160011615610100020316600290048015610b535780601f10610b2857610100808354040283529160200191610b53565b820191906000526020600020905b815481529060010190602001808311610b3657829003601f168201915b505050505090806004018054600181600116156101000203166002900480601f016020809104026020016040519081016040528092919081815260200182805460018160011615610100020316600290048015610bf15780601f10610bc657610100808354040283529160200191610bf1565b820191906000526020600020905b815481529060010190602001808311610bd457829003601f168201915b5050505050908060050154908060060154905087565b60006001600083815260200190815260200160002060000154905060008110158015610c3557506000548111155b15610c3f57610cad565b6040517f08c379a00000000000000000000000000000000000000000000000000000000081526004018080602001828103825260198152602001807f42656e65666163746f7220446f6573204e6f742045786973740000000000000081525060200191505060405180910390fd5b5050565b6040518060e001604052806000815260200160045481526020016040518060400160405280600581526020017f446172746800000000000000000000000000000000000000000000000000000081525081526020016040518060400160405280600b81526020017f44656174684465616c657200000000000000000000000000000000000000000081525081526020016040518060400160405280600e81526020017f64656174686465616c6572303037000000000000000000000000000000000000815250815260200160ef815260200160018152506001600080815260200190815260200160002060008201518160000155602082015181600101556040820151816002019080519060200190610dcb92919061127b565b506060820151816003019080519060200190610de892919061127b565b506080820151816004019080519060200190610e0592919061127b565b5060a0820151816005015560c082015181600601559050506040518060e001604052806001815260200160045481526020016040518060400160405280600381526020017f5a756c000000000000000000000000000000000000000000000000000000000081525081526020016040518060400160405280600381526020017f5a6564000000000000000000000000000000000000000000000000000000000081525081526020016040518060400160405280600e81526020017f666972737477697a617264303037000000000000000000000000000000000000815250815260200160ef81526020016001815250600160006001815260200190815260200160002060008201518160000155602082015181600101556040820151816002019080519060200190610f3892919061127b565b506060820151816003019080519060200190610f5592919061127b565b506080820151816004019080519060200190610f7292919061127b565b5060a0820151816005015560c08201518160060155905050604051806101600160405280600081526020016001151581526020016001151581526020016001151581526020016001151581526020016001151581526020016001151581526020016000815260200160008152602001600081526020016000815250600260008081526020019081526020016000206000820151816000015560208201518160010160006101000a81548160ff02191690831515021790555060408201518160010160016101000a81548160ff02191690831515021790555060608201518160010160026101000a81548160ff02191690831515021790555060808201518160010160036101000a81548160ff02191690831515021790555060a08201518160010160046101000a81548160ff02191690831515021790555060c08201518160010160056101000a81548160ff02191690831515021790555060e0820151816002015561010082015181600301556101208201518160040155610140820151816005015590505060405180610160016040528060018152602001600115158152602001600115158152602001600115158152602001600115158152602001600115158152602001600115158152602001600081526020016000815260200160008152602001600081525060026000600181526020019081526020016000206000820151816000015560208201518160010160006101000a81548160ff02191690831515021790555060408201518160010160016101000a81548160ff02191690831515021790555060608201518160010160026101000a81548160ff02191690831515021790555060808201518160010160036101000a81548160ff02191690831515021790555060a08201518160010160046101000a81548160ff02191690831515021790555060c08201518160010160056101000a81548160ff02191690831515021790555060e08201518160020155610100820151816003015561012082015181600401556101408201518160050155905050565b60016000808282540192505081905550565b828054600181600116156101000203166002900490600052602060002090601f016020900481019282601f106112bc57805160ff19168380011785556112ea565b828001600101855582156112ea579182015b828111156112e95782518255916020019190600101906112ce565b5b5090506112f791906112fb565b5090565b61131d91905b80821115611319576000816000905550600101611301565b5090565b9056fea265627a7a72315820361b2a5b03ece3bba9bf3a5d42123d8275a85cba384b7bcd2c4331edcbb458f464736f6c63430005110032",
					"opcodes": "PUSH1 0x80 PUSH1 0x40 MSTORE PUSH1 0x0 DUP1 SSTORE CALLVALUE DUP1 ISZERO PUSH2 0x14 JUMPI PUSH1 0x0 DUP1 REVERT JUMPDEST POP TIMESTAMP PUSH1 0x4 DUP2 SWAP1 SSTORE POP CALLER PUSH1 0x3 PUSH1 0x0 PUSH2 0x100 EXP DUP2 SLOAD DUP2 PUSH20 0xFFFFFFFFFFFFFFFFFFFFFFFFFFFFFFFFFFFFFFFF MUL NOT AND SWAP1 DUP4 PUSH20 0xFFFFFFFFFFFFFFFFFFFFFFFFFFFFFFFFFFFFFFFF AND MUL OR SWAP1 SSTORE POP PUSH2 0x1355 DUP1 PUSH2 0x6C PUSH1 0x0 CODECOPY PUSH1 0x0 RETURN INVALID PUSH1 0x80 PUSH1 0x40 MSTORE CALLVALUE DUP1 ISZERO PUSH2 0x10 JUMPI PUSH1 0x0 DUP1 REVERT JUMPDEST POP PUSH1 0x4 CALLDATASIZE LT PUSH2 0x62 JUMPI PUSH1 0x0 CALLDATALOAD PUSH1 0xE0 SHR DUP1 PUSH4 0x1B1E2B3D EQ PUSH2 0x67 JUMPI DUP1 PUSH4 0x2101C689 EQ PUSH2 0xAD JUMPI DUP1 PUSH4 0x3557CA3F EQ PUSH2 0xDB JUMPI DUP1 PUSH4 0x57A6C279 EQ PUSH2 0x17B JUMPI DUP1 PUSH4 0xABF57908 EQ PUSH2 0x36E JUMPI DUP1 PUSH4 0xDF432393 EQ PUSH2 0x509 JUMPI JUMPDEST PUSH1 0x0 DUP1 REVERT JUMPDEST PUSH2 0x93 PUSH1 0x4 DUP1 CALLDATASIZE SUB PUSH1 0x20 DUP2 LT ISZERO PUSH2 0x7D JUMPI PUSH1 0x0 DUP1 REVERT JUMPDEST DUP2 ADD SWAP1 DUP1 DUP1 CALLDATALOAD SWAP1 PUSH1 0x20 ADD SWAP1 SWAP3 SWAP2 SWAP1 POP POP POP PUSH2 0x537 JUMP JUMPDEST PUSH1 0x40 MLOAD DUP1 DUP3 ISZERO ISZERO ISZERO ISZERO DUP2 MSTORE PUSH1 0x20 ADD SWAP2 POP POP PUSH1 0x40 MLOAD DUP1 SWAP2 SUB SWAP1 RETURN JUMPDEST PUSH2 0xD9 PUSH1 0x4 DUP1 CALLDATASIZE SUB PUSH1 0x20 DUP2 LT ISZERO PUSH2 0xC3 JUMPI PUSH1 0x0 DUP1 REVERT JUMPDEST DUP2 ADD SWAP1 DUP1 DUP1 CALLDATALOAD SWAP1 PUSH1 0x20 ADD SWAP1 SWAP3 SWAP2 SWAP1 POP POP POP PUSH2 0x569 JUMP JUMPDEST STOP JUMPDEST PUSH2 0x107 PUSH1 0x4 DUP1 CALLDATASIZE SUB PUSH1 0x20 DUP2 LT ISZERO PUSH2 0xF1 JUMPI PUSH1 0x0 DUP1 REVERT JUMPDEST DUP2 ADD SWAP1 DUP1 DUP1 CALLDATALOAD SWAP1 PUSH1 0x20 ADD SWAP1 SWAP3 SWAP2 SWAP1 POP POP POP PUSH2 0x68B JUMP JUMPDEST PUSH1 0x40 MLOAD DUP1 DUP13 DUP2 MSTORE PUSH1 0x20 ADD DUP12 ISZERO ISZERO ISZERO ISZERO DUP2 MSTORE PUSH1 0x20 ADD DUP11 ISZERO ISZERO ISZERO ISZERO DUP2 MSTORE PUSH1 0x20 ADD DUP10 ISZERO ISZERO ISZERO ISZERO DUP2 MSTORE PUSH1 0x20 ADD DUP9 ISZERO ISZERO ISZERO ISZERO DUP2 MSTORE PUSH1 0x20 ADD DUP8 ISZERO ISZERO ISZERO ISZERO DUP2 MSTORE PUSH1 0x20 ADD DUP7 ISZERO ISZERO ISZERO ISZERO DUP2 MSTORE PUSH1 0x20 ADD DUP6 DUP2 MSTORE PUSH1 0x20 ADD DUP5 DUP2 MSTORE PUSH1 0x20 ADD DUP4 DUP2 MSTORE PUSH1 0x20 ADD DUP3 DUP2 MSTORE PUSH1 0x20 ADD SWAP12 POP POP POP POP POP POP POP POP POP POP POP POP PUSH1 0x40 MLOAD DUP1 SWAP2 SUB SWAP1 RETURN JUMPDEST PUSH2 0x36C PUSH1 0x4 DUP1 CALLDATASIZE SUB PUSH1 0x80 DUP2 LT ISZERO PUSH2 0x191 JUMPI PUSH1 0x0 DUP1 REVERT JUMPDEST DUP2 ADD SWAP1 DUP1 DUP1 CALLDATALOAD SWAP1 PUSH1 0x20 ADD SWAP1 PUSH5 0x100000000 DUP2 GT ISZERO PUSH2 0x1AE JUMPI PUSH1 0x0 DUP1 REVERT JUMPDEST DUP3 ADD DUP4 PUSH1 0x20 DUP3 ADD GT ISZERO PUSH2 0x1C0 JUMPI PUSH1 0x0 DUP1 REVERT JUMPDEST DUP1 CALLDATALOAD SWAP1 PUSH1 0x20 ADD SWAP2 DUP5 PUSH1 0x1 DUP4 MUL DUP5 ADD GT PUSH5 0x100000000 DUP4 GT OR ISZERO PUSH2 0x1E2 JUMPI PUSH1 0x0 DUP1 REVERT JUMPDEST SWAP2 SWAP1 DUP1 DUP1 PUSH1 0x1F ADD PUSH1 0x20 DUP1 SWAP2 DIV MUL PUSH1 0x20 ADD PUSH1 0x40 MLOAD SWAP1 DUP2 ADD PUSH1 0x40 MSTORE DUP1 SWAP4 SWAP3 SWAP2 SWAP1 DUP2 DUP2 MSTORE PUSH1 0x20 ADD DUP4 DUP4 DUP1 DUP3 DUP5 CALLDATACOPY PUSH1 0x0 DUP2 DUP5 ADD MSTORE PUSH1 0x1F NOT PUSH1 0x1F DUP3 ADD AND SWAP1 POP DUP1 DUP4 ADD SWAP3 POP POP POP POP POP POP POP SWAP2 SWAP3 SWAP2 SWAP3 SWAP1 DUP1 CALLDATALOAD SWAP1 PUSH1 0x20 ADD SWAP1 PUSH5 0x100000000 DUP2 GT ISZERO PUSH2 0x245 JUMPI PUSH1 0x0 DUP1 REVERT JUMPDEST DUP3 ADD DUP4 PUSH1 0x20 DUP3 ADD GT ISZERO PUSH2 0x257 JUMPI PUSH1 0x0 DUP1 REVERT JUMPDEST DUP1 CALLDATALOAD SWAP1 PUSH1 0x20 ADD SWAP2 DUP5 PUSH1 0x1 DUP4 MUL DUP5 ADD GT PUSH5 0x100000000 DUP4 GT OR ISZERO PUSH2 0x279 JUMPI PUSH1 0x0 DUP1 REVERT JUMPDEST SWAP2 SWAP1 DUP1 DUP1 PUSH1 0x1F ADD PUSH1 0x20 DUP1 SWAP2 DIV MUL PUSH1 0x20 ADD PUSH1 0x40 MLOAD SWAP1 DUP2 ADD PUSH1 0x40 MSTORE DUP1 SWAP4 SWAP3 SWAP2 SWAP1 DUP2 DUP2 MSTORE PUSH1 0x20 ADD DUP4 DUP4 DUP1 DUP3 DUP5 CALLDATACOPY PUSH1 0x0 DUP2 DUP5 ADD MSTORE PUSH1 0x1F NOT PUSH1 0x1F DUP3 ADD AND SWAP1 POP DUP1 DUP4 ADD SWAP3 POP POP POP POP POP POP POP SWAP2 SWAP3 SWAP2 SWAP3 SWAP1 DUP1 CALLDATALOAD SWAP1 PUSH1 0x20 ADD SWAP1 PUSH5 0x100000000 DUP2 GT ISZERO PUSH2 0x2DC JUMPI PUSH1 0x0 DUP1 REVERT JUMPDEST DUP3 ADD DUP4 PUSH1 0x20 DUP3 ADD GT ISZERO PUSH2 0x2EE JUMPI PUSH1 0x0 DUP1 REVERT JUMPDEST DUP1 CALLDATALOAD SWAP1 PUSH1 0x20 ADD SWAP2 DUP5 PUSH1 0x1 DUP4 MUL DUP5 ADD GT PUSH5 0x100000000 DUP4 GT OR ISZERO PUSH2 0x310 JUMPI PUSH1 0x0 DUP1 REVERT JUMPDEST SWAP2 SWAP1 DUP1 DUP1 PUSH1 0x1F ADD PUSH1 0x20 DUP1 SWAP2 DIV MUL PUSH1 0x20 ADD PUSH1 0x40 MLOAD SWAP1 DUP2 ADD PUSH1 0x40 MSTORE DUP1 SWAP4 SWAP3 SWAP2 SWAP1 DUP2 DUP2 MSTORE PUSH1 0x20 ADD DUP4 DUP4 DUP1 DUP3 DUP5 CALLDATACOPY PUSH1 0x0 DUP2 DUP5 ADD MSTORE PUSH1 0x1F NOT PUSH1 0x1F DUP3 ADD AND SWAP1 POP DUP1 DUP4 ADD SWAP3 POP POP POP POP POP POP POP SWAP2 SWAP3 SWAP2 SWAP3 SWAP1 DUP1 CALLDATALOAD SWAP1 PUSH1 0x20 ADD SWAP1 SWAP3 SWAP2 SWAP1 POP POP POP PUSH2 0x733 JUMP JUMPDEST STOP JUMPDEST PUSH2 0x39A PUSH1 0x4 DUP1 CALLDATASIZE SUB PUSH1 0x20 DUP2 LT ISZERO PUSH2 0x384 JUMPI PUSH1 0x0 DUP1 REVERT JUMPDEST DUP2 ADD SWAP1 DUP1 DUP1 CALLDATALOAD SWAP1 PUSH1 0x20 ADD SWAP1 SWAP3 SWAP2 SWAP1 POP POP POP PUSH2 0x9FD JUMP JUMPDEST PUSH1 0x40 MLOAD DUP1 DUP9 DUP2 MSTORE PUSH1 0x20 ADD DUP8 DUP2 MSTORE PUSH1 0x20 ADD DUP1 PUSH1 0x20 ADD DUP1 PUSH1 0x20 ADD DUP1 PUSH1 0x20 ADD DUP7 DUP2 MSTORE PUSH1 0x20 ADD DUP6 DUP2 MSTORE PUSH1 0x20 ADD DUP5 DUP2 SUB DUP5 MSTORE DUP10 DUP2 DUP2 MLOAD DUP2 MSTORE PUSH1 0x20 ADD SWAP2 POP DUP1 MLOAD SWAP1 PUSH1 0x20 ADD SWAP1 DUP1 DUP4 DUP4 PUSH1 0x0 JUMPDEST DUP4 DUP2 LT ISZERO PUSH2 0x3FA JUMPI DUP1 DUP3 ADD MLOAD DUP2 DUP5 ADD MSTORE PUSH1 0x20 DUP2 ADD SWAP1 POP PUSH2 0x3DF JUMP JUMPDEST POP POP POP POP SWAP1 POP SWAP1 DUP2 ADD SWAP1 PUSH1 0x1F AND DUP1 ISZERO PUSH2 0x427 JUMPI DUP1 DUP3 SUB DUP1 MLOAD PUSH1 0x1 DUP4 PUSH1 0x20 SUB PUSH2 0x100 EXP SUB NOT AND DUP2 MSTORE PUSH1 0x20 ADD SWAP2 POP JUMPDEST POP DUP5 DUP2 SUB DUP4 MSTORE DUP9 DUP2 DUP2 MLOAD DUP2 MSTORE PUSH1 0x20 ADD SWAP2 POP DUP1 MLOAD SWAP1 PUSH1 0x20 ADD SWAP1 DUP1 DUP4 DUP4 PUSH1 0x0 JUMPDEST DUP4 DUP2 LT ISZERO PUSH2 0x460 JUMPI DUP1 DUP3 ADD MLOAD DUP2 DUP5 ADD MSTORE PUSH1 0x20 DUP2 ADD SWAP1 POP PUSH2 0x445 JUMP JUMPDEST POP POP POP POP SWAP1 POP SWAP1 DUP2 ADD SWAP1 PUSH1 0x1F AND DUP1 ISZERO PUSH2 0x48D JUMPI DUP1 DUP3 SUB DUP1 MLOAD PUSH1 0x1 DUP4 PUSH1 0x20 SUB PUSH2 0x100 EXP SUB NOT AND DUP2 MSTORE PUSH1 0x20 ADD SWAP2 POP JUMPDEST POP DUP5 DUP2 SUB DUP3 MSTORE DUP8 DUP2 DUP2 MLOAD DUP2 MSTORE PUSH1 0x20 ADD SWAP2 POP DUP1 MLOAD SWAP1 PUSH1 0x20 ADD SWAP1 DUP1 DUP4 DUP4 PUSH1 0x0 JUMPDEST DUP4 DUP2 LT ISZERO PUSH2 0x4C6 JUMPI DUP1 DUP3 ADD MLOAD DUP2 DUP5 ADD MSTORE PUSH1 0x20 DUP2 ADD SWAP1 POP PUSH2 0x4AB JUMP JUMPDEST POP POP POP POP SWAP1 POP SWAP1 DUP2 ADD SWAP1 PUSH1 0x1F AND DUP1 ISZERO PUSH2 0x4F3 JUMPI DUP1 DUP3 SUB DUP1 MLOAD PUSH1 0x1 DUP4 PUSH1 0x20 SUB PUSH2 0x100 EXP SUB NOT AND DUP2 MSTORE PUSH1 0x20 ADD SWAP2 POP JUMPDEST POP SWAP11 POP POP POP POP POP POP POP POP POP POP POP PUSH1 0x40 MLOAD DUP1 SWAP2 SUB SWAP1 RETURN JUMPDEST PUSH2 0x535 PUSH1 0x4 DUP1 CALLDATASIZE SUB PUSH1 0x20 DUP2 LT ISZERO PUSH2 0x51F JUMPI PUSH1 0x0 DUP1 REVERT JUMPDEST DUP2 ADD SWAP1 DUP1 DUP1 CALLDATALOAD SWAP1 PUSH1 0x20 ADD SWAP1 SWAP3 SWAP2 SWAP1 POP POP POP PUSH2 0xC07 JUMP JUMPDEST STOP JUMPDEST PUSH1 0x0 DUP1 PUSH1 0x2 PUSH1 0x0 DUP5 DUP2 MSTORE PUSH1 0x20 ADD SWAP1 DUP2 MSTORE PUSH1 0x20 ADD PUSH1 0x0 KECCAK256 SWAP1 POP DUP1 PUSH1 0x1 ADD PUSH1 0x4 SWAP1 SLOAD SWAP1 PUSH2 0x100 EXP SWAP1 DIV PUSH1 0xFF AND SWAP2 POP POP SWAP2 SWAP1 POP JUMP JUMPDEST PUSH1 0x3 PUSH1 0x0 SWAP1 SLOAD SWAP1 PUSH2 0x100 EXP SWAP1 DIV PUSH20 0xFFFFFFFFFFFFFFFFFFFFFFFFFFFFFFFFFFFFFFFF AND PUSH20 0xFFFFFFFFFFFFFFFFFFFFFFFFFFFFFFFFFFFFFFFF AND CALLER PUSH20 0xFFFFFFFFFFFFFFFFFFFFFFFFFFFFFFFFFFFFFFFF AND EQ PUSH2 0x5C3 JUMPI PUSH1 0x0 DUP1 REVERT JUMPDEST PUSH1 0x0 ISZERO ISZERO PUSH1 0x2 PUSH1 0x0 DUP4 DUP2 MSTORE PUSH1 0x20 ADD SWAP1 DUP2 MSTORE PUSH1 0x20 ADD PUSH1 0x0 KECCAK256 PUSH1 0x1 ADD PUSH1 0x4 SWAP1 SLOAD SWAP1 PUSH2 0x100 EXP SWAP1 DIV PUSH1 0xFF AND ISZERO ISZERO EQ ISZERO PUSH2 0x627 JUMPI PUSH1 0x1 PUSH1 0x2 PUSH1 0x0 DUP4 DUP2 MSTORE PUSH1 0x20 ADD SWAP1 DUP2 MSTORE PUSH1 0x20 ADD PUSH1 0x0 KECCAK256 PUSH1 0x1 ADD PUSH1 0x4 PUSH2 0x100 EXP DUP2 SLOAD DUP2 PUSH1 0xFF MUL NOT AND SWAP1 DUP4 ISZERO ISZERO MUL OR SWAP1 SSTORE POP PUSH2 0x688 JUMP JUMPDEST PUSH1 0x1 ISZERO ISZERO PUSH1 0x2 PUSH1 0x0 DUP4 DUP2 MSTORE PUSH1 0x20 ADD SWAP1 DUP2 MSTORE PUSH1 0x20 ADD PUSH1 0x0 KECCAK256 PUSH1 0x1 ADD PUSH1 0x4 SWAP1 SLOAD SWAP1 PUSH2 0x100 EXP SWAP1 DIV PUSH1 0xFF AND ISZERO ISZERO EQ ISZERO PUSH2 0x687 JUMPI PUSH1 0x0 PUSH1 0x2 PUSH1 0x0 DUP4 DUP2 MSTORE PUSH1 0x20 ADD SWAP1 DUP2 MSTORE PUSH1 0x20 ADD PUSH1 0x0 KECCAK256 PUSH1 0x1 ADD PUSH1 0x4 PUSH2 0x100 EXP DUP2 SLOAD DUP2 PUSH1 0xFF MUL NOT AND SWAP1 DUP4 ISZERO ISZERO MUL OR SWAP1 SSTORE POP JUMPDEST JUMPDEST POP JUMP JUMPDEST PUSH1 0x2 PUSH1 0x20 MSTORE DUP1 PUSH1 0x0 MSTORE PUSH1 0x40 PUSH1 0x0 KECCAK256 PUSH1 0x0 SWAP2 POP SWAP1 POP DUP1 PUSH1 0x0 ADD SLOAD SWAP1 DUP1 PUSH1 0x1 ADD PUSH1 0x0 SWAP1 SLOAD SWAP1 PUSH2 0x100 EXP SWAP1 DIV PUSH1 0xFF AND SWAP1 DUP1 PUSH1 0x1 ADD PUSH1 0x1 SWAP1 SLOAD SWAP1 PUSH2 0x100 EXP SWAP1 DIV PUSH1 0xFF AND SWAP1 DUP1 PUSH1 0x1 ADD PUSH1 0x2 SWAP1 SLOAD SWAP1 PUSH2 0x100 EXP SWAP1 DIV PUSH1 0xFF AND SWAP1 DUP1 PUSH1 0x1 ADD PUSH1 0x3 SWAP1 SLOAD SWAP1 PUSH2 0x100 EXP SWAP1 DIV PUSH1 0xFF AND SWAP1 DUP1 PUSH1 0x1 ADD PUSH1 0x4 SWAP1 SLOAD SWAP1 PUSH2 0x100 EXP SWAP1 DIV PUSH1 0xFF AND SWAP1 DUP1 PUSH1 0x1 ADD PUSH1 0x5 SWAP1 SLOAD SWAP1 PUSH2 0x100 EXP SWAP1 DIV PUSH1 0xFF AND SWAP1 DUP1 PUSH1 0x2 ADD SLOAD SWAP1 DUP1 PUSH1 0x3 ADD SLOAD SWAP1 DUP1 PUSH1 0x4 ADD SLOAD SWAP1 DUP1 PUSH1 0x5 ADD SLOAD SWAP1 POP DUP12 JUMP JUMPDEST PUSH1 0x3 PUSH1 0x0 SWAP1 SLOAD SWAP1 PUSH2 0x100 EXP SWAP1 DIV PUSH20 0xFFFFFFFFFFFFFFFFFFFFFFFFFFFFFFFFFFFFFFFF AND PUSH20 0xFFFFFFFFFFFFFFFFFFFFFFFFFFFFFFFFFFFFFFFF AND CALLER PUSH20 0xFFFFFFFFFFFFFFFFFFFFFFFFFFFFFFFFFFFFFFFF AND EQ PUSH2 0x78D JUMPI PUSH1 0x0 DUP1 REVERT JUMPDEST PUSH1 0x0 DUP1 SLOAD EQ ISZERO PUSH2 0x7A8 JUMPI PUSH2 0x79F PUSH2 0xCB1 JUMP JUMPDEST PUSH2 0x7A7 PUSH2 0x1269 JUMP JUMPDEST JUMPDEST PUSH2 0x7B1 DUP2 PUSH2 0xC07 JUMP JUMPDEST PUSH2 0x7B9 PUSH2 0x1269 JUMP JUMPDEST PUSH1 0x40 MLOAD DUP1 PUSH1 0xE0 ADD PUSH1 0x40 MSTORE DUP1 PUSH1 0x0 SLOAD DUP2 MSTORE PUSH1 0x20 ADD PUSH1 0x4 SLOAD DUP2 MSTORE PUSH1 0x20 ADD DUP6 DUP2 MSTORE PUSH1 0x20 ADD DUP5 DUP2 MSTORE PUSH1 0x20 ADD DUP4 DUP2 MSTORE PUSH1 0x20 ADD PUSH1 0x0 DUP2 MSTORE PUSH1 0x20 ADD DUP3 DUP2 MSTORE POP PUSH1 0x1 PUSH1 0x0 DUP1 SLOAD DUP2 MSTORE PUSH1 0x20 ADD SWAP1 DUP2 MSTORE PUSH1 0x20 ADD PUSH1 0x0 KECCAK256 PUSH1 0x0 DUP3 ADD MLOAD DUP2 PUSH1 0x0 ADD SSTORE PUSH1 0x20 DUP3 ADD MLOAD DUP2 PUSH1 0x1 ADD SSTORE PUSH1 0x40 DUP3 ADD MLOAD DUP2 PUSH1 0x2 ADD SWAP1 DUP1 MLOAD SWAP1 PUSH1 0x20 ADD SWAP1 PUSH2 0x835 SWAP3 SWAP2 SWAP1 PUSH2 0x127B JUMP JUMPDEST POP PUSH1 0x60 DUP3 ADD MLOAD DUP2 PUSH1 0x3 ADD SWAP1 DUP1 MLOAD SWAP1 PUSH1 0x20 ADD SWAP1 PUSH2 0x852 SWAP3 SWAP2 SWAP1 PUSH2 0x127B JUMP JUMPDEST POP PUSH1 0x80 DUP3 ADD MLOAD DUP2 PUSH1 0x4 ADD SWAP1 DUP1 MLOAD SWAP1 PUSH1 0x20 ADD SWAP1 PUSH2 0x86F SWAP3 SWAP2 SWAP1 PUSH2 0x127B JUMP JUMPDEST POP PUSH1 0xA0 DUP3 ADD MLOAD DUP2 PUSH1 0x5 ADD SSTORE PUSH1 0xC0 DUP3 ADD MLOAD DUP2 PUSH1 0x6 ADD SSTORE SWAP1 POP POP PUSH1 0x40 MLOAD DUP1 PUSH2 0x160 ADD PUSH1 0x40 MSTORE DUP1 PUSH1 0x0 SLOAD DUP2 MSTORE PUSH1 0x20 ADD PUSH1 0x0 ISZERO ISZERO DUP2 MSTORE PUSH1 0x20 ADD PUSH1 0x0 ISZERO ISZERO DUP2 MSTORE PUSH1 0x20 ADD PUSH1 0x0 ISZERO ISZERO DUP2 MSTORE PUSH1 0x20 ADD PUSH1 0x0 ISZERO ISZERO DUP2 MSTORE PUSH1 0x20 ADD PUSH1 0x0 ISZERO ISZERO DUP2 MSTORE PUSH1 0x20 ADD PUSH1 0x0 ISZERO ISZERO DUP2 MSTORE PUSH1 0x20 ADD PUSH1 0x0 DUP2 MSTORE PUSH1 0x20 ADD PUSH1 0x0 DUP2 MSTORE PUSH1 0x20 ADD PUSH1 0x0 DUP2 MSTORE PUSH1 0x20 ADD PUSH1 0x0 DUP2 MSTORE POP PUSH1 0x2 PUSH1 0x0 DUP1 SLOAD DUP2 MSTORE PUSH1 0x20 ADD SWAP1 DUP2 MSTORE PUSH1 0x20 ADD PUSH1 0x0 KECCAK256 PUSH1 0x0 DUP3 ADD MLOAD DUP2 PUSH1 0x0 ADD SSTORE PUSH1 0x20 DUP3 ADD MLOAD DUP2 PUSH1 0x1 ADD PUSH1 0x0 PUSH2 0x100 EXP DUP2 SLOAD DUP2 PUSH1 0xFF MUL NOT AND SWAP1 DUP4 ISZERO ISZERO MUL OR SWAP1 SSTORE POP PUSH1 0x40 DUP3 ADD MLOAD DUP2 PUSH1 0x1 ADD PUSH1 0x1 PUSH2 0x100 EXP DUP2 SLOAD DUP2 PUSH1 0xFF MUL NOT AND SWAP1 DUP4 ISZERO ISZERO MUL OR SWAP1 SSTORE POP PUSH1 0x60 DUP3 ADD MLOAD DUP2 PUSH1 0x1 ADD PUSH1 0x2 PUSH2 0x100 EXP DUP2 SLOAD DUP2 PUSH1 0xFF MUL NOT AND SWAP1 DUP4 ISZERO ISZERO MUL OR SWAP1 SSTORE POP PUSH1 0x80 DUP3 ADD MLOAD DUP2 PUSH1 0x1 ADD PUSH1 0x3 PUSH2 0x100 EXP DUP2 SLOAD DUP2 PUSH1 0xFF MUL NOT AND SWAP1 DUP4 ISZERO ISZERO MUL OR SWAP1 SSTORE POP PUSH1 0xA0 DUP3 ADD MLOAD DUP2 PUSH1 0x1 ADD PUSH1 0x4 PUSH2 0x100 EXP DUP2 SLOAD DUP2 PUSH1 0xFF MUL NOT AND SWAP1 DUP4 ISZERO ISZERO MUL OR SWAP1 SSTORE POP PUSH1 0xC0 DUP3 ADD MLOAD DUP2 PUSH1 0x1 ADD PUSH1 0x5 PUSH2 0x100 EXP DUP2 SLOAD DUP2 PUSH1 0xFF MUL NOT AND SWAP1 DUP4 ISZERO ISZERO MUL OR SWAP1 SSTORE POP PUSH1 0xE0 DUP3 ADD MLOAD DUP2 PUSH1 0x2 ADD SSTORE PUSH2 0x100 DUP3 ADD MLOAD DUP2 PUSH1 0x3 ADD SSTORE PUSH2 0x120 DUP3 ADD MLOAD DUP2 PUSH1 0x4 ADD SSTORE PUSH2 0x140 DUP3 ADD MLOAD DUP2 PUSH1 0x5 ADD SSTORE SWAP1 POP POP POP POP POP POP JUMP JUMPDEST PUSH1 0x1 PUSH1 0x20 MSTORE DUP1 PUSH1 0x0 MSTORE PUSH1 0x40 PUSH1 0x0 KECCAK256 PUSH1 0x0 SWAP2 POP SWAP1 POP DUP1 PUSH1 0x0 ADD SLOAD SWAP1 DUP1 PUSH1 0x1 ADD SLOAD SWAP1 DUP1 PUSH1 0x2 ADD DUP1 SLOAD PUSH1 0x1 DUP2 PUSH1 0x1 AND ISZERO PUSH2 0x100 MUL SUB AND PUSH1 0x2 SWAP1 DIV DUP1 PUSH1 0x1F ADD PUSH1 0x20 DUP1 SWAP2 DIV MUL PUSH1 0x20 ADD PUSH1 0x40 MLOAD SWAP1 DUP2 ADD PUSH1 0x40 MSTORE DUP1 SWAP3 SWAP2 SWAP1 DUP2 DUP2 MSTORE PUSH1 0x20 ADD DUP3 DUP1 SLOAD PUSH1 0x1 DUP2 PUSH1 0x1 AND ISZERO PUSH2 0x100 MUL SUB AND PUSH1 0x2 SWAP1 DIV DUP1 ISZERO PUSH2 0xAB5 JUMPI DUP1 PUSH1 0x1F LT PUSH2 0xA8A JUMPI PUSH2 0x100 DUP1 DUP4 SLOAD DIV MUL DUP4 MSTORE SWAP2 PUSH1 0x20 ADD SWAP2 PUSH2 0xAB5 JUMP JUMPDEST DUP3 ADD SWAP2 SWAP1 PUSH1 0x0 MSTORE PUSH1 0x20 PUSH1 0x0 KECCAK256 SWAP1 JUMPDEST DUP2 SLOAD DUP2 MSTORE SWAP1 PUSH1 0x1 ADD SWAP1 PUSH1 0x20 ADD DUP1 DUP4 GT PUSH2 0xA98 JUMPI DUP3 SWAP1 SUB PUSH1 0x1F AND DUP3 ADD SWAP2 JUMPDEST POP POP POP POP POP SWAP1 DUP1 PUSH1 0x3 ADD DUP1 SLOAD PUSH1 0x1 DUP2 PUSH1 0x1 AND ISZERO PUSH2 0x100 MUL SUB AND PUSH1 0x2 SWAP1 DIV DUP1 PUSH1 0x1F ADD PUSH1 0x20 DUP1 SWAP2 DIV MUL PUSH1 0x20 ADD PUSH1 0x40 MLOAD SWAP1 DUP2 ADD PUSH1 0x40 MSTORE DUP1 SWAP3 SWAP2 SWAP1 DUP2 DUP2 MSTORE PUSH1 0x20 ADD DUP3 DUP1 SLOAD PUSH1 0x1 DUP2 PUSH1 0x1 AND ISZERO PUSH2 0x100 MUL SUB AND PUSH1 0x2 SWAP1 DIV DUP1 ISZERO PUSH2 0xB53 JUMPI DUP1 PUSH1 0x1F LT PUSH2 0xB28 JUMPI PUSH2 0x100 DUP1 DUP4 SLOAD DIV MUL DUP4 MSTORE SWAP2 PUSH1 0x20 ADD SWAP2 PUSH2 0xB53 JUMP JUMPDEST DUP3 ADD SWAP2 SWAP1 PUSH1 0x0 MSTORE PUSH1 0x20 PUSH1 0x0 KECCAK256 SWAP1 JUMPDEST DUP2 SLOAD DUP2 MSTORE SWAP1 PUSH1 0x1 ADD SWAP1 PUSH1 0x20 ADD DUP1 DUP4 GT PUSH2 0xB36 JUMPI DUP3 SWAP1 SUB PUSH1 0x1F AND DUP3 ADD SWAP2 JUMPDEST POP POP POP POP POP SWAP1 DUP1 PUSH1 0x4 ADD DUP1 SLOAD PUSH1 0x1 DUP2 PUSH1 0x1 AND ISZERO PUSH2 0x100 MUL SUB AND PUSH1 0x2 SWAP1 DIV DUP1 PUSH1 0x1F ADD PUSH1 0x20 DUP1 SWAP2 DIV MUL PUSH1 0x20 ADD PUSH1 0x40 MLOAD SWAP1 DUP2 ADD PUSH1 0x40 MSTORE DUP1 SWAP3 SWAP2 SWAP1 DUP2 DUP2 MSTORE PUSH1 0x20 ADD DUP3 DUP1 SLOAD PUSH1 0x1 DUP2 PUSH1 0x1 AND ISZERO PUSH2 0x100 MUL SUB AND PUSH1 0x2 SWAP1 DIV DUP1 ISZERO PUSH2 0xBF1 JUMPI DUP1 PUSH1 0x1F LT PUSH2 0xBC6 JUMPI PUSH2 0x100 DUP1 DUP4 SLOAD DIV MUL DUP4 MSTORE SWAP2 PUSH1 0x20 ADD SWAP2 PUSH2 0xBF1 JUMP JUMPDEST DUP3 ADD SWAP2 SWAP1 PUSH1 0x0 MSTORE PUSH1 0x20 PUSH1 0x0 KECCAK256 SWAP1 JUMPDEST DUP2 SLOAD DUP2 MSTORE SWAP1 PUSH1 0x1 ADD SWAP1 PUSH1 0x20 ADD DUP1 DUP4 GT PUSH2 0xBD4 JUMPI DUP3 SWAP1 SUB PUSH1 0x1F AND DUP3 ADD SWAP2 JUMPDEST POP POP POP POP POP SWAP1 DUP1 PUSH1 0x5 ADD SLOAD SWAP1 DUP1 PUSH1 0x6 ADD SLOAD SWAP1 POP DUP8 JUMP JUMPDEST PUSH1 0x0 PUSH1 0x1 PUSH1 0x0 DUP4 DUP2 MSTORE PUSH1 0x20 ADD SWAP1 DUP2 MSTORE PUSH1 0x20 ADD PUSH1 0x0 KECCAK256 PUSH1 0x0 ADD SLOAD SWAP1 POP PUSH1 0x0 DUP2 LT ISZERO DUP1 ISZERO PUSH2 0xC35 JUMPI POP PUSH1 0x0 SLOAD DUP2 GT ISZERO JUMPDEST ISZERO PUSH2 0xC3F JUMPI PUSH2 0xCAD JUMP JUMPDEST PUSH1 0x40 MLOAD PUSH32 0x8C379A000000000000000000000000000000000000000000000000000000000 DUP2 MSTORE PUSH1 0x4 ADD DUP1 DUP1 PUSH1 0x20 ADD DUP3 DUP2 SUB DUP3 MSTORE PUSH1 0x19 DUP2 MSTORE PUSH1 0x20 ADD DUP1 PUSH32 0x42656E65666163746F7220446F6573204E6F7420457869737400000000000000 DUP2 MSTORE POP PUSH1 0x20 ADD SWAP2 POP POP PUSH1 0x40 MLOAD DUP1 SWAP2 SUB SWAP1 REVERT JUMPDEST POP POP JUMP JUMPDEST PUSH1 0x40 MLOAD DUP1 PUSH1 0xE0 ADD PUSH1 0x40 MSTORE DUP1 PUSH1 0x0 DUP2 MSTORE PUSH1 0x20 ADD PUSH1 0x4 SLOAD DUP2 MSTORE PUSH1 0x20 ADD PUSH1 0x40 MLOAD DUP1 PUSH1 0x40 ADD PUSH1 0x40 MSTORE DUP1 PUSH1 0x5 DUP2 MSTORE PUSH1 0x20 ADD PUSH32 0x4461727468000000000000000000000000000000000000000000000000000000 DUP2 MSTORE POP DUP2 MSTORE PUSH1 0x20 ADD PUSH1 0x40 MLOAD DUP1 PUSH1 0x40 ADD PUSH1 0x40 MSTORE DUP1 PUSH1 0xB DUP2 MSTORE PUSH1 0x20 ADD PUSH32 0x44656174684465616C6572000000000000000000000000000000000000000000 DUP2 MSTORE POP DUP2 MSTORE PUSH1 0x20 ADD PUSH1 0x40 MLOAD DUP1 PUSH1 0x40 ADD PUSH1 0x40 MSTORE DUP1 PUSH1 0xE DUP2 MSTORE PUSH1 0x20 ADD PUSH32 0x64656174686465616C6572303037000000000000000000000000000000000000 DUP2 MSTORE POP DUP2 MSTORE PUSH1 0x20 ADD PUSH1 0xEF DUP2 MSTORE PUSH1 0x20 ADD PUSH1 0x1 DUP2 MSTORE POP PUSH1 0x1 PUSH1 0x0 DUP1 DUP2 MSTORE PUSH1 0x20 ADD SWAP1 DUP2 MSTORE PUSH1 0x20 ADD PUSH1 0x0 KECCAK256 PUSH1 0x0 DUP3 ADD MLOAD DUP2 PUSH1 0x0 ADD SSTORE PUSH1 0x20 DUP3 ADD MLOAD DUP2 PUSH1 0x1 ADD SSTORE PUSH1 0x40 DUP3 ADD MLOAD DUP2 PUSH1 0x2 ADD SWAP1 DUP1 MLOAD SWAP1 PUSH1 0x20 ADD SWAP1 PUSH2 0xDCB SWAP3 SWAP2 SWAP1 PUSH2 0x127B JUMP JUMPDEST POP PUSH1 0x60 DUP3 ADD MLOAD DUP2 PUSH1 0x3 ADD SWAP1 DUP1 MLOAD SWAP1 PUSH1 0x20 ADD SWAP1 PUSH2 0xDE8 SWAP3 SWAP2 SWAP1 PUSH2 0x127B JUMP JUMPDEST POP PUSH1 0x80 DUP3 ADD MLOAD DUP2 PUSH1 0x4 ADD SWAP1 DUP1 MLOAD SWAP1 PUSH1 0x20 ADD SWAP1 PUSH2 0xE05 SWAP3 SWAP2 SWAP1 PUSH2 0x127B JUMP JUMPDEST POP PUSH1 0xA0 DUP3 ADD MLOAD DUP2 PUSH1 0x5 ADD SSTORE PUSH1 0xC0 DUP3 ADD MLOAD DUP2 PUSH1 0x6 ADD SSTORE SWAP1 POP POP PUSH1 0x40 MLOAD DUP1 PUSH1 0xE0 ADD PUSH1 0x40 MSTORE DUP1 PUSH1 0x1 DUP2 MSTORE PUSH1 0x20 ADD PUSH1 0x4 SLOAD DUP2 MSTORE PUSH1 0x20 ADD PUSH1 0x40 MLOAD DUP1 PUSH1 0x40 ADD PUSH1 0x40 MSTORE DUP1 PUSH1 0x3 DUP2 MSTORE PUSH1 0x20 ADD PUSH32 0x5A756C0000000000000000000000000000000000000000000000000000000000 DUP2 MSTORE POP DUP2 MSTORE PUSH1 0x20 ADD PUSH1 0x40 MLOAD DUP1 PUSH1 0x40 ADD PUSH1 0x40 MSTORE DUP1 PUSH1 0x3 DUP2 MSTORE PUSH1 0x20 ADD PUSH32 0x5A65640000000000000000000000000000000000000000000000000000000000 DUP2 MSTORE POP DUP2 MSTORE PUSH1 0x20 ADD PUSH1 0x40 MLOAD DUP1 PUSH1 0x40 ADD PUSH1 0x40 MSTORE DUP1 PUSH1 0xE DUP2 MSTORE PUSH1 0x20 ADD PUSH32 0x666972737477697A617264303037000000000000000000000000000000000000 DUP2 MSTORE POP DUP2 MSTORE PUSH1 0x20 ADD PUSH1 0xEF DUP2 MSTORE PUSH1 0x20 ADD PUSH1 0x1 DUP2 MSTORE POP PUSH1 0x1 PUSH1 0x0 PUSH1 0x1 DUP2 MSTORE PUSH1 0x20 ADD SWAP1 DUP2 MSTORE PUSH1 0x20 ADD PUSH1 0x0 KECCAK256 PUSH1 0x0 DUP3 ADD MLOAD DUP2 PUSH1 0x0 ADD SSTORE PUSH1 0x20 DUP3 ADD MLOAD DUP2 PUSH1 0x1 ADD SSTORE PUSH1 0x40 DUP3 ADD MLOAD DUP2 PUSH1 0x2 ADD SWAP1 DUP1 MLOAD SWAP1 PUSH1 0x20 ADD SWAP1 PUSH2 0xF38 SWAP3 SWAP2 SWAP1 PUSH2 0x127B JUMP JUMPDEST POP PUSH1 0x60 DUP3 ADD MLOAD DUP2 PUSH1 0x3 ADD SWAP1 DUP1 MLOAD SWAP1 PUSH1 0x20 ADD SWAP1 PUSH2 0xF55 SWAP3 SWAP2 SWAP1 PUSH2 0x127B JUMP JUMPDEST POP PUSH1 0x80 DUP3 ADD MLOAD DUP2 PUSH1 0x4 ADD SWAP1 DUP1 MLOAD SWAP1 PUSH1 0x20 ADD SWAP1 PUSH2 0xF72 SWAP3 SWAP2 SWAP1 PUSH2 0x127B JUMP JUMPDEST POP PUSH1 0xA0 DUP3 ADD MLOAD DUP2 PUSH1 0x5 ADD SSTORE PUSH1 0xC0 DUP3 ADD MLOAD DUP2 PUSH1 0x6 ADD SSTORE SWAP1 POP POP PUSH1 0x40 MLOAD DUP1 PUSH2 0x160 ADD PUSH1 0x40 MSTORE DUP1 PUSH1 0x0 DUP2 MSTORE PUSH1 0x20 ADD PUSH1 0x1 ISZERO ISZERO DUP2 MSTORE PUSH1 0x20 ADD PUSH1 0x1 ISZERO ISZERO DUP2 MSTORE PUSH1 0x20 ADD PUSH1 0x1 ISZERO ISZERO DUP2 MSTORE PUSH1 0x20 ADD PUSH1 0x1 ISZERO ISZERO DUP2 MSTORE PUSH1 0x20 ADD PUSH1 0x1 ISZERO ISZERO DUP2 MSTORE PUSH1 0x20 ADD PUSH1 0x1 ISZERO ISZERO DUP2 MSTORE PUSH1 0x20 ADD PUSH1 0x0 DUP2 MSTORE PUSH1 0x20 ADD PUSH1 0x0 DUP2 MSTORE PUSH1 0x20 ADD PUSH1 0x0 DUP2 MSTORE PUSH1 0x20 ADD PUSH1 0x0 DUP2 MSTORE POP PUSH1 0x2 PUSH1 0x0 DUP1 DUP2 MSTORE PUSH1 0x20 ADD SWAP1 DUP2 MSTORE PUSH1 0x20 ADD PUSH1 0x0 KECCAK256 PUSH1 0x0 DUP3 ADD MLOAD DUP2 PUSH1 0x0 ADD SSTORE PUSH1 0x20 DUP3 ADD MLOAD DUP2 PUSH1 0x1 ADD PUSH1 0x0 PUSH2 0x100 EXP DUP2 SLOAD DUP2 PUSH1 0xFF MUL NOT AND SWAP1 DUP4 ISZERO ISZERO MUL OR SWAP1 SSTORE POP PUSH1 0x40 DUP3 ADD MLOAD DUP2 PUSH1 0x1 ADD PUSH1 0x1 PUSH2 0x100 EXP DUP2 SLOAD DUP2 PUSH1 0xFF MUL NOT AND SWAP1 DUP4 ISZERO ISZERO MUL OR SWAP1 SSTORE POP PUSH1 0x60 DUP3 ADD MLOAD DUP2 PUSH1 0x1 ADD PUSH1 0x2 PUSH2 0x100 EXP DUP2 SLOAD DUP2 PUSH1 0xFF MUL NOT AND SWAP1 DUP4 ISZERO ISZERO MUL OR SWAP1 SSTORE POP PUSH1 0x80 DUP3 ADD MLOAD DUP2 PUSH1 0x1 ADD PUSH1 0x3 PUSH2 0x100 EXP DUP2 SLOAD DUP2 PUSH1 0xFF MUL NOT AND SWAP1 DUP4 ISZERO ISZERO MUL OR SWAP1 SSTORE POP PUSH1 0xA0 DUP3 ADD MLOAD DUP2 PUSH1 0x1 ADD PUSH1 0x4 PUSH2 0x100 EXP DUP2 SLOAD DUP2 PUSH1 0xFF MUL NOT AND SWAP1 DUP4 ISZERO ISZERO MUL OR SWAP1 SSTORE POP PUSH1 0xC0 DUP3 ADD MLOAD DUP2 PUSH1 0x1 ADD PUSH1 0x5 PUSH2 0x100 EXP DUP2 SLOAD DUP2 PUSH1 0xFF MUL NOT AND SWAP1 DUP4 ISZERO ISZERO MUL OR SWAP1 SSTORE POP PUSH1 0xE0 DUP3 ADD MLOAD DUP2 PUSH1 0x2 ADD SSTORE PUSH2 0x100 DUP3 ADD MLOAD DUP2 PUSH1 0x3 ADD SSTORE PUSH2 0x120 DUP3 ADD MLOAD DUP2 PUSH1 0x4 ADD SSTORE PUSH2 0x140 DUP3 ADD MLOAD DUP2 PUSH1 0x5 ADD SSTORE SWAP1 POP POP PUSH1 0x40 MLOAD DUP1 PUSH2 0x160 ADD PUSH1 0x40 MSTORE DUP1 PUSH1 0x1 DUP2 MSTORE PUSH1 0x20 ADD PUSH1 0x1 ISZERO ISZERO DUP2 MSTORE PUSH1 0x20 ADD PUSH1 0x1 ISZERO ISZERO DUP2 MSTORE PUSH1 0x20 ADD PUSH1 0x1 ISZERO ISZERO DUP2 MSTORE PUSH1 0x20 ADD PUSH1 0x1 ISZERO ISZERO DUP2 MSTORE PUSH1 0x20 ADD PUSH1 0x1 ISZERO ISZERO DUP2 MSTORE PUSH1 0x20 ADD PUSH1 0x1 ISZERO ISZERO DUP2 MSTORE PUSH1 0x20 ADD PUSH1 0x0 DUP2 MSTORE PUSH1 0x20 ADD PUSH1 0x0 DUP2 MSTORE PUSH1 0x20 ADD PUSH1 0x0 DUP2 MSTORE PUSH1 0x20 ADD PUSH1 0x0 DUP2 MSTORE POP PUSH1 0x2 PUSH1 0x0 PUSH1 0x1 DUP2 MSTORE PUSH1 0x20 ADD SWAP1 DUP2 MSTORE PUSH1 0x20 ADD PUSH1 0x0 KECCAK256 PUSH1 0x0 DUP3 ADD MLOAD DUP2 PUSH1 0x0 ADD SSTORE PUSH1 0x20 DUP3 ADD MLOAD DUP2 PUSH1 0x1 ADD PUSH1 0x0 PUSH2 0x100 EXP DUP2 SLOAD DUP2 PUSH1 0xFF MUL NOT AND SWAP1 DUP4 ISZERO ISZERO MUL OR SWAP1 SSTORE POP PUSH1 0x40 DUP3 ADD MLOAD DUP2 PUSH1 0x1 ADD PUSH1 0x1 PUSH2 0x100 EXP DUP2 SLOAD DUP2 PUSH1 0xFF MUL NOT AND SWAP1 DUP4 ISZERO ISZERO MUL OR SWAP1 SSTORE POP PUSH1 0x60 DUP3 ADD MLOAD DUP2 PUSH1 0x1 ADD PUSH1 0x2 PUSH2 0x100 EXP DUP2 SLOAD DUP2 PUSH1 0xFF MUL NOT AND SWAP1 DUP4 ISZERO ISZERO MUL OR SWAP1 SSTORE POP PUSH1 0x80 DUP3 ADD MLOAD DUP2 PUSH1 0x1 ADD PUSH1 0x3 PUSH2 0x100 EXP DUP2 SLOAD DUP2 PUSH1 0xFF MUL NOT AND SWAP1 DUP4 ISZERO ISZERO MUL OR SWAP1 SSTORE POP PUSH1 0xA0 DUP3 ADD MLOAD DUP2 PUSH1 0x1 ADD PUSH1 0x4 PUSH2 0x100 EXP DUP2 SLOAD DUP2 PUSH1 0xFF MUL NOT AND SWAP1 DUP4 ISZERO ISZERO MUL OR SWAP1 SSTORE POP PUSH1 0xC0 DUP3 ADD MLOAD DUP2 PUSH1 0x1 ADD PUSH1 0x5 PUSH2 0x100 EXP DUP2 SLOAD DUP2 PUSH1 0xFF MUL NOT AND SWAP1 DUP4 ISZERO ISZERO MUL OR SWAP1 SSTORE POP PUSH1 0xE0 DUP3 ADD MLOAD DUP2 PUSH1 0x2 ADD SSTORE PUSH2 0x100 DUP3 ADD MLOAD DUP2 PUSH1 0x3 ADD SSTORE PUSH2 0x120 DUP3 ADD MLOAD DUP2 PUSH1 0x4 ADD SSTORE PUSH2 0x140 DUP3 ADD MLOAD DUP2 PUSH1 0x5 ADD SSTORE SWAP1 POP POP JUMP JUMPDEST PUSH1 0x1 PUSH1 0x0 DUP1 DUP3 DUP3 SLOAD ADD SWAP3 POP POP DUP2 SWAP1 SSTORE POP JUMP JUMPDEST DUP3 DUP1 SLOAD PUSH1 0x1 DUP2 PUSH1 0x1 AND ISZERO PUSH2 0x100 MUL SUB AND PUSH1 0x2 SWAP1 DIV SWAP1 PUSH1 0x0 MSTORE PUSH1 0x20 PUSH1 0x0 KECCAK256 SWAP1 PUSH1 0x1F ADD PUSH1 0x20 SWAP1 DIV DUP2 ADD SWAP3 DUP3 PUSH1 0x1F LT PUSH2 0x12BC JUMPI DUP1 MLOAD PUSH1 0xFF NOT AND DUP4 DUP1 ADD OR DUP6 SSTORE PUSH2 0x12EA JUMP JUMPDEST DUP3 DUP1 ADD PUSH1 0x1 ADD DUP6 SSTORE DUP3 ISZERO PUSH2 0x12EA JUMPI SWAP2 DUP3 ADD JUMPDEST DUP3 DUP2 GT ISZERO PUSH2 0x12E9 JUMPI DUP3 MLOAD DUP3 SSTORE SWAP2 PUSH1 0x20 ADD SWAP2 SWAP1 PUSH1 0x1 ADD SWAP1 PUSH2 0x12CE JUMP JUMPDEST JUMPDEST POP SWAP1 POP PUSH2 0x12F7 SWAP2 SWAP1 PUSH2 0x12FB JUMP JUMPDEST POP SWAP1 JUMP JUMPDEST PUSH2 0x131D SWAP2 SWAP1 JUMPDEST DUP1 DUP3 GT ISZERO PUSH2 0x1319 JUMPI PUSH1 0x0 DUP2 PUSH1 0x0 SWAP1 SSTORE POP PUSH1 0x1 ADD PUSH2 0x1301 JUMP JUMPDEST POP SWAP1 JUMP JUMPDEST SWAP1 JUMP INVALID LOG2 PUSH6 0x627A7A723158 KECCAK256 CALLDATASIZE SHL 0x2A JUMPDEST SUB 0xEC 0xE3 0xBB 0xA9 0xBF GASPRICE 0x5D TIMESTAMP SLT RETURNDATASIZE DUP3 PUSH22 0xA85CBA384B7BCD2C4331EDCBB458F464736F6C634300 SDIV GT STOP ORIGIN "
				},
				"gasEstimates": {
					"creation": {
						"codeDepositCost": "989800",
						"executionCost": "46912",
						"totalCost": "1036712"
					},
					"external": {
						"addGamer(string,string,string,uint256)": "infinite",
						"checkBenefactorExist(uint256)": "2186",
						"gamerFlags(uint256)": "10057",
						"gamers(uint256)": "infinite",
						"hardBanStatus(uint256)": "1273",
						"hardbanToggle(uint256)": "24116"
					},
					"internal": {
						"addFirstGamer()": "infinite",
						"incrementCount()": "20842"
					}
				},
				"methodIdentifiers": {
					"addGamer(string,string,string,uint256)": "57a6c279",
					"checkBenefactorExist(uint256)": "df432393",
					"gamerFlags(uint256)": "3557ca3f",
					"gamers(uint256)": "abf57908",
					"hardBanStatus(uint256)": "1b1e2b3d",
					"hardbanToggle(uint256)": "2101c689"
				}
			},
			"storageLayout": {
				"storage": [
					{
						"astId": 4,
						"contract": "ichoronium-galactic-contracts/users/ichorProfiles.sol:ichoroniumProfiles",
						"label": "gamerCount",
						"offset": 0,
						"slot": "0",
						"type": "t_uint256"
					},
					{
						"astId": 8,
						"contract": "ichoronium-galactic-contracts/users/ichorProfiles.sol:ichoroniumProfiles",
						"label": "gamers",
						"offset": 0,
						"slot": "1",
						"type": "t_mapping(t_uint256,t_struct(Gamer)33_storage)"
					},
					{
						"astId": 12,
						"contract": "ichoronium-galactic-contracts/users/ichorProfiles.sol:ichoroniumProfiles",
						"label": "gamerFlags",
						"offset": 0,
						"slot": "2",
						"type": "t_mapping(t_uint256,t_struct(gamerFlag)56_storage)"
					},
					{
						"astId": 14,
						"contract": "ichoronium-galactic-contracts/users/ichorProfiles.sol:ichoroniumProfiles",
						"label": "owner",
						"offset": 0,
						"slot": "3",
						"type": "t_address"
					},
					{
						"astId": 16,
						"contract": "ichoronium-galactic-contracts/users/ichorProfiles.sol:ichoroniumProfiles",
						"label": "todaysDate",
						"offset": 0,
						"slot": "4",
						"type": "t_uint256"
					},
					{
						"astId": 18,
						"contract": "ichoronium-galactic-contracts/users/ichorProfiles.sol:ichoroniumProfiles",
						"label": "_id",
						"offset": 0,
						"slot": "5",
						"type": "t_uint256"
					}
				],
				"types": {
					"t_address": {
						"encoding": "inplace",
						"label": "address",
						"numberOfBytes": "20"
					},
					"t_bool": {
						"encoding": "inplace",
						"label": "bool",
						"numberOfBytes": "1"
					},
					"t_mapping(t_uint256,t_struct(Gamer)33_storage)": {
						"encoding": "mapping",
						"key": "t_uint256",
						"label": "mapping(uint256 => struct ichoroniumProfiles.Gamer)",
						"numberOfBytes": "32",
						"value": "t_struct(Gamer)33_storage"
					},
					"t_mapping(t_uint256,t_struct(gamerFlag)56_storage)": {
						"encoding": "mapping",
						"key": "t_uint256",
						"label": "mapping(uint256 => struct ichoroniumProfiles.gamerFlag)",
						"numberOfBytes": "32",
						"value": "t_struct(gamerFlag)56_storage"
					},
					"t_string_storage": {
						"encoding": "bytes",
						"label": "string",
						"numberOfBytes": "32"
					},
					"t_struct(Gamer)33_storage": {
						"encoding": "inplace",
						"label": "struct ichoroniumProfiles.Gamer",
						"members": [
							{
								"astId": 20,
								"contract": "ichoronium-galactic-contracts/users/ichorProfiles.sol:ichoroniumProfiles",
								"label": "_id",
								"offset": 0,
								"slot": "0",
								"type": "t_uint256"
							},
							{
								"astId": 22,
								"contract": "ichoronium-galactic-contracts/users/ichorProfiles.sol:ichoroniumProfiles",
								"label": "_registrationDate",
								"offset": 0,
								"slot": "1",
								"type": "t_uint256"
							},
							{
								"astId": 24,
								"contract": "ichoronium-galactic-contracts/users/ichorProfiles.sol:ichoroniumProfiles",
								"label": "_realFirstName",
								"offset": 0,
								"slot": "2",
								"type": "t_string_storage"
							},
							{
								"astId": 26,
								"contract": "ichoronium-galactic-contracts/users/ichorProfiles.sol:ichoroniumProfiles",
								"label": "_realLastName",
								"offset": 0,
								"slot": "3",
								"type": "t_string_storage"
							},
							{
								"astId": 28,
								"contract": "ichoronium-galactic-contracts/users/ichorProfiles.sol:ichoroniumProfiles",
								"label": "_officialUsername",
								"offset": 0,
								"slot": "4",
								"type": "t_string_storage"
							},
							{
								"astId": 30,
								"contract": "ichoronium-galactic-contracts/users/ichorProfiles.sol:ichoroniumProfiles",
								"label": "_ichoroniumLevel",
								"offset": 0,
								"slot": "5",
								"type": "t_uint256"
							},
							{
								"astId": 32,
								"contract": "ichoronium-galactic-contracts/users/ichorProfiles.sol:ichoroniumProfiles",
								"label": "_benefactor",
								"offset": 0,
								"slot": "6",
								"type": "t_uint256"
							}
						],
						"numberOfBytes": "224"
					},
					"t_struct(gamerFlag)56_storage": {
						"encoding": "inplace",
						"label": "struct ichoroniumProfiles.gamerFlag",
						"members": [
							{
								"astId": 35,
								"contract": "ichoronium-galactic-contracts/users/ichorProfiles.sol:ichoroniumProfiles",
								"label": "_id",
								"offset": 0,
								"slot": "0",
								"type": "t_uint256"
							},
							{
								"astId": 37,
								"contract": "ichoronium-galactic-contracts/users/ichorProfiles.sol:ichoroniumProfiles",
								"label": "_smsVerified",
								"offset": 0,
								"slot": "1",
								"type": "t_bool"
							},
							{
								"astId": 39,
								"contract": "ichoronium-galactic-contracts/users/ichorProfiles.sol:ichoroniumProfiles",
								"label": "_socialverfied",
								"offset": 1,
								"slot": "1",
								"type": "t_bool"
							},
							{
								"astId": 41,
								"contract": "ichoronium-galactic-contracts/users/ichorProfiles.sol:ichoroniumProfiles",
								"label": "_kycVerified",
								"offset": 2,
								"slot": "1",
								"type": "t_bool"
							},
							{
								"astId": 43,
								"contract": "ichoronium-galactic-contracts/users/ichorProfiles.sol:ichoroniumProfiles",
								"label": "_softBan",
								"offset": 3,
								"slot": "1",
								"type": "t_bool"
							},
							{
								"astId": 45,
								"contract": "ichoronium-galactic-contracts/users/ichorProfiles.sol:ichoroniumProfiles",
								"label": "_hardBan",
								"offset": 4,
								"slot": "1",
								"type": "t_bool"
							},
							{
								"astId": 47,
								"contract": "ichoronium-galactic-contracts/users/ichorProfiles.sol:ichoroniumProfiles",
								"label": "_isJin",
								"offset": 5,
								"slot": "1",
								"type": "t_bool"
							},
							{
								"astId": 49,
								"contract": "ichoronium-galactic-contracts/users/ichorProfiles.sol:ichoroniumProfiles",
								"label": "_hardBanAddress",
								"offset": 0,
								"slot": "2",
								"type": "t_uint256"
							},
							{
								"astId": 51,
								"contract": "ichoronium-galactic-contracts/users/ichorProfiles.sol:ichoroniumProfiles",
								"label": "_socialverificationAddress",
								"offset": 0,
								"slot": "3",
								"type": "t_uint256"
							},
							{
								"astId": 53,
								"contract": "ichoronium-galactic-contracts/users/ichorProfiles.sol:ichoroniumProfiles",
								"label": "_kycVericationAddress",
								"offset": 0,
								"slot": "4",
								"type": "t_uint256"
							},
							{
								"astId": 55,
								"contract": "ichoronium-galactic-contracts/users/ichorProfiles.sol:ichoroniumProfiles",
								"label": "_softBanAddress",
								"offset": 0,
								"slot": "5",
								"type": "t_uint256"
							}
						],
						"numberOfBytes": "192"
					},
					"t_uint256": {
						"encoding": "inplace",
						"label": "uint256",
						"numberOfBytes": "32"
					}
				}
			},
			"userdoc": {
				"methods": {}
			}
		}
	}
}