{
	"ichoronium-galactic-contracts/users/ichorProfiles.sol": {
		"ichoroniumProfiles": {
			"abi": [
				{
					"inputs": [
						{
							"internalType": "string",
							"name": "_realFirstName",
							"type": "string"
						},
						{
							"internalType": "string",
							"name": "_realLastName",
							"type": "string"
						},
						{
							"internalType": "string",
							"name": "_officialUserName",
							"type": "string"
						},
						{
							"internalType": "uint256",
							"name": "_benefactor",
							"type": "uint256"
						}
					],
					"name": "addGamer",
					"outputs": [],
					"stateMutability": "nonpayable",
					"type": "function"
				},
				{
					"inputs": [
						{
							"internalType": "uint256",
							"name": "_benefactor",
							"type": "uint256"
						}
					],
					"name": "checkBenefactorExist",
					"outputs": [],
					"stateMutability": "view",
					"type": "function"
				},
				{
					"inputs": [
						{
							"internalType": "uint256",
							"name": "",
							"type": "uint256"
						}
					],
					"name": "gamerFlags",
					"outputs": [
						{
							"internalType": "uint256",
							"name": "_id",
							"type": "uint256"
						},
						{
							"internalType": "bool",
							"name": "_smsVerified",
							"type": "bool"
						},
						{
							"internalType": "bool",
							"name": "_socialverfied",
							"type": "bool"
						},
						{
							"internalType": "bool",
							"name": "_kycVerified",
							"type": "bool"
						},
						{
							"internalType": "bool",
							"name": "_softBan",
							"type": "bool"
						},
						{
							"internalType": "bool",
							"name": "_hardBan",
							"type": "bool"
						},
						{
							"internalType": "bool",
							"name": "_isJin",
							"type": "bool"
						},
						{
							"internalType": "uint256",
							"name": "_hardBanAddress",
							"type": "uint256"
						},
						{
							"internalType": "uint256",
							"name": "_socialverificationAddress",
							"type": "uint256"
						},
						{
							"internalType": "uint256",
							"name": "_kycVericationAddress",
							"type": "uint256"
						},
						{
							"internalType": "uint256",
							"name": "_softBanAddress",
							"type": "uint256"
						}
					],
					"stateMutability": "view",
					"type": "function"
				},
				{
					"inputs": [
						{
							"internalType": "uint256",
							"name": "",
							"type": "uint256"
						}
					],
					"name": "gamers",
					"outputs": [
						{
							"internalType": "uint256",
							"name": "_id",
							"type": "uint256"
						},
						{
							"internalType": "uint256",
							"name": "_registrationDate",
							"type": "uint256"
						},
						{
							"internalType": "string",
							"name": "_realFirstName",
							"type": "string"
						},
						{
							"internalType": "string",
							"name": "_realLastName",
							"type": "string"
						},
						{
							"internalType": "string",
							"name": "_officialUsername",
							"type": "string"
						},
						{
							"internalType": "uint256",
							"name": "_ichoroniumLevel",
							"type": "uint256"
						},
						{
							"internalType": "uint256",
							"name": "_benefactor",
							"type": "uint256"
						}
					],
					"stateMutability": "view",
					"type": "function"
				}
			],
			"devdoc": {
				"kind": "dev",
				"methods": {},
				"version": 1
			},
			"evm": {
				"assembly": "    /* \"ichoronium-galactic-contracts/users/ichorProfiles.sol\":76:2845  contract ichoroniumProfiles {\r... */\n  mstore(0x40, 0x80)\n    /* \"ichoronium-galactic-contracts/users/ichorProfiles.sol\":132:133  0 */\n  0x00\n    /* \"ichoronium-galactic-contracts/users/ichorProfiles.sol\":111:133  uint256 gamerCount = 0 */\n  dup1\n  sstore\n    /* \"ichoronium-galactic-contracts/users/ichorProfiles.sol\":76:2845  contract ichoroniumProfiles {\r... */\n  callvalue\n  dup1\n  iszero\n  tag_1\n  jumpi\n  0x00\n  dup1\n  revert\ntag_1:\n  pop\n  dataSize(sub_0)\n  dup1\n  dataOffset(sub_0)\n  0x00\n  codecopy\n  0x00\n  return\nstop\n\nsub_0: assembly {\n        /* \"ichoronium-galactic-contracts/users/ichorProfiles.sol\":76:2845  contract ichoroniumProfiles {\r... */\n      mstore(0x40, 0x80)\n      callvalue\n      dup1\n      iszero\n      tag_1\n      jumpi\n      0x00\n      dup1\n      revert\n    tag_1:\n      pop\n      jumpi(tag_2, lt(calldatasize, 0x04))\n      shr(0xe0, calldataload(0x00))\n      dup1\n      0x3557ca3f\n      eq\n      tag_3\n      jumpi\n      dup1\n      0x57a6c279\n      eq\n      tag_4\n      jumpi\n      dup1\n      0xabf57908\n      eq\n      tag_5\n      jumpi\n      dup1\n      0xdf432393\n      eq\n      tag_6\n      jumpi\n    tag_2:\n      0x00\n      dup1\n      revert\n        /* \"ichoronium-galactic-contracts/users/ichorProfiles.sol\":197:244  mapping(uint256 => gamerFlag) public gamerFlags */\n    tag_3:\n      tag_7\n      0x04\n      dup1\n      calldatasize\n      sub\n      dup2\n      add\n      swap1\n      tag_8\n      swap2\n      swap1\n      tag_9\n      jump\t// in\n    tag_8:\n      tag_10\n      jump\t// in\n    tag_7:\n      mload(0x40)\n      tag_11\n      swap12\n      swap11\n      swap10\n      swap9\n      swap8\n      swap7\n      swap6\n      swap5\n      swap4\n      swap3\n      swap2\n      swap1\n      tag_12\n      jump\t// in\n    tag_11:\n      mload(0x40)\n      dup1\n      swap2\n      sub\n      swap1\n      return\n        /* \"ichoronium-galactic-contracts/users/ichorProfiles.sol\":1127:1980  function addGamer(string memory _realFirstName, \r... */\n    tag_4:\n      tag_13\n      0x04\n      dup1\n      calldatasize\n      sub\n      dup2\n      add\n      swap1\n      tag_14\n      swap2\n      swap1\n      tag_15\n      jump\t// in\n    tag_14:\n      tag_16\n      jump\t// in\n    tag_13:\n      stop\n        /* \"ichoronium-galactic-contracts/users/ichorProfiles.sol\":151:190  mapping(uint256 => Gamer) public gamers */\n    tag_5:\n      tag_17\n      0x04\n      dup1\n      calldatasize\n      sub\n      dup2\n      add\n      swap1\n      tag_18\n      swap2\n      swap1\n      tag_9\n      jump\t// in\n    tag_18:\n      tag_19\n      jump\t// in\n    tag_17:\n      mload(0x40)\n      tag_20\n      swap8\n      swap7\n      swap6\n      swap5\n      swap4\n      swap3\n      swap2\n      swap1\n      tag_21\n      jump\t// in\n    tag_20:\n      mload(0x40)\n      dup1\n      swap2\n      sub\n      swap1\n      return\n        /* \"ichoronium-galactic-contracts/users/ichorProfiles.sol\":1986:2426  function checkBenefactorExist (uint256 _benefactor)\r... */\n    tag_6:\n      tag_22\n      0x04\n      dup1\n      calldatasize\n      sub\n      dup2\n      add\n      swap1\n      tag_23\n      swap2\n      swap1\n      tag_9\n      jump\t// in\n    tag_23:\n      tag_24\n      jump\t// in\n    tag_22:\n      stop\n        /* \"ichoronium-galactic-contracts/users/ichorProfiles.sol\":197:244  mapping(uint256 => gamerFlag) public gamerFlags */\n    tag_10:\n      mstore(0x20, 0x02)\n      dup1\n      0x00\n      mstore\n      keccak256(0x00, 0x40)\n      0x00\n      swap2\n      pop\n      swap1\n      pop\n      dup1\n      0x00\n      add\n      sload\n      swap1\n      dup1\n      0x01\n      add\n      0x00\n      swap1\n      sload\n      swap1\n      0x0100\n      exp\n      swap1\n      div\n      0xff\n      and\n      swap1\n      dup1\n      0x01\n      add\n      0x01\n      swap1\n      sload\n      swap1\n      0x0100\n      exp\n      swap1\n      div\n      0xff\n      and\n      swap1\n      dup1\n      0x01\n      add\n      0x02\n      swap1\n      sload\n      swap1\n      0x0100\n      exp\n      swap1\n      div\n      0xff\n      and\n      swap1\n      dup1\n      0x01\n      add\n      0x03\n      swap1\n      sload\n      swap1\n      0x0100\n      exp\n      swap1\n      div\n      0xff\n      and\n      swap1\n      dup1\n      0x01\n      add\n      0x04\n      swap1\n      sload\n      swap1\n      0x0100\n      exp\n      swap1\n      div\n      0xff\n      and\n      swap1\n      dup1\n      0x01\n      add\n      0x05\n      swap1\n      sload\n      swap1\n      0x0100\n      exp\n      swap1\n      div\n      0xff\n      and\n      swap1\n      dup1\n      0x02\n      add\n      sload\n      swap1\n      dup1\n      0x03\n      add\n      sload\n      swap1\n      dup1\n      0x04\n      add\n      sload\n      swap1\n      dup1\n      0x05\n      add\n      sload\n      swap1\n      pop\n      dup12\n      jump\t// out\n        /* \"ichoronium-galactic-contracts/users/ichorProfiles.sol\":1127:1980  function addGamer(string memory _realFirstName, \r... */\n    tag_16:\n        /* \"ichoronium-galactic-contracts/users/ichorProfiles.sol\":986:991  owner */\n      0x03\n      0x00\n      swap1\n      sload\n      swap1\n      0x0100\n      exp\n      swap1\n      div\n      0xffffffffffffffffffffffffffffffffffffffff\n      and\n        /* \"ichoronium-galactic-contracts/users/ichorProfiles.sol\":972:991  msg.sender == owner */\n      0xffffffffffffffffffffffffffffffffffffffff\n      and\n        /* \"ichoronium-galactic-contracts/users/ichorProfiles.sol\":972:982  msg.sender */\n      caller\n        /* \"ichoronium-galactic-contracts/users/ichorProfiles.sol\":972:991  msg.sender == owner */\n      0xffffffffffffffffffffffffffffffffffffffff\n      and\n      eq\n        /* \"ichoronium-galactic-contracts/users/ichorProfiles.sol\":963:992  require (msg.sender == owner) */\n      tag_26\n      jumpi\n      0x00\n      dup1\n      revert\n    tag_26:\n        /* \"ichoronium-galactic-contracts/users/ichorProfiles.sol\":1452:1453  0 */\n      0x00\n        /* \"ichoronium-galactic-contracts/users/ichorProfiles.sol\":1438:1448  gamerCount */\n      dup1\n      sload\n        /* \"ichoronium-galactic-contracts/users/ichorProfiles.sol\":1438:1453  gamerCount == 0 */\n      eq\n        /* \"ichoronium-galactic-contracts/users/ichorProfiles.sol\":1434:1604  if (gamerCount == 0){\r... */\n      iszero\n      tag_28\n      jumpi\n        /* \"ichoronium-galactic-contracts/users/ichorProfiles.sol\":1483:1498  addFirstGamer() */\n      tag_29\n        /* \"ichoronium-galactic-contracts/users/ichorProfiles.sol\":1483:1496  addFirstGamer */\n      tag_30\n        /* \"ichoronium-galactic-contracts/users/ichorProfiles.sol\":1483:1498  addFirstGamer() */\n      jump\t// in\n    tag_29:\n        /* \"ichoronium-galactic-contracts/users/ichorProfiles.sol\":1530:1546  incrementCount() */\n      tag_31\n        /* \"ichoronium-galactic-contracts/users/ichorProfiles.sol\":1530:1544  incrementCount */\n      tag_32\n        /* \"ichoronium-galactic-contracts/users/ichorProfiles.sol\":1530:1546  incrementCount() */\n      jump\t// in\n    tag_31:\n        /* \"ichoronium-galactic-contracts/users/ichorProfiles.sol\":1434:1604  if (gamerCount == 0){\r... */\n    tag_28:\n        /* \"ichoronium-galactic-contracts/users/ichorProfiles.sol\":1629:1662  checkBenefactorExist(_benefactor) */\n      tag_33\n        /* \"ichoronium-galactic-contracts/users/ichorProfiles.sol\":1650:1661  _benefactor */\n      dup2\n        /* \"ichoronium-galactic-contracts/users/ichorProfiles.sol\":1629:1649  checkBenefactorExist */\n      tag_24\n        /* \"ichoronium-galactic-contracts/users/ichorProfiles.sol\":1629:1662  checkBenefactorExist(_benefactor) */\n      jump\t// in\n    tag_33:\n        /* \"ichoronium-galactic-contracts/users/ichorProfiles.sol\":1688:1704  incrementCount() */\n      tag_34\n        /* \"ichoronium-galactic-contracts/users/ichorProfiles.sol\":1688:1702  incrementCount */\n      tag_32\n        /* \"ichoronium-galactic-contracts/users/ichorProfiles.sol\":1688:1704  incrementCount() */\n      jump\t// in\n    tag_34:\n        /* \"ichoronium-galactic-contracts/users/ichorProfiles.sol\":1751:1840  Gamer(gamerCount,todaysDate,_realFirstName,_realLastName,_officialUserName,0,_benefactor) */\n      mload(0x40)\n      dup1\n      0xe0\n      add\n      0x40\n      mstore\n      dup1\n        /* \"ichoronium-galactic-contracts/users/ichorProfiles.sol\":1757:1767  gamerCount */\n      sload(0x00)\n        /* \"ichoronium-galactic-contracts/users/ichorProfiles.sol\":1751:1840  Gamer(gamerCount,todaysDate,_realFirstName,_realLastName,_officialUserName,0,_benefactor) */\n      dup2\n      mstore\n      0x20\n      add\n        /* \"ichoronium-galactic-contracts/users/ichorProfiles.sol\":1768:1778  todaysDate */\n      sload(0x04)\n        /* \"ichoronium-galactic-contracts/users/ichorProfiles.sol\":1751:1840  Gamer(gamerCount,todaysDate,_realFirstName,_realLastName,_officialUserName,0,_benefactor) */\n      dup2\n      mstore\n      0x20\n      add\n        /* \"ichoronium-galactic-contracts/users/ichorProfiles.sol\":1779:1793  _realFirstName */\n      dup6\n        /* \"ichoronium-galactic-contracts/users/ichorProfiles.sol\":1751:1840  Gamer(gamerCount,todaysDate,_realFirstName,_realLastName,_officialUserName,0,_benefactor) */\n      dup2\n      mstore\n      0x20\n      add\n        /* \"ichoronium-galactic-contracts/users/ichorProfiles.sol\":1794:1807  _realLastName */\n      dup5\n        /* \"ichoronium-galactic-contracts/users/ichorProfiles.sol\":1751:1840  Gamer(gamerCount,todaysDate,_realFirstName,_realLastName,_officialUserName,0,_benefactor) */\n      dup2\n      mstore\n      0x20\n      add\n        /* \"ichoronium-galactic-contracts/users/ichorProfiles.sol\":1808:1825  _officialUserName */\n      dup4\n        /* \"ichoronium-galactic-contracts/users/ichorProfiles.sol\":1751:1840  Gamer(gamerCount,todaysDate,_realFirstName,_realLastName,_officialUserName,0,_benefactor) */\n      dup2\n      mstore\n      0x20\n      add\n        /* \"ichoronium-galactic-contracts/users/ichorProfiles.sol\":1826:1827  0 */\n      0x00\n        /* \"ichoronium-galactic-contracts/users/ichorProfiles.sol\":1751:1840  Gamer(gamerCount,todaysDate,_realFirstName,_realLastName,_officialUserName,0,_benefactor) */\n      dup2\n      mstore\n      0x20\n      add\n        /* \"ichoronium-galactic-contracts/users/ichorProfiles.sol\":1828:1839  _benefactor */\n      dup3\n        /* \"ichoronium-galactic-contracts/users/ichorProfiles.sol\":1751:1840  Gamer(gamerCount,todaysDate,_realFirstName,_realLastName,_officialUserName,0,_benefactor) */\n      dup2\n      mstore\n      pop\n        /* \"ichoronium-galactic-contracts/users/ichorProfiles.sol\":1730:1736  gamers */\n      0x01\n        /* \"ichoronium-galactic-contracts/users/ichorProfiles.sol\":1730:1748  gamers[gamerCount] */\n      0x00\n        /* \"ichoronium-galactic-contracts/users/ichorProfiles.sol\":1737:1747  gamerCount */\n      dup1\n      sload\n        /* \"ichoronium-galactic-contracts/users/ichorProfiles.sol\":1730:1748  gamers[gamerCount] */\n      dup2\n      mstore\n      0x20\n      add\n      swap1\n      dup2\n      mstore\n      0x20\n      add\n      0x00\n      keccak256\n        /* \"ichoronium-galactic-contracts/users/ichorProfiles.sol\":1730:1840  gamers[gamerCount] = Gamer(gamerCount,todaysDate,_realFirstName,_realLastName,_officialUserName,0,_benefactor) */\n      0x00\n      dup3\n      add\n      mload\n      dup2\n      0x00\n      add\n      sstore\n      0x20\n      dup3\n      add\n      mload\n      dup2\n      0x01\n      add\n      sstore\n      0x40\n      dup3\n      add\n      mload\n      dup2\n      0x02\n      add\n      swap1\n      dup1\n      mload\n      swap1\n      0x20\n      add\n      swap1\n      tag_35\n      swap3\n      swap2\n      swap1\n      tag_36\n      jump\t// in\n    tag_35:\n      pop\n      0x60\n      dup3\n      add\n      mload\n      dup2\n      0x03\n      add\n      swap1\n      dup1\n      mload\n      swap1\n      0x20\n      add\n      swap1\n      tag_37\n      swap3\n      swap2\n      swap1\n      tag_36\n      jump\t// in\n    tag_37:\n      pop\n      0x80\n      dup3\n      add\n      mload\n      dup2\n      0x04\n      add\n      swap1\n      dup1\n      mload\n      swap1\n      0x20\n      add\n      swap1\n      tag_38\n      swap3\n      swap2\n      swap1\n      tag_36\n      jump\t// in\n    tag_38:\n      pop\n      0xa0\n      dup3\n      add\n      mload\n      dup2\n      0x05\n      add\n      sstore\n      0xc0\n      dup3\n      add\n      mload\n      dup2\n      0x06\n      add\n      sstore\n      swap1\n      pop\n      pop\n        /* \"ichoronium-galactic-contracts/users/ichorProfiles.sol\":1891:1956  gamerFlag(gamerCount,false,false,false,false,false,false,0,0,0,0) */\n      mload(0x40)\n      dup1\n      0x0160\n      add\n      0x40\n      mstore\n      dup1\n        /* \"ichoronium-galactic-contracts/users/ichorProfiles.sol\":1901:1911  gamerCount */\n      sload(0x00)\n        /* \"ichoronium-galactic-contracts/users/ichorProfiles.sol\":1891:1956  gamerFlag(gamerCount,false,false,false,false,false,false,0,0,0,0) */\n      dup2\n      mstore\n      0x20\n      add\n        /* \"ichoronium-galactic-contracts/users/ichorProfiles.sol\":1912:1917  false */\n      0x00\n        /* \"ichoronium-galactic-contracts/users/ichorProfiles.sol\":1891:1956  gamerFlag(gamerCount,false,false,false,false,false,false,0,0,0,0) */\n      iszero\n      iszero\n      dup2\n      mstore\n      0x20\n      add\n        /* \"ichoronium-galactic-contracts/users/ichorProfiles.sol\":1918:1923  false */\n      0x00\n        /* \"ichoronium-galactic-contracts/users/ichorProfiles.sol\":1891:1956  gamerFlag(gamerCount,false,false,false,false,false,false,0,0,0,0) */\n      iszero\n      iszero\n      dup2\n      mstore\n      0x20\n      add\n        /* \"ichoronium-galactic-contracts/users/ichorProfiles.sol\":1924:1929  false */\n      0x00\n        /* \"ichoronium-galactic-contracts/users/ichorProfiles.sol\":1891:1956  gamerFlag(gamerCount,false,false,false,false,false,false,0,0,0,0) */\n      iszero\n      iszero\n      dup2\n      mstore\n      0x20\n      add\n        /* \"ichoronium-galactic-contracts/users/ichorProfiles.sol\":1930:1935  false */\n      0x00\n        /* \"ichoronium-galactic-contracts/users/ichorProfiles.sol\":1891:1956  gamerFlag(gamerCount,false,false,false,false,false,false,0,0,0,0) */\n      iszero\n      iszero\n      dup2\n      mstore\n      0x20\n      add\n        /* \"ichoronium-galactic-contracts/users/ichorProfiles.sol\":1936:1941  false */\n      0x00\n        /* \"ichoronium-galactic-contracts/users/ichorProfiles.sol\":1891:1956  gamerFlag(gamerCount,false,false,false,false,false,false,0,0,0,0) */\n      iszero\n      iszero\n      dup2\n      mstore\n      0x20\n      add\n        /* \"ichoronium-galactic-contracts/users/ichorProfiles.sol\":1942:1947  false */\n      0x00\n        /* \"ichoronium-galactic-contracts/users/ichorProfiles.sol\":1891:1956  gamerFlag(gamerCount,false,false,false,false,false,false,0,0,0,0) */\n      iszero\n      iszero\n      dup2\n      mstore\n      0x20\n      add\n        /* \"ichoronium-galactic-contracts/users/ichorProfiles.sol\":1948:1949  0 */\n      0x00\n        /* \"ichoronium-galactic-contracts/users/ichorProfiles.sol\":1891:1956  gamerFlag(gamerCount,false,false,false,false,false,false,0,0,0,0) */\n      dup2\n      mstore\n      0x20\n      add\n        /* \"ichoronium-galactic-contracts/users/ichorProfiles.sol\":1950:1951  0 */\n      0x00\n        /* \"ichoronium-galactic-contracts/users/ichorProfiles.sol\":1891:1956  gamerFlag(gamerCount,false,false,false,false,false,false,0,0,0,0) */\n      dup2\n      mstore\n      0x20\n      add\n        /* \"ichoronium-galactic-contracts/users/ichorProfiles.sol\":1952:1953  0 */\n      0x00\n        /* \"ichoronium-galactic-contracts/users/ichorProfiles.sol\":1891:1956  gamerFlag(gamerCount,false,false,false,false,false,false,0,0,0,0) */\n      dup2\n      mstore\n      0x20\n      add\n        /* \"ichoronium-galactic-contracts/users/ichorProfiles.sol\":1954:1955  0 */\n      0x00\n        /* \"ichoronium-galactic-contracts/users/ichorProfiles.sol\":1891:1956  gamerFlag(gamerCount,false,false,false,false,false,false,0,0,0,0) */\n      dup2\n      mstore\n      pop\n        /* \"ichoronium-galactic-contracts/users/ichorProfiles.sol\":1866:1876  gamerFlags */\n      0x02\n        /* \"ichoronium-galactic-contracts/users/ichorProfiles.sol\":1866:1888  gamerFlags[gamerCount] */\n      0x00\n        /* \"ichoronium-galactic-contracts/users/ichorProfiles.sol\":1877:1887  gamerCount */\n      dup1\n      sload\n        /* \"ichoronium-galactic-contracts/users/ichorProfiles.sol\":1866:1888  gamerFlags[gamerCount] */\n      dup2\n      mstore\n      0x20\n      add\n      swap1\n      dup2\n      mstore\n      0x20\n      add\n      0x00\n      keccak256\n        /* \"ichoronium-galactic-contracts/users/ichorProfiles.sol\":1866:1956  gamerFlags[gamerCount] = gamerFlag(gamerCount,false,false,false,false,false,false,0,0,0,0) */\n      0x00\n      dup3\n      add\n      mload\n      dup2\n      0x00\n      add\n      sstore\n      0x20\n      dup3\n      add\n      mload\n      dup2\n      0x01\n      add\n      exp(0x0100, 0x00)\n      dup2\n      sload\n      dup2\n      0xff\n      mul\n      not\n      and\n      swap1\n      dup4\n      iszero\n      iszero\n      mul\n      or\n      swap1\n      sstore\n      pop\n      0x40\n      dup3\n      add\n      mload\n      dup2\n      0x01\n      add\n      exp(0x0100, 0x01)\n      dup2\n      sload\n      dup2\n      0xff\n      mul\n      not\n      and\n      swap1\n      dup4\n      iszero\n      iszero\n      mul\n      or\n      swap1\n      sstore\n      pop\n      0x60\n      dup3\n      add\n      mload\n      dup2\n      0x01\n      add\n      exp(0x0100, 0x02)\n      dup2\n      sload\n      dup2\n      0xff\n      mul\n      not\n      and\n      swap1\n      dup4\n      iszero\n      iszero\n      mul\n      or\n      swap1\n      sstore\n      pop\n      0x80\n      dup3\n      add\n      mload\n      dup2\n      0x01\n      add\n      exp(0x0100, 0x03)\n      dup2\n      sload\n      dup2\n      0xff\n      mul\n      not\n      and\n      swap1\n      dup4\n      iszero\n      iszero\n      mul\n      or\n      swap1\n      sstore\n      pop\n      0xa0\n      dup3\n      add\n      mload\n      dup2\n      0x01\n      add\n      exp(0x0100, 0x04)\n      dup2\n      sload\n      dup2\n      0xff\n      mul\n      not\n      and\n      swap1\n      dup4\n      iszero\n      iszero\n      mul\n      or\n      swap1\n      sstore\n      pop\n      0xc0\n      dup3\n      add\n      mload\n      dup2\n      0x01\n      add\n      exp(0x0100, 0x05)\n      dup2\n      sload\n      dup2\n      0xff\n      mul\n      not\n      and\n      swap1\n      dup4\n      iszero\n      iszero\n      mul\n      or\n      swap1\n      sstore\n      pop\n      0xe0\n      dup3\n      add\n      mload\n      dup2\n      0x02\n      add\n      sstore\n      0x0100\n      dup3\n      add\n      mload\n      dup2\n      0x03\n      add\n      sstore\n      0x0120\n      dup3\n      add\n      mload\n      dup2\n      0x04\n      add\n      sstore\n      0x0140\n      dup3\n      add\n      mload\n      dup2\n      0x05\n      add\n      sstore\n      swap1\n      pop\n      pop\n        /* \"ichoronium-galactic-contracts/users/ichorProfiles.sol\":1127:1980  function addGamer(string memory _realFirstName, \r... */\n      pop\n      pop\n      pop\n      pop\n      jump\t// out\n        /* \"ichoronium-galactic-contracts/users/ichorProfiles.sol\":151:190  mapping(uint256 => Gamer) public gamers */\n    tag_19:\n      mstore(0x20, 0x01)\n      dup1\n      0x00\n      mstore\n      keccak256(0x00, 0x40)\n      0x00\n      swap2\n      pop\n      swap1\n      pop\n      dup1\n      0x00\n      add\n      sload\n      swap1\n      dup1\n      0x01\n      add\n      sload\n      swap1\n      dup1\n      0x02\n      add\n      dup1\n      sload\n      tag_39\n      swap1\n      tag_40\n      jump\t// in\n    tag_39:\n      dup1\n      0x1f\n      add\n      0x20\n      dup1\n      swap2\n      div\n      mul\n      0x20\n      add\n      mload(0x40)\n      swap1\n      dup2\n      add\n      0x40\n      mstore\n      dup1\n      swap3\n      swap2\n      swap1\n      dup2\n      dup2\n      mstore\n      0x20\n      add\n      dup3\n      dup1\n      sload\n      tag_41\n      swap1\n      tag_40\n      jump\t// in\n    tag_41:\n      dup1\n      iszero\n      tag_42\n      jumpi\n      dup1\n      0x1f\n      lt\n      tag_43\n      jumpi\n      0x0100\n      dup1\n      dup4\n      sload\n      div\n      mul\n      dup4\n      mstore\n      swap2\n      0x20\n      add\n      swap2\n      jump(tag_42)\n    tag_43:\n      dup3\n      add\n      swap2\n      swap1\n      0x00\n      mstore\n      keccak256(0x00, 0x20)\n      swap1\n    tag_44:\n      dup2\n      sload\n      dup2\n      mstore\n      swap1\n      0x01\n      add\n      swap1\n      0x20\n      add\n      dup1\n      dup4\n      gt\n      tag_44\n      jumpi\n      dup3\n      swap1\n      sub\n      0x1f\n      and\n      dup3\n      add\n      swap2\n    tag_42:\n      pop\n      pop\n      pop\n      pop\n      pop\n      swap1\n      dup1\n      0x03\n      add\n      dup1\n      sload\n      tag_45\n      swap1\n      tag_40\n      jump\t// in\n    tag_45:\n      dup1\n      0x1f\n      add\n      0x20\n      dup1\n      swap2\n      div\n      mul\n      0x20\n      add\n      mload(0x40)\n      swap1\n      dup2\n      add\n      0x40\n      mstore\n      dup1\n      swap3\n      swap2\n      swap1\n      dup2\n      dup2\n      mstore\n      0x20\n      add\n      dup3\n      dup1\n      sload\n      tag_46\n      swap1\n      tag_40\n      jump\t// in\n    tag_46:\n      dup1\n      iszero\n      tag_47\n      jumpi\n      dup1\n      0x1f\n      lt\n      tag_48\n      jumpi\n      0x0100\n      dup1\n      dup4\n      sload\n      div\n      mul\n      dup4\n      mstore\n      swap2\n      0x20\n      add\n      swap2\n      jump(tag_47)\n    tag_48:\n      dup3\n      add\n      swap2\n      swap1\n      0x00\n      mstore\n      keccak256(0x00, 0x20)\n      swap1\n    tag_49:\n      dup2\n      sload\n      dup2\n      mstore\n      swap1\n      0x01\n      add\n      swap1\n      0x20\n      add\n      dup1\n      dup4\n      gt\n      tag_49\n      jumpi\n      dup3\n      swap1\n      sub\n      0x1f\n      and\n      dup3\n      add\n      swap2\n    tag_47:\n      pop\n      pop\n      pop\n      pop\n      pop\n      swap1\n      dup1\n      0x04\n      add\n      dup1\n      sload\n      tag_50\n      swap1\n      tag_40\n      jump\t// in\n    tag_50:\n      dup1\n      0x1f\n      add\n      0x20\n      dup1\n      swap2\n      div\n      mul\n      0x20\n      add\n      mload(0x40)\n      swap1\n      dup2\n      add\n      0x40\n      mstore\n      dup1\n      swap3\n      swap2\n      swap1\n      dup2\n      dup2\n      mstore\n      0x20\n      add\n      dup3\n      dup1\n      sload\n      tag_51\n      swap1\n      tag_40\n      jump\t// in\n    tag_51:\n      dup1\n      iszero\n      tag_52\n      jumpi\n      dup1\n      0x1f\n      lt\n      tag_53\n      jumpi\n      0x0100\n      dup1\n      dup4\n      sload\n      div\n      mul\n      dup4\n      mstore\n      swap2\n      0x20\n      add\n      swap2\n      jump(tag_52)\n    tag_53:\n      dup3\n      add\n      swap2\n      swap1\n      0x00\n      mstore\n      keccak256(0x00, 0x20)\n      swap1\n    tag_54:\n      dup2\n      sload\n      dup2\n      mstore\n      swap1\n      0x01\n      add\n      swap1\n      0x20\n      add\n      dup1\n      dup4\n      gt\n      tag_54\n      jumpi\n      dup3\n      swap1\n      sub\n      0x1f\n      and\n      dup3\n      add\n      swap2\n    tag_52:\n      pop\n      pop\n      pop\n      pop\n      pop\n      swap1\n      dup1\n      0x05\n      add\n      sload\n      swap1\n      dup1\n      0x06\n      add\n      sload\n      swap1\n      pop\n      dup8\n      jump\t// out\n        /* \"ichoronium-galactic-contracts/users/ichorProfiles.sol\":1986:2426  function checkBenefactorExist (uint256 _benefactor)\r... */\n    tag_24:\n        /* \"ichoronium-galactic-contracts/users/ichorProfiles.sol\":2092:2110  uint256 beneNumber */\n      0x00\n        /* \"ichoronium-galactic-contracts/users/ichorProfiles.sol\":2113:2119  gamers */\n      0x01\n        /* \"ichoronium-galactic-contracts/users/ichorProfiles.sol\":2113:2132  gamers[_benefactor] */\n      0x00\n        /* \"ichoronium-galactic-contracts/users/ichorProfiles.sol\":2120:2131  _benefactor */\n      dup4\n        /* \"ichoronium-galactic-contracts/users/ichorProfiles.sol\":2113:2132  gamers[_benefactor] */\n      dup2\n      mstore\n      0x20\n      add\n      swap1\n      dup2\n      mstore\n      0x20\n      add\n      0x00\n      keccak256\n        /* \"ichoronium-galactic-contracts/users/ichorProfiles.sol\":2113:2136  gamers[_benefactor]._id */\n      0x00\n      add\n      sload\n        /* \"ichoronium-galactic-contracts/users/ichorProfiles.sol\":2092:2136  uint256 beneNumber = gamers[_benefactor]._id */\n      swap1\n      pop\n        /* \"ichoronium-galactic-contracts/users/ichorProfiles.sol\":2185:2186  0 */\n      0x00\n        /* \"ichoronium-galactic-contracts/users/ichorProfiles.sol\":2171:2181  beneNumber */\n      dup2\n        /* \"ichoronium-galactic-contracts/users/ichorProfiles.sol\":2171:2186  beneNumber >= 0 */\n      lt\n      iszero\n        /* \"ichoronium-galactic-contracts/users/ichorProfiles.sol\":2171:2214  beneNumber >= 0 && beneNumber <= gamerCount */\n      dup1\n      iszero\n      tag_56\n      jumpi\n      pop\n        /* \"ichoronium-galactic-contracts/users/ichorProfiles.sol\":2204:2214  gamerCount */\n      sload(0x00)\n        /* \"ichoronium-galactic-contracts/users/ichorProfiles.sol\":2190:2200  beneNumber */\n      dup2\n        /* \"ichoronium-galactic-contracts/users/ichorProfiles.sol\":2190:2214  beneNumber <= gamerCount */\n      gt\n      iszero\n        /* \"ichoronium-galactic-contracts/users/ichorProfiles.sol\":2171:2214  beneNumber >= 0 && beneNumber <= gamerCount */\n    tag_56:\n        /* \"ichoronium-galactic-contracts/users/ichorProfiles.sol\":2167:2399  if( beneNumber >= 0 && beneNumber <= gamerCount){\r... */\n      iszero\n      tag_57\n      jumpi\n      jump(tag_58)\n    tag_57:\n        /* \"ichoronium-galactic-contracts/users/ichorProfiles.sol\":2332:2367  revert(\"Benefactor Does Not Exist\") */\n      mload(0x40)\n      0x08c379a000000000000000000000000000000000000000000000000000000000\n      dup2\n      mstore\n      0x04\n      add\n      tag_59\n      swap1\n      tag_60\n      jump\t// in\n    tag_59:\n      mload(0x40)\n      dup1\n      swap2\n      sub\n      swap1\n      revert\n        /* \"ichoronium-galactic-contracts/users/ichorProfiles.sol\":2167:2399  if( beneNumber >= 0 && beneNumber <= gamerCount){\r... */\n    tag_58:\n        /* \"ichoronium-galactic-contracts/users/ichorProfiles.sol\":2063:2426  {\r... */\n      pop\n        /* \"ichoronium-galactic-contracts/users/ichorProfiles.sol\":1986:2426  function checkBenefactorExist (uint256 _benefactor)\r... */\n      pop\n      jump\t// out\n        /* \"ichoronium-galactic-contracts/users/ichorProfiles.sol\":2432:2842  function addFirstGamer()\r... */\n    tag_30:\n        /* \"ichoronium-galactic-contracts/users/ichorProfiles.sol\":2509:2573  Gamer(0,todaysDate,\"Darth\",\"DeathDealer\",\"deathdealer007\",239,1) */\n      mload(0x40)\n      dup1\n      0xe0\n      add\n      0x40\n      mstore\n      dup1\n        /* \"ichoronium-galactic-contracts/users/ichorProfiles.sol\":2515:2516  0 */\n      0x00\n        /* \"ichoronium-galactic-contracts/users/ichorProfiles.sol\":2509:2573  Gamer(0,todaysDate,\"Darth\",\"DeathDealer\",\"deathdealer007\",239,1) */\n      dup2\n      mstore\n      0x20\n      add\n        /* \"ichoronium-galactic-contracts/users/ichorProfiles.sol\":2517:2527  todaysDate */\n      sload(0x04)\n        /* \"ichoronium-galactic-contracts/users/ichorProfiles.sol\":2509:2573  Gamer(0,todaysDate,\"Darth\",\"DeathDealer\",\"deathdealer007\",239,1) */\n      dup2\n      mstore\n      0x20\n      add\n      mload(0x40)\n      dup1\n      0x40\n      add\n      0x40\n      mstore\n      dup1\n      0x05\n      dup2\n      mstore\n      0x20\n      add\n      0x4461727468000000000000000000000000000000000000000000000000000000\n      dup2\n      mstore\n      pop\n      dup2\n      mstore\n      0x20\n      add\n      mload(0x40)\n      dup1\n      0x40\n      add\n      0x40\n      mstore\n      dup1\n      0x0b\n      dup2\n      mstore\n      0x20\n      add\n      0x44656174684465616c6572000000000000000000000000000000000000000000\n      dup2\n      mstore\n      pop\n      dup2\n      mstore\n      0x20\n      add\n      mload(0x40)\n      dup1\n      0x40\n      add\n      0x40\n      mstore\n      dup1\n      0x0e\n      dup2\n      mstore\n      0x20\n      add\n      0x64656174686465616c6572303037000000000000000000000000000000000000\n      dup2\n      mstore\n      pop\n      dup2\n      mstore\n      0x20\n      add\n        /* \"ichoronium-galactic-contracts/users/ichorProfiles.sol\":2567:2570  239 */\n      0xef\n        /* \"ichoronium-galactic-contracts/users/ichorProfiles.sol\":2509:2573  Gamer(0,todaysDate,\"Darth\",\"DeathDealer\",\"deathdealer007\",239,1) */\n      dup2\n      mstore\n      0x20\n      add\n        /* \"ichoronium-galactic-contracts/users/ichorProfiles.sol\":2571:2572  1 */\n      0x01\n        /* \"ichoronium-galactic-contracts/users/ichorProfiles.sol\":2509:2573  Gamer(0,todaysDate,\"Darth\",\"DeathDealer\",\"deathdealer007\",239,1) */\n      dup2\n      mstore\n      pop\n        /* \"ichoronium-galactic-contracts/users/ichorProfiles.sol\":2497:2503  gamers */\n      0x01\n        /* \"ichoronium-galactic-contracts/users/ichorProfiles.sol\":2497:2506  gamers[0] */\n      0x00\n        /* \"ichoronium-galactic-contracts/users/ichorProfiles.sol\":2504:2505  0 */\n      dup1\n        /* \"ichoronium-galactic-contracts/users/ichorProfiles.sol\":2497:2506  gamers[0] */\n      dup2\n      mstore\n      0x20\n      add\n      swap1\n      dup2\n      mstore\n      0x20\n      add\n      0x00\n      keccak256\n        /* \"ichoronium-galactic-contracts/users/ichorProfiles.sol\":2497:2573  gamers[0] = Gamer(0,todaysDate,\"Darth\",\"DeathDealer\",\"deathdealer007\",239,1) */\n      0x00\n      dup3\n      add\n      mload\n      dup2\n      0x00\n      add\n      sstore\n      0x20\n      dup3\n      add\n      mload\n      dup2\n      0x01\n      add\n      sstore\n      0x40\n      dup3\n      add\n      mload\n      dup2\n      0x02\n      add\n      swap1\n      dup1\n      mload\n      swap1\n      0x20\n      add\n      swap1\n      tag_62\n      swap3\n      swap2\n      swap1\n      tag_36\n      jump\t// in\n    tag_62:\n      pop\n      0x60\n      dup3\n      add\n      mload\n      dup2\n      0x03\n      add\n      swap1\n      dup1\n      mload\n      swap1\n      0x20\n      add\n      swap1\n      tag_63\n      swap3\n      swap2\n      swap1\n      tag_36\n      jump\t// in\n    tag_63:\n      pop\n      0x80\n      dup3\n      add\n      mload\n      dup2\n      0x04\n      add\n      swap1\n      dup1\n      mload\n      swap1\n      0x20\n      add\n      swap1\n      tag_64\n      swap3\n      swap2\n      swap1\n      tag_36\n      jump\t// in\n    tag_64:\n      pop\n      0xa0\n      dup3\n      add\n      mload\n      dup2\n      0x05\n      add\n      sstore\n      0xc0\n      dup3\n      add\n      mload\n      dup2\n      0x06\n      add\n      sstore\n      swap1\n      pop\n      pop\n        /* \"ichoronium-galactic-contracts/users/ichorProfiles.sol\":2603:2657  Gamer(1,todaysDate,\"Zul\",\"Zed\",\"firstwizard007\",239,1) */\n      mload(0x40)\n      dup1\n      0xe0\n      add\n      0x40\n      mstore\n      dup1\n        /* \"ichoronium-galactic-contracts/users/ichorProfiles.sol\":2609:2610  1 */\n      0x01\n        /* \"ichoronium-galactic-contracts/users/ichorProfiles.sol\":2603:2657  Gamer(1,todaysDate,\"Zul\",\"Zed\",\"firstwizard007\",239,1) */\n      dup2\n      mstore\n      0x20\n      add\n        /* \"ichoronium-galactic-contracts/users/ichorProfiles.sol\":2611:2621  todaysDate */\n      sload(0x04)\n        /* \"ichoronium-galactic-contracts/users/ichorProfiles.sol\":2603:2657  Gamer(1,todaysDate,\"Zul\",\"Zed\",\"firstwizard007\",239,1) */\n      dup2\n      mstore\n      0x20\n      add\n      mload(0x40)\n      dup1\n      0x40\n      add\n      0x40\n      mstore\n      dup1\n      0x03\n      dup2\n      mstore\n      0x20\n      add\n      0x5a756c0000000000000000000000000000000000000000000000000000000000\n      dup2\n      mstore\n      pop\n      dup2\n      mstore\n      0x20\n      add\n      mload(0x40)\n      dup1\n      0x40\n      add\n      0x40\n      mstore\n      dup1\n      0x03\n      dup2\n      mstore\n      0x20\n      add\n      0x5a65640000000000000000000000000000000000000000000000000000000000\n      dup2\n      mstore\n      pop\n      dup2\n      mstore\n      0x20\n      add\n      mload(0x40)\n      dup1\n      0x40\n      add\n      0x40\n      mstore\n      dup1\n      0x0e\n      dup2\n      mstore\n      0x20\n      add\n      0x666972737477697a617264303037000000000000000000000000000000000000\n      dup2\n      mstore\n      pop\n      dup2\n      mstore\n      0x20\n      add\n        /* \"ichoronium-galactic-contracts/users/ichorProfiles.sol\":2651:2654  239 */\n      0xef\n        /* \"ichoronium-galactic-contracts/users/ichorProfiles.sol\":2603:2657  Gamer(1,todaysDate,\"Zul\",\"Zed\",\"firstwizard007\",239,1) */\n      dup2\n      mstore\n      0x20\n      add\n        /* \"ichoronium-galactic-contracts/users/ichorProfiles.sol\":2655:2656  1 */\n      0x01\n        /* \"ichoronium-galactic-contracts/users/ichorProfiles.sol\":2603:2657  Gamer(1,todaysDate,\"Zul\",\"Zed\",\"firstwizard007\",239,1) */\n      dup2\n      mstore\n      pop\n        /* \"ichoronium-galactic-contracts/users/ichorProfiles.sol\":2591:2597  gamers */\n      0x01\n        /* \"ichoronium-galactic-contracts/users/ichorProfiles.sol\":2591:2600  gamers[1] */\n      0x00\n        /* \"ichoronium-galactic-contracts/users/ichorProfiles.sol\":2598:2599  1 */\n      0x01\n        /* \"ichoronium-galactic-contracts/users/ichorProfiles.sol\":2591:2600  gamers[1] */\n      dup2\n      mstore\n      0x20\n      add\n      swap1\n      dup2\n      mstore\n      0x20\n      add\n      0x00\n      keccak256\n        /* \"ichoronium-galactic-contracts/users/ichorProfiles.sol\":2591:2657  gamers[1] = Gamer(1,todaysDate,\"Zul\",\"Zed\",\"firstwizard007\",239,1) */\n      0x00\n      dup3\n      add\n      mload\n      dup2\n      0x00\n      add\n      sstore\n      0x20\n      dup3\n      add\n      mload\n      dup2\n      0x01\n      add\n      sstore\n      0x40\n      dup3\n      add\n      mload\n      dup2\n      0x02\n      add\n      swap1\n      dup1\n      mload\n      swap1\n      0x20\n      add\n      swap1\n      tag_65\n      swap3\n      swap2\n      swap1\n      tag_36\n      jump\t// in\n    tag_65:\n      pop\n      0x60\n      dup3\n      add\n      mload\n      dup2\n      0x03\n      add\n      swap1\n      dup1\n      mload\n      swap1\n      0x20\n      add\n      swap1\n      tag_66\n      swap3\n      swap2\n      swap1\n      tag_36\n      jump\t// in\n    tag_66:\n      pop\n      0x80\n      dup3\n      add\n      mload\n      dup2\n      0x04\n      add\n      swap1\n      dup1\n      mload\n      swap1\n      0x20\n      add\n      swap1\n      tag_67\n      swap3\n      swap2\n      swap1\n      tag_36\n      jump\t// in\n    tag_67:\n      pop\n      0xa0\n      dup3\n      add\n      mload\n      dup2\n      0x05\n      add\n      sstore\n      0xc0\n      dup3\n      add\n      mload\n      dup2\n      0x06\n      add\n      sstore\n      swap1\n      pop\n      pop\n        /* \"ichoronium-galactic-contracts/users/ichorProfiles.sol\":2691:2741  gamerFlag(0,true,true,true,true,true,true,0,0,0,0) */\n      mload(0x40)\n      dup1\n      0x0160\n      add\n      0x40\n      mstore\n      dup1\n        /* \"ichoronium-galactic-contracts/users/ichorProfiles.sol\":2701:2702  0 */\n      0x00\n        /* \"ichoronium-galactic-contracts/users/ichorProfiles.sol\":2691:2741  gamerFlag(0,true,true,true,true,true,true,0,0,0,0) */\n      dup2\n      mstore\n      0x20\n      add\n        /* \"ichoronium-galactic-contracts/users/ichorProfiles.sol\":2703:2707  true */\n      0x01\n        /* \"ichoronium-galactic-contracts/users/ichorProfiles.sol\":2691:2741  gamerFlag(0,true,true,true,true,true,true,0,0,0,0) */\n      iszero\n      iszero\n      dup2\n      mstore\n      0x20\n      add\n        /* \"ichoronium-galactic-contracts/users/ichorProfiles.sol\":2708:2712  true */\n      0x01\n        /* \"ichoronium-galactic-contracts/users/ichorProfiles.sol\":2691:2741  gamerFlag(0,true,true,true,true,true,true,0,0,0,0) */\n      iszero\n      iszero\n      dup2\n      mstore\n      0x20\n      add\n        /* \"ichoronium-galactic-contracts/users/ichorProfiles.sol\":2713:2717  true */\n      0x01\n        /* \"ichoronium-galactic-contracts/users/ichorProfiles.sol\":2691:2741  gamerFlag(0,true,true,true,true,true,true,0,0,0,0) */\n      iszero\n      iszero\n      dup2\n      mstore\n      0x20\n      add\n        /* \"ichoronium-galactic-contracts/users/ichorProfiles.sol\":2718:2722  true */\n      0x01\n        /* \"ichoronium-galactic-contracts/users/ichorProfiles.sol\":2691:2741  gamerFlag(0,true,true,true,true,true,true,0,0,0,0) */\n      iszero\n      iszero\n      dup2\n      mstore\n      0x20\n      add\n        /* \"ichoronium-galactic-contracts/users/ichorProfiles.sol\":2723:2727  true */\n      0x01\n        /* \"ichoronium-galactic-contracts/users/ichorProfiles.sol\":2691:2741  gamerFlag(0,true,true,true,true,true,true,0,0,0,0) */\n      iszero\n      iszero\n      dup2\n      mstore\n      0x20\n      add\n        /* \"ichoronium-galactic-contracts/users/ichorProfiles.sol\":2728:2732  true */\n      0x01\n        /* \"ichoronium-galactic-contracts/users/ichorProfiles.sol\":2691:2741  gamerFlag(0,true,true,true,true,true,true,0,0,0,0) */\n      iszero\n      iszero\n      dup2\n      mstore\n      0x20\n      add\n        /* \"ichoronium-galactic-contracts/users/ichorProfiles.sol\":2733:2734  0 */\n      0x00\n        /* \"ichoronium-galactic-contracts/users/ichorProfiles.sol\":2691:2741  gamerFlag(0,true,true,true,true,true,true,0,0,0,0) */\n      dup2\n      mstore\n      0x20\n      add\n        /* \"ichoronium-galactic-contracts/users/ichorProfiles.sol\":2735:2736  0 */\n      0x00\n        /* \"ichoronium-galactic-contracts/users/ichorProfiles.sol\":2691:2741  gamerFlag(0,true,true,true,true,true,true,0,0,0,0) */\n      dup2\n      mstore\n      0x20\n      add\n        /* \"ichoronium-galactic-contracts/users/ichorProfiles.sol\":2737:2738  0 */\n      0x00\n        /* \"ichoronium-galactic-contracts/users/ichorProfiles.sol\":2691:2741  gamerFlag(0,true,true,true,true,true,true,0,0,0,0) */\n      dup2\n      mstore\n      0x20\n      add\n        /* \"ichoronium-galactic-contracts/users/ichorProfiles.sol\":2739:2740  0 */\n      0x00\n        /* \"ichoronium-galactic-contracts/users/ichorProfiles.sol\":2691:2741  gamerFlag(0,true,true,true,true,true,true,0,0,0,0) */\n      dup2\n      mstore\n      pop\n        /* \"ichoronium-galactic-contracts/users/ichorProfiles.sol\":2675:2685  gamerFlags */\n      0x02\n        /* \"ichoronium-galactic-contracts/users/ichorProfiles.sol\":2675:2688  gamerFlags[0] */\n      0x00\n        /* \"ichoronium-galactic-contracts/users/ichorProfiles.sol\":2686:2687  0 */\n      dup1\n        /* \"ichoronium-galactic-contracts/users/ichorProfiles.sol\":2675:2688  gamerFlags[0] */\n      dup2\n      mstore\n      0x20\n      add\n      swap1\n      dup2\n      mstore\n      0x20\n      add\n      0x00\n      keccak256\n        /* \"ichoronium-galactic-contracts/users/ichorProfiles.sol\":2675:2741  gamerFlags[0] = gamerFlag(0,true,true,true,true,true,true,0,0,0,0) */\n      0x00\n      dup3\n      add\n      mload\n      dup2\n      0x00\n      add\n      sstore\n      0x20\n      dup3\n      add\n      mload\n      dup2\n      0x01\n      add\n      exp(0x0100, 0x00)\n      dup2\n      sload\n      dup2\n      0xff\n      mul\n      not\n      and\n      swap1\n      dup4\n      iszero\n      iszero\n      mul\n      or\n      swap1\n      sstore\n      pop\n      0x40\n      dup3\n      add\n      mload\n      dup2\n      0x01\n      add\n      exp(0x0100, 0x01)\n      dup2\n      sload\n      dup2\n      0xff\n      mul\n      not\n      and\n      swap1\n      dup4\n      iszero\n      iszero\n      mul\n      or\n      swap1\n      sstore\n      pop\n      0x60\n      dup3\n      add\n      mload\n      dup2\n      0x01\n      add\n      exp(0x0100, 0x02)\n      dup2\n      sload\n      dup2\n      0xff\n      mul\n      not\n      and\n      swap1\n      dup4\n      iszero\n      iszero\n      mul\n      or\n      swap1\n      sstore\n      pop\n      0x80\n      dup3\n      add\n      mload\n      dup2\n      0x01\n      add\n      exp(0x0100, 0x03)\n      dup2\n      sload\n      dup2\n      0xff\n      mul\n      not\n      and\n      swap1\n      dup4\n      iszero\n      iszero\n      mul\n      or\n      swap1\n      sstore\n      pop\n      0xa0\n      dup3\n      add\n      mload\n      dup2\n      0x01\n      add\n      exp(0x0100, 0x04)\n      dup2\n      sload\n      dup2\n      0xff\n      mul\n      not\n      and\n      swap1\n      dup4\n      iszero\n      iszero\n      mul\n      or\n      swap1\n      sstore\n      pop\n      0xc0\n      dup3\n      add\n      mload\n      dup2\n      0x01\n      add\n      exp(0x0100, 0x05)\n      dup2\n      sload\n      dup2\n      0xff\n      mul\n      not\n      and\n      swap1\n      dup4\n      iszero\n      iszero\n      mul\n      or\n      swap1\n      sstore\n      pop\n      0xe0\n      dup3\n      add\n      mload\n      dup2\n      0x02\n      add\n      sstore\n      0x0100\n      dup3\n      add\n      mload\n      dup2\n      0x03\n      add\n      sstore\n      0x0120\n      dup3\n      add\n      mload\n      dup2\n      0x04\n      add\n      sstore\n      0x0140\n      dup3\n      add\n      mload\n      dup2\n      0x05\n      add\n      sstore\n      swap1\n      pop\n      pop\n        /* \"ichoronium-galactic-contracts/users/ichorProfiles.sol\":2775:2825  gamerFlag(1,true,true,true,true,true,true,0,0,0,0) */\n      mload(0x40)\n      dup1\n      0x0160\n      add\n      0x40\n      mstore\n      dup1\n        /* \"ichoronium-galactic-contracts/users/ichorProfiles.sol\":2785:2786  1 */\n      0x01\n        /* \"ichoronium-galactic-contracts/users/ichorProfiles.sol\":2775:2825  gamerFlag(1,true,true,true,true,true,true,0,0,0,0) */\n      dup2\n      mstore\n      0x20\n      add\n        /* \"ichoronium-galactic-contracts/users/ichorProfiles.sol\":2787:2791  true */\n      0x01\n        /* \"ichoronium-galactic-contracts/users/ichorProfiles.sol\":2775:2825  gamerFlag(1,true,true,true,true,true,true,0,0,0,0) */\n      iszero\n      iszero\n      dup2\n      mstore\n      0x20\n      add\n        /* \"ichoronium-galactic-contracts/users/ichorProfiles.sol\":2792:2796  true */\n      0x01\n        /* \"ichoronium-galactic-contracts/users/ichorProfiles.sol\":2775:2825  gamerFlag(1,true,true,true,true,true,true,0,0,0,0) */\n      iszero\n      iszero\n      dup2\n      mstore\n      0x20\n      add\n        /* \"ichoronium-galactic-contracts/users/ichorProfiles.sol\":2797:2801  true */\n      0x01\n        /* \"ichoronium-galactic-contracts/users/ichorProfiles.sol\":2775:2825  gamerFlag(1,true,true,true,true,true,true,0,0,0,0) */\n      iszero\n      iszero\n      dup2\n      mstore\n      0x20\n      add\n        /* \"ichoronium-galactic-contracts/users/ichorProfiles.sol\":2802:2806  true */\n      0x01\n        /* \"ichoronium-galactic-contracts/users/ichorProfiles.sol\":2775:2825  gamerFlag(1,true,true,true,true,true,true,0,0,0,0) */\n      iszero\n      iszero\n      dup2\n      mstore\n      0x20\n      add\n        /* \"ichoronium-galactic-contracts/users/ichorProfiles.sol\":2807:2811  true */\n      0x01\n        /* \"ichoronium-galactic-contracts/users/ichorProfiles.sol\":2775:2825  gamerFlag(1,true,true,true,true,true,true,0,0,0,0) */\n      iszero\n      iszero\n      dup2\n      mstore\n      0x20\n      add\n        /* \"ichoronium-galactic-contracts/users/ichorProfiles.sol\":2812:2816  true */\n      0x01\n        /* \"ichoronium-galactic-contracts/users/ichorProfiles.sol\":2775:2825  gamerFlag(1,true,true,true,true,true,true,0,0,0,0) */\n      iszero\n      iszero\n      dup2\n      mstore\n      0x20\n      add\n        /* \"ichoronium-galactic-contracts/users/ichorProfiles.sol\":2817:2818  0 */\n      0x00\n        /* \"ichoronium-galactic-contracts/users/ichorProfiles.sol\":2775:2825  gamerFlag(1,true,true,true,true,true,true,0,0,0,0) */\n      dup2\n      mstore\n      0x20\n      add\n        /* \"ichoronium-galactic-contracts/users/ichorProfiles.sol\":2819:2820  0 */\n      0x00\n        /* \"ichoronium-galactic-contracts/users/ichorProfiles.sol\":2775:2825  gamerFlag(1,true,true,true,true,true,true,0,0,0,0) */\n      dup2\n      mstore\n      0x20\n      add\n        /* \"ichoronium-galactic-contracts/users/ichorProfiles.sol\":2821:2822  0 */\n      0x00\n        /* \"ichoronium-galactic-contracts/users/ichorProfiles.sol\":2775:2825  gamerFlag(1,true,true,true,true,true,true,0,0,0,0) */\n      dup2\n      mstore\n      0x20\n      add\n        /* \"ichoronium-galactic-contracts/users/ichorProfiles.sol\":2823:2824  0 */\n      0x00\n        /* \"ichoronium-galactic-contracts/users/ichorProfiles.sol\":2775:2825  gamerFlag(1,true,true,true,true,true,true,0,0,0,0) */\n      dup2\n      mstore\n      pop\n        /* \"ichoronium-galactic-contracts/users/ichorProfiles.sol\":2759:2769  gamerFlags */\n      0x02\n        /* \"ichoronium-galactic-contracts/users/ichorProfiles.sol\":2759:2772  gamerFlags[1] */\n      0x00\n        /* \"ichoronium-galactic-contracts/users/ichorProfiles.sol\":2770:2771  1 */\n      0x01\n        /* \"ichoronium-galactic-contracts/users/ichorProfiles.sol\":2759:2772  gamerFlags[1] */\n      dup2\n      mstore\n      0x20\n      add\n      swap1\n      dup2\n      mstore\n      0x20\n      add\n      0x00\n      keccak256\n        /* \"ichoronium-galactic-contracts/users/ichorProfiles.sol\":2759:2825  gamerFlags[1] = gamerFlag(1,true,true,true,true,true,true,0,0,0,0) */\n      0x00\n      dup3\n      add\n      mload\n      dup2\n      0x00\n      add\n      sstore\n      0x20\n      dup3\n      add\n      mload\n      dup2\n      0x01\n      add\n      exp(0x0100, 0x00)\n      dup2\n      sload\n      dup2\n      0xff\n      mul\n      not\n      and\n      swap1\n      dup4\n      iszero\n      iszero\n      mul\n      or\n      swap1\n      sstore\n      pop\n      0x40\n      dup3\n      add\n      mload\n      dup2\n      0x01\n      add\n      exp(0x0100, 0x01)\n      dup2\n      sload\n      dup2\n      0xff\n      mul\n      not\n      and\n      swap1\n      dup4\n      iszero\n      iszero\n      mul\n      or\n      swap1\n      sstore\n      pop\n      0x60\n      dup3\n      add\n      mload\n      dup2\n      0x01\n      add\n      exp(0x0100, 0x02)\n      dup2\n      sload\n      dup2\n      0xff\n      mul\n      not\n      and\n      swap1\n      dup4\n      iszero\n      iszero\n      mul\n      or\n      swap1\n      sstore\n      pop\n      0x80\n      dup3\n      add\n      mload\n      dup2\n      0x01\n      add\n      exp(0x0100, 0x03)\n      dup2\n      sload\n      dup2\n      0xff\n      mul\n      not\n      and\n      swap1\n      dup4\n      iszero\n      iszero\n      mul\n      or\n      swap1\n      sstore\n      pop\n      0xa0\n      dup3\n      add\n      mload\n      dup2\n      0x01\n      add\n      exp(0x0100, 0x04)\n      dup2\n      sload\n      dup2\n      0xff\n      mul\n      not\n      and\n      swap1\n      dup4\n      iszero\n      iszero\n      mul\n      or\n      swap1\n      sstore\n      pop\n      0xc0\n      dup3\n      add\n      mload\n      dup2\n      0x01\n      add\n      exp(0x0100, 0x05)\n      dup2\n      sload\n      dup2\n      0xff\n      mul\n      not\n      and\n      swap1\n      dup4\n      iszero\n      iszero\n      mul\n      or\n      swap1\n      sstore\n      pop\n      0xe0\n      dup3\n      add\n      mload\n      dup2\n      0x02\n      add\n      sstore\n      0x0100\n      dup3\n      add\n      mload\n      dup2\n      0x03\n      add\n      sstore\n      0x0120\n      dup3\n      add\n      mload\n      dup2\n      0x04\n      add\n      sstore\n      0x0140\n      dup3\n      add\n      mload\n      dup2\n      0x05\n      add\n      sstore\n      swap1\n      pop\n      pop\n        /* \"ichoronium-galactic-contracts/users/ichorProfiles.sol\":2432:2842  function addFirstGamer()\r... */\n      jump\t// out\n        /* \"ichoronium-galactic-contracts/users/ichorProfiles.sol\":1017:1115  function incrementCount()\r... */\n    tag_32:\n        /* \"ichoronium-galactic-contracts/users/ichorProfiles.sol\":1097:1098  1 */\n      0x01\n        /* \"ichoronium-galactic-contracts/users/ichorProfiles.sol\":1083:1093  gamerCount */\n      0x00\n      dup1\n        /* \"ichoronium-galactic-contracts/users/ichorProfiles.sol\":1083:1098  gamerCount += 1 */\n      dup3\n      dup3\n      sload\n      tag_69\n      swap2\n      swap1\n      tag_70\n      jump\t// in\n    tag_69:\n      swap3\n      pop\n      pop\n      dup2\n      swap1\n      sstore\n      pop\n        /* \"ichoronium-galactic-contracts/users/ichorProfiles.sol\":1017:1115  function incrementCount()\r... */\n      jump\t// out\n    tag_36:\n      dup3\n      dup1\n      sload\n      tag_71\n      swap1\n      tag_40\n      jump\t// in\n    tag_71:\n      swap1\n      0x00\n      mstore\n      keccak256(0x00, 0x20)\n      swap1\n      0x1f\n      add\n      0x20\n      swap1\n      div\n      dup2\n      add\n      swap3\n      dup3\n      tag_73\n      jumpi\n      0x00\n      dup6\n      sstore\n      jump(tag_72)\n    tag_73:\n      dup3\n      0x1f\n      lt\n      tag_74\n      jumpi\n      dup1\n      mload\n      not(0xff)\n      and\n      dup4\n      dup1\n      add\n      or\n      dup6\n      sstore\n      jump(tag_72)\n    tag_74:\n      dup3\n      dup1\n      add\n      0x01\n      add\n      dup6\n      sstore\n      dup3\n      iszero\n      tag_72\n      jumpi\n      swap2\n      dup3\n      add\n    tag_75:\n      dup3\n      dup2\n      gt\n      iszero\n      tag_76\n      jumpi\n      dup3\n      mload\n      dup3\n      sstore\n      swap2\n      0x20\n      add\n      swap2\n      swap1\n      0x01\n      add\n      swap1\n      jump(tag_75)\n    tag_76:\n    tag_72:\n      pop\n      swap1\n      pop\n      tag_77\n      swap2\n      swap1\n      tag_78\n      jump\t// in\n    tag_77:\n      pop\n      swap1\n      jump\t// out\n    tag_78:\n    tag_79:\n      dup1\n      dup3\n      gt\n      iszero\n      tag_80\n      jumpi\n      0x00\n      dup2\n      0x00\n      swap1\n      sstore\n      pop\n      0x01\n      add\n      jump(tag_79)\n    tag_80:\n      pop\n      swap1\n      jump\t// out\n        /* \"#utility.yul\":7:419   */\n    tag_82:\n        /* \"#utility.yul\":85:90   */\n      0x00\n        /* \"#utility.yul\":110:176   */\n      tag_84\n        /* \"#utility.yul\":126:175   */\n      tag_85\n        /* \"#utility.yul\":168:174   */\n      dup5\n        /* \"#utility.yul\":126:175   */\n      tag_86\n      jump\t// in\n    tag_85:\n        /* \"#utility.yul\":110:176   */\n      tag_87\n      jump\t// in\n    tag_84:\n        /* \"#utility.yul\":101:176   */\n      swap1\n      pop\n        /* \"#utility.yul\":199:205   */\n      dup3\n        /* \"#utility.yul\":192:197   */\n      dup2\n        /* \"#utility.yul\":185:206   */\n      mstore\n        /* \"#utility.yul\":237:241   */\n      0x20\n        /* \"#utility.yul\":230:235   */\n      dup2\n        /* \"#utility.yul\":226:242   */\n      add\n        /* \"#utility.yul\":275:278   */\n      dup5\n        /* \"#utility.yul\":266:272   */\n      dup5\n        /* \"#utility.yul\":261:264   */\n      dup5\n        /* \"#utility.yul\":257:273   */\n      add\n        /* \"#utility.yul\":254:279   */\n      gt\n        /* \"#utility.yul\":251:253   */\n      iszero\n      tag_88\n      jumpi\n        /* \"#utility.yul\":282:361   */\n      tag_89\n      tag_90\n      jump\t// in\n    tag_89:\n        /* \"#utility.yul\":251:253   */\n    tag_88:\n        /* \"#utility.yul\":372:413   */\n      tag_91\n        /* \"#utility.yul\":406:412   */\n      dup5\n        /* \"#utility.yul\":401:404   */\n      dup3\n        /* \"#utility.yul\":396:399   */\n      dup6\n        /* \"#utility.yul\":372:413   */\n      tag_92\n      jump\t// in\n    tag_91:\n        /* \"#utility.yul\":91:419   */\n      pop\n      swap4\n      swap3\n      pop\n      pop\n      pop\n      jump\t// out\n        /* \"#utility.yul\":439:779   */\n    tag_93:\n        /* \"#utility.yul\":495:500   */\n      0x00\n        /* \"#utility.yul\":544:547   */\n      dup3\n        /* \"#utility.yul\":537:541   */\n      0x1f\n        /* \"#utility.yul\":529:535   */\n      dup4\n        /* \"#utility.yul\":525:542   */\n      add\n        /* \"#utility.yul\":521:548   */\n      slt\n        /* \"#utility.yul\":511:513   */\n      tag_95\n      jumpi\n        /* \"#utility.yul\":552:631   */\n      tag_96\n      tag_97\n      jump\t// in\n    tag_96:\n        /* \"#utility.yul\":511:513   */\n    tag_95:\n        /* \"#utility.yul\":669:675   */\n      dup2\n        /* \"#utility.yul\":656:676   */\n      calldataload\n        /* \"#utility.yul\":694:773   */\n      tag_98\n        /* \"#utility.yul\":769:772   */\n      dup5\n        /* \"#utility.yul\":761:767   */\n      dup3\n        /* \"#utility.yul\":754:758   */\n      0x20\n        /* \"#utility.yul\":746:752   */\n      dup7\n        /* \"#utility.yul\":742:759   */\n      add\n        /* \"#utility.yul\":694:773   */\n      tag_82\n      jump\t// in\n    tag_98:\n        /* \"#utility.yul\":685:773   */\n      swap2\n      pop\n        /* \"#utility.yul\":501:779   */\n      pop\n      swap3\n      swap2\n      pop\n      pop\n      jump\t// out\n        /* \"#utility.yul\":785:924   */\n    tag_99:\n        /* \"#utility.yul\":831:836   */\n      0x00\n        /* \"#utility.yul\":869:875   */\n      dup2\n        /* \"#utility.yul\":856:876   */\n      calldataload\n        /* \"#utility.yul\":847:876   */\n      swap1\n      pop\n        /* \"#utility.yul\":885:918   */\n      tag_101\n        /* \"#utility.yul\":912:917   */\n      dup2\n        /* \"#utility.yul\":885:918   */\n      tag_102\n      jump\t// in\n    tag_101:\n        /* \"#utility.yul\":837:924   */\n      swap3\n      swap2\n      pop\n      pop\n      jump\t// out\n        /* \"#utility.yul\":930:2235   */\n    tag_15:\n        /* \"#utility.yul\":1046:1052   */\n      0x00\n        /* \"#utility.yul\":1054:1060   */\n      dup1\n        /* \"#utility.yul\":1062:1068   */\n      0x00\n        /* \"#utility.yul\":1070:1076   */\n      dup1\n        /* \"#utility.yul\":1119:1122   */\n      0x80\n        /* \"#utility.yul\":1107:1116   */\n      dup6\n        /* \"#utility.yul\":1098:1105   */\n      dup8\n        /* \"#utility.yul\":1094:1117   */\n      sub\n        /* \"#utility.yul\":1090:1123   */\n      slt\n        /* \"#utility.yul\":1087:1089   */\n      iszero\n      tag_104\n      jumpi\n        /* \"#utility.yul\":1126:1205   */\n      tag_105\n      tag_106\n      jump\t// in\n    tag_105:\n        /* \"#utility.yul\":1087:1089   */\n    tag_104:\n        /* \"#utility.yul\":1274:1275   */\n      0x00\n        /* \"#utility.yul\":1263:1272   */\n      dup6\n        /* \"#utility.yul\":1259:1276   */\n      add\n        /* \"#utility.yul\":1246:1277   */\n      calldataload\n        /* \"#utility.yul\":1304:1322   */\n      0xffffffffffffffff\n        /* \"#utility.yul\":1296:1302   */\n      dup2\n        /* \"#utility.yul\":1293:1323   */\n      gt\n        /* \"#utility.yul\":1290:1292   */\n      iszero\n      tag_107\n      jumpi\n        /* \"#utility.yul\":1326:1405   */\n      tag_108\n      tag_109\n      jump\t// in\n    tag_108:\n        /* \"#utility.yul\":1290:1292   */\n    tag_107:\n        /* \"#utility.yul\":1431:1494   */\n      tag_110\n        /* \"#utility.yul\":1486:1493   */\n      dup8\n        /* \"#utility.yul\":1477:1483   */\n      dup3\n        /* \"#utility.yul\":1466:1475   */\n      dup9\n        /* \"#utility.yul\":1462:1484   */\n      add\n        /* \"#utility.yul\":1431:1494   */\n      tag_93\n      jump\t// in\n    tag_110:\n        /* \"#utility.yul\":1421:1494   */\n      swap5\n      pop\n        /* \"#utility.yul\":1217:1504   */\n      pop\n        /* \"#utility.yul\":1571:1573   */\n      0x20\n        /* \"#utility.yul\":1560:1569   */\n      dup6\n        /* \"#utility.yul\":1556:1574   */\n      add\n        /* \"#utility.yul\":1543:1575   */\n      calldataload\n        /* \"#utility.yul\":1602:1620   */\n      0xffffffffffffffff\n        /* \"#utility.yul\":1594:1600   */\n      dup2\n        /* \"#utility.yul\":1591:1621   */\n      gt\n        /* \"#utility.yul\":1588:1590   */\n      iszero\n      tag_111\n      jumpi\n        /* \"#utility.yul\":1624:1703   */\n      tag_112\n      tag_109\n      jump\t// in\n    tag_112:\n        /* \"#utility.yul\":1588:1590   */\n    tag_111:\n        /* \"#utility.yul\":1729:1792   */\n      tag_113\n        /* \"#utility.yul\":1784:1791   */\n      dup8\n        /* \"#utility.yul\":1775:1781   */\n      dup3\n        /* \"#utility.yul\":1764:1773   */\n      dup9\n        /* \"#utility.yul\":1760:1782   */\n      add\n        /* \"#utility.yul\":1729:1792   */\n      tag_93\n      jump\t// in\n    tag_113:\n        /* \"#utility.yul\":1719:1792   */\n      swap4\n      pop\n        /* \"#utility.yul\":1514:1802   */\n      pop\n        /* \"#utility.yul\":1869:1871   */\n      0x40\n        /* \"#utility.yul\":1858:1867   */\n      dup6\n        /* \"#utility.yul\":1854:1872   */\n      add\n        /* \"#utility.yul\":1841:1873   */\n      calldataload\n        /* \"#utility.yul\":1900:1918   */\n      0xffffffffffffffff\n        /* \"#utility.yul\":1892:1898   */\n      dup2\n        /* \"#utility.yul\":1889:1919   */\n      gt\n        /* \"#utility.yul\":1886:1888   */\n      iszero\n      tag_114\n      jumpi\n        /* \"#utility.yul\":1922:2001   */\n      tag_115\n      tag_109\n      jump\t// in\n    tag_115:\n        /* \"#utility.yul\":1886:1888   */\n    tag_114:\n        /* \"#utility.yul\":2027:2090   */\n      tag_116\n        /* \"#utility.yul\":2082:2089   */\n      dup8\n        /* \"#utility.yul\":2073:2079   */\n      dup3\n        /* \"#utility.yul\":2062:2071   */\n      dup9\n        /* \"#utility.yul\":2058:2080   */\n      add\n        /* \"#utility.yul\":2027:2090   */\n      tag_93\n      jump\t// in\n    tag_116:\n        /* \"#utility.yul\":2017:2090   */\n      swap3\n      pop\n        /* \"#utility.yul\":1812:2100   */\n      pop\n        /* \"#utility.yul\":2139:2141   */\n      0x60\n        /* \"#utility.yul\":2165:2218   */\n      tag_117\n        /* \"#utility.yul\":2210:2217   */\n      dup8\n        /* \"#utility.yul\":2201:2207   */\n      dup3\n        /* \"#utility.yul\":2190:2199   */\n      dup9\n        /* \"#utility.yul\":2186:2208   */\n      add\n        /* \"#utility.yul\":2165:2218   */\n      tag_99\n      jump\t// in\n    tag_117:\n        /* \"#utility.yul\":2155:2218   */\n      swap2\n      pop\n        /* \"#utility.yul\":2110:2228   */\n      pop\n        /* \"#utility.yul\":1077:2235   */\n      swap3\n      swap6\n      swap2\n      swap5\n      pop\n      swap3\n      pop\n      jump\t// out\n        /* \"#utility.yul\":2241:2570   */\n    tag_9:\n        /* \"#utility.yul\":2300:2306   */\n      0x00\n        /* \"#utility.yul\":2349:2351   */\n      0x20\n        /* \"#utility.yul\":2337:2346   */\n      dup3\n        /* \"#utility.yul\":2328:2335   */\n      dup5\n        /* \"#utility.yul\":2324:2347   */\n      sub\n        /* \"#utility.yul\":2320:2352   */\n      slt\n        /* \"#utility.yul\":2317:2319   */\n      iszero\n      tag_119\n      jumpi\n        /* \"#utility.yul\":2355:2434   */\n      tag_120\n      tag_106\n      jump\t// in\n    tag_120:\n        /* \"#utility.yul\":2317:2319   */\n    tag_119:\n        /* \"#utility.yul\":2475:2476   */\n      0x00\n        /* \"#utility.yul\":2500:2553   */\n      tag_121\n        /* \"#utility.yul\":2545:2552   */\n      dup5\n        /* \"#utility.yul\":2536:2542   */\n      dup3\n        /* \"#utility.yul\":2525:2534   */\n      dup6\n        /* \"#utility.yul\":2521:2543   */\n      add\n        /* \"#utility.yul\":2500:2553   */\n      tag_99\n      jump\t// in\n    tag_121:\n        /* \"#utility.yul\":2490:2553   */\n      swap2\n      pop\n        /* \"#utility.yul\":2446:2563   */\n      pop\n        /* \"#utility.yul\":2307:2570   */\n      swap3\n      swap2\n      pop\n      pop\n      jump\t// out\n        /* \"#utility.yul\":2576:2685   */\n    tag_122:\n        /* \"#utility.yul\":2657:2678   */\n      tag_124\n        /* \"#utility.yul\":2672:2677   */\n      dup2\n        /* \"#utility.yul\":2657:2678   */\n      tag_125\n      jump\t// in\n    tag_124:\n        /* \"#utility.yul\":2652:2655   */\n      dup3\n        /* \"#utility.yul\":2645:2679   */\n      mstore\n        /* \"#utility.yul\":2635:2685   */\n      pop\n      pop\n      jump\t// out\n        /* \"#utility.yul\":2691:3055   */\n    tag_126:\n        /* \"#utility.yul\":2779:2782   */\n      0x00\n        /* \"#utility.yul\":2807:2846   */\n      tag_128\n        /* \"#utility.yul\":2840:2845   */\n      dup3\n        /* \"#utility.yul\":2807:2846   */\n      tag_129\n      jump\t// in\n    tag_128:\n        /* \"#utility.yul\":2862:2933   */\n      tag_130\n        /* \"#utility.yul\":2926:2932   */\n      dup2\n        /* \"#utility.yul\":2921:2924   */\n      dup6\n        /* \"#utility.yul\":2862:2933   */\n      tag_131\n      jump\t// in\n    tag_130:\n        /* \"#utility.yul\":2855:2933   */\n      swap4\n      pop\n        /* \"#utility.yul\":2942:2994   */\n      tag_132\n        /* \"#utility.yul\":2987:2993   */\n      dup2\n        /* \"#utility.yul\":2982:2985   */\n      dup6\n        /* \"#utility.yul\":2975:2979   */\n      0x20\n        /* \"#utility.yul\":2968:2973   */\n      dup7\n        /* \"#utility.yul\":2964:2980   */\n      add\n        /* \"#utility.yul\":2942:2994   */\n      tag_133\n      jump\t// in\n    tag_132:\n        /* \"#utility.yul\":3019:3048   */\n      tag_134\n        /* \"#utility.yul\":3041:3047   */\n      dup2\n        /* \"#utility.yul\":3019:3048   */\n      tag_135\n      jump\t// in\n    tag_134:\n        /* \"#utility.yul\":3014:3017   */\n      dup5\n        /* \"#utility.yul\":3010:3049   */\n      add\n        /* \"#utility.yul\":3003:3049   */\n      swap2\n      pop\n        /* \"#utility.yul\":2783:3055   */\n      pop\n      swap3\n      swap2\n      pop\n      pop\n      jump\t// out\n        /* \"#utility.yul\":3061:3427   */\n    tag_136:\n        /* \"#utility.yul\":3203:3206   */\n      0x00\n        /* \"#utility.yul\":3224:3291   */\n      tag_138\n        /* \"#utility.yul\":3288:3290   */\n      0x19\n        /* \"#utility.yul\":3283:3286   */\n      dup4\n        /* \"#utility.yul\":3224:3291   */\n      tag_131\n      jump\t// in\n    tag_138:\n        /* \"#utility.yul\":3217:3291   */\n      swap2\n      pop\n        /* \"#utility.yul\":3300:3393   */\n      tag_139\n        /* \"#utility.yul\":3389:3392   */\n      dup3\n        /* \"#utility.yul\":3300:3393   */\n      tag_140\n      jump\t// in\n    tag_139:\n        /* \"#utility.yul\":3418:3420   */\n      0x20\n        /* \"#utility.yul\":3413:3416   */\n      dup3\n        /* \"#utility.yul\":3409:3421   */\n      add\n        /* \"#utility.yul\":3402:3421   */\n      swap1\n      pop\n        /* \"#utility.yul\":3207:3427   */\n      swap2\n      swap1\n      pop\n      jump\t// out\n        /* \"#utility.yul\":3433:3551   */\n    tag_141:\n        /* \"#utility.yul\":3520:3544   */\n      tag_143\n        /* \"#utility.yul\":3538:3543   */\n      dup2\n        /* \"#utility.yul\":3520:3544   */\n      tag_144\n      jump\t// in\n    tag_143:\n        /* \"#utility.yul\":3515:3518   */\n      dup3\n        /* \"#utility.yul\":3508:3545   */\n      mstore\n        /* \"#utility.yul\":3498:3551   */\n      pop\n      pop\n      jump\t// out\n        /* \"#utility.yul\":3557:3976   */\n    tag_60:\n        /* \"#utility.yul\":3723:3727   */\n      0x00\n        /* \"#utility.yul\":3761:3763   */\n      0x20\n        /* \"#utility.yul\":3750:3759   */\n      dup3\n        /* \"#utility.yul\":3746:3764   */\n      add\n        /* \"#utility.yul\":3738:3764   */\n      swap1\n      pop\n        /* \"#utility.yul\":3810:3819   */\n      dup2\n        /* \"#utility.yul\":3804:3808   */\n      dup2\n        /* \"#utility.yul\":3800:3820   */\n      sub\n        /* \"#utility.yul\":3796:3797   */\n      0x00\n        /* \"#utility.yul\":3785:3794   */\n      dup4\n        /* \"#utility.yul\":3781:3798   */\n      add\n        /* \"#utility.yul\":3774:3821   */\n      mstore\n        /* \"#utility.yul\":3838:3969   */\n      tag_146\n        /* \"#utility.yul\":3964:3968   */\n      dup2\n        /* \"#utility.yul\":3838:3969   */\n      tag_136\n      jump\t// in\n    tag_146:\n        /* \"#utility.yul\":3830:3969   */\n      swap1\n      pop\n        /* \"#utility.yul\":3728:3976   */\n      swap2\n      swap1\n      pop\n      jump\t// out\n        /* \"#utility.yul\":3982:5242   */\n    tag_12:\n        /* \"#utility.yul\":4320:4324   */\n      0x00\n        /* \"#utility.yul\":4358:4361   */\n      0x0160\n        /* \"#utility.yul\":4347:4356   */\n      dup3\n        /* \"#utility.yul\":4343:4362   */\n      add\n        /* \"#utility.yul\":4335:4362   */\n      swap1\n      pop\n        /* \"#utility.yul\":4372:4443   */\n      tag_148\n        /* \"#utility.yul\":4440:4441   */\n      0x00\n        /* \"#utility.yul\":4429:4438   */\n      dup4\n        /* \"#utility.yul\":4425:4442   */\n      add\n        /* \"#utility.yul\":4416:4422   */\n      dup15\n        /* \"#utility.yul\":4372:4443   */\n      tag_141\n      jump\t// in\n    tag_148:\n        /* \"#utility.yul\":4453:4519   */\n      tag_149\n        /* \"#utility.yul\":4515:4517   */\n      0x20\n        /* \"#utility.yul\":4504:4513   */\n      dup4\n        /* \"#utility.yul\":4500:4518   */\n      add\n        /* \"#utility.yul\":4491:4497   */\n      dup14\n        /* \"#utility.yul\":4453:4519   */\n      tag_122\n      jump\t// in\n    tag_149:\n        /* \"#utility.yul\":4529:4595   */\n      tag_150\n        /* \"#utility.yul\":4591:4593   */\n      0x40\n        /* \"#utility.yul\":4580:4589   */\n      dup4\n        /* \"#utility.yul\":4576:4594   */\n      add\n        /* \"#utility.yul\":4567:4573   */\n      dup13\n        /* \"#utility.yul\":4529:4595   */\n      tag_122\n      jump\t// in\n    tag_150:\n        /* \"#utility.yul\":4605:4671   */\n      tag_151\n        /* \"#utility.yul\":4667:4669   */\n      0x60\n        /* \"#utility.yul\":4656:4665   */\n      dup4\n        /* \"#utility.yul\":4652:4670   */\n      add\n        /* \"#utility.yul\":4643:4649   */\n      dup12\n        /* \"#utility.yul\":4605:4671   */\n      tag_122\n      jump\t// in\n    tag_151:\n        /* \"#utility.yul\":4681:4748   */\n      tag_152\n        /* \"#utility.yul\":4743:4746   */\n      0x80\n        /* \"#utility.yul\":4732:4741   */\n      dup4\n        /* \"#utility.yul\":4728:4747   */\n      add\n        /* \"#utility.yul\":4719:4725   */\n      dup11\n        /* \"#utility.yul\":4681:4748   */\n      tag_122\n      jump\t// in\n    tag_152:\n        /* \"#utility.yul\":4758:4825   */\n      tag_153\n        /* \"#utility.yul\":4820:4823   */\n      0xa0\n        /* \"#utility.yul\":4809:4818   */\n      dup4\n        /* \"#utility.yul\":4805:4824   */\n      add\n        /* \"#utility.yul\":4796:4802   */\n      dup10\n        /* \"#utility.yul\":4758:4825   */\n      tag_122\n      jump\t// in\n    tag_153:\n        /* \"#utility.yul\":4835:4902   */\n      tag_154\n        /* \"#utility.yul\":4897:4900   */\n      0xc0\n        /* \"#utility.yul\":4886:4895   */\n      dup4\n        /* \"#utility.yul\":4882:4901   */\n      add\n        /* \"#utility.yul\":4873:4879   */\n      dup9\n        /* \"#utility.yul\":4835:4902   */\n      tag_122\n      jump\t// in\n    tag_154:\n        /* \"#utility.yul\":4912:4985   */\n      tag_155\n        /* \"#utility.yul\":4980:4983   */\n      0xe0\n        /* \"#utility.yul\":4969:4978   */\n      dup4\n        /* \"#utility.yul\":4965:4984   */\n      add\n        /* \"#utility.yul\":4956:4962   */\n      dup8\n        /* \"#utility.yul\":4912:4985   */\n      tag_141\n      jump\t// in\n    tag_155:\n        /* \"#utility.yul\":4995:5068   */\n      tag_156\n        /* \"#utility.yul\":5063:5066   */\n      0x0100\n        /* \"#utility.yul\":5052:5061   */\n      dup4\n        /* \"#utility.yul\":5048:5067   */\n      add\n        /* \"#utility.yul\":5039:5045   */\n      dup7\n        /* \"#utility.yul\":4995:5068   */\n      tag_141\n      jump\t// in\n    tag_156:\n        /* \"#utility.yul\":5078:5151   */\n      tag_157\n        /* \"#utility.yul\":5146:5149   */\n      0x0120\n        /* \"#utility.yul\":5135:5144   */\n      dup4\n        /* \"#utility.yul\":5131:5150   */\n      add\n        /* \"#utility.yul\":5122:5128   */\n      dup6\n        /* \"#utility.yul\":5078:5151   */\n      tag_141\n      jump\t// in\n    tag_157:\n        /* \"#utility.yul\":5161:5235   */\n      tag_158\n        /* \"#utility.yul\":5230:5233   */\n      0x0140\n        /* \"#utility.yul\":5219:5228   */\n      dup4\n        /* \"#utility.yul\":5215:5234   */\n      add\n        /* \"#utility.yul\":5205:5212   */\n      dup5\n        /* \"#utility.yul\":5161:5235   */\n      tag_141\n      jump\t// in\n    tag_158:\n        /* \"#utility.yul\":4325:5242   */\n      swap13\n      swap12\n      pop\n      pop\n      pop\n      pop\n      pop\n      pop\n      pop\n      pop\n      pop\n      pop\n      pop\n      pop\n      jump\t// out\n        /* \"#utility.yul\":5248:6407   */\n    tag_21:\n        /* \"#utility.yul\":5569:5573   */\n      0x00\n        /* \"#utility.yul\":5607:5610   */\n      0xe0\n        /* \"#utility.yul\":5596:5605   */\n      dup3\n        /* \"#utility.yul\":5592:5611   */\n      add\n        /* \"#utility.yul\":5584:5611   */\n      swap1\n      pop\n        /* \"#utility.yul\":5621:5692   */\n      tag_160\n        /* \"#utility.yul\":5689:5690   */\n      0x00\n        /* \"#utility.yul\":5678:5687   */\n      dup4\n        /* \"#utility.yul\":5674:5691   */\n      add\n        /* \"#utility.yul\":5665:5671   */\n      dup11\n        /* \"#utility.yul\":5621:5692   */\n      tag_141\n      jump\t// in\n    tag_160:\n        /* \"#utility.yul\":5702:5774   */\n      tag_161\n        /* \"#utility.yul\":5770:5772   */\n      0x20\n        /* \"#utility.yul\":5759:5768   */\n      dup4\n        /* \"#utility.yul\":5755:5773   */\n      add\n        /* \"#utility.yul\":5746:5752   */\n      dup10\n        /* \"#utility.yul\":5702:5774   */\n      tag_141\n      jump\t// in\n    tag_161:\n        /* \"#utility.yul\":5821:5830   */\n      dup2\n        /* \"#utility.yul\":5815:5819   */\n      dup2\n        /* \"#utility.yul\":5811:5831   */\n      sub\n        /* \"#utility.yul\":5806:5808   */\n      0x40\n        /* \"#utility.yul\":5795:5804   */\n      dup4\n        /* \"#utility.yul\":5791:5809   */\n      add\n        /* \"#utility.yul\":5784:5832   */\n      mstore\n        /* \"#utility.yul\":5849:5927   */\n      tag_162\n        /* \"#utility.yul\":5922:5926   */\n      dup2\n        /* \"#utility.yul\":5913:5919   */\n      dup9\n        /* \"#utility.yul\":5849:5927   */\n      tag_126\n      jump\t// in\n    tag_162:\n        /* \"#utility.yul\":5841:5927   */\n      swap1\n      pop\n        /* \"#utility.yul\":5974:5983   */\n      dup2\n        /* \"#utility.yul\":5968:5972   */\n      dup2\n        /* \"#utility.yul\":5964:5984   */\n      sub\n        /* \"#utility.yul\":5959:5961   */\n      0x60\n        /* \"#utility.yul\":5948:5957   */\n      dup4\n        /* \"#utility.yul\":5944:5962   */\n      add\n        /* \"#utility.yul\":5937:5985   */\n      mstore\n        /* \"#utility.yul\":6002:6080   */\n      tag_163\n        /* \"#utility.yul\":6075:6079   */\n      dup2\n        /* \"#utility.yul\":6066:6072   */\n      dup8\n        /* \"#utility.yul\":6002:6080   */\n      tag_126\n      jump\t// in\n    tag_163:\n        /* \"#utility.yul\":5994:6080   */\n      swap1\n      pop\n        /* \"#utility.yul\":6128:6137   */\n      dup2\n        /* \"#utility.yul\":6122:6126   */\n      dup2\n        /* \"#utility.yul\":6118:6138   */\n      sub\n        /* \"#utility.yul\":6112:6115   */\n      0x80\n        /* \"#utility.yul\":6101:6110   */\n      dup4\n        /* \"#utility.yul\":6097:6116   */\n      add\n        /* \"#utility.yul\":6090:6139   */\n      mstore\n        /* \"#utility.yul\":6156:6234   */\n      tag_164\n        /* \"#utility.yul\":6229:6233   */\n      dup2\n        /* \"#utility.yul\":6220:6226   */\n      dup7\n        /* \"#utility.yul\":6156:6234   */\n      tag_126\n      jump\t// in\n    tag_164:\n        /* \"#utility.yul\":6148:6234   */\n      swap1\n      pop\n        /* \"#utility.yul\":6244:6317   */\n      tag_165\n        /* \"#utility.yul\":6312:6315   */\n      0xa0\n        /* \"#utility.yul\":6301:6310   */\n      dup4\n        /* \"#utility.yul\":6297:6316   */\n      add\n        /* \"#utility.yul\":6288:6294   */\n      dup6\n        /* \"#utility.yul\":6244:6317   */\n      tag_141\n      jump\t// in\n    tag_165:\n        /* \"#utility.yul\":6327:6400   */\n      tag_166\n        /* \"#utility.yul\":6395:6398   */\n      0xc0\n        /* \"#utility.yul\":6384:6393   */\n      dup4\n        /* \"#utility.yul\":6380:6399   */\n      add\n        /* \"#utility.yul\":6371:6377   */\n      dup5\n        /* \"#utility.yul\":6327:6400   */\n      tag_141\n      jump\t// in\n    tag_166:\n        /* \"#utility.yul\":5574:6407   */\n      swap9\n      swap8\n      pop\n      pop\n      pop\n      pop\n      pop\n      pop\n      pop\n      pop\n      jump\t// out\n        /* \"#utility.yul\":6413:6542   */\n    tag_87:\n        /* \"#utility.yul\":6447:6453   */\n      0x00\n        /* \"#utility.yul\":6474:6494   */\n      tag_168\n      tag_169\n      jump\t// in\n    tag_168:\n        /* \"#utility.yul\":6464:6494   */\n      swap1\n      pop\n        /* \"#utility.yul\":6503:6536   */\n      tag_170\n        /* \"#utility.yul\":6531:6535   */\n      dup3\n        /* \"#utility.yul\":6523:6529   */\n      dup3\n        /* \"#utility.yul\":6503:6536   */\n      tag_171\n      jump\t// in\n    tag_170:\n        /* \"#utility.yul\":6454:6542   */\n      swap2\n      swap1\n      pop\n      jump\t// out\n        /* \"#utility.yul\":6548:6623   */\n    tag_169:\n        /* \"#utility.yul\":6581:6587   */\n      0x00\n        /* \"#utility.yul\":6614:6616   */\n      0x40\n        /* \"#utility.yul\":6608:6617   */\n      mload\n        /* \"#utility.yul\":6598:6617   */\n      swap1\n      pop\n        /* \"#utility.yul\":6588:6623   */\n      swap1\n      jump\t// out\n        /* \"#utility.yul\":6629:6937   */\n    tag_86:\n        /* \"#utility.yul\":6691:6695   */\n      0x00\n        /* \"#utility.yul\":6781:6799   */\n      0xffffffffffffffff\n        /* \"#utility.yul\":6773:6779   */\n      dup3\n        /* \"#utility.yul\":6770:6800   */\n      gt\n        /* \"#utility.yul\":6767:6769   */\n      iszero\n      tag_174\n      jumpi\n        /* \"#utility.yul\":6803:6821   */\n      tag_175\n      tag_176\n      jump\t// in\n    tag_175:\n        /* \"#utility.yul\":6767:6769   */\n    tag_174:\n        /* \"#utility.yul\":6841:6870   */\n      tag_177\n        /* \"#utility.yul\":6863:6869   */\n      dup3\n        /* \"#utility.yul\":6841:6870   */\n      tag_135\n      jump\t// in\n    tag_177:\n        /* \"#utility.yul\":6833:6870   */\n      swap1\n      pop\n        /* \"#utility.yul\":6925:6929   */\n      0x20\n        /* \"#utility.yul\":6919:6923   */\n      dup2\n        /* \"#utility.yul\":6915:6930   */\n      add\n        /* \"#utility.yul\":6907:6930   */\n      swap1\n      pop\n        /* \"#utility.yul\":6696:6937   */\n      swap2\n      swap1\n      pop\n      jump\t// out\n        /* \"#utility.yul\":6943:7042   */\n    tag_129:\n        /* \"#utility.yul\":6995:7001   */\n      0x00\n        /* \"#utility.yul\":7029:7034   */\n      dup2\n        /* \"#utility.yul\":7023:7035   */\n      mload\n        /* \"#utility.yul\":7013:7035   */\n      swap1\n      pop\n        /* \"#utility.yul\":7002:7042   */\n      swap2\n      swap1\n      pop\n      jump\t// out\n        /* \"#utility.yul\":7048:7217   */\n    tag_131:\n        /* \"#utility.yul\":7132:7143   */\n      0x00\n        /* \"#utility.yul\":7166:7172   */\n      dup3\n        /* \"#utility.yul\":7161:7164   */\n      dup3\n        /* \"#utility.yul\":7154:7173   */\n      mstore\n        /* \"#utility.yul\":7206:7210   */\n      0x20\n        /* \"#utility.yul\":7201:7204   */\n      dup3\n        /* \"#utility.yul\":7197:7211   */\n      add\n        /* \"#utility.yul\":7182:7211   */\n      swap1\n      pop\n        /* \"#utility.yul\":7144:7217   */\n      swap3\n      swap2\n      pop\n      pop\n      jump\t// out\n        /* \"#utility.yul\":7223:7528   */\n    tag_70:\n        /* \"#utility.yul\":7263:7266   */\n      0x00\n        /* \"#utility.yul\":7282:7302   */\n      tag_181\n        /* \"#utility.yul\":7300:7301   */\n      dup3\n        /* \"#utility.yul\":7282:7302   */\n      tag_144\n      jump\t// in\n    tag_181:\n        /* \"#utility.yul\":7277:7302   */\n      swap2\n      pop\n        /* \"#utility.yul\":7316:7336   */\n      tag_182\n        /* \"#utility.yul\":7334:7335   */\n      dup4\n        /* \"#utility.yul\":7316:7336   */\n      tag_144\n      jump\t// in\n    tag_182:\n        /* \"#utility.yul\":7311:7336   */\n      swap3\n      pop\n        /* \"#utility.yul\":7470:7471   */\n      dup3\n        /* \"#utility.yul\":7402:7468   */\n      0xffffffffffffffffffffffffffffffffffffffffffffffffffffffffffffffff\n        /* \"#utility.yul\":7398:7472   */\n      sub\n        /* \"#utility.yul\":7395:7396   */\n      dup3\n        /* \"#utility.yul\":7392:7473   */\n      gt\n        /* \"#utility.yul\":7389:7391   */\n      iszero\n      tag_183\n      jumpi\n        /* \"#utility.yul\":7476:7494   */\n      tag_184\n      tag_185\n      jump\t// in\n    tag_184:\n        /* \"#utility.yul\":7389:7391   */\n    tag_183:\n        /* \"#utility.yul\":7520:7521   */\n      dup3\n        /* \"#utility.yul\":7517:7518   */\n      dup3\n        /* \"#utility.yul\":7513:7522   */\n      add\n        /* \"#utility.yul\":7506:7522   */\n      swap1\n      pop\n        /* \"#utility.yul\":7267:7528   */\n      swap3\n      swap2\n      pop\n      pop\n      jump\t// out\n        /* \"#utility.yul\":7534:7624   */\n    tag_125:\n        /* \"#utility.yul\":7568:7575   */\n      0x00\n        /* \"#utility.yul\":7611:7616   */\n      dup2\n        /* \"#utility.yul\":7604:7617   */\n      iszero\n        /* \"#utility.yul\":7597:7618   */\n      iszero\n        /* \"#utility.yul\":7586:7618   */\n      swap1\n      pop\n        /* \"#utility.yul\":7576:7624   */\n      swap2\n      swap1\n      pop\n      jump\t// out\n        /* \"#utility.yul\":7630:7707   */\n    tag_144:\n        /* \"#utility.yul\":7667:7674   */\n      0x00\n        /* \"#utility.yul\":7696:7701   */\n      dup2\n        /* \"#utility.yul\":7685:7701   */\n      swap1\n      pop\n        /* \"#utility.yul\":7675:7707   */\n      swap2\n      swap1\n      pop\n      jump\t// out\n        /* \"#utility.yul\":7713:7867   */\n    tag_92:\n        /* \"#utility.yul\":7797:7803   */\n      dup3\n        /* \"#utility.yul\":7792:7795   */\n      dup2\n        /* \"#utility.yul\":7787:7790   */\n      dup4\n        /* \"#utility.yul\":7774:7804   */\n      calldatacopy\n        /* \"#utility.yul\":7859:7860   */\n      0x00\n        /* \"#utility.yul\":7850:7856   */\n      dup4\n        /* \"#utility.yul\":7845:7848   */\n      dup4\n        /* \"#utility.yul\":7841:7857   */\n      add\n        /* \"#utility.yul\":7834:7861   */\n      mstore\n        /* \"#utility.yul\":7764:7867   */\n      pop\n      pop\n      pop\n      jump\t// out\n        /* \"#utility.yul\":7873:8180   */\n    tag_133:\n        /* \"#utility.yul\":7941:7942   */\n      0x00\n        /* \"#utility.yul\":7951:8064   */\n    tag_190:\n        /* \"#utility.yul\":7965:7971   */\n      dup4\n        /* \"#utility.yul\":7962:7963   */\n      dup2\n        /* \"#utility.yul\":7959:7972   */\n      lt\n        /* \"#utility.yul\":7951:8064   */\n      iszero\n      tag_192\n      jumpi\n        /* \"#utility.yul\":8050:8051   */\n      dup1\n        /* \"#utility.yul\":8045:8048   */\n      dup3\n        /* \"#utility.yul\":8041:8052   */\n      add\n        /* \"#utility.yul\":8035:8053   */\n      mload\n        /* \"#utility.yul\":8031:8032   */\n      dup2\n        /* \"#utility.yul\":8026:8029   */\n      dup5\n        /* \"#utility.yul\":8022:8033   */\n      add\n        /* \"#utility.yul\":8015:8054   */\n      mstore\n        /* \"#utility.yul\":7987:7989   */\n      0x20\n        /* \"#utility.yul\":7984:7985   */\n      dup2\n        /* \"#utility.yul\":7980:7990   */\n      add\n        /* \"#utility.yul\":7975:7990   */\n      swap1\n      pop\n        /* \"#utility.yul\":7951:8064   */\n      jump(tag_190)\n    tag_192:\n        /* \"#utility.yul\":8082:8088   */\n      dup4\n        /* \"#utility.yul\":8079:8080   */\n      dup2\n        /* \"#utility.yul\":8076:8089   */\n      gt\n        /* \"#utility.yul\":8073:8075   */\n      iszero\n      tag_193\n      jumpi\n        /* \"#utility.yul\":8162:8163   */\n      0x00\n        /* \"#utility.yul\":8153:8159   */\n      dup5\n        /* \"#utility.yul\":8148:8151   */\n      dup5\n        /* \"#utility.yul\":8144:8160   */\n      add\n        /* \"#utility.yul\":8137:8164   */\n      mstore\n        /* \"#utility.yul\":8073:8075   */\n    tag_193:\n        /* \"#utility.yul\":7922:8180   */\n      pop\n      pop\n      pop\n      pop\n      jump\t// out\n        /* \"#utility.yul\":8186:8506   */\n    tag_40:\n        /* \"#utility.yul\":8230:8236   */\n      0x00\n        /* \"#utility.yul\":8267:8268   */\n      0x02\n        /* \"#utility.yul\":8261:8265   */\n      dup3\n        /* \"#utility.yul\":8257:8269   */\n      div\n        /* \"#utility.yul\":8247:8269   */\n      swap1\n      pop\n        /* \"#utility.yul\":8314:8315   */\n      0x01\n        /* \"#utility.yul\":8308:8312   */\n      dup3\n        /* \"#utility.yul\":8304:8316   */\n      and\n        /* \"#utility.yul\":8335:8353   */\n      dup1\n        /* \"#utility.yul\":8325:8327   */\n      tag_195\n      jumpi\n        /* \"#utility.yul\":8391:8395   */\n      0x7f\n        /* \"#utility.yul\":8383:8389   */\n      dup3\n        /* \"#utility.yul\":8379:8396   */\n      and\n        /* \"#utility.yul\":8369:8396   */\n      swap2\n      pop\n        /* \"#utility.yul\":8325:8327   */\n    tag_195:\n        /* \"#utility.yul\":8453:8455   */\n      0x20\n        /* \"#utility.yul\":8445:8451   */\n      dup3\n        /* \"#utility.yul\":8442:8456   */\n      lt\n        /* \"#utility.yul\":8422:8440   */\n      dup2\n        /* \"#utility.yul\":8419:8457   */\n      eq\n        /* \"#utility.yul\":8416:8418   */\n      iszero\n      tag_196\n      jumpi\n        /* \"#utility.yul\":8472:8490   */\n      tag_197\n      tag_198\n      jump\t// in\n    tag_197:\n        /* \"#utility.yul\":8416:8418   */\n    tag_196:\n        /* \"#utility.yul\":8237:8506   */\n      pop\n      swap2\n      swap1\n      pop\n      jump\t// out\n        /* \"#utility.yul\":8512:8793   */\n    tag_171:\n        /* \"#utility.yul\":8595:8622   */\n      tag_200\n        /* \"#utility.yul\":8617:8621   */\n      dup3\n        /* \"#utility.yul\":8595:8622   */\n      tag_135\n      jump\t// in\n    tag_200:\n        /* \"#utility.yul\":8587:8593   */\n      dup2\n        /* \"#utility.yul\":8583:8623   */\n      add\n        /* \"#utility.yul\":8725:8731   */\n      dup2\n        /* \"#utility.yul\":8713:8723   */\n      dup2\n        /* \"#utility.yul\":8710:8732   */\n      lt\n        /* \"#utility.yul\":8689:8707   */\n      0xffffffffffffffff\n        /* \"#utility.yul\":8677:8687   */\n      dup3\n        /* \"#utility.yul\":8674:8708   */\n      gt\n        /* \"#utility.yul\":8671:8733   */\n      or\n        /* \"#utility.yul\":8668:8670   */\n      iszero\n      tag_201\n      jumpi\n        /* \"#utility.yul\":8736:8754   */\n      tag_202\n      tag_176\n      jump\t// in\n    tag_202:\n        /* \"#utility.yul\":8668:8670   */\n    tag_201:\n        /* \"#utility.yul\":8776:8786   */\n      dup1\n        /* \"#utility.yul\":8772:8774   */\n      0x40\n        /* \"#utility.yul\":8765:8787   */\n      mstore\n        /* \"#utility.yul\":8555:8793   */\n      pop\n      pop\n      pop\n      jump\t// out\n        /* \"#utility.yul\":8799:8979   */\n    tag_185:\n        /* \"#utility.yul\":8847:8924   */\n      0x4e487b7100000000000000000000000000000000000000000000000000000000\n        /* \"#utility.yul\":8844:8845   */\n      0x00\n        /* \"#utility.yul\":8837:8925   */\n      mstore\n        /* \"#utility.yul\":8944:8948   */\n      0x11\n        /* \"#utility.yul\":8941:8942   */\n      0x04\n        /* \"#utility.yul\":8934:8949   */\n      mstore\n        /* \"#utility.yul\":8968:8972   */\n      0x24\n        /* \"#utility.yul\":8965:8966   */\n      0x00\n        /* \"#utility.yul\":8958:8973   */\n      revert\n        /* \"#utility.yul\":8985:9165   */\n    tag_198:\n        /* \"#utility.yul\":9033:9110   */\n      0x4e487b7100000000000000000000000000000000000000000000000000000000\n        /* \"#utility.yul\":9030:9031   */\n      0x00\n        /* \"#utility.yul\":9023:9111   */\n      mstore\n        /* \"#utility.yul\":9130:9134   */\n      0x22\n        /* \"#utility.yul\":9127:9128   */\n      0x04\n        /* \"#utility.yul\":9120:9135   */\n      mstore\n        /* \"#utility.yul\":9154:9158   */\n      0x24\n        /* \"#utility.yul\":9151:9152   */\n      0x00\n        /* \"#utility.yul\":9144:9159   */\n      revert\n        /* \"#utility.yul\":9171:9351   */\n    tag_176:\n        /* \"#utility.yul\":9219:9296   */\n      0x4e487b7100000000000000000000000000000000000000000000000000000000\n        /* \"#utility.yul\":9216:9217   */\n      0x00\n        /* \"#utility.yul\":9209:9297   */\n      mstore\n        /* \"#utility.yul\":9316:9320   */\n      0x41\n        /* \"#utility.yul\":9313:9314   */\n      0x04\n        /* \"#utility.yul\":9306:9321   */\n      mstore\n        /* \"#utility.yul\":9340:9344   */\n      0x24\n        /* \"#utility.yul\":9337:9338   */\n      0x00\n        /* \"#utility.yul\":9330:9345   */\n      revert\n        /* \"#utility.yul\":9357:9474   */\n    tag_97:\n        /* \"#utility.yul\":9466:9467   */\n      0x00\n        /* \"#utility.yul\":9463:9464   */\n      dup1\n        /* \"#utility.yul\":9456:9468   */\n      revert\n        /* \"#utility.yul\":9480:9597   */\n    tag_90:\n        /* \"#utility.yul\":9589:9590   */\n      0x00\n        /* \"#utility.yul\":9586:9587   */\n      dup1\n        /* \"#utility.yul\":9579:9591   */\n      revert\n        /* \"#utility.yul\":9603:9720   */\n    tag_109:\n        /* \"#utility.yul\":9712:9713   */\n      0x00\n        /* \"#utility.yul\":9709:9710   */\n      dup1\n        /* \"#utility.yul\":9702:9714   */\n      revert\n        /* \"#utility.yul\":9726:9843   */\n    tag_106:\n        /* \"#utility.yul\":9835:9836   */\n      0x00\n        /* \"#utility.yul\":9832:9833   */\n      dup1\n        /* \"#utility.yul\":9825:9837   */\n      revert\n        /* \"#utility.yul\":9849:9951   */\n    tag_135:\n        /* \"#utility.yul\":9890:9896   */\n      0x00\n        /* \"#utility.yul\":9941:9943   */\n      0x1f\n        /* \"#utility.yul\":9937:9944   */\n      not\n        /* \"#utility.yul\":9932:9934   */\n      0x1f\n        /* \"#utility.yul\":9925:9930   */\n      dup4\n        /* \"#utility.yul\":9921:9935   */\n      add\n        /* \"#utility.yul\":9917:9945   */\n      and\n        /* \"#utility.yul\":9907:9945   */\n      swap1\n      pop\n        /* \"#utility.yul\":9897:9951   */\n      swap2\n      swap1\n      pop\n      jump\t// out\n        /* \"#utility.yul\":9957:10132   */\n    tag_140:\n        /* \"#utility.yul\":10097:10124   */\n      0x42656e65666163746f7220446f6573204e6f7420457869737400000000000000\n        /* \"#utility.yul\":10093:10094   */\n      0x00\n        /* \"#utility.yul\":10085:10091   */\n      dup3\n        /* \"#utility.yul\":10081:10095   */\n      add\n        /* \"#utility.yul\":10074:10125   */\n      mstore\n        /* \"#utility.yul\":10063:10132   */\n      pop\n      jump\t// out\n        /* \"#utility.yul\":10138:10260   */\n    tag_102:\n        /* \"#utility.yul\":10211:10235   */\n      tag_213\n        /* \"#utility.yul\":10229:10234   */\n      dup2\n        /* \"#utility.yul\":10211:10235   */\n      tag_144\n      jump\t// in\n    tag_213:\n        /* \"#utility.yul\":10204:10209   */\n      dup2\n        /* \"#utility.yul\":10201:10236   */\n      eq\n        /* \"#utility.yul\":10191:10193   */\n      tag_214\n      jumpi\n        /* \"#utility.yul\":10250:10251   */\n      0x00\n        /* \"#utility.yul\":10247:10248   */\n      dup1\n        /* \"#utility.yul\":10240:10252   */\n      revert\n        /* \"#utility.yul\":10191:10193   */\n    tag_214:\n        /* \"#utility.yul\":10181:10260   */\n      pop\n      jump\t// out\n\n    auxdata: 0xa26469706673582212204f082a17bf6f6756758d03f71f5c35bc2e202a2affa595ae994c54e7333b009e64736f6c63430008060033\n}\n",
				"bytecode": {
					"linkReferences": {},
					"object": "60806040526000805534801561001457600080fd5b50611313806100246000396000f3fe608060405234801561001057600080fd5b506004361061004c5760003560e01c80633557ca3f1461005157806357a6c2791461008b578063abf57908146100a7578063df432393146100dd575b600080fd5b61006b60048036038101906100669190610e72565b6100f9565b6040516100829b9a99989796959493929190610f39565b60405180910390f35b6100a560048036038101906100a09190610db7565b6101a1565b005b6100c160048036038101906100bc9190610e72565b61046b565b6040516100d49796959493929190610fe4565b60405180910390f35b6100f760048036038101906100f29190610e72565b610645565b005b60026020528060005260406000206000915090508060000154908060010160009054906101000a900460ff16908060010160019054906101000a900460ff16908060010160029054906101000a900460ff16908060010160039054906101000a900460ff16908060010160049054906101000a900460ff16908060010160059054906101000a900460ff1690806002015490806003015490806004015490806005015490508b565b600360009054906101000a900473ffffffffffffffffffffffffffffffffffffffff1673ffffffffffffffffffffffffffffffffffffffff163373ffffffffffffffffffffffffffffffffffffffff16146101fb57600080fd5b6000805414156102165761020d6106bc565b610215610c74565b5b61021f81610645565b610227610c74565b6040518060e001604052806000548152602001600454815260200185815260200184815260200183815260200160008152602001828152506001600080548152602001908152602001600020600082015181600001556020820151816001015560408201518160020190805190602001906102a3929190610c8f565b5060608201518160030190805190602001906102c0929190610c8f565b5060808201518160040190805190602001906102dd929190610c8f565b5060a0820151816005015560c082015181600601559050506040518061016001604052806000548152602001600015158152602001600015158152602001600015158152602001600015158152602001600015158152602001600015158152602001600081526020016000815260200160008152602001600081525060026000805481526020019081526020016000206000820151816000015560208201518160010160006101000a81548160ff02191690831515021790555060408201518160010160016101000a81548160ff02191690831515021790555060608201518160010160026101000a81548160ff02191690831515021790555060808201518160010160036101000a81548160ff02191690831515021790555060a08201518160010160046101000a81548160ff02191690831515021790555060c08201518160010160056101000a81548160ff02191690831515021790555060e0820151816002015561010082015181600301556101208201518160040155610140820151816005015590505050505050565b600160205280600052604060002060009150905080600001549080600101549080600201805461049a90611188565b80601f01602080910402602001604051908101604052809291908181526020018280546104c690611188565b80156105135780601f106104e857610100808354040283529160200191610513565b820191906000526020600020905b8154815290600101906020018083116104f657829003601f168201915b50505050509080600301805461052890611188565b80601f016020809104026020016040519081016040528092919081815260200182805461055490611188565b80156105a15780601f10610576576101008083540402835291602001916105a1565b820191906000526020600020905b81548152906001019060200180831161058457829003601f168201915b5050505050908060040180546105b690611188565b80601f01602080910402602001604051908101604052809291908181526020018280546105e290611188565b801561062f5780601f106106045761010080835404028352916020019161062f565b820191906000526020600020905b81548152906001019060200180831161061257829003601f168201915b5050505050908060050154908060060154905087565b6000600160008381526020019081526020016000206000015490506000811015801561067357506000548111155b1561067d576106b8565b6040517f08c379a00000000000000000000000000000000000000000000000000000000081526004016106af90610f19565b60405180910390fd5b5050565b6040518060e001604052806000815260200160045481526020016040518060400160405280600581526020017f446172746800000000000000000000000000000000000000000000000000000081525081526020016040518060400160405280600b81526020017f44656174684465616c657200000000000000000000000000000000000000000081525081526020016040518060400160405280600e81526020017f64656174686465616c6572303037000000000000000000000000000000000000815250815260200160ef8152602001600181525060016000808152602001908152602001600020600082015181600001556020820151816001015560408201518160020190805190602001906107d6929190610c8f565b5060608201518160030190805190602001906107f3929190610c8f565b506080820151816004019080519060200190610810929190610c8f565b5060a0820151816005015560c082015181600601559050506040518060e001604052806001815260200160045481526020016040518060400160405280600381526020017f5a756c000000000000000000000000000000000000000000000000000000000081525081526020016040518060400160405280600381526020017f5a6564000000000000000000000000000000000000000000000000000000000081525081526020016040518060400160405280600e81526020017f666972737477697a617264303037000000000000000000000000000000000000815250815260200160ef81526020016001815250600160006001815260200190815260200160002060008201518160000155602082015181600101556040820151816002019080519060200190610943929190610c8f565b506060820151816003019080519060200190610960929190610c8f565b50608082015181600401908051906020019061097d929190610c8f565b5060a0820151816005015560c08201518160060155905050604051806101600160405280600081526020016001151581526020016001151581526020016001151581526020016001151581526020016001151581526020016001151581526020016000815260200160008152602001600081526020016000815250600260008081526020019081526020016000206000820151816000015560208201518160010160006101000a81548160ff02191690831515021790555060408201518160010160016101000a81548160ff02191690831515021790555060608201518160010160026101000a81548160ff02191690831515021790555060808201518160010160036101000a81548160ff02191690831515021790555060a08201518160010160046101000a81548160ff02191690831515021790555060c08201518160010160056101000a81548160ff02191690831515021790555060e0820151816002015561010082015181600301556101208201518160040155610140820151816005015590505060405180610160016040528060018152602001600115158152602001600115158152602001600115158152602001600115158152602001600115158152602001600115158152602001600081526020016000815260200160008152602001600081525060026000600181526020019081526020016000206000820151816000015560208201518160010160006101000a81548160ff02191690831515021790555060408201518160010160016101000a81548160ff02191690831515021790555060608201518160010160026101000a81548160ff02191690831515021790555060808201518160010160036101000a81548160ff02191690831515021790555060a08201518160010160046101000a81548160ff02191690831515021790555060c08201518160010160056101000a81548160ff02191690831515021790555060e08201518160020155610100820151816003015561012082015181600401556101408201518160050155905050565b6001600080828254610c8691906110da565b92505081905550565b828054610c9b90611188565b90600052602060002090601f016020900481019282610cbd5760008555610d04565b82601f10610cd657805160ff1916838001178555610d04565b82800160010185558215610d04579182015b82811115610d03578251825591602001919060010190610ce8565b5b509050610d119190610d15565b5090565b5b80821115610d2e576000816000905550600101610d16565b5090565b6000610d45610d408461108d565b611068565b905082815260208101848484011115610d6157610d6061127d565b5b610d6c848285611146565b509392505050565b600082601f830112610d8957610d88611278565b5b8135610d99848260208601610d32565b91505092915050565b600081359050610db1816112c6565b92915050565b60008060008060808587031215610dd157610dd0611287565b5b600085013567ffffffffffffffff811115610def57610dee611282565b5b610dfb87828801610d74565b945050602085013567ffffffffffffffff811115610e1c57610e1b611282565b5b610e2887828801610d74565b935050604085013567ffffffffffffffff811115610e4957610e48611282565b5b610e5587828801610d74565b9250506060610e6687828801610da2565b91505092959194509250565b600060208284031215610e8857610e87611287565b5b6000610e9684828501610da2565b91505092915050565b610ea881611130565b82525050565b6000610eb9826110be565b610ec381856110c9565b9350610ed3818560208601611155565b610edc8161128c565b840191505092915050565b6000610ef46019836110c9565b9150610eff8261129d565b602082019050919050565b610f138161113c565b82525050565b60006020820190508181036000830152610f3281610ee7565b9050919050565b600061016082019050610f4f600083018e610f0a565b610f5c602083018d610e9f565b610f69604083018c610e9f565b610f76606083018b610e9f565b610f83608083018a610e9f565b610f9060a0830189610e9f565b610f9d60c0830188610e9f565b610faa60e0830187610f0a565b610fb8610100830186610f0a565b610fc6610120830185610f0a565b610fd4610140830184610f0a565b9c9b505050505050505050505050565b600060e082019050610ff9600083018a610f0a565b6110066020830189610f0a565b81810360408301526110188188610eae565b9050818103606083015261102c8187610eae565b905081810360808301526110408186610eae565b905061104f60a0830185610f0a565b61105c60c0830184610f0a565b98975050505050505050565b6000611072611083565b905061107e82826111ba565b919050565b6000604051905090565b600067ffffffffffffffff8211156110a8576110a7611249565b5b6110b18261128c565b9050602081019050919050565b600081519050919050565b600082825260208201905092915050565b60006110e58261113c565b91506110f08361113c565b9250827fffffffffffffffffffffffffffffffffffffffffffffffffffffffffffffffff03821115611125576111246111eb565b5b828201905092915050565b60008115159050919050565b6000819050919050565b82818337600083830152505050565b60005b83811015611173578082015181840152602081019050611158565b83811115611182576000848401525b50505050565b600060028204905060018216806111a057607f821691505b602082108114156111b4576111b361121a565b5b50919050565b6111c38261128c565b810181811067ffffffffffffffff821117156111e2576111e1611249565b5b80604052505050565b7f4e487b7100000000000000000000000000000000000000000000000000000000600052601160045260246000fd5b7f4e487b7100000000000000000000000000000000000000000000000000000000600052602260045260246000fd5b7f4e487b7100000000000000000000000000000000000000000000000000000000600052604160045260246000fd5b600080fd5b600080fd5b600080fd5b600080fd5b6000601f19601f8301169050919050565b7f42656e65666163746f7220446f6573204e6f7420457869737400000000000000600082015250565b6112cf8161113c565b81146112da57600080fd5b5056fea26469706673582212204f082a17bf6f6756758d03f71f5c35bc2e202a2affa595ae994c54e7333b009e64736f6c63430008060033",
					"opcodes": "PUSH1 0x80 PUSH1 0x40 MSTORE PUSH1 0x0 DUP1 SSTORE CALLVALUE DUP1 ISZERO PUSH2 0x14 JUMPI PUSH1 0x0 DUP1 REVERT JUMPDEST POP PUSH2 0x1313 DUP1 PUSH2 0x24 PUSH1 0x0 CODECOPY PUSH1 0x0 RETURN INVALID PUSH1 0x80 PUSH1 0x40 MSTORE CALLVALUE DUP1 ISZERO PUSH2 0x10 JUMPI PUSH1 0x0 DUP1 REVERT JUMPDEST POP PUSH1 0x4 CALLDATASIZE LT PUSH2 0x4C JUMPI PUSH1 0x0 CALLDATALOAD PUSH1 0xE0 SHR DUP1 PUSH4 0x3557CA3F EQ PUSH2 0x51 JUMPI DUP1 PUSH4 0x57A6C279 EQ PUSH2 0x8B JUMPI DUP1 PUSH4 0xABF57908 EQ PUSH2 0xA7 JUMPI DUP1 PUSH4 0xDF432393 EQ PUSH2 0xDD JUMPI JUMPDEST PUSH1 0x0 DUP1 REVERT JUMPDEST PUSH2 0x6B PUSH1 0x4 DUP1 CALLDATASIZE SUB DUP2 ADD SWAP1 PUSH2 0x66 SWAP2 SWAP1 PUSH2 0xE72 JUMP JUMPDEST PUSH2 0xF9 JUMP JUMPDEST PUSH1 0x40 MLOAD PUSH2 0x82 SWAP12 SWAP11 SWAP10 SWAP9 SWAP8 SWAP7 SWAP6 SWAP5 SWAP4 SWAP3 SWAP2 SWAP1 PUSH2 0xF39 JUMP JUMPDEST PUSH1 0x40 MLOAD DUP1 SWAP2 SUB SWAP1 RETURN JUMPDEST PUSH2 0xA5 PUSH1 0x4 DUP1 CALLDATASIZE SUB DUP2 ADD SWAP1 PUSH2 0xA0 SWAP2 SWAP1 PUSH2 0xDB7 JUMP JUMPDEST PUSH2 0x1A1 JUMP JUMPDEST STOP JUMPDEST PUSH2 0xC1 PUSH1 0x4 DUP1 CALLDATASIZE SUB DUP2 ADD SWAP1 PUSH2 0xBC SWAP2 SWAP1 PUSH2 0xE72 JUMP JUMPDEST PUSH2 0x46B JUMP JUMPDEST PUSH1 0x40 MLOAD PUSH2 0xD4 SWAP8 SWAP7 SWAP6 SWAP5 SWAP4 SWAP3 SWAP2 SWAP1 PUSH2 0xFE4 JUMP JUMPDEST PUSH1 0x40 MLOAD DUP1 SWAP2 SUB SWAP1 RETURN JUMPDEST PUSH2 0xF7 PUSH1 0x4 DUP1 CALLDATASIZE SUB DUP2 ADD SWAP1 PUSH2 0xF2 SWAP2 SWAP1 PUSH2 0xE72 JUMP JUMPDEST PUSH2 0x645 JUMP JUMPDEST STOP JUMPDEST PUSH1 0x2 PUSH1 0x20 MSTORE DUP1 PUSH1 0x0 MSTORE PUSH1 0x40 PUSH1 0x0 KECCAK256 PUSH1 0x0 SWAP2 POP SWAP1 POP DUP1 PUSH1 0x0 ADD SLOAD SWAP1 DUP1 PUSH1 0x1 ADD PUSH1 0x0 SWAP1 SLOAD SWAP1 PUSH2 0x100 EXP SWAP1 DIV PUSH1 0xFF AND SWAP1 DUP1 PUSH1 0x1 ADD PUSH1 0x1 SWAP1 SLOAD SWAP1 PUSH2 0x100 EXP SWAP1 DIV PUSH1 0xFF AND SWAP1 DUP1 PUSH1 0x1 ADD PUSH1 0x2 SWAP1 SLOAD SWAP1 PUSH2 0x100 EXP SWAP1 DIV PUSH1 0xFF AND SWAP1 DUP1 PUSH1 0x1 ADD PUSH1 0x3 SWAP1 SLOAD SWAP1 PUSH2 0x100 EXP SWAP1 DIV PUSH1 0xFF AND SWAP1 DUP1 PUSH1 0x1 ADD PUSH1 0x4 SWAP1 SLOAD SWAP1 PUSH2 0x100 EXP SWAP1 DIV PUSH1 0xFF AND SWAP1 DUP1 PUSH1 0x1 ADD PUSH1 0x5 SWAP1 SLOAD SWAP1 PUSH2 0x100 EXP SWAP1 DIV PUSH1 0xFF AND SWAP1 DUP1 PUSH1 0x2 ADD SLOAD SWAP1 DUP1 PUSH1 0x3 ADD SLOAD SWAP1 DUP1 PUSH1 0x4 ADD SLOAD SWAP1 DUP1 PUSH1 0x5 ADD SLOAD SWAP1 POP DUP12 JUMP JUMPDEST PUSH1 0x3 PUSH1 0x0 SWAP1 SLOAD SWAP1 PUSH2 0x100 EXP SWAP1 DIV PUSH20 0xFFFFFFFFFFFFFFFFFFFFFFFFFFFFFFFFFFFFFFFF AND PUSH20 0xFFFFFFFFFFFFFFFFFFFFFFFFFFFFFFFFFFFFFFFF AND CALLER PUSH20 0xFFFFFFFFFFFFFFFFFFFFFFFFFFFFFFFFFFFFFFFF AND EQ PUSH2 0x1FB JUMPI PUSH1 0x0 DUP1 REVERT JUMPDEST PUSH1 0x0 DUP1 SLOAD EQ ISZERO PUSH2 0x216 JUMPI PUSH2 0x20D PUSH2 0x6BC JUMP JUMPDEST PUSH2 0x215 PUSH2 0xC74 JUMP JUMPDEST JUMPDEST PUSH2 0x21F DUP2 PUSH2 0x645 JUMP JUMPDEST PUSH2 0x227 PUSH2 0xC74 JUMP JUMPDEST PUSH1 0x40 MLOAD DUP1 PUSH1 0xE0 ADD PUSH1 0x40 MSTORE DUP1 PUSH1 0x0 SLOAD DUP2 MSTORE PUSH1 0x20 ADD PUSH1 0x4 SLOAD DUP2 MSTORE PUSH1 0x20 ADD DUP6 DUP2 MSTORE PUSH1 0x20 ADD DUP5 DUP2 MSTORE PUSH1 0x20 ADD DUP4 DUP2 MSTORE PUSH1 0x20 ADD PUSH1 0x0 DUP2 MSTORE PUSH1 0x20 ADD DUP3 DUP2 MSTORE POP PUSH1 0x1 PUSH1 0x0 DUP1 SLOAD DUP2 MSTORE PUSH1 0x20 ADD SWAP1 DUP2 MSTORE PUSH1 0x20 ADD PUSH1 0x0 KECCAK256 PUSH1 0x0 DUP3 ADD MLOAD DUP2 PUSH1 0x0 ADD SSTORE PUSH1 0x20 DUP3 ADD MLOAD DUP2 PUSH1 0x1 ADD SSTORE PUSH1 0x40 DUP3 ADD MLOAD DUP2 PUSH1 0x2 ADD SWAP1 DUP1 MLOAD SWAP1 PUSH1 0x20 ADD SWAP1 PUSH2 0x2A3 SWAP3 SWAP2 SWAP1 PUSH2 0xC8F JUMP JUMPDEST POP PUSH1 0x60 DUP3 ADD MLOAD DUP2 PUSH1 0x3 ADD SWAP1 DUP1 MLOAD SWAP1 PUSH1 0x20 ADD SWAP1 PUSH2 0x2C0 SWAP3 SWAP2 SWAP1 PUSH2 0xC8F JUMP JUMPDEST POP PUSH1 0x80 DUP3 ADD MLOAD DUP2 PUSH1 0x4 ADD SWAP1 DUP1 MLOAD SWAP1 PUSH1 0x20 ADD SWAP1 PUSH2 0x2DD SWAP3 SWAP2 SWAP1 PUSH2 0xC8F JUMP JUMPDEST POP PUSH1 0xA0 DUP3 ADD MLOAD DUP2 PUSH1 0x5 ADD SSTORE PUSH1 0xC0 DUP3 ADD MLOAD DUP2 PUSH1 0x6 ADD SSTORE SWAP1 POP POP PUSH1 0x40 MLOAD DUP1 PUSH2 0x160 ADD PUSH1 0x40 MSTORE DUP1 PUSH1 0x0 SLOAD DUP2 MSTORE PUSH1 0x20 ADD PUSH1 0x0 ISZERO ISZERO DUP2 MSTORE PUSH1 0x20 ADD PUSH1 0x0 ISZERO ISZERO DUP2 MSTORE PUSH1 0x20 ADD PUSH1 0x0 ISZERO ISZERO DUP2 MSTORE PUSH1 0x20 ADD PUSH1 0x0 ISZERO ISZERO DUP2 MSTORE PUSH1 0x20 ADD PUSH1 0x0 ISZERO ISZERO DUP2 MSTORE PUSH1 0x20 ADD PUSH1 0x0 ISZERO ISZERO DUP2 MSTORE PUSH1 0x20 ADD PUSH1 0x0 DUP2 MSTORE PUSH1 0x20 ADD PUSH1 0x0 DUP2 MSTORE PUSH1 0x20 ADD PUSH1 0x0 DUP2 MSTORE PUSH1 0x20 ADD PUSH1 0x0 DUP2 MSTORE POP PUSH1 0x2 PUSH1 0x0 DUP1 SLOAD DUP2 MSTORE PUSH1 0x20 ADD SWAP1 DUP2 MSTORE PUSH1 0x20 ADD PUSH1 0x0 KECCAK256 PUSH1 0x0 DUP3 ADD MLOAD DUP2 PUSH1 0x0 ADD SSTORE PUSH1 0x20 DUP3 ADD MLOAD DUP2 PUSH1 0x1 ADD PUSH1 0x0 PUSH2 0x100 EXP DUP2 SLOAD DUP2 PUSH1 0xFF MUL NOT AND SWAP1 DUP4 ISZERO ISZERO MUL OR SWAP1 SSTORE POP PUSH1 0x40 DUP3 ADD MLOAD DUP2 PUSH1 0x1 ADD PUSH1 0x1 PUSH2 0x100 EXP DUP2 SLOAD DUP2 PUSH1 0xFF MUL NOT AND SWAP1 DUP4 ISZERO ISZERO MUL OR SWAP1 SSTORE POP PUSH1 0x60 DUP3 ADD MLOAD DUP2 PUSH1 0x1 ADD PUSH1 0x2 PUSH2 0x100 EXP DUP2 SLOAD DUP2 PUSH1 0xFF MUL NOT AND SWAP1 DUP4 ISZERO ISZERO MUL OR SWAP1 SSTORE POP PUSH1 0x80 DUP3 ADD MLOAD DUP2 PUSH1 0x1 ADD PUSH1 0x3 PUSH2 0x100 EXP DUP2 SLOAD DUP2 PUSH1 0xFF MUL NOT AND SWAP1 DUP4 ISZERO ISZERO MUL OR SWAP1 SSTORE POP PUSH1 0xA0 DUP3 ADD MLOAD DUP2 PUSH1 0x1 ADD PUSH1 0x4 PUSH2 0x100 EXP DUP2 SLOAD DUP2 PUSH1 0xFF MUL NOT AND SWAP1 DUP4 ISZERO ISZERO MUL OR SWAP1 SSTORE POP PUSH1 0xC0 DUP3 ADD MLOAD DUP2 PUSH1 0x1 ADD PUSH1 0x5 PUSH2 0x100 EXP DUP2 SLOAD DUP2 PUSH1 0xFF MUL NOT AND SWAP1 DUP4 ISZERO ISZERO MUL OR SWAP1 SSTORE POP PUSH1 0xE0 DUP3 ADD MLOAD DUP2 PUSH1 0x2 ADD SSTORE PUSH2 0x100 DUP3 ADD MLOAD DUP2 PUSH1 0x3 ADD SSTORE PUSH2 0x120 DUP3 ADD MLOAD DUP2 PUSH1 0x4 ADD SSTORE PUSH2 0x140 DUP3 ADD MLOAD DUP2 PUSH1 0x5 ADD SSTORE SWAP1 POP POP POP POP POP POP JUMP JUMPDEST PUSH1 0x1 PUSH1 0x20 MSTORE DUP1 PUSH1 0x0 MSTORE PUSH1 0x40 PUSH1 0x0 KECCAK256 PUSH1 0x0 SWAP2 POP SWAP1 POP DUP1 PUSH1 0x0 ADD SLOAD SWAP1 DUP1 PUSH1 0x1 ADD SLOAD SWAP1 DUP1 PUSH1 0x2 ADD DUP1 SLOAD PUSH2 0x49A SWAP1 PUSH2 0x1188 JUMP JUMPDEST DUP1 PUSH1 0x1F ADD PUSH1 0x20 DUP1 SWAP2 DIV MUL PUSH1 0x20 ADD PUSH1 0x40 MLOAD SWAP1 DUP2 ADD PUSH1 0x40 MSTORE DUP1 SWAP3 SWAP2 SWAP1 DUP2 DUP2 MSTORE PUSH1 0x20 ADD DUP3 DUP1 SLOAD PUSH2 0x4C6 SWAP1 PUSH2 0x1188 JUMP JUMPDEST DUP1 ISZERO PUSH2 0x513 JUMPI DUP1 PUSH1 0x1F LT PUSH2 0x4E8 JUMPI PUSH2 0x100 DUP1 DUP4 SLOAD DIV MUL DUP4 MSTORE SWAP2 PUSH1 0x20 ADD SWAP2 PUSH2 0x513 JUMP JUMPDEST DUP3 ADD SWAP2 SWAP1 PUSH1 0x0 MSTORE PUSH1 0x20 PUSH1 0x0 KECCAK256 SWAP1 JUMPDEST DUP2 SLOAD DUP2 MSTORE SWAP1 PUSH1 0x1 ADD SWAP1 PUSH1 0x20 ADD DUP1 DUP4 GT PUSH2 0x4F6 JUMPI DUP3 SWAP1 SUB PUSH1 0x1F AND DUP3 ADD SWAP2 JUMPDEST POP POP POP POP POP SWAP1 DUP1 PUSH1 0x3 ADD DUP1 SLOAD PUSH2 0x528 SWAP1 PUSH2 0x1188 JUMP JUMPDEST DUP1 PUSH1 0x1F ADD PUSH1 0x20 DUP1 SWAP2 DIV MUL PUSH1 0x20 ADD PUSH1 0x40 MLOAD SWAP1 DUP2 ADD PUSH1 0x40 MSTORE DUP1 SWAP3 SWAP2 SWAP1 DUP2 DUP2 MSTORE PUSH1 0x20 ADD DUP3 DUP1 SLOAD PUSH2 0x554 SWAP1 PUSH2 0x1188 JUMP JUMPDEST DUP1 ISZERO PUSH2 0x5A1 JUMPI DUP1 PUSH1 0x1F LT PUSH2 0x576 JUMPI PUSH2 0x100 DUP1 DUP4 SLOAD DIV MUL DUP4 MSTORE SWAP2 PUSH1 0x20 ADD SWAP2 PUSH2 0x5A1 JUMP JUMPDEST DUP3 ADD SWAP2 SWAP1 PUSH1 0x0 MSTORE PUSH1 0x20 PUSH1 0x0 KECCAK256 SWAP1 JUMPDEST DUP2 SLOAD DUP2 MSTORE SWAP1 PUSH1 0x1 ADD SWAP1 PUSH1 0x20 ADD DUP1 DUP4 GT PUSH2 0x584 JUMPI DUP3 SWAP1 SUB PUSH1 0x1F AND DUP3 ADD SWAP2 JUMPDEST POP POP POP POP POP SWAP1 DUP1 PUSH1 0x4 ADD DUP1 SLOAD PUSH2 0x5B6 SWAP1 PUSH2 0x1188 JUMP JUMPDEST DUP1 PUSH1 0x1F ADD PUSH1 0x20 DUP1 SWAP2 DIV MUL PUSH1 0x20 ADD PUSH1 0x40 MLOAD SWAP1 DUP2 ADD PUSH1 0x40 MSTORE DUP1 SWAP3 SWAP2 SWAP1 DUP2 DUP2 MSTORE PUSH1 0x20 ADD DUP3 DUP1 SLOAD PUSH2 0x5E2 SWAP1 PUSH2 0x1188 JUMP JUMPDEST DUP1 ISZERO PUSH2 0x62F JUMPI DUP1 PUSH1 0x1F LT PUSH2 0x604 JUMPI PUSH2 0x100 DUP1 DUP4 SLOAD DIV MUL DUP4 MSTORE SWAP2 PUSH1 0x20 ADD SWAP2 PUSH2 0x62F JUMP JUMPDEST DUP3 ADD SWAP2 SWAP1 PUSH1 0x0 MSTORE PUSH1 0x20 PUSH1 0x0 KECCAK256 SWAP1 JUMPDEST DUP2 SLOAD DUP2 MSTORE SWAP1 PUSH1 0x1 ADD SWAP1 PUSH1 0x20 ADD DUP1 DUP4 GT PUSH2 0x612 JUMPI DUP3 SWAP1 SUB PUSH1 0x1F AND DUP3 ADD SWAP2 JUMPDEST POP POP POP POP POP SWAP1 DUP1 PUSH1 0x5 ADD SLOAD SWAP1 DUP1 PUSH1 0x6 ADD SLOAD SWAP1 POP DUP8 JUMP JUMPDEST PUSH1 0x0 PUSH1 0x1 PUSH1 0x0 DUP4 DUP2 MSTORE PUSH1 0x20 ADD SWAP1 DUP2 MSTORE PUSH1 0x20 ADD PUSH1 0x0 KECCAK256 PUSH1 0x0 ADD SLOAD SWAP1 POP PUSH1 0x0 DUP2 LT ISZERO DUP1 ISZERO PUSH2 0x673 JUMPI POP PUSH1 0x0 SLOAD DUP2 GT ISZERO JUMPDEST ISZERO PUSH2 0x67D JUMPI PUSH2 0x6B8 JUMP JUMPDEST PUSH1 0x40 MLOAD PUSH32 0x8C379A000000000000000000000000000000000000000000000000000000000 DUP2 MSTORE PUSH1 0x4 ADD PUSH2 0x6AF SWAP1 PUSH2 0xF19 JUMP JUMPDEST PUSH1 0x40 MLOAD DUP1 SWAP2 SUB SWAP1 REVERT JUMPDEST POP POP JUMP JUMPDEST PUSH1 0x40 MLOAD DUP1 PUSH1 0xE0 ADD PUSH1 0x40 MSTORE DUP1 PUSH1 0x0 DUP2 MSTORE PUSH1 0x20 ADD PUSH1 0x4 SLOAD DUP2 MSTORE PUSH1 0x20 ADD PUSH1 0x40 MLOAD DUP1 PUSH1 0x40 ADD PUSH1 0x40 MSTORE DUP1 PUSH1 0x5 DUP2 MSTORE PUSH1 0x20 ADD PUSH32 0x4461727468000000000000000000000000000000000000000000000000000000 DUP2 MSTORE POP DUP2 MSTORE PUSH1 0x20 ADD PUSH1 0x40 MLOAD DUP1 PUSH1 0x40 ADD PUSH1 0x40 MSTORE DUP1 PUSH1 0xB DUP2 MSTORE PUSH1 0x20 ADD PUSH32 0x44656174684465616C6572000000000000000000000000000000000000000000 DUP2 MSTORE POP DUP2 MSTORE PUSH1 0x20 ADD PUSH1 0x40 MLOAD DUP1 PUSH1 0x40 ADD PUSH1 0x40 MSTORE DUP1 PUSH1 0xE DUP2 MSTORE PUSH1 0x20 ADD PUSH32 0x64656174686465616C6572303037000000000000000000000000000000000000 DUP2 MSTORE POP DUP2 MSTORE PUSH1 0x20 ADD PUSH1 0xEF DUP2 MSTORE PUSH1 0x20 ADD PUSH1 0x1 DUP2 MSTORE POP PUSH1 0x1 PUSH1 0x0 DUP1 DUP2 MSTORE PUSH1 0x20 ADD SWAP1 DUP2 MSTORE PUSH1 0x20 ADD PUSH1 0x0 KECCAK256 PUSH1 0x0 DUP3 ADD MLOAD DUP2 PUSH1 0x0 ADD SSTORE PUSH1 0x20 DUP3 ADD MLOAD DUP2 PUSH1 0x1 ADD SSTORE PUSH1 0x40 DUP3 ADD MLOAD DUP2 PUSH1 0x2 ADD SWAP1 DUP1 MLOAD SWAP1 PUSH1 0x20 ADD SWAP1 PUSH2 0x7D6 SWAP3 SWAP2 SWAP1 PUSH2 0xC8F JUMP JUMPDEST POP PUSH1 0x60 DUP3 ADD MLOAD DUP2 PUSH1 0x3 ADD SWAP1 DUP1 MLOAD SWAP1 PUSH1 0x20 ADD SWAP1 PUSH2 0x7F3 SWAP3 SWAP2 SWAP1 PUSH2 0xC8F JUMP JUMPDEST POP PUSH1 0x80 DUP3 ADD MLOAD DUP2 PUSH1 0x4 ADD SWAP1 DUP1 MLOAD SWAP1 PUSH1 0x20 ADD SWAP1 PUSH2 0x810 SWAP3 SWAP2 SWAP1 PUSH2 0xC8F JUMP JUMPDEST POP PUSH1 0xA0 DUP3 ADD MLOAD DUP2 PUSH1 0x5 ADD SSTORE PUSH1 0xC0 DUP3 ADD MLOAD DUP2 PUSH1 0x6 ADD SSTORE SWAP1 POP POP PUSH1 0x40 MLOAD DUP1 PUSH1 0xE0 ADD PUSH1 0x40 MSTORE DUP1 PUSH1 0x1 DUP2 MSTORE PUSH1 0x20 ADD PUSH1 0x4 SLOAD DUP2 MSTORE PUSH1 0x20 ADD PUSH1 0x40 MLOAD DUP1 PUSH1 0x40 ADD PUSH1 0x40 MSTORE DUP1 PUSH1 0x3 DUP2 MSTORE PUSH1 0x20 ADD PUSH32 0x5A756C0000000000000000000000000000000000000000000000000000000000 DUP2 MSTORE POP DUP2 MSTORE PUSH1 0x20 ADD PUSH1 0x40 MLOAD DUP1 PUSH1 0x40 ADD PUSH1 0x40 MSTORE DUP1 PUSH1 0x3 DUP2 MSTORE PUSH1 0x20 ADD PUSH32 0x5A65640000000000000000000000000000000000000000000000000000000000 DUP2 MSTORE POP DUP2 MSTORE PUSH1 0x20 ADD PUSH1 0x40 MLOAD DUP1 PUSH1 0x40 ADD PUSH1 0x40 MSTORE DUP1 PUSH1 0xE DUP2 MSTORE PUSH1 0x20 ADD PUSH32 0x666972737477697A617264303037000000000000000000000000000000000000 DUP2 MSTORE POP DUP2 MSTORE PUSH1 0x20 ADD PUSH1 0xEF DUP2 MSTORE PUSH1 0x20 ADD PUSH1 0x1 DUP2 MSTORE POP PUSH1 0x1 PUSH1 0x0 PUSH1 0x1 DUP2 MSTORE PUSH1 0x20 ADD SWAP1 DUP2 MSTORE PUSH1 0x20 ADD PUSH1 0x0 KECCAK256 PUSH1 0x0 DUP3 ADD MLOAD DUP2 PUSH1 0x0 ADD SSTORE PUSH1 0x20 DUP3 ADD MLOAD DUP2 PUSH1 0x1 ADD SSTORE PUSH1 0x40 DUP3 ADD MLOAD DUP2 PUSH1 0x2 ADD SWAP1 DUP1 MLOAD SWAP1 PUSH1 0x20 ADD SWAP1 PUSH2 0x943 SWAP3 SWAP2 SWAP1 PUSH2 0xC8F JUMP JUMPDEST POP PUSH1 0x60 DUP3 ADD MLOAD DUP2 PUSH1 0x3 ADD SWAP1 DUP1 MLOAD SWAP1 PUSH1 0x20 ADD SWAP1 PUSH2 0x960 SWAP3 SWAP2 SWAP1 PUSH2 0xC8F JUMP JUMPDEST POP PUSH1 0x80 DUP3 ADD MLOAD DUP2 PUSH1 0x4 ADD SWAP1 DUP1 MLOAD SWAP1 PUSH1 0x20 ADD SWAP1 PUSH2 0x97D SWAP3 SWAP2 SWAP1 PUSH2 0xC8F JUMP JUMPDEST POP PUSH1 0xA0 DUP3 ADD MLOAD DUP2 PUSH1 0x5 ADD SSTORE PUSH1 0xC0 DUP3 ADD MLOAD DUP2 PUSH1 0x6 ADD SSTORE SWAP1 POP POP PUSH1 0x40 MLOAD DUP1 PUSH2 0x160 ADD PUSH1 0x40 MSTORE DUP1 PUSH1 0x0 DUP2 MSTORE PUSH1 0x20 ADD PUSH1 0x1 ISZERO ISZERO DUP2 MSTORE PUSH1 0x20 ADD PUSH1 0x1 ISZERO ISZERO DUP2 MSTORE PUSH1 0x20 ADD PUSH1 0x1 ISZERO ISZERO DUP2 MSTORE PUSH1 0x20 ADD PUSH1 0x1 ISZERO ISZERO DUP2 MSTORE PUSH1 0x20 ADD PUSH1 0x1 ISZERO ISZERO DUP2 MSTORE PUSH1 0x20 ADD PUSH1 0x1 ISZERO ISZERO DUP2 MSTORE PUSH1 0x20 ADD PUSH1 0x0 DUP2 MSTORE PUSH1 0x20 ADD PUSH1 0x0 DUP2 MSTORE PUSH1 0x20 ADD PUSH1 0x0 DUP2 MSTORE PUSH1 0x20 ADD PUSH1 0x0 DUP2 MSTORE POP PUSH1 0x2 PUSH1 0x0 DUP1 DUP2 MSTORE PUSH1 0x20 ADD SWAP1 DUP2 MSTORE PUSH1 0x20 ADD PUSH1 0x0 KECCAK256 PUSH1 0x0 DUP3 ADD MLOAD DUP2 PUSH1 0x0 ADD SSTORE PUSH1 0x20 DUP3 ADD MLOAD DUP2 PUSH1 0x1 ADD PUSH1 0x0 PUSH2 0x100 EXP DUP2 SLOAD DUP2 PUSH1 0xFF MUL NOT AND SWAP1 DUP4 ISZERO ISZERO MUL OR SWAP1 SSTORE POP PUSH1 0x40 DUP3 ADD MLOAD DUP2 PUSH1 0x1 ADD PUSH1 0x1 PUSH2 0x100 EXP DUP2 SLOAD DUP2 PUSH1 0xFF MUL NOT AND SWAP1 DUP4 ISZERO ISZERO MUL OR SWAP1 SSTORE POP PUSH1 0x60 DUP3 ADD MLOAD DUP2 PUSH1 0x1 ADD PUSH1 0x2 PUSH2 0x100 EXP DUP2 SLOAD DUP2 PUSH1 0xFF MUL NOT AND SWAP1 DUP4 ISZERO ISZERO MUL OR SWAP1 SSTORE POP PUSH1 0x80 DUP3 ADD MLOAD DUP2 PUSH1 0x1 ADD PUSH1 0x3 PUSH2 0x100 EXP DUP2 SLOAD DUP2 PUSH1 0xFF MUL NOT AND SWAP1 DUP4 ISZERO ISZERO MUL OR SWAP1 SSTORE POP PUSH1 0xA0 DUP3 ADD MLOAD DUP2 PUSH1 0x1 ADD PUSH1 0x4 PUSH2 0x100 EXP DUP2 SLOAD DUP2 PUSH1 0xFF MUL NOT AND SWAP1 DUP4 ISZERO ISZERO MUL OR SWAP1 SSTORE POP PUSH1 0xC0 DUP3 ADD MLOAD DUP2 PUSH1 0x1 ADD PUSH1 0x5 PUSH2 0x100 EXP DUP2 SLOAD DUP2 PUSH1 0xFF MUL NOT AND SWAP1 DUP4 ISZERO ISZERO MUL OR SWAP1 SSTORE POP PUSH1 0xE0 DUP3 ADD MLOAD DUP2 PUSH1 0x2 ADD SSTORE PUSH2 0x100 DUP3 ADD MLOAD DUP2 PUSH1 0x3 ADD SSTORE PUSH2 0x120 DUP3 ADD MLOAD DUP2 PUSH1 0x4 ADD SSTORE PUSH2 0x140 DUP3 ADD MLOAD DUP2 PUSH1 0x5 ADD SSTORE SWAP1 POP POP PUSH1 0x40 MLOAD DUP1 PUSH2 0x160 ADD PUSH1 0x40 MSTORE DUP1 PUSH1 0x1 DUP2 MSTORE PUSH1 0x20 ADD PUSH1 0x1 ISZERO ISZERO DUP2 MSTORE PUSH1 0x20 ADD PUSH1 0x1 ISZERO ISZERO DUP2 MSTORE PUSH1 0x20 ADD PUSH1 0x1 ISZERO ISZERO DUP2 MSTORE PUSH1 0x20 ADD PUSH1 0x1 ISZERO ISZERO DUP2 MSTORE PUSH1 0x20 ADD PUSH1 0x1 ISZERO ISZERO DUP2 MSTORE PUSH1 0x20 ADD PUSH1 0x1 ISZERO ISZERO DUP2 MSTORE PUSH1 0x20 ADD PUSH1 0x0 DUP2 MSTORE PUSH1 0x20 ADD PUSH1 0x0 DUP2 MSTORE PUSH1 0x20 ADD PUSH1 0x0 DUP2 MSTORE PUSH1 0x20 ADD PUSH1 0x0 DUP2 MSTORE POP PUSH1 0x2 PUSH1 0x0 PUSH1 0x1 DUP2 MSTORE PUSH1 0x20 ADD SWAP1 DUP2 MSTORE PUSH1 0x20 ADD PUSH1 0x0 KECCAK256 PUSH1 0x0 DUP3 ADD MLOAD DUP2 PUSH1 0x0 ADD SSTORE PUSH1 0x20 DUP3 ADD MLOAD DUP2 PUSH1 0x1 ADD PUSH1 0x0 PUSH2 0x100 EXP DUP2 SLOAD DUP2 PUSH1 0xFF MUL NOT AND SWAP1 DUP4 ISZERO ISZERO MUL OR SWAP1 SSTORE POP PUSH1 0x40 DUP3 ADD MLOAD DUP2 PUSH1 0x1 ADD PUSH1 0x1 PUSH2 0x100 EXP DUP2 SLOAD DUP2 PUSH1 0xFF MUL NOT AND SWAP1 DUP4 ISZERO ISZERO MUL OR SWAP1 SSTORE POP PUSH1 0x60 DUP3 ADD MLOAD DUP2 PUSH1 0x1 ADD PUSH1 0x2 PUSH2 0x100 EXP DUP2 SLOAD DUP2 PUSH1 0xFF MUL NOT AND SWAP1 DUP4 ISZERO ISZERO MUL OR SWAP1 SSTORE POP PUSH1 0x80 DUP3 ADD MLOAD DUP2 PUSH1 0x1 ADD PUSH1 0x3 PUSH2 0x100 EXP DUP2 SLOAD DUP2 PUSH1 0xFF MUL NOT AND SWAP1 DUP4 ISZERO ISZERO MUL OR SWAP1 SSTORE POP PUSH1 0xA0 DUP3 ADD MLOAD DUP2 PUSH1 0x1 ADD PUSH1 0x4 PUSH2 0x100 EXP DUP2 SLOAD DUP2 PUSH1 0xFF MUL NOT AND SWAP1 DUP4 ISZERO ISZERO MUL OR SWAP1 SSTORE POP PUSH1 0xC0 DUP3 ADD MLOAD DUP2 PUSH1 0x1 ADD PUSH1 0x5 PUSH2 0x100 EXP DUP2 SLOAD DUP2 PUSH1 0xFF MUL NOT AND SWAP1 DUP4 ISZERO ISZERO MUL OR SWAP1 SSTORE POP PUSH1 0xE0 DUP3 ADD MLOAD DUP2 PUSH1 0x2 ADD SSTORE PUSH2 0x100 DUP3 ADD MLOAD DUP2 PUSH1 0x3 ADD SSTORE PUSH2 0x120 DUP3 ADD MLOAD DUP2 PUSH1 0x4 ADD SSTORE PUSH2 0x140 DUP3 ADD MLOAD DUP2 PUSH1 0x5 ADD SSTORE SWAP1 POP POP JUMP JUMPDEST PUSH1 0x1 PUSH1 0x0 DUP1 DUP3 DUP3 SLOAD PUSH2 0xC86 SWAP2 SWAP1 PUSH2 0x10DA JUMP JUMPDEST SWAP3 POP POP DUP2 SWAP1 SSTORE POP JUMP JUMPDEST DUP3 DUP1 SLOAD PUSH2 0xC9B SWAP1 PUSH2 0x1188 JUMP JUMPDEST SWAP1 PUSH1 0x0 MSTORE PUSH1 0x20 PUSH1 0x0 KECCAK256 SWAP1 PUSH1 0x1F ADD PUSH1 0x20 SWAP1 DIV DUP2 ADD SWAP3 DUP3 PUSH2 0xCBD JUMPI PUSH1 0x0 DUP6 SSTORE PUSH2 0xD04 JUMP JUMPDEST DUP3 PUSH1 0x1F LT PUSH2 0xCD6 JUMPI DUP1 MLOAD PUSH1 0xFF NOT AND DUP4 DUP1 ADD OR DUP6 SSTORE PUSH2 0xD04 JUMP JUMPDEST DUP3 DUP1 ADD PUSH1 0x1 ADD DUP6 SSTORE DUP3 ISZERO PUSH2 0xD04 JUMPI SWAP2 DUP3 ADD JUMPDEST DUP3 DUP2 GT ISZERO PUSH2 0xD03 JUMPI DUP3 MLOAD DUP3 SSTORE SWAP2 PUSH1 0x20 ADD SWAP2 SWAP1 PUSH1 0x1 ADD SWAP1 PUSH2 0xCE8 JUMP JUMPDEST JUMPDEST POP SWAP1 POP PUSH2 0xD11 SWAP2 SWAP1 PUSH2 0xD15 JUMP JUMPDEST POP SWAP1 JUMP JUMPDEST JUMPDEST DUP1 DUP3 GT ISZERO PUSH2 0xD2E JUMPI PUSH1 0x0 DUP2 PUSH1 0x0 SWAP1 SSTORE POP PUSH1 0x1 ADD PUSH2 0xD16 JUMP JUMPDEST POP SWAP1 JUMP JUMPDEST PUSH1 0x0 PUSH2 0xD45 PUSH2 0xD40 DUP5 PUSH2 0x108D JUMP JUMPDEST PUSH2 0x1068 JUMP JUMPDEST SWAP1 POP DUP3 DUP2 MSTORE PUSH1 0x20 DUP2 ADD DUP5 DUP5 DUP5 ADD GT ISZERO PUSH2 0xD61 JUMPI PUSH2 0xD60 PUSH2 0x127D JUMP JUMPDEST JUMPDEST PUSH2 0xD6C DUP5 DUP3 DUP6 PUSH2 0x1146 JUMP JUMPDEST POP SWAP4 SWAP3 POP POP POP JUMP JUMPDEST PUSH1 0x0 DUP3 PUSH1 0x1F DUP4 ADD SLT PUSH2 0xD89 JUMPI PUSH2 0xD88 PUSH2 0x1278 JUMP JUMPDEST JUMPDEST DUP2 CALLDATALOAD PUSH2 0xD99 DUP5 DUP3 PUSH1 0x20 DUP7 ADD PUSH2 0xD32 JUMP JUMPDEST SWAP2 POP POP SWAP3 SWAP2 POP POP JUMP JUMPDEST PUSH1 0x0 DUP2 CALLDATALOAD SWAP1 POP PUSH2 0xDB1 DUP2 PUSH2 0x12C6 JUMP JUMPDEST SWAP3 SWAP2 POP POP JUMP JUMPDEST PUSH1 0x0 DUP1 PUSH1 0x0 DUP1 PUSH1 0x80 DUP6 DUP8 SUB SLT ISZERO PUSH2 0xDD1 JUMPI PUSH2 0xDD0 PUSH2 0x1287 JUMP JUMPDEST JUMPDEST PUSH1 0x0 DUP6 ADD CALLDATALOAD PUSH8 0xFFFFFFFFFFFFFFFF DUP2 GT ISZERO PUSH2 0xDEF JUMPI PUSH2 0xDEE PUSH2 0x1282 JUMP JUMPDEST JUMPDEST PUSH2 0xDFB DUP8 DUP3 DUP9 ADD PUSH2 0xD74 JUMP JUMPDEST SWAP5 POP POP PUSH1 0x20 DUP6 ADD CALLDATALOAD PUSH8 0xFFFFFFFFFFFFFFFF DUP2 GT ISZERO PUSH2 0xE1C JUMPI PUSH2 0xE1B PUSH2 0x1282 JUMP JUMPDEST JUMPDEST PUSH2 0xE28 DUP8 DUP3 DUP9 ADD PUSH2 0xD74 JUMP JUMPDEST SWAP4 POP POP PUSH1 0x40 DUP6 ADD CALLDATALOAD PUSH8 0xFFFFFFFFFFFFFFFF DUP2 GT ISZERO PUSH2 0xE49 JUMPI PUSH2 0xE48 PUSH2 0x1282 JUMP JUMPDEST JUMPDEST PUSH2 0xE55 DUP8 DUP3 DUP9 ADD PUSH2 0xD74 JUMP JUMPDEST SWAP3 POP POP PUSH1 0x60 PUSH2 0xE66 DUP8 DUP3 DUP9 ADD PUSH2 0xDA2 JUMP JUMPDEST SWAP2 POP POP SWAP3 SWAP6 SWAP2 SWAP5 POP SWAP3 POP JUMP JUMPDEST PUSH1 0x0 PUSH1 0x20 DUP3 DUP5 SUB SLT ISZERO PUSH2 0xE88 JUMPI PUSH2 0xE87 PUSH2 0x1287 JUMP JUMPDEST JUMPDEST PUSH1 0x0 PUSH2 0xE96 DUP5 DUP3 DUP6 ADD PUSH2 0xDA2 JUMP JUMPDEST SWAP2 POP POP SWAP3 SWAP2 POP POP JUMP JUMPDEST PUSH2 0xEA8 DUP2 PUSH2 0x1130 JUMP JUMPDEST DUP3 MSTORE POP POP JUMP JUMPDEST PUSH1 0x0 PUSH2 0xEB9 DUP3 PUSH2 0x10BE JUMP JUMPDEST PUSH2 0xEC3 DUP2 DUP6 PUSH2 0x10C9 JUMP JUMPDEST SWAP4 POP PUSH2 0xED3 DUP2 DUP6 PUSH1 0x20 DUP7 ADD PUSH2 0x1155 JUMP JUMPDEST PUSH2 0xEDC DUP2 PUSH2 0x128C JUMP JUMPDEST DUP5 ADD SWAP2 POP POP SWAP3 SWAP2 POP POP JUMP JUMPDEST PUSH1 0x0 PUSH2 0xEF4 PUSH1 0x19 DUP4 PUSH2 0x10C9 JUMP JUMPDEST SWAP2 POP PUSH2 0xEFF DUP3 PUSH2 0x129D JUMP JUMPDEST PUSH1 0x20 DUP3 ADD SWAP1 POP SWAP2 SWAP1 POP JUMP JUMPDEST PUSH2 0xF13 DUP2 PUSH2 0x113C JUMP JUMPDEST DUP3 MSTORE POP POP JUMP JUMPDEST PUSH1 0x0 PUSH1 0x20 DUP3 ADD SWAP1 POP DUP2 DUP2 SUB PUSH1 0x0 DUP4 ADD MSTORE PUSH2 0xF32 DUP2 PUSH2 0xEE7 JUMP JUMPDEST SWAP1 POP SWAP2 SWAP1 POP JUMP JUMPDEST PUSH1 0x0 PUSH2 0x160 DUP3 ADD SWAP1 POP PUSH2 0xF4F PUSH1 0x0 DUP4 ADD DUP15 PUSH2 0xF0A JUMP JUMPDEST PUSH2 0xF5C PUSH1 0x20 DUP4 ADD DUP14 PUSH2 0xE9F JUMP JUMPDEST PUSH2 0xF69 PUSH1 0x40 DUP4 ADD DUP13 PUSH2 0xE9F JUMP JUMPDEST PUSH2 0xF76 PUSH1 0x60 DUP4 ADD DUP12 PUSH2 0xE9F JUMP JUMPDEST PUSH2 0xF83 PUSH1 0x80 DUP4 ADD DUP11 PUSH2 0xE9F JUMP JUMPDEST PUSH2 0xF90 PUSH1 0xA0 DUP4 ADD DUP10 PUSH2 0xE9F JUMP JUMPDEST PUSH2 0xF9D PUSH1 0xC0 DUP4 ADD DUP9 PUSH2 0xE9F JUMP JUMPDEST PUSH2 0xFAA PUSH1 0xE0 DUP4 ADD DUP8 PUSH2 0xF0A JUMP JUMPDEST PUSH2 0xFB8 PUSH2 0x100 DUP4 ADD DUP7 PUSH2 0xF0A JUMP JUMPDEST PUSH2 0xFC6 PUSH2 0x120 DUP4 ADD DUP6 PUSH2 0xF0A JUMP JUMPDEST PUSH2 0xFD4 PUSH2 0x140 DUP4 ADD DUP5 PUSH2 0xF0A JUMP JUMPDEST SWAP13 SWAP12 POP POP POP POP POP POP POP POP POP POP POP POP JUMP JUMPDEST PUSH1 0x0 PUSH1 0xE0 DUP3 ADD SWAP1 POP PUSH2 0xFF9 PUSH1 0x0 DUP4 ADD DUP11 PUSH2 0xF0A JUMP JUMPDEST PUSH2 0x1006 PUSH1 0x20 DUP4 ADD DUP10 PUSH2 0xF0A JUMP JUMPDEST DUP2 DUP2 SUB PUSH1 0x40 DUP4 ADD MSTORE PUSH2 0x1018 DUP2 DUP9 PUSH2 0xEAE JUMP JUMPDEST SWAP1 POP DUP2 DUP2 SUB PUSH1 0x60 DUP4 ADD MSTORE PUSH2 0x102C DUP2 DUP8 PUSH2 0xEAE JUMP JUMPDEST SWAP1 POP DUP2 DUP2 SUB PUSH1 0x80 DUP4 ADD MSTORE PUSH2 0x1040 DUP2 DUP7 PUSH2 0xEAE JUMP JUMPDEST SWAP1 POP PUSH2 0x104F PUSH1 0xA0 DUP4 ADD DUP6 PUSH2 0xF0A JUMP JUMPDEST PUSH2 0x105C PUSH1 0xC0 DUP4 ADD DUP5 PUSH2 0xF0A JUMP JUMPDEST SWAP9 SWAP8 POP POP POP POP POP POP POP POP JUMP JUMPDEST PUSH1 0x0 PUSH2 0x1072 PUSH2 0x1083 JUMP JUMPDEST SWAP1 POP PUSH2 0x107E DUP3 DUP3 PUSH2 0x11BA JUMP JUMPDEST SWAP2 SWAP1 POP JUMP JUMPDEST PUSH1 0x0 PUSH1 0x40 MLOAD SWAP1 POP SWAP1 JUMP JUMPDEST PUSH1 0x0 PUSH8 0xFFFFFFFFFFFFFFFF DUP3 GT ISZERO PUSH2 0x10A8 JUMPI PUSH2 0x10A7 PUSH2 0x1249 JUMP JUMPDEST JUMPDEST PUSH2 0x10B1 DUP3 PUSH2 0x128C JUMP JUMPDEST SWAP1 POP PUSH1 0x20 DUP2 ADD SWAP1 POP SWAP2 SWAP1 POP JUMP JUMPDEST PUSH1 0x0 DUP2 MLOAD SWAP1 POP SWAP2 SWAP1 POP JUMP JUMPDEST PUSH1 0x0 DUP3 DUP3 MSTORE PUSH1 0x20 DUP3 ADD SWAP1 POP SWAP3 SWAP2 POP POP JUMP JUMPDEST PUSH1 0x0 PUSH2 0x10E5 DUP3 PUSH2 0x113C JUMP JUMPDEST SWAP2 POP PUSH2 0x10F0 DUP4 PUSH2 0x113C JUMP JUMPDEST SWAP3 POP DUP3 PUSH32 0xFFFFFFFFFFFFFFFFFFFFFFFFFFFFFFFFFFFFFFFFFFFFFFFFFFFFFFFFFFFFFFFF SUB DUP3 GT ISZERO PUSH2 0x1125 JUMPI PUSH2 0x1124 PUSH2 0x11EB JUMP JUMPDEST JUMPDEST DUP3 DUP3 ADD SWAP1 POP SWAP3 SWAP2 POP POP JUMP JUMPDEST PUSH1 0x0 DUP2 ISZERO ISZERO SWAP1 POP SWAP2 SWAP1 POP JUMP JUMPDEST PUSH1 0x0 DUP2 SWAP1 POP SWAP2 SWAP1 POP JUMP JUMPDEST DUP3 DUP2 DUP4 CALLDATACOPY PUSH1 0x0 DUP4 DUP4 ADD MSTORE POP POP POP JUMP JUMPDEST PUSH1 0x0 JUMPDEST DUP4 DUP2 LT ISZERO PUSH2 0x1173 JUMPI DUP1 DUP3 ADD MLOAD DUP2 DUP5 ADD MSTORE PUSH1 0x20 DUP2 ADD SWAP1 POP PUSH2 0x1158 JUMP JUMPDEST DUP4 DUP2 GT ISZERO PUSH2 0x1182 JUMPI PUSH1 0x0 DUP5 DUP5 ADD MSTORE JUMPDEST POP POP POP POP JUMP JUMPDEST PUSH1 0x0 PUSH1 0x2 DUP3 DIV SWAP1 POP PUSH1 0x1 DUP3 AND DUP1 PUSH2 0x11A0 JUMPI PUSH1 0x7F DUP3 AND SWAP2 POP JUMPDEST PUSH1 0x20 DUP3 LT DUP2 EQ ISZERO PUSH2 0x11B4 JUMPI PUSH2 0x11B3 PUSH2 0x121A JUMP JUMPDEST JUMPDEST POP SWAP2 SWAP1 POP JUMP JUMPDEST PUSH2 0x11C3 DUP3 PUSH2 0x128C JUMP JUMPDEST DUP2 ADD DUP2 DUP2 LT PUSH8 0xFFFFFFFFFFFFFFFF DUP3 GT OR ISZERO PUSH2 0x11E2 JUMPI PUSH2 0x11E1 PUSH2 0x1249 JUMP JUMPDEST JUMPDEST DUP1 PUSH1 0x40 MSTORE POP POP POP JUMP JUMPDEST PUSH32 0x4E487B7100000000000000000000000000000000000000000000000000000000 PUSH1 0x0 MSTORE PUSH1 0x11 PUSH1 0x4 MSTORE PUSH1 0x24 PUSH1 0x0 REVERT JUMPDEST PUSH32 0x4E487B7100000000000000000000000000000000000000000000000000000000 PUSH1 0x0 MSTORE PUSH1 0x22 PUSH1 0x4 MSTORE PUSH1 0x24 PUSH1 0x0 REVERT JUMPDEST PUSH32 0x4E487B7100000000000000000000000000000000000000000000000000000000 PUSH1 0x0 MSTORE PUSH1 0x41 PUSH1 0x4 MSTORE PUSH1 0x24 PUSH1 0x0 REVERT JUMPDEST PUSH1 0x0 DUP1 REVERT JUMPDEST PUSH1 0x0 DUP1 REVERT JUMPDEST PUSH1 0x0 DUP1 REVERT JUMPDEST PUSH1 0x0 DUP1 REVERT JUMPDEST PUSH1 0x0 PUSH1 0x1F NOT PUSH1 0x1F DUP4 ADD AND SWAP1 POP SWAP2 SWAP1 POP JUMP JUMPDEST PUSH32 0x42656E65666163746F7220446F6573204E6F7420457869737400000000000000 PUSH1 0x0 DUP3 ADD MSTORE POP JUMP JUMPDEST PUSH2 0x12CF DUP2 PUSH2 0x113C JUMP JUMPDEST DUP2 EQ PUSH2 0x12DA JUMPI PUSH1 0x0 DUP1 REVERT JUMPDEST POP JUMP INVALID LOG2 PUSH5 0x6970667358 0x22 SLT KECCAK256 0x4F ADDMOD 0x2A OR 0xBF PUSH16 0x6756758D03F71F5C35BC2E202A2AFFA5 SWAP6 0xAE SWAP10 0x4C SLOAD 0xE7 CALLER EXTCODESIZE STOP SWAP15 PUSH5 0x736F6C6343 STOP ADDMOD MOD STOP CALLER "
				},
				"gasEstimates": {
					"creation": {
						"codeDepositCost": "976600",
						"executionCost": "6020",
						"totalCost": "982620"
					},
					"external": {
						"addGamer(string,string,string,uint256)": "infinite",
						"checkBenefactorExist(uint256)": "5096",
						"gamerFlags(uint256)": "infinite",
						"gamers(uint256)": "infinite"
					},
					"internal": {
						"addFirstGamer()": "infinite",
						"incrementCount()": "infinite"
					}
				},
				"methodIdentifiers": {
					"addGamer(string,string,string,uint256)": "57a6c279",
					"checkBenefactorExist(uint256)": "df432393",
					"gamerFlags(uint256)": "3557ca3f",
					"gamers(uint256)": "abf57908"
				}
			},
			"storageLayout": {
				"storage": [
					{
						"astId": 4,
						"contract": "ichoronium-galactic-contracts/users/ichorProfiles.sol:ichoroniumProfiles",
						"label": "gamerCount",
						"offset": 0,
						"slot": "0",
						"type": "t_uint256"
					},
					{
						"astId": 9,
						"contract": "ichoronium-galactic-contracts/users/ichorProfiles.sol:ichoroniumProfiles",
						"label": "gamers",
						"offset": 0,
						"slot": "1",
						"type": "t_mapping(t_uint256,t_struct(Gamer)35_storage)"
					},
					{
						"astId": 14,
						"contract": "ichoronium-galactic-contracts/users/ichorProfiles.sol:ichoroniumProfiles",
						"label": "gamerFlags",
						"offset": 0,
						"slot": "2",
						"type": "t_mapping(t_uint256,t_struct(gamerFlag)58_storage)"
					},
					{
						"astId": 16,
						"contract": "ichoronium-galactic-contracts/users/ichorProfiles.sol:ichoroniumProfiles",
						"label": "owner",
						"offset": 0,
						"slot": "3",
						"type": "t_address"
					},
					{
						"astId": 18,
						"contract": "ichoronium-galactic-contracts/users/ichorProfiles.sol:ichoroniumProfiles",
						"label": "todaysDate",
						"offset": 0,
						"slot": "4",
						"type": "t_uint256"
					},
					{
						"astId": 20,
						"contract": "ichoronium-galactic-contracts/users/ichorProfiles.sol:ichoroniumProfiles",
						"label": "_id",
						"offset": 0,
						"slot": "5",
						"type": "t_uint256"
					}
				],
				"types": {
					"t_address": {
						"encoding": "inplace",
						"label": "address",
						"numberOfBytes": "20"
					},
					"t_bool": {
						"encoding": "inplace",
						"label": "bool",
						"numberOfBytes": "1"
					},
					"t_mapping(t_uint256,t_struct(Gamer)35_storage)": {
						"encoding": "mapping",
						"key": "t_uint256",
						"label": "mapping(uint256 => struct ichoroniumProfiles.Gamer)",
						"numberOfBytes": "32",
						"value": "t_struct(Gamer)35_storage"
					},
					"t_mapping(t_uint256,t_struct(gamerFlag)58_storage)": {
						"encoding": "mapping",
						"key": "t_uint256",
						"label": "mapping(uint256 => struct ichoroniumProfiles.gamerFlag)",
						"numberOfBytes": "32",
						"value": "t_struct(gamerFlag)58_storage"
					},
					"t_string_storage": {
						"encoding": "bytes",
						"label": "string",
						"numberOfBytes": "32"
					},
					"t_struct(Gamer)35_storage": {
						"encoding": "inplace",
						"label": "struct ichoroniumProfiles.Gamer",
						"members": [
							{
								"astId": 22,
								"contract": "ichoronium-galactic-contracts/users/ichorProfiles.sol:ichoroniumProfiles",
								"label": "_id",
								"offset": 0,
								"slot": "0",
								"type": "t_uint256"
							},
							{
								"astId": 24,
								"contract": "ichoronium-galactic-contracts/users/ichorProfiles.sol:ichoroniumProfiles",
								"label": "_registrationDate",
								"offset": 0,
								"slot": "1",
								"type": "t_uint256"
							},
							{
								"astId": 26,
								"contract": "ichoronium-galactic-contracts/users/ichorProfiles.sol:ichoroniumProfiles",
								"label": "_realFirstName",
								"offset": 0,
								"slot": "2",
								"type": "t_string_storage"
							},
							{
								"astId": 28,
								"contract": "ichoronium-galactic-contracts/users/ichorProfiles.sol:ichoroniumProfiles",
								"label": "_realLastName",
								"offset": 0,
								"slot": "3",
								"type": "t_string_storage"
							},
							{
								"astId": 30,
								"contract": "ichoronium-galactic-contracts/users/ichorProfiles.sol:ichoroniumProfiles",
								"label": "_officialUsername",
								"offset": 0,
								"slot": "4",
								"type": "t_string_storage"
							},
							{
								"astId": 32,
								"contract": "ichoronium-galactic-contracts/users/ichorProfiles.sol:ichoroniumProfiles",
								"label": "_ichoroniumLevel",
								"offset": 0,
								"slot": "5",
								"type": "t_uint256"
							},
							{
								"astId": 34,
								"contract": "ichoronium-galactic-contracts/users/ichorProfiles.sol:ichoroniumProfiles",
								"label": "_benefactor",
								"offset": 0,
								"slot": "6",
								"type": "t_uint256"
							}
						],
						"numberOfBytes": "224"
					},
					"t_struct(gamerFlag)58_storage": {
						"encoding": "inplace",
						"label": "struct ichoroniumProfiles.gamerFlag",
						"members": [
							{
								"astId": 37,
								"contract": "ichoronium-galactic-contracts/users/ichorProfiles.sol:ichoroniumProfiles",
								"label": "_id",
								"offset": 0,
								"slot": "0",
								"type": "t_uint256"
							},
							{
								"astId": 39,
								"contract": "ichoronium-galactic-contracts/users/ichorProfiles.sol:ichoroniumProfiles",
								"label": "_smsVerified",
								"offset": 0,
								"slot": "1",
								"type": "t_bool"
							},
							{
								"astId": 41,
								"contract": "ichoronium-galactic-contracts/users/ichorProfiles.sol:ichoroniumProfiles",
								"label": "_socialverfied",
								"offset": 1,
								"slot": "1",
								"type": "t_bool"
							},
							{
								"astId": 43,
								"contract": "ichoronium-galactic-contracts/users/ichorProfiles.sol:ichoroniumProfiles",
								"label": "_kycVerified",
								"offset": 2,
								"slot": "1",
								"type": "t_bool"
							},
							{
								"astId": 45,
								"contract": "ichoronium-galactic-contracts/users/ichorProfiles.sol:ichoroniumProfiles",
								"label": "_softBan",
								"offset": 3,
								"slot": "1",
								"type": "t_bool"
							},
							{
								"astId": 47,
								"contract": "ichoronium-galactic-contracts/users/ichorProfiles.sol:ichoroniumProfiles",
								"label": "_hardBan",
								"offset": 4,
								"slot": "1",
								"type": "t_bool"
							},
							{
								"astId": 49,
								"contract": "ichoronium-galactic-contracts/users/ichorProfiles.sol:ichoroniumProfiles",
								"label": "_isJin",
								"offset": 5,
								"slot": "1",
								"type": "t_bool"
							},
							{
								"astId": 51,
								"contract": "ichoronium-galactic-contracts/users/ichorProfiles.sol:ichoroniumProfiles",
								"label": "_hardBanAddress",
								"offset": 0,
								"slot": "2",
								"type": "t_uint256"
							},
							{
								"astId": 53,
								"contract": "ichoronium-galactic-contracts/users/ichorProfiles.sol:ichoroniumProfiles",
								"label": "_socialverificationAddress",
								"offset": 0,
								"slot": "3",
								"type": "t_uint256"
							},
							{
								"astId": 55,
								"contract": "ichoronium-galactic-contracts/users/ichorProfiles.sol:ichoroniumProfiles",
								"label": "_kycVericationAddress",
								"offset": 0,
								"slot": "4",
								"type": "t_uint256"
							},
							{
								"astId": 57,
								"contract": "ichoronium-galactic-contracts/users/ichorProfiles.sol:ichoroniumProfiles",
								"label": "_softBanAddress",
								"offset": 0,
								"slot": "5",
								"type": "t_uint256"
							}
						],
						"numberOfBytes": "192"
					},
					"t_uint256": {
						"encoding": "inplace",
						"label": "uint256",
						"numberOfBytes": "32"
					}
				}
			},
			"userdoc": {
				"kind": "user",
				"methods": {},
				"version": 1
			}
		}
	}
}