{
	"ichoronium-galactic-contracts/users/ichorProfiles.sol": {
		"ichoroniumProfiles": {
			"abi": [
				{
					"constant": false,
					"inputs": [
						{
							"internalType": "string",
							"name": "_realFirstName",
							"type": "string"
						},
						{
							"internalType": "string",
							"name": "_realLastName",
							"type": "string"
						},
						{
							"internalType": "string",
							"name": "_officialUserName",
							"type": "string"
						},
						{
							"internalType": "uint256",
							"name": "_benefactor",
							"type": "uint256"
						}
					],
					"name": "addGamer",
					"outputs": [],
					"payable": false,
					"stateMutability": "nonpayable",
					"type": "function"
				},
				{
					"constant": true,
					"inputs": [
						{
							"internalType": "uint256",
							"name": "_benefactor",
							"type": "uint256"
						}
					],
					"name": "checkBenefactorExist",
					"outputs": [],
					"payable": false,
					"stateMutability": "view",
					"type": "function"
				},
				{
					"constant": true,
					"inputs": [
						{
							"internalType": "uint256",
							"name": "",
							"type": "uint256"
						}
					],
					"name": "gamerFlags",
					"outputs": [
						{
							"internalType": "uint256",
							"name": "_id",
							"type": "uint256"
						},
						{
							"internalType": "bool",
							"name": "_smsVerified",
							"type": "bool"
						},
						{
							"internalType": "bool",
							"name": "_socialverfied",
							"type": "bool"
						},
						{
							"internalType": "bool",
							"name": "_kycVerified",
							"type": "bool"
						},
						{
							"internalType": "bool",
							"name": "_softBan",
							"type": "bool"
						},
						{
							"internalType": "bool",
							"name": "_hardBan",
							"type": "bool"
						},
						{
							"internalType": "bool",
							"name": "_isJin",
							"type": "bool"
						},
						{
							"internalType": "uint256",
							"name": "_hardBanAddress",
							"type": "uint256"
						},
						{
							"internalType": "uint256",
							"name": "_socialverificationAddress",
							"type": "uint256"
						},
						{
							"internalType": "uint256",
							"name": "_kycVericationAddress",
							"type": "uint256"
						},
						{
							"internalType": "uint256",
							"name": "_softBanAddress",
							"type": "uint256"
						}
					],
					"payable": false,
					"stateMutability": "view",
					"type": "function"
				},
				{
					"constant": true,
					"inputs": [
						{
							"internalType": "uint256",
							"name": "",
							"type": "uint256"
						}
					],
					"name": "gamers",
					"outputs": [
						{
							"internalType": "uint256",
							"name": "_id",
							"type": "uint256"
						},
						{
							"internalType": "uint256",
							"name": "_registrationDate",
							"type": "uint256"
						},
						{
							"internalType": "string",
							"name": "_realFirstName",
							"type": "string"
						},
						{
							"internalType": "string",
							"name": "_realLastName",
							"type": "string"
						},
						{
							"internalType": "string",
							"name": "_officialUsername",
							"type": "string"
						},
						{
							"internalType": "uint256",
							"name": "_ichoroniumLevel",
							"type": "uint256"
						},
						{
							"internalType": "uint256",
							"name": "_benefactor",
							"type": "uint256"
						}
					],
					"payable": false,
					"stateMutability": "view",
					"type": "function"
				}
			],
			"devdoc": {
				"methods": {}
			},
			"evm": {
				"assembly": "    /* \"ichoronium-galactic-contracts/users/ichorProfiles.sol\":86:2836  contract ichoroniumProfiles {\r... */\n  mstore(0x40, 0x80)\n    /* \"ichoronium-galactic-contracts/users/ichorProfiles.sol\":142:143  0 */\n  0x00\n    /* \"ichoronium-galactic-contracts/users/ichorProfiles.sol\":121:143  uint256 gamerCount = 0 */\n  dup1\n  sstore\n    /* \"ichoronium-galactic-contracts/users/ichorProfiles.sol\":86:2836  contract ichoroniumProfiles {\r... */\n  callvalue\n    /* \"--CODEGEN--\":8:17   */\n  dup1\n    /* \"--CODEGEN--\":5:7   */\n  iszero\n  tag_1\n  jumpi\n    /* \"--CODEGEN--\":30:31   */\n  0x00\n    /* \"--CODEGEN--\":27:28   */\n  dup1\n    /* \"--CODEGEN--\":20:32   */\n  revert\n    /* \"--CODEGEN--\":5:7   */\ntag_1:\n    /* \"ichoronium-galactic-contracts/users/ichorProfiles.sol\":86:2836  contract ichoroniumProfiles {\r... */\n  pop\n  dataSize(sub_0)\n  dup1\n  dataOffset(sub_0)\n  0x00\n  codecopy\n  0x00\n  return\nstop\n\nsub_0: assembly {\n        /* \"ichoronium-galactic-contracts/users/ichorProfiles.sol\":86:2836  contract ichoroniumProfiles {\r... */\n      mstore(0x40, 0x80)\n      callvalue\n        /* \"--CODEGEN--\":8:17   */\n      dup1\n        /* \"--CODEGEN--\":5:7   */\n      iszero\n      tag_1\n      jumpi\n        /* \"--CODEGEN--\":30:31   */\n      0x00\n        /* \"--CODEGEN--\":27:28   */\n      dup1\n        /* \"--CODEGEN--\":20:32   */\n      revert\n        /* \"--CODEGEN--\":5:7   */\n    tag_1:\n        /* \"ichoronium-galactic-contracts/users/ichorProfiles.sol\":86:2836  contract ichoroniumProfiles {\r... */\n      pop\n      jumpi(tag_2, lt(calldatasize, 0x04))\n      shr(0xe0, calldataload(0x00))\n      dup1\n      0x3557ca3f\n      eq\n      tag_3\n      jumpi\n      dup1\n      0x57a6c279\n      eq\n      tag_4\n      jumpi\n      dup1\n      0xabf57908\n      eq\n      tag_5\n      jumpi\n      dup1\n      0xdf432393\n      eq\n      tag_6\n      jumpi\n    tag_2:\n      0x00\n      dup1\n      revert\n        /* \"ichoronium-galactic-contracts/users/ichorProfiles.sol\":207:254  mapping(uint256 => gamerFlag) public gamerFlags */\n    tag_3:\n      tag_7\n      0x04\n      dup1\n      calldatasize\n      sub\n        /* \"--CODEGEN--\":13:15   */\n      0x20\n        /* \"--CODEGEN--\":8:11   */\n      dup2\n        /* \"--CODEGEN--\":5:16   */\n      lt\n        /* \"--CODEGEN--\":2:4   */\n      iszero\n      tag_8\n      jumpi\n        /* \"--CODEGEN--\":29:30   */\n      0x00\n        /* \"--CODEGEN--\":26:27   */\n      dup1\n        /* \"--CODEGEN--\":19:31   */\n      revert\n        /* \"--CODEGEN--\":2:4   */\n    tag_8:\n        /* \"ichoronium-galactic-contracts/users/ichorProfiles.sol\":207:254  mapping(uint256 => gamerFlag) public gamerFlags */\n      dup2\n      add\n      swap1\n      dup1\n      dup1\n      calldataload\n      swap1\n      0x20\n      add\n      swap1\n      swap3\n      swap2\n      swap1\n      pop\n      pop\n      pop\n      tag_9\n      jump\t// in\n    tag_7:\n      mload(0x40)\n      dup1\n      dup13\n      dup2\n      mstore\n      0x20\n      add\n      dup12\n      iszero\n      iszero\n      iszero\n      iszero\n      dup2\n      mstore\n      0x20\n      add\n      dup11\n      iszero\n      iszero\n      iszero\n      iszero\n      dup2\n      mstore\n      0x20\n      add\n      dup10\n      iszero\n      iszero\n      iszero\n      iszero\n      dup2\n      mstore\n      0x20\n      add\n      dup9\n      iszero\n      iszero\n      iszero\n      iszero\n      dup2\n      mstore\n      0x20\n      add\n      dup8\n      iszero\n      iszero\n      iszero\n      iszero\n      dup2\n      mstore\n      0x20\n      add\n      dup7\n      iszero\n      iszero\n      iszero\n      iszero\n      dup2\n      mstore\n      0x20\n      add\n      dup6\n      dup2\n      mstore\n      0x20\n      add\n      dup5\n      dup2\n      mstore\n      0x20\n      add\n      dup4\n      dup2\n      mstore\n      0x20\n      add\n      dup3\n      dup2\n      mstore\n      0x20\n      add\n      swap12\n      pop\n      pop\n      pop\n      pop\n      pop\n      pop\n      pop\n      pop\n      pop\n      pop\n      pop\n      pop\n      mload(0x40)\n      dup1\n      swap2\n      sub\n      swap1\n      return\n        /* \"ichoronium-galactic-contracts/users/ichorProfiles.sol\":1118:1971  function addGamer(string memory _realFirstName, \r... */\n    tag_4:\n      tag_10\n      0x04\n      dup1\n      calldatasize\n      sub\n        /* \"--CODEGEN--\":13:16   */\n      0x80\n        /* \"--CODEGEN--\":8:11   */\n      dup2\n        /* \"--CODEGEN--\":5:17   */\n      lt\n        /* \"--CODEGEN--\":2:4   */\n      iszero\n      tag_11\n      jumpi\n        /* \"--CODEGEN--\":30:31   */\n      0x00\n        /* \"--CODEGEN--\":27:28   */\n      dup1\n        /* \"--CODEGEN--\":20:32   */\n      revert\n        /* \"--CODEGEN--\":2:4   */\n    tag_11:\n        /* \"ichoronium-galactic-contracts/users/ichorProfiles.sol\":1118:1971  function addGamer(string memory _realFirstName, \r... */\n      dup2\n      add\n      swap1\n      dup1\n      dup1\n      calldataload\n      swap1\n      0x20\n      add\n      swap1\n        /* \"--CODEGEN--\":21:32   */\n      0x0100000000\n        /* \"--CODEGEN--\":8:19   */\n      dup2\n        /* \"--CODEGEN--\":5:33   */\n      gt\n        /* \"--CODEGEN--\":2:4   */\n      iszero\n      tag_12\n      jumpi\n        /* \"--CODEGEN--\":46:47   */\n      0x00\n        /* \"--CODEGEN--\":43:44   */\n      dup1\n        /* \"--CODEGEN--\":36:48   */\n      revert\n        /* \"--CODEGEN--\":2:4   */\n    tag_12:\n        /* \"ichoronium-galactic-contracts/users/ichorProfiles.sol\":1118:1971  function addGamer(string memory _realFirstName, \r... */\n      dup3\n      add\n        /* \"--CODEGEN--\":35:44   */\n      dup4\n        /* \"--CODEGEN--\":28:32   */\n      0x20\n        /* \"--CODEGEN--\":12:26   */\n      dup3\n        /* \"--CODEGEN--\":8:33   */\n      add\n        /* \"--CODEGEN--\":5:45   */\n      gt\n        /* \"--CODEGEN--\":2:4   */\n      iszero\n      tag_13\n      jumpi\n        /* \"--CODEGEN--\":58:59   */\n      0x00\n        /* \"--CODEGEN--\":55:56   */\n      dup1\n        /* \"--CODEGEN--\":48:60   */\n      revert\n        /* \"--CODEGEN--\":2:4   */\n    tag_13:\n        /* \"ichoronium-galactic-contracts/users/ichorProfiles.sol\":1118:1971  function addGamer(string memory _realFirstName, \r... */\n      dup1\n      calldataload\n      swap1\n      0x20\n      add\n      swap2\n        /* \"--CODEGEN--\":100:109   */\n      dup5\n        /* \"--CODEGEN--\":95:96   */\n      0x01\n        /* \"--CODEGEN--\":81:93   */\n      dup4\n        /* \"--CODEGEN--\":77:97   */\n      mul\n        /* \"--CODEGEN--\":67:75   */\n      dup5\n        /* \"--CODEGEN--\":63:98   */\n      add\n        /* \"--CODEGEN--\":60:110   */\n      gt\n        /* \"--CODEGEN--\":39:50   */\n      0x0100000000\n        /* \"--CODEGEN--\":25:37   */\n      dup4\n        /* \"--CODEGEN--\":22:51   */\n      gt\n        /* \"--CODEGEN--\":11:118   */\n      or\n        /* \"--CODEGEN--\":8:10   */\n      iszero\n      tag_14\n      jumpi\n        /* \"--CODEGEN--\":131:132   */\n      0x00\n        /* \"--CODEGEN--\":128:129   */\n      dup1\n        /* \"--CODEGEN--\":121:133   */\n      revert\n        /* \"--CODEGEN--\":8:10   */\n    tag_14:\n        /* \"ichoronium-galactic-contracts/users/ichorProfiles.sol\":1118:1971  function addGamer(string memory _realFirstName, \r... */\n      swap2\n      swap1\n      dup1\n      dup1\n      0x1f\n      add\n      0x20\n      dup1\n      swap2\n      div\n      mul\n      0x20\n      add\n      mload(0x40)\n      swap1\n      dup2\n      add\n      0x40\n      mstore\n      dup1\n      swap4\n      swap3\n      swap2\n      swap1\n      dup2\n      dup2\n      mstore\n      0x20\n      add\n      dup4\n      dup4\n        /* \"--CODEGEN--\":30:33   */\n      dup1\n        /* \"--CODEGEN--\":22:28   */\n      dup3\n        /* \"--CODEGEN--\":14:20   */\n      dup5\n        /* \"--CODEGEN--\":1:34   */\n      calldatacopy\n        /* \"--CODEGEN--\":99:100   */\n      0x00\n        /* \"--CODEGEN--\":93:96   */\n      dup2\n        /* \"--CODEGEN--\":85:91   */\n      dup5\n        /* \"--CODEGEN--\":81:97   */\n      add\n        /* \"--CODEGEN--\":74:101   */\n      mstore\n        /* \"--CODEGEN--\":137:141   */\n      0x1f\n        /* \"--CODEGEN--\":133:142   */\n      not\n        /* \"--CODEGEN--\":126:130   */\n      0x1f\n        /* \"--CODEGEN--\":121:124   */\n      dup3\n        /* \"--CODEGEN--\":117:131   */\n      add\n        /* \"--CODEGEN--\":113:143   */\n      and\n        /* \"--CODEGEN--\":106:143   */\n      swap1\n      pop\n        /* \"--CODEGEN--\":169:172   */\n      dup1\n        /* \"--CODEGEN--\":161:167   */\n      dup4\n        /* \"--CODEGEN--\":157:173   */\n      add\n        /* \"--CODEGEN--\":147:173   */\n      swap3\n      pop\n        /* \"ichoronium-galactic-contracts/users/ichorProfiles.sol\":1118:1971  function addGamer(string memory _realFirstName, \r... */\n      pop\n      pop\n      pop\n      pop\n      pop\n      pop\n      swap2\n      swap3\n      swap2\n      swap3\n      swap1\n      dup1\n      calldataload\n      swap1\n      0x20\n      add\n      swap1\n        /* \"--CODEGEN--\":21:32   */\n      0x0100000000\n        /* \"--CODEGEN--\":8:19   */\n      dup2\n        /* \"--CODEGEN--\":5:33   */\n      gt\n        /* \"--CODEGEN--\":2:4   */\n      iszero\n      tag_15\n      jumpi\n        /* \"--CODEGEN--\":46:47   */\n      0x00\n        /* \"--CODEGEN--\":43:44   */\n      dup1\n        /* \"--CODEGEN--\":36:48   */\n      revert\n        /* \"--CODEGEN--\":2:4   */\n    tag_15:\n        /* \"ichoronium-galactic-contracts/users/ichorProfiles.sol\":1118:1971  function addGamer(string memory _realFirstName, \r... */\n      dup3\n      add\n        /* \"--CODEGEN--\":35:44   */\n      dup4\n        /* \"--CODEGEN--\":28:32   */\n      0x20\n        /* \"--CODEGEN--\":12:26   */\n      dup3\n        /* \"--CODEGEN--\":8:33   */\n      add\n        /* \"--CODEGEN--\":5:45   */\n      gt\n        /* \"--CODEGEN--\":2:4   */\n      iszero\n      tag_16\n      jumpi\n        /* \"--CODEGEN--\":58:59   */\n      0x00\n        /* \"--CODEGEN--\":55:56   */\n      dup1\n        /* \"--CODEGEN--\":48:60   */\n      revert\n        /* \"--CODEGEN--\":2:4   */\n    tag_16:\n        /* \"ichoronium-galactic-contracts/users/ichorProfiles.sol\":1118:1971  function addGamer(string memory _realFirstName, \r... */\n      dup1\n      calldataload\n      swap1\n      0x20\n      add\n      swap2\n        /* \"--CODEGEN--\":100:109   */\n      dup5\n        /* \"--CODEGEN--\":95:96   */\n      0x01\n        /* \"--CODEGEN--\":81:93   */\n      dup4\n        /* \"--CODEGEN--\":77:97   */\n      mul\n        /* \"--CODEGEN--\":67:75   */\n      dup5\n        /* \"--CODEGEN--\":63:98   */\n      add\n        /* \"--CODEGEN--\":60:110   */\n      gt\n        /* \"--CODEGEN--\":39:50   */\n      0x0100000000\n        /* \"--CODEGEN--\":25:37   */\n      dup4\n        /* \"--CODEGEN--\":22:51   */\n      gt\n        /* \"--CODEGEN--\":11:118   */\n      or\n        /* \"--CODEGEN--\":8:10   */\n      iszero\n      tag_17\n      jumpi\n        /* \"--CODEGEN--\":131:132   */\n      0x00\n        /* \"--CODEGEN--\":128:129   */\n      dup1\n        /* \"--CODEGEN--\":121:133   */\n      revert\n        /* \"--CODEGEN--\":8:10   */\n    tag_17:\n        /* \"ichoronium-galactic-contracts/users/ichorProfiles.sol\":1118:1971  function addGamer(string memory _realFirstName, \r... */\n      swap2\n      swap1\n      dup1\n      dup1\n      0x1f\n      add\n      0x20\n      dup1\n      swap2\n      div\n      mul\n      0x20\n      add\n      mload(0x40)\n      swap1\n      dup2\n      add\n      0x40\n      mstore\n      dup1\n      swap4\n      swap3\n      swap2\n      swap1\n      dup2\n      dup2\n      mstore\n      0x20\n      add\n      dup4\n      dup4\n        /* \"--CODEGEN--\":30:33   */\n      dup1\n        /* \"--CODEGEN--\":22:28   */\n      dup3\n        /* \"--CODEGEN--\":14:20   */\n      dup5\n        /* \"--CODEGEN--\":1:34   */\n      calldatacopy\n        /* \"--CODEGEN--\":99:100   */\n      0x00\n        /* \"--CODEGEN--\":93:96   */\n      dup2\n        /* \"--CODEGEN--\":85:91   */\n      dup5\n        /* \"--CODEGEN--\":81:97   */\n      add\n        /* \"--CODEGEN--\":74:101   */\n      mstore\n        /* \"--CODEGEN--\":137:141   */\n      0x1f\n        /* \"--CODEGEN--\":133:142   */\n      not\n        /* \"--CODEGEN--\":126:130   */\n      0x1f\n        /* \"--CODEGEN--\":121:124   */\n      dup3\n        /* \"--CODEGEN--\":117:131   */\n      add\n        /* \"--CODEGEN--\":113:143   */\n      and\n        /* \"--CODEGEN--\":106:143   */\n      swap1\n      pop\n        /* \"--CODEGEN--\":169:172   */\n      dup1\n        /* \"--CODEGEN--\":161:167   */\n      dup4\n        /* \"--CODEGEN--\":157:173   */\n      add\n        /* \"--CODEGEN--\":147:173   */\n      swap3\n      pop\n        /* \"ichoronium-galactic-contracts/users/ichorProfiles.sol\":1118:1971  function addGamer(string memory _realFirstName, \r... */\n      pop\n      pop\n      pop\n      pop\n      pop\n      pop\n      swap2\n      swap3\n      swap2\n      swap3\n      swap1\n      dup1\n      calldataload\n      swap1\n      0x20\n      add\n      swap1\n        /* \"--CODEGEN--\":21:32   */\n      0x0100000000\n        /* \"--CODEGEN--\":8:19   */\n      dup2\n        /* \"--CODEGEN--\":5:33   */\n      gt\n        /* \"--CODEGEN--\":2:4   */\n      iszero\n      tag_18\n      jumpi\n        /* \"--CODEGEN--\":46:47   */\n      0x00\n        /* \"--CODEGEN--\":43:44   */\n      dup1\n        /* \"--CODEGEN--\":36:48   */\n      revert\n        /* \"--CODEGEN--\":2:4   */\n    tag_18:\n        /* \"ichoronium-galactic-contracts/users/ichorProfiles.sol\":1118:1971  function addGamer(string memory _realFirstName, \r... */\n      dup3\n      add\n        /* \"--CODEGEN--\":35:44   */\n      dup4\n        /* \"--CODEGEN--\":28:32   */\n      0x20\n        /* \"--CODEGEN--\":12:26   */\n      dup3\n        /* \"--CODEGEN--\":8:33   */\n      add\n        /* \"--CODEGEN--\":5:45   */\n      gt\n        /* \"--CODEGEN--\":2:4   */\n      iszero\n      tag_19\n      jumpi\n        /* \"--CODEGEN--\":58:59   */\n      0x00\n        /* \"--CODEGEN--\":55:56   */\n      dup1\n        /* \"--CODEGEN--\":48:60   */\n      revert\n        /* \"--CODEGEN--\":2:4   */\n    tag_19:\n        /* \"ichoronium-galactic-contracts/users/ichorProfiles.sol\":1118:1971  function addGamer(string memory _realFirstName, \r... */\n      dup1\n      calldataload\n      swap1\n      0x20\n      add\n      swap2\n        /* \"--CODEGEN--\":100:109   */\n      dup5\n        /* \"--CODEGEN--\":95:96   */\n      0x01\n        /* \"--CODEGEN--\":81:93   */\n      dup4\n        /* \"--CODEGEN--\":77:97   */\n      mul\n        /* \"--CODEGEN--\":67:75   */\n      dup5\n        /* \"--CODEGEN--\":63:98   */\n      add\n        /* \"--CODEGEN--\":60:110   */\n      gt\n        /* \"--CODEGEN--\":39:50   */\n      0x0100000000\n        /* \"--CODEGEN--\":25:37   */\n      dup4\n        /* \"--CODEGEN--\":22:51   */\n      gt\n        /* \"--CODEGEN--\":11:118   */\n      or\n        /* \"--CODEGEN--\":8:10   */\n      iszero\n      tag_20\n      jumpi\n        /* \"--CODEGEN--\":131:132   */\n      0x00\n        /* \"--CODEGEN--\":128:129   */\n      dup1\n        /* \"--CODEGEN--\":121:133   */\n      revert\n        /* \"--CODEGEN--\":8:10   */\n    tag_20:\n        /* \"ichoronium-galactic-contracts/users/ichorProfiles.sol\":1118:1971  function addGamer(string memory _realFirstName, \r... */\n      swap2\n      swap1\n      dup1\n      dup1\n      0x1f\n      add\n      0x20\n      dup1\n      swap2\n      div\n      mul\n      0x20\n      add\n      mload(0x40)\n      swap1\n      dup2\n      add\n      0x40\n      mstore\n      dup1\n      swap4\n      swap3\n      swap2\n      swap1\n      dup2\n      dup2\n      mstore\n      0x20\n      add\n      dup4\n      dup4\n        /* \"--CODEGEN--\":30:33   */\n      dup1\n        /* \"--CODEGEN--\":22:28   */\n      dup3\n        /* \"--CODEGEN--\":14:20   */\n      dup5\n        /* \"--CODEGEN--\":1:34   */\n      calldatacopy\n        /* \"--CODEGEN--\":99:100   */\n      0x00\n        /* \"--CODEGEN--\":93:96   */\n      dup2\n        /* \"--CODEGEN--\":85:91   */\n      dup5\n        /* \"--CODEGEN--\":81:97   */\n      add\n        /* \"--CODEGEN--\":74:101   */\n      mstore\n        /* \"--CODEGEN--\":137:141   */\n      0x1f\n        /* \"--CODEGEN--\":133:142   */\n      not\n        /* \"--CODEGEN--\":126:130   */\n      0x1f\n        /* \"--CODEGEN--\":121:124   */\n      dup3\n        /* \"--CODEGEN--\":117:131   */\n      add\n        /* \"--CODEGEN--\":113:143   */\n      and\n        /* \"--CODEGEN--\":106:143   */\n      swap1\n      pop\n        /* \"--CODEGEN--\":169:172   */\n      dup1\n        /* \"--CODEGEN--\":161:167   */\n      dup4\n        /* \"--CODEGEN--\":157:173   */\n      add\n        /* \"--CODEGEN--\":147:173   */\n      swap3\n      pop\n        /* \"ichoronium-galactic-contracts/users/ichorProfiles.sol\":1118:1971  function addGamer(string memory _realFirstName, \r... */\n      pop\n      pop\n      pop\n      pop\n      pop\n      pop\n      swap2\n      swap3\n      swap2\n      swap3\n      swap1\n      dup1\n      calldataload\n      swap1\n      0x20\n      add\n      swap1\n      swap3\n      swap2\n      swap1\n      pop\n      pop\n      pop\n      tag_21\n      jump\t// in\n    tag_10:\n      stop\n        /* \"ichoronium-galactic-contracts/users/ichorProfiles.sol\":161:200  mapping(uint256 => Gamer) public gamers */\n    tag_5:\n      tag_22\n      0x04\n      dup1\n      calldatasize\n      sub\n        /* \"--CODEGEN--\":13:15   */\n      0x20\n        /* \"--CODEGEN--\":8:11   */\n      dup2\n        /* \"--CODEGEN--\":5:16   */\n      lt\n        /* \"--CODEGEN--\":2:4   */\n      iszero\n      tag_23\n      jumpi\n        /* \"--CODEGEN--\":29:30   */\n      0x00\n        /* \"--CODEGEN--\":26:27   */\n      dup1\n        /* \"--CODEGEN--\":19:31   */\n      revert\n        /* \"--CODEGEN--\":2:4   */\n    tag_23:\n        /* \"ichoronium-galactic-contracts/users/ichorProfiles.sol\":161:200  mapping(uint256 => Gamer) public gamers */\n      dup2\n      add\n      swap1\n      dup1\n      dup1\n      calldataload\n      swap1\n      0x20\n      add\n      swap1\n      swap3\n      swap2\n      swap1\n      pop\n      pop\n      pop\n      tag_24\n      jump\t// in\n    tag_22:\n      mload(0x40)\n      dup1\n      dup9\n      dup2\n      mstore\n      0x20\n      add\n      dup8\n      dup2\n      mstore\n      0x20\n      add\n      dup1\n      0x20\n      add\n      dup1\n      0x20\n      add\n      dup1\n      0x20\n      add\n      dup7\n      dup2\n      mstore\n      0x20\n      add\n      dup6\n      dup2\n      mstore\n      0x20\n      add\n      dup5\n      dup2\n      sub\n      dup5\n      mstore\n      dup10\n      dup2\n      dup2\n      mload\n      dup2\n      mstore\n      0x20\n      add\n      swap2\n      pop\n      dup1\n      mload\n      swap1\n      0x20\n      add\n      swap1\n      dup1\n      dup4\n      dup4\n        /* \"--CODEGEN--\":23:24   */\n      0x00\n        /* \"--CODEGEN--\":8:108   */\n    tag_25:\n        /* \"--CODEGEN--\":33:36   */\n      dup4\n        /* \"--CODEGEN--\":30:31   */\n      dup2\n        /* \"--CODEGEN--\":27:37   */\n      lt\n        /* \"--CODEGEN--\":8:108   */\n      iszero\n      tag_27\n      jumpi\n        /* \"--CODEGEN--\":99:100   */\n      dup1\n        /* \"--CODEGEN--\":94:97   */\n      dup3\n        /* \"--CODEGEN--\":90:101   */\n      add\n        /* \"--CODEGEN--\":84:102   */\n      mload\n        /* \"--CODEGEN--\":80:81   */\n      dup2\n        /* \"--CODEGEN--\":75:78   */\n      dup5\n        /* \"--CODEGEN--\":71:82   */\n      add\n        /* \"--CODEGEN--\":64:103   */\n      mstore\n        /* \"--CODEGEN--\":52:54   */\n      0x20\n        /* \"--CODEGEN--\":49:50   */\n      dup2\n        /* \"--CODEGEN--\":45:55   */\n      add\n        /* \"--CODEGEN--\":40:55   */\n      swap1\n      pop\n        /* \"--CODEGEN--\":8:108   */\n      jump(tag_25)\n    tag_27:\n        /* \"--CODEGEN--\":12:26   */\n      pop\n        /* \"ichoronium-galactic-contracts/users/ichorProfiles.sol\":161:200  mapping(uint256 => Gamer) public gamers */\n      pop\n      pop\n      pop\n      swap1\n      pop\n      swap1\n      dup2\n      add\n      swap1\n      0x1f\n      and\n      dup1\n      iszero\n      tag_28\n      jumpi\n      dup1\n      dup3\n      sub\n      dup1\n      mload\n      0x01\n      dup4\n      0x20\n      sub\n      0x0100\n      exp\n      sub\n      not\n      and\n      dup2\n      mstore\n      0x20\n      add\n      swap2\n      pop\n    tag_28:\n      pop\n      dup5\n      dup2\n      sub\n      dup4\n      mstore\n      dup9\n      dup2\n      dup2\n      mload\n      dup2\n      mstore\n      0x20\n      add\n      swap2\n      pop\n      dup1\n      mload\n      swap1\n      0x20\n      add\n      swap1\n      dup1\n      dup4\n      dup4\n        /* \"--CODEGEN--\":23:24   */\n      0x00\n        /* \"--CODEGEN--\":8:108   */\n    tag_29:\n        /* \"--CODEGEN--\":33:36   */\n      dup4\n        /* \"--CODEGEN--\":30:31   */\n      dup2\n        /* \"--CODEGEN--\":27:37   */\n      lt\n        /* \"--CODEGEN--\":8:108   */\n      iszero\n      tag_31\n      jumpi\n        /* \"--CODEGEN--\":99:100   */\n      dup1\n        /* \"--CODEGEN--\":94:97   */\n      dup3\n        /* \"--CODEGEN--\":90:101   */\n      add\n        /* \"--CODEGEN--\":84:102   */\n      mload\n        /* \"--CODEGEN--\":80:81   */\n      dup2\n        /* \"--CODEGEN--\":75:78   */\n      dup5\n        /* \"--CODEGEN--\":71:82   */\n      add\n        /* \"--CODEGEN--\":64:103   */\n      mstore\n        /* \"--CODEGEN--\":52:54   */\n      0x20\n        /* \"--CODEGEN--\":49:50   */\n      dup2\n        /* \"--CODEGEN--\":45:55   */\n      add\n        /* \"--CODEGEN--\":40:55   */\n      swap1\n      pop\n        /* \"--CODEGEN--\":8:108   */\n      jump(tag_29)\n    tag_31:\n        /* \"--CODEGEN--\":12:26   */\n      pop\n        /* \"ichoronium-galactic-contracts/users/ichorProfiles.sol\":161:200  mapping(uint256 => Gamer) public gamers */\n      pop\n      pop\n      pop\n      swap1\n      pop\n      swap1\n      dup2\n      add\n      swap1\n      0x1f\n      and\n      dup1\n      iszero\n      tag_32\n      jumpi\n      dup1\n      dup3\n      sub\n      dup1\n      mload\n      0x01\n      dup4\n      0x20\n      sub\n      0x0100\n      exp\n      sub\n      not\n      and\n      dup2\n      mstore\n      0x20\n      add\n      swap2\n      pop\n    tag_32:\n      pop\n      dup5\n      dup2\n      sub\n      dup3\n      mstore\n      dup8\n      dup2\n      dup2\n      mload\n      dup2\n      mstore\n      0x20\n      add\n      swap2\n      pop\n      dup1\n      mload\n      swap1\n      0x20\n      add\n      swap1\n      dup1\n      dup4\n      dup4\n        /* \"--CODEGEN--\":23:24   */\n      0x00\n        /* \"--CODEGEN--\":8:108   */\n    tag_33:\n        /* \"--CODEGEN--\":33:36   */\n      dup4\n        /* \"--CODEGEN--\":30:31   */\n      dup2\n        /* \"--CODEGEN--\":27:37   */\n      lt\n        /* \"--CODEGEN--\":8:108   */\n      iszero\n      tag_35\n      jumpi\n        /* \"--CODEGEN--\":99:100   */\n      dup1\n        /* \"--CODEGEN--\":94:97   */\n      dup3\n        /* \"--CODEGEN--\":90:101   */\n      add\n        /* \"--CODEGEN--\":84:102   */\n      mload\n        /* \"--CODEGEN--\":80:81   */\n      dup2\n        /* \"--CODEGEN--\":75:78   */\n      dup5\n        /* \"--CODEGEN--\":71:82   */\n      add\n        /* \"--CODEGEN--\":64:103   */\n      mstore\n        /* \"--CODEGEN--\":52:54   */\n      0x20\n        /* \"--CODEGEN--\":49:50   */\n      dup2\n        /* \"--CODEGEN--\":45:55   */\n      add\n        /* \"--CODEGEN--\":40:55   */\n      swap1\n      pop\n        /* \"--CODEGEN--\":8:108   */\n      jump(tag_33)\n    tag_35:\n        /* \"--CODEGEN--\":12:26   */\n      pop\n        /* \"ichoronium-galactic-contracts/users/ichorProfiles.sol\":161:200  mapping(uint256 => Gamer) public gamers */\n      pop\n      pop\n      pop\n      swap1\n      pop\n      swap1\n      dup2\n      add\n      swap1\n      0x1f\n      and\n      dup1\n      iszero\n      tag_36\n      jumpi\n      dup1\n      dup3\n      sub\n      dup1\n      mload\n      0x01\n      dup4\n      0x20\n      sub\n      0x0100\n      exp\n      sub\n      not\n      and\n      dup2\n      mstore\n      0x20\n      add\n      swap2\n      pop\n    tag_36:\n      pop\n      swap11\n      pop\n      pop\n      pop\n      pop\n      pop\n      pop\n      pop\n      pop\n      pop\n      pop\n      pop\n      mload(0x40)\n      dup1\n      swap2\n      sub\n      swap1\n      return\n        /* \"ichoronium-galactic-contracts/users/ichorProfiles.sol\":1977:2417  function checkBenefactorExist (uint256 _benefactor)\r... */\n    tag_6:\n      tag_37\n      0x04\n      dup1\n      calldatasize\n      sub\n        /* \"--CODEGEN--\":13:15   */\n      0x20\n        /* \"--CODEGEN--\":8:11   */\n      dup2\n        /* \"--CODEGEN--\":5:16   */\n      lt\n        /* \"--CODEGEN--\":2:4   */\n      iszero\n      tag_38\n      jumpi\n        /* \"--CODEGEN--\":29:30   */\n      0x00\n        /* \"--CODEGEN--\":26:27   */\n      dup1\n        /* \"--CODEGEN--\":19:31   */\n      revert\n        /* \"--CODEGEN--\":2:4   */\n    tag_38:\n        /* \"ichoronium-galactic-contracts/users/ichorProfiles.sol\":1977:2417  function checkBenefactorExist (uint256 _benefactor)\r... */\n      dup2\n      add\n      swap1\n      dup1\n      dup1\n      calldataload\n      swap1\n      0x20\n      add\n      swap1\n      swap3\n      swap2\n      swap1\n      pop\n      pop\n      pop\n      tag_39\n      jump\t// in\n    tag_37:\n      stop\n        /* \"ichoronium-galactic-contracts/users/ichorProfiles.sol\":207:254  mapping(uint256 => gamerFlag) public gamerFlags */\n    tag_9:\n      mstore(0x20, 0x02)\n      dup1\n      0x00\n      mstore\n      keccak256(0x00, 0x40)\n      0x00\n      swap2\n      pop\n      swap1\n      pop\n      dup1\n      0x00\n      add\n      sload\n      swap1\n      dup1\n      0x01\n      add\n      0x00\n      swap1\n      sload\n      swap1\n      0x0100\n      exp\n      swap1\n      div\n      0xff\n      and\n      swap1\n      dup1\n      0x01\n      add\n      0x01\n      swap1\n      sload\n      swap1\n      0x0100\n      exp\n      swap1\n      div\n      0xff\n      and\n      swap1\n      dup1\n      0x01\n      add\n      0x02\n      swap1\n      sload\n      swap1\n      0x0100\n      exp\n      swap1\n      div\n      0xff\n      and\n      swap1\n      dup1\n      0x01\n      add\n      0x03\n      swap1\n      sload\n      swap1\n      0x0100\n      exp\n      swap1\n      div\n      0xff\n      and\n      swap1\n      dup1\n      0x01\n      add\n      0x04\n      swap1\n      sload\n      swap1\n      0x0100\n      exp\n      swap1\n      div\n      0xff\n      and\n      swap1\n      dup1\n      0x01\n      add\n      0x05\n      swap1\n      sload\n      swap1\n      0x0100\n      exp\n      swap1\n      div\n      0xff\n      and\n      swap1\n      dup1\n      0x02\n      add\n      sload\n      swap1\n      dup1\n      0x03\n      add\n      sload\n      swap1\n      dup1\n      0x04\n      add\n      sload\n      swap1\n      dup1\n      0x05\n      add\n      sload\n      swap1\n      pop\n      dup12\n      jump\t// out\n        /* \"ichoronium-galactic-contracts/users/ichorProfiles.sol\":1118:1971  function addGamer(string memory _realFirstName, \r... */\n    tag_21:\n        /* \"ichoronium-galactic-contracts/users/ichorProfiles.sol\":977:982  owner */\n      0x03\n      0x00\n      swap1\n      sload\n      swap1\n      0x0100\n      exp\n      swap1\n      div\n      0xffffffffffffffffffffffffffffffffffffffff\n      and\n        /* \"ichoronium-galactic-contracts/users/ichorProfiles.sol\":963:982  msg.sender == owner */\n      0xffffffffffffffffffffffffffffffffffffffff\n      and\n        /* \"ichoronium-galactic-contracts/users/ichorProfiles.sol\":963:973  msg.sender */\n      caller\n        /* \"ichoronium-galactic-contracts/users/ichorProfiles.sol\":963:982  msg.sender == owner */\n      0xffffffffffffffffffffffffffffffffffffffff\n      and\n      eq\n        /* \"ichoronium-galactic-contracts/users/ichorProfiles.sol\":954:983  require (msg.sender == owner) */\n      tag_41\n      jumpi\n      0x00\n      dup1\n      revert\n    tag_41:\n        /* \"ichoronium-galactic-contracts/users/ichorProfiles.sol\":1443:1444  0 */\n      0x00\n        /* \"ichoronium-galactic-contracts/users/ichorProfiles.sol\":1429:1439  gamerCount */\n      dup1\n      sload\n        /* \"ichoronium-galactic-contracts/users/ichorProfiles.sol\":1429:1444  gamerCount == 0 */\n      eq\n        /* \"ichoronium-galactic-contracts/users/ichorProfiles.sol\":1425:1595  if (gamerCount == 0){\r... */\n      iszero\n      tag_43\n      jumpi\n        /* \"ichoronium-galactic-contracts/users/ichorProfiles.sol\":1474:1489  addFirstGamer() */\n      tag_44\n        /* \"ichoronium-galactic-contracts/users/ichorProfiles.sol\":1474:1487  addFirstGamer */\n      tag_45\n        /* \"ichoronium-galactic-contracts/users/ichorProfiles.sol\":1474:1489  addFirstGamer() */\n      jump\t// in\n    tag_44:\n        /* \"ichoronium-galactic-contracts/users/ichorProfiles.sol\":1521:1537  incrementCount() */\n      tag_46\n        /* \"ichoronium-galactic-contracts/users/ichorProfiles.sol\":1521:1535  incrementCount */\n      tag_47\n        /* \"ichoronium-galactic-contracts/users/ichorProfiles.sol\":1521:1537  incrementCount() */\n      jump\t// in\n    tag_46:\n        /* \"ichoronium-galactic-contracts/users/ichorProfiles.sol\":1425:1595  if (gamerCount == 0){\r... */\n    tag_43:\n        /* \"ichoronium-galactic-contracts/users/ichorProfiles.sol\":1620:1653  checkBenefactorExist(_benefactor) */\n      tag_48\n        /* \"ichoronium-galactic-contracts/users/ichorProfiles.sol\":1641:1652  _benefactor */\n      dup2\n        /* \"ichoronium-galactic-contracts/users/ichorProfiles.sol\":1620:1640  checkBenefactorExist */\n      tag_39\n        /* \"ichoronium-galactic-contracts/users/ichorProfiles.sol\":1620:1653  checkBenefactorExist(_benefactor) */\n      jump\t// in\n    tag_48:\n        /* \"ichoronium-galactic-contracts/users/ichorProfiles.sol\":1679:1695  incrementCount() */\n      tag_49\n        /* \"ichoronium-galactic-contracts/users/ichorProfiles.sol\":1679:1693  incrementCount */\n      tag_47\n        /* \"ichoronium-galactic-contracts/users/ichorProfiles.sol\":1679:1695  incrementCount() */\n      jump\t// in\n    tag_49:\n        /* \"ichoronium-galactic-contracts/users/ichorProfiles.sol\":1742:1831  Gamer(gamerCount,todaysDate,_realFirstName,_realLastName,_officialUserName,0,_benefactor) */\n      mload(0x40)\n      dup1\n      0xe0\n      add\n      0x40\n      mstore\n      dup1\n        /* \"ichoronium-galactic-contracts/users/ichorProfiles.sol\":1748:1758  gamerCount */\n      sload(0x00)\n        /* \"ichoronium-galactic-contracts/users/ichorProfiles.sol\":1742:1831  Gamer(gamerCount,todaysDate,_realFirstName,_realLastName,_officialUserName,0,_benefactor) */\n      dup2\n      mstore\n      0x20\n      add\n        /* \"ichoronium-galactic-contracts/users/ichorProfiles.sol\":1759:1769  todaysDate */\n      sload(0x04)\n        /* \"ichoronium-galactic-contracts/users/ichorProfiles.sol\":1742:1831  Gamer(gamerCount,todaysDate,_realFirstName,_realLastName,_officialUserName,0,_benefactor) */\n      dup2\n      mstore\n      0x20\n      add\n        /* \"ichoronium-galactic-contracts/users/ichorProfiles.sol\":1770:1784  _realFirstName */\n      dup6\n        /* \"ichoronium-galactic-contracts/users/ichorProfiles.sol\":1742:1831  Gamer(gamerCount,todaysDate,_realFirstName,_realLastName,_officialUserName,0,_benefactor) */\n      dup2\n      mstore\n      0x20\n      add\n        /* \"ichoronium-galactic-contracts/users/ichorProfiles.sol\":1785:1798  _realLastName */\n      dup5\n        /* \"ichoronium-galactic-contracts/users/ichorProfiles.sol\":1742:1831  Gamer(gamerCount,todaysDate,_realFirstName,_realLastName,_officialUserName,0,_benefactor) */\n      dup2\n      mstore\n      0x20\n      add\n        /* \"ichoronium-galactic-contracts/users/ichorProfiles.sol\":1799:1816  _officialUserName */\n      dup4\n        /* \"ichoronium-galactic-contracts/users/ichorProfiles.sol\":1742:1831  Gamer(gamerCount,todaysDate,_realFirstName,_realLastName,_officialUserName,0,_benefactor) */\n      dup2\n      mstore\n      0x20\n      add\n        /* \"ichoronium-galactic-contracts/users/ichorProfiles.sol\":1817:1818  0 */\n      0x00\n        /* \"ichoronium-galactic-contracts/users/ichorProfiles.sol\":1742:1831  Gamer(gamerCount,todaysDate,_realFirstName,_realLastName,_officialUserName,0,_benefactor) */\n      dup2\n      mstore\n      0x20\n      add\n        /* \"ichoronium-galactic-contracts/users/ichorProfiles.sol\":1819:1830  _benefactor */\n      dup3\n        /* \"ichoronium-galactic-contracts/users/ichorProfiles.sol\":1742:1831  Gamer(gamerCount,todaysDate,_realFirstName,_realLastName,_officialUserName,0,_benefactor) */\n      dup2\n      mstore\n      pop\n        /* \"ichoronium-galactic-contracts/users/ichorProfiles.sol\":1721:1727  gamers */\n      0x01\n        /* \"ichoronium-galactic-contracts/users/ichorProfiles.sol\":1721:1739  gamers[gamerCount] */\n      0x00\n        /* \"ichoronium-galactic-contracts/users/ichorProfiles.sol\":1728:1738  gamerCount */\n      dup1\n      sload\n        /* \"ichoronium-galactic-contracts/users/ichorProfiles.sol\":1721:1739  gamers[gamerCount] */\n      dup2\n      mstore\n      0x20\n      add\n      swap1\n      dup2\n      mstore\n      0x20\n      add\n      0x00\n      keccak256\n        /* \"ichoronium-galactic-contracts/users/ichorProfiles.sol\":1721:1831  gamers[gamerCount] = Gamer(gamerCount,todaysDate,_realFirstName,_realLastName,_officialUserName,0,_benefactor) */\n      0x00\n      dup3\n      add\n      mload\n      dup2\n      0x00\n      add\n      sstore\n      0x20\n      dup3\n      add\n      mload\n      dup2\n      0x01\n      add\n      sstore\n      0x40\n      dup3\n      add\n      mload\n      dup2\n      0x02\n      add\n      swap1\n      dup1\n      mload\n      swap1\n      0x20\n      add\n      swap1\n      tag_50\n      swap3\n      swap2\n      swap1\n      tag_51\n      jump\t// in\n    tag_50:\n      pop\n      0x60\n      dup3\n      add\n      mload\n      dup2\n      0x03\n      add\n      swap1\n      dup1\n      mload\n      swap1\n      0x20\n      add\n      swap1\n      tag_52\n      swap3\n      swap2\n      swap1\n      tag_51\n      jump\t// in\n    tag_52:\n      pop\n      0x80\n      dup3\n      add\n      mload\n      dup2\n      0x04\n      add\n      swap1\n      dup1\n      mload\n      swap1\n      0x20\n      add\n      swap1\n      tag_53\n      swap3\n      swap2\n      swap1\n      tag_51\n      jump\t// in\n    tag_53:\n      pop\n      0xa0\n      dup3\n      add\n      mload\n      dup2\n      0x05\n      add\n      sstore\n      0xc0\n      dup3\n      add\n      mload\n      dup2\n      0x06\n      add\n      sstore\n      swap1\n      pop\n      pop\n        /* \"ichoronium-galactic-contracts/users/ichorProfiles.sol\":1882:1947  gamerFlag(gamerCount,false,false,false,false,false,false,0,0,0,0) */\n      mload(0x40)\n      dup1\n      0x0160\n      add\n      0x40\n      mstore\n      dup1\n        /* \"ichoronium-galactic-contracts/users/ichorProfiles.sol\":1892:1902  gamerCount */\n      sload(0x00)\n        /* \"ichoronium-galactic-contracts/users/ichorProfiles.sol\":1882:1947  gamerFlag(gamerCount,false,false,false,false,false,false,0,0,0,0) */\n      dup2\n      mstore\n      0x20\n      add\n        /* \"ichoronium-galactic-contracts/users/ichorProfiles.sol\":1903:1908  false */\n      0x00\n        /* \"ichoronium-galactic-contracts/users/ichorProfiles.sol\":1882:1947  gamerFlag(gamerCount,false,false,false,false,false,false,0,0,0,0) */\n      iszero\n      iszero\n      dup2\n      mstore\n      0x20\n      add\n        /* \"ichoronium-galactic-contracts/users/ichorProfiles.sol\":1909:1914  false */\n      0x00\n        /* \"ichoronium-galactic-contracts/users/ichorProfiles.sol\":1882:1947  gamerFlag(gamerCount,false,false,false,false,false,false,0,0,0,0) */\n      iszero\n      iszero\n      dup2\n      mstore\n      0x20\n      add\n        /* \"ichoronium-galactic-contracts/users/ichorProfiles.sol\":1915:1920  false */\n      0x00\n        /* \"ichoronium-galactic-contracts/users/ichorProfiles.sol\":1882:1947  gamerFlag(gamerCount,false,false,false,false,false,false,0,0,0,0) */\n      iszero\n      iszero\n      dup2\n      mstore\n      0x20\n      add\n        /* \"ichoronium-galactic-contracts/users/ichorProfiles.sol\":1921:1926  false */\n      0x00\n        /* \"ichoronium-galactic-contracts/users/ichorProfiles.sol\":1882:1947  gamerFlag(gamerCount,false,false,false,false,false,false,0,0,0,0) */\n      iszero\n      iszero\n      dup2\n      mstore\n      0x20\n      add\n        /* \"ichoronium-galactic-contracts/users/ichorProfiles.sol\":1927:1932  false */\n      0x00\n        /* \"ichoronium-galactic-contracts/users/ichorProfiles.sol\":1882:1947  gamerFlag(gamerCount,false,false,false,false,false,false,0,0,0,0) */\n      iszero\n      iszero\n      dup2\n      mstore\n      0x20\n      add\n        /* \"ichoronium-galactic-contracts/users/ichorProfiles.sol\":1933:1938  false */\n      0x00\n        /* \"ichoronium-galactic-contracts/users/ichorProfiles.sol\":1882:1947  gamerFlag(gamerCount,false,false,false,false,false,false,0,0,0,0) */\n      iszero\n      iszero\n      dup2\n      mstore\n      0x20\n      add\n        /* \"ichoronium-galactic-contracts/users/ichorProfiles.sol\":1939:1940  0 */\n      0x00\n        /* \"ichoronium-galactic-contracts/users/ichorProfiles.sol\":1882:1947  gamerFlag(gamerCount,false,false,false,false,false,false,0,0,0,0) */\n      dup2\n      mstore\n      0x20\n      add\n        /* \"ichoronium-galactic-contracts/users/ichorProfiles.sol\":1941:1942  0 */\n      0x00\n        /* \"ichoronium-galactic-contracts/users/ichorProfiles.sol\":1882:1947  gamerFlag(gamerCount,false,false,false,false,false,false,0,0,0,0) */\n      dup2\n      mstore\n      0x20\n      add\n        /* \"ichoronium-galactic-contracts/users/ichorProfiles.sol\":1943:1944  0 */\n      0x00\n        /* \"ichoronium-galactic-contracts/users/ichorProfiles.sol\":1882:1947  gamerFlag(gamerCount,false,false,false,false,false,false,0,0,0,0) */\n      dup2\n      mstore\n      0x20\n      add\n        /* \"ichoronium-galactic-contracts/users/ichorProfiles.sol\":1945:1946  0 */\n      0x00\n        /* \"ichoronium-galactic-contracts/users/ichorProfiles.sol\":1882:1947  gamerFlag(gamerCount,false,false,false,false,false,false,0,0,0,0) */\n      dup2\n      mstore\n      pop\n        /* \"ichoronium-galactic-contracts/users/ichorProfiles.sol\":1857:1867  gamerFlags */\n      0x02\n        /* \"ichoronium-galactic-contracts/users/ichorProfiles.sol\":1857:1879  gamerFlags[gamerCount] */\n      0x00\n        /* \"ichoronium-galactic-contracts/users/ichorProfiles.sol\":1868:1878  gamerCount */\n      dup1\n      sload\n        /* \"ichoronium-galactic-contracts/users/ichorProfiles.sol\":1857:1879  gamerFlags[gamerCount] */\n      dup2\n      mstore\n      0x20\n      add\n      swap1\n      dup2\n      mstore\n      0x20\n      add\n      0x00\n      keccak256\n        /* \"ichoronium-galactic-contracts/users/ichorProfiles.sol\":1857:1947  gamerFlags[gamerCount] = gamerFlag(gamerCount,false,false,false,false,false,false,0,0,0,0) */\n      0x00\n      dup3\n      add\n      mload\n      dup2\n      0x00\n      add\n      sstore\n      0x20\n      dup3\n      add\n      mload\n      dup2\n      0x01\n      add\n      exp(0x0100, 0x00)\n      dup2\n      sload\n      dup2\n      0xff\n      mul\n      not\n      and\n      swap1\n      dup4\n      iszero\n      iszero\n      mul\n      or\n      swap1\n      sstore\n      pop\n      0x40\n      dup3\n      add\n      mload\n      dup2\n      0x01\n      add\n      exp(0x0100, 0x01)\n      dup2\n      sload\n      dup2\n      0xff\n      mul\n      not\n      and\n      swap1\n      dup4\n      iszero\n      iszero\n      mul\n      or\n      swap1\n      sstore\n      pop\n      0x60\n      dup3\n      add\n      mload\n      dup2\n      0x01\n      add\n      exp(0x0100, 0x02)\n      dup2\n      sload\n      dup2\n      0xff\n      mul\n      not\n      and\n      swap1\n      dup4\n      iszero\n      iszero\n      mul\n      or\n      swap1\n      sstore\n      pop\n      0x80\n      dup3\n      add\n      mload\n      dup2\n      0x01\n      add\n      exp(0x0100, 0x03)\n      dup2\n      sload\n      dup2\n      0xff\n      mul\n      not\n      and\n      swap1\n      dup4\n      iszero\n      iszero\n      mul\n      or\n      swap1\n      sstore\n      pop\n      0xa0\n      dup3\n      add\n      mload\n      dup2\n      0x01\n      add\n      exp(0x0100, 0x04)\n      dup2\n      sload\n      dup2\n      0xff\n      mul\n      not\n      and\n      swap1\n      dup4\n      iszero\n      iszero\n      mul\n      or\n      swap1\n      sstore\n      pop\n      0xc0\n      dup3\n      add\n      mload\n      dup2\n      0x01\n      add\n      exp(0x0100, 0x05)\n      dup2\n      sload\n      dup2\n      0xff\n      mul\n      not\n      and\n      swap1\n      dup4\n      iszero\n      iszero\n      mul\n      or\n      swap1\n      sstore\n      pop\n      0xe0\n      dup3\n      add\n      mload\n      dup2\n      0x02\n      add\n      sstore\n      0x0100\n      dup3\n      add\n      mload\n      dup2\n      0x03\n      add\n      sstore\n      0x0120\n      dup3\n      add\n      mload\n      dup2\n      0x04\n      add\n      sstore\n      0x0140\n      dup3\n      add\n      mload\n      dup2\n      0x05\n      add\n      sstore\n      swap1\n      pop\n      pop\n        /* \"ichoronium-galactic-contracts/users/ichorProfiles.sol\":1118:1971  function addGamer(string memory _realFirstName, \r... */\n      pop\n      pop\n      pop\n      pop\n      jump\t// out\n        /* \"ichoronium-galactic-contracts/users/ichorProfiles.sol\":161:200  mapping(uint256 => Gamer) public gamers */\n    tag_24:\n      mstore(0x20, 0x01)\n      dup1\n      0x00\n      mstore\n      keccak256(0x00, 0x40)\n      0x00\n      swap2\n      pop\n      swap1\n      pop\n      dup1\n      0x00\n      add\n      sload\n      swap1\n      dup1\n      0x01\n      add\n      sload\n      swap1\n      dup1\n      0x02\n      add\n      dup1\n      sload\n      0x01\n      dup2\n      0x01\n      and\n      iszero\n      0x0100\n      mul\n      sub\n      and\n      0x02\n      swap1\n      div\n      dup1\n      0x1f\n      add\n      0x20\n      dup1\n      swap2\n      div\n      mul\n      0x20\n      add\n      mload(0x40)\n      swap1\n      dup2\n      add\n      0x40\n      mstore\n      dup1\n      swap3\n      swap2\n      swap1\n      dup2\n      dup2\n      mstore\n      0x20\n      add\n      dup3\n      dup1\n      sload\n      0x01\n      dup2\n      0x01\n      and\n      iszero\n      0x0100\n      mul\n      sub\n      and\n      0x02\n      swap1\n      div\n      dup1\n      iszero\n      tag_54\n      jumpi\n      dup1\n      0x1f\n      lt\n      tag_55\n      jumpi\n      0x0100\n      dup1\n      dup4\n      sload\n      div\n      mul\n      dup4\n      mstore\n      swap2\n      0x20\n      add\n      swap2\n      jump(tag_54)\n    tag_55:\n      dup3\n      add\n      swap2\n      swap1\n      0x00\n      mstore\n      keccak256(0x00, 0x20)\n      swap1\n    tag_56:\n      dup2\n      sload\n      dup2\n      mstore\n      swap1\n      0x01\n      add\n      swap1\n      0x20\n      add\n      dup1\n      dup4\n      gt\n      tag_56\n      jumpi\n      dup3\n      swap1\n      sub\n      0x1f\n      and\n      dup3\n      add\n      swap2\n    tag_54:\n      pop\n      pop\n      pop\n      pop\n      pop\n      swap1\n      dup1\n      0x03\n      add\n      dup1\n      sload\n      0x01\n      dup2\n      0x01\n      and\n      iszero\n      0x0100\n      mul\n      sub\n      and\n      0x02\n      swap1\n      div\n      dup1\n      0x1f\n      add\n      0x20\n      dup1\n      swap2\n      div\n      mul\n      0x20\n      add\n      mload(0x40)\n      swap1\n      dup2\n      add\n      0x40\n      mstore\n      dup1\n      swap3\n      swap2\n      swap1\n      dup2\n      dup2\n      mstore\n      0x20\n      add\n      dup3\n      dup1\n      sload\n      0x01\n      dup2\n      0x01\n      and\n      iszero\n      0x0100\n      mul\n      sub\n      and\n      0x02\n      swap1\n      div\n      dup1\n      iszero\n      tag_57\n      jumpi\n      dup1\n      0x1f\n      lt\n      tag_58\n      jumpi\n      0x0100\n      dup1\n      dup4\n      sload\n      div\n      mul\n      dup4\n      mstore\n      swap2\n      0x20\n      add\n      swap2\n      jump(tag_57)\n    tag_58:\n      dup3\n      add\n      swap2\n      swap1\n      0x00\n      mstore\n      keccak256(0x00, 0x20)\n      swap1\n    tag_59:\n      dup2\n      sload\n      dup2\n      mstore\n      swap1\n      0x01\n      add\n      swap1\n      0x20\n      add\n      dup1\n      dup4\n      gt\n      tag_59\n      jumpi\n      dup3\n      swap1\n      sub\n      0x1f\n      and\n      dup3\n      add\n      swap2\n    tag_57:\n      pop\n      pop\n      pop\n      pop\n      pop\n      swap1\n      dup1\n      0x04\n      add\n      dup1\n      sload\n      0x01\n      dup2\n      0x01\n      and\n      iszero\n      0x0100\n      mul\n      sub\n      and\n      0x02\n      swap1\n      div\n      dup1\n      0x1f\n      add\n      0x20\n      dup1\n      swap2\n      div\n      mul\n      0x20\n      add\n      mload(0x40)\n      swap1\n      dup2\n      add\n      0x40\n      mstore\n      dup1\n      swap3\n      swap2\n      swap1\n      dup2\n      dup2\n      mstore\n      0x20\n      add\n      dup3\n      dup1\n      sload\n      0x01\n      dup2\n      0x01\n      and\n      iszero\n      0x0100\n      mul\n      sub\n      and\n      0x02\n      swap1\n      div\n      dup1\n      iszero\n      tag_60\n      jumpi\n      dup1\n      0x1f\n      lt\n      tag_61\n      jumpi\n      0x0100\n      dup1\n      dup4\n      sload\n      div\n      mul\n      dup4\n      mstore\n      swap2\n      0x20\n      add\n      swap2\n      jump(tag_60)\n    tag_61:\n      dup3\n      add\n      swap2\n      swap1\n      0x00\n      mstore\n      keccak256(0x00, 0x20)\n      swap1\n    tag_62:\n      dup2\n      sload\n      dup2\n      mstore\n      swap1\n      0x01\n      add\n      swap1\n      0x20\n      add\n      dup1\n      dup4\n      gt\n      tag_62\n      jumpi\n      dup3\n      swap1\n      sub\n      0x1f\n      and\n      dup3\n      add\n      swap2\n    tag_60:\n      pop\n      pop\n      pop\n      pop\n      pop\n      swap1\n      dup1\n      0x05\n      add\n      sload\n      swap1\n      dup1\n      0x06\n      add\n      sload\n      swap1\n      pop\n      dup8\n      jump\t// out\n        /* \"ichoronium-galactic-contracts/users/ichorProfiles.sol\":1977:2417  function checkBenefactorExist (uint256 _benefactor)\r... */\n    tag_39:\n        /* \"ichoronium-galactic-contracts/users/ichorProfiles.sol\":2083:2101  uint256 beneNumber */\n      0x00\n        /* \"ichoronium-galactic-contracts/users/ichorProfiles.sol\":2104:2110  gamers */\n      0x01\n        /* \"ichoronium-galactic-contracts/users/ichorProfiles.sol\":2104:2123  gamers[_benefactor] */\n      0x00\n        /* \"ichoronium-galactic-contracts/users/ichorProfiles.sol\":2111:2122  _benefactor */\n      dup4\n        /* \"ichoronium-galactic-contracts/users/ichorProfiles.sol\":2104:2123  gamers[_benefactor] */\n      dup2\n      mstore\n      0x20\n      add\n      swap1\n      dup2\n      mstore\n      0x20\n      add\n      0x00\n      keccak256\n        /* \"ichoronium-galactic-contracts/users/ichorProfiles.sol\":2104:2127  gamers[_benefactor]._id */\n      0x00\n      add\n      sload\n        /* \"ichoronium-galactic-contracts/users/ichorProfiles.sol\":2083:2127  uint256 beneNumber = gamers[_benefactor]._id */\n      swap1\n      pop\n        /* \"ichoronium-galactic-contracts/users/ichorProfiles.sol\":2176:2177  0 */\n      0x00\n        /* \"ichoronium-galactic-contracts/users/ichorProfiles.sol\":2162:2172  beneNumber */\n      dup2\n        /* \"ichoronium-galactic-contracts/users/ichorProfiles.sol\":2162:2177  beneNumber >= 0 */\n      lt\n      iszero\n        /* \"ichoronium-galactic-contracts/users/ichorProfiles.sol\":2162:2205  beneNumber >= 0 && beneNumber <= gamerCount */\n      dup1\n      iszero\n      tag_64\n      jumpi\n      pop\n        /* \"ichoronium-galactic-contracts/users/ichorProfiles.sol\":2195:2205  gamerCount */\n      sload(0x00)\n        /* \"ichoronium-galactic-contracts/users/ichorProfiles.sol\":2181:2191  beneNumber */\n      dup2\n        /* \"ichoronium-galactic-contracts/users/ichorProfiles.sol\":2181:2205  beneNumber <= gamerCount */\n      gt\n      iszero\n        /* \"ichoronium-galactic-contracts/users/ichorProfiles.sol\":2162:2205  beneNumber >= 0 && beneNumber <= gamerCount */\n    tag_64:\n        /* \"ichoronium-galactic-contracts/users/ichorProfiles.sol\":2158:2390  if( beneNumber >= 0 && beneNumber <= gamerCount){\r... */\n      iszero\n      tag_65\n      jumpi\n      jump(tag_66)\n    tag_65:\n        /* \"ichoronium-galactic-contracts/users/ichorProfiles.sol\":2323:2358  revert(\"Benefactor Does Not Exist\") */\n      mload(0x40)\n      0x08c379a000000000000000000000000000000000000000000000000000000000\n      dup2\n      mstore\n      0x04\n      add\n      dup1\n      dup1\n      0x20\n      add\n      dup3\n      dup2\n      sub\n      dup3\n      mstore\n      0x19\n      dup2\n      mstore\n      0x20\n      add\n      dup1\n      0x42656e65666163746f7220446f6573204e6f7420457869737400000000000000\n      dup2\n      mstore\n      pop\n      0x20\n      add\n      swap2\n      pop\n      pop\n      mload(0x40)\n      dup1\n      swap2\n      sub\n      swap1\n      revert\n        /* \"ichoronium-galactic-contracts/users/ichorProfiles.sol\":2158:2390  if( beneNumber >= 0 && beneNumber <= gamerCount){\r... */\n    tag_66:\n        /* \"ichoronium-galactic-contracts/users/ichorProfiles.sol\":1977:2417  function checkBenefactorExist (uint256 _benefactor)\r... */\n      pop\n      pop\n      jump\t// out\n        /* \"ichoronium-galactic-contracts/users/ichorProfiles.sol\":2423:2833  function addFirstGamer()\r... */\n    tag_45:\n        /* \"ichoronium-galactic-contracts/users/ichorProfiles.sol\":2500:2564  Gamer(0,todaysDate,\"Darth\",\"DeathDealer\",\"deathdealer007\",239,1) */\n      mload(0x40)\n      dup1\n      0xe0\n      add\n      0x40\n      mstore\n      dup1\n        /* \"ichoronium-galactic-contracts/users/ichorProfiles.sol\":2506:2507  0 */\n      0x00\n        /* \"ichoronium-galactic-contracts/users/ichorProfiles.sol\":2500:2564  Gamer(0,todaysDate,\"Darth\",\"DeathDealer\",\"deathdealer007\",239,1) */\n      dup2\n      mstore\n      0x20\n      add\n        /* \"ichoronium-galactic-contracts/users/ichorProfiles.sol\":2508:2518  todaysDate */\n      sload(0x04)\n        /* \"ichoronium-galactic-contracts/users/ichorProfiles.sol\":2500:2564  Gamer(0,todaysDate,\"Darth\",\"DeathDealer\",\"deathdealer007\",239,1) */\n      dup2\n      mstore\n      0x20\n      add\n      mload(0x40)\n      dup1\n      0x40\n      add\n      0x40\n      mstore\n      dup1\n      0x05\n      dup2\n      mstore\n      0x20\n      add\n      0x4461727468000000000000000000000000000000000000000000000000000000\n      dup2\n      mstore\n      pop\n      dup2\n      mstore\n      0x20\n      add\n      mload(0x40)\n      dup1\n      0x40\n      add\n      0x40\n      mstore\n      dup1\n      0x0b\n      dup2\n      mstore\n      0x20\n      add\n      0x44656174684465616c6572000000000000000000000000000000000000000000\n      dup2\n      mstore\n      pop\n      dup2\n      mstore\n      0x20\n      add\n      mload(0x40)\n      dup1\n      0x40\n      add\n      0x40\n      mstore\n      dup1\n      0x0e\n      dup2\n      mstore\n      0x20\n      add\n      0x64656174686465616c6572303037000000000000000000000000000000000000\n      dup2\n      mstore\n      pop\n      dup2\n      mstore\n      0x20\n      add\n        /* \"ichoronium-galactic-contracts/users/ichorProfiles.sol\":2558:2561  239 */\n      0xef\n        /* \"ichoronium-galactic-contracts/users/ichorProfiles.sol\":2500:2564  Gamer(0,todaysDate,\"Darth\",\"DeathDealer\",\"deathdealer007\",239,1) */\n      dup2\n      mstore\n      0x20\n      add\n        /* \"ichoronium-galactic-contracts/users/ichorProfiles.sol\":2562:2563  1 */\n      0x01\n        /* \"ichoronium-galactic-contracts/users/ichorProfiles.sol\":2500:2564  Gamer(0,todaysDate,\"Darth\",\"DeathDealer\",\"deathdealer007\",239,1) */\n      dup2\n      mstore\n      pop\n        /* \"ichoronium-galactic-contracts/users/ichorProfiles.sol\":2488:2494  gamers */\n      0x01\n        /* \"ichoronium-galactic-contracts/users/ichorProfiles.sol\":2488:2497  gamers[0] */\n      0x00\n        /* \"ichoronium-galactic-contracts/users/ichorProfiles.sol\":2495:2496  0 */\n      dup1\n        /* \"ichoronium-galactic-contracts/users/ichorProfiles.sol\":2488:2497  gamers[0] */\n      dup2\n      mstore\n      0x20\n      add\n      swap1\n      dup2\n      mstore\n      0x20\n      add\n      0x00\n      keccak256\n        /* \"ichoronium-galactic-contracts/users/ichorProfiles.sol\":2488:2564  gamers[0] = Gamer(0,todaysDate,\"Darth\",\"DeathDealer\",\"deathdealer007\",239,1) */\n      0x00\n      dup3\n      add\n      mload\n      dup2\n      0x00\n      add\n      sstore\n      0x20\n      dup3\n      add\n      mload\n      dup2\n      0x01\n      add\n      sstore\n      0x40\n      dup3\n      add\n      mload\n      dup2\n      0x02\n      add\n      swap1\n      dup1\n      mload\n      swap1\n      0x20\n      add\n      swap1\n      tag_68\n      swap3\n      swap2\n      swap1\n      tag_51\n      jump\t// in\n    tag_68:\n      pop\n      0x60\n      dup3\n      add\n      mload\n      dup2\n      0x03\n      add\n      swap1\n      dup1\n      mload\n      swap1\n      0x20\n      add\n      swap1\n      tag_69\n      swap3\n      swap2\n      swap1\n      tag_51\n      jump\t// in\n    tag_69:\n      pop\n      0x80\n      dup3\n      add\n      mload\n      dup2\n      0x04\n      add\n      swap1\n      dup1\n      mload\n      swap1\n      0x20\n      add\n      swap1\n      tag_70\n      swap3\n      swap2\n      swap1\n      tag_51\n      jump\t// in\n    tag_70:\n      pop\n      0xa0\n      dup3\n      add\n      mload\n      dup2\n      0x05\n      add\n      sstore\n      0xc0\n      dup3\n      add\n      mload\n      dup2\n      0x06\n      add\n      sstore\n      swap1\n      pop\n      pop\n        /* \"ichoronium-galactic-contracts/users/ichorProfiles.sol\":2594:2648  Gamer(1,todaysDate,\"Zul\",\"Zed\",\"firstwizard007\",239,1) */\n      mload(0x40)\n      dup1\n      0xe0\n      add\n      0x40\n      mstore\n      dup1\n        /* \"ichoronium-galactic-contracts/users/ichorProfiles.sol\":2600:2601  1 */\n      0x01\n        /* \"ichoronium-galactic-contracts/users/ichorProfiles.sol\":2594:2648  Gamer(1,todaysDate,\"Zul\",\"Zed\",\"firstwizard007\",239,1) */\n      dup2\n      mstore\n      0x20\n      add\n        /* \"ichoronium-galactic-contracts/users/ichorProfiles.sol\":2602:2612  todaysDate */\n      sload(0x04)\n        /* \"ichoronium-galactic-contracts/users/ichorProfiles.sol\":2594:2648  Gamer(1,todaysDate,\"Zul\",\"Zed\",\"firstwizard007\",239,1) */\n      dup2\n      mstore\n      0x20\n      add\n      mload(0x40)\n      dup1\n      0x40\n      add\n      0x40\n      mstore\n      dup1\n      0x03\n      dup2\n      mstore\n      0x20\n      add\n      0x5a756c0000000000000000000000000000000000000000000000000000000000\n      dup2\n      mstore\n      pop\n      dup2\n      mstore\n      0x20\n      add\n      mload(0x40)\n      dup1\n      0x40\n      add\n      0x40\n      mstore\n      dup1\n      0x03\n      dup2\n      mstore\n      0x20\n      add\n      0x5a65640000000000000000000000000000000000000000000000000000000000\n      dup2\n      mstore\n      pop\n      dup2\n      mstore\n      0x20\n      add\n      mload(0x40)\n      dup1\n      0x40\n      add\n      0x40\n      mstore\n      dup1\n      0x0e\n      dup2\n      mstore\n      0x20\n      add\n      0x666972737477697a617264303037000000000000000000000000000000000000\n      dup2\n      mstore\n      pop\n      dup2\n      mstore\n      0x20\n      add\n        /* \"ichoronium-galactic-contracts/users/ichorProfiles.sol\":2642:2645  239 */\n      0xef\n        /* \"ichoronium-galactic-contracts/users/ichorProfiles.sol\":2594:2648  Gamer(1,todaysDate,\"Zul\",\"Zed\",\"firstwizard007\",239,1) */\n      dup2\n      mstore\n      0x20\n      add\n        /* \"ichoronium-galactic-contracts/users/ichorProfiles.sol\":2646:2647  1 */\n      0x01\n        /* \"ichoronium-galactic-contracts/users/ichorProfiles.sol\":2594:2648  Gamer(1,todaysDate,\"Zul\",\"Zed\",\"firstwizard007\",239,1) */\n      dup2\n      mstore\n      pop\n        /* \"ichoronium-galactic-contracts/users/ichorProfiles.sol\":2582:2588  gamers */\n      0x01\n        /* \"ichoronium-galactic-contracts/users/ichorProfiles.sol\":2582:2591  gamers[1] */\n      0x00\n        /* \"ichoronium-galactic-contracts/users/ichorProfiles.sol\":2589:2590  1 */\n      0x01\n        /* \"ichoronium-galactic-contracts/users/ichorProfiles.sol\":2582:2591  gamers[1] */\n      dup2\n      mstore\n      0x20\n      add\n      swap1\n      dup2\n      mstore\n      0x20\n      add\n      0x00\n      keccak256\n        /* \"ichoronium-galactic-contracts/users/ichorProfiles.sol\":2582:2648  gamers[1] = Gamer(1,todaysDate,\"Zul\",\"Zed\",\"firstwizard007\",239,1) */\n      0x00\n      dup3\n      add\n      mload\n      dup2\n      0x00\n      add\n      sstore\n      0x20\n      dup3\n      add\n      mload\n      dup2\n      0x01\n      add\n      sstore\n      0x40\n      dup3\n      add\n      mload\n      dup2\n      0x02\n      add\n      swap1\n      dup1\n      mload\n      swap1\n      0x20\n      add\n      swap1\n      tag_71\n      swap3\n      swap2\n      swap1\n      tag_51\n      jump\t// in\n    tag_71:\n      pop\n      0x60\n      dup3\n      add\n      mload\n      dup2\n      0x03\n      add\n      swap1\n      dup1\n      mload\n      swap1\n      0x20\n      add\n      swap1\n      tag_72\n      swap3\n      swap2\n      swap1\n      tag_51\n      jump\t// in\n    tag_72:\n      pop\n      0x80\n      dup3\n      add\n      mload\n      dup2\n      0x04\n      add\n      swap1\n      dup1\n      mload\n      swap1\n      0x20\n      add\n      swap1\n      tag_73\n      swap3\n      swap2\n      swap1\n      tag_51\n      jump\t// in\n    tag_73:\n      pop\n      0xa0\n      dup3\n      add\n      mload\n      dup2\n      0x05\n      add\n      sstore\n      0xc0\n      dup3\n      add\n      mload\n      dup2\n      0x06\n      add\n      sstore\n      swap1\n      pop\n      pop\n        /* \"ichoronium-galactic-contracts/users/ichorProfiles.sol\":2682:2732  gamerFlag(0,true,true,true,true,true,true,0,0,0,0) */\n      mload(0x40)\n      dup1\n      0x0160\n      add\n      0x40\n      mstore\n      dup1\n        /* \"ichoronium-galactic-contracts/users/ichorProfiles.sol\":2692:2693  0 */\n      0x00\n        /* \"ichoronium-galactic-contracts/users/ichorProfiles.sol\":2682:2732  gamerFlag(0,true,true,true,true,true,true,0,0,0,0) */\n      dup2\n      mstore\n      0x20\n      add\n        /* \"ichoronium-galactic-contracts/users/ichorProfiles.sol\":2694:2698  true */\n      0x01\n        /* \"ichoronium-galactic-contracts/users/ichorProfiles.sol\":2682:2732  gamerFlag(0,true,true,true,true,true,true,0,0,0,0) */\n      iszero\n      iszero\n      dup2\n      mstore\n      0x20\n      add\n        /* \"ichoronium-galactic-contracts/users/ichorProfiles.sol\":2699:2703  true */\n      0x01\n        /* \"ichoronium-galactic-contracts/users/ichorProfiles.sol\":2682:2732  gamerFlag(0,true,true,true,true,true,true,0,0,0,0) */\n      iszero\n      iszero\n      dup2\n      mstore\n      0x20\n      add\n        /* \"ichoronium-galactic-contracts/users/ichorProfiles.sol\":2704:2708  true */\n      0x01\n        /* \"ichoronium-galactic-contracts/users/ichorProfiles.sol\":2682:2732  gamerFlag(0,true,true,true,true,true,true,0,0,0,0) */\n      iszero\n      iszero\n      dup2\n      mstore\n      0x20\n      add\n        /* \"ichoronium-galactic-contracts/users/ichorProfiles.sol\":2709:2713  true */\n      0x01\n        /* \"ichoronium-galactic-contracts/users/ichorProfiles.sol\":2682:2732  gamerFlag(0,true,true,true,true,true,true,0,0,0,0) */\n      iszero\n      iszero\n      dup2\n      mstore\n      0x20\n      add\n        /* \"ichoronium-galactic-contracts/users/ichorProfiles.sol\":2714:2718  true */\n      0x01\n        /* \"ichoronium-galactic-contracts/users/ichorProfiles.sol\":2682:2732  gamerFlag(0,true,true,true,true,true,true,0,0,0,0) */\n      iszero\n      iszero\n      dup2\n      mstore\n      0x20\n      add\n        /* \"ichoronium-galactic-contracts/users/ichorProfiles.sol\":2719:2723  true */\n      0x01\n        /* \"ichoronium-galactic-contracts/users/ichorProfiles.sol\":2682:2732  gamerFlag(0,true,true,true,true,true,true,0,0,0,0) */\n      iszero\n      iszero\n      dup2\n      mstore\n      0x20\n      add\n        /* \"ichoronium-galactic-contracts/users/ichorProfiles.sol\":2724:2725  0 */\n      0x00\n        /* \"ichoronium-galactic-contracts/users/ichorProfiles.sol\":2682:2732  gamerFlag(0,true,true,true,true,true,true,0,0,0,0) */\n      dup2\n      mstore\n      0x20\n      add\n        /* \"ichoronium-galactic-contracts/users/ichorProfiles.sol\":2726:2727  0 */\n      0x00\n        /* \"ichoronium-galactic-contracts/users/ichorProfiles.sol\":2682:2732  gamerFlag(0,true,true,true,true,true,true,0,0,0,0) */\n      dup2\n      mstore\n      0x20\n      add\n        /* \"ichoronium-galactic-contracts/users/ichorProfiles.sol\":2728:2729  0 */\n      0x00\n        /* \"ichoronium-galactic-contracts/users/ichorProfiles.sol\":2682:2732  gamerFlag(0,true,true,true,true,true,true,0,0,0,0) */\n      dup2\n      mstore\n      0x20\n      add\n        /* \"ichoronium-galactic-contracts/users/ichorProfiles.sol\":2730:2731  0 */\n      0x00\n        /* \"ichoronium-galactic-contracts/users/ichorProfiles.sol\":2682:2732  gamerFlag(0,true,true,true,true,true,true,0,0,0,0) */\n      dup2\n      mstore\n      pop\n        /* \"ichoronium-galactic-contracts/users/ichorProfiles.sol\":2666:2676  gamerFlags */\n      0x02\n        /* \"ichoronium-galactic-contracts/users/ichorProfiles.sol\":2666:2679  gamerFlags[0] */\n      0x00\n        /* \"ichoronium-galactic-contracts/users/ichorProfiles.sol\":2677:2678  0 */\n      dup1\n        /* \"ichoronium-galactic-contracts/users/ichorProfiles.sol\":2666:2679  gamerFlags[0] */\n      dup2\n      mstore\n      0x20\n      add\n      swap1\n      dup2\n      mstore\n      0x20\n      add\n      0x00\n      keccak256\n        /* \"ichoronium-galactic-contracts/users/ichorProfiles.sol\":2666:2732  gamerFlags[0] = gamerFlag(0,true,true,true,true,true,true,0,0,0,0) */\n      0x00\n      dup3\n      add\n      mload\n      dup2\n      0x00\n      add\n      sstore\n      0x20\n      dup3\n      add\n      mload\n      dup2\n      0x01\n      add\n      exp(0x0100, 0x00)\n      dup2\n      sload\n      dup2\n      0xff\n      mul\n      not\n      and\n      swap1\n      dup4\n      iszero\n      iszero\n      mul\n      or\n      swap1\n      sstore\n      pop\n      0x40\n      dup3\n      add\n      mload\n      dup2\n      0x01\n      add\n      exp(0x0100, 0x01)\n      dup2\n      sload\n      dup2\n      0xff\n      mul\n      not\n      and\n      swap1\n      dup4\n      iszero\n      iszero\n      mul\n      or\n      swap1\n      sstore\n      pop\n      0x60\n      dup3\n      add\n      mload\n      dup2\n      0x01\n      add\n      exp(0x0100, 0x02)\n      dup2\n      sload\n      dup2\n      0xff\n      mul\n      not\n      and\n      swap1\n      dup4\n      iszero\n      iszero\n      mul\n      or\n      swap1\n      sstore\n      pop\n      0x80\n      dup3\n      add\n      mload\n      dup2\n      0x01\n      add\n      exp(0x0100, 0x03)\n      dup2\n      sload\n      dup2\n      0xff\n      mul\n      not\n      and\n      swap1\n      dup4\n      iszero\n      iszero\n      mul\n      or\n      swap1\n      sstore\n      pop\n      0xa0\n      dup3\n      add\n      mload\n      dup2\n      0x01\n      add\n      exp(0x0100, 0x04)\n      dup2\n      sload\n      dup2\n      0xff\n      mul\n      not\n      and\n      swap1\n      dup4\n      iszero\n      iszero\n      mul\n      or\n      swap1\n      sstore\n      pop\n      0xc0\n      dup3\n      add\n      mload\n      dup2\n      0x01\n      add\n      exp(0x0100, 0x05)\n      dup2\n      sload\n      dup2\n      0xff\n      mul\n      not\n      and\n      swap1\n      dup4\n      iszero\n      iszero\n      mul\n      or\n      swap1\n      sstore\n      pop\n      0xe0\n      dup3\n      add\n      mload\n      dup2\n      0x02\n      add\n      sstore\n      0x0100\n      dup3\n      add\n      mload\n      dup2\n      0x03\n      add\n      sstore\n      0x0120\n      dup3\n      add\n      mload\n      dup2\n      0x04\n      add\n      sstore\n      0x0140\n      dup3\n      add\n      mload\n      dup2\n      0x05\n      add\n      sstore\n      swap1\n      pop\n      pop\n        /* \"ichoronium-galactic-contracts/users/ichorProfiles.sol\":2766:2816  gamerFlag(1,true,true,true,true,true,true,0,0,0,0) */\n      mload(0x40)\n      dup1\n      0x0160\n      add\n      0x40\n      mstore\n      dup1\n        /* \"ichoronium-galactic-contracts/users/ichorProfiles.sol\":2776:2777  1 */\n      0x01\n        /* \"ichoronium-galactic-contracts/users/ichorProfiles.sol\":2766:2816  gamerFlag(1,true,true,true,true,true,true,0,0,0,0) */\n      dup2\n      mstore\n      0x20\n      add\n        /* \"ichoronium-galactic-contracts/users/ichorProfiles.sol\":2778:2782  true */\n      0x01\n        /* \"ichoronium-galactic-contracts/users/ichorProfiles.sol\":2766:2816  gamerFlag(1,true,true,true,true,true,true,0,0,0,0) */\n      iszero\n      iszero\n      dup2\n      mstore\n      0x20\n      add\n        /* \"ichoronium-galactic-contracts/users/ichorProfiles.sol\":2783:2787  true */\n      0x01\n        /* \"ichoronium-galactic-contracts/users/ichorProfiles.sol\":2766:2816  gamerFlag(1,true,true,true,true,true,true,0,0,0,0) */\n      iszero\n      iszero\n      dup2\n      mstore\n      0x20\n      add\n        /* \"ichoronium-galactic-contracts/users/ichorProfiles.sol\":2788:2792  true */\n      0x01\n        /* \"ichoronium-galactic-contracts/users/ichorProfiles.sol\":2766:2816  gamerFlag(1,true,true,true,true,true,true,0,0,0,0) */\n      iszero\n      iszero\n      dup2\n      mstore\n      0x20\n      add\n        /* \"ichoronium-galactic-contracts/users/ichorProfiles.sol\":2793:2797  true */\n      0x01\n        /* \"ichoronium-galactic-contracts/users/ichorProfiles.sol\":2766:2816  gamerFlag(1,true,true,true,true,true,true,0,0,0,0) */\n      iszero\n      iszero\n      dup2\n      mstore\n      0x20\n      add\n        /* \"ichoronium-galactic-contracts/users/ichorProfiles.sol\":2798:2802  true */\n      0x01\n        /* \"ichoronium-galactic-contracts/users/ichorProfiles.sol\":2766:2816  gamerFlag(1,true,true,true,true,true,true,0,0,0,0) */\n      iszero\n      iszero\n      dup2\n      mstore\n      0x20\n      add\n        /* \"ichoronium-galactic-contracts/users/ichorProfiles.sol\":2803:2807  true */\n      0x01\n        /* \"ichoronium-galactic-contracts/users/ichorProfiles.sol\":2766:2816  gamerFlag(1,true,true,true,true,true,true,0,0,0,0) */\n      iszero\n      iszero\n      dup2\n      mstore\n      0x20\n      add\n        /* \"ichoronium-galactic-contracts/users/ichorProfiles.sol\":2808:2809  0 */\n      0x00\n        /* \"ichoronium-galactic-contracts/users/ichorProfiles.sol\":2766:2816  gamerFlag(1,true,true,true,true,true,true,0,0,0,0) */\n      dup2\n      mstore\n      0x20\n      add\n        /* \"ichoronium-galactic-contracts/users/ichorProfiles.sol\":2810:2811  0 */\n      0x00\n        /* \"ichoronium-galactic-contracts/users/ichorProfiles.sol\":2766:2816  gamerFlag(1,true,true,true,true,true,true,0,0,0,0) */\n      dup2\n      mstore\n      0x20\n      add\n        /* \"ichoronium-galactic-contracts/users/ichorProfiles.sol\":2812:2813  0 */\n      0x00\n        /* \"ichoronium-galactic-contracts/users/ichorProfiles.sol\":2766:2816  gamerFlag(1,true,true,true,true,true,true,0,0,0,0) */\n      dup2\n      mstore\n      0x20\n      add\n        /* \"ichoronium-galactic-contracts/users/ichorProfiles.sol\":2814:2815  0 */\n      0x00\n        /* \"ichoronium-galactic-contracts/users/ichorProfiles.sol\":2766:2816  gamerFlag(1,true,true,true,true,true,true,0,0,0,0) */\n      dup2\n      mstore\n      pop\n        /* \"ichoronium-galactic-contracts/users/ichorProfiles.sol\":2750:2760  gamerFlags */\n      0x02\n        /* \"ichoronium-galactic-contracts/users/ichorProfiles.sol\":2750:2763  gamerFlags[1] */\n      0x00\n        /* \"ichoronium-galactic-contracts/users/ichorProfiles.sol\":2761:2762  1 */\n      0x01\n        /* \"ichoronium-galactic-contracts/users/ichorProfiles.sol\":2750:2763  gamerFlags[1] */\n      dup2\n      mstore\n      0x20\n      add\n      swap1\n      dup2\n      mstore\n      0x20\n      add\n      0x00\n      keccak256\n        /* \"ichoronium-galactic-contracts/users/ichorProfiles.sol\":2750:2816  gamerFlags[1] = gamerFlag(1,true,true,true,true,true,true,0,0,0,0) */\n      0x00\n      dup3\n      add\n      mload\n      dup2\n      0x00\n      add\n      sstore\n      0x20\n      dup3\n      add\n      mload\n      dup2\n      0x01\n      add\n      exp(0x0100, 0x00)\n      dup2\n      sload\n      dup2\n      0xff\n      mul\n      not\n      and\n      swap1\n      dup4\n      iszero\n      iszero\n      mul\n      or\n      swap1\n      sstore\n      pop\n      0x40\n      dup3\n      add\n      mload\n      dup2\n      0x01\n      add\n      exp(0x0100, 0x01)\n      dup2\n      sload\n      dup2\n      0xff\n      mul\n      not\n      and\n      swap1\n      dup4\n      iszero\n      iszero\n      mul\n      or\n      swap1\n      sstore\n      pop\n      0x60\n      dup3\n      add\n      mload\n      dup2\n      0x01\n      add\n      exp(0x0100, 0x02)\n      dup2\n      sload\n      dup2\n      0xff\n      mul\n      not\n      and\n      swap1\n      dup4\n      iszero\n      iszero\n      mul\n      or\n      swap1\n      sstore\n      pop\n      0x80\n      dup3\n      add\n      mload\n      dup2\n      0x01\n      add\n      exp(0x0100, 0x03)\n      dup2\n      sload\n      dup2\n      0xff\n      mul\n      not\n      and\n      swap1\n      dup4\n      iszero\n      iszero\n      mul\n      or\n      swap1\n      sstore\n      pop\n      0xa0\n      dup3\n      add\n      mload\n      dup2\n      0x01\n      add\n      exp(0x0100, 0x04)\n      dup2\n      sload\n      dup2\n      0xff\n      mul\n      not\n      and\n      swap1\n      dup4\n      iszero\n      iszero\n      mul\n      or\n      swap1\n      sstore\n      pop\n      0xc0\n      dup3\n      add\n      mload\n      dup2\n      0x01\n      add\n      exp(0x0100, 0x05)\n      dup2\n      sload\n      dup2\n      0xff\n      mul\n      not\n      and\n      swap1\n      dup4\n      iszero\n      iszero\n      mul\n      or\n      swap1\n      sstore\n      pop\n      0xe0\n      dup3\n      add\n      mload\n      dup2\n      0x02\n      add\n      sstore\n      0x0100\n      dup3\n      add\n      mload\n      dup2\n      0x03\n      add\n      sstore\n      0x0120\n      dup3\n      add\n      mload\n      dup2\n      0x04\n      add\n      sstore\n      0x0140\n      dup3\n      add\n      mload\n      dup2\n      0x05\n      add\n      sstore\n      swap1\n      pop\n      pop\n        /* \"ichoronium-galactic-contracts/users/ichorProfiles.sol\":2423:2833  function addFirstGamer()\r... */\n      jump\t// out\n        /* \"ichoronium-galactic-contracts/users/ichorProfiles.sol\":1008:1106  function incrementCount()\r... */\n    tag_47:\n        /* \"ichoronium-galactic-contracts/users/ichorProfiles.sol\":1088:1089  1 */\n      0x01\n        /* \"ichoronium-galactic-contracts/users/ichorProfiles.sol\":1074:1084  gamerCount */\n      0x00\n      dup1\n        /* \"ichoronium-galactic-contracts/users/ichorProfiles.sol\":1074:1089  gamerCount += 1 */\n      dup3\n      dup3\n      sload\n      add\n      swap3\n      pop\n      pop\n      dup2\n      swap1\n      sstore\n      pop\n        /* \"ichoronium-galactic-contracts/users/ichorProfiles.sol\":1008:1106  function incrementCount()\r... */\n      jump\t// out\n        /* \"ichoronium-galactic-contracts/users/ichorProfiles.sol\":86:2836  contract ichoroniumProfiles {\r... */\n    tag_51:\n      dup3\n      dup1\n      sload\n      0x01\n      dup2\n      0x01\n      and\n      iszero\n      0x0100\n      mul\n      sub\n      and\n      0x02\n      swap1\n      div\n      swap1\n      0x00\n      mstore\n      keccak256(0x00, 0x20)\n      swap1\n      0x1f\n      add\n      0x20\n      swap1\n      div\n      dup2\n      add\n      swap3\n      dup3\n      0x1f\n      lt\n      tag_76\n      jumpi\n      dup1\n      mload\n      not(0xff)\n      and\n      dup4\n      dup1\n      add\n      or\n      dup6\n      sstore\n      jump(tag_75)\n    tag_76:\n      dup3\n      dup1\n      add\n      0x01\n      add\n      dup6\n      sstore\n      dup3\n      iszero\n      tag_75\n      jumpi\n      swap2\n      dup3\n      add\n    tag_77:\n      dup3\n      dup2\n      gt\n      iszero\n      tag_78\n      jumpi\n      dup3\n      mload\n      dup3\n      sstore\n      swap2\n      0x20\n      add\n      swap2\n      swap1\n      0x01\n      add\n      swap1\n      jump(tag_77)\n    tag_78:\n    tag_75:\n      pop\n      swap1\n      pop\n      tag_79\n      swap2\n      swap1\n      tag_80\n      jump\t// in\n    tag_79:\n      pop\n      swap1\n      jump\t// out\n    tag_80:\n      tag_81\n      swap2\n      swap1\n    tag_82:\n      dup1\n      dup3\n      gt\n      iszero\n      tag_83\n      jumpi\n      0x00\n      dup2\n      0x00\n      swap1\n      sstore\n      pop\n      0x01\n      add\n      jump(tag_82)\n    tag_83:\n      pop\n      swap1\n      jump\n    tag_81:\n      swap1\n      jump\t// out\n\n    auxdata: 0xa265627a7a723158203d74a83824ebe5ab5c066bfda8019e6c97b1be959fcdde1927dfa4d2b497d53b64736f6c63430005110032\n}\n",
				"bytecode": {
					"linkReferences": {},
					"object": "60806040526000805534801561001457600080fd5b50611177806100246000396000f3fe608060405234801561001057600080fd5b506004361061004c5760003560e01c80633557ca3f1461005157806357a6c279146100f1578063abf57908146102e4578063df4323931461047f575b600080fd5b61007d6004803603602081101561006757600080fd5b81019080803590602001909291905050506104ad565b604051808c81526020018b1515151581526020018a151515158152602001891515151581526020018815151515815260200187151515158152602001861515151581526020018581526020018481526020018381526020018281526020019b50505050505050505050505060405180910390f35b6102e26004803603608081101561010757600080fd5b810190808035906020019064010000000081111561012457600080fd5b82018360208201111561013657600080fd5b8035906020019184600183028401116401000000008311171561015857600080fd5b91908080601f016020809104026020016040519081016040528093929190818152602001838380828437600081840152601f19601f820116905080830192505050505050509192919290803590602001906401000000008111156101bb57600080fd5b8201836020820111156101cd57600080fd5b803590602001918460018302840111640100000000831117156101ef57600080fd5b91908080601f016020809104026020016040519081016040528093929190818152602001838380828437600081840152601f19601f8201169050808301925050505050505091929192908035906020019064010000000081111561025257600080fd5b82018360208201111561026457600080fd5b8035906020019184600183028401116401000000008311171561028657600080fd5b91908080601f016020809104026020016040519081016040528093929190818152602001838380828437600081840152601f19601f82011690508083019250505050505050919291929080359060200190929190505050610555565b005b610310600480360360208110156102fa57600080fd5b810190808035906020019092919050505061081f565b60405180888152602001878152602001806020018060200180602001868152602001858152602001848103845289818151815260200191508051906020019080838360005b83811015610370578082015181840152602081019050610355565b50505050905090810190601f16801561039d5780820380516001836020036101000a031916815260200191505b50848103835288818151815260200191508051906020019080838360005b838110156103d65780820151818401526020810190506103bb565b50505050905090810190601f1680156104035780820380516001836020036101000a031916815260200191505b50848103825287818151815260200191508051906020019080838360005b8381101561043c578082015181840152602081019050610421565b50505050905090810190601f1680156104695780820380516001836020036101000a031916815260200191505b509a505050505050505050505060405180910390f35b6104ab6004803603602081101561049557600080fd5b8101908080359060200190929190505050610a29565b005b60026020528060005260406000206000915090508060000154908060010160009054906101000a900460ff16908060010160019054906101000a900460ff16908060010160029054906101000a900460ff16908060010160039054906101000a900460ff16908060010160049054906101000a900460ff16908060010160059054906101000a900460ff1690806002015490806003015490806004015490806005015490508b565b600360009054906101000a900473ffffffffffffffffffffffffffffffffffffffff1673ffffffffffffffffffffffffffffffffffffffff163373ffffffffffffffffffffffffffffffffffffffff16146105af57600080fd5b6000805414156105ca576105c1610ad3565b6105c961108b565b5b6105d381610a29565b6105db61108b565b6040518060e0016040528060005481526020016004548152602001858152602001848152602001838152602001600081526020018281525060016000805481526020019081526020016000206000820151816000015560208201518160010155604082015181600201908051906020019061065792919061109d565b50606082015181600301908051906020019061067492919061109d565b50608082015181600401908051906020019061069192919061109d565b5060a0820151816005015560c082015181600601559050506040518061016001604052806000548152602001600015158152602001600015158152602001600015158152602001600015158152602001600015158152602001600015158152602001600081526020016000815260200160008152602001600081525060026000805481526020019081526020016000206000820151816000015560208201518160010160006101000a81548160ff02191690831515021790555060408201518160010160016101000a81548160ff02191690831515021790555060608201518160010160026101000a81548160ff02191690831515021790555060808201518160010160036101000a81548160ff02191690831515021790555060a08201518160010160046101000a81548160ff02191690831515021790555060c08201518160010160056101000a81548160ff02191690831515021790555060e0820151816002015561010082015181600301556101208201518160040155610140820151816005015590505050505050565b6001602052806000526040600020600091509050806000015490806001015490806002018054600181600116156101000203166002900480601f0160208091040260200160405190810160405280929190818152602001828054600181600116156101000203166002900480156108d75780601f106108ac576101008083540402835291602001916108d7565b820191906000526020600020905b8154815290600101906020018083116108ba57829003601f168201915b505050505090806003018054600181600116156101000203166002900480601f0160208091040260200160405190810160405280929190818152602001828054600181600116156101000203166002900480156109755780601f1061094a57610100808354040283529160200191610975565b820191906000526020600020905b81548152906001019060200180831161095857829003601f168201915b505050505090806004018054600181600116156101000203166002900480601f016020809104026020016040519081016040528092919081815260200182805460018160011615610100020316600290048015610a135780601f106109e857610100808354040283529160200191610a13565b820191906000526020600020905b8154815290600101906020018083116109f657829003601f168201915b5050505050908060050154908060060154905087565b60006001600083815260200190815260200160002060000154905060008110158015610a5757506000548111155b15610a6157610acf565b6040517f08c379a00000000000000000000000000000000000000000000000000000000081526004018080602001828103825260198152602001807f42656e65666163746f7220446f6573204e6f742045786973740000000000000081525060200191505060405180910390fd5b5050565b6040518060e001604052806000815260200160045481526020016040518060400160405280600581526020017f446172746800000000000000000000000000000000000000000000000000000081525081526020016040518060400160405280600b81526020017f44656174684465616c657200000000000000000000000000000000000000000081525081526020016040518060400160405280600e81526020017f64656174686465616c6572303037000000000000000000000000000000000000815250815260200160ef815260200160018152506001600080815260200190815260200160002060008201518160000155602082015181600101556040820151816002019080519060200190610bed92919061109d565b506060820151816003019080519060200190610c0a92919061109d565b506080820151816004019080519060200190610c2792919061109d565b5060a0820151816005015560c082015181600601559050506040518060e001604052806001815260200160045481526020016040518060400160405280600381526020017f5a756c000000000000000000000000000000000000000000000000000000000081525081526020016040518060400160405280600381526020017f5a6564000000000000000000000000000000000000000000000000000000000081525081526020016040518060400160405280600e81526020017f666972737477697a617264303037000000000000000000000000000000000000815250815260200160ef81526020016001815250600160006001815260200190815260200160002060008201518160000155602082015181600101556040820151816002019080519060200190610d5a92919061109d565b506060820151816003019080519060200190610d7792919061109d565b506080820151816004019080519060200190610d9492919061109d565b5060a0820151816005015560c08201518160060155905050604051806101600160405280600081526020016001151581526020016001151581526020016001151581526020016001151581526020016001151581526020016001151581526020016000815260200160008152602001600081526020016000815250600260008081526020019081526020016000206000820151816000015560208201518160010160006101000a81548160ff02191690831515021790555060408201518160010160016101000a81548160ff02191690831515021790555060608201518160010160026101000a81548160ff02191690831515021790555060808201518160010160036101000a81548160ff02191690831515021790555060a08201518160010160046101000a81548160ff02191690831515021790555060c08201518160010160056101000a81548160ff02191690831515021790555060e0820151816002015561010082015181600301556101208201518160040155610140820151816005015590505060405180610160016040528060018152602001600115158152602001600115158152602001600115158152602001600115158152602001600115158152602001600115158152602001600081526020016000815260200160008152602001600081525060026000600181526020019081526020016000206000820151816000015560208201518160010160006101000a81548160ff02191690831515021790555060408201518160010160016101000a81548160ff02191690831515021790555060608201518160010160026101000a81548160ff02191690831515021790555060808201518160010160036101000a81548160ff02191690831515021790555060a08201518160010160046101000a81548160ff02191690831515021790555060c08201518160010160056101000a81548160ff02191690831515021790555060e08201518160020155610100820151816003015561012082015181600401556101408201518160050155905050565b60016000808282540192505081905550565b828054600181600116156101000203166002900490600052602060002090601f016020900481019282601f106110de57805160ff191683800117855561110c565b8280016001018555821561110c579182015b8281111561110b5782518255916020019190600101906110f0565b5b509050611119919061111d565b5090565b61113f91905b8082111561113b576000816000905550600101611123565b5090565b9056fea265627a7a723158203d74a83824ebe5ab5c066bfda8019e6c97b1be959fcdde1927dfa4d2b497d53b64736f6c63430005110032",
					"opcodes": "PUSH1 0x80 PUSH1 0x40 MSTORE PUSH1 0x0 DUP1 SSTORE CALLVALUE DUP1 ISZERO PUSH2 0x14 JUMPI PUSH1 0x0 DUP1 REVERT JUMPDEST POP PUSH2 0x1177 DUP1 PUSH2 0x24 PUSH1 0x0 CODECOPY PUSH1 0x0 RETURN INVALID PUSH1 0x80 PUSH1 0x40 MSTORE CALLVALUE DUP1 ISZERO PUSH2 0x10 JUMPI PUSH1 0x0 DUP1 REVERT JUMPDEST POP PUSH1 0x4 CALLDATASIZE LT PUSH2 0x4C JUMPI PUSH1 0x0 CALLDATALOAD PUSH1 0xE0 SHR DUP1 PUSH4 0x3557CA3F EQ PUSH2 0x51 JUMPI DUP1 PUSH4 0x57A6C279 EQ PUSH2 0xF1 JUMPI DUP1 PUSH4 0xABF57908 EQ PUSH2 0x2E4 JUMPI DUP1 PUSH4 0xDF432393 EQ PUSH2 0x47F JUMPI JUMPDEST PUSH1 0x0 DUP1 REVERT JUMPDEST PUSH2 0x7D PUSH1 0x4 DUP1 CALLDATASIZE SUB PUSH1 0x20 DUP2 LT ISZERO PUSH2 0x67 JUMPI PUSH1 0x0 DUP1 REVERT JUMPDEST DUP2 ADD SWAP1 DUP1 DUP1 CALLDATALOAD SWAP1 PUSH1 0x20 ADD SWAP1 SWAP3 SWAP2 SWAP1 POP POP POP PUSH2 0x4AD JUMP JUMPDEST PUSH1 0x40 MLOAD DUP1 DUP13 DUP2 MSTORE PUSH1 0x20 ADD DUP12 ISZERO ISZERO ISZERO ISZERO DUP2 MSTORE PUSH1 0x20 ADD DUP11 ISZERO ISZERO ISZERO ISZERO DUP2 MSTORE PUSH1 0x20 ADD DUP10 ISZERO ISZERO ISZERO ISZERO DUP2 MSTORE PUSH1 0x20 ADD DUP9 ISZERO ISZERO ISZERO ISZERO DUP2 MSTORE PUSH1 0x20 ADD DUP8 ISZERO ISZERO ISZERO ISZERO DUP2 MSTORE PUSH1 0x20 ADD DUP7 ISZERO ISZERO ISZERO ISZERO DUP2 MSTORE PUSH1 0x20 ADD DUP6 DUP2 MSTORE PUSH1 0x20 ADD DUP5 DUP2 MSTORE PUSH1 0x20 ADD DUP4 DUP2 MSTORE PUSH1 0x20 ADD DUP3 DUP2 MSTORE PUSH1 0x20 ADD SWAP12 POP POP POP POP POP POP POP POP POP POP POP POP PUSH1 0x40 MLOAD DUP1 SWAP2 SUB SWAP1 RETURN JUMPDEST PUSH2 0x2E2 PUSH1 0x4 DUP1 CALLDATASIZE SUB PUSH1 0x80 DUP2 LT ISZERO PUSH2 0x107 JUMPI PUSH1 0x0 DUP1 REVERT JUMPDEST DUP2 ADD SWAP1 DUP1 DUP1 CALLDATALOAD SWAP1 PUSH1 0x20 ADD SWAP1 PUSH5 0x100000000 DUP2 GT ISZERO PUSH2 0x124 JUMPI PUSH1 0x0 DUP1 REVERT JUMPDEST DUP3 ADD DUP4 PUSH1 0x20 DUP3 ADD GT ISZERO PUSH2 0x136 JUMPI PUSH1 0x0 DUP1 REVERT JUMPDEST DUP1 CALLDATALOAD SWAP1 PUSH1 0x20 ADD SWAP2 DUP5 PUSH1 0x1 DUP4 MUL DUP5 ADD GT PUSH5 0x100000000 DUP4 GT OR ISZERO PUSH2 0x158 JUMPI PUSH1 0x0 DUP1 REVERT JUMPDEST SWAP2 SWAP1 DUP1 DUP1 PUSH1 0x1F ADD PUSH1 0x20 DUP1 SWAP2 DIV MUL PUSH1 0x20 ADD PUSH1 0x40 MLOAD SWAP1 DUP2 ADD PUSH1 0x40 MSTORE DUP1 SWAP4 SWAP3 SWAP2 SWAP1 DUP2 DUP2 MSTORE PUSH1 0x20 ADD DUP4 DUP4 DUP1 DUP3 DUP5 CALLDATACOPY PUSH1 0x0 DUP2 DUP5 ADD MSTORE PUSH1 0x1F NOT PUSH1 0x1F DUP3 ADD AND SWAP1 POP DUP1 DUP4 ADD SWAP3 POP POP POP POP POP POP POP SWAP2 SWAP3 SWAP2 SWAP3 SWAP1 DUP1 CALLDATALOAD SWAP1 PUSH1 0x20 ADD SWAP1 PUSH5 0x100000000 DUP2 GT ISZERO PUSH2 0x1BB JUMPI PUSH1 0x0 DUP1 REVERT JUMPDEST DUP3 ADD DUP4 PUSH1 0x20 DUP3 ADD GT ISZERO PUSH2 0x1CD JUMPI PUSH1 0x0 DUP1 REVERT JUMPDEST DUP1 CALLDATALOAD SWAP1 PUSH1 0x20 ADD SWAP2 DUP5 PUSH1 0x1 DUP4 MUL DUP5 ADD GT PUSH5 0x100000000 DUP4 GT OR ISZERO PUSH2 0x1EF JUMPI PUSH1 0x0 DUP1 REVERT JUMPDEST SWAP2 SWAP1 DUP1 DUP1 PUSH1 0x1F ADD PUSH1 0x20 DUP1 SWAP2 DIV MUL PUSH1 0x20 ADD PUSH1 0x40 MLOAD SWAP1 DUP2 ADD PUSH1 0x40 MSTORE DUP1 SWAP4 SWAP3 SWAP2 SWAP1 DUP2 DUP2 MSTORE PUSH1 0x20 ADD DUP4 DUP4 DUP1 DUP3 DUP5 CALLDATACOPY PUSH1 0x0 DUP2 DUP5 ADD MSTORE PUSH1 0x1F NOT PUSH1 0x1F DUP3 ADD AND SWAP1 POP DUP1 DUP4 ADD SWAP3 POP POP POP POP POP POP POP SWAP2 SWAP3 SWAP2 SWAP3 SWAP1 DUP1 CALLDATALOAD SWAP1 PUSH1 0x20 ADD SWAP1 PUSH5 0x100000000 DUP2 GT ISZERO PUSH2 0x252 JUMPI PUSH1 0x0 DUP1 REVERT JUMPDEST DUP3 ADD DUP4 PUSH1 0x20 DUP3 ADD GT ISZERO PUSH2 0x264 JUMPI PUSH1 0x0 DUP1 REVERT JUMPDEST DUP1 CALLDATALOAD SWAP1 PUSH1 0x20 ADD SWAP2 DUP5 PUSH1 0x1 DUP4 MUL DUP5 ADD GT PUSH5 0x100000000 DUP4 GT OR ISZERO PUSH2 0x286 JUMPI PUSH1 0x0 DUP1 REVERT JUMPDEST SWAP2 SWAP1 DUP1 DUP1 PUSH1 0x1F ADD PUSH1 0x20 DUP1 SWAP2 DIV MUL PUSH1 0x20 ADD PUSH1 0x40 MLOAD SWAP1 DUP2 ADD PUSH1 0x40 MSTORE DUP1 SWAP4 SWAP3 SWAP2 SWAP1 DUP2 DUP2 MSTORE PUSH1 0x20 ADD DUP4 DUP4 DUP1 DUP3 DUP5 CALLDATACOPY PUSH1 0x0 DUP2 DUP5 ADD MSTORE PUSH1 0x1F NOT PUSH1 0x1F DUP3 ADD AND SWAP1 POP DUP1 DUP4 ADD SWAP3 POP POP POP POP POP POP POP SWAP2 SWAP3 SWAP2 SWAP3 SWAP1 DUP1 CALLDATALOAD SWAP1 PUSH1 0x20 ADD SWAP1 SWAP3 SWAP2 SWAP1 POP POP POP PUSH2 0x555 JUMP JUMPDEST STOP JUMPDEST PUSH2 0x310 PUSH1 0x4 DUP1 CALLDATASIZE SUB PUSH1 0x20 DUP2 LT ISZERO PUSH2 0x2FA JUMPI PUSH1 0x0 DUP1 REVERT JUMPDEST DUP2 ADD SWAP1 DUP1 DUP1 CALLDATALOAD SWAP1 PUSH1 0x20 ADD SWAP1 SWAP3 SWAP2 SWAP1 POP POP POP PUSH2 0x81F JUMP JUMPDEST PUSH1 0x40 MLOAD DUP1 DUP9 DUP2 MSTORE PUSH1 0x20 ADD DUP8 DUP2 MSTORE PUSH1 0x20 ADD DUP1 PUSH1 0x20 ADD DUP1 PUSH1 0x20 ADD DUP1 PUSH1 0x20 ADD DUP7 DUP2 MSTORE PUSH1 0x20 ADD DUP6 DUP2 MSTORE PUSH1 0x20 ADD DUP5 DUP2 SUB DUP5 MSTORE DUP10 DUP2 DUP2 MLOAD DUP2 MSTORE PUSH1 0x20 ADD SWAP2 POP DUP1 MLOAD SWAP1 PUSH1 0x20 ADD SWAP1 DUP1 DUP4 DUP4 PUSH1 0x0 JUMPDEST DUP4 DUP2 LT ISZERO PUSH2 0x370 JUMPI DUP1 DUP3 ADD MLOAD DUP2 DUP5 ADD MSTORE PUSH1 0x20 DUP2 ADD SWAP1 POP PUSH2 0x355 JUMP JUMPDEST POP POP POP POP SWAP1 POP SWAP1 DUP2 ADD SWAP1 PUSH1 0x1F AND DUP1 ISZERO PUSH2 0x39D JUMPI DUP1 DUP3 SUB DUP1 MLOAD PUSH1 0x1 DUP4 PUSH1 0x20 SUB PUSH2 0x100 EXP SUB NOT AND DUP2 MSTORE PUSH1 0x20 ADD SWAP2 POP JUMPDEST POP DUP5 DUP2 SUB DUP4 MSTORE DUP9 DUP2 DUP2 MLOAD DUP2 MSTORE PUSH1 0x20 ADD SWAP2 POP DUP1 MLOAD SWAP1 PUSH1 0x20 ADD SWAP1 DUP1 DUP4 DUP4 PUSH1 0x0 JUMPDEST DUP4 DUP2 LT ISZERO PUSH2 0x3D6 JUMPI DUP1 DUP3 ADD MLOAD DUP2 DUP5 ADD MSTORE PUSH1 0x20 DUP2 ADD SWAP1 POP PUSH2 0x3BB JUMP JUMPDEST POP POP POP POP SWAP1 POP SWAP1 DUP2 ADD SWAP1 PUSH1 0x1F AND DUP1 ISZERO PUSH2 0x403 JUMPI DUP1 DUP3 SUB DUP1 MLOAD PUSH1 0x1 DUP4 PUSH1 0x20 SUB PUSH2 0x100 EXP SUB NOT AND DUP2 MSTORE PUSH1 0x20 ADD SWAP2 POP JUMPDEST POP DUP5 DUP2 SUB DUP3 MSTORE DUP8 DUP2 DUP2 MLOAD DUP2 MSTORE PUSH1 0x20 ADD SWAP2 POP DUP1 MLOAD SWAP1 PUSH1 0x20 ADD SWAP1 DUP1 DUP4 DUP4 PUSH1 0x0 JUMPDEST DUP4 DUP2 LT ISZERO PUSH2 0x43C JUMPI DUP1 DUP3 ADD MLOAD DUP2 DUP5 ADD MSTORE PUSH1 0x20 DUP2 ADD SWAP1 POP PUSH2 0x421 JUMP JUMPDEST POP POP POP POP SWAP1 POP SWAP1 DUP2 ADD SWAP1 PUSH1 0x1F AND DUP1 ISZERO PUSH2 0x469 JUMPI DUP1 DUP3 SUB DUP1 MLOAD PUSH1 0x1 DUP4 PUSH1 0x20 SUB PUSH2 0x100 EXP SUB NOT AND DUP2 MSTORE PUSH1 0x20 ADD SWAP2 POP JUMPDEST POP SWAP11 POP POP POP POP POP POP POP POP POP POP POP PUSH1 0x40 MLOAD DUP1 SWAP2 SUB SWAP1 RETURN JUMPDEST PUSH2 0x4AB PUSH1 0x4 DUP1 CALLDATASIZE SUB PUSH1 0x20 DUP2 LT ISZERO PUSH2 0x495 JUMPI PUSH1 0x0 DUP1 REVERT JUMPDEST DUP2 ADD SWAP1 DUP1 DUP1 CALLDATALOAD SWAP1 PUSH1 0x20 ADD SWAP1 SWAP3 SWAP2 SWAP1 POP POP POP PUSH2 0xA29 JUMP JUMPDEST STOP JUMPDEST PUSH1 0x2 PUSH1 0x20 MSTORE DUP1 PUSH1 0x0 MSTORE PUSH1 0x40 PUSH1 0x0 KECCAK256 PUSH1 0x0 SWAP2 POP SWAP1 POP DUP1 PUSH1 0x0 ADD SLOAD SWAP1 DUP1 PUSH1 0x1 ADD PUSH1 0x0 SWAP1 SLOAD SWAP1 PUSH2 0x100 EXP SWAP1 DIV PUSH1 0xFF AND SWAP1 DUP1 PUSH1 0x1 ADD PUSH1 0x1 SWAP1 SLOAD SWAP1 PUSH2 0x100 EXP SWAP1 DIV PUSH1 0xFF AND SWAP1 DUP1 PUSH1 0x1 ADD PUSH1 0x2 SWAP1 SLOAD SWAP1 PUSH2 0x100 EXP SWAP1 DIV PUSH1 0xFF AND SWAP1 DUP1 PUSH1 0x1 ADD PUSH1 0x3 SWAP1 SLOAD SWAP1 PUSH2 0x100 EXP SWAP1 DIV PUSH1 0xFF AND SWAP1 DUP1 PUSH1 0x1 ADD PUSH1 0x4 SWAP1 SLOAD SWAP1 PUSH2 0x100 EXP SWAP1 DIV PUSH1 0xFF AND SWAP1 DUP1 PUSH1 0x1 ADD PUSH1 0x5 SWAP1 SLOAD SWAP1 PUSH2 0x100 EXP SWAP1 DIV PUSH1 0xFF AND SWAP1 DUP1 PUSH1 0x2 ADD SLOAD SWAP1 DUP1 PUSH1 0x3 ADD SLOAD SWAP1 DUP1 PUSH1 0x4 ADD SLOAD SWAP1 DUP1 PUSH1 0x5 ADD SLOAD SWAP1 POP DUP12 JUMP JUMPDEST PUSH1 0x3 PUSH1 0x0 SWAP1 SLOAD SWAP1 PUSH2 0x100 EXP SWAP1 DIV PUSH20 0xFFFFFFFFFFFFFFFFFFFFFFFFFFFFFFFFFFFFFFFF AND PUSH20 0xFFFFFFFFFFFFFFFFFFFFFFFFFFFFFFFFFFFFFFFF AND CALLER PUSH20 0xFFFFFFFFFFFFFFFFFFFFFFFFFFFFFFFFFFFFFFFF AND EQ PUSH2 0x5AF JUMPI PUSH1 0x0 DUP1 REVERT JUMPDEST PUSH1 0x0 DUP1 SLOAD EQ ISZERO PUSH2 0x5CA JUMPI PUSH2 0x5C1 PUSH2 0xAD3 JUMP JUMPDEST PUSH2 0x5C9 PUSH2 0x108B JUMP JUMPDEST JUMPDEST PUSH2 0x5D3 DUP2 PUSH2 0xA29 JUMP JUMPDEST PUSH2 0x5DB PUSH2 0x108B JUMP JUMPDEST PUSH1 0x40 MLOAD DUP1 PUSH1 0xE0 ADD PUSH1 0x40 MSTORE DUP1 PUSH1 0x0 SLOAD DUP2 MSTORE PUSH1 0x20 ADD PUSH1 0x4 SLOAD DUP2 MSTORE PUSH1 0x20 ADD DUP6 DUP2 MSTORE PUSH1 0x20 ADD DUP5 DUP2 MSTORE PUSH1 0x20 ADD DUP4 DUP2 MSTORE PUSH1 0x20 ADD PUSH1 0x0 DUP2 MSTORE PUSH1 0x20 ADD DUP3 DUP2 MSTORE POP PUSH1 0x1 PUSH1 0x0 DUP1 SLOAD DUP2 MSTORE PUSH1 0x20 ADD SWAP1 DUP2 MSTORE PUSH1 0x20 ADD PUSH1 0x0 KECCAK256 PUSH1 0x0 DUP3 ADD MLOAD DUP2 PUSH1 0x0 ADD SSTORE PUSH1 0x20 DUP3 ADD MLOAD DUP2 PUSH1 0x1 ADD SSTORE PUSH1 0x40 DUP3 ADD MLOAD DUP2 PUSH1 0x2 ADD SWAP1 DUP1 MLOAD SWAP1 PUSH1 0x20 ADD SWAP1 PUSH2 0x657 SWAP3 SWAP2 SWAP1 PUSH2 0x109D JUMP JUMPDEST POP PUSH1 0x60 DUP3 ADD MLOAD DUP2 PUSH1 0x3 ADD SWAP1 DUP1 MLOAD SWAP1 PUSH1 0x20 ADD SWAP1 PUSH2 0x674 SWAP3 SWAP2 SWAP1 PUSH2 0x109D JUMP JUMPDEST POP PUSH1 0x80 DUP3 ADD MLOAD DUP2 PUSH1 0x4 ADD SWAP1 DUP1 MLOAD SWAP1 PUSH1 0x20 ADD SWAP1 PUSH2 0x691 SWAP3 SWAP2 SWAP1 PUSH2 0x109D JUMP JUMPDEST POP PUSH1 0xA0 DUP3 ADD MLOAD DUP2 PUSH1 0x5 ADD SSTORE PUSH1 0xC0 DUP3 ADD MLOAD DUP2 PUSH1 0x6 ADD SSTORE SWAP1 POP POP PUSH1 0x40 MLOAD DUP1 PUSH2 0x160 ADD PUSH1 0x40 MSTORE DUP1 PUSH1 0x0 SLOAD DUP2 MSTORE PUSH1 0x20 ADD PUSH1 0x0 ISZERO ISZERO DUP2 MSTORE PUSH1 0x20 ADD PUSH1 0x0 ISZERO ISZERO DUP2 MSTORE PUSH1 0x20 ADD PUSH1 0x0 ISZERO ISZERO DUP2 MSTORE PUSH1 0x20 ADD PUSH1 0x0 ISZERO ISZERO DUP2 MSTORE PUSH1 0x20 ADD PUSH1 0x0 ISZERO ISZERO DUP2 MSTORE PUSH1 0x20 ADD PUSH1 0x0 ISZERO ISZERO DUP2 MSTORE PUSH1 0x20 ADD PUSH1 0x0 DUP2 MSTORE PUSH1 0x20 ADD PUSH1 0x0 DUP2 MSTORE PUSH1 0x20 ADD PUSH1 0x0 DUP2 MSTORE PUSH1 0x20 ADD PUSH1 0x0 DUP2 MSTORE POP PUSH1 0x2 PUSH1 0x0 DUP1 SLOAD DUP2 MSTORE PUSH1 0x20 ADD SWAP1 DUP2 MSTORE PUSH1 0x20 ADD PUSH1 0x0 KECCAK256 PUSH1 0x0 DUP3 ADD MLOAD DUP2 PUSH1 0x0 ADD SSTORE PUSH1 0x20 DUP3 ADD MLOAD DUP2 PUSH1 0x1 ADD PUSH1 0x0 PUSH2 0x100 EXP DUP2 SLOAD DUP2 PUSH1 0xFF MUL NOT AND SWAP1 DUP4 ISZERO ISZERO MUL OR SWAP1 SSTORE POP PUSH1 0x40 DUP3 ADD MLOAD DUP2 PUSH1 0x1 ADD PUSH1 0x1 PUSH2 0x100 EXP DUP2 SLOAD DUP2 PUSH1 0xFF MUL NOT AND SWAP1 DUP4 ISZERO ISZERO MUL OR SWAP1 SSTORE POP PUSH1 0x60 DUP3 ADD MLOAD DUP2 PUSH1 0x1 ADD PUSH1 0x2 PUSH2 0x100 EXP DUP2 SLOAD DUP2 PUSH1 0xFF MUL NOT AND SWAP1 DUP4 ISZERO ISZERO MUL OR SWAP1 SSTORE POP PUSH1 0x80 DUP3 ADD MLOAD DUP2 PUSH1 0x1 ADD PUSH1 0x3 PUSH2 0x100 EXP DUP2 SLOAD DUP2 PUSH1 0xFF MUL NOT AND SWAP1 DUP4 ISZERO ISZERO MUL OR SWAP1 SSTORE POP PUSH1 0xA0 DUP3 ADD MLOAD DUP2 PUSH1 0x1 ADD PUSH1 0x4 PUSH2 0x100 EXP DUP2 SLOAD DUP2 PUSH1 0xFF MUL NOT AND SWAP1 DUP4 ISZERO ISZERO MUL OR SWAP1 SSTORE POP PUSH1 0xC0 DUP3 ADD MLOAD DUP2 PUSH1 0x1 ADD PUSH1 0x5 PUSH2 0x100 EXP DUP2 SLOAD DUP2 PUSH1 0xFF MUL NOT AND SWAP1 DUP4 ISZERO ISZERO MUL OR SWAP1 SSTORE POP PUSH1 0xE0 DUP3 ADD MLOAD DUP2 PUSH1 0x2 ADD SSTORE PUSH2 0x100 DUP3 ADD MLOAD DUP2 PUSH1 0x3 ADD SSTORE PUSH2 0x120 DUP3 ADD MLOAD DUP2 PUSH1 0x4 ADD SSTORE PUSH2 0x140 DUP3 ADD MLOAD DUP2 PUSH1 0x5 ADD SSTORE SWAP1 POP POP POP POP POP POP JUMP JUMPDEST PUSH1 0x1 PUSH1 0x20 MSTORE DUP1 PUSH1 0x0 MSTORE PUSH1 0x40 PUSH1 0x0 KECCAK256 PUSH1 0x0 SWAP2 POP SWAP1 POP DUP1 PUSH1 0x0 ADD SLOAD SWAP1 DUP1 PUSH1 0x1 ADD SLOAD SWAP1 DUP1 PUSH1 0x2 ADD DUP1 SLOAD PUSH1 0x1 DUP2 PUSH1 0x1 AND ISZERO PUSH2 0x100 MUL SUB AND PUSH1 0x2 SWAP1 DIV DUP1 PUSH1 0x1F ADD PUSH1 0x20 DUP1 SWAP2 DIV MUL PUSH1 0x20 ADD PUSH1 0x40 MLOAD SWAP1 DUP2 ADD PUSH1 0x40 MSTORE DUP1 SWAP3 SWAP2 SWAP1 DUP2 DUP2 MSTORE PUSH1 0x20 ADD DUP3 DUP1 SLOAD PUSH1 0x1 DUP2 PUSH1 0x1 AND ISZERO PUSH2 0x100 MUL SUB AND PUSH1 0x2 SWAP1 DIV DUP1 ISZERO PUSH2 0x8D7 JUMPI DUP1 PUSH1 0x1F LT PUSH2 0x8AC JUMPI PUSH2 0x100 DUP1 DUP4 SLOAD DIV MUL DUP4 MSTORE SWAP2 PUSH1 0x20 ADD SWAP2 PUSH2 0x8D7 JUMP JUMPDEST DUP3 ADD SWAP2 SWAP1 PUSH1 0x0 MSTORE PUSH1 0x20 PUSH1 0x0 KECCAK256 SWAP1 JUMPDEST DUP2 SLOAD DUP2 MSTORE SWAP1 PUSH1 0x1 ADD SWAP1 PUSH1 0x20 ADD DUP1 DUP4 GT PUSH2 0x8BA JUMPI DUP3 SWAP1 SUB PUSH1 0x1F AND DUP3 ADD SWAP2 JUMPDEST POP POP POP POP POP SWAP1 DUP1 PUSH1 0x3 ADD DUP1 SLOAD PUSH1 0x1 DUP2 PUSH1 0x1 AND ISZERO PUSH2 0x100 MUL SUB AND PUSH1 0x2 SWAP1 DIV DUP1 PUSH1 0x1F ADD PUSH1 0x20 DUP1 SWAP2 DIV MUL PUSH1 0x20 ADD PUSH1 0x40 MLOAD SWAP1 DUP2 ADD PUSH1 0x40 MSTORE DUP1 SWAP3 SWAP2 SWAP1 DUP2 DUP2 MSTORE PUSH1 0x20 ADD DUP3 DUP1 SLOAD PUSH1 0x1 DUP2 PUSH1 0x1 AND ISZERO PUSH2 0x100 MUL SUB AND PUSH1 0x2 SWAP1 DIV DUP1 ISZERO PUSH2 0x975 JUMPI DUP1 PUSH1 0x1F LT PUSH2 0x94A JUMPI PUSH2 0x100 DUP1 DUP4 SLOAD DIV MUL DUP4 MSTORE SWAP2 PUSH1 0x20 ADD SWAP2 PUSH2 0x975 JUMP JUMPDEST DUP3 ADD SWAP2 SWAP1 PUSH1 0x0 MSTORE PUSH1 0x20 PUSH1 0x0 KECCAK256 SWAP1 JUMPDEST DUP2 SLOAD DUP2 MSTORE SWAP1 PUSH1 0x1 ADD SWAP1 PUSH1 0x20 ADD DUP1 DUP4 GT PUSH2 0x958 JUMPI DUP3 SWAP1 SUB PUSH1 0x1F AND DUP3 ADD SWAP2 JUMPDEST POP POP POP POP POP SWAP1 DUP1 PUSH1 0x4 ADD DUP1 SLOAD PUSH1 0x1 DUP2 PUSH1 0x1 AND ISZERO PUSH2 0x100 MUL SUB AND PUSH1 0x2 SWAP1 DIV DUP1 PUSH1 0x1F ADD PUSH1 0x20 DUP1 SWAP2 DIV MUL PUSH1 0x20 ADD PUSH1 0x40 MLOAD SWAP1 DUP2 ADD PUSH1 0x40 MSTORE DUP1 SWAP3 SWAP2 SWAP1 DUP2 DUP2 MSTORE PUSH1 0x20 ADD DUP3 DUP1 SLOAD PUSH1 0x1 DUP2 PUSH1 0x1 AND ISZERO PUSH2 0x100 MUL SUB AND PUSH1 0x2 SWAP1 DIV DUP1 ISZERO PUSH2 0xA13 JUMPI DUP1 PUSH1 0x1F LT PUSH2 0x9E8 JUMPI PUSH2 0x100 DUP1 DUP4 SLOAD DIV MUL DUP4 MSTORE SWAP2 PUSH1 0x20 ADD SWAP2 PUSH2 0xA13 JUMP JUMPDEST DUP3 ADD SWAP2 SWAP1 PUSH1 0x0 MSTORE PUSH1 0x20 PUSH1 0x0 KECCAK256 SWAP1 JUMPDEST DUP2 SLOAD DUP2 MSTORE SWAP1 PUSH1 0x1 ADD SWAP1 PUSH1 0x20 ADD DUP1 DUP4 GT PUSH2 0x9F6 JUMPI DUP3 SWAP1 SUB PUSH1 0x1F AND DUP3 ADD SWAP2 JUMPDEST POP POP POP POP POP SWAP1 DUP1 PUSH1 0x5 ADD SLOAD SWAP1 DUP1 PUSH1 0x6 ADD SLOAD SWAP1 POP DUP8 JUMP JUMPDEST PUSH1 0x0 PUSH1 0x1 PUSH1 0x0 DUP4 DUP2 MSTORE PUSH1 0x20 ADD SWAP1 DUP2 MSTORE PUSH1 0x20 ADD PUSH1 0x0 KECCAK256 PUSH1 0x0 ADD SLOAD SWAP1 POP PUSH1 0x0 DUP2 LT ISZERO DUP1 ISZERO PUSH2 0xA57 JUMPI POP PUSH1 0x0 SLOAD DUP2 GT ISZERO JUMPDEST ISZERO PUSH2 0xA61 JUMPI PUSH2 0xACF JUMP JUMPDEST PUSH1 0x40 MLOAD PUSH32 0x8C379A000000000000000000000000000000000000000000000000000000000 DUP2 MSTORE PUSH1 0x4 ADD DUP1 DUP1 PUSH1 0x20 ADD DUP3 DUP2 SUB DUP3 MSTORE PUSH1 0x19 DUP2 MSTORE PUSH1 0x20 ADD DUP1 PUSH32 0x42656E65666163746F7220446F6573204E6F7420457869737400000000000000 DUP2 MSTORE POP PUSH1 0x20 ADD SWAP2 POP POP PUSH1 0x40 MLOAD DUP1 SWAP2 SUB SWAP1 REVERT JUMPDEST POP POP JUMP JUMPDEST PUSH1 0x40 MLOAD DUP1 PUSH1 0xE0 ADD PUSH1 0x40 MSTORE DUP1 PUSH1 0x0 DUP2 MSTORE PUSH1 0x20 ADD PUSH1 0x4 SLOAD DUP2 MSTORE PUSH1 0x20 ADD PUSH1 0x40 MLOAD DUP1 PUSH1 0x40 ADD PUSH1 0x40 MSTORE DUP1 PUSH1 0x5 DUP2 MSTORE PUSH1 0x20 ADD PUSH32 0x4461727468000000000000000000000000000000000000000000000000000000 DUP2 MSTORE POP DUP2 MSTORE PUSH1 0x20 ADD PUSH1 0x40 MLOAD DUP1 PUSH1 0x40 ADD PUSH1 0x40 MSTORE DUP1 PUSH1 0xB DUP2 MSTORE PUSH1 0x20 ADD PUSH32 0x44656174684465616C6572000000000000000000000000000000000000000000 DUP2 MSTORE POP DUP2 MSTORE PUSH1 0x20 ADD PUSH1 0x40 MLOAD DUP1 PUSH1 0x40 ADD PUSH1 0x40 MSTORE DUP1 PUSH1 0xE DUP2 MSTORE PUSH1 0x20 ADD PUSH32 0x64656174686465616C6572303037000000000000000000000000000000000000 DUP2 MSTORE POP DUP2 MSTORE PUSH1 0x20 ADD PUSH1 0xEF DUP2 MSTORE PUSH1 0x20 ADD PUSH1 0x1 DUP2 MSTORE POP PUSH1 0x1 PUSH1 0x0 DUP1 DUP2 MSTORE PUSH1 0x20 ADD SWAP1 DUP2 MSTORE PUSH1 0x20 ADD PUSH1 0x0 KECCAK256 PUSH1 0x0 DUP3 ADD MLOAD DUP2 PUSH1 0x0 ADD SSTORE PUSH1 0x20 DUP3 ADD MLOAD DUP2 PUSH1 0x1 ADD SSTORE PUSH1 0x40 DUP3 ADD MLOAD DUP2 PUSH1 0x2 ADD SWAP1 DUP1 MLOAD SWAP1 PUSH1 0x20 ADD SWAP1 PUSH2 0xBED SWAP3 SWAP2 SWAP1 PUSH2 0x109D JUMP JUMPDEST POP PUSH1 0x60 DUP3 ADD MLOAD DUP2 PUSH1 0x3 ADD SWAP1 DUP1 MLOAD SWAP1 PUSH1 0x20 ADD SWAP1 PUSH2 0xC0A SWAP3 SWAP2 SWAP1 PUSH2 0x109D JUMP JUMPDEST POP PUSH1 0x80 DUP3 ADD MLOAD DUP2 PUSH1 0x4 ADD SWAP1 DUP1 MLOAD SWAP1 PUSH1 0x20 ADD SWAP1 PUSH2 0xC27 SWAP3 SWAP2 SWAP1 PUSH2 0x109D JUMP JUMPDEST POP PUSH1 0xA0 DUP3 ADD MLOAD DUP2 PUSH1 0x5 ADD SSTORE PUSH1 0xC0 DUP3 ADD MLOAD DUP2 PUSH1 0x6 ADD SSTORE SWAP1 POP POP PUSH1 0x40 MLOAD DUP1 PUSH1 0xE0 ADD PUSH1 0x40 MSTORE DUP1 PUSH1 0x1 DUP2 MSTORE PUSH1 0x20 ADD PUSH1 0x4 SLOAD DUP2 MSTORE PUSH1 0x20 ADD PUSH1 0x40 MLOAD DUP1 PUSH1 0x40 ADD PUSH1 0x40 MSTORE DUP1 PUSH1 0x3 DUP2 MSTORE PUSH1 0x20 ADD PUSH32 0x5A756C0000000000000000000000000000000000000000000000000000000000 DUP2 MSTORE POP DUP2 MSTORE PUSH1 0x20 ADD PUSH1 0x40 MLOAD DUP1 PUSH1 0x40 ADD PUSH1 0x40 MSTORE DUP1 PUSH1 0x3 DUP2 MSTORE PUSH1 0x20 ADD PUSH32 0x5A65640000000000000000000000000000000000000000000000000000000000 DUP2 MSTORE POP DUP2 MSTORE PUSH1 0x20 ADD PUSH1 0x40 MLOAD DUP1 PUSH1 0x40 ADD PUSH1 0x40 MSTORE DUP1 PUSH1 0xE DUP2 MSTORE PUSH1 0x20 ADD PUSH32 0x666972737477697A617264303037000000000000000000000000000000000000 DUP2 MSTORE POP DUP2 MSTORE PUSH1 0x20 ADD PUSH1 0xEF DUP2 MSTORE PUSH1 0x20 ADD PUSH1 0x1 DUP2 MSTORE POP PUSH1 0x1 PUSH1 0x0 PUSH1 0x1 DUP2 MSTORE PUSH1 0x20 ADD SWAP1 DUP2 MSTORE PUSH1 0x20 ADD PUSH1 0x0 KECCAK256 PUSH1 0x0 DUP3 ADD MLOAD DUP2 PUSH1 0x0 ADD SSTORE PUSH1 0x20 DUP3 ADD MLOAD DUP2 PUSH1 0x1 ADD SSTORE PUSH1 0x40 DUP3 ADD MLOAD DUP2 PUSH1 0x2 ADD SWAP1 DUP1 MLOAD SWAP1 PUSH1 0x20 ADD SWAP1 PUSH2 0xD5A SWAP3 SWAP2 SWAP1 PUSH2 0x109D JUMP JUMPDEST POP PUSH1 0x60 DUP3 ADD MLOAD DUP2 PUSH1 0x3 ADD SWAP1 DUP1 MLOAD SWAP1 PUSH1 0x20 ADD SWAP1 PUSH2 0xD77 SWAP3 SWAP2 SWAP1 PUSH2 0x109D JUMP JUMPDEST POP PUSH1 0x80 DUP3 ADD MLOAD DUP2 PUSH1 0x4 ADD SWAP1 DUP1 MLOAD SWAP1 PUSH1 0x20 ADD SWAP1 PUSH2 0xD94 SWAP3 SWAP2 SWAP1 PUSH2 0x109D JUMP JUMPDEST POP PUSH1 0xA0 DUP3 ADD MLOAD DUP2 PUSH1 0x5 ADD SSTORE PUSH1 0xC0 DUP3 ADD MLOAD DUP2 PUSH1 0x6 ADD SSTORE SWAP1 POP POP PUSH1 0x40 MLOAD DUP1 PUSH2 0x160 ADD PUSH1 0x40 MSTORE DUP1 PUSH1 0x0 DUP2 MSTORE PUSH1 0x20 ADD PUSH1 0x1 ISZERO ISZERO DUP2 MSTORE PUSH1 0x20 ADD PUSH1 0x1 ISZERO ISZERO DUP2 MSTORE PUSH1 0x20 ADD PUSH1 0x1 ISZERO ISZERO DUP2 MSTORE PUSH1 0x20 ADD PUSH1 0x1 ISZERO ISZERO DUP2 MSTORE PUSH1 0x20 ADD PUSH1 0x1 ISZERO ISZERO DUP2 MSTORE PUSH1 0x20 ADD PUSH1 0x1 ISZERO ISZERO DUP2 MSTORE PUSH1 0x20 ADD PUSH1 0x0 DUP2 MSTORE PUSH1 0x20 ADD PUSH1 0x0 DUP2 MSTORE PUSH1 0x20 ADD PUSH1 0x0 DUP2 MSTORE PUSH1 0x20 ADD PUSH1 0x0 DUP2 MSTORE POP PUSH1 0x2 PUSH1 0x0 DUP1 DUP2 MSTORE PUSH1 0x20 ADD SWAP1 DUP2 MSTORE PUSH1 0x20 ADD PUSH1 0x0 KECCAK256 PUSH1 0x0 DUP3 ADD MLOAD DUP2 PUSH1 0x0 ADD SSTORE PUSH1 0x20 DUP3 ADD MLOAD DUP2 PUSH1 0x1 ADD PUSH1 0x0 PUSH2 0x100 EXP DUP2 SLOAD DUP2 PUSH1 0xFF MUL NOT AND SWAP1 DUP4 ISZERO ISZERO MUL OR SWAP1 SSTORE POP PUSH1 0x40 DUP3 ADD MLOAD DUP2 PUSH1 0x1 ADD PUSH1 0x1 PUSH2 0x100 EXP DUP2 SLOAD DUP2 PUSH1 0xFF MUL NOT AND SWAP1 DUP4 ISZERO ISZERO MUL OR SWAP1 SSTORE POP PUSH1 0x60 DUP3 ADD MLOAD DUP2 PUSH1 0x1 ADD PUSH1 0x2 PUSH2 0x100 EXP DUP2 SLOAD DUP2 PUSH1 0xFF MUL NOT AND SWAP1 DUP4 ISZERO ISZERO MUL OR SWAP1 SSTORE POP PUSH1 0x80 DUP3 ADD MLOAD DUP2 PUSH1 0x1 ADD PUSH1 0x3 PUSH2 0x100 EXP DUP2 SLOAD DUP2 PUSH1 0xFF MUL NOT AND SWAP1 DUP4 ISZERO ISZERO MUL OR SWAP1 SSTORE POP PUSH1 0xA0 DUP3 ADD MLOAD DUP2 PUSH1 0x1 ADD PUSH1 0x4 PUSH2 0x100 EXP DUP2 SLOAD DUP2 PUSH1 0xFF MUL NOT AND SWAP1 DUP4 ISZERO ISZERO MUL OR SWAP1 SSTORE POP PUSH1 0xC0 DUP3 ADD MLOAD DUP2 PUSH1 0x1 ADD PUSH1 0x5 PUSH2 0x100 EXP DUP2 SLOAD DUP2 PUSH1 0xFF MUL NOT AND SWAP1 DUP4 ISZERO ISZERO MUL OR SWAP1 SSTORE POP PUSH1 0xE0 DUP3 ADD MLOAD DUP2 PUSH1 0x2 ADD SSTORE PUSH2 0x100 DUP3 ADD MLOAD DUP2 PUSH1 0x3 ADD SSTORE PUSH2 0x120 DUP3 ADD MLOAD DUP2 PUSH1 0x4 ADD SSTORE PUSH2 0x140 DUP3 ADD MLOAD DUP2 PUSH1 0x5 ADD SSTORE SWAP1 POP POP PUSH1 0x40 MLOAD DUP1 PUSH2 0x160 ADD PUSH1 0x40 MSTORE DUP1 PUSH1 0x1 DUP2 MSTORE PUSH1 0x20 ADD PUSH1 0x1 ISZERO ISZERO DUP2 MSTORE PUSH1 0x20 ADD PUSH1 0x1 ISZERO ISZERO DUP2 MSTORE PUSH1 0x20 ADD PUSH1 0x1 ISZERO ISZERO DUP2 MSTORE PUSH1 0x20 ADD PUSH1 0x1 ISZERO ISZERO DUP2 MSTORE PUSH1 0x20 ADD PUSH1 0x1 ISZERO ISZERO DUP2 MSTORE PUSH1 0x20 ADD PUSH1 0x1 ISZERO ISZERO DUP2 MSTORE PUSH1 0x20 ADD PUSH1 0x0 DUP2 MSTORE PUSH1 0x20 ADD PUSH1 0x0 DUP2 MSTORE PUSH1 0x20 ADD PUSH1 0x0 DUP2 MSTORE PUSH1 0x20 ADD PUSH1 0x0 DUP2 MSTORE POP PUSH1 0x2 PUSH1 0x0 PUSH1 0x1 DUP2 MSTORE PUSH1 0x20 ADD SWAP1 DUP2 MSTORE PUSH1 0x20 ADD PUSH1 0x0 KECCAK256 PUSH1 0x0 DUP3 ADD MLOAD DUP2 PUSH1 0x0 ADD SSTORE PUSH1 0x20 DUP3 ADD MLOAD DUP2 PUSH1 0x1 ADD PUSH1 0x0 PUSH2 0x100 EXP DUP2 SLOAD DUP2 PUSH1 0xFF MUL NOT AND SWAP1 DUP4 ISZERO ISZERO MUL OR SWAP1 SSTORE POP PUSH1 0x40 DUP3 ADD MLOAD DUP2 PUSH1 0x1 ADD PUSH1 0x1 PUSH2 0x100 EXP DUP2 SLOAD DUP2 PUSH1 0xFF MUL NOT AND SWAP1 DUP4 ISZERO ISZERO MUL OR SWAP1 SSTORE POP PUSH1 0x60 DUP3 ADD MLOAD DUP2 PUSH1 0x1 ADD PUSH1 0x2 PUSH2 0x100 EXP DUP2 SLOAD DUP2 PUSH1 0xFF MUL NOT AND SWAP1 DUP4 ISZERO ISZERO MUL OR SWAP1 SSTORE POP PUSH1 0x80 DUP3 ADD MLOAD DUP2 PUSH1 0x1 ADD PUSH1 0x3 PUSH2 0x100 EXP DUP2 SLOAD DUP2 PUSH1 0xFF MUL NOT AND SWAP1 DUP4 ISZERO ISZERO MUL OR SWAP1 SSTORE POP PUSH1 0xA0 DUP3 ADD MLOAD DUP2 PUSH1 0x1 ADD PUSH1 0x4 PUSH2 0x100 EXP DUP2 SLOAD DUP2 PUSH1 0xFF MUL NOT AND SWAP1 DUP4 ISZERO ISZERO MUL OR SWAP1 SSTORE POP PUSH1 0xC0 DUP3 ADD MLOAD DUP2 PUSH1 0x1 ADD PUSH1 0x5 PUSH2 0x100 EXP DUP2 SLOAD DUP2 PUSH1 0xFF MUL NOT AND SWAP1 DUP4 ISZERO ISZERO MUL OR SWAP1 SSTORE POP PUSH1 0xE0 DUP3 ADD MLOAD DUP2 PUSH1 0x2 ADD SSTORE PUSH2 0x100 DUP3 ADD MLOAD DUP2 PUSH1 0x3 ADD SSTORE PUSH2 0x120 DUP3 ADD MLOAD DUP2 PUSH1 0x4 ADD SSTORE PUSH2 0x140 DUP3 ADD MLOAD DUP2 PUSH1 0x5 ADD SSTORE SWAP1 POP POP JUMP JUMPDEST PUSH1 0x1 PUSH1 0x0 DUP1 DUP3 DUP3 SLOAD ADD SWAP3 POP POP DUP2 SWAP1 SSTORE POP JUMP JUMPDEST DUP3 DUP1 SLOAD PUSH1 0x1 DUP2 PUSH1 0x1 AND ISZERO PUSH2 0x100 MUL SUB AND PUSH1 0x2 SWAP1 DIV SWAP1 PUSH1 0x0 MSTORE PUSH1 0x20 PUSH1 0x0 KECCAK256 SWAP1 PUSH1 0x1F ADD PUSH1 0x20 SWAP1 DIV DUP2 ADD SWAP3 DUP3 PUSH1 0x1F LT PUSH2 0x10DE JUMPI DUP1 MLOAD PUSH1 0xFF NOT AND DUP4 DUP1 ADD OR DUP6 SSTORE PUSH2 0x110C JUMP JUMPDEST DUP3 DUP1 ADD PUSH1 0x1 ADD DUP6 SSTORE DUP3 ISZERO PUSH2 0x110C JUMPI SWAP2 DUP3 ADD JUMPDEST DUP3 DUP2 GT ISZERO PUSH2 0x110B JUMPI DUP3 MLOAD DUP3 SSTORE SWAP2 PUSH1 0x20 ADD SWAP2 SWAP1 PUSH1 0x1 ADD SWAP1 PUSH2 0x10F0 JUMP JUMPDEST JUMPDEST POP SWAP1 POP PUSH2 0x1119 SWAP2 SWAP1 PUSH2 0x111D JUMP JUMPDEST POP SWAP1 JUMP JUMPDEST PUSH2 0x113F SWAP2 SWAP1 JUMPDEST DUP1 DUP3 GT ISZERO PUSH2 0x113B JUMPI PUSH1 0x0 DUP2 PUSH1 0x0 SWAP1 SSTORE POP PUSH1 0x1 ADD PUSH2 0x1123 JUMP JUMPDEST POP SWAP1 JUMP JUMPDEST SWAP1 JUMP INVALID LOG2 PUSH6 0x627A7A723158 KECCAK256 RETURNDATASIZE PUSH21 0xA83824EBE5AB5C066BFDA8019E6C97B1BE959FCDDE NOT 0x27 0xDF LOG4 0xD2 0xB4 SWAP8 0xD5 EXTCODESIZE PUSH5 0x736F6C6343 STOP SDIV GT STOP ORIGIN "
				},
				"gasEstimates": {
					"creation": {
						"codeDepositCost": "894200",
						"executionCost": "5935",
						"totalCost": "900135"
					},
					"external": {
						"addGamer(string,string,string,uint256)": "infinite",
						"checkBenefactorExist(uint256)": "2142",
						"gamerFlags(uint256)": "10013",
						"gamers(uint256)": "infinite"
					},
					"internal": {
						"addFirstGamer()": "infinite",
						"incrementCount()": "20842"
					}
				},
				"methodIdentifiers": {
					"addGamer(string,string,string,uint256)": "57a6c279",
					"checkBenefactorExist(uint256)": "df432393",
					"gamerFlags(uint256)": "3557ca3f",
					"gamers(uint256)": "abf57908"
				}
			},
			"storageLayout": {
				"storage": [
					{
						"astId": 4,
						"contract": "ichoronium-galactic-contracts/users/ichorProfiles.sol:ichoroniumProfiles",
						"label": "gamerCount",
						"offset": 0,
						"slot": "0",
						"type": "t_uint256"
					},
					{
						"astId": 8,
						"contract": "ichoronium-galactic-contracts/users/ichorProfiles.sol:ichoroniumProfiles",
						"label": "gamers",
						"offset": 0,
						"slot": "1",
						"type": "t_mapping(t_uint256,t_struct(Gamer)31_storage)"
					},
					{
						"astId": 12,
						"contract": "ichoronium-galactic-contracts/users/ichorProfiles.sol:ichoroniumProfiles",
						"label": "gamerFlags",
						"offset": 0,
						"slot": "2",
						"type": "t_mapping(t_uint256,t_struct(gamerFlag)54_storage)"
					},
					{
						"astId": 14,
						"contract": "ichoronium-galactic-contracts/users/ichorProfiles.sol:ichoroniumProfiles",
						"label": "owner",
						"offset": 0,
						"slot": "3",
						"type": "t_address"
					},
					{
						"astId": 16,
						"contract": "ichoronium-galactic-contracts/users/ichorProfiles.sol:ichoroniumProfiles",
						"label": "todaysDate",
						"offset": 0,
						"slot": "4",
						"type": "t_uint256"
					}
				],
				"types": {
					"t_address": {
						"encoding": "inplace",
						"label": "address",
						"numberOfBytes": "20"
					},
					"t_bool": {
						"encoding": "inplace",
						"label": "bool",
						"numberOfBytes": "1"
					},
					"t_mapping(t_uint256,t_struct(Gamer)31_storage)": {
						"encoding": "mapping",
						"key": "t_uint256",
						"label": "mapping(uint256 => struct ichoroniumProfiles.Gamer)",
						"numberOfBytes": "32",
						"value": "t_struct(Gamer)31_storage"
					},
					"t_mapping(t_uint256,t_struct(gamerFlag)54_storage)": {
						"encoding": "mapping",
						"key": "t_uint256",
						"label": "mapping(uint256 => struct ichoroniumProfiles.gamerFlag)",
						"numberOfBytes": "32",
						"value": "t_struct(gamerFlag)54_storage"
					},
					"t_string_storage": {
						"encoding": "bytes",
						"label": "string",
						"numberOfBytes": "32"
					},
					"t_struct(Gamer)31_storage": {
						"encoding": "inplace",
						"label": "struct ichoroniumProfiles.Gamer",
						"members": [
							{
								"astId": 18,
								"contract": "ichoronium-galactic-contracts/users/ichorProfiles.sol:ichoroniumProfiles",
								"label": "_id",
								"offset": 0,
								"slot": "0",
								"type": "t_uint256"
							},
							{
								"astId": 20,
								"contract": "ichoronium-galactic-contracts/users/ichorProfiles.sol:ichoroniumProfiles",
								"label": "_registrationDate",
								"offset": 0,
								"slot": "1",
								"type": "t_uint256"
							},
							{
								"astId": 22,
								"contract": "ichoronium-galactic-contracts/users/ichorProfiles.sol:ichoroniumProfiles",
								"label": "_realFirstName",
								"offset": 0,
								"slot": "2",
								"type": "t_string_storage"
							},
							{
								"astId": 24,
								"contract": "ichoronium-galactic-contracts/users/ichorProfiles.sol:ichoroniumProfiles",
								"label": "_realLastName",
								"offset": 0,
								"slot": "3",
								"type": "t_string_storage"
							},
							{
								"astId": 26,
								"contract": "ichoronium-galactic-contracts/users/ichorProfiles.sol:ichoroniumProfiles",
								"label": "_officialUsername",
								"offset": 0,
								"slot": "4",
								"type": "t_string_storage"
							},
							{
								"astId": 28,
								"contract": "ichoronium-galactic-contracts/users/ichorProfiles.sol:ichoroniumProfiles",
								"label": "_ichoroniumLevel",
								"offset": 0,
								"slot": "5",
								"type": "t_uint256"
							},
							{
								"astId": 30,
								"contract": "ichoronium-galactic-contracts/users/ichorProfiles.sol:ichoroniumProfiles",
								"label": "_benefactor",
								"offset": 0,
								"slot": "6",
								"type": "t_uint256"
							}
						],
						"numberOfBytes": "224"
					},
					"t_struct(gamerFlag)54_storage": {
						"encoding": "inplace",
						"label": "struct ichoroniumProfiles.gamerFlag",
						"members": [
							{
								"astId": 33,
								"contract": "ichoronium-galactic-contracts/users/ichorProfiles.sol:ichoroniumProfiles",
								"label": "_id",
								"offset": 0,
								"slot": "0",
								"type": "t_uint256"
							},
							{
								"astId": 35,
								"contract": "ichoronium-galactic-contracts/users/ichorProfiles.sol:ichoroniumProfiles",
								"label": "_smsVerified",
								"offset": 0,
								"slot": "1",
								"type": "t_bool"
							},
							{
								"astId": 37,
								"contract": "ichoronium-galactic-contracts/users/ichorProfiles.sol:ichoroniumProfiles",
								"label": "_socialverfied",
								"offset": 1,
								"slot": "1",
								"type": "t_bool"
							},
							{
								"astId": 39,
								"contract": "ichoronium-galactic-contracts/users/ichorProfiles.sol:ichoroniumProfiles",
								"label": "_kycVerified",
								"offset": 2,
								"slot": "1",
								"type": "t_bool"
							},
							{
								"astId": 41,
								"contract": "ichoronium-galactic-contracts/users/ichorProfiles.sol:ichoroniumProfiles",
								"label": "_softBan",
								"offset": 3,
								"slot": "1",
								"type": "t_bool"
							},
							{
								"astId": 43,
								"contract": "ichoronium-galactic-contracts/users/ichorProfiles.sol:ichoroniumProfiles",
								"label": "_hardBan",
								"offset": 4,
								"slot": "1",
								"type": "t_bool"
							},
							{
								"astId": 45,
								"contract": "ichoronium-galactic-contracts/users/ichorProfiles.sol:ichoroniumProfiles",
								"label": "_isJin",
								"offset": 5,
								"slot": "1",
								"type": "t_bool"
							},
							{
								"astId": 47,
								"contract": "ichoronium-galactic-contracts/users/ichorProfiles.sol:ichoroniumProfiles",
								"label": "_hardBanAddress",
								"offset": 0,
								"slot": "2",
								"type": "t_uint256"
							},
							{
								"astId": 49,
								"contract": "ichoronium-galactic-contracts/users/ichorProfiles.sol:ichoroniumProfiles",
								"label": "_socialverificationAddress",
								"offset": 0,
								"slot": "3",
								"type": "t_uint256"
							},
							{
								"astId": 51,
								"contract": "ichoronium-galactic-contracts/users/ichorProfiles.sol:ichoroniumProfiles",
								"label": "_kycVericationAddress",
								"offset": 0,
								"slot": "4",
								"type": "t_uint256"
							},
							{
								"astId": 53,
								"contract": "ichoronium-galactic-contracts/users/ichorProfiles.sol:ichoroniumProfiles",
								"label": "_softBanAddress",
								"offset": 0,
								"slot": "5",
								"type": "t_uint256"
							}
						],
						"numberOfBytes": "192"
					},
					"t_uint256": {
						"encoding": "inplace",
						"label": "uint256",
						"numberOfBytes": "32"
					}
				}
			},
			"userdoc": {
				"methods": {}
			}
		}
	}
}