{
	"ichoronium-galactic-contracts/governence/ichoroniumNetworkSettings.sol": {
		"ichoroniumNetworkSettings": {
			"abi": [
				{
					"constant": true,
					"inputs": [],
					"name": "gameProfitsGalacticSettingsCurrent",
					"outputs": [
						{
							"internalType": "address",
							"name": "",
							"type": "address"
						}
					],
					"payable": false,
					"stateMutability": "view",
					"type": "function"
				},
				{
					"constant": true,
					"inputs": [],
					"name": "ichoroniumFinanceSettingsCurrent",
					"outputs": [
						{
							"internalType": "address",
							"name": "",
							"type": "address"
						}
					],
					"payable": false,
					"stateMutability": "view",
					"type": "function"
				},
				{
					"constant": true,
					"inputs": [],
					"name": "ichoroniumGalacticMeteaverseCurrent",
					"outputs": [
						{
							"internalType": "address",
							"name": "",
							"type": "address"
						}
					],
					"payable": false,
					"stateMutability": "view",
					"type": "function"
				},
				{
					"constant": true,
					"inputs": [],
					"name": "ichoroniumNetworkPermissionsCurrent",
					"outputs": [
						{
							"internalType": "address",
							"name": "",
							"type": "address"
						}
					],
					"payable": false,
					"stateMutability": "view",
					"type": "function"
				},
				{
					"constant": true,
					"inputs": [],
					"name": "ichoroniumNetworkProfilesCurrent",
					"outputs": [
						{
							"internalType": "address",
							"name": "",
							"type": "address"
						}
					],
					"payable": false,
					"stateMutability": "view",
					"type": "function"
				},
				{
					"constant": true,
					"inputs": [],
					"name": "isNetworkActive",
					"outputs": [
						{
							"internalType": "bool",
							"name": "",
							"type": "bool"
						}
					],
					"payable": false,
					"stateMutability": "view",
					"type": "function"
				},
				{
					"constant": true,
					"inputs": [],
					"name": "isNetworkIsCoolingDown",
					"outputs": [
						{
							"internalType": "bool",
							"name": "",
							"type": "bool"
						}
					],
					"payable": false,
					"stateMutability": "view",
					"type": "function"
				},
				{
					"constant": true,
					"inputs": [],
					"name": "isNetworkIsDeactive",
					"outputs": [
						{
							"internalType": "bool",
							"name": "",
							"type": "bool"
						}
					],
					"payable": false,
					"stateMutability": "view",
					"type": "function"
				},
				{
					"constant": true,
					"inputs": [],
					"name": "killswitch",
					"outputs": [
						{
							"internalType": "bool",
							"name": "",
							"type": "bool"
						}
					],
					"payable": false,
					"stateMutability": "view",
					"type": "function"
				}
			],
			"devdoc": {
				"methods": {}
			},
			"evm": {
				"assembly": "    /* \"ichoronium-galactic-contracts/governence/ichoroniumNetworkSettings.sol\":86:3847  contract ichoroniumNetworkSettings {\r... */\n  mstore(0x40, 0x80)\n    /* \"ichoronium-galactic-contracts/governence/ichoroniumNetworkSettings.sol\":189:1002  networkSettings(false,false,true,false,0x0000000000000000000000000000000000000000,0x0000000000000000000000000000000000000000,0x0000000000000000000000000000000000000000,0x0000000000000000000000000000000000000000,0x0000000000000000000000000000000000000000,0x0000000000000000000000000000000000000000,0x0000000000000000000000000000000000000000,0x0000000000000000000000000000000000000000,0x0000000000000000000000000000000000000000,0x0000000000000000000000000000000000000000,0x0000000000000000000000000000000000000000,0x0000000000000000000000000000000000000000,0x0000000000000000000000000000000000000000,0x0000000000000000000000000000000000000000,0x0000000000000000000000000000000000000000,0x0000000000000000000000000000000000000000,0x0000000000000000000000000000000000000000,0x0000000000000000000000000000000000000000) */\n  mload(0x40)\n  dup1\n  0x02c0\n  add\n  0x40\n  mstore\n  dup1\n    /* \"ichoronium-galactic-contracts/governence/ichoroniumNetworkSettings.sol\":205:210  false */\n  0x00\n    /* \"ichoronium-galactic-contracts/governence/ichoroniumNetworkSettings.sol\":189:1002  networkSettings(false,false,true,false,0x0000000000000000000000000000000000000000,0x0000000000000000000000000000000000000000,0x0000000000000000000000000000000000000000,0x0000000000000000000000000000000000000000,0x0000000000000000000000000000000000000000,0x0000000000000000000000000000000000000000,0x0000000000000000000000000000000000000000,0x0000000000000000000000000000000000000000,0x0000000000000000000000000000000000000000,0x0000000000000000000000000000000000000000,0x0000000000000000000000000000000000000000,0x0000000000000000000000000000000000000000,0x0000000000000000000000000000000000000000,0x0000000000000000000000000000000000000000,0x0000000000000000000000000000000000000000,0x0000000000000000000000000000000000000000,0x0000000000000000000000000000000000000000,0x0000000000000000000000000000000000000000) */\n  iszero\n  iszero\n  dup2\n  mstore\n  0x20\n  add\n    /* \"ichoronium-galactic-contracts/governence/ichoroniumNetworkSettings.sol\":211:216  false */\n  0x00\n    /* \"ichoronium-galactic-contracts/governence/ichoroniumNetworkSettings.sol\":189:1002  networkSettings(false,false,true,false,0x0000000000000000000000000000000000000000,0x0000000000000000000000000000000000000000,0x0000000000000000000000000000000000000000,0x0000000000000000000000000000000000000000,0x0000000000000000000000000000000000000000,0x0000000000000000000000000000000000000000,0x0000000000000000000000000000000000000000,0x0000000000000000000000000000000000000000,0x0000000000000000000000000000000000000000,0x0000000000000000000000000000000000000000,0x0000000000000000000000000000000000000000,0x0000000000000000000000000000000000000000,0x0000000000000000000000000000000000000000,0x0000000000000000000000000000000000000000,0x0000000000000000000000000000000000000000,0x0000000000000000000000000000000000000000,0x0000000000000000000000000000000000000000,0x0000000000000000000000000000000000000000) */\n  iszero\n  iszero\n  dup2\n  mstore\n  0x20\n  add\n    /* \"ichoronium-galactic-contracts/governence/ichoroniumNetworkSettings.sol\":217:221  true */\n  0x01\n    /* \"ichoronium-galactic-contracts/governence/ichoroniumNetworkSettings.sol\":189:1002  networkSettings(false,false,true,false,0x0000000000000000000000000000000000000000,0x0000000000000000000000000000000000000000,0x0000000000000000000000000000000000000000,0x0000000000000000000000000000000000000000,0x0000000000000000000000000000000000000000,0x0000000000000000000000000000000000000000,0x0000000000000000000000000000000000000000,0x0000000000000000000000000000000000000000,0x0000000000000000000000000000000000000000,0x0000000000000000000000000000000000000000,0x0000000000000000000000000000000000000000,0x0000000000000000000000000000000000000000,0x0000000000000000000000000000000000000000,0x0000000000000000000000000000000000000000,0x0000000000000000000000000000000000000000,0x0000000000000000000000000000000000000000,0x0000000000000000000000000000000000000000,0x0000000000000000000000000000000000000000) */\n  iszero\n  iszero\n  dup2\n  mstore\n  0x20\n  add\n    /* \"ichoronium-galactic-contracts/governence/ichoroniumNetworkSettings.sol\":222:227  false */\n  0x00\n    /* \"ichoronium-galactic-contracts/governence/ichoroniumNetworkSettings.sol\":189:1002  networkSettings(false,false,true,false,0x0000000000000000000000000000000000000000,0x0000000000000000000000000000000000000000,0x0000000000000000000000000000000000000000,0x0000000000000000000000000000000000000000,0x0000000000000000000000000000000000000000,0x0000000000000000000000000000000000000000,0x0000000000000000000000000000000000000000,0x0000000000000000000000000000000000000000,0x0000000000000000000000000000000000000000,0x0000000000000000000000000000000000000000,0x0000000000000000000000000000000000000000,0x0000000000000000000000000000000000000000,0x0000000000000000000000000000000000000000,0x0000000000000000000000000000000000000000,0x0000000000000000000000000000000000000000,0x0000000000000000000000000000000000000000,0x0000000000000000000000000000000000000000,0x0000000000000000000000000000000000000000) */\n  iszero\n  iszero\n  dup2\n  mstore\n  0x20\n  add\n    /* \"ichoronium-galactic-contracts/governence/ichoroniumNetworkSettings.sol\":228:270  0x0000000000000000000000000000000000000000 */\n  0x00\n    /* \"ichoronium-galactic-contracts/governence/ichoroniumNetworkSettings.sol\":189:1002  networkSettings(false,false,true,false,0x0000000000000000000000000000000000000000,0x0000000000000000000000000000000000000000,0x0000000000000000000000000000000000000000,0x0000000000000000000000000000000000000000,0x0000000000000000000000000000000000000000,0x0000000000000000000000000000000000000000,0x0000000000000000000000000000000000000000,0x0000000000000000000000000000000000000000,0x0000000000000000000000000000000000000000,0x0000000000000000000000000000000000000000,0x0000000000000000000000000000000000000000,0x0000000000000000000000000000000000000000,0x0000000000000000000000000000000000000000,0x0000000000000000000000000000000000000000,0x0000000000000000000000000000000000000000,0x0000000000000000000000000000000000000000,0x0000000000000000000000000000000000000000,0x0000000000000000000000000000000000000000) */\n  0xffffffffffffffffffffffffffffffffffffffff\n  and\n  dup2\n  mstore\n  0x20\n  add\n    /* \"ichoronium-galactic-contracts/governence/ichoroniumNetworkSettings.sol\":271:313  0x0000000000000000000000000000000000000000 */\n  0x00\n    /* \"ichoronium-galactic-contracts/governence/ichoroniumNetworkSettings.sol\":189:1002  networkSettings(false,false,true,false,0x0000000000000000000000000000000000000000,0x0000000000000000000000000000000000000000,0x0000000000000000000000000000000000000000,0x0000000000000000000000000000000000000000,0x0000000000000000000000000000000000000000,0x0000000000000000000000000000000000000000,0x0000000000000000000000000000000000000000,0x0000000000000000000000000000000000000000,0x0000000000000000000000000000000000000000,0x0000000000000000000000000000000000000000,0x0000000000000000000000000000000000000000,0x0000000000000000000000000000000000000000,0x0000000000000000000000000000000000000000,0x0000000000000000000000000000000000000000,0x0000000000000000000000000000000000000000,0x0000000000000000000000000000000000000000,0x0000000000000000000000000000000000000000,0x0000000000000000000000000000000000000000) */\n  0xffffffffffffffffffffffffffffffffffffffff\n  and\n  dup2\n  mstore\n  0x20\n  add\n    /* \"ichoronium-galactic-contracts/governence/ichoroniumNetworkSettings.sol\":314:356  0x0000000000000000000000000000000000000000 */\n  0x00\n    /* \"ichoronium-galactic-contracts/governence/ichoroniumNetworkSettings.sol\":189:1002  networkSettings(false,false,true,false,0x0000000000000000000000000000000000000000,0x0000000000000000000000000000000000000000,0x0000000000000000000000000000000000000000,0x0000000000000000000000000000000000000000,0x0000000000000000000000000000000000000000,0x0000000000000000000000000000000000000000,0x0000000000000000000000000000000000000000,0x0000000000000000000000000000000000000000,0x0000000000000000000000000000000000000000,0x0000000000000000000000000000000000000000,0x0000000000000000000000000000000000000000,0x0000000000000000000000000000000000000000,0x0000000000000000000000000000000000000000,0x0000000000000000000000000000000000000000,0x0000000000000000000000000000000000000000,0x0000000000000000000000000000000000000000,0x0000000000000000000000000000000000000000,0x0000000000000000000000000000000000000000) */\n  0xffffffffffffffffffffffffffffffffffffffff\n  and\n  dup2\n  mstore\n  0x20\n  add\n    /* \"ichoronium-galactic-contracts/governence/ichoroniumNetworkSettings.sol\":357:399  0x0000000000000000000000000000000000000000 */\n  0x00\n    /* \"ichoronium-galactic-contracts/governence/ichoroniumNetworkSettings.sol\":189:1002  networkSettings(false,false,true,false,0x0000000000000000000000000000000000000000,0x0000000000000000000000000000000000000000,0x0000000000000000000000000000000000000000,0x0000000000000000000000000000000000000000,0x0000000000000000000000000000000000000000,0x0000000000000000000000000000000000000000,0x0000000000000000000000000000000000000000,0x0000000000000000000000000000000000000000,0x0000000000000000000000000000000000000000,0x0000000000000000000000000000000000000000,0x0000000000000000000000000000000000000000,0x0000000000000000000000000000000000000000,0x0000000000000000000000000000000000000000,0x0000000000000000000000000000000000000000,0x0000000000000000000000000000000000000000,0x0000000000000000000000000000000000000000,0x0000000000000000000000000000000000000000,0x0000000000000000000000000000000000000000) */\n  0xffffffffffffffffffffffffffffffffffffffff\n  and\n  dup2\n  mstore\n  0x20\n  add\n    /* \"ichoronium-galactic-contracts/governence/ichoroniumNetworkSettings.sol\":400:442  0x0000000000000000000000000000000000000000 */\n  0x00\n    /* \"ichoronium-galactic-contracts/governence/ichoroniumNetworkSettings.sol\":189:1002  networkSettings(false,false,true,false,0x0000000000000000000000000000000000000000,0x0000000000000000000000000000000000000000,0x0000000000000000000000000000000000000000,0x0000000000000000000000000000000000000000,0x0000000000000000000000000000000000000000,0x0000000000000000000000000000000000000000,0x0000000000000000000000000000000000000000,0x0000000000000000000000000000000000000000,0x0000000000000000000000000000000000000000,0x0000000000000000000000000000000000000000,0x0000000000000000000000000000000000000000,0x0000000000000000000000000000000000000000,0x0000000000000000000000000000000000000000,0x0000000000000000000000000000000000000000,0x0000000000000000000000000000000000000000,0x0000000000000000000000000000000000000000,0x0000000000000000000000000000000000000000,0x0000000000000000000000000000000000000000) */\n  0xffffffffffffffffffffffffffffffffffffffff\n  and\n  dup2\n  mstore\n  0x20\n  add\n    /* \"ichoronium-galactic-contracts/governence/ichoroniumNetworkSettings.sol\":443:485  0x0000000000000000000000000000000000000000 */\n  0x00\n    /* \"ichoronium-galactic-contracts/governence/ichoroniumNetworkSettings.sol\":189:1002  networkSettings(false,false,true,false,0x0000000000000000000000000000000000000000,0x0000000000000000000000000000000000000000,0x0000000000000000000000000000000000000000,0x0000000000000000000000000000000000000000,0x0000000000000000000000000000000000000000,0x0000000000000000000000000000000000000000,0x0000000000000000000000000000000000000000,0x0000000000000000000000000000000000000000,0x0000000000000000000000000000000000000000,0x0000000000000000000000000000000000000000,0x0000000000000000000000000000000000000000,0x0000000000000000000000000000000000000000,0x0000000000000000000000000000000000000000,0x0000000000000000000000000000000000000000,0x0000000000000000000000000000000000000000,0x0000000000000000000000000000000000000000,0x0000000000000000000000000000000000000000,0x0000000000000000000000000000000000000000) */\n  0xffffffffffffffffffffffffffffffffffffffff\n  and\n  dup2\n  mstore\n  0x20\n  add\n    /* \"ichoronium-galactic-contracts/governence/ichoroniumNetworkSettings.sol\":486:528  0x0000000000000000000000000000000000000000 */\n  0x00\n    /* \"ichoronium-galactic-contracts/governence/ichoroniumNetworkSettings.sol\":189:1002  networkSettings(false,false,true,false,0x0000000000000000000000000000000000000000,0x0000000000000000000000000000000000000000,0x0000000000000000000000000000000000000000,0x0000000000000000000000000000000000000000,0x0000000000000000000000000000000000000000,0x0000000000000000000000000000000000000000,0x0000000000000000000000000000000000000000,0x0000000000000000000000000000000000000000,0x0000000000000000000000000000000000000000,0x0000000000000000000000000000000000000000,0x0000000000000000000000000000000000000000,0x0000000000000000000000000000000000000000,0x0000000000000000000000000000000000000000,0x0000000000000000000000000000000000000000,0x0000000000000000000000000000000000000000,0x0000000000000000000000000000000000000000,0x0000000000000000000000000000000000000000,0x0000000000000000000000000000000000000000) */\n  0xffffffffffffffffffffffffffffffffffffffff\n  and\n  dup2\n  mstore\n  0x20\n  add\n    /* \"ichoronium-galactic-contracts/governence/ichoroniumNetworkSettings.sol\":529:571  0x0000000000000000000000000000000000000000 */\n  0x00\n    /* \"ichoronium-galactic-contracts/governence/ichoroniumNetworkSettings.sol\":189:1002  networkSettings(false,false,true,false,0x0000000000000000000000000000000000000000,0x0000000000000000000000000000000000000000,0x0000000000000000000000000000000000000000,0x0000000000000000000000000000000000000000,0x0000000000000000000000000000000000000000,0x0000000000000000000000000000000000000000,0x0000000000000000000000000000000000000000,0x0000000000000000000000000000000000000000,0x0000000000000000000000000000000000000000,0x0000000000000000000000000000000000000000,0x0000000000000000000000000000000000000000,0x0000000000000000000000000000000000000000,0x0000000000000000000000000000000000000000,0x0000000000000000000000000000000000000000,0x0000000000000000000000000000000000000000,0x0000000000000000000000000000000000000000,0x0000000000000000000000000000000000000000,0x0000000000000000000000000000000000000000) */\n  0xffffffffffffffffffffffffffffffffffffffff\n  and\n  dup2\n  mstore\n  0x20\n  add\n    /* \"ichoronium-galactic-contracts/governence/ichoroniumNetworkSettings.sol\":572:614  0x0000000000000000000000000000000000000000 */\n  0x00\n    /* \"ichoronium-galactic-contracts/governence/ichoroniumNetworkSettings.sol\":189:1002  networkSettings(false,false,true,false,0x0000000000000000000000000000000000000000,0x0000000000000000000000000000000000000000,0x0000000000000000000000000000000000000000,0x0000000000000000000000000000000000000000,0x0000000000000000000000000000000000000000,0x0000000000000000000000000000000000000000,0x0000000000000000000000000000000000000000,0x0000000000000000000000000000000000000000,0x0000000000000000000000000000000000000000,0x0000000000000000000000000000000000000000,0x0000000000000000000000000000000000000000,0x0000000000000000000000000000000000000000,0x0000000000000000000000000000000000000000,0x0000000000000000000000000000000000000000,0x0000000000000000000000000000000000000000,0x0000000000000000000000000000000000000000,0x0000000000000000000000000000000000000000,0x0000000000000000000000000000000000000000) */\n  0xffffffffffffffffffffffffffffffffffffffff\n  and\n  dup2\n  mstore\n  0x20\n  add\n    /* \"ichoronium-galactic-contracts/governence/ichoroniumNetworkSettings.sol\":615:657  0x0000000000000000000000000000000000000000 */\n  0x00\n    /* \"ichoronium-galactic-contracts/governence/ichoroniumNetworkSettings.sol\":189:1002  networkSettings(false,false,true,false,0x0000000000000000000000000000000000000000,0x0000000000000000000000000000000000000000,0x0000000000000000000000000000000000000000,0x0000000000000000000000000000000000000000,0x0000000000000000000000000000000000000000,0x0000000000000000000000000000000000000000,0x0000000000000000000000000000000000000000,0x0000000000000000000000000000000000000000,0x0000000000000000000000000000000000000000,0x0000000000000000000000000000000000000000,0x0000000000000000000000000000000000000000,0x0000000000000000000000000000000000000000,0x0000000000000000000000000000000000000000,0x0000000000000000000000000000000000000000,0x0000000000000000000000000000000000000000,0x0000000000000000000000000000000000000000,0x0000000000000000000000000000000000000000,0x0000000000000000000000000000000000000000) */\n  0xffffffffffffffffffffffffffffffffffffffff\n  and\n  dup2\n  mstore\n  0x20\n  add\n    /* \"ichoronium-galactic-contracts/governence/ichoroniumNetworkSettings.sol\":658:700  0x0000000000000000000000000000000000000000 */\n  0x00\n    /* \"ichoronium-galactic-contracts/governence/ichoroniumNetworkSettings.sol\":189:1002  networkSettings(false,false,true,false,0x0000000000000000000000000000000000000000,0x0000000000000000000000000000000000000000,0x0000000000000000000000000000000000000000,0x0000000000000000000000000000000000000000,0x0000000000000000000000000000000000000000,0x0000000000000000000000000000000000000000,0x0000000000000000000000000000000000000000,0x0000000000000000000000000000000000000000,0x0000000000000000000000000000000000000000,0x0000000000000000000000000000000000000000,0x0000000000000000000000000000000000000000,0x0000000000000000000000000000000000000000,0x0000000000000000000000000000000000000000,0x0000000000000000000000000000000000000000,0x0000000000000000000000000000000000000000,0x0000000000000000000000000000000000000000,0x0000000000000000000000000000000000000000,0x0000000000000000000000000000000000000000) */\n  0xffffffffffffffffffffffffffffffffffffffff\n  and\n  dup2\n  mstore\n  0x20\n  add\n    /* \"ichoronium-galactic-contracts/governence/ichoroniumNetworkSettings.sol\":701:743  0x0000000000000000000000000000000000000000 */\n  0x00\n    /* \"ichoronium-galactic-contracts/governence/ichoroniumNetworkSettings.sol\":189:1002  networkSettings(false,false,true,false,0x0000000000000000000000000000000000000000,0x0000000000000000000000000000000000000000,0x0000000000000000000000000000000000000000,0x0000000000000000000000000000000000000000,0x0000000000000000000000000000000000000000,0x0000000000000000000000000000000000000000,0x0000000000000000000000000000000000000000,0x0000000000000000000000000000000000000000,0x0000000000000000000000000000000000000000,0x0000000000000000000000000000000000000000,0x0000000000000000000000000000000000000000,0x0000000000000000000000000000000000000000,0x0000000000000000000000000000000000000000,0x0000000000000000000000000000000000000000,0x0000000000000000000000000000000000000000,0x0000000000000000000000000000000000000000,0x0000000000000000000000000000000000000000,0x0000000000000000000000000000000000000000) */\n  0xffffffffffffffffffffffffffffffffffffffff\n  and\n  dup2\n  mstore\n  0x20\n  add\n    /* \"ichoronium-galactic-contracts/governence/ichoroniumNetworkSettings.sol\":744:786  0x0000000000000000000000000000000000000000 */\n  0x00\n    /* \"ichoronium-galactic-contracts/governence/ichoroniumNetworkSettings.sol\":189:1002  networkSettings(false,false,true,false,0x0000000000000000000000000000000000000000,0x0000000000000000000000000000000000000000,0x0000000000000000000000000000000000000000,0x0000000000000000000000000000000000000000,0x0000000000000000000000000000000000000000,0x0000000000000000000000000000000000000000,0x0000000000000000000000000000000000000000,0x0000000000000000000000000000000000000000,0x0000000000000000000000000000000000000000,0x0000000000000000000000000000000000000000,0x0000000000000000000000000000000000000000,0x0000000000000000000000000000000000000000,0x0000000000000000000000000000000000000000,0x0000000000000000000000000000000000000000,0x0000000000000000000000000000000000000000,0x0000000000000000000000000000000000000000,0x0000000000000000000000000000000000000000,0x0000000000000000000000000000000000000000) */\n  0xffffffffffffffffffffffffffffffffffffffff\n  and\n  dup2\n  mstore\n  0x20\n  add\n    /* \"ichoronium-galactic-contracts/governence/ichoroniumNetworkSettings.sol\":787:829  0x0000000000000000000000000000000000000000 */\n  0x00\n    /* \"ichoronium-galactic-contracts/governence/ichoroniumNetworkSettings.sol\":189:1002  networkSettings(false,false,true,false,0x0000000000000000000000000000000000000000,0x0000000000000000000000000000000000000000,0x0000000000000000000000000000000000000000,0x0000000000000000000000000000000000000000,0x0000000000000000000000000000000000000000,0x0000000000000000000000000000000000000000,0x0000000000000000000000000000000000000000,0x0000000000000000000000000000000000000000,0x0000000000000000000000000000000000000000,0x0000000000000000000000000000000000000000,0x0000000000000000000000000000000000000000,0x0000000000000000000000000000000000000000,0x0000000000000000000000000000000000000000,0x0000000000000000000000000000000000000000,0x0000000000000000000000000000000000000000,0x0000000000000000000000000000000000000000,0x0000000000000000000000000000000000000000,0x0000000000000000000000000000000000000000) */\n  0xffffffffffffffffffffffffffffffffffffffff\n  and\n  dup2\n  mstore\n  0x20\n  add\n    /* \"ichoronium-galactic-contracts/governence/ichoroniumNetworkSettings.sol\":830:872  0x0000000000000000000000000000000000000000 */\n  0x00\n    /* \"ichoronium-galactic-contracts/governence/ichoroniumNetworkSettings.sol\":189:1002  networkSettings(false,false,true,false,0x0000000000000000000000000000000000000000,0x0000000000000000000000000000000000000000,0x0000000000000000000000000000000000000000,0x0000000000000000000000000000000000000000,0x0000000000000000000000000000000000000000,0x0000000000000000000000000000000000000000,0x0000000000000000000000000000000000000000,0x0000000000000000000000000000000000000000,0x0000000000000000000000000000000000000000,0x0000000000000000000000000000000000000000,0x0000000000000000000000000000000000000000,0x0000000000000000000000000000000000000000,0x0000000000000000000000000000000000000000,0x0000000000000000000000000000000000000000,0x0000000000000000000000000000000000000000,0x0000000000000000000000000000000000000000,0x0000000000000000000000000000000000000000,0x0000000000000000000000000000000000000000) */\n  0xffffffffffffffffffffffffffffffffffffffff\n  and\n  dup2\n  mstore\n  0x20\n  add\n    /* \"ichoronium-galactic-contracts/governence/ichoroniumNetworkSettings.sol\":873:915  0x0000000000000000000000000000000000000000 */\n  0x00\n    /* \"ichoronium-galactic-contracts/governence/ichoroniumNetworkSettings.sol\":189:1002  networkSettings(false,false,true,false,0x0000000000000000000000000000000000000000,0x0000000000000000000000000000000000000000,0x0000000000000000000000000000000000000000,0x0000000000000000000000000000000000000000,0x0000000000000000000000000000000000000000,0x0000000000000000000000000000000000000000,0x0000000000000000000000000000000000000000,0x0000000000000000000000000000000000000000,0x0000000000000000000000000000000000000000,0x0000000000000000000000000000000000000000,0x0000000000000000000000000000000000000000,0x0000000000000000000000000000000000000000,0x0000000000000000000000000000000000000000,0x0000000000000000000000000000000000000000,0x0000000000000000000000000000000000000000,0x0000000000000000000000000000000000000000,0x0000000000000000000000000000000000000000,0x0000000000000000000000000000000000000000) */\n  0xffffffffffffffffffffffffffffffffffffffff\n  and\n  dup2\n  mstore\n  0x20\n  add\n    /* \"ichoronium-galactic-contracts/governence/ichoroniumNetworkSettings.sol\":916:958  0x0000000000000000000000000000000000000000 */\n  0x00\n    /* \"ichoronium-galactic-contracts/governence/ichoroniumNetworkSettings.sol\":189:1002  networkSettings(false,false,true,false,0x0000000000000000000000000000000000000000,0x0000000000000000000000000000000000000000,0x0000000000000000000000000000000000000000,0x0000000000000000000000000000000000000000,0x0000000000000000000000000000000000000000,0x0000000000000000000000000000000000000000,0x0000000000000000000000000000000000000000,0x0000000000000000000000000000000000000000,0x0000000000000000000000000000000000000000,0x0000000000000000000000000000000000000000,0x0000000000000000000000000000000000000000,0x0000000000000000000000000000000000000000,0x0000000000000000000000000000000000000000,0x0000000000000000000000000000000000000000,0x0000000000000000000000000000000000000000,0x0000000000000000000000000000000000000000,0x0000000000000000000000000000000000000000,0x0000000000000000000000000000000000000000) */\n  0xffffffffffffffffffffffffffffffffffffffff\n  and\n  dup2\n  mstore\n  0x20\n  add\n    /* \"ichoronium-galactic-contracts/governence/ichoroniumNetworkSettings.sol\":959:1001  0x0000000000000000000000000000000000000000 */\n  0x00\n    /* \"ichoronium-galactic-contracts/governence/ichoroniumNetworkSettings.sol\":189:1002  networkSettings(false,false,true,false,0x0000000000000000000000000000000000000000,0x0000000000000000000000000000000000000000,0x0000000000000000000000000000000000000000,0x0000000000000000000000000000000000000000,0x0000000000000000000000000000000000000000,0x0000000000000000000000000000000000000000,0x0000000000000000000000000000000000000000,0x0000000000000000000000000000000000000000,0x0000000000000000000000000000000000000000,0x0000000000000000000000000000000000000000,0x0000000000000000000000000000000000000000,0x0000000000000000000000000000000000000000,0x0000000000000000000000000000000000000000,0x0000000000000000000000000000000000000000,0x0000000000000000000000000000000000000000,0x0000000000000000000000000000000000000000,0x0000000000000000000000000000000000000000,0x0000000000000000000000000000000000000000) */\n  0xffffffffffffffffffffffffffffffffffffffff\n  and\n  dup2\n  mstore\n  pop\n    /* \"ichoronium-galactic-contracts/governence/ichoroniumNetworkSettings.sol\":151:1002  networkSettings  ichoroniumSettings = networkSettings(false,false,true,false,0x0000000000000000000000000000000000000000,0x0000000000000000000000000000000000000000,0x0000000000000000000000000000000000000000,0x0000000000000000000000000000000000000000,0x0000000000000000000000000000000000000000,0x0000000000000000000000000000000000000000,0x0000000000000000000000000000000000000000,0x0000000000000000000000000000000000000000,0x0000000000000000000000000000000000000000,0x0000000000000000000000000000000000000000,0x0000000000000000000000000000000000000000,0x0000000000000000000000000000000000000000,0x0000000000000000000000000000000000000000,0x0000000000000000000000000000000000000000,0x0000000000000000000000000000000000000000,0x0000000000000000000000000000000000000000,0x0000000000000000000000000000000000000000,0x0000000000000000000000000000000000000000) */\n  0x01\n  0x00\n  dup3\n  add\n  mload\n  dup2\n  0x00\n  add\n  exp(0x0100, 0x00)\n  dup2\n  sload\n  dup2\n  0xff\n  mul\n  not\n  and\n  swap1\n  dup4\n  iszero\n  iszero\n  mul\n  or\n  swap1\n  sstore\n  pop\n  0x20\n  dup3\n  add\n  mload\n  dup2\n  0x00\n  add\n  exp(0x0100, 0x01)\n  dup2\n  sload\n  dup2\n  0xff\n  mul\n  not\n  and\n  swap1\n  dup4\n  iszero\n  iszero\n  mul\n  or\n  swap1\n  sstore\n  pop\n  0x40\n  dup3\n  add\n  mload\n  dup2\n  0x00\n  add\n  exp(0x0100, 0x02)\n  dup2\n  sload\n  dup2\n  0xff\n  mul\n  not\n  and\n  swap1\n  dup4\n  iszero\n  iszero\n  mul\n  or\n  swap1\n  sstore\n  pop\n  0x60\n  dup3\n  add\n  mload\n  dup2\n  0x00\n  add\n  exp(0x0100, 0x03)\n  dup2\n  sload\n  dup2\n  0xff\n  mul\n  not\n  and\n  swap1\n  dup4\n  iszero\n  iszero\n  mul\n  or\n  swap1\n  sstore\n  pop\n  0x80\n  dup3\n  add\n  mload\n  dup2\n  0x00\n  add\n  exp(0x0100, 0x04)\n  dup2\n  sload\n  dup2\n  0xffffffffffffffffffffffffffffffffffffffff\n  mul\n  not\n  and\n  swap1\n  dup4\n  0xffffffffffffffffffffffffffffffffffffffff\n  and\n  mul\n  or\n  swap1\n  sstore\n  pop\n  0xa0\n  dup3\n  add\n  mload\n  dup2\n  0x01\n  add\n  exp(0x0100, 0x00)\n  dup2\n  sload\n  dup2\n  0xffffffffffffffffffffffffffffffffffffffff\n  mul\n  not\n  and\n  swap1\n  dup4\n  0xffffffffffffffffffffffffffffffffffffffff\n  and\n  mul\n  or\n  swap1\n  sstore\n  pop\n  0xc0\n  dup3\n  add\n  mload\n  dup2\n  0x02\n  add\n  exp(0x0100, 0x00)\n  dup2\n  sload\n  dup2\n  0xffffffffffffffffffffffffffffffffffffffff\n  mul\n  not\n  and\n  swap1\n  dup4\n  0xffffffffffffffffffffffffffffffffffffffff\n  and\n  mul\n  or\n  swap1\n  sstore\n  pop\n  0xe0\n  dup3\n  add\n  mload\n  dup2\n  0x03\n  add\n  exp(0x0100, 0x00)\n  dup2\n  sload\n  dup2\n  0xffffffffffffffffffffffffffffffffffffffff\n  mul\n  not\n  and\n  swap1\n  dup4\n  0xffffffffffffffffffffffffffffffffffffffff\n  and\n  mul\n  or\n  swap1\n  sstore\n  pop\n  0x0100\n  dup3\n  add\n  mload\n  dup2\n  0x04\n  add\n  exp(0x0100, 0x00)\n  dup2\n  sload\n  dup2\n  0xffffffffffffffffffffffffffffffffffffffff\n  mul\n  not\n  and\n  swap1\n  dup4\n  0xffffffffffffffffffffffffffffffffffffffff\n  and\n  mul\n  or\n  swap1\n  sstore\n  pop\n  0x0120\n  dup3\n  add\n  mload\n  dup2\n  0x05\n  add\n  exp(0x0100, 0x00)\n  dup2\n  sload\n  dup2\n  0xffffffffffffffffffffffffffffffffffffffff\n  mul\n  not\n  and\n  swap1\n  dup4\n  0xffffffffffffffffffffffffffffffffffffffff\n  and\n  mul\n  or\n  swap1\n  sstore\n  pop\n  0x0140\n  dup3\n  add\n  mload\n  dup2\n  0x06\n  add\n  exp(0x0100, 0x00)\n  dup2\n  sload\n  dup2\n  0xffffffffffffffffffffffffffffffffffffffff\n  mul\n  not\n  and\n  swap1\n  dup4\n  0xffffffffffffffffffffffffffffffffffffffff\n  and\n  mul\n  or\n  swap1\n  sstore\n  pop\n  0x0160\n  dup3\n  add\n  mload\n  dup2\n  0x07\n  add\n  exp(0x0100, 0x00)\n  dup2\n  sload\n  dup2\n  0xffffffffffffffffffffffffffffffffffffffff\n  mul\n  not\n  and\n  swap1\n  dup4\n  0xffffffffffffffffffffffffffffffffffffffff\n  and\n  mul\n  or\n  swap1\n  sstore\n  pop\n  0x0180\n  dup3\n  add\n  mload\n  dup2\n  0x08\n  add\n  exp(0x0100, 0x00)\n  dup2\n  sload\n  dup2\n  0xffffffffffffffffffffffffffffffffffffffff\n  mul\n  not\n  and\n  swap1\n  dup4\n  0xffffffffffffffffffffffffffffffffffffffff\n  and\n  mul\n  or\n  swap1\n  sstore\n  pop\n  0x01a0\n  dup3\n  add\n  mload\n  dup2\n  0x09\n  add\n  exp(0x0100, 0x00)\n  dup2\n  sload\n  dup2\n  0xffffffffffffffffffffffffffffffffffffffff\n  mul\n  not\n  and\n  swap1\n  dup4\n  0xffffffffffffffffffffffffffffffffffffffff\n  and\n  mul\n  or\n  swap1\n  sstore\n  pop\n  0x01c0\n  dup3\n  add\n  mload\n  dup2\n  0x0a\n  add\n  exp(0x0100, 0x00)\n  dup2\n  sload\n  dup2\n  0xffffffffffffffffffffffffffffffffffffffff\n  mul\n  not\n  and\n  swap1\n  dup4\n  0xffffffffffffffffffffffffffffffffffffffff\n  and\n  mul\n  or\n  swap1\n  sstore\n  pop\n  0x01e0\n  dup3\n  add\n  mload\n  dup2\n  0x0b\n  add\n  exp(0x0100, 0x00)\n  dup2\n  sload\n  dup2\n  0xffffffffffffffffffffffffffffffffffffffff\n  mul\n  not\n  and\n  swap1\n  dup4\n  0xffffffffffffffffffffffffffffffffffffffff\n  and\n  mul\n  or\n  swap1\n  sstore\n  pop\n  0x0200\n  dup3\n  add\n  mload\n  dup2\n  0x0c\n  add\n  exp(0x0100, 0x00)\n  dup2\n  sload\n  dup2\n  0xffffffffffffffffffffffffffffffffffffffff\n  mul\n  not\n  and\n  swap1\n  dup4\n  0xffffffffffffffffffffffffffffffffffffffff\n  and\n  mul\n  or\n  swap1\n  sstore\n  pop\n  0x0220\n  dup3\n  add\n  mload\n  dup2\n  0x0d\n  add\n  exp(0x0100, 0x00)\n  dup2\n  sload\n  dup2\n  0xffffffffffffffffffffffffffffffffffffffff\n  mul\n  not\n  and\n  swap1\n  dup4\n  0xffffffffffffffffffffffffffffffffffffffff\n  and\n  mul\n  or\n  swap1\n  sstore\n  pop\n  0x0240\n  dup3\n  add\n  mload\n  dup2\n  0x0e\n  add\n  exp(0x0100, 0x00)\n  dup2\n  sload\n  dup2\n  0xffffffffffffffffffffffffffffffffffffffff\n  mul\n  not\n  and\n  swap1\n  dup4\n  0xffffffffffffffffffffffffffffffffffffffff\n  and\n  mul\n  or\n  swap1\n  sstore\n  pop\n  0x0260\n  dup3\n  add\n  mload\n  dup2\n  0x0f\n  add\n  exp(0x0100, 0x00)\n  dup2\n  sload\n  dup2\n  0xffffffffffffffffffffffffffffffffffffffff\n  mul\n  not\n  and\n  swap1\n  dup4\n  0xffffffffffffffffffffffffffffffffffffffff\n  and\n  mul\n  or\n  swap1\n  sstore\n  pop\n  0x0280\n  dup3\n  add\n  mload\n  dup2\n  0x10\n  add\n  exp(0x0100, 0x00)\n  dup2\n  sload\n  dup2\n  0xffffffffffffffffffffffffffffffffffffffff\n  mul\n  not\n  and\n  swap1\n  dup4\n  0xffffffffffffffffffffffffffffffffffffffff\n  and\n  mul\n  or\n  swap1\n  sstore\n  pop\n  0x02a0\n  dup3\n  add\n  mload\n  dup2\n  0x11\n  add\n  exp(0x0100, 0x00)\n  dup2\n  sload\n  dup2\n  0xffffffffffffffffffffffffffffffffffffffff\n  mul\n  not\n  and\n  swap1\n  dup4\n  0xffffffffffffffffffffffffffffffffffffffff\n  and\n  mul\n  or\n  swap1\n  sstore\n  pop\n  pop\n  pop\n    /* \"ichoronium-galactic-contracts/governence/ichoroniumNetworkSettings.sol\":86:3847  contract ichoroniumNetworkSettings {\r... */\n  callvalue\n    /* \"--CODEGEN--\":8:17   */\n  dup1\n    /* \"--CODEGEN--\":5:7   */\n  iszero\n  tag_1\n  jumpi\n    /* \"--CODEGEN--\":30:31   */\n  0x00\n    /* \"--CODEGEN--\":27:28   */\n  dup1\n    /* \"--CODEGEN--\":20:32   */\n  revert\n    /* \"--CODEGEN--\":5:7   */\ntag_1:\n    /* \"ichoronium-galactic-contracts/governence/ichoroniumNetworkSettings.sol\":86:3847  contract ichoroniumNetworkSettings {\r... */\n  pop\n  dataSize(sub_0)\n  dup1\n  dataOffset(sub_0)\n  0x00\n  codecopy\n  0x00\n  return\nstop\n\nsub_0: assembly {\n        /* \"ichoronium-galactic-contracts/governence/ichoroniumNetworkSettings.sol\":86:3847  contract ichoroniumNetworkSettings {\r... */\n      mstore(0x40, 0x80)\n      callvalue\n        /* \"--CODEGEN--\":8:17   */\n      dup1\n        /* \"--CODEGEN--\":5:7   */\n      iszero\n      tag_1\n      jumpi\n        /* \"--CODEGEN--\":30:31   */\n      0x00\n        /* \"--CODEGEN--\":27:28   */\n      dup1\n        /* \"--CODEGEN--\":20:32   */\n      revert\n        /* \"--CODEGEN--\":5:7   */\n    tag_1:\n        /* \"ichoronium-galactic-contracts/governence/ichoroniumNetworkSettings.sol\":86:3847  contract ichoroniumNetworkSettings {\r... */\n      pop\n      jumpi(tag_2, lt(calldatasize, 0x04))\n      shr(0xe0, calldataload(0x00))\n      dup1\n      0x8df57580\n      gt\n      tag_12\n      jumpi\n      dup1\n      0x8df57580\n      eq\n      tag_7\n      jumpi\n      dup1\n      0x96d54ebe\n      eq\n      tag_8\n      jumpi\n      dup1\n      0xb343c438\n      eq\n      tag_9\n      jumpi\n      dup1\n      0xbfed3cf2\n      eq\n      tag_10\n      jumpi\n      dup1\n      0xe6a52e8a\n      eq\n      tag_11\n      jumpi\n      jump(tag_2)\n    tag_12:\n      dup1\n      0x42dd96f7\n      eq\n      tag_3\n      jumpi\n      dup1\n      0x5d0d3816\n      eq\n      tag_4\n      jumpi\n      dup1\n      0x64aa0754\n      eq\n      tag_5\n      jumpi\n      dup1\n      0x6ef6346f\n      eq\n      tag_6\n      jumpi\n    tag_2:\n      0x00\n      dup1\n      revert\n        /* \"ichoronium-galactic-contracts/governence/ichoroniumNetworkSettings.sol\":1575:1745  function killswitch() public view returns (bool) {\r... */\n    tag_3:\n      tag_13\n      tag_14\n      jump\t// in\n    tag_13:\n      mload(0x40)\n      dup1\n      dup3\n      iszero\n      iszero\n      iszero\n      iszero\n      dup2\n      mstore\n      0x20\n      add\n      swap2\n      pop\n      pop\n      mload(0x40)\n      dup1\n      swap2\n      sub\n      swap1\n      return\n        /* \"ichoronium-galactic-contracts/governence/ichoroniumNetworkSettings.sol\":2647:2864  function ichoroniumFinanceSettingsCurrent() public view returns (address) {\r... */\n    tag_4:\n      tag_15\n      tag_16\n      jump\t// in\n    tag_15:\n      mload(0x40)\n      dup1\n      dup3\n      0xffffffffffffffffffffffffffffffffffffffff\n      and\n      0xffffffffffffffffffffffffffffffffffffffff\n      and\n      dup2\n      mstore\n      0x20\n      add\n      swap2\n      pop\n      pop\n      mload(0x40)\n      dup1\n      swap2\n      sub\n      swap1\n      return\n        /* \"ichoronium-galactic-contracts/governence/ichoroniumNetworkSettings.sol\":1385:1573  function isNetworkIsDeactive() public view returns (bool) {\r... */\n    tag_5:\n      tag_17\n      tag_18\n      jump\t// in\n    tag_17:\n      mload(0x40)\n      dup1\n      dup3\n      iszero\n      iszero\n      iszero\n      iszero\n      dup2\n      mstore\n      0x20\n      add\n      swap2\n      pop\n      pop\n      mload(0x40)\n      dup1\n      swap2\n      sub\n      swap1\n      return\n        /* \"ichoronium-galactic-contracts/governence/ichoroniumNetworkSettings.sol\":2199:2420  function gameProfitsGalacticSettingsCurrent() public view returns (address) {\r... */\n    tag_6:\n      tag_19\n      tag_20\n      jump\t// in\n    tag_19:\n      mload(0x40)\n      dup1\n      dup3\n      0xffffffffffffffffffffffffffffffffffffffff\n      and\n      0xffffffffffffffffffffffffffffffffffffffff\n      and\n      dup2\n      mstore\n      0x20\n      add\n      swap2\n      pop\n      pop\n      mload(0x40)\n      dup1\n      swap2\n      sub\n      swap1\n      return\n        /* \"ichoronium-galactic-contracts/governence/ichoroniumNetworkSettings.sol\":1189:1383  function isNetworkIsCoolingDown() public view returns (bool) {\r... */\n    tag_7:\n      tag_21\n      tag_22\n      jump\t// in\n    tag_21:\n      mload(0x40)\n      dup1\n      dup3\n      iszero\n      iszero\n      iszero\n      iszero\n      dup2\n      mstore\n      0x20\n      add\n      swap2\n      pop\n      pop\n      mload(0x40)\n      dup1\n      swap2\n      sub\n      swap1\n      return\n        /* \"ichoronium-galactic-contracts/governence/ichoroniumNetworkSettings.sol\":1974:2197  function ichoroniumNetworkPermissionsCurrent() public view returns (address) {\r... */\n    tag_8:\n      tag_23\n      tag_24\n      jump\t// in\n    tag_23:\n      mload(0x40)\n      dup1\n      dup3\n      0xffffffffffffffffffffffffffffffffffffffff\n      and\n      0xffffffffffffffffffffffffffffffffffffffff\n      and\n      dup2\n      mstore\n      0x20\n      add\n      swap2\n      pop\n      pop\n      mload(0x40)\n      dup1\n      swap2\n      sub\n      swap1\n      return\n        /* \"ichoronium-galactic-contracts/governence/ichoroniumNetworkSettings.sol\":1007:1187  function isNetworkActive() public view returns (bool) {\r... */\n    tag_9:\n      tag_25\n      tag_26\n      jump\t// in\n    tag_25:\n      mload(0x40)\n      dup1\n      dup3\n      iszero\n      iszero\n      iszero\n      iszero\n      dup2\n      mstore\n      0x20\n      add\n      swap2\n      pop\n      pop\n      mload(0x40)\n      dup1\n      swap2\n      sub\n      swap1\n      return\n        /* \"ichoronium-galactic-contracts/governence/ichoroniumNetworkSettings.sol\":2422:2645  function ichoroniumGalacticMeteaverseCurrent() public view returns (address) {\r... */\n    tag_10:\n      tag_27\n      tag_28\n      jump\t// in\n    tag_27:\n      mload(0x40)\n      dup1\n      dup3\n      0xffffffffffffffffffffffffffffffffffffffff\n      and\n      0xffffffffffffffffffffffffffffffffffffffff\n      and\n      dup2\n      mstore\n      0x20\n      add\n      swap2\n      pop\n      pop\n      mload(0x40)\n      dup1\n      swap2\n      sub\n      swap1\n      return\n        /* \"ichoronium-galactic-contracts/governence/ichoroniumNetworkSettings.sol\":1749:1966  function ichoroniumNetworkProfilesCurrent() public view returns (address) {\r... */\n    tag_11:\n      tag_29\n      tag_30\n      jump\t// in\n    tag_29:\n      mload(0x40)\n      dup1\n      dup3\n      0xffffffffffffffffffffffffffffffffffffffff\n      and\n      0xffffffffffffffffffffffffffffffffffffffff\n      and\n      dup2\n      mstore\n      0x20\n      add\n      swap2\n      pop\n      pop\n      mload(0x40)\n      dup1\n      swap2\n      sub\n      swap1\n      return\n        /* \"ichoronium-galactic-contracts/governence/ichoroniumNetworkSettings.sol\":1575:1745  function killswitch() public view returns (bool) {\r... */\n    tag_14:\n        /* \"ichoronium-galactic-contracts/governence/ichoroniumNetworkSettings.sol\":1618:1622  bool */\n      0x00\n        /* \"ichoronium-galactic-contracts/governence/ichoroniumNetworkSettings.sol\":1635:1673  networkSettings storage networksetting */\n      dup1\n        /* \"ichoronium-galactic-contracts/governence/ichoroniumNetworkSettings.sol\":1676:1694  ichoroniumSettings */\n      0x01\n        /* \"ichoronium-galactic-contracts/governence/ichoroniumNetworkSettings.sol\":1635:1694  networkSettings storage networksetting = ichoroniumSettings */\n      swap1\n      pop\n        /* \"ichoronium-galactic-contracts/governence/ichoroniumNetworkSettings.sol\":1712:1726  networksetting */\n      dup1\n        /* \"ichoronium-galactic-contracts/governence/ichoroniumNetworkSettings.sol\":1712:1737  networksetting.killswitch */\n      0x00\n      add\n      0x03\n      swap1\n      sload\n      swap1\n      0x0100\n      exp\n      swap1\n      div\n      0xff\n      and\n        /* \"ichoronium-galactic-contracts/governence/ichoroniumNetworkSettings.sol\":1705:1737  return networksetting.killswitch */\n      swap2\n      pop\n      pop\n        /* \"ichoronium-galactic-contracts/governence/ichoroniumNetworkSettings.sol\":1575:1745  function killswitch() public view returns (bool) {\r... */\n      swap1\n      jump\t// out\n        /* \"ichoronium-galactic-contracts/governence/ichoroniumNetworkSettings.sol\":2647:2864  function ichoroniumFinanceSettingsCurrent() public view returns (address) {\r... */\n    tag_16:\n        /* \"ichoronium-galactic-contracts/governence/ichoroniumNetworkSettings.sol\":2712:2719  address */\n      0x00\n        /* \"ichoronium-galactic-contracts/governence/ichoroniumNetworkSettings.sol\":2732:2770  networkSettings storage networksetting */\n      dup1\n        /* \"ichoronium-galactic-contracts/governence/ichoroniumNetworkSettings.sol\":2773:2791  ichoroniumSettings */\n      0x01\n        /* \"ichoronium-galactic-contracts/governence/ichoroniumNetworkSettings.sol\":2732:2791  networkSettings storage networksetting = ichoroniumSettings */\n      swap1\n      pop\n        /* \"ichoronium-galactic-contracts/governence/ichoroniumNetworkSettings.sol\":2809:2823  networksetting */\n      dup1\n        /* \"ichoronium-galactic-contracts/governence/ichoroniumNetworkSettings.sol\":2809:2856  networksetting.ichoroniumFinanceSettingsCurrent */\n      0x0d\n      add\n      0x00\n      swap1\n      sload\n      swap1\n      0x0100\n      exp\n      swap1\n      div\n      0xffffffffffffffffffffffffffffffffffffffff\n      and\n        /* \"ichoronium-galactic-contracts/governence/ichoroniumNetworkSettings.sol\":2802:2856  return networksetting.ichoroniumFinanceSettingsCurrent */\n      swap2\n      pop\n      pop\n        /* \"ichoronium-galactic-contracts/governence/ichoroniumNetworkSettings.sol\":2647:2864  function ichoroniumFinanceSettingsCurrent() public view returns (address) {\r... */\n      swap1\n      jump\t// out\n        /* \"ichoronium-galactic-contracts/governence/ichoroniumNetworkSettings.sol\":1385:1573  function isNetworkIsDeactive() public view returns (bool) {\r... */\n    tag_18:\n        /* \"ichoronium-galactic-contracts/governence/ichoroniumNetworkSettings.sol\":1437:1441  bool */\n      0x00\n        /* \"ichoronium-galactic-contracts/governence/ichoroniumNetworkSettings.sol\":1454:1492  networkSettings storage networksetting */\n      dup1\n        /* \"ichoronium-galactic-contracts/governence/ichoroniumNetworkSettings.sol\":1495:1513  ichoroniumSettings */\n      0x01\n        /* \"ichoronium-galactic-contracts/governence/ichoroniumNetworkSettings.sol\":1454:1513  networkSettings storage networksetting = ichoroniumSettings */\n      swap1\n      pop\n        /* \"ichoronium-galactic-contracts/governence/ichoroniumNetworkSettings.sol\":1531:1545  networksetting */\n      dup1\n        /* \"ichoronium-galactic-contracts/governence/ichoroniumNetworkSettings.sol\":1531:1565  networksetting.isNetworkIsDeactive */\n      0x00\n      add\n      0x02\n      swap1\n      sload\n      swap1\n      0x0100\n      exp\n      swap1\n      div\n      0xff\n      and\n        /* \"ichoronium-galactic-contracts/governence/ichoroniumNetworkSettings.sol\":1524:1565  return networksetting.isNetworkIsDeactive */\n      swap2\n      pop\n      pop\n        /* \"ichoronium-galactic-contracts/governence/ichoroniumNetworkSettings.sol\":1385:1573  function isNetworkIsDeactive() public view returns (bool) {\r... */\n      swap1\n      jump\t// out\n        /* \"ichoronium-galactic-contracts/governence/ichoroniumNetworkSettings.sol\":2199:2420  function gameProfitsGalacticSettingsCurrent() public view returns (address) {\r... */\n    tag_20:\n        /* \"ichoronium-galactic-contracts/governence/ichoroniumNetworkSettings.sol\":2266:2273  address */\n      0x00\n        /* \"ichoronium-galactic-contracts/governence/ichoroniumNetworkSettings.sol\":2286:2324  networkSettings storage networksetting */\n      dup1\n        /* \"ichoronium-galactic-contracts/governence/ichoroniumNetworkSettings.sol\":2327:2345  ichoroniumSettings */\n      0x01\n        /* \"ichoronium-galactic-contracts/governence/ichoroniumNetworkSettings.sol\":2286:2345  networkSettings storage networksetting = ichoroniumSettings */\n      swap1\n      pop\n        /* \"ichoronium-galactic-contracts/governence/ichoroniumNetworkSettings.sol\":2363:2377  networksetting */\n      dup1\n        /* \"ichoronium-galactic-contracts/governence/ichoroniumNetworkSettings.sol\":2363:2412  networksetting.gameProfitsGalacticSettingsCurrent */\n      0x07\n      add\n      0x00\n      swap1\n      sload\n      swap1\n      0x0100\n      exp\n      swap1\n      div\n      0xffffffffffffffffffffffffffffffffffffffff\n      and\n        /* \"ichoronium-galactic-contracts/governence/ichoroniumNetworkSettings.sol\":2356:2412  return networksetting.gameProfitsGalacticSettingsCurrent */\n      swap2\n      pop\n      pop\n        /* \"ichoronium-galactic-contracts/governence/ichoroniumNetworkSettings.sol\":2199:2420  function gameProfitsGalacticSettingsCurrent() public view returns (address) {\r... */\n      swap1\n      jump\t// out\n        /* \"ichoronium-galactic-contracts/governence/ichoroniumNetworkSettings.sol\":1189:1383  function isNetworkIsCoolingDown() public view returns (bool) {\r... */\n    tag_22:\n        /* \"ichoronium-galactic-contracts/governence/ichoroniumNetworkSettings.sol\":1244:1248  bool */\n      0x00\n        /* \"ichoronium-galactic-contracts/governence/ichoroniumNetworkSettings.sol\":1261:1299  networkSettings storage networksetting */\n      dup1\n        /* \"ichoronium-galactic-contracts/governence/ichoroniumNetworkSettings.sol\":1302:1320  ichoroniumSettings */\n      0x01\n        /* \"ichoronium-galactic-contracts/governence/ichoroniumNetworkSettings.sol\":1261:1320  networkSettings storage networksetting = ichoroniumSettings */\n      swap1\n      pop\n        /* \"ichoronium-galactic-contracts/governence/ichoroniumNetworkSettings.sol\":1338:1352  networksetting */\n      dup1\n        /* \"ichoronium-galactic-contracts/governence/ichoroniumNetworkSettings.sol\":1338:1375  networksetting.isNetworkIsCoolingDown */\n      0x00\n      add\n      0x01\n      swap1\n      sload\n      swap1\n      0x0100\n      exp\n      swap1\n      div\n      0xff\n      and\n        /* \"ichoronium-galactic-contracts/governence/ichoroniumNetworkSettings.sol\":1331:1375  return networksetting.isNetworkIsCoolingDown */\n      swap2\n      pop\n      pop\n        /* \"ichoronium-galactic-contracts/governence/ichoroniumNetworkSettings.sol\":1189:1383  function isNetworkIsCoolingDown() public view returns (bool) {\r... */\n      swap1\n      jump\t// out\n        /* \"ichoronium-galactic-contracts/governence/ichoroniumNetworkSettings.sol\":1974:2197  function ichoroniumNetworkPermissionsCurrent() public view returns (address) {\r... */\n    tag_24:\n        /* \"ichoronium-galactic-contracts/governence/ichoroniumNetworkSettings.sol\":2042:2049  address */\n      0x00\n        /* \"ichoronium-galactic-contracts/governence/ichoroniumNetworkSettings.sol\":2062:2100  networkSettings storage networksetting */\n      dup1\n        /* \"ichoronium-galactic-contracts/governence/ichoroniumNetworkSettings.sol\":2103:2121  ichoroniumSettings */\n      0x01\n        /* \"ichoronium-galactic-contracts/governence/ichoroniumNetworkSettings.sol\":2062:2121  networkSettings storage networksetting = ichoroniumSettings */\n      swap1\n      pop\n        /* \"ichoronium-galactic-contracts/governence/ichoroniumNetworkSettings.sol\":2139:2153  networksetting */\n      dup1\n        /* \"ichoronium-galactic-contracts/governence/ichoroniumNetworkSettings.sol\":2139:2189  networksetting.ichoroniumNetworkPermissionsCurrent */\n      0x04\n      add\n      0x00\n      swap1\n      sload\n      swap1\n      0x0100\n      exp\n      swap1\n      div\n      0xffffffffffffffffffffffffffffffffffffffff\n      and\n        /* \"ichoronium-galactic-contracts/governence/ichoroniumNetworkSettings.sol\":2132:2189  return networksetting.ichoroniumNetworkPermissionsCurrent */\n      swap2\n      pop\n      pop\n        /* \"ichoronium-galactic-contracts/governence/ichoroniumNetworkSettings.sol\":1974:2197  function ichoroniumNetworkPermissionsCurrent() public view returns (address) {\r... */\n      swap1\n      jump\t// out\n        /* \"ichoronium-galactic-contracts/governence/ichoroniumNetworkSettings.sol\":1007:1187  function isNetworkActive() public view returns (bool) {\r... */\n    tag_26:\n        /* \"ichoronium-galactic-contracts/governence/ichoroniumNetworkSettings.sol\":1055:1059  bool */\n      0x00\n        /* \"ichoronium-galactic-contracts/governence/ichoroniumNetworkSettings.sol\":1072:1110  networkSettings storage networksetting */\n      dup1\n        /* \"ichoronium-galactic-contracts/governence/ichoroniumNetworkSettings.sol\":1113:1131  ichoroniumSettings */\n      0x01\n        /* \"ichoronium-galactic-contracts/governence/ichoroniumNetworkSettings.sol\":1072:1131  networkSettings storage networksetting = ichoroniumSettings */\n      swap1\n      pop\n        /* \"ichoronium-galactic-contracts/governence/ichoroniumNetworkSettings.sol\":1149:1163  networksetting */\n      dup1\n        /* \"ichoronium-galactic-contracts/governence/ichoroniumNetworkSettings.sol\":1149:1179  networksetting.isNetworkActive */\n      0x00\n      add\n      0x00\n      swap1\n      sload\n      swap1\n      0x0100\n      exp\n      swap1\n      div\n      0xff\n      and\n        /* \"ichoronium-galactic-contracts/governence/ichoroniumNetworkSettings.sol\":1142:1179  return networksetting.isNetworkActive */\n      swap2\n      pop\n      pop\n        /* \"ichoronium-galactic-contracts/governence/ichoroniumNetworkSettings.sol\":1007:1187  function isNetworkActive() public view returns (bool) {\r... */\n      swap1\n      jump\t// out\n        /* \"ichoronium-galactic-contracts/governence/ichoroniumNetworkSettings.sol\":2422:2645  function ichoroniumGalacticMeteaverseCurrent() public view returns (address) {\r... */\n    tag_28:\n        /* \"ichoronium-galactic-contracts/governence/ichoroniumNetworkSettings.sol\":2490:2497  address */\n      0x00\n        /* \"ichoronium-galactic-contracts/governence/ichoroniumNetworkSettings.sol\":2510:2548  networkSettings storage networksetting */\n      dup1\n        /* \"ichoronium-galactic-contracts/governence/ichoroniumNetworkSettings.sol\":2551:2569  ichoroniumSettings */\n      0x01\n        /* \"ichoronium-galactic-contracts/governence/ichoroniumNetworkSettings.sol\":2510:2569  networkSettings storage networksetting = ichoroniumSettings */\n      swap1\n      pop\n        /* \"ichoronium-galactic-contracts/governence/ichoroniumNetworkSettings.sol\":2587:2601  networksetting */\n      dup1\n        /* \"ichoronium-galactic-contracts/governence/ichoroniumNetworkSettings.sol\":2587:2637  networksetting.ichoroniumGalacticMeteaverseCurrent */\n      0x0a\n      add\n      0x00\n      swap1\n      sload\n      swap1\n      0x0100\n      exp\n      swap1\n      div\n      0xffffffffffffffffffffffffffffffffffffffff\n      and\n        /* \"ichoronium-galactic-contracts/governence/ichoroniumNetworkSettings.sol\":2580:2637  return networksetting.ichoroniumGalacticMeteaverseCurrent */\n      swap2\n      pop\n      pop\n        /* \"ichoronium-galactic-contracts/governence/ichoroniumNetworkSettings.sol\":2422:2645  function ichoroniumGalacticMeteaverseCurrent() public view returns (address) {\r... */\n      swap1\n      jump\t// out\n        /* \"ichoronium-galactic-contracts/governence/ichoroniumNetworkSettings.sol\":1749:1966  function ichoroniumNetworkProfilesCurrent() public view returns (address) {\r... */\n    tag_30:\n        /* \"ichoronium-galactic-contracts/governence/ichoroniumNetworkSettings.sol\":1814:1821  address */\n      0x00\n        /* \"ichoronium-galactic-contracts/governence/ichoroniumNetworkSettings.sol\":1834:1872  networkSettings storage networksetting */\n      dup1\n        /* \"ichoronium-galactic-contracts/governence/ichoroniumNetworkSettings.sol\":1875:1893  ichoroniumSettings */\n      0x01\n        /* \"ichoronium-galactic-contracts/governence/ichoroniumNetworkSettings.sol\":1834:1893  networkSettings storage networksetting = ichoroniumSettings */\n      swap1\n      pop\n        /* \"ichoronium-galactic-contracts/governence/ichoroniumNetworkSettings.sol\":1911:1925  networksetting */\n      dup1\n        /* \"ichoronium-galactic-contracts/governence/ichoroniumNetworkSettings.sol\":1911:1958  networksetting.ichoroniumNetworkProfilesCurrent */\n      0x01\n      add\n      0x00\n      swap1\n      sload\n      swap1\n      0x0100\n      exp\n      swap1\n      div\n      0xffffffffffffffffffffffffffffffffffffffff\n      and\n        /* \"ichoronium-galactic-contracts/governence/ichoroniumNetworkSettings.sol\":1904:1958  return networksetting.ichoroniumNetworkProfilesCurrent */\n      swap2\n      pop\n      pop\n        /* \"ichoronium-galactic-contracts/governence/ichoroniumNetworkSettings.sol\":1749:1966  function ichoroniumNetworkProfilesCurrent() public view returns (address) {\r... */\n      swap1\n      jump\t// out\n\n    auxdata: 0xa265627a7a7231582031775a2cb8eddacc43ab1f8f41ddcf1a29f1a851c8b252717943f1a031ddd96f64736f6c63430005110032\n}\n",
				"bytecode": {
					"linkReferences": {},
					"object": "6080604052604051806102c00160405280600015158152602001600015158152602001600115158152602001600015158152602001600073ffffffffffffffffffffffffffffffffffffffff168152602001600073ffffffffffffffffffffffffffffffffffffffff168152602001600073ffffffffffffffffffffffffffffffffffffffff168152602001600073ffffffffffffffffffffffffffffffffffffffff168152602001600073ffffffffffffffffffffffffffffffffffffffff168152602001600073ffffffffffffffffffffffffffffffffffffffff168152602001600073ffffffffffffffffffffffffffffffffffffffff168152602001600073ffffffffffffffffffffffffffffffffffffffff168152602001600073ffffffffffffffffffffffffffffffffffffffff168152602001600073ffffffffffffffffffffffffffffffffffffffff168152602001600073ffffffffffffffffffffffffffffffffffffffff168152602001600073ffffffffffffffffffffffffffffffffffffffff168152602001600073ffffffffffffffffffffffffffffffffffffffff168152602001600073ffffffffffffffffffffffffffffffffffffffff168152602001600073ffffffffffffffffffffffffffffffffffffffff168152602001600073ffffffffffffffffffffffffffffffffffffffff168152602001600073ffffffffffffffffffffffffffffffffffffffff168152602001600073ffffffffffffffffffffffffffffffffffffffff16815250600160008201518160000160006101000a81548160ff02191690831515021790555060208201518160000160016101000a81548160ff02191690831515021790555060408201518160000160026101000a81548160ff02191690831515021790555060608201518160000160036101000a81548160ff02191690831515021790555060808201518160000160046101000a81548173ffffffffffffffffffffffffffffffffffffffff021916908373ffffffffffffffffffffffffffffffffffffffff16021790555060a08201518160010160006101000a81548173ffffffffffffffffffffffffffffffffffffffff021916908373ffffffffffffffffffffffffffffffffffffffff16021790555060c08201518160020160006101000a81548173ffffffffffffffffffffffffffffffffffffffff021916908373ffffffffffffffffffffffffffffffffffffffff16021790555060e08201518160030160006101000a81548173ffffffffffffffffffffffffffffffffffffffff021916908373ffffffffffffffffffffffffffffffffffffffff1602179055506101008201518160040160006101000a81548173ffffffffffffffffffffffffffffffffffffffff021916908373ffffffffffffffffffffffffffffffffffffffff1602179055506101208201518160050160006101000a81548173ffffffffffffffffffffffffffffffffffffffff021916908373ffffffffffffffffffffffffffffffffffffffff1602179055506101408201518160060160006101000a81548173ffffffffffffffffffffffffffffffffffffffff021916908373ffffffffffffffffffffffffffffffffffffffff1602179055506101608201518160070160006101000a81548173ffffffffffffffffffffffffffffffffffffffff021916908373ffffffffffffffffffffffffffffffffffffffff1602179055506101808201518160080160006101000a81548173ffffffffffffffffffffffffffffffffffffffff021916908373ffffffffffffffffffffffffffffffffffffffff1602179055506101a08201518160090160006101000a81548173ffffffffffffffffffffffffffffffffffffffff021916908373ffffffffffffffffffffffffffffffffffffffff1602179055506101c082015181600a0160006101000a81548173ffffffffffffffffffffffffffffffffffffffff021916908373ffffffffffffffffffffffffffffffffffffffff1602179055506101e082015181600b0160006101000a81548173ffffffffffffffffffffffffffffffffffffffff021916908373ffffffffffffffffffffffffffffffffffffffff16021790555061020082015181600c0160006101000a81548173ffffffffffffffffffffffffffffffffffffffff021916908373ffffffffffffffffffffffffffffffffffffffff16021790555061022082015181600d0160006101000a81548173ffffffffffffffffffffffffffffffffffffffff021916908373ffffffffffffffffffffffffffffffffffffffff16021790555061024082015181600e0160006101000a81548173ffffffffffffffffffffffffffffffffffffffff021916908373ffffffffffffffffffffffffffffffffffffffff16021790555061026082015181600f0160006101000a81548173ffffffffffffffffffffffffffffffffffffffff021916908373ffffffffffffffffffffffffffffffffffffffff1602179055506102808201518160100160006101000a81548173ffffffffffffffffffffffffffffffffffffffff021916908373ffffffffffffffffffffffffffffffffffffffff1602179055506102a08201518160110160006101000a81548173ffffffffffffffffffffffffffffffffffffffff021916908373ffffffffffffffffffffffffffffffffffffffff16021790555050503480156107d857600080fd5b5061043d806107e86000396000f3fe608060405234801561001057600080fd5b50600436106100935760003560e01c80638df57580116100665780638df575801461017057806396d54ebe14610192578063b343c438146101dc578063bfed3cf2146101fe578063e6a52e8a1461024857610093565b806342dd96f7146100985780635d0d3816146100ba57806364aa0754146101045780636ef6346f14610126575b600080fd5b6100a0610292565b604051808215151515815260200191505060405180910390f35b6100c26102b1565b604051808273ffffffffffffffffffffffffffffffffffffffff1673ffffffffffffffffffffffffffffffffffffffff16815260200191505060405180910390f35b61010c6102e3565b604051808215151515815260200191505060405180910390f35b61012e610302565b604051808273ffffffffffffffffffffffffffffffffffffffff1673ffffffffffffffffffffffffffffffffffffffff16815260200191505060405180910390f35b610178610334565b604051808215151515815260200191505060405180910390f35b61019a610353565b604051808273ffffffffffffffffffffffffffffffffffffffff1673ffffffffffffffffffffffffffffffffffffffff16815260200191505060405180910390f35b6101e4610385565b604051808215151515815260200191505060405180910390f35b6102066103a4565b604051808273ffffffffffffffffffffffffffffffffffffffff1673ffffffffffffffffffffffffffffffffffffffff16815260200191505060405180910390f35b6102506103d6565b604051808273ffffffffffffffffffffffffffffffffffffffff1673ffffffffffffffffffffffffffffffffffffffff16815260200191505060405180910390f35b600080600190508060000160039054906101000a900460ff1691505090565b6000806001905080600d0160009054906101000a900473ffffffffffffffffffffffffffffffffffffffff1691505090565b600080600190508060000160029054906101000a900460ff1691505090565b600080600190508060070160009054906101000a900473ffffffffffffffffffffffffffffffffffffffff1691505090565b600080600190508060000160019054906101000a900460ff1691505090565b600080600190508060040160009054906101000a900473ffffffffffffffffffffffffffffffffffffffff1691505090565b600080600190508060000160009054906101000a900460ff1691505090565b6000806001905080600a0160009054906101000a900473ffffffffffffffffffffffffffffffffffffffff1691505090565b600080600190508060010160009054906101000a900473ffffffffffffffffffffffffffffffffffffffff169150509056fea265627a7a7231582031775a2cb8eddacc43ab1f8f41ddcf1a29f1a851c8b252717943f1a031ddd96f64736f6c63430005110032",
					"opcodes": "PUSH1 0x80 PUSH1 0x40 MSTORE PUSH1 0x40 MLOAD DUP1 PUSH2 0x2C0 ADD PUSH1 0x40 MSTORE DUP1 PUSH1 0x0 ISZERO ISZERO DUP2 MSTORE PUSH1 0x20 ADD PUSH1 0x0 ISZERO ISZERO DUP2 MSTORE PUSH1 0x20 ADD PUSH1 0x1 ISZERO ISZERO DUP2 MSTORE PUSH1 0x20 ADD PUSH1 0x0 ISZERO ISZERO DUP2 MSTORE PUSH1 0x20 ADD PUSH1 0x0 PUSH20 0xFFFFFFFFFFFFFFFFFFFFFFFFFFFFFFFFFFFFFFFF AND DUP2 MSTORE PUSH1 0x20 ADD PUSH1 0x0 PUSH20 0xFFFFFFFFFFFFFFFFFFFFFFFFFFFFFFFFFFFFFFFF AND DUP2 MSTORE PUSH1 0x20 ADD PUSH1 0x0 PUSH20 0xFFFFFFFFFFFFFFFFFFFFFFFFFFFFFFFFFFFFFFFF AND DUP2 MSTORE PUSH1 0x20 ADD PUSH1 0x0 PUSH20 0xFFFFFFFFFFFFFFFFFFFFFFFFFFFFFFFFFFFFFFFF AND DUP2 MSTORE PUSH1 0x20 ADD PUSH1 0x0 PUSH20 0xFFFFFFFFFFFFFFFFFFFFFFFFFFFFFFFFFFFFFFFF AND DUP2 MSTORE PUSH1 0x20 ADD PUSH1 0x0 PUSH20 0xFFFFFFFFFFFFFFFFFFFFFFFFFFFFFFFFFFFFFFFF AND DUP2 MSTORE PUSH1 0x20 ADD PUSH1 0x0 PUSH20 0xFFFFFFFFFFFFFFFFFFFFFFFFFFFFFFFFFFFFFFFF AND DUP2 MSTORE PUSH1 0x20 ADD PUSH1 0x0 PUSH20 0xFFFFFFFFFFFFFFFFFFFFFFFFFFFFFFFFFFFFFFFF AND DUP2 MSTORE PUSH1 0x20 ADD PUSH1 0x0 PUSH20 0xFFFFFFFFFFFFFFFFFFFFFFFFFFFFFFFFFFFFFFFF AND DUP2 MSTORE PUSH1 0x20 ADD PUSH1 0x0 PUSH20 0xFFFFFFFFFFFFFFFFFFFFFFFFFFFFFFFFFFFFFFFF AND DUP2 MSTORE PUSH1 0x20 ADD PUSH1 0x0 PUSH20 0xFFFFFFFFFFFFFFFFFFFFFFFFFFFFFFFFFFFFFFFF AND DUP2 MSTORE PUSH1 0x20 ADD PUSH1 0x0 PUSH20 0xFFFFFFFFFFFFFFFFFFFFFFFFFFFFFFFFFFFFFFFF AND DUP2 MSTORE PUSH1 0x20 ADD PUSH1 0x0 PUSH20 0xFFFFFFFFFFFFFFFFFFFFFFFFFFFFFFFFFFFFFFFF AND DUP2 MSTORE PUSH1 0x20 ADD PUSH1 0x0 PUSH20 0xFFFFFFFFFFFFFFFFFFFFFFFFFFFFFFFFFFFFFFFF AND DUP2 MSTORE PUSH1 0x20 ADD PUSH1 0x0 PUSH20 0xFFFFFFFFFFFFFFFFFFFFFFFFFFFFFFFFFFFFFFFF AND DUP2 MSTORE PUSH1 0x20 ADD PUSH1 0x0 PUSH20 0xFFFFFFFFFFFFFFFFFFFFFFFFFFFFFFFFFFFFFFFF AND DUP2 MSTORE PUSH1 0x20 ADD PUSH1 0x0 PUSH20 0xFFFFFFFFFFFFFFFFFFFFFFFFFFFFFFFFFFFFFFFF AND DUP2 MSTORE PUSH1 0x20 ADD PUSH1 0x0 PUSH20 0xFFFFFFFFFFFFFFFFFFFFFFFFFFFFFFFFFFFFFFFF AND DUP2 MSTORE POP PUSH1 0x1 PUSH1 0x0 DUP3 ADD MLOAD DUP2 PUSH1 0x0 ADD PUSH1 0x0 PUSH2 0x100 EXP DUP2 SLOAD DUP2 PUSH1 0xFF MUL NOT AND SWAP1 DUP4 ISZERO ISZERO MUL OR SWAP1 SSTORE POP PUSH1 0x20 DUP3 ADD MLOAD DUP2 PUSH1 0x0 ADD PUSH1 0x1 PUSH2 0x100 EXP DUP2 SLOAD DUP2 PUSH1 0xFF MUL NOT AND SWAP1 DUP4 ISZERO ISZERO MUL OR SWAP1 SSTORE POP PUSH1 0x40 DUP3 ADD MLOAD DUP2 PUSH1 0x0 ADD PUSH1 0x2 PUSH2 0x100 EXP DUP2 SLOAD DUP2 PUSH1 0xFF MUL NOT AND SWAP1 DUP4 ISZERO ISZERO MUL OR SWAP1 SSTORE POP PUSH1 0x60 DUP3 ADD MLOAD DUP2 PUSH1 0x0 ADD PUSH1 0x3 PUSH2 0x100 EXP DUP2 SLOAD DUP2 PUSH1 0xFF MUL NOT AND SWAP1 DUP4 ISZERO ISZERO MUL OR SWAP1 SSTORE POP PUSH1 0x80 DUP3 ADD MLOAD DUP2 PUSH1 0x0 ADD PUSH1 0x4 PUSH2 0x100 EXP DUP2 SLOAD DUP2 PUSH20 0xFFFFFFFFFFFFFFFFFFFFFFFFFFFFFFFFFFFFFFFF MUL NOT AND SWAP1 DUP4 PUSH20 0xFFFFFFFFFFFFFFFFFFFFFFFFFFFFFFFFFFFFFFFF AND MUL OR SWAP1 SSTORE POP PUSH1 0xA0 DUP3 ADD MLOAD DUP2 PUSH1 0x1 ADD PUSH1 0x0 PUSH2 0x100 EXP DUP2 SLOAD DUP2 PUSH20 0xFFFFFFFFFFFFFFFFFFFFFFFFFFFFFFFFFFFFFFFF MUL NOT AND SWAP1 DUP4 PUSH20 0xFFFFFFFFFFFFFFFFFFFFFFFFFFFFFFFFFFFFFFFF AND MUL OR SWAP1 SSTORE POP PUSH1 0xC0 DUP3 ADD MLOAD DUP2 PUSH1 0x2 ADD PUSH1 0x0 PUSH2 0x100 EXP DUP2 SLOAD DUP2 PUSH20 0xFFFFFFFFFFFFFFFFFFFFFFFFFFFFFFFFFFFFFFFF MUL NOT AND SWAP1 DUP4 PUSH20 0xFFFFFFFFFFFFFFFFFFFFFFFFFFFFFFFFFFFFFFFF AND MUL OR SWAP1 SSTORE POP PUSH1 0xE0 DUP3 ADD MLOAD DUP2 PUSH1 0x3 ADD PUSH1 0x0 PUSH2 0x100 EXP DUP2 SLOAD DUP2 PUSH20 0xFFFFFFFFFFFFFFFFFFFFFFFFFFFFFFFFFFFFFFFF MUL NOT AND SWAP1 DUP4 PUSH20 0xFFFFFFFFFFFFFFFFFFFFFFFFFFFFFFFFFFFFFFFF AND MUL OR SWAP1 SSTORE POP PUSH2 0x100 DUP3 ADD MLOAD DUP2 PUSH1 0x4 ADD PUSH1 0x0 PUSH2 0x100 EXP DUP2 SLOAD DUP2 PUSH20 0xFFFFFFFFFFFFFFFFFFFFFFFFFFFFFFFFFFFFFFFF MUL NOT AND SWAP1 DUP4 PUSH20 0xFFFFFFFFFFFFFFFFFFFFFFFFFFFFFFFFFFFFFFFF AND MUL OR SWAP1 SSTORE POP PUSH2 0x120 DUP3 ADD MLOAD DUP2 PUSH1 0x5 ADD PUSH1 0x0 PUSH2 0x100 EXP DUP2 SLOAD DUP2 PUSH20 0xFFFFFFFFFFFFFFFFFFFFFFFFFFFFFFFFFFFFFFFF MUL NOT AND SWAP1 DUP4 PUSH20 0xFFFFFFFFFFFFFFFFFFFFFFFFFFFFFFFFFFFFFFFF AND MUL OR SWAP1 SSTORE POP PUSH2 0x140 DUP3 ADD MLOAD DUP2 PUSH1 0x6 ADD PUSH1 0x0 PUSH2 0x100 EXP DUP2 SLOAD DUP2 PUSH20 0xFFFFFFFFFFFFFFFFFFFFFFFFFFFFFFFFFFFFFFFF MUL NOT AND SWAP1 DUP4 PUSH20 0xFFFFFFFFFFFFFFFFFFFFFFFFFFFFFFFFFFFFFFFF AND MUL OR SWAP1 SSTORE POP PUSH2 0x160 DUP3 ADD MLOAD DUP2 PUSH1 0x7 ADD PUSH1 0x0 PUSH2 0x100 EXP DUP2 SLOAD DUP2 PUSH20 0xFFFFFFFFFFFFFFFFFFFFFFFFFFFFFFFFFFFFFFFF MUL NOT AND SWAP1 DUP4 PUSH20 0xFFFFFFFFFFFFFFFFFFFFFFFFFFFFFFFFFFFFFFFF AND MUL OR SWAP1 SSTORE POP PUSH2 0x180 DUP3 ADD MLOAD DUP2 PUSH1 0x8 ADD PUSH1 0x0 PUSH2 0x100 EXP DUP2 SLOAD DUP2 PUSH20 0xFFFFFFFFFFFFFFFFFFFFFFFFFFFFFFFFFFFFFFFF MUL NOT AND SWAP1 DUP4 PUSH20 0xFFFFFFFFFFFFFFFFFFFFFFFFFFFFFFFFFFFFFFFF AND MUL OR SWAP1 SSTORE POP PUSH2 0x1A0 DUP3 ADD MLOAD DUP2 PUSH1 0x9 ADD PUSH1 0x0 PUSH2 0x100 EXP DUP2 SLOAD DUP2 PUSH20 0xFFFFFFFFFFFFFFFFFFFFFFFFFFFFFFFFFFFFFFFF MUL NOT AND SWAP1 DUP4 PUSH20 0xFFFFFFFFFFFFFFFFFFFFFFFFFFFFFFFFFFFFFFFF AND MUL OR SWAP1 SSTORE POP PUSH2 0x1C0 DUP3 ADD MLOAD DUP2 PUSH1 0xA ADD PUSH1 0x0 PUSH2 0x100 EXP DUP2 SLOAD DUP2 PUSH20 0xFFFFFFFFFFFFFFFFFFFFFFFFFFFFFFFFFFFFFFFF MUL NOT AND SWAP1 DUP4 PUSH20 0xFFFFFFFFFFFFFFFFFFFFFFFFFFFFFFFFFFFFFFFF AND MUL OR SWAP1 SSTORE POP PUSH2 0x1E0 DUP3 ADD MLOAD DUP2 PUSH1 0xB ADD PUSH1 0x0 PUSH2 0x100 EXP DUP2 SLOAD DUP2 PUSH20 0xFFFFFFFFFFFFFFFFFFFFFFFFFFFFFFFFFFFFFFFF MUL NOT AND SWAP1 DUP4 PUSH20 0xFFFFFFFFFFFFFFFFFFFFFFFFFFFFFFFFFFFFFFFF AND MUL OR SWAP1 SSTORE POP PUSH2 0x200 DUP3 ADD MLOAD DUP2 PUSH1 0xC ADD PUSH1 0x0 PUSH2 0x100 EXP DUP2 SLOAD DUP2 PUSH20 0xFFFFFFFFFFFFFFFFFFFFFFFFFFFFFFFFFFFFFFFF MUL NOT AND SWAP1 DUP4 PUSH20 0xFFFFFFFFFFFFFFFFFFFFFFFFFFFFFFFFFFFFFFFF AND MUL OR SWAP1 SSTORE POP PUSH2 0x220 DUP3 ADD MLOAD DUP2 PUSH1 0xD ADD PUSH1 0x0 PUSH2 0x100 EXP DUP2 SLOAD DUP2 PUSH20 0xFFFFFFFFFFFFFFFFFFFFFFFFFFFFFFFFFFFFFFFF MUL NOT AND SWAP1 DUP4 PUSH20 0xFFFFFFFFFFFFFFFFFFFFFFFFFFFFFFFFFFFFFFFF AND MUL OR SWAP1 SSTORE POP PUSH2 0x240 DUP3 ADD MLOAD DUP2 PUSH1 0xE ADD PUSH1 0x0 PUSH2 0x100 EXP DUP2 SLOAD DUP2 PUSH20 0xFFFFFFFFFFFFFFFFFFFFFFFFFFFFFFFFFFFFFFFF MUL NOT AND SWAP1 DUP4 PUSH20 0xFFFFFFFFFFFFFFFFFFFFFFFFFFFFFFFFFFFFFFFF AND MUL OR SWAP1 SSTORE POP PUSH2 0x260 DUP3 ADD MLOAD DUP2 PUSH1 0xF ADD PUSH1 0x0 PUSH2 0x100 EXP DUP2 SLOAD DUP2 PUSH20 0xFFFFFFFFFFFFFFFFFFFFFFFFFFFFFFFFFFFFFFFF MUL NOT AND SWAP1 DUP4 PUSH20 0xFFFFFFFFFFFFFFFFFFFFFFFFFFFFFFFFFFFFFFFF AND MUL OR SWAP1 SSTORE POP PUSH2 0x280 DUP3 ADD MLOAD DUP2 PUSH1 0x10 ADD PUSH1 0x0 PUSH2 0x100 EXP DUP2 SLOAD DUP2 PUSH20 0xFFFFFFFFFFFFFFFFFFFFFFFFFFFFFFFFFFFFFFFF MUL NOT AND SWAP1 DUP4 PUSH20 0xFFFFFFFFFFFFFFFFFFFFFFFFFFFFFFFFFFFFFFFF AND MUL OR SWAP1 SSTORE POP PUSH2 0x2A0 DUP3 ADD MLOAD DUP2 PUSH1 0x11 ADD PUSH1 0x0 PUSH2 0x100 EXP DUP2 SLOAD DUP2 PUSH20 0xFFFFFFFFFFFFFFFFFFFFFFFFFFFFFFFFFFFFFFFF MUL NOT AND SWAP1 DUP4 PUSH20 0xFFFFFFFFFFFFFFFFFFFFFFFFFFFFFFFFFFFFFFFF AND MUL OR SWAP1 SSTORE POP POP POP CALLVALUE DUP1 ISZERO PUSH2 0x7D8 JUMPI PUSH1 0x0 DUP1 REVERT JUMPDEST POP PUSH2 0x43D DUP1 PUSH2 0x7E8 PUSH1 0x0 CODECOPY PUSH1 0x0 RETURN INVALID PUSH1 0x80 PUSH1 0x40 MSTORE CALLVALUE DUP1 ISZERO PUSH2 0x10 JUMPI PUSH1 0x0 DUP1 REVERT JUMPDEST POP PUSH1 0x4 CALLDATASIZE LT PUSH2 0x93 JUMPI PUSH1 0x0 CALLDATALOAD PUSH1 0xE0 SHR DUP1 PUSH4 0x8DF57580 GT PUSH2 0x66 JUMPI DUP1 PUSH4 0x8DF57580 EQ PUSH2 0x170 JUMPI DUP1 PUSH4 0x96D54EBE EQ PUSH2 0x192 JUMPI DUP1 PUSH4 0xB343C438 EQ PUSH2 0x1DC JUMPI DUP1 PUSH4 0xBFED3CF2 EQ PUSH2 0x1FE JUMPI DUP1 PUSH4 0xE6A52E8A EQ PUSH2 0x248 JUMPI PUSH2 0x93 JUMP JUMPDEST DUP1 PUSH4 0x42DD96F7 EQ PUSH2 0x98 JUMPI DUP1 PUSH4 0x5D0D3816 EQ PUSH2 0xBA JUMPI DUP1 PUSH4 0x64AA0754 EQ PUSH2 0x104 JUMPI DUP1 PUSH4 0x6EF6346F EQ PUSH2 0x126 JUMPI JUMPDEST PUSH1 0x0 DUP1 REVERT JUMPDEST PUSH2 0xA0 PUSH2 0x292 JUMP JUMPDEST PUSH1 0x40 MLOAD DUP1 DUP3 ISZERO ISZERO ISZERO ISZERO DUP2 MSTORE PUSH1 0x20 ADD SWAP2 POP POP PUSH1 0x40 MLOAD DUP1 SWAP2 SUB SWAP1 RETURN JUMPDEST PUSH2 0xC2 PUSH2 0x2B1 JUMP JUMPDEST PUSH1 0x40 MLOAD DUP1 DUP3 PUSH20 0xFFFFFFFFFFFFFFFFFFFFFFFFFFFFFFFFFFFFFFFF AND PUSH20 0xFFFFFFFFFFFFFFFFFFFFFFFFFFFFFFFFFFFFFFFF AND DUP2 MSTORE PUSH1 0x20 ADD SWAP2 POP POP PUSH1 0x40 MLOAD DUP1 SWAP2 SUB SWAP1 RETURN JUMPDEST PUSH2 0x10C PUSH2 0x2E3 JUMP JUMPDEST PUSH1 0x40 MLOAD DUP1 DUP3 ISZERO ISZERO ISZERO ISZERO DUP2 MSTORE PUSH1 0x20 ADD SWAP2 POP POP PUSH1 0x40 MLOAD DUP1 SWAP2 SUB SWAP1 RETURN JUMPDEST PUSH2 0x12E PUSH2 0x302 JUMP JUMPDEST PUSH1 0x40 MLOAD DUP1 DUP3 PUSH20 0xFFFFFFFFFFFFFFFFFFFFFFFFFFFFFFFFFFFFFFFF AND PUSH20 0xFFFFFFFFFFFFFFFFFFFFFFFFFFFFFFFFFFFFFFFF AND DUP2 MSTORE PUSH1 0x20 ADD SWAP2 POP POP PUSH1 0x40 MLOAD DUP1 SWAP2 SUB SWAP1 RETURN JUMPDEST PUSH2 0x178 PUSH2 0x334 JUMP JUMPDEST PUSH1 0x40 MLOAD DUP1 DUP3 ISZERO ISZERO ISZERO ISZERO DUP2 MSTORE PUSH1 0x20 ADD SWAP2 POP POP PUSH1 0x40 MLOAD DUP1 SWAP2 SUB SWAP1 RETURN JUMPDEST PUSH2 0x19A PUSH2 0x353 JUMP JUMPDEST PUSH1 0x40 MLOAD DUP1 DUP3 PUSH20 0xFFFFFFFFFFFFFFFFFFFFFFFFFFFFFFFFFFFFFFFF AND PUSH20 0xFFFFFFFFFFFFFFFFFFFFFFFFFFFFFFFFFFFFFFFF AND DUP2 MSTORE PUSH1 0x20 ADD SWAP2 POP POP PUSH1 0x40 MLOAD DUP1 SWAP2 SUB SWAP1 RETURN JUMPDEST PUSH2 0x1E4 PUSH2 0x385 JUMP JUMPDEST PUSH1 0x40 MLOAD DUP1 DUP3 ISZERO ISZERO ISZERO ISZERO DUP2 MSTORE PUSH1 0x20 ADD SWAP2 POP POP PUSH1 0x40 MLOAD DUP1 SWAP2 SUB SWAP1 RETURN JUMPDEST PUSH2 0x206 PUSH2 0x3A4 JUMP JUMPDEST PUSH1 0x40 MLOAD DUP1 DUP3 PUSH20 0xFFFFFFFFFFFFFFFFFFFFFFFFFFFFFFFFFFFFFFFF AND PUSH20 0xFFFFFFFFFFFFFFFFFFFFFFFFFFFFFFFFFFFFFFFF AND DUP2 MSTORE PUSH1 0x20 ADD SWAP2 POP POP PUSH1 0x40 MLOAD DUP1 SWAP2 SUB SWAP1 RETURN JUMPDEST PUSH2 0x250 PUSH2 0x3D6 JUMP JUMPDEST PUSH1 0x40 MLOAD DUP1 DUP3 PUSH20 0xFFFFFFFFFFFFFFFFFFFFFFFFFFFFFFFFFFFFFFFF AND PUSH20 0xFFFFFFFFFFFFFFFFFFFFFFFFFFFFFFFFFFFFFFFF AND DUP2 MSTORE PUSH1 0x20 ADD SWAP2 POP POP PUSH1 0x40 MLOAD DUP1 SWAP2 SUB SWAP1 RETURN JUMPDEST PUSH1 0x0 DUP1 PUSH1 0x1 SWAP1 POP DUP1 PUSH1 0x0 ADD PUSH1 0x3 SWAP1 SLOAD SWAP1 PUSH2 0x100 EXP SWAP1 DIV PUSH1 0xFF AND SWAP2 POP POP SWAP1 JUMP JUMPDEST PUSH1 0x0 DUP1 PUSH1 0x1 SWAP1 POP DUP1 PUSH1 0xD ADD PUSH1 0x0 SWAP1 SLOAD SWAP1 PUSH2 0x100 EXP SWAP1 DIV PUSH20 0xFFFFFFFFFFFFFFFFFFFFFFFFFFFFFFFFFFFFFFFF AND SWAP2 POP POP SWAP1 JUMP JUMPDEST PUSH1 0x0 DUP1 PUSH1 0x1 SWAP1 POP DUP1 PUSH1 0x0 ADD PUSH1 0x2 SWAP1 SLOAD SWAP1 PUSH2 0x100 EXP SWAP1 DIV PUSH1 0xFF AND SWAP2 POP POP SWAP1 JUMP JUMPDEST PUSH1 0x0 DUP1 PUSH1 0x1 SWAP1 POP DUP1 PUSH1 0x7 ADD PUSH1 0x0 SWAP1 SLOAD SWAP1 PUSH2 0x100 EXP SWAP1 DIV PUSH20 0xFFFFFFFFFFFFFFFFFFFFFFFFFFFFFFFFFFFFFFFF AND SWAP2 POP POP SWAP1 JUMP JUMPDEST PUSH1 0x0 DUP1 PUSH1 0x1 SWAP1 POP DUP1 PUSH1 0x0 ADD PUSH1 0x1 SWAP1 SLOAD SWAP1 PUSH2 0x100 EXP SWAP1 DIV PUSH1 0xFF AND SWAP2 POP POP SWAP1 JUMP JUMPDEST PUSH1 0x0 DUP1 PUSH1 0x1 SWAP1 POP DUP1 PUSH1 0x4 ADD PUSH1 0x0 SWAP1 SLOAD SWAP1 PUSH2 0x100 EXP SWAP1 DIV PUSH20 0xFFFFFFFFFFFFFFFFFFFFFFFFFFFFFFFFFFFFFFFF AND SWAP2 POP POP SWAP1 JUMP JUMPDEST PUSH1 0x0 DUP1 PUSH1 0x1 SWAP1 POP DUP1 PUSH1 0x0 ADD PUSH1 0x0 SWAP1 SLOAD SWAP1 PUSH2 0x100 EXP SWAP1 DIV PUSH1 0xFF AND SWAP2 POP POP SWAP1 JUMP JUMPDEST PUSH1 0x0 DUP1 PUSH1 0x1 SWAP1 POP DUP1 PUSH1 0xA ADD PUSH1 0x0 SWAP1 SLOAD SWAP1 PUSH2 0x100 EXP SWAP1 DIV PUSH20 0xFFFFFFFFFFFFFFFFFFFFFFFFFFFFFFFFFFFFFFFF AND SWAP2 POP POP SWAP1 JUMP JUMPDEST PUSH1 0x0 DUP1 PUSH1 0x1 SWAP1 POP DUP1 PUSH1 0x1 ADD PUSH1 0x0 SWAP1 SLOAD SWAP1 PUSH2 0x100 EXP SWAP1 DIV PUSH20 0xFFFFFFFFFFFFFFFFFFFFFFFFFFFFFFFFFFFFFFFF AND SWAP2 POP POP SWAP1 JUMP INVALID LOG2 PUSH6 0x627A7A723158 KECCAK256 BALANCE PUSH24 0x5A2CB8EDDACC43AB1F8F41DDCF1A29F1A851C8B252717943 CALL LOG0 BALANCE 0xDD 0xD9 PUSH16 0x64736F6C634300051100320000000000 "
				},
				"gasEstimates": {
					"creation": {
						"codeDepositCost": "217000",
						"executionCost": "460350",
						"totalCost": "677350"
					},
					"external": {
						"gameProfitsGalacticSettingsCurrent()": "1147",
						"ichoroniumFinanceSettingsCurrent()": "1103",
						"ichoroniumGalacticMeteaverseCurrent()": "1146",
						"ichoroniumNetworkPermissionsCurrent()": "1102",
						"ichoroniumNetworkProfilesCurrent()": "1168",
						"isNetworkActive()": "1124",
						"isNetworkIsCoolingDown()": "1130",
						"isNetworkIsDeactive()": "1175",
						"killswitch()": "1131"
					}
				},
				"methodIdentifiers": {
					"gameProfitsGalacticSettingsCurrent()": "6ef6346f",
					"ichoroniumFinanceSettingsCurrent()": "5d0d3816",
					"ichoroniumGalacticMeteaverseCurrent()": "bfed3cf2",
					"ichoroniumNetworkPermissionsCurrent()": "96d54ebe",
					"ichoroniumNetworkProfilesCurrent()": "e6a52e8a",
					"isNetworkActive()": "b343c438",
					"isNetworkIsCoolingDown()": "8df57580",
					"isNetworkIsDeactive()": "64aa0754",
					"killswitch()": "42dd96f7"
				}
			},
			"storageLayout": {
				"storage": [
					{
						"astId": 3,
						"contract": "ichoronium-galactic-contracts/governence/ichoroniumNetworkSettings.sol:ichoroniumNetworkSettings",
						"label": "todaysDate",
						"offset": 0,
						"slot": "0",
						"type": "t_uint256"
					},
					{
						"astId": 29,
						"contract": "ichoronium-galactic-contracts/governence/ichoroniumNetworkSettings.sol:ichoroniumNetworkSettings",
						"label": "ichoroniumSettings",
						"offset": 0,
						"slot": "1",
						"type": "t_struct(networkSettings)191_storage"
					}
				],
				"types": {
					"t_address": {
						"encoding": "inplace",
						"label": "address",
						"numberOfBytes": "20"
					},
					"t_bool": {
						"encoding": "inplace",
						"label": "bool",
						"numberOfBytes": "1"
					},
					"t_struct(networkSettings)191_storage": {
						"encoding": "inplace",
						"label": "struct ichoroniumNetworkSettings.networkSettings",
						"members": [
							{
								"astId": 148,
								"contract": "ichoronium-galactic-contracts/governence/ichoroniumNetworkSettings.sol:ichoroniumNetworkSettings",
								"label": "isNetworkActive",
								"offset": 0,
								"slot": "0",
								"type": "t_bool"
							},
							{
								"astId": 150,
								"contract": "ichoronium-galactic-contracts/governence/ichoroniumNetworkSettings.sol:ichoroniumNetworkSettings",
								"label": "isNetworkIsCoolingDown",
								"offset": 1,
								"slot": "0",
								"type": "t_bool"
							},
							{
								"astId": 152,
								"contract": "ichoronium-galactic-contracts/governence/ichoroniumNetworkSettings.sol:ichoroniumNetworkSettings",
								"label": "isNetworkIsDeactive",
								"offset": 2,
								"slot": "0",
								"type": "t_bool"
							},
							{
								"astId": 154,
								"contract": "ichoronium-galactic-contracts/governence/ichoroniumNetworkSettings.sol:ichoroniumNetworkSettings",
								"label": "killswitch",
								"offset": 3,
								"slot": "0",
								"type": "t_bool"
							},
							{
								"astId": 156,
								"contract": "ichoronium-galactic-contracts/governence/ichoroniumNetworkSettings.sol:ichoroniumNetworkSettings",
								"label": "ichoroniumNetworkProfilesPrevious",
								"offset": 4,
								"slot": "0",
								"type": "t_address"
							},
							{
								"astId": 158,
								"contract": "ichoronium-galactic-contracts/governence/ichoroniumNetworkSettings.sol:ichoroniumNetworkSettings",
								"label": "ichoroniumNetworkProfilesCurrent",
								"offset": 0,
								"slot": "1",
								"type": "t_address"
							},
							{
								"astId": 160,
								"contract": "ichoronium-galactic-contracts/governence/ichoroniumNetworkSettings.sol:ichoroniumNetworkSettings",
								"label": "ichoroniumNetworkProfilesUpgradeProposal",
								"offset": 0,
								"slot": "2",
								"type": "t_address"
							},
							{
								"astId": 162,
								"contract": "ichoronium-galactic-contracts/governence/ichoroniumNetworkSettings.sol:ichoroniumNetworkSettings",
								"label": "ichoroniumNetworkPermissionsPrevious",
								"offset": 0,
								"slot": "3",
								"type": "t_address"
							},
							{
								"astId": 164,
								"contract": "ichoronium-galactic-contracts/governence/ichoroniumNetworkSettings.sol:ichoroniumNetworkSettings",
								"label": "ichoroniumNetworkPermissionsCurrent",
								"offset": 0,
								"slot": "4",
								"type": "t_address"
							},
							{
								"astId": 166,
								"contract": "ichoronium-galactic-contracts/governence/ichoroniumNetworkSettings.sol:ichoroniumNetworkSettings",
								"label": "ichoroniumNetworkPermissionsUpgradeProposal",
								"offset": 0,
								"slot": "5",
								"type": "t_address"
							},
							{
								"astId": 168,
								"contract": "ichoronium-galactic-contracts/governence/ichoroniumNetworkSettings.sol:ichoroniumNetworkSettings",
								"label": "gameProfitsGalacticSettingsPrevious",
								"offset": 0,
								"slot": "6",
								"type": "t_address"
							},
							{
								"astId": 170,
								"contract": "ichoronium-galactic-contracts/governence/ichoroniumNetworkSettings.sol:ichoroniumNetworkSettings",
								"label": "gameProfitsGalacticSettingsCurrent",
								"offset": 0,
								"slot": "7",
								"type": "t_address"
							},
							{
								"astId": 172,
								"contract": "ichoronium-galactic-contracts/governence/ichoroniumNetworkSettings.sol:ichoroniumNetworkSettings",
								"label": "gameProfitsGalacticSettingsUpgradeProposal",
								"offset": 0,
								"slot": "8",
								"type": "t_address"
							},
							{
								"astId": 174,
								"contract": "ichoronium-galactic-contracts/governence/ichoroniumNetworkSettings.sol:ichoroniumNetworkSettings",
								"label": "ichoroniumGalacticMeteaversePrevious",
								"offset": 0,
								"slot": "9",
								"type": "t_address"
							},
							{
								"astId": 176,
								"contract": "ichoronium-galactic-contracts/governence/ichoroniumNetworkSettings.sol:ichoroniumNetworkSettings",
								"label": "ichoroniumGalacticMeteaverseCurrent",
								"offset": 0,
								"slot": "10",
								"type": "t_address"
							},
							{
								"astId": 178,
								"contract": "ichoronium-galactic-contracts/governence/ichoroniumNetworkSettings.sol:ichoroniumNetworkSettings",
								"label": "ichoroniumGalacticMeteaverseUpgradeProposal",
								"offset": 0,
								"slot": "11",
								"type": "t_address"
							},
							{
								"astId": 180,
								"contract": "ichoronium-galactic-contracts/governence/ichoroniumNetworkSettings.sol:ichoroniumNetworkSettings",
								"label": "ichoroniumFinanceSettingsPrevious",
								"offset": 0,
								"slot": "12",
								"type": "t_address"
							},
							{
								"astId": 182,
								"contract": "ichoronium-galactic-contracts/governence/ichoroniumNetworkSettings.sol:ichoroniumNetworkSettings",
								"label": "ichoroniumFinanceSettingsCurrent",
								"offset": 0,
								"slot": "13",
								"type": "t_address"
							},
							{
								"astId": 184,
								"contract": "ichoronium-galactic-contracts/governence/ichoroniumNetworkSettings.sol:ichoroniumNetworkSettings",
								"label": "ichoroniumFinanceSettingsUpgradeProposal",
								"offset": 0,
								"slot": "14",
								"type": "t_address"
							},
							{
								"astId": 186,
								"contract": "ichoronium-galactic-contracts/governence/ichoroniumNetworkSettings.sol:ichoroniumNetworkSettings",
								"label": "ichoroniumCloudSettingsPrevious",
								"offset": 0,
								"slot": "15",
								"type": "t_address"
							},
							{
								"astId": 188,
								"contract": "ichoronium-galactic-contracts/governence/ichoroniumNetworkSettings.sol:ichoroniumNetworkSettings",
								"label": "ichoroniumCloudSettingsCurrent",
								"offset": 0,
								"slot": "16",
								"type": "t_address"
							},
							{
								"astId": 190,
								"contract": "ichoronium-galactic-contracts/governence/ichoroniumNetworkSettings.sol:ichoroniumNetworkSettings",
								"label": "ichoroniumCloudSettingsUpgradeProposal",
								"offset": 0,
								"slot": "17",
								"type": "t_address"
							}
						],
						"numberOfBytes": "576"
					},
					"t_uint256": {
						"encoding": "inplace",
						"label": "uint256",
						"numberOfBytes": "32"
					}
				}
			},
			"userdoc": {
				"methods": {}
			}
		}
	}
}