{
	"ichoronium-galactic-contracts/governence/ichoroniumNetworkSettings.sol": {
		"ichoroniumNetworkSettings": {
			"abi": [
				{
					"inputs": [],
					"stateMutability": "nonpayable",
					"type": "constructor"
				},
				{
					"inputs": [],
					"name": "gameProfitsGalacticSettingsCurrent",
					"outputs": [
						{
							"internalType": "address",
							"name": "",
							"type": "address"
						}
					],
					"stateMutability": "view",
					"type": "function"
				},
				{
					"inputs": [],
					"name": "ichoroniumFinanceSettingsCurrent",
					"outputs": [
						{
							"internalType": "address",
							"name": "",
							"type": "address"
						}
					],
					"stateMutability": "view",
					"type": "function"
				},
				{
					"inputs": [],
					"name": "ichoroniumGalacticMeteaverseCurrent",
					"outputs": [
						{
							"internalType": "address",
							"name": "",
							"type": "address"
						}
					],
					"stateMutability": "view",
					"type": "function"
				},
				{
					"inputs": [],
					"name": "ichoroniumNetworkPermissionsCurrent",
					"outputs": [
						{
							"internalType": "address",
							"name": "",
							"type": "address"
						}
					],
					"stateMutability": "view",
					"type": "function"
				},
				{
					"inputs": [],
					"name": "ichoroniumNetworkProfilesCurrent",
					"outputs": [
						{
							"internalType": "address",
							"name": "",
							"type": "address"
						}
					],
					"stateMutability": "view",
					"type": "function"
				},
				{
					"inputs": [],
					"name": "ichoroniumReturnSettings",
					"outputs": [
						{
							"components": [
								{
									"internalType": "bool",
									"name": "isNetworkActive",
									"type": "bool"
								},
								{
									"internalType": "bool",
									"name": "isNetworkIsCoolingDown",
									"type": "bool"
								},
								{
									"internalType": "bool",
									"name": "isNetworkIsDeactive",
									"type": "bool"
								},
								{
									"internalType": "bool",
									"name": "killswitch",
									"type": "bool"
								},
								{
									"internalType": "address",
									"name": "ichoroniumNetworkProfilesPrevious",
									"type": "address"
								},
								{
									"internalType": "address",
									"name": "ichoroniumNetworkProfilesCurrent",
									"type": "address"
								},
								{
									"internalType": "address",
									"name": "ichoroniumNetworkProfilesUpgradeProposal",
									"type": "address"
								},
								{
									"internalType": "address",
									"name": "ichoroniumNetworkPermissionsPrevious",
									"type": "address"
								},
								{
									"internalType": "address",
									"name": "ichoroniumNetworkPermissionsCurrent",
									"type": "address"
								},
								{
									"internalType": "address",
									"name": "ichoroniumNetworkPermissionsUpgradeProposal",
									"type": "address"
								},
								{
									"internalType": "address",
									"name": "gameProfitsGalacticSettingsPrevious",
									"type": "address"
								},
								{
									"internalType": "address",
									"name": "gameProfitsGalacticSettingsCurrent",
									"type": "address"
								},
								{
									"internalType": "address",
									"name": "gameProfitsGalacticSettingsUpgradeProposal",
									"type": "address"
								},
								{
									"internalType": "address",
									"name": "ichoroniumGalacticMeteaversePrevious",
									"type": "address"
								},
								{
									"internalType": "address",
									"name": "ichoroniumGalacticMeteaverseCurrent",
									"type": "address"
								},
								{
									"internalType": "address",
									"name": "ichoroniumGalacticMeteaverseUpgradeProposal",
									"type": "address"
								},
								{
									"internalType": "address",
									"name": "ichoroniumFinanceSettingsPrevious",
									"type": "address"
								},
								{
									"internalType": "address",
									"name": "ichoroniumFinanceSettingsCurrent",
									"type": "address"
								},
								{
									"internalType": "address",
									"name": "ichoroniumFinanceSettingsUpgradeProposal",
									"type": "address"
								},
								{
									"internalType": "address",
									"name": "ichoroniumCloudSettingsPrevious",
									"type": "address"
								},
								{
									"internalType": "address",
									"name": "ichoroniumCloudSettingsCurrent",
									"type": "address"
								},
								{
									"internalType": "address",
									"name": "ichoroniumCloudSettingsUpgradeProposal",
									"type": "address"
								}
							],
							"internalType": "struct ichoroniumNetworkSettings.networkSettings",
							"name": "networkSetting",
							"type": "tuple"
						}
					],
					"stateMutability": "view",
					"type": "function"
				},
				{
					"inputs": [],
					"name": "isNetworkActive",
					"outputs": [
						{
							"internalType": "bool",
							"name": "",
							"type": "bool"
						}
					],
					"stateMutability": "view",
					"type": "function"
				},
				{
					"inputs": [],
					"name": "isNetworkIsCoolingDown",
					"outputs": [
						{
							"internalType": "bool",
							"name": "",
							"type": "bool"
						}
					],
					"stateMutability": "view",
					"type": "function"
				},
				{
					"inputs": [],
					"name": "isNetworkIsDeactive",
					"outputs": [
						{
							"internalType": "bool",
							"name": "",
							"type": "bool"
						}
					],
					"stateMutability": "view",
					"type": "function"
				},
				{
					"inputs": [],
					"name": "killswitch",
					"outputs": [
						{
							"internalType": "bool",
							"name": "",
							"type": "bool"
						}
					],
					"stateMutability": "view",
					"type": "function"
				},
				{
					"inputs": [],
					"name": "killswitchActivate",
					"outputs": [],
					"stateMutability": "nonpayable",
					"type": "function"
				},
				{
					"inputs": [
						{
							"internalType": "address",
							"name": "newSetting",
							"type": "address"
						}
					],
					"name": "switchgameProfitsGalacticSettingsCurrent",
					"outputs": [],
					"stateMutability": "nonpayable",
					"type": "function"
				},
				{
					"inputs": [
						{
							"internalType": "address",
							"name": "newSetting",
							"type": "address"
						}
					],
					"name": "switchichoroniumCloudSettingsCurrent",
					"outputs": [],
					"stateMutability": "nonpayable",
					"type": "function"
				},
				{
					"inputs": [
						{
							"internalType": "address",
							"name": "newSetting",
							"type": "address"
						}
					],
					"name": "switchichoroniumFinanceSettingsCurrent",
					"outputs": [],
					"stateMutability": "nonpayable",
					"type": "function"
				},
				{
					"inputs": [
						{
							"internalType": "address",
							"name": "newSetting",
							"type": "address"
						}
					],
					"name": "switchichoroniumGalacticMeteaverseCurrent",
					"outputs": [],
					"stateMutability": "nonpayable",
					"type": "function"
				},
				{
					"inputs": [
						{
							"internalType": "address",
							"name": "newSetting",
							"type": "address"
						}
					],
					"name": "switchichoroniumNetworkPermissionsCurrent",
					"outputs": [],
					"stateMutability": "nonpayable",
					"type": "function"
				},
				{
					"inputs": [
						{
							"internalType": "address",
							"name": "newSetting",
							"type": "address"
						}
					],
					"name": "switchichoroniumNetworkProfilesCurrent",
					"outputs": [],
					"stateMutability": "nonpayable",
					"type": "function"
				},
				{
					"inputs": [],
					"name": "switchisNetworkActive",
					"outputs": [],
					"stateMutability": "nonpayable",
					"type": "function"
				},
				{
					"inputs": [],
					"name": "switchisNetworkIsCoolingDown",
					"outputs": [],
					"stateMutability": "nonpayable",
					"type": "function"
				},
				{
					"inputs": [],
					"name": "switchisNetworkIsDeactive",
					"outputs": [],
					"stateMutability": "nonpayable",
					"type": "function"
				}
			],
			"devdoc": {
				"kind": "dev",
				"methods": {},
				"version": 1
			},
			"evm": {
				"assembly": "    /* \"ichoronium-galactic-contracts/governence/ichoroniumNetworkSettings.sol\":87:8099  contract ichoroniumNetworkSettings {... */\n  mstore(0x40, 0x80)\n    /* \"ichoronium-galactic-contracts/governence/ichoroniumNetworkSettings.sol\":280:1093  networkSettings(false,false,true,false,0x0000000000000000000000000000000000000000,0x0000000000000000000000000000000000000000,0x0000000000000000000000000000000000000000,0x0000000000000000000000000000000000000000,0x0000000000000000000000000000000000000000,0x0000000000000000000000000000000000000000,0x0000000000000000000000000000000000000000,0x0000000000000000000000000000000000000000,0x0000000000000000000000000000000000000000,0x0000000000000000000000000000000000000000,0x0000000000000000000000000000000000000000,0x0000000000000000000000000000000000000000,0x0000000000000000000000000000000000000000,0x0000000000000000000000000000000000000000,0x0000000000000000000000000000000000000000,0x0000000000000000000000000000000000000000,0x0000000000000000000000000000000000000000,0x0000000000000000000000000000000000000000) */\n  mload(0x40)\n  dup1\n  0x02c0\n  add\n  0x40\n  mstore\n  dup1\n    /* \"ichoronium-galactic-contracts/governence/ichoroniumNetworkSettings.sol\":296:301  false */\n  0x00\n    /* \"ichoronium-galactic-contracts/governence/ichoroniumNetworkSettings.sol\":280:1093  networkSettings(false,false,true,false,0x0000000000000000000000000000000000000000,0x0000000000000000000000000000000000000000,0x0000000000000000000000000000000000000000,0x0000000000000000000000000000000000000000,0x0000000000000000000000000000000000000000,0x0000000000000000000000000000000000000000,0x0000000000000000000000000000000000000000,0x0000000000000000000000000000000000000000,0x0000000000000000000000000000000000000000,0x0000000000000000000000000000000000000000,0x0000000000000000000000000000000000000000,0x0000000000000000000000000000000000000000,0x0000000000000000000000000000000000000000,0x0000000000000000000000000000000000000000,0x0000000000000000000000000000000000000000,0x0000000000000000000000000000000000000000,0x0000000000000000000000000000000000000000,0x0000000000000000000000000000000000000000) */\n  iszero\n  iszero\n  dup2\n  mstore\n  0x20\n  add\n    /* \"ichoronium-galactic-contracts/governence/ichoroniumNetworkSettings.sol\":302:307  false */\n  0x00\n    /* \"ichoronium-galactic-contracts/governence/ichoroniumNetworkSettings.sol\":280:1093  networkSettings(false,false,true,false,0x0000000000000000000000000000000000000000,0x0000000000000000000000000000000000000000,0x0000000000000000000000000000000000000000,0x0000000000000000000000000000000000000000,0x0000000000000000000000000000000000000000,0x0000000000000000000000000000000000000000,0x0000000000000000000000000000000000000000,0x0000000000000000000000000000000000000000,0x0000000000000000000000000000000000000000,0x0000000000000000000000000000000000000000,0x0000000000000000000000000000000000000000,0x0000000000000000000000000000000000000000,0x0000000000000000000000000000000000000000,0x0000000000000000000000000000000000000000,0x0000000000000000000000000000000000000000,0x0000000000000000000000000000000000000000,0x0000000000000000000000000000000000000000,0x0000000000000000000000000000000000000000) */\n  iszero\n  iszero\n  dup2\n  mstore\n  0x20\n  add\n    /* \"ichoronium-galactic-contracts/governence/ichoroniumNetworkSettings.sol\":308:312  true */\n  0x01\n    /* \"ichoronium-galactic-contracts/governence/ichoroniumNetworkSettings.sol\":280:1093  networkSettings(false,false,true,false,0x0000000000000000000000000000000000000000,0x0000000000000000000000000000000000000000,0x0000000000000000000000000000000000000000,0x0000000000000000000000000000000000000000,0x0000000000000000000000000000000000000000,0x0000000000000000000000000000000000000000,0x0000000000000000000000000000000000000000,0x0000000000000000000000000000000000000000,0x0000000000000000000000000000000000000000,0x0000000000000000000000000000000000000000,0x0000000000000000000000000000000000000000,0x0000000000000000000000000000000000000000,0x0000000000000000000000000000000000000000,0x0000000000000000000000000000000000000000,0x0000000000000000000000000000000000000000,0x0000000000000000000000000000000000000000,0x0000000000000000000000000000000000000000,0x0000000000000000000000000000000000000000) */\n  iszero\n  iszero\n  dup2\n  mstore\n  0x20\n  add\n    /* \"ichoronium-galactic-contracts/governence/ichoroniumNetworkSettings.sol\":313:318  false */\n  0x00\n    /* \"ichoronium-galactic-contracts/governence/ichoroniumNetworkSettings.sol\":280:1093  networkSettings(false,false,true,false,0x0000000000000000000000000000000000000000,0x0000000000000000000000000000000000000000,0x0000000000000000000000000000000000000000,0x0000000000000000000000000000000000000000,0x0000000000000000000000000000000000000000,0x0000000000000000000000000000000000000000,0x0000000000000000000000000000000000000000,0x0000000000000000000000000000000000000000,0x0000000000000000000000000000000000000000,0x0000000000000000000000000000000000000000,0x0000000000000000000000000000000000000000,0x0000000000000000000000000000000000000000,0x0000000000000000000000000000000000000000,0x0000000000000000000000000000000000000000,0x0000000000000000000000000000000000000000,0x0000000000000000000000000000000000000000,0x0000000000000000000000000000000000000000,0x0000000000000000000000000000000000000000) */\n  iszero\n  iszero\n  dup2\n  mstore\n  0x20\n  add\n    /* \"ichoronium-galactic-contracts/governence/ichoroniumNetworkSettings.sol\":319:361  0x0000000000000000000000000000000000000000 */\n  0x00\n    /* \"ichoronium-galactic-contracts/governence/ichoroniumNetworkSettings.sol\":280:1093  networkSettings(false,false,true,false,0x0000000000000000000000000000000000000000,0x0000000000000000000000000000000000000000,0x0000000000000000000000000000000000000000,0x0000000000000000000000000000000000000000,0x0000000000000000000000000000000000000000,0x0000000000000000000000000000000000000000,0x0000000000000000000000000000000000000000,0x0000000000000000000000000000000000000000,0x0000000000000000000000000000000000000000,0x0000000000000000000000000000000000000000,0x0000000000000000000000000000000000000000,0x0000000000000000000000000000000000000000,0x0000000000000000000000000000000000000000,0x0000000000000000000000000000000000000000,0x0000000000000000000000000000000000000000,0x0000000000000000000000000000000000000000,0x0000000000000000000000000000000000000000,0x0000000000000000000000000000000000000000) */\n  0xffffffffffffffffffffffffffffffffffffffff\n  and\n  dup2\n  mstore\n  0x20\n  add\n    /* \"ichoronium-galactic-contracts/governence/ichoroniumNetworkSettings.sol\":362:404  0x0000000000000000000000000000000000000000 */\n  0x00\n    /* \"ichoronium-galactic-contracts/governence/ichoroniumNetworkSettings.sol\":280:1093  networkSettings(false,false,true,false,0x0000000000000000000000000000000000000000,0x0000000000000000000000000000000000000000,0x0000000000000000000000000000000000000000,0x0000000000000000000000000000000000000000,0x0000000000000000000000000000000000000000,0x0000000000000000000000000000000000000000,0x0000000000000000000000000000000000000000,0x0000000000000000000000000000000000000000,0x0000000000000000000000000000000000000000,0x0000000000000000000000000000000000000000,0x0000000000000000000000000000000000000000,0x0000000000000000000000000000000000000000,0x0000000000000000000000000000000000000000,0x0000000000000000000000000000000000000000,0x0000000000000000000000000000000000000000,0x0000000000000000000000000000000000000000,0x0000000000000000000000000000000000000000,0x0000000000000000000000000000000000000000) */\n  0xffffffffffffffffffffffffffffffffffffffff\n  and\n  dup2\n  mstore\n  0x20\n  add\n    /* \"ichoronium-galactic-contracts/governence/ichoroniumNetworkSettings.sol\":405:447  0x0000000000000000000000000000000000000000 */\n  0x00\n    /* \"ichoronium-galactic-contracts/governence/ichoroniumNetworkSettings.sol\":280:1093  networkSettings(false,false,true,false,0x0000000000000000000000000000000000000000,0x0000000000000000000000000000000000000000,0x0000000000000000000000000000000000000000,0x0000000000000000000000000000000000000000,0x0000000000000000000000000000000000000000,0x0000000000000000000000000000000000000000,0x0000000000000000000000000000000000000000,0x0000000000000000000000000000000000000000,0x0000000000000000000000000000000000000000,0x0000000000000000000000000000000000000000,0x0000000000000000000000000000000000000000,0x0000000000000000000000000000000000000000,0x0000000000000000000000000000000000000000,0x0000000000000000000000000000000000000000,0x0000000000000000000000000000000000000000,0x0000000000000000000000000000000000000000,0x0000000000000000000000000000000000000000,0x0000000000000000000000000000000000000000) */\n  0xffffffffffffffffffffffffffffffffffffffff\n  and\n  dup2\n  mstore\n  0x20\n  add\n    /* \"ichoronium-galactic-contracts/governence/ichoroniumNetworkSettings.sol\":448:490  0x0000000000000000000000000000000000000000 */\n  0x00\n    /* \"ichoronium-galactic-contracts/governence/ichoroniumNetworkSettings.sol\":280:1093  networkSettings(false,false,true,false,0x0000000000000000000000000000000000000000,0x0000000000000000000000000000000000000000,0x0000000000000000000000000000000000000000,0x0000000000000000000000000000000000000000,0x0000000000000000000000000000000000000000,0x0000000000000000000000000000000000000000,0x0000000000000000000000000000000000000000,0x0000000000000000000000000000000000000000,0x0000000000000000000000000000000000000000,0x0000000000000000000000000000000000000000,0x0000000000000000000000000000000000000000,0x0000000000000000000000000000000000000000,0x0000000000000000000000000000000000000000,0x0000000000000000000000000000000000000000,0x0000000000000000000000000000000000000000,0x0000000000000000000000000000000000000000,0x0000000000000000000000000000000000000000,0x0000000000000000000000000000000000000000) */\n  0xffffffffffffffffffffffffffffffffffffffff\n  and\n  dup2\n  mstore\n  0x20\n  add\n    /* \"ichoronium-galactic-contracts/governence/ichoroniumNetworkSettings.sol\":491:533  0x0000000000000000000000000000000000000000 */\n  0x00\n    /* \"ichoronium-galactic-contracts/governence/ichoroniumNetworkSettings.sol\":280:1093  networkSettings(false,false,true,false,0x0000000000000000000000000000000000000000,0x0000000000000000000000000000000000000000,0x0000000000000000000000000000000000000000,0x0000000000000000000000000000000000000000,0x0000000000000000000000000000000000000000,0x0000000000000000000000000000000000000000,0x0000000000000000000000000000000000000000,0x0000000000000000000000000000000000000000,0x0000000000000000000000000000000000000000,0x0000000000000000000000000000000000000000,0x0000000000000000000000000000000000000000,0x0000000000000000000000000000000000000000,0x0000000000000000000000000000000000000000,0x0000000000000000000000000000000000000000,0x0000000000000000000000000000000000000000,0x0000000000000000000000000000000000000000,0x0000000000000000000000000000000000000000,0x0000000000000000000000000000000000000000) */\n  0xffffffffffffffffffffffffffffffffffffffff\n  and\n  dup2\n  mstore\n  0x20\n  add\n    /* \"ichoronium-galactic-contracts/governence/ichoroniumNetworkSettings.sol\":534:576  0x0000000000000000000000000000000000000000 */\n  0x00\n    /* \"ichoronium-galactic-contracts/governence/ichoroniumNetworkSettings.sol\":280:1093  networkSettings(false,false,true,false,0x0000000000000000000000000000000000000000,0x0000000000000000000000000000000000000000,0x0000000000000000000000000000000000000000,0x0000000000000000000000000000000000000000,0x0000000000000000000000000000000000000000,0x0000000000000000000000000000000000000000,0x0000000000000000000000000000000000000000,0x0000000000000000000000000000000000000000,0x0000000000000000000000000000000000000000,0x0000000000000000000000000000000000000000,0x0000000000000000000000000000000000000000,0x0000000000000000000000000000000000000000,0x0000000000000000000000000000000000000000,0x0000000000000000000000000000000000000000,0x0000000000000000000000000000000000000000,0x0000000000000000000000000000000000000000,0x0000000000000000000000000000000000000000,0x0000000000000000000000000000000000000000) */\n  0xffffffffffffffffffffffffffffffffffffffff\n  and\n  dup2\n  mstore\n  0x20\n  add\n    /* \"ichoronium-galactic-contracts/governence/ichoroniumNetworkSettings.sol\":577:619  0x0000000000000000000000000000000000000000 */\n  0x00\n    /* \"ichoronium-galactic-contracts/governence/ichoroniumNetworkSettings.sol\":280:1093  networkSettings(false,false,true,false,0x0000000000000000000000000000000000000000,0x0000000000000000000000000000000000000000,0x0000000000000000000000000000000000000000,0x0000000000000000000000000000000000000000,0x0000000000000000000000000000000000000000,0x0000000000000000000000000000000000000000,0x0000000000000000000000000000000000000000,0x0000000000000000000000000000000000000000,0x0000000000000000000000000000000000000000,0x0000000000000000000000000000000000000000,0x0000000000000000000000000000000000000000,0x0000000000000000000000000000000000000000,0x0000000000000000000000000000000000000000,0x0000000000000000000000000000000000000000,0x0000000000000000000000000000000000000000,0x0000000000000000000000000000000000000000,0x0000000000000000000000000000000000000000,0x0000000000000000000000000000000000000000) */\n  0xffffffffffffffffffffffffffffffffffffffff\n  and\n  dup2\n  mstore\n  0x20\n  add\n    /* \"ichoronium-galactic-contracts/governence/ichoroniumNetworkSettings.sol\":620:662  0x0000000000000000000000000000000000000000 */\n  0x00\n    /* \"ichoronium-galactic-contracts/governence/ichoroniumNetworkSettings.sol\":280:1093  networkSettings(false,false,true,false,0x0000000000000000000000000000000000000000,0x0000000000000000000000000000000000000000,0x0000000000000000000000000000000000000000,0x0000000000000000000000000000000000000000,0x0000000000000000000000000000000000000000,0x0000000000000000000000000000000000000000,0x0000000000000000000000000000000000000000,0x0000000000000000000000000000000000000000,0x0000000000000000000000000000000000000000,0x0000000000000000000000000000000000000000,0x0000000000000000000000000000000000000000,0x0000000000000000000000000000000000000000,0x0000000000000000000000000000000000000000,0x0000000000000000000000000000000000000000,0x0000000000000000000000000000000000000000,0x0000000000000000000000000000000000000000,0x0000000000000000000000000000000000000000,0x0000000000000000000000000000000000000000) */\n  0xffffffffffffffffffffffffffffffffffffffff\n  and\n  dup2\n  mstore\n  0x20\n  add\n    /* \"ichoronium-galactic-contracts/governence/ichoroniumNetworkSettings.sol\":663:705  0x0000000000000000000000000000000000000000 */\n  0x00\n    /* \"ichoronium-galactic-contracts/governence/ichoroniumNetworkSettings.sol\":280:1093  networkSettings(false,false,true,false,0x0000000000000000000000000000000000000000,0x0000000000000000000000000000000000000000,0x0000000000000000000000000000000000000000,0x0000000000000000000000000000000000000000,0x0000000000000000000000000000000000000000,0x0000000000000000000000000000000000000000,0x0000000000000000000000000000000000000000,0x0000000000000000000000000000000000000000,0x0000000000000000000000000000000000000000,0x0000000000000000000000000000000000000000,0x0000000000000000000000000000000000000000,0x0000000000000000000000000000000000000000,0x0000000000000000000000000000000000000000,0x0000000000000000000000000000000000000000,0x0000000000000000000000000000000000000000,0x0000000000000000000000000000000000000000,0x0000000000000000000000000000000000000000,0x0000000000000000000000000000000000000000) */\n  0xffffffffffffffffffffffffffffffffffffffff\n  and\n  dup2\n  mstore\n  0x20\n  add\n    /* \"ichoronium-galactic-contracts/governence/ichoroniumNetworkSettings.sol\":706:748  0x0000000000000000000000000000000000000000 */\n  0x00\n    /* \"ichoronium-galactic-contracts/governence/ichoroniumNetworkSettings.sol\":280:1093  networkSettings(false,false,true,false,0x0000000000000000000000000000000000000000,0x0000000000000000000000000000000000000000,0x0000000000000000000000000000000000000000,0x0000000000000000000000000000000000000000,0x0000000000000000000000000000000000000000,0x0000000000000000000000000000000000000000,0x0000000000000000000000000000000000000000,0x0000000000000000000000000000000000000000,0x0000000000000000000000000000000000000000,0x0000000000000000000000000000000000000000,0x0000000000000000000000000000000000000000,0x0000000000000000000000000000000000000000,0x0000000000000000000000000000000000000000,0x0000000000000000000000000000000000000000,0x0000000000000000000000000000000000000000,0x0000000000000000000000000000000000000000,0x0000000000000000000000000000000000000000,0x0000000000000000000000000000000000000000) */\n  0xffffffffffffffffffffffffffffffffffffffff\n  and\n  dup2\n  mstore\n  0x20\n  add\n    /* \"ichoronium-galactic-contracts/governence/ichoroniumNetworkSettings.sol\":749:791  0x0000000000000000000000000000000000000000 */\n  0x00\n    /* \"ichoronium-galactic-contracts/governence/ichoroniumNetworkSettings.sol\":280:1093  networkSettings(false,false,true,false,0x0000000000000000000000000000000000000000,0x0000000000000000000000000000000000000000,0x0000000000000000000000000000000000000000,0x0000000000000000000000000000000000000000,0x0000000000000000000000000000000000000000,0x0000000000000000000000000000000000000000,0x0000000000000000000000000000000000000000,0x0000000000000000000000000000000000000000,0x0000000000000000000000000000000000000000,0x0000000000000000000000000000000000000000,0x0000000000000000000000000000000000000000,0x0000000000000000000000000000000000000000,0x0000000000000000000000000000000000000000,0x0000000000000000000000000000000000000000,0x0000000000000000000000000000000000000000,0x0000000000000000000000000000000000000000,0x0000000000000000000000000000000000000000,0x0000000000000000000000000000000000000000) */\n  0xffffffffffffffffffffffffffffffffffffffff\n  and\n  dup2\n  mstore\n  0x20\n  add\n    /* \"ichoronium-galactic-contracts/governence/ichoroniumNetworkSettings.sol\":792:834  0x0000000000000000000000000000000000000000 */\n  0x00\n    /* \"ichoronium-galactic-contracts/governence/ichoroniumNetworkSettings.sol\":280:1093  networkSettings(false,false,true,false,0x0000000000000000000000000000000000000000,0x0000000000000000000000000000000000000000,0x0000000000000000000000000000000000000000,0x0000000000000000000000000000000000000000,0x0000000000000000000000000000000000000000,0x0000000000000000000000000000000000000000,0x0000000000000000000000000000000000000000,0x0000000000000000000000000000000000000000,0x0000000000000000000000000000000000000000,0x0000000000000000000000000000000000000000,0x0000000000000000000000000000000000000000,0x0000000000000000000000000000000000000000,0x0000000000000000000000000000000000000000,0x0000000000000000000000000000000000000000,0x0000000000000000000000000000000000000000,0x0000000000000000000000000000000000000000,0x0000000000000000000000000000000000000000,0x0000000000000000000000000000000000000000) */\n  0xffffffffffffffffffffffffffffffffffffffff\n  and\n  dup2\n  mstore\n  0x20\n  add\n    /* \"ichoronium-galactic-contracts/governence/ichoroniumNetworkSettings.sol\":835:877  0x0000000000000000000000000000000000000000 */\n  0x00\n    /* \"ichoronium-galactic-contracts/governence/ichoroniumNetworkSettings.sol\":280:1093  networkSettings(false,false,true,false,0x0000000000000000000000000000000000000000,0x0000000000000000000000000000000000000000,0x0000000000000000000000000000000000000000,0x0000000000000000000000000000000000000000,0x0000000000000000000000000000000000000000,0x0000000000000000000000000000000000000000,0x0000000000000000000000000000000000000000,0x0000000000000000000000000000000000000000,0x0000000000000000000000000000000000000000,0x0000000000000000000000000000000000000000,0x0000000000000000000000000000000000000000,0x0000000000000000000000000000000000000000,0x0000000000000000000000000000000000000000,0x0000000000000000000000000000000000000000,0x0000000000000000000000000000000000000000,0x0000000000000000000000000000000000000000,0x0000000000000000000000000000000000000000,0x0000000000000000000000000000000000000000) */\n  0xffffffffffffffffffffffffffffffffffffffff\n  and\n  dup2\n  mstore\n  0x20\n  add\n    /* \"ichoronium-galactic-contracts/governence/ichoroniumNetworkSettings.sol\":878:920  0x0000000000000000000000000000000000000000 */\n  0x00\n    /* \"ichoronium-galactic-contracts/governence/ichoroniumNetworkSettings.sol\":280:1093  networkSettings(false,false,true,false,0x0000000000000000000000000000000000000000,0x0000000000000000000000000000000000000000,0x0000000000000000000000000000000000000000,0x0000000000000000000000000000000000000000,0x0000000000000000000000000000000000000000,0x0000000000000000000000000000000000000000,0x0000000000000000000000000000000000000000,0x0000000000000000000000000000000000000000,0x0000000000000000000000000000000000000000,0x0000000000000000000000000000000000000000,0x0000000000000000000000000000000000000000,0x0000000000000000000000000000000000000000,0x0000000000000000000000000000000000000000,0x0000000000000000000000000000000000000000,0x0000000000000000000000000000000000000000,0x0000000000000000000000000000000000000000,0x0000000000000000000000000000000000000000,0x0000000000000000000000000000000000000000) */\n  0xffffffffffffffffffffffffffffffffffffffff\n  and\n  dup2\n  mstore\n  0x20\n  add\n    /* \"ichoronium-galactic-contracts/governence/ichoroniumNetworkSettings.sol\":921:963  0x0000000000000000000000000000000000000000 */\n  0x00\n    /* \"ichoronium-galactic-contracts/governence/ichoroniumNetworkSettings.sol\":280:1093  networkSettings(false,false,true,false,0x0000000000000000000000000000000000000000,0x0000000000000000000000000000000000000000,0x0000000000000000000000000000000000000000,0x0000000000000000000000000000000000000000,0x0000000000000000000000000000000000000000,0x0000000000000000000000000000000000000000,0x0000000000000000000000000000000000000000,0x0000000000000000000000000000000000000000,0x0000000000000000000000000000000000000000,0x0000000000000000000000000000000000000000,0x0000000000000000000000000000000000000000,0x0000000000000000000000000000000000000000,0x0000000000000000000000000000000000000000,0x0000000000000000000000000000000000000000,0x0000000000000000000000000000000000000000,0x0000000000000000000000000000000000000000,0x0000000000000000000000000000000000000000,0x0000000000000000000000000000000000000000) */\n  0xffffffffffffffffffffffffffffffffffffffff\n  and\n  dup2\n  mstore\n  0x20\n  add\n    /* \"ichoronium-galactic-contracts/governence/ichoroniumNetworkSettings.sol\":964:1006  0x0000000000000000000000000000000000000000 */\n  0x00\n    /* \"ichoronium-galactic-contracts/governence/ichoroniumNetworkSettings.sol\":280:1093  networkSettings(false,false,true,false,0x0000000000000000000000000000000000000000,0x0000000000000000000000000000000000000000,0x0000000000000000000000000000000000000000,0x0000000000000000000000000000000000000000,0x0000000000000000000000000000000000000000,0x0000000000000000000000000000000000000000,0x0000000000000000000000000000000000000000,0x0000000000000000000000000000000000000000,0x0000000000000000000000000000000000000000,0x0000000000000000000000000000000000000000,0x0000000000000000000000000000000000000000,0x0000000000000000000000000000000000000000,0x0000000000000000000000000000000000000000,0x0000000000000000000000000000000000000000,0x0000000000000000000000000000000000000000,0x0000000000000000000000000000000000000000,0x0000000000000000000000000000000000000000,0x0000000000000000000000000000000000000000) */\n  0xffffffffffffffffffffffffffffffffffffffff\n  and\n  dup2\n  mstore\n  0x20\n  add\n    /* \"ichoronium-galactic-contracts/governence/ichoroniumNetworkSettings.sol\":1007:1049  0x0000000000000000000000000000000000000000 */\n  0x00\n    /* \"ichoronium-galactic-contracts/governence/ichoroniumNetworkSettings.sol\":280:1093  networkSettings(false,false,true,false,0x0000000000000000000000000000000000000000,0x0000000000000000000000000000000000000000,0x0000000000000000000000000000000000000000,0x0000000000000000000000000000000000000000,0x0000000000000000000000000000000000000000,0x0000000000000000000000000000000000000000,0x0000000000000000000000000000000000000000,0x0000000000000000000000000000000000000000,0x0000000000000000000000000000000000000000,0x0000000000000000000000000000000000000000,0x0000000000000000000000000000000000000000,0x0000000000000000000000000000000000000000,0x0000000000000000000000000000000000000000,0x0000000000000000000000000000000000000000,0x0000000000000000000000000000000000000000,0x0000000000000000000000000000000000000000,0x0000000000000000000000000000000000000000,0x0000000000000000000000000000000000000000) */\n  0xffffffffffffffffffffffffffffffffffffffff\n  and\n  dup2\n  mstore\n  0x20\n  add\n    /* \"ichoronium-galactic-contracts/governence/ichoroniumNetworkSettings.sol\":1050:1092  0x0000000000000000000000000000000000000000 */\n  0x00\n    /* \"ichoronium-galactic-contracts/governence/ichoroniumNetworkSettings.sol\":280:1093  networkSettings(false,false,true,false,0x0000000000000000000000000000000000000000,0x0000000000000000000000000000000000000000,0x0000000000000000000000000000000000000000,0x0000000000000000000000000000000000000000,0x0000000000000000000000000000000000000000,0x0000000000000000000000000000000000000000,0x0000000000000000000000000000000000000000,0x0000000000000000000000000000000000000000,0x0000000000000000000000000000000000000000,0x0000000000000000000000000000000000000000,0x0000000000000000000000000000000000000000,0x0000000000000000000000000000000000000000,0x0000000000000000000000000000000000000000,0x0000000000000000000000000000000000000000,0x0000000000000000000000000000000000000000,0x0000000000000000000000000000000000000000,0x0000000000000000000000000000000000000000,0x0000000000000000000000000000000000000000) */\n  0xffffffffffffffffffffffffffffffffffffffff\n  and\n  dup2\n  mstore\n  pop\n    /* \"ichoronium-galactic-contracts/governence/ichoroniumNetworkSettings.sol\":242:1093  networkSettings  ichoroniumSettings = networkSettings(false,false,true,false,0x0000000000000000000000000000000000000000,0x0000000000000000000000000000000000000000,0x0000000000000000000000000000000000000000,0x0000000000000000000000000000000000000000,0x0000000000000000000000000000000000000000,0x0000000000000000000000000000000000000000,0x0000000000000000000000000000000000000000,0x0000000000000000000000000000000000000000,0x0000000000000000000000000000000000000000,0x0000000000000000000000000000000000000000,0x0000000000000000000000000000000000000000,0x0000000000000000000000000000000000000000,0x0000000000000000000000000000000000000000,0x0000000000000000000000000000000000000000,0x0000000000000000000000000000000000000000,0x0000000000000000000000000000000000000000,0x0000000000000000000000000000000000000000,0x0000000000000000000000000000000000000000) */\n  0x02\n  0x00\n  dup3\n  add\n  mload\n  dup2\n  0x00\n  add\n  exp(0x0100, 0x00)\n  dup2\n  sload\n  dup2\n  0xff\n  mul\n  not\n  and\n  swap1\n  dup4\n  iszero\n  iszero\n  mul\n  or\n  swap1\n  sstore\n  pop\n  0x20\n  dup3\n  add\n  mload\n  dup2\n  0x00\n  add\n  exp(0x0100, 0x01)\n  dup2\n  sload\n  dup2\n  0xff\n  mul\n  not\n  and\n  swap1\n  dup4\n  iszero\n  iszero\n  mul\n  or\n  swap1\n  sstore\n  pop\n  0x40\n  dup3\n  add\n  mload\n  dup2\n  0x00\n  add\n  exp(0x0100, 0x02)\n  dup2\n  sload\n  dup2\n  0xff\n  mul\n  not\n  and\n  swap1\n  dup4\n  iszero\n  iszero\n  mul\n  or\n  swap1\n  sstore\n  pop\n  0x60\n  dup3\n  add\n  mload\n  dup2\n  0x00\n  add\n  exp(0x0100, 0x03)\n  dup2\n  sload\n  dup2\n  0xff\n  mul\n  not\n  and\n  swap1\n  dup4\n  iszero\n  iszero\n  mul\n  or\n  swap1\n  sstore\n  pop\n  0x80\n  dup3\n  add\n  mload\n  dup2\n  0x00\n  add\n  exp(0x0100, 0x04)\n  dup2\n  sload\n  dup2\n  0xffffffffffffffffffffffffffffffffffffffff\n  mul\n  not\n  and\n  swap1\n  dup4\n  0xffffffffffffffffffffffffffffffffffffffff\n  and\n  mul\n  or\n  swap1\n  sstore\n  pop\n  0xa0\n  dup3\n  add\n  mload\n  dup2\n  0x01\n  add\n  exp(0x0100, 0x00)\n  dup2\n  sload\n  dup2\n  0xffffffffffffffffffffffffffffffffffffffff\n  mul\n  not\n  and\n  swap1\n  dup4\n  0xffffffffffffffffffffffffffffffffffffffff\n  and\n  mul\n  or\n  swap1\n  sstore\n  pop\n  0xc0\n  dup3\n  add\n  mload\n  dup2\n  0x02\n  add\n  exp(0x0100, 0x00)\n  dup2\n  sload\n  dup2\n  0xffffffffffffffffffffffffffffffffffffffff\n  mul\n  not\n  and\n  swap1\n  dup4\n  0xffffffffffffffffffffffffffffffffffffffff\n  and\n  mul\n  or\n  swap1\n  sstore\n  pop\n  0xe0\n  dup3\n  add\n  mload\n  dup2\n  0x03\n  add\n  exp(0x0100, 0x00)\n  dup2\n  sload\n  dup2\n  0xffffffffffffffffffffffffffffffffffffffff\n  mul\n  not\n  and\n  swap1\n  dup4\n  0xffffffffffffffffffffffffffffffffffffffff\n  and\n  mul\n  or\n  swap1\n  sstore\n  pop\n  0x0100\n  dup3\n  add\n  mload\n  dup2\n  0x04\n  add\n  exp(0x0100, 0x00)\n  dup2\n  sload\n  dup2\n  0xffffffffffffffffffffffffffffffffffffffff\n  mul\n  not\n  and\n  swap1\n  dup4\n  0xffffffffffffffffffffffffffffffffffffffff\n  and\n  mul\n  or\n  swap1\n  sstore\n  pop\n  0x0120\n  dup3\n  add\n  mload\n  dup2\n  0x05\n  add\n  exp(0x0100, 0x00)\n  dup2\n  sload\n  dup2\n  0xffffffffffffffffffffffffffffffffffffffff\n  mul\n  not\n  and\n  swap1\n  dup4\n  0xffffffffffffffffffffffffffffffffffffffff\n  and\n  mul\n  or\n  swap1\n  sstore\n  pop\n  0x0140\n  dup3\n  add\n  mload\n  dup2\n  0x06\n  add\n  exp(0x0100, 0x00)\n  dup2\n  sload\n  dup2\n  0xffffffffffffffffffffffffffffffffffffffff\n  mul\n  not\n  and\n  swap1\n  dup4\n  0xffffffffffffffffffffffffffffffffffffffff\n  and\n  mul\n  or\n  swap1\n  sstore\n  pop\n  0x0160\n  dup3\n  add\n  mload\n  dup2\n  0x07\n  add\n  exp(0x0100, 0x00)\n  dup2\n  sload\n  dup2\n  0xffffffffffffffffffffffffffffffffffffffff\n  mul\n  not\n  and\n  swap1\n  dup4\n  0xffffffffffffffffffffffffffffffffffffffff\n  and\n  mul\n  or\n  swap1\n  sstore\n  pop\n  0x0180\n  dup3\n  add\n  mload\n  dup2\n  0x08\n  add\n  exp(0x0100, 0x00)\n  dup2\n  sload\n  dup2\n  0xffffffffffffffffffffffffffffffffffffffff\n  mul\n  not\n  and\n  swap1\n  dup4\n  0xffffffffffffffffffffffffffffffffffffffff\n  and\n  mul\n  or\n  swap1\n  sstore\n  pop\n  0x01a0\n  dup3\n  add\n  mload\n  dup2\n  0x09\n  add\n  exp(0x0100, 0x00)\n  dup2\n  sload\n  dup2\n  0xffffffffffffffffffffffffffffffffffffffff\n  mul\n  not\n  and\n  swap1\n  dup4\n  0xffffffffffffffffffffffffffffffffffffffff\n  and\n  mul\n  or\n  swap1\n  sstore\n  pop\n  0x01c0\n  dup3\n  add\n  mload\n  dup2\n  0x0a\n  add\n  exp(0x0100, 0x00)\n  dup2\n  sload\n  dup2\n  0xffffffffffffffffffffffffffffffffffffffff\n  mul\n  not\n  and\n  swap1\n  dup4\n  0xffffffffffffffffffffffffffffffffffffffff\n  and\n  mul\n  or\n  swap1\n  sstore\n  pop\n  0x01e0\n  dup3\n  add\n  mload\n  dup2\n  0x0b\n  add\n  exp(0x0100, 0x00)\n  dup2\n  sload\n  dup2\n  0xffffffffffffffffffffffffffffffffffffffff\n  mul\n  not\n  and\n  swap1\n  dup4\n  0xffffffffffffffffffffffffffffffffffffffff\n  and\n  mul\n  or\n  swap1\n  sstore\n  pop\n  0x0200\n  dup3\n  add\n  mload\n  dup2\n  0x0c\n  add\n  exp(0x0100, 0x00)\n  dup2\n  sload\n  dup2\n  0xffffffffffffffffffffffffffffffffffffffff\n  mul\n  not\n  and\n  swap1\n  dup4\n  0xffffffffffffffffffffffffffffffffffffffff\n  and\n  mul\n  or\n  swap1\n  sstore\n  pop\n  0x0220\n  dup3\n  add\n  mload\n  dup2\n  0x0d\n  add\n  exp(0x0100, 0x00)\n  dup2\n  sload\n  dup2\n  0xffffffffffffffffffffffffffffffffffffffff\n  mul\n  not\n  and\n  swap1\n  dup4\n  0xffffffffffffffffffffffffffffffffffffffff\n  and\n  mul\n  or\n  swap1\n  sstore\n  pop\n  0x0240\n  dup3\n  add\n  mload\n  dup2\n  0x0e\n  add\n  exp(0x0100, 0x00)\n  dup2\n  sload\n  dup2\n  0xffffffffffffffffffffffffffffffffffffffff\n  mul\n  not\n  and\n  swap1\n  dup4\n  0xffffffffffffffffffffffffffffffffffffffff\n  and\n  mul\n  or\n  swap1\n  sstore\n  pop\n  0x0260\n  dup3\n  add\n  mload\n  dup2\n  0x0f\n  add\n  exp(0x0100, 0x00)\n  dup2\n  sload\n  dup2\n  0xffffffffffffffffffffffffffffffffffffffff\n  mul\n  not\n  and\n  swap1\n  dup4\n  0xffffffffffffffffffffffffffffffffffffffff\n  and\n  mul\n  or\n  swap1\n  sstore\n  pop\n  0x0280\n  dup3\n  add\n  mload\n  dup2\n  0x10\n  add\n  exp(0x0100, 0x00)\n  dup2\n  sload\n  dup2\n  0xffffffffffffffffffffffffffffffffffffffff\n  mul\n  not\n  and\n  swap1\n  dup4\n  0xffffffffffffffffffffffffffffffffffffffff\n  and\n  mul\n  or\n  swap1\n  sstore\n  pop\n  0x02a0\n  dup3\n  add\n  mload\n  dup2\n  0x11\n  add\n  exp(0x0100, 0x00)\n  dup2\n  sload\n  dup2\n  0xffffffffffffffffffffffffffffffffffffffff\n  mul\n  not\n  and\n  swap1\n  dup4\n  0xffffffffffffffffffffffffffffffffffffffff\n  and\n  mul\n  or\n  swap1\n  sstore\n  pop\n  pop\n  pop\n    /* \"ichoronium-galactic-contracts/governence/ichoroniumNetworkSettings.sol\":6963:7116  constructor() public... */\n  callvalue\n  dup1\n  iszero\n  tag_1\n  jumpi\n  0x00\n  dup1\n  revert\ntag_1:\n  pop\n    /* \"ichoronium-galactic-contracts/governence/ichoroniumNetworkSettings.sol\":7033:7048  block.timestamp */\n  timestamp\n    /* \"ichoronium-galactic-contracts/governence/ichoroniumNetworkSettings.sol\":7020:7030  todaysDate */\n  0x00\n    /* \"ichoronium-galactic-contracts/governence/ichoroniumNetworkSettings.sol\":7020:7048  todaysDate = block.timestamp */\n  dup2\n  swap1\n  sstore\n  pop\n    /* \"ichoronium-galactic-contracts/governence/ichoroniumNetworkSettings.sol\":7077:7087  msg.sender */\n  caller\n    /* \"ichoronium-galactic-contracts/governence/ichoroniumNetworkSettings.sol\":7069:7074  owner */\n  0x01\n  0x00\n    /* \"ichoronium-galactic-contracts/governence/ichoroniumNetworkSettings.sol\":7069:7087  owner = msg.sender */\n  0x0100\n  exp\n  dup2\n  sload\n  dup2\n  0xffffffffffffffffffffffffffffffffffffffff\n  mul\n  not\n  and\n  swap1\n  dup4\n  0xffffffffffffffffffffffffffffffffffffffff\n  and\n  mul\n  or\n  swap1\n  sstore\n  pop\n    /* \"ichoronium-galactic-contracts/governence/ichoroniumNetworkSettings.sol\":87:8099  contract ichoroniumNetworkSettings {... */\n  dataSize(sub_0)\n  dup1\n  dataOffset(sub_0)\n  0x00\n  codecopy\n  0x00\n  return\nstop\n\nsub_0: assembly {\n        /* \"ichoronium-galactic-contracts/governence/ichoroniumNetworkSettings.sol\":87:8099  contract ichoroniumNetworkSettings {... */\n      mstore(0x40, 0x80)\n      callvalue\n      dup1\n      iszero\n      tag_1\n      jumpi\n      0x00\n      dup1\n      revert\n    tag_1:\n      pop\n      jumpi(tag_2, lt(calldatasize, 0x04))\n      shr(0xe0, calldataload(0x00))\n      dup1\n      0x8c920bd3\n      gt\n      tag_23\n      jumpi\n      dup1\n      0xb4840993\n      gt\n      tag_24\n      jumpi\n      dup1\n      0xb4840993\n      eq\n      tag_18\n      jumpi\n      dup1\n      0xbfed3cf2\n      eq\n      tag_19\n      jumpi\n      dup1\n      0xd468fdf4\n      eq\n      tag_20\n      jumpi\n      dup1\n      0xe6a52e8a\n      eq\n      tag_21\n      jumpi\n      dup1\n      0xf23e9c3b\n      eq\n      tag_22\n      jumpi\n      jump(tag_2)\n    tag_24:\n      dup1\n      0x8c920bd3\n      eq\n      tag_13\n      jumpi\n      dup1\n      0x8df57580\n      eq\n      tag_14\n      jumpi\n      dup1\n      0x96d54ebe\n      eq\n      tag_15\n      jumpi\n      dup1\n      0xae35cfa2\n      eq\n      tag_16\n      jumpi\n      dup1\n      0xb343c438\n      eq\n      tag_17\n      jumpi\n      jump(tag_2)\n    tag_23:\n      dup1\n      0x64aa0754\n      gt\n      tag_25\n      jumpi\n      dup1\n      0x64aa0754\n      eq\n      tag_8\n      jumpi\n      dup1\n      0x6bc5b0c4\n      eq\n      tag_9\n      jumpi\n      dup1\n      0x6ef6346f\n      eq\n      tag_10\n      jumpi\n      dup1\n      0x7f0b2e7d\n      eq\n      tag_11\n      jumpi\n      dup1\n      0x85ff6e63\n      eq\n      tag_12\n      jumpi\n      jump(tag_2)\n    tag_25:\n      dup1\n      0x12902cd8\n      eq\n      tag_3\n      jumpi\n      dup1\n      0x3d3e8321\n      eq\n      tag_4\n      jumpi\n      dup1\n      0x42dd96f7\n      eq\n      tag_5\n      jumpi\n      dup1\n      0x45769e25\n      eq\n      tag_6\n      jumpi\n      dup1\n      0x5d0d3816\n      eq\n      tag_7\n      jumpi\n    tag_2:\n      0x00\n      dup1\n      revert\n        /* \"ichoronium-galactic-contracts/governence/ichoroniumNetworkSettings.sol\":6481:6959  function switchisNetworkIsDeactive(... */\n    tag_3:\n      tag_26\n      tag_27\n      jump\t// in\n    tag_26:\n      stop\n        /* \"ichoronium-galactic-contracts/governence/ichoroniumNetworkSettings.sol\":4254:4525  function switchichoroniumFinanceSettingsCurrent(address newSetting... */\n    tag_4:\n      tag_28\n      0x04\n      dup1\n      calldatasize\n      sub\n      dup2\n      add\n      swap1\n      tag_29\n      swap2\n      swap1\n      tag_30\n      jump\t// in\n    tag_29:\n      tag_31\n      jump\t// in\n    tag_28:\n      stop\n        /* \"ichoronium-galactic-contracts/governence/ichoroniumNetworkSettings.sol\":1666:1836  function killswitch() public view returns (bool) {... */\n    tag_5:\n      tag_32\n      tag_33\n      jump\t// in\n    tag_32:\n      mload(0x40)\n      tag_34\n      swap2\n      swap1\n      tag_35\n      jump\t// in\n    tag_34:\n      mload(0x40)\n      dup1\n      swap2\n      sub\n      swap1\n      return\n        /* \"ichoronium-galactic-contracts/governence/ichoroniumNetworkSettings.sol\":5986:6479  function switchisNetworkIsCoolingDown(... */\n    tag_6:\n      tag_36\n      tag_37\n      jump\t// in\n    tag_36:\n      stop\n        /* \"ichoronium-galactic-contracts/governence/ichoroniumNetworkSettings.sol\":2738:2955  function ichoroniumFinanceSettingsCurrent() public view returns (address) {... */\n    tag_7:\n      tag_38\n      tag_39\n      jump\t// in\n    tag_38:\n      mload(0x40)\n      tag_40\n      swap2\n      swap1\n      tag_41\n      jump\t// in\n    tag_40:\n      mload(0x40)\n      dup1\n      swap2\n      sub\n      swap1\n      return\n        /* \"ichoronium-galactic-contracts/governence/ichoroniumNetworkSettings.sol\":1476:1664  function isNetworkIsDeactive() public view returns (bool) {... */\n    tag_8:\n      tag_42\n      tag_43\n      jump\t// in\n    tag_42:\n      mload(0x40)\n      tag_44\n      swap2\n      swap1\n      tag_35\n      jump\t// in\n    tag_44:\n      mload(0x40)\n      dup1\n      swap2\n      sub\n      swap1\n      return\n        /* \"ichoronium-galactic-contracts/governence/ichoroniumNetworkSettings.sol\":3444:3696  function switchichoroniumNetworkPermissionsCurrent(address newSetting... */\n    tag_9:\n      tag_45\n      0x04\n      dup1\n      calldatasize\n      sub\n      dup2\n      add\n      swap1\n      tag_46\n      swap2\n      swap1\n      tag_30\n      jump\t// in\n    tag_46:\n      tag_47\n      jump\t// in\n    tag_45:\n      stop\n        /* \"ichoronium-galactic-contracts/governence/ichoroniumNetworkSettings.sol\":2288:2509  function gameProfitsGalacticSettingsCurrent() public view returns (address) {... */\n    tag_10:\n      tag_48\n      tag_49\n      jump\t// in\n    tag_48:\n      mload(0x40)\n      tag_50\n      swap2\n      swap1\n      tag_41\n      jump\t// in\n    tag_50:\n      mload(0x40)\n      dup1\n      swap2\n      sub\n      swap1\n      return\n        /* \"ichoronium-galactic-contracts/governence/ichoroniumNetworkSettings.sol\":2957:3163  function ichoroniumReturnSettings() public view returns (networkSettings memory networkSetting) {... */\n    tag_11:\n      tag_51\n      tag_52\n      jump\t// in\n    tag_51:\n      mload(0x40)\n      tag_53\n      swap2\n      swap1\n      tag_54\n      jump\t// in\n    tag_53:\n      mload(0x40)\n      dup1\n      swap2\n      sub\n      swap1\n      return\n        /* \"ichoronium-galactic-contracts/governence/ichoroniumNetworkSettings.sol\":4796:5324  function switchisNetworkActive(... */\n    tag_12:\n      tag_55\n      tag_56\n      jump\t// in\n    tag_55:\n      stop\n        /* \"ichoronium-galactic-contracts/governence/ichoroniumNetworkSettings.sol\":3698:3973  function switchgameProfitsGalacticSettingsCurrent(address newSetting... */\n    tag_13:\n      tag_57\n      0x04\n      dup1\n      calldatasize\n      sub\n      dup2\n      add\n      swap1\n      tag_58\n      swap2\n      swap1\n      tag_30\n      jump\t// in\n    tag_58:\n      tag_59\n      jump\t// in\n    tag_57:\n      stop\n        /* \"ichoronium-galactic-contracts/governence/ichoroniumNetworkSettings.sol\":1280:1474  function isNetworkIsCoolingDown() public view returns (bool) {... */\n    tag_14:\n      tag_60\n      tag_61\n      jump\t// in\n    tag_60:\n      mload(0x40)\n      tag_62\n      swap2\n      swap1\n      tag_35\n      jump\t// in\n    tag_62:\n      mload(0x40)\n      dup1\n      swap2\n      sub\n      swap1\n      return\n        /* \"ichoronium-galactic-contracts/governence/ichoroniumNetworkSettings.sol\":2063:2286  function ichoroniumNetworkPermissionsCurrent() public view returns (address) {... */\n    tag_15:\n      tag_63\n      tag_64\n      jump\t// in\n    tag_63:\n      mload(0x40)\n      tag_65\n      swap2\n      swap1\n      tag_41\n      jump\t// in\n    tag_65:\n      mload(0x40)\n      dup1\n      swap2\n      sub\n      swap1\n      return\n        /* \"ichoronium-galactic-contracts/governence/ichoroniumNetworkSettings.sol\":5342:5984  function killswitchActivate(... */\n    tag_16:\n      tag_66\n      tag_67\n      jump\t// in\n    tag_66:\n      stop\n        /* \"ichoronium-galactic-contracts/governence/ichoroniumNetworkSettings.sol\":1098:1278  function isNetworkActive() public view returns (bool) {... */\n    tag_17:\n      tag_68\n      tag_69\n      jump\t// in\n    tag_68:\n      mload(0x40)\n      tag_70\n      swap2\n      swap1\n      tag_35\n      jump\t// in\n    tag_70:\n      mload(0x40)\n      dup1\n      swap2\n      sub\n      swap1\n      return\n        /* \"ichoronium-galactic-contracts/governence/ichoroniumNetworkSettings.sol\":4527:4794  function switchichoroniumCloudSettingsCurrent(address newSetting... */\n    tag_18:\n      tag_71\n      0x04\n      dup1\n      calldatasize\n      sub\n      dup2\n      add\n      swap1\n      tag_72\n      swap2\n      swap1\n      tag_30\n      jump\t// in\n    tag_72:\n      tag_73\n      jump\t// in\n    tag_71:\n      stop\n        /* \"ichoronium-galactic-contracts/governence/ichoroniumNetworkSettings.sol\":2511:2734  function ichoroniumGalacticMeteaverseCurrent() public view returns (address) {... */\n    tag_19:\n      tag_74\n      tag_75\n      jump\t// in\n    tag_74:\n      mload(0x40)\n      tag_76\n      swap2\n      swap1\n      tag_41\n      jump\t// in\n    tag_76:\n      mload(0x40)\n      dup1\n      swap2\n      sub\n      swap1\n      return\n        /* \"ichoronium-galactic-contracts/governence/ichoroniumNetworkSettings.sol\":3975:4252  function switchichoroniumGalacticMeteaverseCurrent(address newSetting... */\n    tag_20:\n      tag_77\n      0x04\n      dup1\n      calldatasize\n      sub\n      dup2\n      add\n      swap1\n      tag_78\n      swap2\n      swap1\n      tag_30\n      jump\t// in\n    tag_78:\n      tag_79\n      jump\t// in\n    tag_77:\n      stop\n        /* \"ichoronium-galactic-contracts/governence/ichoroniumNetworkSettings.sol\":1840:2057  function ichoroniumNetworkProfilesCurrent() public view returns (address) {... */\n    tag_21:\n      tag_80\n      tag_81\n      jump\t// in\n    tag_80:\n      mload(0x40)\n      tag_82\n      swap2\n      swap1\n      tag_41\n      jump\t// in\n    tag_82:\n      mload(0x40)\n      dup1\n      swap2\n      sub\n      swap1\n      return\n        /* \"ichoronium-galactic-contracts/governence/ichoroniumNetworkSettings.sol\":3165:3442  function switchichoroniumNetworkProfilesCurrent(address newSetting... */\n    tag_22:\n      tag_83\n      0x04\n      dup1\n      calldatasize\n      sub\n      dup2\n      add\n      swap1\n      tag_84\n      swap2\n      swap1\n      tag_30\n      jump\t// in\n    tag_84:\n      tag_85\n      jump\t// in\n    tag_83:\n      stop\n        /* \"ichoronium-galactic-contracts/governence/ichoroniumNetworkSettings.sol\":6481:6959  function switchisNetworkIsDeactive(... */\n    tag_27:\n        /* \"ichoronium-galactic-contracts/governence/ichoroniumNetworkSettings.sol\":215:220  owner */\n      0x01\n      0x00\n      swap1\n      sload\n      swap1\n      0x0100\n      exp\n      swap1\n      div\n      0xffffffffffffffffffffffffffffffffffffffff\n      and\n        /* \"ichoronium-galactic-contracts/governence/ichoroniumNetworkSettings.sol\":201:220  msg.sender == owner */\n      0xffffffffffffffffffffffffffffffffffffffff\n      and\n        /* \"ichoronium-galactic-contracts/governence/ichoroniumNetworkSettings.sol\":201:211  msg.sender */\n      caller\n        /* \"ichoronium-galactic-contracts/governence/ichoroniumNetworkSettings.sol\":201:220  msg.sender == owner */\n      0xffffffffffffffffffffffffffffffffffffffff\n      and\n      eq\n        /* \"ichoronium-galactic-contracts/governence/ichoroniumNetworkSettings.sol\":192:221  require (msg.sender == owner) */\n      tag_87\n      jumpi\n      0x00\n      dup1\n      revert\n    tag_87:\n        /* \"ichoronium-galactic-contracts/governence/ichoroniumNetworkSettings.sol\":6657:6662  false */\n      0x00\n        /* \"ichoronium-galactic-contracts/governence/ichoroniumNetworkSettings.sol\":6615:6662  ichoroniumSettings.isNetworkIsDeactive == false */\n      iszero\n      iszero\n        /* \"ichoronium-galactic-contracts/governence/ichoroniumNetworkSettings.sol\":6615:6633  ichoroniumSettings */\n      0x02\n        /* \"ichoronium-galactic-contracts/governence/ichoroniumNetworkSettings.sol\":6615:6653  ichoroniumSettings.isNetworkIsDeactive */\n      0x00\n      add\n      0x02\n      swap1\n      sload\n      swap1\n      0x0100\n      exp\n      swap1\n      div\n      0xff\n      and\n        /* \"ichoronium-galactic-contracts/governence/ichoroniumNetworkSettings.sol\":6615:6662  ichoroniumSettings.isNetworkIsDeactive == false */\n      iszero\n      iszero\n      sub\n        /* \"ichoronium-galactic-contracts/governence/ichoroniumNetworkSettings.sol\":6611:6942  if (ichoroniumSettings.isNetworkIsDeactive == false){... */\n      tag_89\n      jumpi\n        /* \"ichoronium-galactic-contracts/governence/ichoroniumNetworkSettings.sol\":6728:6732  true */\n      0x01\n        /* \"ichoronium-galactic-contracts/governence/ichoroniumNetworkSettings.sol\":6687:6705  ichoroniumSettings */\n      0x02\n        /* \"ichoronium-galactic-contracts/governence/ichoroniumNetworkSettings.sol\":6687:6725  ichoroniumSettings.isNetworkIsDeactive */\n      0x00\n      add\n      0x02\n        /* \"ichoronium-galactic-contracts/governence/ichoroniumNetworkSettings.sol\":6687:6732  ichoroniumSettings.isNetworkIsDeactive = true */\n      0x0100\n      exp\n      dup2\n      sload\n      dup2\n      0xff\n      mul\n      not\n      and\n      swap1\n      dup4\n      iszero\n      iszero\n      mul\n      or\n      swap1\n      sstore\n      pop\n        /* \"ichoronium-galactic-contracts/governence/ichoroniumNetworkSettings.sol\":6611:6942  if (ichoroniumSettings.isNetworkIsDeactive == false){... */\n      jump(tag_90)\n    tag_89:\n        /* \"ichoronium-galactic-contracts/governence/ichoroniumNetworkSettings.sol\":6846:6850  true */\n      0x01\n        /* \"ichoronium-galactic-contracts/governence/ichoroniumNetworkSettings.sol\":6804:6850  ichoroniumSettings.isNetworkIsDeactive == true */\n      iszero\n      iszero\n        /* \"ichoronium-galactic-contracts/governence/ichoroniumNetworkSettings.sol\":6804:6822  ichoroniumSettings */\n      0x02\n        /* \"ichoronium-galactic-contracts/governence/ichoroniumNetworkSettings.sol\":6804:6842  ichoroniumSettings.isNetworkIsDeactive */\n      0x00\n      add\n      0x02\n      swap1\n      sload\n      swap1\n      0x0100\n      exp\n      swap1\n      div\n      0xff\n      and\n        /* \"ichoronium-galactic-contracts/governence/ichoroniumNetworkSettings.sol\":6804:6850  ichoroniumSettings.isNetworkIsDeactive == true */\n      iszero\n      iszero\n      sub\n        /* \"ichoronium-galactic-contracts/governence/ichoroniumNetworkSettings.sol\":6800:6942  if (ichoroniumSettings.isNetworkIsDeactive == true){... */\n      tag_91\n      jumpi\n        /* \"ichoronium-galactic-contracts/governence/ichoroniumNetworkSettings.sol\":6916:6921  false */\n      0x00\n        /* \"ichoronium-galactic-contracts/governence/ichoroniumNetworkSettings.sol\":6875:6893  ichoroniumSettings */\n      0x02\n        /* \"ichoronium-galactic-contracts/governence/ichoroniumNetworkSettings.sol\":6875:6913  ichoroniumSettings.isNetworkIsDeactive */\n      0x00\n      add\n      0x02\n        /* \"ichoronium-galactic-contracts/governence/ichoroniumNetworkSettings.sol\":6875:6921  ichoroniumSettings.isNetworkIsDeactive = false */\n      0x0100\n      exp\n      dup2\n      sload\n      dup2\n      0xff\n      mul\n      not\n      and\n      swap1\n      dup4\n      iszero\n      iszero\n      mul\n      or\n      swap1\n      sstore\n      pop\n        /* \"ichoronium-galactic-contracts/governence/ichoroniumNetworkSettings.sol\":6800:6942  if (ichoroniumSettings.isNetworkIsDeactive == true){... */\n    tag_91:\n        /* \"ichoronium-galactic-contracts/governence/ichoroniumNetworkSettings.sol\":6611:6942  if (ichoroniumSettings.isNetworkIsDeactive == false){... */\n    tag_90:\n        /* \"ichoronium-galactic-contracts/governence/ichoroniumNetworkSettings.sol\":6481:6959  function switchisNetworkIsDeactive(... */\n      jump\t// out\n        /* \"ichoronium-galactic-contracts/governence/ichoroniumNetworkSettings.sol\":4254:4525  function switchichoroniumFinanceSettingsCurrent(address newSetting... */\n    tag_31:\n        /* \"ichoronium-galactic-contracts/governence/ichoroniumNetworkSettings.sol\":215:220  owner */\n      0x01\n      0x00\n      swap1\n      sload\n      swap1\n      0x0100\n      exp\n      swap1\n      div\n      0xffffffffffffffffffffffffffffffffffffffff\n      and\n        /* \"ichoronium-galactic-contracts/governence/ichoroniumNetworkSettings.sol\":201:220  msg.sender == owner */\n      0xffffffffffffffffffffffffffffffffffffffff\n      and\n        /* \"ichoronium-galactic-contracts/governence/ichoroniumNetworkSettings.sol\":201:211  msg.sender */\n      caller\n        /* \"ichoronium-galactic-contracts/governence/ichoroniumNetworkSettings.sol\":201:220  msg.sender == owner */\n      0xffffffffffffffffffffffffffffffffffffffff\n      and\n      eq\n        /* \"ichoronium-galactic-contracts/governence/ichoroniumNetworkSettings.sol\":192:221  require (msg.sender == owner) */\n      tag_93\n      jumpi\n      0x00\n      dup1\n      revert\n    tag_93:\n        /* \"ichoronium-galactic-contracts/governence/ichoroniumNetworkSettings.sol\":4472:4482  newSetting */\n      dup1\n        /* \"ichoronium-galactic-contracts/governence/ichoroniumNetworkSettings.sol\":4418:4436  ichoroniumSettings */\n      0x02\n        /* \"ichoronium-galactic-contracts/governence/ichoroniumNetworkSettings.sol\":4418:4469  ichoroniumSettings.ichoroniumFinanceSettingsCurrent */\n      0x0d\n      add\n      0x00\n        /* \"ichoronium-galactic-contracts/governence/ichoroniumNetworkSettings.sol\":4418:4482  ichoroniumSettings.ichoroniumFinanceSettingsCurrent = newSetting */\n      0x0100\n      exp\n      dup2\n      sload\n      dup2\n      0xffffffffffffffffffffffffffffffffffffffff\n      mul\n      not\n      and\n      swap1\n      dup4\n      0xffffffffffffffffffffffffffffffffffffffff\n      and\n      mul\n      or\n      swap1\n      sstore\n      pop\n        /* \"ichoronium-galactic-contracts/governence/ichoroniumNetworkSettings.sol\":4254:4525  function switchichoroniumFinanceSettingsCurrent(address newSetting... */\n      pop\n      jump\t// out\n        /* \"ichoronium-galactic-contracts/governence/ichoroniumNetworkSettings.sol\":1666:1836  function killswitch() public view returns (bool) {... */\n    tag_33:\n        /* \"ichoronium-galactic-contracts/governence/ichoroniumNetworkSettings.sol\":1709:1713  bool */\n      0x00\n        /* \"ichoronium-galactic-contracts/governence/ichoroniumNetworkSettings.sol\":1726:1764  networkSettings storage networksetting */\n      dup1\n        /* \"ichoronium-galactic-contracts/governence/ichoroniumNetworkSettings.sol\":1767:1785  ichoroniumSettings */\n      0x02\n        /* \"ichoronium-galactic-contracts/governence/ichoroniumNetworkSettings.sol\":1726:1785  networkSettings storage networksetting = ichoroniumSettings */\n      swap1\n      pop\n        /* \"ichoronium-galactic-contracts/governence/ichoroniumNetworkSettings.sol\":1803:1817  networksetting */\n      dup1\n        /* \"ichoronium-galactic-contracts/governence/ichoroniumNetworkSettings.sol\":1803:1828  networksetting.killswitch */\n      0x00\n      add\n      0x03\n      swap1\n      sload\n      swap1\n      0x0100\n      exp\n      swap1\n      div\n      0xff\n      and\n        /* \"ichoronium-galactic-contracts/governence/ichoroniumNetworkSettings.sol\":1796:1828  return networksetting.killswitch */\n      swap2\n      pop\n      pop\n        /* \"ichoronium-galactic-contracts/governence/ichoroniumNetworkSettings.sol\":1666:1836  function killswitch() public view returns (bool) {... */\n      swap1\n      jump\t// out\n        /* \"ichoronium-galactic-contracts/governence/ichoroniumNetworkSettings.sol\":5986:6479  function switchisNetworkIsCoolingDown(... */\n    tag_37:\n        /* \"ichoronium-galactic-contracts/governence/ichoroniumNetworkSettings.sol\":215:220  owner */\n      0x01\n      0x00\n      swap1\n      sload\n      swap1\n      0x0100\n      exp\n      swap1\n      div\n      0xffffffffffffffffffffffffffffffffffffffff\n      and\n        /* \"ichoronium-galactic-contracts/governence/ichoroniumNetworkSettings.sol\":201:220  msg.sender == owner */\n      0xffffffffffffffffffffffffffffffffffffffff\n      and\n        /* \"ichoronium-galactic-contracts/governence/ichoroniumNetworkSettings.sol\":201:211  msg.sender */\n      caller\n        /* \"ichoronium-galactic-contracts/governence/ichoroniumNetworkSettings.sol\":201:220  msg.sender == owner */\n      0xffffffffffffffffffffffffffffffffffffffff\n      and\n      eq\n        /* \"ichoronium-galactic-contracts/governence/ichoroniumNetworkSettings.sol\":192:221  require (msg.sender == owner) */\n      tag_97\n      jumpi\n      0x00\n      dup1\n      revert\n    tag_97:\n        /* \"ichoronium-galactic-contracts/governence/ichoroniumNetworkSettings.sol\":6168:6173  false */\n      0x00\n        /* \"ichoronium-galactic-contracts/governence/ichoroniumNetworkSettings.sol\":6123:6173  ichoroniumSettings.isNetworkIsCoolingDown == false */\n      iszero\n      iszero\n        /* \"ichoronium-galactic-contracts/governence/ichoroniumNetworkSettings.sol\":6123:6141  ichoroniumSettings */\n      0x02\n        /* \"ichoronium-galactic-contracts/governence/ichoroniumNetworkSettings.sol\":6123:6164  ichoroniumSettings.isNetworkIsCoolingDown */\n      0x00\n      add\n      0x01\n      swap1\n      sload\n      swap1\n      0x0100\n      exp\n      swap1\n      div\n      0xff\n      and\n        /* \"ichoronium-galactic-contracts/governence/ichoroniumNetworkSettings.sol\":6123:6173  ichoroniumSettings.isNetworkIsCoolingDown == false */\n      iszero\n      iszero\n      sub\n        /* \"ichoronium-galactic-contracts/governence/ichoroniumNetworkSettings.sol\":6119:6462  if (ichoroniumSettings.isNetworkIsCoolingDown == false){... */\n      tag_99\n      jumpi\n        /* \"ichoronium-galactic-contracts/governence/ichoroniumNetworkSettings.sol\":6242:6246  true */\n      0x01\n        /* \"ichoronium-galactic-contracts/governence/ichoroniumNetworkSettings.sol\":6198:6216  ichoroniumSettings */\n      0x02\n        /* \"ichoronium-galactic-contracts/governence/ichoroniumNetworkSettings.sol\":6198:6239  ichoroniumSettings.isNetworkIsCoolingDown */\n      0x00\n      add\n      0x01\n        /* \"ichoronium-galactic-contracts/governence/ichoroniumNetworkSettings.sol\":6198:6246  ichoroniumSettings.isNetworkIsCoolingDown = true */\n      0x0100\n      exp\n      dup2\n      sload\n      dup2\n      0xff\n      mul\n      not\n      and\n      swap1\n      dup4\n      iszero\n      iszero\n      mul\n      or\n      swap1\n      sstore\n      pop\n        /* \"ichoronium-galactic-contracts/governence/ichoroniumNetworkSettings.sol\":6119:6462  if (ichoroniumSettings.isNetworkIsCoolingDown == false){... */\n      jump(tag_100)\n    tag_99:\n        /* \"ichoronium-galactic-contracts/governence/ichoroniumNetworkSettings.sol\":6363:6367  true */\n      0x01\n        /* \"ichoronium-galactic-contracts/governence/ichoroniumNetworkSettings.sol\":6318:6367  ichoroniumSettings.isNetworkIsCoolingDown == true */\n      iszero\n      iszero\n        /* \"ichoronium-galactic-contracts/governence/ichoroniumNetworkSettings.sol\":6318:6336  ichoroniumSettings */\n      0x02\n        /* \"ichoronium-galactic-contracts/governence/ichoroniumNetworkSettings.sol\":6318:6359  ichoroniumSettings.isNetworkIsCoolingDown */\n      0x00\n      add\n      0x01\n      swap1\n      sload\n      swap1\n      0x0100\n      exp\n      swap1\n      div\n      0xff\n      and\n        /* \"ichoronium-galactic-contracts/governence/ichoroniumNetworkSettings.sol\":6318:6367  ichoroniumSettings.isNetworkIsCoolingDown == true */\n      iszero\n      iszero\n      sub\n        /* \"ichoronium-galactic-contracts/governence/ichoroniumNetworkSettings.sol\":6314:6462  if (ichoroniumSettings.isNetworkIsCoolingDown == true){... */\n      tag_101\n      jumpi\n        /* \"ichoronium-galactic-contracts/governence/ichoroniumNetworkSettings.sol\":6436:6441  false */\n      0x00\n        /* \"ichoronium-galactic-contracts/governence/ichoroniumNetworkSettings.sol\":6392:6410  ichoroniumSettings */\n      0x02\n        /* \"ichoronium-galactic-contracts/governence/ichoroniumNetworkSettings.sol\":6392:6433  ichoroniumSettings.isNetworkIsCoolingDown */\n      0x00\n      add\n      0x01\n        /* \"ichoronium-galactic-contracts/governence/ichoroniumNetworkSettings.sol\":6392:6441  ichoroniumSettings.isNetworkIsCoolingDown = false */\n      0x0100\n      exp\n      dup2\n      sload\n      dup2\n      0xff\n      mul\n      not\n      and\n      swap1\n      dup4\n      iszero\n      iszero\n      mul\n      or\n      swap1\n      sstore\n      pop\n        /* \"ichoronium-galactic-contracts/governence/ichoroniumNetworkSettings.sol\":6314:6462  if (ichoroniumSettings.isNetworkIsCoolingDown == true){... */\n    tag_101:\n        /* \"ichoronium-galactic-contracts/governence/ichoroniumNetworkSettings.sol\":6119:6462  if (ichoroniumSettings.isNetworkIsCoolingDown == false){... */\n    tag_100:\n        /* \"ichoronium-galactic-contracts/governence/ichoroniumNetworkSettings.sol\":5986:6479  function switchisNetworkIsCoolingDown(... */\n      jump\t// out\n        /* \"ichoronium-galactic-contracts/governence/ichoroniumNetworkSettings.sol\":2738:2955  function ichoroniumFinanceSettingsCurrent() public view returns (address) {... */\n    tag_39:\n        /* \"ichoronium-galactic-contracts/governence/ichoroniumNetworkSettings.sol\":2803:2810  address */\n      0x00\n        /* \"ichoronium-galactic-contracts/governence/ichoroniumNetworkSettings.sol\":2823:2861  networkSettings storage networksetting */\n      dup1\n        /* \"ichoronium-galactic-contracts/governence/ichoroniumNetworkSettings.sol\":2864:2882  ichoroniumSettings */\n      0x02\n        /* \"ichoronium-galactic-contracts/governence/ichoroniumNetworkSettings.sol\":2823:2882  networkSettings storage networksetting = ichoroniumSettings */\n      swap1\n      pop\n        /* \"ichoronium-galactic-contracts/governence/ichoroniumNetworkSettings.sol\":2900:2914  networksetting */\n      dup1\n        /* \"ichoronium-galactic-contracts/governence/ichoroniumNetworkSettings.sol\":2900:2947  networksetting.ichoroniumFinanceSettingsCurrent */\n      0x0d\n      add\n      0x00\n      swap1\n      sload\n      swap1\n      0x0100\n      exp\n      swap1\n      div\n      0xffffffffffffffffffffffffffffffffffffffff\n      and\n        /* \"ichoronium-galactic-contracts/governence/ichoroniumNetworkSettings.sol\":2893:2947  return networksetting.ichoroniumFinanceSettingsCurrent */\n      swap2\n      pop\n      pop\n        /* \"ichoronium-galactic-contracts/governence/ichoroniumNetworkSettings.sol\":2738:2955  function ichoroniumFinanceSettingsCurrent() public view returns (address) {... */\n      swap1\n      jump\t// out\n        /* \"ichoronium-galactic-contracts/governence/ichoroniumNetworkSettings.sol\":1476:1664  function isNetworkIsDeactive() public view returns (bool) {... */\n    tag_43:\n        /* \"ichoronium-galactic-contracts/governence/ichoroniumNetworkSettings.sol\":1528:1532  bool */\n      0x00\n        /* \"ichoronium-galactic-contracts/governence/ichoroniumNetworkSettings.sol\":1545:1583  networkSettings storage networksetting */\n      dup1\n        /* \"ichoronium-galactic-contracts/governence/ichoroniumNetworkSettings.sol\":1586:1604  ichoroniumSettings */\n      0x02\n        /* \"ichoronium-galactic-contracts/governence/ichoroniumNetworkSettings.sol\":1545:1604  networkSettings storage networksetting = ichoroniumSettings */\n      swap1\n      pop\n        /* \"ichoronium-galactic-contracts/governence/ichoroniumNetworkSettings.sol\":1622:1636  networksetting */\n      dup1\n        /* \"ichoronium-galactic-contracts/governence/ichoroniumNetworkSettings.sol\":1622:1656  networksetting.isNetworkIsDeactive */\n      0x00\n      add\n      0x02\n      swap1\n      sload\n      swap1\n      0x0100\n      exp\n      swap1\n      div\n      0xff\n      and\n        /* \"ichoronium-galactic-contracts/governence/ichoroniumNetworkSettings.sol\":1615:1656  return networksetting.isNetworkIsDeactive */\n      swap2\n      pop\n      pop\n        /* \"ichoronium-galactic-contracts/governence/ichoroniumNetworkSettings.sol\":1476:1664  function isNetworkIsDeactive() public view returns (bool) {... */\n      swap1\n      jump\t// out\n        /* \"ichoronium-galactic-contracts/governence/ichoroniumNetworkSettings.sol\":3444:3696  function switchichoroniumNetworkPermissionsCurrent(address newSetting... */\n    tag_47:\n        /* \"ichoronium-galactic-contracts/governence/ichoroniumNetworkSettings.sol\":215:220  owner */\n      0x01\n      0x00\n      swap1\n      sload\n      swap1\n      0x0100\n      exp\n      swap1\n      div\n      0xffffffffffffffffffffffffffffffffffffffff\n      and\n        /* \"ichoronium-galactic-contracts/governence/ichoroniumNetworkSettings.sol\":201:220  msg.sender == owner */\n      0xffffffffffffffffffffffffffffffffffffffff\n      and\n        /* \"ichoronium-galactic-contracts/governence/ichoroniumNetworkSettings.sol\":201:211  msg.sender */\n      caller\n        /* \"ichoronium-galactic-contracts/governence/ichoroniumNetworkSettings.sol\":201:220  msg.sender == owner */\n      0xffffffffffffffffffffffffffffffffffffffff\n      and\n      eq\n        /* \"ichoronium-galactic-contracts/governence/ichoroniumNetworkSettings.sol\":192:221  require (msg.sender == owner) */\n      tag_105\n      jumpi\n      0x00\n      dup1\n      revert\n    tag_105:\n        /* \"ichoronium-galactic-contracts/governence/ichoroniumNetworkSettings.sol\":3668:3678  newSetting */\n      dup1\n        /* \"ichoronium-galactic-contracts/governence/ichoroniumNetworkSettings.sol\":3611:3629  ichoroniumSettings */\n      0x02\n        /* \"ichoronium-galactic-contracts/governence/ichoroniumNetworkSettings.sol\":3611:3665  ichoroniumSettings.ichoroniumNetworkPermissionsCurrent */\n      0x04\n      add\n      0x00\n        /* \"ichoronium-galactic-contracts/governence/ichoroniumNetworkSettings.sol\":3611:3678  ichoroniumSettings.ichoroniumNetworkPermissionsCurrent = newSetting */\n      0x0100\n      exp\n      dup2\n      sload\n      dup2\n      0xffffffffffffffffffffffffffffffffffffffff\n      mul\n      not\n      and\n      swap1\n      dup4\n      0xffffffffffffffffffffffffffffffffffffffff\n      and\n      mul\n      or\n      swap1\n      sstore\n      pop\n        /* \"ichoronium-galactic-contracts/governence/ichoroniumNetworkSettings.sol\":3444:3696  function switchichoroniumNetworkPermissionsCurrent(address newSetting... */\n      pop\n      jump\t// out\n        /* \"ichoronium-galactic-contracts/governence/ichoroniumNetworkSettings.sol\":2288:2509  function gameProfitsGalacticSettingsCurrent() public view returns (address) {... */\n    tag_49:\n        /* \"ichoronium-galactic-contracts/governence/ichoroniumNetworkSettings.sol\":2355:2362  address */\n      0x00\n        /* \"ichoronium-galactic-contracts/governence/ichoroniumNetworkSettings.sol\":2375:2413  networkSettings storage networksetting */\n      dup1\n        /* \"ichoronium-galactic-contracts/governence/ichoroniumNetworkSettings.sol\":2416:2434  ichoroniumSettings */\n      0x02\n        /* \"ichoronium-galactic-contracts/governence/ichoroniumNetworkSettings.sol\":2375:2434  networkSettings storage networksetting = ichoroniumSettings */\n      swap1\n      pop\n        /* \"ichoronium-galactic-contracts/governence/ichoroniumNetworkSettings.sol\":2452:2466  networksetting */\n      dup1\n        /* \"ichoronium-galactic-contracts/governence/ichoroniumNetworkSettings.sol\":2452:2501  networksetting.gameProfitsGalacticSettingsCurrent */\n      0x07\n      add\n      0x00\n      swap1\n      sload\n      swap1\n      0x0100\n      exp\n      swap1\n      div\n      0xffffffffffffffffffffffffffffffffffffffff\n      and\n        /* \"ichoronium-galactic-contracts/governence/ichoroniumNetworkSettings.sol\":2445:2501  return networksetting.gameProfitsGalacticSettingsCurrent */\n      swap2\n      pop\n      pop\n        /* \"ichoronium-galactic-contracts/governence/ichoroniumNetworkSettings.sol\":2288:2509  function gameProfitsGalacticSettingsCurrent() public view returns (address) {... */\n      swap1\n      jump\t// out\n        /* \"ichoronium-galactic-contracts/governence/ichoroniumNetworkSettings.sol\":2957:3163  function ichoroniumReturnSettings() public view returns (networkSettings memory networkSetting) {... */\n    tag_52:\n        /* \"ichoronium-galactic-contracts/governence/ichoroniumNetworkSettings.sol\":3014:3051  networkSettings memory networkSetting */\n      tag_108\n      tag_109\n      jump\t// in\n    tag_108:\n        /* \"ichoronium-galactic-contracts/governence/ichoroniumNetworkSettings.sol\":3064:3102  networkSettings storage networksetting */\n      0x00\n        /* \"ichoronium-galactic-contracts/governence/ichoroniumNetworkSettings.sol\":3105:3123  ichoroniumSettings */\n      0x02\n        /* \"ichoronium-galactic-contracts/governence/ichoroniumNetworkSettings.sol\":3064:3123  networkSettings storage networksetting = ichoroniumSettings */\n      swap1\n      pop\n        /* \"ichoronium-galactic-contracts/governence/ichoroniumNetworkSettings.sol\":3141:3155  networksetting */\n      dup1\n        /* \"ichoronium-galactic-contracts/governence/ichoroniumNetworkSettings.sol\":3134:3155  return networksetting */\n      mload(0x40)\n      dup1\n      0x02c0\n      add\n      0x40\n      mstore\n      swap1\n      dup2\n      0x00\n      dup3\n      add\n      0x00\n      swap1\n      sload\n      swap1\n      0x0100\n      exp\n      swap1\n      div\n      0xff\n      and\n      iszero\n      iszero\n      iszero\n      iszero\n      dup2\n      mstore\n      0x20\n      add\n      0x00\n      dup3\n      add\n      0x01\n      swap1\n      sload\n      swap1\n      0x0100\n      exp\n      swap1\n      div\n      0xff\n      and\n      iszero\n      iszero\n      iszero\n      iszero\n      dup2\n      mstore\n      0x20\n      add\n      0x00\n      dup3\n      add\n      0x02\n      swap1\n      sload\n      swap1\n      0x0100\n      exp\n      swap1\n      div\n      0xff\n      and\n      iszero\n      iszero\n      iszero\n      iszero\n      dup2\n      mstore\n      0x20\n      add\n      0x00\n      dup3\n      add\n      0x03\n      swap1\n      sload\n      swap1\n      0x0100\n      exp\n      swap1\n      div\n      0xff\n      and\n      iszero\n      iszero\n      iszero\n      iszero\n      dup2\n      mstore\n      0x20\n      add\n      0x00\n      dup3\n      add\n      0x04\n      swap1\n      sload\n      swap1\n      0x0100\n      exp\n      swap1\n      div\n      0xffffffffffffffffffffffffffffffffffffffff\n      and\n      0xffffffffffffffffffffffffffffffffffffffff\n      and\n      0xffffffffffffffffffffffffffffffffffffffff\n      and\n      dup2\n      mstore\n      0x20\n      add\n      0x01\n      dup3\n      add\n      0x00\n      swap1\n      sload\n      swap1\n      0x0100\n      exp\n      swap1\n      div\n      0xffffffffffffffffffffffffffffffffffffffff\n      and\n      0xffffffffffffffffffffffffffffffffffffffff\n      and\n      0xffffffffffffffffffffffffffffffffffffffff\n      and\n      dup2\n      mstore\n      0x20\n      add\n      0x02\n      dup3\n      add\n      0x00\n      swap1\n      sload\n      swap1\n      0x0100\n      exp\n      swap1\n      div\n      0xffffffffffffffffffffffffffffffffffffffff\n      and\n      0xffffffffffffffffffffffffffffffffffffffff\n      and\n      0xffffffffffffffffffffffffffffffffffffffff\n      and\n      dup2\n      mstore\n      0x20\n      add\n      0x03\n      dup3\n      add\n      0x00\n      swap1\n      sload\n      swap1\n      0x0100\n      exp\n      swap1\n      div\n      0xffffffffffffffffffffffffffffffffffffffff\n      and\n      0xffffffffffffffffffffffffffffffffffffffff\n      and\n      0xffffffffffffffffffffffffffffffffffffffff\n      and\n      dup2\n      mstore\n      0x20\n      add\n      0x04\n      dup3\n      add\n      0x00\n      swap1\n      sload\n      swap1\n      0x0100\n      exp\n      swap1\n      div\n      0xffffffffffffffffffffffffffffffffffffffff\n      and\n      0xffffffffffffffffffffffffffffffffffffffff\n      and\n      0xffffffffffffffffffffffffffffffffffffffff\n      and\n      dup2\n      mstore\n      0x20\n      add\n      0x05\n      dup3\n      add\n      0x00\n      swap1\n      sload\n      swap1\n      0x0100\n      exp\n      swap1\n      div\n      0xffffffffffffffffffffffffffffffffffffffff\n      and\n      0xffffffffffffffffffffffffffffffffffffffff\n      and\n      0xffffffffffffffffffffffffffffffffffffffff\n      and\n      dup2\n      mstore\n      0x20\n      add\n      0x06\n      dup3\n      add\n      0x00\n      swap1\n      sload\n      swap1\n      0x0100\n      exp\n      swap1\n      div\n      0xffffffffffffffffffffffffffffffffffffffff\n      and\n      0xffffffffffffffffffffffffffffffffffffffff\n      and\n      0xffffffffffffffffffffffffffffffffffffffff\n      and\n      dup2\n      mstore\n      0x20\n      add\n      0x07\n      dup3\n      add\n      0x00\n      swap1\n      sload\n      swap1\n      0x0100\n      exp\n      swap1\n      div\n      0xffffffffffffffffffffffffffffffffffffffff\n      and\n      0xffffffffffffffffffffffffffffffffffffffff\n      and\n      0xffffffffffffffffffffffffffffffffffffffff\n      and\n      dup2\n      mstore\n      0x20\n      add\n      0x08\n      dup3\n      add\n      0x00\n      swap1\n      sload\n      swap1\n      0x0100\n      exp\n      swap1\n      div\n      0xffffffffffffffffffffffffffffffffffffffff\n      and\n      0xffffffffffffffffffffffffffffffffffffffff\n      and\n      0xffffffffffffffffffffffffffffffffffffffff\n      and\n      dup2\n      mstore\n      0x20\n      add\n      0x09\n      dup3\n      add\n      0x00\n      swap1\n      sload\n      swap1\n      0x0100\n      exp\n      swap1\n      div\n      0xffffffffffffffffffffffffffffffffffffffff\n      and\n      0xffffffffffffffffffffffffffffffffffffffff\n      and\n      0xffffffffffffffffffffffffffffffffffffffff\n      and\n      dup2\n      mstore\n      0x20\n      add\n      0x0a\n      dup3\n      add\n      0x00\n      swap1\n      sload\n      swap1\n      0x0100\n      exp\n      swap1\n      div\n      0xffffffffffffffffffffffffffffffffffffffff\n      and\n      0xffffffffffffffffffffffffffffffffffffffff\n      and\n      0xffffffffffffffffffffffffffffffffffffffff\n      and\n      dup2\n      mstore\n      0x20\n      add\n      0x0b\n      dup3\n      add\n      0x00\n      swap1\n      sload\n      swap1\n      0x0100\n      exp\n      swap1\n      div\n      0xffffffffffffffffffffffffffffffffffffffff\n      and\n      0xffffffffffffffffffffffffffffffffffffffff\n      and\n      0xffffffffffffffffffffffffffffffffffffffff\n      and\n      dup2\n      mstore\n      0x20\n      add\n      0x0c\n      dup3\n      add\n      0x00\n      swap1\n      sload\n      swap1\n      0x0100\n      exp\n      swap1\n      div\n      0xffffffffffffffffffffffffffffffffffffffff\n      and\n      0xffffffffffffffffffffffffffffffffffffffff\n      and\n      0xffffffffffffffffffffffffffffffffffffffff\n      and\n      dup2\n      mstore\n      0x20\n      add\n      0x0d\n      dup3\n      add\n      0x00\n      swap1\n      sload\n      swap1\n      0x0100\n      exp\n      swap1\n      div\n      0xffffffffffffffffffffffffffffffffffffffff\n      and\n      0xffffffffffffffffffffffffffffffffffffffff\n      and\n      0xffffffffffffffffffffffffffffffffffffffff\n      and\n      dup2\n      mstore\n      0x20\n      add\n      0x0e\n      dup3\n      add\n      0x00\n      swap1\n      sload\n      swap1\n      0x0100\n      exp\n      swap1\n      div\n      0xffffffffffffffffffffffffffffffffffffffff\n      and\n      0xffffffffffffffffffffffffffffffffffffffff\n      and\n      0xffffffffffffffffffffffffffffffffffffffff\n      and\n      dup2\n      mstore\n      0x20\n      add\n      0x0f\n      dup3\n      add\n      0x00\n      swap1\n      sload\n      swap1\n      0x0100\n      exp\n      swap1\n      div\n      0xffffffffffffffffffffffffffffffffffffffff\n      and\n      0xffffffffffffffffffffffffffffffffffffffff\n      and\n      0xffffffffffffffffffffffffffffffffffffffff\n      and\n      dup2\n      mstore\n      0x20\n      add\n      0x10\n      dup3\n      add\n      0x00\n      swap1\n      sload\n      swap1\n      0x0100\n      exp\n      swap1\n      div\n      0xffffffffffffffffffffffffffffffffffffffff\n      and\n      0xffffffffffffffffffffffffffffffffffffffff\n      and\n      0xffffffffffffffffffffffffffffffffffffffff\n      and\n      dup2\n      mstore\n      0x20\n      add\n      0x11\n      dup3\n      add\n      0x00\n      swap1\n      sload\n      swap1\n      0x0100\n      exp\n      swap1\n      div\n      0xffffffffffffffffffffffffffffffffffffffff\n      and\n      0xffffffffffffffffffffffffffffffffffffffff\n      and\n      0xffffffffffffffffffffffffffffffffffffffff\n      and\n      dup2\n      mstore\n      pop\n      pop\n      swap2\n      pop\n      pop\n        /* \"ichoronium-galactic-contracts/governence/ichoroniumNetworkSettings.sol\":2957:3163  function ichoroniumReturnSettings() public view returns (networkSettings memory networkSetting) {... */\n      swap1\n      jump\t// out\n        /* \"ichoronium-galactic-contracts/governence/ichoroniumNetworkSettings.sol\":4796:5324  function switchisNetworkActive(... */\n    tag_56:\n        /* \"ichoronium-galactic-contracts/governence/ichoroniumNetworkSettings.sol\":215:220  owner */\n      0x01\n      0x00\n      swap1\n      sload\n      swap1\n      0x0100\n      exp\n      swap1\n      div\n      0xffffffffffffffffffffffffffffffffffffffff\n      and\n        /* \"ichoronium-galactic-contracts/governence/ichoroniumNetworkSettings.sol\":201:220  msg.sender == owner */\n      0xffffffffffffffffffffffffffffffffffffffff\n      and\n        /* \"ichoronium-galactic-contracts/governence/ichoroniumNetworkSettings.sol\":201:211  msg.sender */\n      caller\n        /* \"ichoronium-galactic-contracts/governence/ichoroniumNetworkSettings.sol\":201:220  msg.sender == owner */\n      0xffffffffffffffffffffffffffffffffffffffff\n      and\n      eq\n        /* \"ichoronium-galactic-contracts/governence/ichoroniumNetworkSettings.sol\":192:221  require (msg.sender == owner) */\n      tag_112\n      jumpi\n      0x00\n      dup1\n      revert\n    tag_112:\n        /* \"ichoronium-galactic-contracts/governence/ichoroniumNetworkSettings.sol\":4964:4969  false */\n      0x00\n        /* \"ichoronium-galactic-contracts/governence/ichoroniumNetworkSettings.sol\":4926:4969  ichoroniumSettings.isNetworkActive == false */\n      iszero\n      iszero\n        /* \"ichoronium-galactic-contracts/governence/ichoroniumNetworkSettings.sol\":4926:4944  ichoroniumSettings */\n      0x02\n        /* \"ichoronium-galactic-contracts/governence/ichoroniumNetworkSettings.sol\":4926:4960  ichoroniumSettings.isNetworkActive */\n      0x00\n      add\n      0x00\n      swap1\n      sload\n      swap1\n      0x0100\n      exp\n      swap1\n      div\n      0xff\n      and\n        /* \"ichoronium-galactic-contracts/governence/ichoroniumNetworkSettings.sol\":4926:4969  ichoroniumSettings.isNetworkActive == false */\n      iszero\n      iszero\n      sub\n        /* \"ichoronium-galactic-contracts/governence/ichoroniumNetworkSettings.sol\":4922:5307  if (ichoroniumSettings.isNetworkActive == false){... */\n      tag_114\n      jumpi\n        /* \"ichoronium-galactic-contracts/governence/ichoroniumNetworkSettings.sol\":5031:5035  true */\n      0x01\n        /* \"ichoronium-galactic-contracts/governence/ichoroniumNetworkSettings.sol\":4994:5012  ichoroniumSettings */\n      0x02\n        /* \"ichoronium-galactic-contracts/governence/ichoroniumNetworkSettings.sol\":4994:5028  ichoroniumSettings.isNetworkActive */\n      0x00\n      add\n      0x00\n        /* \"ichoronium-galactic-contracts/governence/ichoroniumNetworkSettings.sol\":4994:5035  ichoroniumSettings.isNetworkActive = true */\n      0x0100\n      exp\n      dup2\n      sload\n      dup2\n      0xff\n      mul\n      not\n      and\n      swap1\n      dup4\n      iszero\n      iszero\n      mul\n      or\n      swap1\n      sstore\n      pop\n        /* \"ichoronium-galactic-contracts/governence/ichoroniumNetworkSettings.sol\":5100:5105  false */\n      0x00\n        /* \"ichoronium-galactic-contracts/governence/ichoroniumNetworkSettings.sol\":5059:5077  ichoroniumSettings */\n      0x02\n        /* \"ichoronium-galactic-contracts/governence/ichoroniumNetworkSettings.sol\":5059:5097  ichoroniumSettings.isNetworkIsDeactive */\n      0x00\n      add\n      0x02\n        /* \"ichoronium-galactic-contracts/governence/ichoroniumNetworkSettings.sol\":5059:5105  ichoroniumSettings.isNetworkIsDeactive = false */\n      0x0100\n      exp\n      dup2\n      sload\n      dup2\n      0xff\n      mul\n      not\n      and\n      swap1\n      dup4\n      iszero\n      iszero\n      mul\n      or\n      swap1\n      sstore\n      pop\n        /* \"ichoronium-galactic-contracts/governence/ichoroniumNetworkSettings.sol\":4922:5307  if (ichoroniumSettings.isNetworkActive == false){... */\n      jump(tag_115)\n    tag_114:\n        /* \"ichoronium-galactic-contracts/governence/ichoroniumNetworkSettings.sol\":5215:5219  true */\n      0x01\n        /* \"ichoronium-galactic-contracts/governence/ichoroniumNetworkSettings.sol\":5177:5219  ichoroniumSettings.isNetworkActive == true */\n      iszero\n      iszero\n        /* \"ichoronium-galactic-contracts/governence/ichoroniumNetworkSettings.sol\":5177:5195  ichoroniumSettings */\n      0x02\n        /* \"ichoronium-galactic-contracts/governence/ichoroniumNetworkSettings.sol\":5177:5211  ichoroniumSettings.isNetworkActive */\n      0x00\n      add\n      0x00\n      swap1\n      sload\n      swap1\n      0x0100\n      exp\n      swap1\n      div\n      0xff\n      and\n        /* \"ichoronium-galactic-contracts/governence/ichoroniumNetworkSettings.sol\":5177:5219  ichoroniumSettings.isNetworkActive == true */\n      iszero\n      iszero\n      sub\n        /* \"ichoronium-galactic-contracts/governence/ichoroniumNetworkSettings.sol\":5173:5307  if (ichoroniumSettings.isNetworkActive == true){... */\n      tag_116\n      jumpi\n        /* \"ichoronium-galactic-contracts/governence/ichoroniumNetworkSettings.sol\":5281:5286  false */\n      0x00\n        /* \"ichoronium-galactic-contracts/governence/ichoroniumNetworkSettings.sol\":5244:5262  ichoroniumSettings */\n      0x02\n        /* \"ichoronium-galactic-contracts/governence/ichoroniumNetworkSettings.sol\":5244:5278  ichoroniumSettings.isNetworkActive */\n      0x00\n      add\n      0x00\n        /* \"ichoronium-galactic-contracts/governence/ichoroniumNetworkSettings.sol\":5244:5286  ichoroniumSettings.isNetworkActive = false */\n      0x0100\n      exp\n      dup2\n      sload\n      dup2\n      0xff\n      mul\n      not\n      and\n      swap1\n      dup4\n      iszero\n      iszero\n      mul\n      or\n      swap1\n      sstore\n      pop\n        /* \"ichoronium-galactic-contracts/governence/ichoroniumNetworkSettings.sol\":5173:5307  if (ichoroniumSettings.isNetworkActive == true){... */\n    tag_116:\n        /* \"ichoronium-galactic-contracts/governence/ichoroniumNetworkSettings.sol\":4922:5307  if (ichoroniumSettings.isNetworkActive == false){... */\n    tag_115:\n        /* \"ichoronium-galactic-contracts/governence/ichoroniumNetworkSettings.sol\":4796:5324  function switchisNetworkActive(... */\n      jump\t// out\n        /* \"ichoronium-galactic-contracts/governence/ichoroniumNetworkSettings.sol\":3698:3973  function switchgameProfitsGalacticSettingsCurrent(address newSetting... */\n    tag_59:\n        /* \"ichoronium-galactic-contracts/governence/ichoroniumNetworkSettings.sol\":215:220  owner */\n      0x01\n      0x00\n      swap1\n      sload\n      swap1\n      0x0100\n      exp\n      swap1\n      div\n      0xffffffffffffffffffffffffffffffffffffffff\n      and\n        /* \"ichoronium-galactic-contracts/governence/ichoroniumNetworkSettings.sol\":201:220  msg.sender == owner */\n      0xffffffffffffffffffffffffffffffffffffffff\n      and\n        /* \"ichoronium-galactic-contracts/governence/ichoroniumNetworkSettings.sol\":201:211  msg.sender */\n      caller\n        /* \"ichoronium-galactic-contracts/governence/ichoroniumNetworkSettings.sol\":201:220  msg.sender == owner */\n      0xffffffffffffffffffffffffffffffffffffffff\n      and\n      eq\n        /* \"ichoronium-galactic-contracts/governence/ichoroniumNetworkSettings.sol\":192:221  require (msg.sender == owner) */\n      tag_118\n      jumpi\n      0x00\n      dup1\n      revert\n    tag_118:\n        /* \"ichoronium-galactic-contracts/governence/ichoroniumNetworkSettings.sol\":3920:3930  newSetting */\n      dup1\n        /* \"ichoronium-galactic-contracts/governence/ichoroniumNetworkSettings.sol\":3864:3882  ichoroniumSettings */\n      0x02\n        /* \"ichoronium-galactic-contracts/governence/ichoroniumNetworkSettings.sol\":3864:3917  ichoroniumSettings.gameProfitsGalacticSettingsCurrent */\n      0x07\n      add\n      0x00\n        /* \"ichoronium-galactic-contracts/governence/ichoroniumNetworkSettings.sol\":3864:3930  ichoroniumSettings.gameProfitsGalacticSettingsCurrent = newSetting */\n      0x0100\n      exp\n      dup2\n      sload\n      dup2\n      0xffffffffffffffffffffffffffffffffffffffff\n      mul\n      not\n      and\n      swap1\n      dup4\n      0xffffffffffffffffffffffffffffffffffffffff\n      and\n      mul\n      or\n      swap1\n      sstore\n      pop\n        /* \"ichoronium-galactic-contracts/governence/ichoroniumNetworkSettings.sol\":3698:3973  function switchgameProfitsGalacticSettingsCurrent(address newSetting... */\n      pop\n      jump\t// out\n        /* \"ichoronium-galactic-contracts/governence/ichoroniumNetworkSettings.sol\":1280:1474  function isNetworkIsCoolingDown() public view returns (bool) {... */\n    tag_61:\n        /* \"ichoronium-galactic-contracts/governence/ichoroniumNetworkSettings.sol\":1335:1339  bool */\n      0x00\n        /* \"ichoronium-galactic-contracts/governence/ichoroniumNetworkSettings.sol\":1352:1390  networkSettings storage networksetting */\n      dup1\n        /* \"ichoronium-galactic-contracts/governence/ichoroniumNetworkSettings.sol\":1393:1411  ichoroniumSettings */\n      0x02\n        /* \"ichoronium-galactic-contracts/governence/ichoroniumNetworkSettings.sol\":1352:1411  networkSettings storage networksetting = ichoroniumSettings */\n      swap1\n      pop\n        /* \"ichoronium-galactic-contracts/governence/ichoroniumNetworkSettings.sol\":1429:1443  networksetting */\n      dup1\n        /* \"ichoronium-galactic-contracts/governence/ichoroniumNetworkSettings.sol\":1429:1466  networksetting.isNetworkIsCoolingDown */\n      0x00\n      add\n      0x01\n      swap1\n      sload\n      swap1\n      0x0100\n      exp\n      swap1\n      div\n      0xff\n      and\n        /* \"ichoronium-galactic-contracts/governence/ichoroniumNetworkSettings.sol\":1422:1466  return networksetting.isNetworkIsCoolingDown */\n      swap2\n      pop\n      pop\n        /* \"ichoronium-galactic-contracts/governence/ichoroniumNetworkSettings.sol\":1280:1474  function isNetworkIsCoolingDown() public view returns (bool) {... */\n      swap1\n      jump\t// out\n        /* \"ichoronium-galactic-contracts/governence/ichoroniumNetworkSettings.sol\":2063:2286  function ichoroniumNetworkPermissionsCurrent() public view returns (address) {... */\n    tag_64:\n        /* \"ichoronium-galactic-contracts/governence/ichoroniumNetworkSettings.sol\":2131:2138  address */\n      0x00\n        /* \"ichoronium-galactic-contracts/governence/ichoroniumNetworkSettings.sol\":2151:2189  networkSettings storage networksetting */\n      dup1\n        /* \"ichoronium-galactic-contracts/governence/ichoroniumNetworkSettings.sol\":2192:2210  ichoroniumSettings */\n      0x02\n        /* \"ichoronium-galactic-contracts/governence/ichoroniumNetworkSettings.sol\":2151:2210  networkSettings storage networksetting = ichoroniumSettings */\n      swap1\n      pop\n        /* \"ichoronium-galactic-contracts/governence/ichoroniumNetworkSettings.sol\":2228:2242  networksetting */\n      dup1\n        /* \"ichoronium-galactic-contracts/governence/ichoroniumNetworkSettings.sol\":2228:2278  networksetting.ichoroniumNetworkPermissionsCurrent */\n      0x04\n      add\n      0x00\n      swap1\n      sload\n      swap1\n      0x0100\n      exp\n      swap1\n      div\n      0xffffffffffffffffffffffffffffffffffffffff\n      and\n        /* \"ichoronium-galactic-contracts/governence/ichoroniumNetworkSettings.sol\":2221:2278  return networksetting.ichoroniumNetworkPermissionsCurrent */\n      swap2\n      pop\n      pop\n        /* \"ichoronium-galactic-contracts/governence/ichoroniumNetworkSettings.sol\":2063:2286  function ichoroniumNetworkPermissionsCurrent() public view returns (address) {... */\n      swap1\n      jump\t// out\n        /* \"ichoronium-galactic-contracts/governence/ichoroniumNetworkSettings.sol\":5342:5984  function killswitchActivate(... */\n    tag_67:\n        /* \"ichoronium-galactic-contracts/governence/ichoroniumNetworkSettings.sol\":215:220  owner */\n      0x01\n      0x00\n      swap1\n      sload\n      swap1\n      0x0100\n      exp\n      swap1\n      div\n      0xffffffffffffffffffffffffffffffffffffffff\n      and\n        /* \"ichoronium-galactic-contracts/governence/ichoroniumNetworkSettings.sol\":201:220  msg.sender == owner */\n      0xffffffffffffffffffffffffffffffffffffffff\n      and\n        /* \"ichoronium-galactic-contracts/governence/ichoroniumNetworkSettings.sol\":201:211  msg.sender */\n      caller\n        /* \"ichoronium-galactic-contracts/governence/ichoroniumNetworkSettings.sol\":201:220  msg.sender == owner */\n      0xffffffffffffffffffffffffffffffffffffffff\n      and\n      eq\n        /* \"ichoronium-galactic-contracts/governence/ichoroniumNetworkSettings.sol\":192:221  require (msg.sender == owner) */\n      tag_123\n      jumpi\n      0x00\n      dup1\n      revert\n    tag_123:\n        /* \"ichoronium-galactic-contracts/governence/ichoroniumNetworkSettings.sol\":5502:5507  false */\n      0x00\n        /* \"ichoronium-galactic-contracts/governence/ichoroniumNetworkSettings.sol\":5469:5507  ichoroniumSettings.killswitch == false */\n      iszero\n      iszero\n        /* \"ichoronium-galactic-contracts/governence/ichoroniumNetworkSettings.sol\":5469:5487  ichoroniumSettings */\n      0x02\n        /* \"ichoronium-galactic-contracts/governence/ichoroniumNetworkSettings.sol\":5469:5498  ichoroniumSettings.killswitch */\n      0x00\n      add\n      0x03\n      swap1\n      sload\n      swap1\n      0x0100\n      exp\n      swap1\n      div\n      0xff\n      and\n        /* \"ichoronium-galactic-contracts/governence/ichoroniumNetworkSettings.sol\":5469:5507  ichoroniumSettings.killswitch == false */\n      iszero\n      iszero\n      sub\n        /* \"ichoronium-galactic-contracts/governence/ichoroniumNetworkSettings.sol\":5465:5967  if (ichoroniumSettings.killswitch == false){... */\n      tag_125\n      jumpi\n        /* \"ichoronium-galactic-contracts/governence/ichoroniumNetworkSettings.sol\":5564:5568  true */\n      0x01\n        /* \"ichoronium-galactic-contracts/governence/ichoroniumNetworkSettings.sol\":5532:5550  ichoroniumSettings */\n      0x02\n        /* \"ichoronium-galactic-contracts/governence/ichoroniumNetworkSettings.sol\":5532:5561  ichoroniumSettings.killswitch */\n      0x00\n      add\n      0x03\n        /* \"ichoronium-galactic-contracts/governence/ichoroniumNetworkSettings.sol\":5532:5568  ichoroniumSettings.killswitch = true */\n      0x0100\n      exp\n      dup2\n      sload\n      dup2\n      0xff\n      mul\n      not\n      and\n      swap1\n      dup4\n      iszero\n      iszero\n      mul\n      or\n      swap1\n      sstore\n      pop\n        /* \"ichoronium-galactic-contracts/governence/ichoroniumNetworkSettings.sol\":5465:5967  if (ichoroniumSettings.killswitch == false){... */\n      jump(tag_126)\n    tag_125:\n        /* \"ichoronium-galactic-contracts/governence/ichoroniumNetworkSettings.sol\":5673:5678  false */\n      0x00\n        /* \"ichoronium-galactic-contracts/governence/ichoroniumNetworkSettings.sol\":5640:5678  ichoroniumSettings.killswitch == false */\n      iszero\n      iszero\n        /* \"ichoronium-galactic-contracts/governence/ichoroniumNetworkSettings.sol\":5640:5658  ichoroniumSettings */\n      0x02\n        /* \"ichoronium-galactic-contracts/governence/ichoroniumNetworkSettings.sol\":5640:5669  ichoroniumSettings.killswitch */\n      0x00\n      add\n      0x03\n      swap1\n      sload\n      swap1\n      0x0100\n      exp\n      swap1\n      div\n      0xff\n      and\n        /* \"ichoronium-galactic-contracts/governence/ichoroniumNetworkSettings.sol\":5640:5678  ichoroniumSettings.killswitch == false */\n      iszero\n      iszero\n      sub\n        /* \"ichoronium-galactic-contracts/governence/ichoroniumNetworkSettings.sol\":5636:5967  if (ichoroniumSettings.killswitch == false){... */\n      tag_127\n      jumpi\n        /* \"ichoronium-galactic-contracts/governence/ichoroniumNetworkSettings.sol\":5740:5745  false */\n      0x00\n        /* \"ichoronium-galactic-contracts/governence/ichoroniumNetworkSettings.sol\":5703:5721  ichoroniumSettings */\n      0x02\n        /* \"ichoronium-galactic-contracts/governence/ichoroniumNetworkSettings.sol\":5703:5737  ichoroniumSettings.isNetworkActive */\n      0x00\n      add\n      0x00\n        /* \"ichoronium-galactic-contracts/governence/ichoroniumNetworkSettings.sol\":5703:5745  ichoroniumSettings.isNetworkActive = false */\n      0x0100\n      exp\n      dup2\n      sload\n      dup2\n      0xff\n      mul\n      not\n      and\n      swap1\n      dup4\n      iszero\n      iszero\n      mul\n      or\n      swap1\n      sstore\n      pop\n        /* \"ichoronium-galactic-contracts/governence/ichoroniumNetworkSettings.sol\":5813:5817  true */\n      0x01\n        /* \"ichoronium-galactic-contracts/governence/ichoroniumNetworkSettings.sol\":5769:5787  ichoroniumSettings */\n      0x02\n        /* \"ichoronium-galactic-contracts/governence/ichoroniumNetworkSettings.sol\":5769:5810  ichoroniumSettings.isNetworkIsCoolingDown */\n      0x00\n      add\n      0x01\n        /* \"ichoronium-galactic-contracts/governence/ichoroniumNetworkSettings.sol\":5769:5817  ichoroniumSettings.isNetworkIsCoolingDown = true */\n      0x0100\n      exp\n      dup2\n      sload\n      dup2\n      0xff\n      mul\n      not\n      and\n      swap1\n      dup4\n      iszero\n      iszero\n      mul\n      or\n      swap1\n      sstore\n      pop\n        /* \"ichoronium-galactic-contracts/governence/ichoroniumNetworkSettings.sol\":5882:5886  true */\n      0x01\n        /* \"ichoronium-galactic-contracts/governence/ichoroniumNetworkSettings.sol\":5841:5859  ichoroniumSettings */\n      0x02\n        /* \"ichoronium-galactic-contracts/governence/ichoroniumNetworkSettings.sol\":5841:5879  ichoroniumSettings.isNetworkIsDeactive */\n      0x00\n      add\n      0x02\n        /* \"ichoronium-galactic-contracts/governence/ichoroniumNetworkSettings.sol\":5841:5886  ichoroniumSettings.isNetworkIsDeactive = true */\n      0x0100\n      exp\n      dup2\n      sload\n      dup2\n      0xff\n      mul\n      not\n      and\n      swap1\n      dup4\n      iszero\n      iszero\n      mul\n      or\n      swap1\n      sstore\n      pop\n        /* \"ichoronium-galactic-contracts/governence/ichoroniumNetworkSettings.sol\":5942:5946  true */\n      0x01\n        /* \"ichoronium-galactic-contracts/governence/ichoroniumNetworkSettings.sol\":5910:5928  ichoroniumSettings */\n      0x02\n        /* \"ichoronium-galactic-contracts/governence/ichoroniumNetworkSettings.sol\":5910:5939  ichoroniumSettings.killswitch */\n      0x00\n      add\n      0x03\n        /* \"ichoronium-galactic-contracts/governence/ichoroniumNetworkSettings.sol\":5910:5946  ichoroniumSettings.killswitch = true */\n      0x0100\n      exp\n      dup2\n      sload\n      dup2\n      0xff\n      mul\n      not\n      and\n      swap1\n      dup4\n      iszero\n      iszero\n      mul\n      or\n      swap1\n      sstore\n      pop\n        /* \"ichoronium-galactic-contracts/governence/ichoroniumNetworkSettings.sol\":5636:5967  if (ichoroniumSettings.killswitch == false){... */\n    tag_127:\n        /* \"ichoronium-galactic-contracts/governence/ichoroniumNetworkSettings.sol\":5465:5967  if (ichoroniumSettings.killswitch == false){... */\n    tag_126:\n        /* \"ichoronium-galactic-contracts/governence/ichoroniumNetworkSettings.sol\":5342:5984  function killswitchActivate(... */\n      jump\t// out\n        /* \"ichoronium-galactic-contracts/governence/ichoroniumNetworkSettings.sol\":1098:1278  function isNetworkActive() public view returns (bool) {... */\n    tag_69:\n        /* \"ichoronium-galactic-contracts/governence/ichoroniumNetworkSettings.sol\":1146:1150  bool */\n      0x00\n        /* \"ichoronium-galactic-contracts/governence/ichoroniumNetworkSettings.sol\":1163:1201  networkSettings storage networksetting */\n      dup1\n        /* \"ichoronium-galactic-contracts/governence/ichoroniumNetworkSettings.sol\":1204:1222  ichoroniumSettings */\n      0x02\n        /* \"ichoronium-galactic-contracts/governence/ichoroniumNetworkSettings.sol\":1163:1222  networkSettings storage networksetting = ichoroniumSettings */\n      swap1\n      pop\n        /* \"ichoronium-galactic-contracts/governence/ichoroniumNetworkSettings.sol\":1240:1254  networksetting */\n      dup1\n        /* \"ichoronium-galactic-contracts/governence/ichoroniumNetworkSettings.sol\":1240:1270  networksetting.isNetworkActive */\n      0x00\n      add\n      0x00\n      swap1\n      sload\n      swap1\n      0x0100\n      exp\n      swap1\n      div\n      0xff\n      and\n        /* \"ichoronium-galactic-contracts/governence/ichoroniumNetworkSettings.sol\":1233:1270  return networksetting.isNetworkActive */\n      swap2\n      pop\n      pop\n        /* \"ichoronium-galactic-contracts/governence/ichoroniumNetworkSettings.sol\":1098:1278  function isNetworkActive() public view returns (bool) {... */\n      swap1\n      jump\t// out\n        /* \"ichoronium-galactic-contracts/governence/ichoroniumNetworkSettings.sol\":4527:4794  function switchichoroniumCloudSettingsCurrent(address newSetting... */\n    tag_73:\n        /* \"ichoronium-galactic-contracts/governence/ichoroniumNetworkSettings.sol\":215:220  owner */\n      0x01\n      0x00\n      swap1\n      sload\n      swap1\n      0x0100\n      exp\n      swap1\n      div\n      0xffffffffffffffffffffffffffffffffffffffff\n      and\n        /* \"ichoronium-galactic-contracts/governence/ichoroniumNetworkSettings.sol\":201:220  msg.sender == owner */\n      0xffffffffffffffffffffffffffffffffffffffff\n      and\n        /* \"ichoronium-galactic-contracts/governence/ichoroniumNetworkSettings.sol\":201:211  msg.sender */\n      caller\n        /* \"ichoronium-galactic-contracts/governence/ichoroniumNetworkSettings.sol\":201:220  msg.sender == owner */\n      0xffffffffffffffffffffffffffffffffffffffff\n      and\n      eq\n        /* \"ichoronium-galactic-contracts/governence/ichoroniumNetworkSettings.sol\":192:221  require (msg.sender == owner) */\n      tag_130\n      jumpi\n      0x00\n      dup1\n      revert\n    tag_130:\n        /* \"ichoronium-galactic-contracts/governence/ichoroniumNetworkSettings.sol\":4741:4751  newSetting */\n      dup1\n        /* \"ichoronium-galactic-contracts/governence/ichoroniumNetworkSettings.sol\":4689:4707  ichoroniumSettings */\n      0x02\n        /* \"ichoronium-galactic-contracts/governence/ichoroniumNetworkSettings.sol\":4689:4738  ichoroniumSettings.ichoroniumCloudSettingsCurrent */\n      0x10\n      add\n      0x00\n        /* \"ichoronium-galactic-contracts/governence/ichoroniumNetworkSettings.sol\":4689:4751  ichoroniumSettings.ichoroniumCloudSettingsCurrent = newSetting */\n      0x0100\n      exp\n      dup2\n      sload\n      dup2\n      0xffffffffffffffffffffffffffffffffffffffff\n      mul\n      not\n      and\n      swap1\n      dup4\n      0xffffffffffffffffffffffffffffffffffffffff\n      and\n      mul\n      or\n      swap1\n      sstore\n      pop\n        /* \"ichoronium-galactic-contracts/governence/ichoroniumNetworkSettings.sol\":4527:4794  function switchichoroniumCloudSettingsCurrent(address newSetting... */\n      pop\n      jump\t// out\n        /* \"ichoronium-galactic-contracts/governence/ichoroniumNetworkSettings.sol\":2511:2734  function ichoroniumGalacticMeteaverseCurrent() public view returns (address) {... */\n    tag_75:\n        /* \"ichoronium-galactic-contracts/governence/ichoroniumNetworkSettings.sol\":2579:2586  address */\n      0x00\n        /* \"ichoronium-galactic-contracts/governence/ichoroniumNetworkSettings.sol\":2599:2637  networkSettings storage networksetting */\n      dup1\n        /* \"ichoronium-galactic-contracts/governence/ichoroniumNetworkSettings.sol\":2640:2658  ichoroniumSettings */\n      0x02\n        /* \"ichoronium-galactic-contracts/governence/ichoroniumNetworkSettings.sol\":2599:2658  networkSettings storage networksetting = ichoroniumSettings */\n      swap1\n      pop\n        /* \"ichoronium-galactic-contracts/governence/ichoroniumNetworkSettings.sol\":2676:2690  networksetting */\n      dup1\n        /* \"ichoronium-galactic-contracts/governence/ichoroniumNetworkSettings.sol\":2676:2726  networksetting.ichoroniumGalacticMeteaverseCurrent */\n      0x0a\n      add\n      0x00\n      swap1\n      sload\n      swap1\n      0x0100\n      exp\n      swap1\n      div\n      0xffffffffffffffffffffffffffffffffffffffff\n      and\n        /* \"ichoronium-galactic-contracts/governence/ichoroniumNetworkSettings.sol\":2669:2726  return networksetting.ichoroniumGalacticMeteaverseCurrent */\n      swap2\n      pop\n      pop\n        /* \"ichoronium-galactic-contracts/governence/ichoroniumNetworkSettings.sol\":2511:2734  function ichoroniumGalacticMeteaverseCurrent() public view returns (address) {... */\n      swap1\n      jump\t// out\n        /* \"ichoronium-galactic-contracts/governence/ichoroniumNetworkSettings.sol\":3975:4252  function switchichoroniumGalacticMeteaverseCurrent(address newSetting... */\n    tag_79:\n        /* \"ichoronium-galactic-contracts/governence/ichoroniumNetworkSettings.sol\":215:220  owner */\n      0x01\n      0x00\n      swap1\n      sload\n      swap1\n      0x0100\n      exp\n      swap1\n      div\n      0xffffffffffffffffffffffffffffffffffffffff\n      and\n        /* \"ichoronium-galactic-contracts/governence/ichoroniumNetworkSettings.sol\":201:220  msg.sender == owner */\n      0xffffffffffffffffffffffffffffffffffffffff\n      and\n        /* \"ichoronium-galactic-contracts/governence/ichoroniumNetworkSettings.sol\":201:211  msg.sender */\n      caller\n        /* \"ichoronium-galactic-contracts/governence/ichoroniumNetworkSettings.sol\":201:220  msg.sender == owner */\n      0xffffffffffffffffffffffffffffffffffffffff\n      and\n      eq\n        /* \"ichoronium-galactic-contracts/governence/ichoroniumNetworkSettings.sol\":192:221  require (msg.sender == owner) */\n      tag_134\n      jumpi\n      0x00\n      dup1\n      revert\n    tag_134:\n        /* \"ichoronium-galactic-contracts/governence/ichoroniumNetworkSettings.sol\":4199:4209  newSetting */\n      dup1\n        /* \"ichoronium-galactic-contracts/governence/ichoroniumNetworkSettings.sol\":4142:4160  ichoroniumSettings */\n      0x02\n        /* \"ichoronium-galactic-contracts/governence/ichoroniumNetworkSettings.sol\":4142:4196  ichoroniumSettings.ichoroniumGalacticMeteaverseCurrent */\n      0x0a\n      add\n      0x00\n        /* \"ichoronium-galactic-contracts/governence/ichoroniumNetworkSettings.sol\":4142:4209  ichoroniumSettings.ichoroniumGalacticMeteaverseCurrent = newSetting */\n      0x0100\n      exp\n      dup2\n      sload\n      dup2\n      0xffffffffffffffffffffffffffffffffffffffff\n      mul\n      not\n      and\n      swap1\n      dup4\n      0xffffffffffffffffffffffffffffffffffffffff\n      and\n      mul\n      or\n      swap1\n      sstore\n      pop\n        /* \"ichoronium-galactic-contracts/governence/ichoroniumNetworkSettings.sol\":3975:4252  function switchichoroniumGalacticMeteaverseCurrent(address newSetting... */\n      pop\n      jump\t// out\n        /* \"ichoronium-galactic-contracts/governence/ichoroniumNetworkSettings.sol\":1840:2057  function ichoroniumNetworkProfilesCurrent() public view returns (address) {... */\n    tag_81:\n        /* \"ichoronium-galactic-contracts/governence/ichoroniumNetworkSettings.sol\":1905:1912  address */\n      0x00\n        /* \"ichoronium-galactic-contracts/governence/ichoroniumNetworkSettings.sol\":1925:1963  networkSettings storage networksetting */\n      dup1\n        /* \"ichoronium-galactic-contracts/governence/ichoroniumNetworkSettings.sol\":1966:1984  ichoroniumSettings */\n      0x02\n        /* \"ichoronium-galactic-contracts/governence/ichoroniumNetworkSettings.sol\":1925:1984  networkSettings storage networksetting = ichoroniumSettings */\n      swap1\n      pop\n        /* \"ichoronium-galactic-contracts/governence/ichoroniumNetworkSettings.sol\":2002:2016  networksetting */\n      dup1\n        /* \"ichoronium-galactic-contracts/governence/ichoroniumNetworkSettings.sol\":2002:2049  networksetting.ichoroniumNetworkProfilesCurrent */\n      0x01\n      add\n      0x00\n      swap1\n      sload\n      swap1\n      0x0100\n      exp\n      swap1\n      div\n      0xffffffffffffffffffffffffffffffffffffffff\n      and\n        /* \"ichoronium-galactic-contracts/governence/ichoroniumNetworkSettings.sol\":1995:2049  return networksetting.ichoroniumNetworkProfilesCurrent */\n      swap2\n      pop\n      pop\n        /* \"ichoronium-galactic-contracts/governence/ichoroniumNetworkSettings.sol\":1840:2057  function ichoroniumNetworkProfilesCurrent() public view returns (address) {... */\n      swap1\n      jump\t// out\n        /* \"ichoronium-galactic-contracts/governence/ichoroniumNetworkSettings.sol\":3165:3442  function switchichoroniumNetworkProfilesCurrent(address newSetting... */\n    tag_85:\n        /* \"ichoronium-galactic-contracts/governence/ichoroniumNetworkSettings.sol\":215:220  owner */\n      0x01\n      0x00\n      swap1\n      sload\n      swap1\n      0x0100\n      exp\n      swap1\n      div\n      0xffffffffffffffffffffffffffffffffffffffff\n      and\n        /* \"ichoronium-galactic-contracts/governence/ichoroniumNetworkSettings.sol\":201:220  msg.sender == owner */\n      0xffffffffffffffffffffffffffffffffffffffff\n      and\n        /* \"ichoronium-galactic-contracts/governence/ichoroniumNetworkSettings.sol\":201:211  msg.sender */\n      caller\n        /* \"ichoronium-galactic-contracts/governence/ichoroniumNetworkSettings.sol\":201:220  msg.sender == owner */\n      0xffffffffffffffffffffffffffffffffffffffff\n      and\n      eq\n        /* \"ichoronium-galactic-contracts/governence/ichoroniumNetworkSettings.sol\":192:221  require (msg.sender == owner) */\n      tag_138\n      jumpi\n      0x00\n      dup1\n      revert\n    tag_138:\n        /* \"ichoronium-galactic-contracts/governence/ichoroniumNetworkSettings.sol\":3383:3393  newSetting */\n      dup1\n        /* \"ichoronium-galactic-contracts/governence/ichoroniumNetworkSettings.sol\":3329:3347  ichoroniumSettings */\n      0x02\n        /* \"ichoronium-galactic-contracts/governence/ichoroniumNetworkSettings.sol\":3329:3380  ichoroniumSettings.ichoroniumNetworkProfilesCurrent */\n      0x01\n      add\n      0x00\n        /* \"ichoronium-galactic-contracts/governence/ichoroniumNetworkSettings.sol\":3329:3393  ichoroniumSettings.ichoroniumNetworkProfilesCurrent = newSetting */\n      0x0100\n      exp\n      dup2\n      sload\n      dup2\n      0xffffffffffffffffffffffffffffffffffffffff\n      mul\n      not\n      and\n      swap1\n      dup4\n      0xffffffffffffffffffffffffffffffffffffffff\n      and\n      mul\n      or\n      swap1\n      sstore\n      pop\n        /* \"ichoronium-galactic-contracts/governence/ichoroniumNetworkSettings.sol\":3165:3442  function switchichoroniumNetworkProfilesCurrent(address newSetting... */\n      pop\n      jump\t// out\n    tag_109:\n      mload(0x40)\n      dup1\n      0x02c0\n      add\n      0x40\n      mstore\n      dup1\n      iszero(iszero(0x00))\n      dup2\n      mstore\n      0x20\n      add\n      iszero(iszero(0x00))\n      dup2\n      mstore\n      0x20\n      add\n      iszero(iszero(0x00))\n      dup2\n      mstore\n      0x20\n      add\n      iszero(iszero(0x00))\n      dup2\n      mstore\n      0x20\n      add\n      and(0xffffffffffffffffffffffffffffffffffffffff, 0x00)\n      dup2\n      mstore\n      0x20\n      add\n      and(0xffffffffffffffffffffffffffffffffffffffff, 0x00)\n      dup2\n      mstore\n      0x20\n      add\n      and(0xffffffffffffffffffffffffffffffffffffffff, 0x00)\n      dup2\n      mstore\n      0x20\n      add\n      and(0xffffffffffffffffffffffffffffffffffffffff, 0x00)\n      dup2\n      mstore\n      0x20\n      add\n      and(0xffffffffffffffffffffffffffffffffffffffff, 0x00)\n      dup2\n      mstore\n      0x20\n      add\n      and(0xffffffffffffffffffffffffffffffffffffffff, 0x00)\n      dup2\n      mstore\n      0x20\n      add\n      and(0xffffffffffffffffffffffffffffffffffffffff, 0x00)\n      dup2\n      mstore\n      0x20\n      add\n      and(0xffffffffffffffffffffffffffffffffffffffff, 0x00)\n      dup2\n      mstore\n      0x20\n      add\n      and(0xffffffffffffffffffffffffffffffffffffffff, 0x00)\n      dup2\n      mstore\n      0x20\n      add\n      and(0xffffffffffffffffffffffffffffffffffffffff, 0x00)\n      dup2\n      mstore\n      0x20\n      add\n      and(0xffffffffffffffffffffffffffffffffffffffff, 0x00)\n      dup2\n      mstore\n      0x20\n      add\n      and(0xffffffffffffffffffffffffffffffffffffffff, 0x00)\n      dup2\n      mstore\n      0x20\n      add\n      and(0xffffffffffffffffffffffffffffffffffffffff, 0x00)\n      dup2\n      mstore\n      0x20\n      add\n      and(0xffffffffffffffffffffffffffffffffffffffff, 0x00)\n      dup2\n      mstore\n      0x20\n      add\n      and(0xffffffffffffffffffffffffffffffffffffffff, 0x00)\n      dup2\n      mstore\n      0x20\n      add\n      and(0xffffffffffffffffffffffffffffffffffffffff, 0x00)\n      dup2\n      mstore\n      0x20\n      add\n      and(0xffffffffffffffffffffffffffffffffffffffff, 0x00)\n      dup2\n      mstore\n      0x20\n      add\n      and(0xffffffffffffffffffffffffffffffffffffffff, 0x00)\n      dup2\n      mstore\n      pop\n      swap1\n      jump\t// out\n        /* \"#utility.yul\":88:205   */\n    tag_141:\n        /* \"#utility.yul\":197:198   */\n      0x00\n        /* \"#utility.yul\":194:195   */\n      dup1\n        /* \"#utility.yul\":187:199   */\n      revert\n        /* \"#utility.yul\":334:460   */\n    tag_143:\n        /* \"#utility.yul\":371:378   */\n      0x00\n        /* \"#utility.yul\":411:453   */\n      0xffffffffffffffffffffffffffffffffffffffff\n        /* \"#utility.yul\":404:409   */\n      dup3\n        /* \"#utility.yul\":400:454   */\n      and\n        /* \"#utility.yul\":389:454   */\n      swap1\n      pop\n        /* \"#utility.yul\":334:460   */\n      swap2\n      swap1\n      pop\n      jump\t// out\n        /* \"#utility.yul\":466:562   */\n    tag_144:\n        /* \"#utility.yul\":503:510   */\n      0x00\n        /* \"#utility.yul\":532:556   */\n      tag_159\n        /* \"#utility.yul\":550:555   */\n      dup3\n        /* \"#utility.yul\":532:556   */\n      tag_143\n      jump\t// in\n    tag_159:\n        /* \"#utility.yul\":521:556   */\n      swap1\n      pop\n        /* \"#utility.yul\":466:562   */\n      swap2\n      swap1\n      pop\n      jump\t// out\n        /* \"#utility.yul\":568:690   */\n    tag_145:\n        /* \"#utility.yul\":641:665   */\n      tag_161\n        /* \"#utility.yul\":659:664   */\n      dup2\n        /* \"#utility.yul\":641:665   */\n      tag_144\n      jump\t// in\n    tag_161:\n        /* \"#utility.yul\":634:639   */\n      dup2\n        /* \"#utility.yul\":631:666   */\n      eq\n        /* \"#utility.yul\":621:684   */\n      tag_162\n      jumpi\n        /* \"#utility.yul\":680:681   */\n      0x00\n        /* \"#utility.yul\":677:678   */\n      dup1\n        /* \"#utility.yul\":670:682   */\n      revert\n        /* \"#utility.yul\":621:684   */\n    tag_162:\n        /* \"#utility.yul\":568:690   */\n      pop\n      jump\t// out\n        /* \"#utility.yul\":696:835   */\n    tag_146:\n        /* \"#utility.yul\":742:747   */\n      0x00\n        /* \"#utility.yul\":780:786   */\n      dup2\n        /* \"#utility.yul\":767:787   */\n      calldataload\n        /* \"#utility.yul\":758:787   */\n      swap1\n      pop\n        /* \"#utility.yul\":796:829   */\n      tag_164\n        /* \"#utility.yul\":823:828   */\n      dup2\n        /* \"#utility.yul\":796:829   */\n      tag_145\n      jump\t// in\n    tag_164:\n        /* \"#utility.yul\":696:835   */\n      swap3\n      swap2\n      pop\n      pop\n      jump\t// out\n        /* \"#utility.yul\":841:1170   */\n    tag_30:\n        /* \"#utility.yul\":900:906   */\n      0x00\n        /* \"#utility.yul\":949:951   */\n      0x20\n        /* \"#utility.yul\":937:946   */\n      dup3\n        /* \"#utility.yul\":928:935   */\n      dup5\n        /* \"#utility.yul\":924:947   */\n      sub\n        /* \"#utility.yul\":920:952   */\n      slt\n        /* \"#utility.yul\":917:1036   */\n      iszero\n      tag_166\n      jumpi\n        /* \"#utility.yul\":955:1034   */\n      tag_167\n      tag_141\n      jump\t// in\n    tag_167:\n        /* \"#utility.yul\":917:1036   */\n    tag_166:\n        /* \"#utility.yul\":1075:1076   */\n      0x00\n        /* \"#utility.yul\":1100:1153   */\n      tag_168\n        /* \"#utility.yul\":1145:1152   */\n      dup5\n        /* \"#utility.yul\":1136:1142   */\n      dup3\n        /* \"#utility.yul\":1125:1134   */\n      dup6\n        /* \"#utility.yul\":1121:1143   */\n      add\n        /* \"#utility.yul\":1100:1153   */\n      tag_146\n      jump\t// in\n    tag_168:\n        /* \"#utility.yul\":1090:1153   */\n      swap2\n      pop\n        /* \"#utility.yul\":1046:1163   */\n      pop\n        /* \"#utility.yul\":841:1170   */\n      swap3\n      swap2\n      pop\n      pop\n      jump\t// out\n        /* \"#utility.yul\":1176:1266   */\n    tag_147:\n        /* \"#utility.yul\":1210:1217   */\n      0x00\n        /* \"#utility.yul\":1253:1258   */\n      dup2\n        /* \"#utility.yul\":1246:1259   */\n      iszero\n        /* \"#utility.yul\":1239:1260   */\n      iszero\n        /* \"#utility.yul\":1228:1260   */\n      swap1\n      pop\n        /* \"#utility.yul\":1176:1266   */\n      swap2\n      swap1\n      pop\n      jump\t// out\n        /* \"#utility.yul\":1272:1381   */\n    tag_148:\n        /* \"#utility.yul\":1353:1374   */\n      tag_171\n        /* \"#utility.yul\":1368:1373   */\n      dup2\n        /* \"#utility.yul\":1353:1374   */\n      tag_147\n      jump\t// in\n    tag_171:\n        /* \"#utility.yul\":1348:1351   */\n      dup3\n        /* \"#utility.yul\":1341:1375   */\n      mstore\n        /* \"#utility.yul\":1272:1381   */\n      pop\n      pop\n      jump\t// out\n        /* \"#utility.yul\":1387:1597   */\n    tag_35:\n        /* \"#utility.yul\":1474:1478   */\n      0x00\n        /* \"#utility.yul\":1512:1514   */\n      0x20\n        /* \"#utility.yul\":1501:1510   */\n      dup3\n        /* \"#utility.yul\":1497:1515   */\n      add\n        /* \"#utility.yul\":1489:1515   */\n      swap1\n      pop\n        /* \"#utility.yul\":1525:1590   */\n      tag_173\n        /* \"#utility.yul\":1587:1588   */\n      0x00\n        /* \"#utility.yul\":1576:1585   */\n      dup4\n        /* \"#utility.yul\":1572:1589   */\n      add\n        /* \"#utility.yul\":1563:1569   */\n      dup5\n        /* \"#utility.yul\":1525:1590   */\n      tag_148\n      jump\t// in\n    tag_173:\n        /* \"#utility.yul\":1387:1597   */\n      swap3\n      swap2\n      pop\n      pop\n      jump\t// out\n        /* \"#utility.yul\":1603:1721   */\n    tag_149:\n        /* \"#utility.yul\":1690:1714   */\n      tag_175\n        /* \"#utility.yul\":1708:1713   */\n      dup2\n        /* \"#utility.yul\":1690:1714   */\n      tag_144\n      jump\t// in\n    tag_175:\n        /* \"#utility.yul\":1685:1688   */\n      dup3\n        /* \"#utility.yul\":1678:1715   */\n      mstore\n        /* \"#utility.yul\":1603:1721   */\n      pop\n      pop\n      jump\t// out\n        /* \"#utility.yul\":1727:1949   */\n    tag_41:\n        /* \"#utility.yul\":1820:1824   */\n      0x00\n        /* \"#utility.yul\":1858:1860   */\n      0x20\n        /* \"#utility.yul\":1847:1856   */\n      dup3\n        /* \"#utility.yul\":1843:1861   */\n      add\n        /* \"#utility.yul\":1835:1861   */\n      swap1\n      pop\n        /* \"#utility.yul\":1871:1942   */\n      tag_177\n        /* \"#utility.yul\":1939:1940   */\n      0x00\n        /* \"#utility.yul\":1928:1937   */\n      dup4\n        /* \"#utility.yul\":1924:1941   */\n      add\n        /* \"#utility.yul\":1915:1921   */\n      dup5\n        /* \"#utility.yul\":1871:1942   */\n      tag_149\n      jump\t// in\n    tag_177:\n        /* \"#utility.yul\":1727:1949   */\n      swap3\n      swap2\n      pop\n      pop\n      jump\t// out\n        /* \"#utility.yul\":1955:2054   */\n    tag_150:\n        /* \"#utility.yul\":2026:2047   */\n      tag_179\n        /* \"#utility.yul\":2041:2046   */\n      dup2\n        /* \"#utility.yul\":2026:2047   */\n      tag_147\n      jump\t// in\n    tag_179:\n        /* \"#utility.yul\":2021:2024   */\n      dup3\n        /* \"#utility.yul\":2014:2048   */\n      mstore\n        /* \"#utility.yul\":1955:2054   */\n      pop\n      pop\n      jump\t// out\n        /* \"#utility.yul\":2060:2168   */\n    tag_151:\n        /* \"#utility.yul\":2137:2161   */\n      tag_181\n        /* \"#utility.yul\":2155:2160   */\n      dup2\n        /* \"#utility.yul\":2137:2161   */\n      tag_144\n      jump\t// in\n    tag_181:\n        /* \"#utility.yul\":2132:2135   */\n      dup3\n        /* \"#utility.yul\":2125:2162   */\n      mstore\n        /* \"#utility.yul\":2060:2168   */\n      pop\n      pop\n      jump\t// out\n        /* \"#utility.yul\":2282:6943   */\n    tag_152:\n        /* \"#utility.yul\":2443:2449   */\n      0x02c0\n        /* \"#utility.yul\":2438:2441   */\n      dup3\n        /* \"#utility.yul\":2434:2450   */\n      add\n        /* \"#utility.yul\":2543:2547   */\n      0x00\n        /* \"#utility.yul\":2536:2541   */\n      dup3\n        /* \"#utility.yul\":2532:2548   */\n      add\n        /* \"#utility.yul\":2526:2549   */\n      mload\n        /* \"#utility.yul\":2562:2619   */\n      tag_183\n        /* \"#utility.yul\":2613:2617   */\n      0x00\n        /* \"#utility.yul\":2608:2611   */\n      dup6\n        /* \"#utility.yul\":2604:2618   */\n      add\n        /* \"#utility.yul\":2590:2602   */\n      dup3\n        /* \"#utility.yul\":2562:2619   */\n      tag_150\n      jump\t// in\n    tag_183:\n        /* \"#utility.yul\":2460:2629   */\n      pop\n        /* \"#utility.yul\":2729:2733   */\n      0x20\n        /* \"#utility.yul\":2722:2727   */\n      dup3\n        /* \"#utility.yul\":2718:2734   */\n      add\n        /* \"#utility.yul\":2712:2735   */\n      mload\n        /* \"#utility.yul\":2748:2805   */\n      tag_184\n        /* \"#utility.yul\":2799:2803   */\n      0x20\n        /* \"#utility.yul\":2794:2797   */\n      dup6\n        /* \"#utility.yul\":2790:2804   */\n      add\n        /* \"#utility.yul\":2776:2788   */\n      dup3\n        /* \"#utility.yul\":2748:2805   */\n      tag_150\n      jump\t// in\n    tag_184:\n        /* \"#utility.yul\":2639:2815   */\n      pop\n        /* \"#utility.yul\":2912:2916   */\n      0x40\n        /* \"#utility.yul\":2905:2910   */\n      dup3\n        /* \"#utility.yul\":2901:2917   */\n      add\n        /* \"#utility.yul\":2895:2918   */\n      mload\n        /* \"#utility.yul\":2931:2988   */\n      tag_185\n        /* \"#utility.yul\":2982:2986   */\n      0x40\n        /* \"#utility.yul\":2977:2980   */\n      dup6\n        /* \"#utility.yul\":2973:2987   */\n      add\n        /* \"#utility.yul\":2959:2971   */\n      dup3\n        /* \"#utility.yul\":2931:2988   */\n      tag_150\n      jump\t// in\n    tag_185:\n        /* \"#utility.yul\":2825:2998   */\n      pop\n        /* \"#utility.yul\":3086:3090   */\n      0x60\n        /* \"#utility.yul\":3079:3084   */\n      dup3\n        /* \"#utility.yul\":3075:3091   */\n      add\n        /* \"#utility.yul\":3069:3092   */\n      mload\n        /* \"#utility.yul\":3105:3162   */\n      tag_186\n        /* \"#utility.yul\":3156:3160   */\n      0x60\n        /* \"#utility.yul\":3151:3154   */\n      dup6\n        /* \"#utility.yul\":3147:3161   */\n      add\n        /* \"#utility.yul\":3133:3145   */\n      dup3\n        /* \"#utility.yul\":3105:3162   */\n      tag_150\n      jump\t// in\n    tag_186:\n        /* \"#utility.yul\":3008:3172   */\n      pop\n        /* \"#utility.yul\":3283:3287   */\n      0x80\n        /* \"#utility.yul\":3276:3281   */\n      dup3\n        /* \"#utility.yul\":3272:3288   */\n      add\n        /* \"#utility.yul\":3266:3289   */\n      mload\n        /* \"#utility.yul\":3302:3365   */\n      tag_187\n        /* \"#utility.yul\":3359:3363   */\n      0x80\n        /* \"#utility.yul\":3354:3357   */\n      dup6\n        /* \"#utility.yul\":3350:3364   */\n      add\n        /* \"#utility.yul\":3336:3348   */\n      dup3\n        /* \"#utility.yul\":3302:3365   */\n      tag_151\n      jump\t// in\n    tag_187:\n        /* \"#utility.yul\":3182:3375   */\n      pop\n        /* \"#utility.yul\":3485:3489   */\n      0xa0\n        /* \"#utility.yul\":3478:3483   */\n      dup3\n        /* \"#utility.yul\":3474:3490   */\n      add\n        /* \"#utility.yul\":3468:3491   */\n      mload\n        /* \"#utility.yul\":3504:3567   */\n      tag_188\n        /* \"#utility.yul\":3561:3565   */\n      0xa0\n        /* \"#utility.yul\":3556:3559   */\n      dup6\n        /* \"#utility.yul\":3552:3566   */\n      add\n        /* \"#utility.yul\":3538:3550   */\n      dup3\n        /* \"#utility.yul\":3504:3567   */\n      tag_151\n      jump\t// in\n    tag_188:\n        /* \"#utility.yul\":3385:3577   */\n      pop\n        /* \"#utility.yul\":3695:3699   */\n      0xc0\n        /* \"#utility.yul\":3688:3693   */\n      dup3\n        /* \"#utility.yul\":3684:3700   */\n      add\n        /* \"#utility.yul\":3678:3701   */\n      mload\n        /* \"#utility.yul\":3714:3777   */\n      tag_189\n        /* \"#utility.yul\":3771:3775   */\n      0xc0\n        /* \"#utility.yul\":3766:3769   */\n      dup6\n        /* \"#utility.yul\":3762:3776   */\n      add\n        /* \"#utility.yul\":3748:3760   */\n      dup3\n        /* \"#utility.yul\":3714:3777   */\n      tag_151\n      jump\t// in\n    tag_189:\n        /* \"#utility.yul\":3587:3787   */\n      pop\n        /* \"#utility.yul\":3901:3905   */\n      0xe0\n        /* \"#utility.yul\":3894:3899   */\n      dup3\n        /* \"#utility.yul\":3890:3906   */\n      add\n        /* \"#utility.yul\":3884:3907   */\n      mload\n        /* \"#utility.yul\":3920:3983   */\n      tag_190\n        /* \"#utility.yul\":3977:3981   */\n      0xe0\n        /* \"#utility.yul\":3972:3975   */\n      dup6\n        /* \"#utility.yul\":3968:3982   */\n      add\n        /* \"#utility.yul\":3954:3966   */\n      dup3\n        /* \"#utility.yul\":3920:3983   */\n      tag_151\n      jump\t// in\n    tag_190:\n        /* \"#utility.yul\":3797:3993   */\n      pop\n        /* \"#utility.yul\":4106:4112   */\n      0x0100\n        /* \"#utility.yul\":4099:4104   */\n      dup3\n        /* \"#utility.yul\":4095:4113   */\n      add\n        /* \"#utility.yul\":4089:4114   */\n      mload\n        /* \"#utility.yul\":4127:4192   */\n      tag_191\n        /* \"#utility.yul\":4184:4190   */\n      0x0100\n        /* \"#utility.yul\":4179:4182   */\n      dup6\n        /* \"#utility.yul\":4175:4191   */\n      add\n        /* \"#utility.yul\":4161:4173   */\n      dup3\n        /* \"#utility.yul\":4127:4192   */\n      tag_151\n      jump\t// in\n    tag_191:\n        /* \"#utility.yul\":4003:4202   */\n      pop\n        /* \"#utility.yul\":4323:4329   */\n      0x0120\n        /* \"#utility.yul\":4316:4321   */\n      dup3\n        /* \"#utility.yul\":4312:4330   */\n      add\n        /* \"#utility.yul\":4306:4331   */\n      mload\n        /* \"#utility.yul\":4344:4409   */\n      tag_192\n        /* \"#utility.yul\":4401:4407   */\n      0x0120\n        /* \"#utility.yul\":4396:4399   */\n      dup6\n        /* \"#utility.yul\":4392:4408   */\n      add\n        /* \"#utility.yul\":4378:4390   */\n      dup3\n        /* \"#utility.yul\":4344:4409   */\n      tag_151\n      jump\t// in\n    tag_192:\n        /* \"#utility.yul\":4212:4419   */\n      pop\n        /* \"#utility.yul\":4532:4538   */\n      0x0140\n        /* \"#utility.yul\":4525:4530   */\n      dup3\n        /* \"#utility.yul\":4521:4539   */\n      add\n        /* \"#utility.yul\":4515:4540   */\n      mload\n        /* \"#utility.yul\":4553:4618   */\n      tag_193\n        /* \"#utility.yul\":4610:4616   */\n      0x0140\n        /* \"#utility.yul\":4605:4608   */\n      dup6\n        /* \"#utility.yul\":4601:4617   */\n      add\n        /* \"#utility.yul\":4587:4599   */\n      dup3\n        /* \"#utility.yul\":4553:4618   */\n      tag_151\n      jump\t// in\n    tag_193:\n        /* \"#utility.yul\":4429:4628   */\n      pop\n        /* \"#utility.yul\":4740:4746   */\n      0x0160\n        /* \"#utility.yul\":4733:4738   */\n      dup3\n        /* \"#utility.yul\":4729:4747   */\n      add\n        /* \"#utility.yul\":4723:4748   */\n      mload\n        /* \"#utility.yul\":4761:4826   */\n      tag_194\n        /* \"#utility.yul\":4818:4824   */\n      0x0160\n        /* \"#utility.yul\":4813:4816   */\n      dup6\n        /* \"#utility.yul\":4809:4825   */\n      add\n        /* \"#utility.yul\":4795:4807   */\n      dup3\n        /* \"#utility.yul\":4761:4826   */\n      tag_151\n      jump\t// in\n    tag_194:\n        /* \"#utility.yul\":4638:4836   */\n      pop\n        /* \"#utility.yul\":4956:4962   */\n      0x0180\n        /* \"#utility.yul\":4949:4954   */\n      dup3\n        /* \"#utility.yul\":4945:4963   */\n      add\n        /* \"#utility.yul\":4939:4964   */\n      mload\n        /* \"#utility.yul\":4977:5042   */\n      tag_195\n        /* \"#utility.yul\":5034:5040   */\n      0x0180\n        /* \"#utility.yul\":5029:5032   */\n      dup6\n        /* \"#utility.yul\":5025:5041   */\n      add\n        /* \"#utility.yul\":5011:5023   */\n      dup3\n        /* \"#utility.yul\":4977:5042   */\n      tag_151\n      jump\t// in\n    tag_195:\n        /* \"#utility.yul\":4846:5052   */\n      pop\n        /* \"#utility.yul\":5166:5172   */\n      0x01a0\n        /* \"#utility.yul\":5159:5164   */\n      dup3\n        /* \"#utility.yul\":5155:5173   */\n      add\n        /* \"#utility.yul\":5149:5174   */\n      mload\n        /* \"#utility.yul\":5187:5252   */\n      tag_196\n        /* \"#utility.yul\":5244:5250   */\n      0x01a0\n        /* \"#utility.yul\":5239:5242   */\n      dup6\n        /* \"#utility.yul\":5235:5251   */\n      add\n        /* \"#utility.yul\":5221:5233   */\n      dup3\n        /* \"#utility.yul\":5187:5252   */\n      tag_151\n      jump\t// in\n    tag_196:\n        /* \"#utility.yul\":5062:5262   */\n      pop\n        /* \"#utility.yul\":5375:5381   */\n      0x01c0\n        /* \"#utility.yul\":5368:5373   */\n      dup3\n        /* \"#utility.yul\":5364:5382   */\n      add\n        /* \"#utility.yul\":5358:5383   */\n      mload\n        /* \"#utility.yul\":5396:5461   */\n      tag_197\n        /* \"#utility.yul\":5453:5459   */\n      0x01c0\n        /* \"#utility.yul\":5448:5451   */\n      dup6\n        /* \"#utility.yul\":5444:5460   */\n      add\n        /* \"#utility.yul\":5430:5442   */\n      dup3\n        /* \"#utility.yul\":5396:5461   */\n      tag_151\n      jump\t// in\n    tag_197:\n        /* \"#utility.yul\":5272:5471   */\n      pop\n        /* \"#utility.yul\":5592:5598   */\n      0x01e0\n        /* \"#utility.yul\":5585:5590   */\n      dup3\n        /* \"#utility.yul\":5581:5599   */\n      add\n        /* \"#utility.yul\":5575:5600   */\n      mload\n        /* \"#utility.yul\":5613:5678   */\n      tag_198\n        /* \"#utility.yul\":5670:5676   */\n      0x01e0\n        /* \"#utility.yul\":5665:5668   */\n      dup6\n        /* \"#utility.yul\":5661:5677   */\n      add\n        /* \"#utility.yul\":5647:5659   */\n      dup3\n        /* \"#utility.yul\":5613:5678   */\n      tag_151\n      jump\t// in\n    tag_198:\n        /* \"#utility.yul\":5481:5688   */\n      pop\n        /* \"#utility.yul\":5799:5805   */\n      0x0200\n        /* \"#utility.yul\":5792:5797   */\n      dup3\n        /* \"#utility.yul\":5788:5806   */\n      add\n        /* \"#utility.yul\":5782:5807   */\n      mload\n        /* \"#utility.yul\":5820:5885   */\n      tag_199\n        /* \"#utility.yul\":5877:5883   */\n      0x0200\n        /* \"#utility.yul\":5872:5875   */\n      dup6\n        /* \"#utility.yul\":5868:5884   */\n      add\n        /* \"#utility.yul\":5854:5866   */\n      dup3\n        /* \"#utility.yul\":5820:5885   */\n      tag_151\n      jump\t// in\n    tag_199:\n        /* \"#utility.yul\":5698:5895   */\n      pop\n        /* \"#utility.yul\":6005:6011   */\n      0x0220\n        /* \"#utility.yul\":5998:6003   */\n      dup3\n        /* \"#utility.yul\":5994:6012   */\n      add\n        /* \"#utility.yul\":5988:6013   */\n      mload\n        /* \"#utility.yul\":6026:6091   */\n      tag_200\n        /* \"#utility.yul\":6083:6089   */\n      0x0220\n        /* \"#utility.yul\":6078:6081   */\n      dup6\n        /* \"#utility.yul\":6074:6090   */\n      add\n        /* \"#utility.yul\":6060:6072   */\n      dup3\n        /* \"#utility.yul\":6026:6091   */\n      tag_151\n      jump\t// in\n    tag_200:\n        /* \"#utility.yul\":5905:6101   */\n      pop\n        /* \"#utility.yul\":6219:6225   */\n      0x0240\n        /* \"#utility.yul\":6212:6217   */\n      dup3\n        /* \"#utility.yul\":6208:6226   */\n      add\n        /* \"#utility.yul\":6202:6227   */\n      mload\n        /* \"#utility.yul\":6240:6305   */\n      tag_201\n        /* \"#utility.yul\":6297:6303   */\n      0x0240\n        /* \"#utility.yul\":6292:6295   */\n      dup6\n        /* \"#utility.yul\":6288:6304   */\n      add\n        /* \"#utility.yul\":6274:6286   */\n      dup3\n        /* \"#utility.yul\":6240:6305   */\n      tag_151\n      jump\t// in\n    tag_201:\n        /* \"#utility.yul\":6111:6315   */\n      pop\n        /* \"#utility.yul\":6424:6430   */\n      0x0260\n        /* \"#utility.yul\":6417:6422   */\n      dup3\n        /* \"#utility.yul\":6413:6431   */\n      add\n        /* \"#utility.yul\":6407:6432   */\n      mload\n        /* \"#utility.yul\":6445:6510   */\n      tag_202\n        /* \"#utility.yul\":6502:6508   */\n      0x0260\n        /* \"#utility.yul\":6497:6500   */\n      dup6\n        /* \"#utility.yul\":6493:6509   */\n      add\n        /* \"#utility.yul\":6479:6491   */\n      dup3\n        /* \"#utility.yul\":6445:6510   */\n      tag_151\n      jump\t// in\n    tag_202:\n        /* \"#utility.yul\":6325:6520   */\n      pop\n        /* \"#utility.yul\":6628:6634   */\n      0x0280\n        /* \"#utility.yul\":6621:6626   */\n      dup3\n        /* \"#utility.yul\":6617:6635   */\n      add\n        /* \"#utility.yul\":6611:6636   */\n      mload\n        /* \"#utility.yul\":6649:6714   */\n      tag_203\n        /* \"#utility.yul\":6706:6712   */\n      0x0280\n        /* \"#utility.yul\":6701:6704   */\n      dup6\n        /* \"#utility.yul\":6697:6713   */\n      add\n        /* \"#utility.yul\":6683:6695   */\n      dup3\n        /* \"#utility.yul\":6649:6714   */\n      tag_151\n      jump\t// in\n    tag_203:\n        /* \"#utility.yul\":6530:6724   */\n      pop\n        /* \"#utility.yul\":6840:6846   */\n      0x02a0\n        /* \"#utility.yul\":6833:6838   */\n      dup3\n        /* \"#utility.yul\":6829:6847   */\n      add\n        /* \"#utility.yul\":6823:6848   */\n      mload\n        /* \"#utility.yul\":6861:6926   */\n      tag_204\n        /* \"#utility.yul\":6918:6924   */\n      0x02a0\n        /* \"#utility.yul\":6913:6916   */\n      dup6\n        /* \"#utility.yul\":6909:6925   */\n      add\n        /* \"#utility.yul\":6895:6907   */\n      dup3\n        /* \"#utility.yul\":6861:6926   */\n      tag_151\n      jump\t// in\n    tag_204:\n        /* \"#utility.yul\":6734:6936   */\n      pop\n        /* \"#utility.yul\":2412:6943   */\n      pop\n        /* \"#utility.yul\":2282:6943   */\n      pop\n      pop\n      jump\t// out\n        /* \"#utility.yul\":6949:7300   */\n    tag_54:\n        /* \"#utility.yul\":7106:7110   */\n      0x00\n        /* \"#utility.yul\":7144:7147   */\n      0x02c0\n        /* \"#utility.yul\":7133:7142   */\n      dup3\n        /* \"#utility.yul\":7129:7148   */\n      add\n        /* \"#utility.yul\":7121:7148   */\n      swap1\n      pop\n        /* \"#utility.yul\":7158:7293   */\n      tag_206\n        /* \"#utility.yul\":7290:7291   */\n      0x00\n        /* \"#utility.yul\":7279:7288   */\n      dup4\n        /* \"#utility.yul\":7275:7292   */\n      add\n        /* \"#utility.yul\":7266:7272   */\n      dup5\n        /* \"#utility.yul\":7158:7293   */\n      tag_152\n      jump\t// in\n    tag_206:\n        /* \"#utility.yul\":6949:7300   */\n      swap3\n      swap2\n      pop\n      pop\n      jump\t// out\n\n    auxdata: 0xa264697066735822122054d85fcc7fdd2ad441cbc52c6e7dda25e5eda5acc6961a978911fb16313474e764736f6c63430008100033\n}\n",
				"bytecode": {
					"linkReferences": {},
					"object": "6080604052604051806102c00160405280600015158152602001600015158152602001600115158152602001600015158152602001600073ffffffffffffffffffffffffffffffffffffffff168152602001600073ffffffffffffffffffffffffffffffffffffffff168152602001600073ffffffffffffffffffffffffffffffffffffffff168152602001600073ffffffffffffffffffffffffffffffffffffffff168152602001600073ffffffffffffffffffffffffffffffffffffffff168152602001600073ffffffffffffffffffffffffffffffffffffffff168152602001600073ffffffffffffffffffffffffffffffffffffffff168152602001600073ffffffffffffffffffffffffffffffffffffffff168152602001600073ffffffffffffffffffffffffffffffffffffffff168152602001600073ffffffffffffffffffffffffffffffffffffffff168152602001600073ffffffffffffffffffffffffffffffffffffffff168152602001600073ffffffffffffffffffffffffffffffffffffffff168152602001600073ffffffffffffffffffffffffffffffffffffffff168152602001600073ffffffffffffffffffffffffffffffffffffffff168152602001600073ffffffffffffffffffffffffffffffffffffffff168152602001600073ffffffffffffffffffffffffffffffffffffffff168152602001600073ffffffffffffffffffffffffffffffffffffffff168152602001600073ffffffffffffffffffffffffffffffffffffffff16815250600260008201518160000160006101000a81548160ff02191690831515021790555060208201518160000160016101000a81548160ff02191690831515021790555060408201518160000160026101000a81548160ff02191690831515021790555060608201518160000160036101000a81548160ff02191690831515021790555060808201518160000160046101000a81548173ffffffffffffffffffffffffffffffffffffffff021916908373ffffffffffffffffffffffffffffffffffffffff16021790555060a08201518160010160006101000a81548173ffffffffffffffffffffffffffffffffffffffff021916908373ffffffffffffffffffffffffffffffffffffffff16021790555060c08201518160020160006101000a81548173ffffffffffffffffffffffffffffffffffffffff021916908373ffffffffffffffffffffffffffffffffffffffff16021790555060e08201518160030160006101000a81548173ffffffffffffffffffffffffffffffffffffffff021916908373ffffffffffffffffffffffffffffffffffffffff1602179055506101008201518160040160006101000a81548173ffffffffffffffffffffffffffffffffffffffff021916908373ffffffffffffffffffffffffffffffffffffffff1602179055506101208201518160050160006101000a81548173ffffffffffffffffffffffffffffffffffffffff021916908373ffffffffffffffffffffffffffffffffffffffff1602179055506101408201518160060160006101000a81548173ffffffffffffffffffffffffffffffffffffffff021916908373ffffffffffffffffffffffffffffffffffffffff1602179055506101608201518160070160006101000a81548173ffffffffffffffffffffffffffffffffffffffff021916908373ffffffffffffffffffffffffffffffffffffffff1602179055506101808201518160080160006101000a81548173ffffffffffffffffffffffffffffffffffffffff021916908373ffffffffffffffffffffffffffffffffffffffff1602179055506101a08201518160090160006101000a81548173ffffffffffffffffffffffffffffffffffffffff021916908373ffffffffffffffffffffffffffffffffffffffff1602179055506101c082015181600a0160006101000a81548173ffffffffffffffffffffffffffffffffffffffff021916908373ffffffffffffffffffffffffffffffffffffffff1602179055506101e082015181600b0160006101000a81548173ffffffffffffffffffffffffffffffffffffffff021916908373ffffffffffffffffffffffffffffffffffffffff16021790555061020082015181600c0160006101000a81548173ffffffffffffffffffffffffffffffffffffffff021916908373ffffffffffffffffffffffffffffffffffffffff16021790555061022082015181600d0160006101000a81548173ffffffffffffffffffffffffffffffffffffffff021916908373ffffffffffffffffffffffffffffffffffffffff16021790555061024082015181600e0160006101000a81548173ffffffffffffffffffffffffffffffffffffffff021916908373ffffffffffffffffffffffffffffffffffffffff16021790555061026082015181600f0160006101000a81548173ffffffffffffffffffffffffffffffffffffffff021916908373ffffffffffffffffffffffffffffffffffffffff1602179055506102808201518160100160006101000a81548173ffffffffffffffffffffffffffffffffffffffff021916908373ffffffffffffffffffffffffffffffffffffffff1602179055506102a08201518160110160006101000a81548173ffffffffffffffffffffffffffffffffffffffff021916908373ffffffffffffffffffffffffffffffffffffffff16021790555050503480156107d857600080fd5b504260008190555033600160006101000a81548173ffffffffffffffffffffffffffffffffffffffff021916908373ffffffffffffffffffffffffffffffffffffffff160217905550611849806108306000396000f3fe608060405234801561001057600080fd5b506004361061012c5760003560e01c80638c920bd3116100ad578063b484099311610071578063b48409931461029d578063bfed3cf2146102b9578063d468fdf4146102d7578063e6a52e8a146102f3578063f23e9c3b146103115761012c565b80638c920bd31461021d5780638df575801461023957806396d54ebe14610257578063ae35cfa214610275578063b343c4381461027f5761012c565b806364aa0754116100f457806364aa07541461019d5780636bc5b0c4146101bb5780636ef6346f146101d75780637f0b2e7d146101f557806385ff6e63146102135761012c565b806312902cd8146101315780633d3e83211461013b57806342dd96f71461015757806345769e25146101755780635d0d38161461017f575b600080fd5b61013961032d565b005b61015560048036038101906101509190611584565b610408565b005b61015f6104a9565b60405161016c91906115cc565b60405180910390f35b61017d6104c8565b005b6101876105a3565b60405161019491906115f6565b60405180910390f35b6101a56105d5565b6040516101b291906115cc565b60405180910390f35b6101d560048036038101906101d09190611584565b6105f4565b005b6101df610695565b6040516101ec91906115f6565b60405180910390f35b6101fd6106c7565b60405161020a91906117f7565b60405180910390f35b61021b610d60565b005b61023760048036038101906102329190611584565b610e59565b005b610241610efa565b60405161024e91906115cc565b60405180910390f35b61025f610f19565b60405161026c91906115f6565b60405180910390f35b61027d610f4b565b005b610287611080565b60405161029491906115cc565b60405180910390f35b6102b760048036038101906102b29190611584565b61109f565b005b6102c1611140565b6040516102ce91906115f6565b60405180910390f35b6102f160048036038101906102ec9190611584565b611172565b005b6102fb611213565b60405161030891906115f6565b60405180910390f35b61032b60048036038101906103269190611584565b611245565b005b600160009054906101000a900473ffffffffffffffffffffffffffffffffffffffff1673ffffffffffffffffffffffffffffffffffffffff163373ffffffffffffffffffffffffffffffffffffffff161461038757600080fd5b60001515600260000160029054906101000a900460ff161515036103c8576001600260000160026101000a81548160ff021916908315150217905550610406565b60011515600260000160029054906101000a900460ff16151503610405576000600260000160026101000a81548160ff0219169083151502179055505b5b565b600160009054906101000a900473ffffffffffffffffffffffffffffffffffffffff1673ffffffffffffffffffffffffffffffffffffffff163373ffffffffffffffffffffffffffffffffffffffff161461046257600080fd5b806002600d0160006101000a81548173ffffffffffffffffffffffffffffffffffffffff021916908373ffffffffffffffffffffffffffffffffffffffff16021790555050565b600080600290508060000160039054906101000a900460ff1691505090565b600160009054906101000a900473ffffffffffffffffffffffffffffffffffffffff1673ffffffffffffffffffffffffffffffffffffffff163373ffffffffffffffffffffffffffffffffffffffff161461052257600080fd5b60001515600260000160019054906101000a900460ff16151503610563576001600260000160016101000a81548160ff0219169083151502179055506105a1565b60011515600260000160019054906101000a900460ff161515036105a0576000600260000160016101000a81548160ff0219169083151502179055505b5b565b6000806002905080600d0160009054906101000a900473ffffffffffffffffffffffffffffffffffffffff1691505090565b600080600290508060000160029054906101000a900460ff1691505090565b600160009054906101000a900473ffffffffffffffffffffffffffffffffffffffff1673ffffffffffffffffffffffffffffffffffffffff163373ffffffffffffffffffffffffffffffffffffffff161461064e57600080fd5b80600260040160006101000a81548173ffffffffffffffffffffffffffffffffffffffff021916908373ffffffffffffffffffffffffffffffffffffffff16021790555050565b600080600290508060070160009054906101000a900473ffffffffffffffffffffffffffffffffffffffff1691505090565b6106cf6112e6565b60006002905080604051806102c00160405290816000820160009054906101000a900460ff161515151581526020016000820160019054906101000a900460ff161515151581526020016000820160029054906101000a900460ff161515151581526020016000820160039054906101000a900460ff161515151581526020016000820160049054906101000a900473ffffffffffffffffffffffffffffffffffffffff1673ffffffffffffffffffffffffffffffffffffffff1673ffffffffffffffffffffffffffffffffffffffff1681526020016001820160009054906101000a900473ffffffffffffffffffffffffffffffffffffffff1673ffffffffffffffffffffffffffffffffffffffff1673ffffffffffffffffffffffffffffffffffffffff1681526020016002820160009054906101000a900473ffffffffffffffffffffffffffffffffffffffff1673ffffffffffffffffffffffffffffffffffffffff1673ffffffffffffffffffffffffffffffffffffffff1681526020016003820160009054906101000a900473ffffffffffffffffffffffffffffffffffffffff1673ffffffffffffffffffffffffffffffffffffffff1673ffffffffffffffffffffffffffffffffffffffff1681526020016004820160009054906101000a900473ffffffffffffffffffffffffffffffffffffffff1673ffffffffffffffffffffffffffffffffffffffff1673ffffffffffffffffffffffffffffffffffffffff1681526020016005820160009054906101000a900473ffffffffffffffffffffffffffffffffffffffff1673ffffffffffffffffffffffffffffffffffffffff1673ffffffffffffffffffffffffffffffffffffffff1681526020016006820160009054906101000a900473ffffffffffffffffffffffffffffffffffffffff1673ffffffffffffffffffffffffffffffffffffffff1673ffffffffffffffffffffffffffffffffffffffff1681526020016007820160009054906101000a900473ffffffffffffffffffffffffffffffffffffffff1673ffffffffffffffffffffffffffffffffffffffff1673ffffffffffffffffffffffffffffffffffffffff1681526020016008820160009054906101000a900473ffffffffffffffffffffffffffffffffffffffff1673ffffffffffffffffffffffffffffffffffffffff1673ffffffffffffffffffffffffffffffffffffffff1681526020016009820160009054906101000a900473ffffffffffffffffffffffffffffffffffffffff1673ffffffffffffffffffffffffffffffffffffffff1673ffffffffffffffffffffffffffffffffffffffff168152602001600a820160009054906101000a900473ffffffffffffffffffffffffffffffffffffffff1673ffffffffffffffffffffffffffffffffffffffff1673ffffffffffffffffffffffffffffffffffffffff168152602001600b820160009054906101000a900473ffffffffffffffffffffffffffffffffffffffff1673ffffffffffffffffffffffffffffffffffffffff1673ffffffffffffffffffffffffffffffffffffffff168152602001600c820160009054906101000a900473ffffffffffffffffffffffffffffffffffffffff1673ffffffffffffffffffffffffffffffffffffffff1673ffffffffffffffffffffffffffffffffffffffff168152602001600d820160009054906101000a900473ffffffffffffffffffffffffffffffffffffffff1673ffffffffffffffffffffffffffffffffffffffff1673ffffffffffffffffffffffffffffffffffffffff168152602001600e820160009054906101000a900473ffffffffffffffffffffffffffffffffffffffff1673ffffffffffffffffffffffffffffffffffffffff1673ffffffffffffffffffffffffffffffffffffffff168152602001600f820160009054906101000a900473ffffffffffffffffffffffffffffffffffffffff1673ffffffffffffffffffffffffffffffffffffffff1673ffffffffffffffffffffffffffffffffffffffff1681526020016010820160009054906101000a900473ffffffffffffffffffffffffffffffffffffffff1673ffffffffffffffffffffffffffffffffffffffff1673ffffffffffffffffffffffffffffffffffffffff1681526020016011820160009054906101000a900473ffffffffffffffffffffffffffffffffffffffff1673ffffffffffffffffffffffffffffffffffffffff1673ffffffffffffffffffffffffffffffffffffffff168152505091505090565b600160009054906101000a900473ffffffffffffffffffffffffffffffffffffffff1673ffffffffffffffffffffffffffffffffffffffff163373ffffffffffffffffffffffffffffffffffffffff1614610dba57600080fd5b60001515600260000160009054906101000a900460ff16151503610e19576001600260000160006101000a81548160ff0219169083151502179055506000600260000160026101000a81548160ff021916908315150217905550610e57565b60011515600260000160009054906101000a900460ff16151503610e56576000600260000160006101000a81548160ff0219169083151502179055505b5b565b600160009054906101000a900473ffffffffffffffffffffffffffffffffffffffff1673ffffffffffffffffffffffffffffffffffffffff163373ffffffffffffffffffffffffffffffffffffffff1614610eb357600080fd5b80600260070160006101000a81548173ffffffffffffffffffffffffffffffffffffffff021916908373ffffffffffffffffffffffffffffffffffffffff16021790555050565b600080600290508060000160019054906101000a900460ff1691505090565b600080600290508060040160009054906101000a900473ffffffffffffffffffffffffffffffffffffffff1691505090565b600160009054906101000a900473ffffffffffffffffffffffffffffffffffffffff1673ffffffffffffffffffffffffffffffffffffffff163373ffffffffffffffffffffffffffffffffffffffff1614610fa557600080fd5b60001515600260000160039054906101000a900460ff16151503610fe6576001600260000160036101000a81548160ff02191690831515021790555061107e565b60001515600260000160039054906101000a900460ff1615150361107d576000600260000160006101000a81548160ff0219169083151502179055506001600260000160016101000a81548160ff0219169083151502179055506001600260000160026101000a81548160ff0219169083151502179055506001600260000160036101000a81548160ff0219169083151502179055505b5b565b600080600290508060000160009054906101000a900460ff1691505090565b600160009054906101000a900473ffffffffffffffffffffffffffffffffffffffff1673ffffffffffffffffffffffffffffffffffffffff163373ffffffffffffffffffffffffffffffffffffffff16146110f957600080fd5b80600260100160006101000a81548173ffffffffffffffffffffffffffffffffffffffff021916908373ffffffffffffffffffffffffffffffffffffffff16021790555050565b6000806002905080600a0160009054906101000a900473ffffffffffffffffffffffffffffffffffffffff1691505090565b600160009054906101000a900473ffffffffffffffffffffffffffffffffffffffff1673ffffffffffffffffffffffffffffffffffffffff163373ffffffffffffffffffffffffffffffffffffffff16146111cc57600080fd5b806002600a0160006101000a81548173ffffffffffffffffffffffffffffffffffffffff021916908373ffffffffffffffffffffffffffffffffffffffff16021790555050565b600080600290508060010160009054906101000a900473ffffffffffffffffffffffffffffffffffffffff1691505090565b600160009054906101000a900473ffffffffffffffffffffffffffffffffffffffff1673ffffffffffffffffffffffffffffffffffffffff163373ffffffffffffffffffffffffffffffffffffffff161461129f57600080fd5b80600260010160006101000a81548173ffffffffffffffffffffffffffffffffffffffff021916908373ffffffffffffffffffffffffffffffffffffffff16021790555050565b604051806102c00160405280600015158152602001600015158152602001600015158152602001600015158152602001600073ffffffffffffffffffffffffffffffffffffffff168152602001600073ffffffffffffffffffffffffffffffffffffffff168152602001600073ffffffffffffffffffffffffffffffffffffffff168152602001600073ffffffffffffffffffffffffffffffffffffffff168152602001600073ffffffffffffffffffffffffffffffffffffffff168152602001600073ffffffffffffffffffffffffffffffffffffffff168152602001600073ffffffffffffffffffffffffffffffffffffffff168152602001600073ffffffffffffffffffffffffffffffffffffffff168152602001600073ffffffffffffffffffffffffffffffffffffffff168152602001600073ffffffffffffffffffffffffffffffffffffffff168152602001600073ffffffffffffffffffffffffffffffffffffffff168152602001600073ffffffffffffffffffffffffffffffffffffffff168152602001600073ffffffffffffffffffffffffffffffffffffffff168152602001600073ffffffffffffffffffffffffffffffffffffffff168152602001600073ffffffffffffffffffffffffffffffffffffffff168152602001600073ffffffffffffffffffffffffffffffffffffffff168152602001600073ffffffffffffffffffffffffffffffffffffffff168152602001600073ffffffffffffffffffffffffffffffffffffffff1681525090565b600080fd5b600073ffffffffffffffffffffffffffffffffffffffff82169050919050565b600061155182611526565b9050919050565b61156181611546565b811461156c57600080fd5b50565b60008135905061157e81611558565b92915050565b60006020828403121561159a57611599611521565b5b60006115a88482850161156f565b91505092915050565b60008115159050919050565b6115c6816115b1565b82525050565b60006020820190506115e160008301846115bd565b92915050565b6115f081611546565b82525050565b600060208201905061160b60008301846115e7565b92915050565b61161a816115b1565b82525050565b61162981611546565b82525050565b6102c0820160008201516116466000850182611611565b5060208201516116596020850182611611565b50604082015161166c6040850182611611565b50606082015161167f6060850182611611565b5060808201516116926080850182611620565b5060a08201516116a560a0850182611620565b5060c08201516116b860c0850182611620565b5060e08201516116cb60e0850182611620565b506101008201516116e0610100850182611620565b506101208201516116f5610120850182611620565b5061014082015161170a610140850182611620565b5061016082015161171f610160850182611620565b50610180820151611734610180850182611620565b506101a08201516117496101a0850182611620565b506101c082015161175e6101c0850182611620565b506101e08201516117736101e0850182611620565b50610200820151611788610200850182611620565b5061022082015161179d610220850182611620565b506102408201516117b2610240850182611620565b506102608201516117c7610260850182611620565b506102808201516117dc610280850182611620565b506102a08201516117f16102a0850182611620565b50505050565b60006102c08201905061180d600083018461162f565b9291505056fea264697066735822122054d85fcc7fdd2ad441cbc52c6e7dda25e5eda5acc6961a978911fb16313474e764736f6c63430008100033",
					"opcodes": "PUSH1 0x80 PUSH1 0x40 MSTORE PUSH1 0x40 MLOAD DUP1 PUSH2 0x2C0 ADD PUSH1 0x40 MSTORE DUP1 PUSH1 0x0 ISZERO ISZERO DUP2 MSTORE PUSH1 0x20 ADD PUSH1 0x0 ISZERO ISZERO DUP2 MSTORE PUSH1 0x20 ADD PUSH1 0x1 ISZERO ISZERO DUP2 MSTORE PUSH1 0x20 ADD PUSH1 0x0 ISZERO ISZERO DUP2 MSTORE PUSH1 0x20 ADD PUSH1 0x0 PUSH20 0xFFFFFFFFFFFFFFFFFFFFFFFFFFFFFFFFFFFFFFFF AND DUP2 MSTORE PUSH1 0x20 ADD PUSH1 0x0 PUSH20 0xFFFFFFFFFFFFFFFFFFFFFFFFFFFFFFFFFFFFFFFF AND DUP2 MSTORE PUSH1 0x20 ADD PUSH1 0x0 PUSH20 0xFFFFFFFFFFFFFFFFFFFFFFFFFFFFFFFFFFFFFFFF AND DUP2 MSTORE PUSH1 0x20 ADD PUSH1 0x0 PUSH20 0xFFFFFFFFFFFFFFFFFFFFFFFFFFFFFFFFFFFFFFFF AND DUP2 MSTORE PUSH1 0x20 ADD PUSH1 0x0 PUSH20 0xFFFFFFFFFFFFFFFFFFFFFFFFFFFFFFFFFFFFFFFF AND DUP2 MSTORE PUSH1 0x20 ADD PUSH1 0x0 PUSH20 0xFFFFFFFFFFFFFFFFFFFFFFFFFFFFFFFFFFFFFFFF AND DUP2 MSTORE PUSH1 0x20 ADD PUSH1 0x0 PUSH20 0xFFFFFFFFFFFFFFFFFFFFFFFFFFFFFFFFFFFFFFFF AND DUP2 MSTORE PUSH1 0x20 ADD PUSH1 0x0 PUSH20 0xFFFFFFFFFFFFFFFFFFFFFFFFFFFFFFFFFFFFFFFF AND DUP2 MSTORE PUSH1 0x20 ADD PUSH1 0x0 PUSH20 0xFFFFFFFFFFFFFFFFFFFFFFFFFFFFFFFFFFFFFFFF AND DUP2 MSTORE PUSH1 0x20 ADD PUSH1 0x0 PUSH20 0xFFFFFFFFFFFFFFFFFFFFFFFFFFFFFFFFFFFFFFFF AND DUP2 MSTORE PUSH1 0x20 ADD PUSH1 0x0 PUSH20 0xFFFFFFFFFFFFFFFFFFFFFFFFFFFFFFFFFFFFFFFF AND DUP2 MSTORE PUSH1 0x20 ADD PUSH1 0x0 PUSH20 0xFFFFFFFFFFFFFFFFFFFFFFFFFFFFFFFFFFFFFFFF AND DUP2 MSTORE PUSH1 0x20 ADD PUSH1 0x0 PUSH20 0xFFFFFFFFFFFFFFFFFFFFFFFFFFFFFFFFFFFFFFFF AND DUP2 MSTORE PUSH1 0x20 ADD PUSH1 0x0 PUSH20 0xFFFFFFFFFFFFFFFFFFFFFFFFFFFFFFFFFFFFFFFF AND DUP2 MSTORE PUSH1 0x20 ADD PUSH1 0x0 PUSH20 0xFFFFFFFFFFFFFFFFFFFFFFFFFFFFFFFFFFFFFFFF AND DUP2 MSTORE PUSH1 0x20 ADD PUSH1 0x0 PUSH20 0xFFFFFFFFFFFFFFFFFFFFFFFFFFFFFFFFFFFFFFFF AND DUP2 MSTORE PUSH1 0x20 ADD PUSH1 0x0 PUSH20 0xFFFFFFFFFFFFFFFFFFFFFFFFFFFFFFFFFFFFFFFF AND DUP2 MSTORE PUSH1 0x20 ADD PUSH1 0x0 PUSH20 0xFFFFFFFFFFFFFFFFFFFFFFFFFFFFFFFFFFFFFFFF AND DUP2 MSTORE POP PUSH1 0x2 PUSH1 0x0 DUP3 ADD MLOAD DUP2 PUSH1 0x0 ADD PUSH1 0x0 PUSH2 0x100 EXP DUP2 SLOAD DUP2 PUSH1 0xFF MUL NOT AND SWAP1 DUP4 ISZERO ISZERO MUL OR SWAP1 SSTORE POP PUSH1 0x20 DUP3 ADD MLOAD DUP2 PUSH1 0x0 ADD PUSH1 0x1 PUSH2 0x100 EXP DUP2 SLOAD DUP2 PUSH1 0xFF MUL NOT AND SWAP1 DUP4 ISZERO ISZERO MUL OR SWAP1 SSTORE POP PUSH1 0x40 DUP3 ADD MLOAD DUP2 PUSH1 0x0 ADD PUSH1 0x2 PUSH2 0x100 EXP DUP2 SLOAD DUP2 PUSH1 0xFF MUL NOT AND SWAP1 DUP4 ISZERO ISZERO MUL OR SWAP1 SSTORE POP PUSH1 0x60 DUP3 ADD MLOAD DUP2 PUSH1 0x0 ADD PUSH1 0x3 PUSH2 0x100 EXP DUP2 SLOAD DUP2 PUSH1 0xFF MUL NOT AND SWAP1 DUP4 ISZERO ISZERO MUL OR SWAP1 SSTORE POP PUSH1 0x80 DUP3 ADD MLOAD DUP2 PUSH1 0x0 ADD PUSH1 0x4 PUSH2 0x100 EXP DUP2 SLOAD DUP2 PUSH20 0xFFFFFFFFFFFFFFFFFFFFFFFFFFFFFFFFFFFFFFFF MUL NOT AND SWAP1 DUP4 PUSH20 0xFFFFFFFFFFFFFFFFFFFFFFFFFFFFFFFFFFFFFFFF AND MUL OR SWAP1 SSTORE POP PUSH1 0xA0 DUP3 ADD MLOAD DUP2 PUSH1 0x1 ADD PUSH1 0x0 PUSH2 0x100 EXP DUP2 SLOAD DUP2 PUSH20 0xFFFFFFFFFFFFFFFFFFFFFFFFFFFFFFFFFFFFFFFF MUL NOT AND SWAP1 DUP4 PUSH20 0xFFFFFFFFFFFFFFFFFFFFFFFFFFFFFFFFFFFFFFFF AND MUL OR SWAP1 SSTORE POP PUSH1 0xC0 DUP3 ADD MLOAD DUP2 PUSH1 0x2 ADD PUSH1 0x0 PUSH2 0x100 EXP DUP2 SLOAD DUP2 PUSH20 0xFFFFFFFFFFFFFFFFFFFFFFFFFFFFFFFFFFFFFFFF MUL NOT AND SWAP1 DUP4 PUSH20 0xFFFFFFFFFFFFFFFFFFFFFFFFFFFFFFFFFFFFFFFF AND MUL OR SWAP1 SSTORE POP PUSH1 0xE0 DUP3 ADD MLOAD DUP2 PUSH1 0x3 ADD PUSH1 0x0 PUSH2 0x100 EXP DUP2 SLOAD DUP2 PUSH20 0xFFFFFFFFFFFFFFFFFFFFFFFFFFFFFFFFFFFFFFFF MUL NOT AND SWAP1 DUP4 PUSH20 0xFFFFFFFFFFFFFFFFFFFFFFFFFFFFFFFFFFFFFFFF AND MUL OR SWAP1 SSTORE POP PUSH2 0x100 DUP3 ADD MLOAD DUP2 PUSH1 0x4 ADD PUSH1 0x0 PUSH2 0x100 EXP DUP2 SLOAD DUP2 PUSH20 0xFFFFFFFFFFFFFFFFFFFFFFFFFFFFFFFFFFFFFFFF MUL NOT AND SWAP1 DUP4 PUSH20 0xFFFFFFFFFFFFFFFFFFFFFFFFFFFFFFFFFFFFFFFF AND MUL OR SWAP1 SSTORE POP PUSH2 0x120 DUP3 ADD MLOAD DUP2 PUSH1 0x5 ADD PUSH1 0x0 PUSH2 0x100 EXP DUP2 SLOAD DUP2 PUSH20 0xFFFFFFFFFFFFFFFFFFFFFFFFFFFFFFFFFFFFFFFF MUL NOT AND SWAP1 DUP4 PUSH20 0xFFFFFFFFFFFFFFFFFFFFFFFFFFFFFFFFFFFFFFFF AND MUL OR SWAP1 SSTORE POP PUSH2 0x140 DUP3 ADD MLOAD DUP2 PUSH1 0x6 ADD PUSH1 0x0 PUSH2 0x100 EXP DUP2 SLOAD DUP2 PUSH20 0xFFFFFFFFFFFFFFFFFFFFFFFFFFFFFFFFFFFFFFFF MUL NOT AND SWAP1 DUP4 PUSH20 0xFFFFFFFFFFFFFFFFFFFFFFFFFFFFFFFFFFFFFFFF AND MUL OR SWAP1 SSTORE POP PUSH2 0x160 DUP3 ADD MLOAD DUP2 PUSH1 0x7 ADD PUSH1 0x0 PUSH2 0x100 EXP DUP2 SLOAD DUP2 PUSH20 0xFFFFFFFFFFFFFFFFFFFFFFFFFFFFFFFFFFFFFFFF MUL NOT AND SWAP1 DUP4 PUSH20 0xFFFFFFFFFFFFFFFFFFFFFFFFFFFFFFFFFFFFFFFF AND MUL OR SWAP1 SSTORE POP PUSH2 0x180 DUP3 ADD MLOAD DUP2 PUSH1 0x8 ADD PUSH1 0x0 PUSH2 0x100 EXP DUP2 SLOAD DUP2 PUSH20 0xFFFFFFFFFFFFFFFFFFFFFFFFFFFFFFFFFFFFFFFF MUL NOT AND SWAP1 DUP4 PUSH20 0xFFFFFFFFFFFFFFFFFFFFFFFFFFFFFFFFFFFFFFFF AND MUL OR SWAP1 SSTORE POP PUSH2 0x1A0 DUP3 ADD MLOAD DUP2 PUSH1 0x9 ADD PUSH1 0x0 PUSH2 0x100 EXP DUP2 SLOAD DUP2 PUSH20 0xFFFFFFFFFFFFFFFFFFFFFFFFFFFFFFFFFFFFFFFF MUL NOT AND SWAP1 DUP4 PUSH20 0xFFFFFFFFFFFFFFFFFFFFFFFFFFFFFFFFFFFFFFFF AND MUL OR SWAP1 SSTORE POP PUSH2 0x1C0 DUP3 ADD MLOAD DUP2 PUSH1 0xA ADD PUSH1 0x0 PUSH2 0x100 EXP DUP2 SLOAD DUP2 PUSH20 0xFFFFFFFFFFFFFFFFFFFFFFFFFFFFFFFFFFFFFFFF MUL NOT AND SWAP1 DUP4 PUSH20 0xFFFFFFFFFFFFFFFFFFFFFFFFFFFFFFFFFFFFFFFF AND MUL OR SWAP1 SSTORE POP PUSH2 0x1E0 DUP3 ADD MLOAD DUP2 PUSH1 0xB ADD PUSH1 0x0 PUSH2 0x100 EXP DUP2 SLOAD DUP2 PUSH20 0xFFFFFFFFFFFFFFFFFFFFFFFFFFFFFFFFFFFFFFFF MUL NOT AND SWAP1 DUP4 PUSH20 0xFFFFFFFFFFFFFFFFFFFFFFFFFFFFFFFFFFFFFFFF AND MUL OR SWAP1 SSTORE POP PUSH2 0x200 DUP3 ADD MLOAD DUP2 PUSH1 0xC ADD PUSH1 0x0 PUSH2 0x100 EXP DUP2 SLOAD DUP2 PUSH20 0xFFFFFFFFFFFFFFFFFFFFFFFFFFFFFFFFFFFFFFFF MUL NOT AND SWAP1 DUP4 PUSH20 0xFFFFFFFFFFFFFFFFFFFFFFFFFFFFFFFFFFFFFFFF AND MUL OR SWAP1 SSTORE POP PUSH2 0x220 DUP3 ADD MLOAD DUP2 PUSH1 0xD ADD PUSH1 0x0 PUSH2 0x100 EXP DUP2 SLOAD DUP2 PUSH20 0xFFFFFFFFFFFFFFFFFFFFFFFFFFFFFFFFFFFFFFFF MUL NOT AND SWAP1 DUP4 PUSH20 0xFFFFFFFFFFFFFFFFFFFFFFFFFFFFFFFFFFFFFFFF AND MUL OR SWAP1 SSTORE POP PUSH2 0x240 DUP3 ADD MLOAD DUP2 PUSH1 0xE ADD PUSH1 0x0 PUSH2 0x100 EXP DUP2 SLOAD DUP2 PUSH20 0xFFFFFFFFFFFFFFFFFFFFFFFFFFFFFFFFFFFFFFFF MUL NOT AND SWAP1 DUP4 PUSH20 0xFFFFFFFFFFFFFFFFFFFFFFFFFFFFFFFFFFFFFFFF AND MUL OR SWAP1 SSTORE POP PUSH2 0x260 DUP3 ADD MLOAD DUP2 PUSH1 0xF ADD PUSH1 0x0 PUSH2 0x100 EXP DUP2 SLOAD DUP2 PUSH20 0xFFFFFFFFFFFFFFFFFFFFFFFFFFFFFFFFFFFFFFFF MUL NOT AND SWAP1 DUP4 PUSH20 0xFFFFFFFFFFFFFFFFFFFFFFFFFFFFFFFFFFFFFFFF AND MUL OR SWAP1 SSTORE POP PUSH2 0x280 DUP3 ADD MLOAD DUP2 PUSH1 0x10 ADD PUSH1 0x0 PUSH2 0x100 EXP DUP2 SLOAD DUP2 PUSH20 0xFFFFFFFFFFFFFFFFFFFFFFFFFFFFFFFFFFFFFFFF MUL NOT AND SWAP1 DUP4 PUSH20 0xFFFFFFFFFFFFFFFFFFFFFFFFFFFFFFFFFFFFFFFF AND MUL OR SWAP1 SSTORE POP PUSH2 0x2A0 DUP3 ADD MLOAD DUP2 PUSH1 0x11 ADD PUSH1 0x0 PUSH2 0x100 EXP DUP2 SLOAD DUP2 PUSH20 0xFFFFFFFFFFFFFFFFFFFFFFFFFFFFFFFFFFFFFFFF MUL NOT AND SWAP1 DUP4 PUSH20 0xFFFFFFFFFFFFFFFFFFFFFFFFFFFFFFFFFFFFFFFF AND MUL OR SWAP1 SSTORE POP POP POP CALLVALUE DUP1 ISZERO PUSH2 0x7D8 JUMPI PUSH1 0x0 DUP1 REVERT JUMPDEST POP TIMESTAMP PUSH1 0x0 DUP2 SWAP1 SSTORE POP CALLER PUSH1 0x1 PUSH1 0x0 PUSH2 0x100 EXP DUP2 SLOAD DUP2 PUSH20 0xFFFFFFFFFFFFFFFFFFFFFFFFFFFFFFFFFFFFFFFF MUL NOT AND SWAP1 DUP4 PUSH20 0xFFFFFFFFFFFFFFFFFFFFFFFFFFFFFFFFFFFFFFFF AND MUL OR SWAP1 SSTORE POP PUSH2 0x1849 DUP1 PUSH2 0x830 PUSH1 0x0 CODECOPY PUSH1 0x0 RETURN INVALID PUSH1 0x80 PUSH1 0x40 MSTORE CALLVALUE DUP1 ISZERO PUSH2 0x10 JUMPI PUSH1 0x0 DUP1 REVERT JUMPDEST POP PUSH1 0x4 CALLDATASIZE LT PUSH2 0x12C JUMPI PUSH1 0x0 CALLDATALOAD PUSH1 0xE0 SHR DUP1 PUSH4 0x8C920BD3 GT PUSH2 0xAD JUMPI DUP1 PUSH4 0xB4840993 GT PUSH2 0x71 JUMPI DUP1 PUSH4 0xB4840993 EQ PUSH2 0x29D JUMPI DUP1 PUSH4 0xBFED3CF2 EQ PUSH2 0x2B9 JUMPI DUP1 PUSH4 0xD468FDF4 EQ PUSH2 0x2D7 JUMPI DUP1 PUSH4 0xE6A52E8A EQ PUSH2 0x2F3 JUMPI DUP1 PUSH4 0xF23E9C3B EQ PUSH2 0x311 JUMPI PUSH2 0x12C JUMP JUMPDEST DUP1 PUSH4 0x8C920BD3 EQ PUSH2 0x21D JUMPI DUP1 PUSH4 0x8DF57580 EQ PUSH2 0x239 JUMPI DUP1 PUSH4 0x96D54EBE EQ PUSH2 0x257 JUMPI DUP1 PUSH4 0xAE35CFA2 EQ PUSH2 0x275 JUMPI DUP1 PUSH4 0xB343C438 EQ PUSH2 0x27F JUMPI PUSH2 0x12C JUMP JUMPDEST DUP1 PUSH4 0x64AA0754 GT PUSH2 0xF4 JUMPI DUP1 PUSH4 0x64AA0754 EQ PUSH2 0x19D JUMPI DUP1 PUSH4 0x6BC5B0C4 EQ PUSH2 0x1BB JUMPI DUP1 PUSH4 0x6EF6346F EQ PUSH2 0x1D7 JUMPI DUP1 PUSH4 0x7F0B2E7D EQ PUSH2 0x1F5 JUMPI DUP1 PUSH4 0x85FF6E63 EQ PUSH2 0x213 JUMPI PUSH2 0x12C JUMP JUMPDEST DUP1 PUSH4 0x12902CD8 EQ PUSH2 0x131 JUMPI DUP1 PUSH4 0x3D3E8321 EQ PUSH2 0x13B JUMPI DUP1 PUSH4 0x42DD96F7 EQ PUSH2 0x157 JUMPI DUP1 PUSH4 0x45769E25 EQ PUSH2 0x175 JUMPI DUP1 PUSH4 0x5D0D3816 EQ PUSH2 0x17F JUMPI JUMPDEST PUSH1 0x0 DUP1 REVERT JUMPDEST PUSH2 0x139 PUSH2 0x32D JUMP JUMPDEST STOP JUMPDEST PUSH2 0x155 PUSH1 0x4 DUP1 CALLDATASIZE SUB DUP2 ADD SWAP1 PUSH2 0x150 SWAP2 SWAP1 PUSH2 0x1584 JUMP JUMPDEST PUSH2 0x408 JUMP JUMPDEST STOP JUMPDEST PUSH2 0x15F PUSH2 0x4A9 JUMP JUMPDEST PUSH1 0x40 MLOAD PUSH2 0x16C SWAP2 SWAP1 PUSH2 0x15CC JUMP JUMPDEST PUSH1 0x40 MLOAD DUP1 SWAP2 SUB SWAP1 RETURN JUMPDEST PUSH2 0x17D PUSH2 0x4C8 JUMP JUMPDEST STOP JUMPDEST PUSH2 0x187 PUSH2 0x5A3 JUMP JUMPDEST PUSH1 0x40 MLOAD PUSH2 0x194 SWAP2 SWAP1 PUSH2 0x15F6 JUMP JUMPDEST PUSH1 0x40 MLOAD DUP1 SWAP2 SUB SWAP1 RETURN JUMPDEST PUSH2 0x1A5 PUSH2 0x5D5 JUMP JUMPDEST PUSH1 0x40 MLOAD PUSH2 0x1B2 SWAP2 SWAP1 PUSH2 0x15CC JUMP JUMPDEST PUSH1 0x40 MLOAD DUP1 SWAP2 SUB SWAP1 RETURN JUMPDEST PUSH2 0x1D5 PUSH1 0x4 DUP1 CALLDATASIZE SUB DUP2 ADD SWAP1 PUSH2 0x1D0 SWAP2 SWAP1 PUSH2 0x1584 JUMP JUMPDEST PUSH2 0x5F4 JUMP JUMPDEST STOP JUMPDEST PUSH2 0x1DF PUSH2 0x695 JUMP JUMPDEST PUSH1 0x40 MLOAD PUSH2 0x1EC SWAP2 SWAP1 PUSH2 0x15F6 JUMP JUMPDEST PUSH1 0x40 MLOAD DUP1 SWAP2 SUB SWAP1 RETURN JUMPDEST PUSH2 0x1FD PUSH2 0x6C7 JUMP JUMPDEST PUSH1 0x40 MLOAD PUSH2 0x20A SWAP2 SWAP1 PUSH2 0x17F7 JUMP JUMPDEST PUSH1 0x40 MLOAD DUP1 SWAP2 SUB SWAP1 RETURN JUMPDEST PUSH2 0x21B PUSH2 0xD60 JUMP JUMPDEST STOP JUMPDEST PUSH2 0x237 PUSH1 0x4 DUP1 CALLDATASIZE SUB DUP2 ADD SWAP1 PUSH2 0x232 SWAP2 SWAP1 PUSH2 0x1584 JUMP JUMPDEST PUSH2 0xE59 JUMP JUMPDEST STOP JUMPDEST PUSH2 0x241 PUSH2 0xEFA JUMP JUMPDEST PUSH1 0x40 MLOAD PUSH2 0x24E SWAP2 SWAP1 PUSH2 0x15CC JUMP JUMPDEST PUSH1 0x40 MLOAD DUP1 SWAP2 SUB SWAP1 RETURN JUMPDEST PUSH2 0x25F PUSH2 0xF19 JUMP JUMPDEST PUSH1 0x40 MLOAD PUSH2 0x26C SWAP2 SWAP1 PUSH2 0x15F6 JUMP JUMPDEST PUSH1 0x40 MLOAD DUP1 SWAP2 SUB SWAP1 RETURN JUMPDEST PUSH2 0x27D PUSH2 0xF4B JUMP JUMPDEST STOP JUMPDEST PUSH2 0x287 PUSH2 0x1080 JUMP JUMPDEST PUSH1 0x40 MLOAD PUSH2 0x294 SWAP2 SWAP1 PUSH2 0x15CC JUMP JUMPDEST PUSH1 0x40 MLOAD DUP1 SWAP2 SUB SWAP1 RETURN JUMPDEST PUSH2 0x2B7 PUSH1 0x4 DUP1 CALLDATASIZE SUB DUP2 ADD SWAP1 PUSH2 0x2B2 SWAP2 SWAP1 PUSH2 0x1584 JUMP JUMPDEST PUSH2 0x109F JUMP JUMPDEST STOP JUMPDEST PUSH2 0x2C1 PUSH2 0x1140 JUMP JUMPDEST PUSH1 0x40 MLOAD PUSH2 0x2CE SWAP2 SWAP1 PUSH2 0x15F6 JUMP JUMPDEST PUSH1 0x40 MLOAD DUP1 SWAP2 SUB SWAP1 RETURN JUMPDEST PUSH2 0x2F1 PUSH1 0x4 DUP1 CALLDATASIZE SUB DUP2 ADD SWAP1 PUSH2 0x2EC SWAP2 SWAP1 PUSH2 0x1584 JUMP JUMPDEST PUSH2 0x1172 JUMP JUMPDEST STOP JUMPDEST PUSH2 0x2FB PUSH2 0x1213 JUMP JUMPDEST PUSH1 0x40 MLOAD PUSH2 0x308 SWAP2 SWAP1 PUSH2 0x15F6 JUMP JUMPDEST PUSH1 0x40 MLOAD DUP1 SWAP2 SUB SWAP1 RETURN JUMPDEST PUSH2 0x32B PUSH1 0x4 DUP1 CALLDATASIZE SUB DUP2 ADD SWAP1 PUSH2 0x326 SWAP2 SWAP1 PUSH2 0x1584 JUMP JUMPDEST PUSH2 0x1245 JUMP JUMPDEST STOP JUMPDEST PUSH1 0x1 PUSH1 0x0 SWAP1 SLOAD SWAP1 PUSH2 0x100 EXP SWAP1 DIV PUSH20 0xFFFFFFFFFFFFFFFFFFFFFFFFFFFFFFFFFFFFFFFF AND PUSH20 0xFFFFFFFFFFFFFFFFFFFFFFFFFFFFFFFFFFFFFFFF AND CALLER PUSH20 0xFFFFFFFFFFFFFFFFFFFFFFFFFFFFFFFFFFFFFFFF AND EQ PUSH2 0x387 JUMPI PUSH1 0x0 DUP1 REVERT JUMPDEST PUSH1 0x0 ISZERO ISZERO PUSH1 0x2 PUSH1 0x0 ADD PUSH1 0x2 SWAP1 SLOAD SWAP1 PUSH2 0x100 EXP SWAP1 DIV PUSH1 0xFF AND ISZERO ISZERO SUB PUSH2 0x3C8 JUMPI PUSH1 0x1 PUSH1 0x2 PUSH1 0x0 ADD PUSH1 0x2 PUSH2 0x100 EXP DUP2 SLOAD DUP2 PUSH1 0xFF MUL NOT AND SWAP1 DUP4 ISZERO ISZERO MUL OR SWAP1 SSTORE POP PUSH2 0x406 JUMP JUMPDEST PUSH1 0x1 ISZERO ISZERO PUSH1 0x2 PUSH1 0x0 ADD PUSH1 0x2 SWAP1 SLOAD SWAP1 PUSH2 0x100 EXP SWAP1 DIV PUSH1 0xFF AND ISZERO ISZERO SUB PUSH2 0x405 JUMPI PUSH1 0x0 PUSH1 0x2 PUSH1 0x0 ADD PUSH1 0x2 PUSH2 0x100 EXP DUP2 SLOAD DUP2 PUSH1 0xFF MUL NOT AND SWAP1 DUP4 ISZERO ISZERO MUL OR SWAP1 SSTORE POP JUMPDEST JUMPDEST JUMP JUMPDEST PUSH1 0x1 PUSH1 0x0 SWAP1 SLOAD SWAP1 PUSH2 0x100 EXP SWAP1 DIV PUSH20 0xFFFFFFFFFFFFFFFFFFFFFFFFFFFFFFFFFFFFFFFF AND PUSH20 0xFFFFFFFFFFFFFFFFFFFFFFFFFFFFFFFFFFFFFFFF AND CALLER PUSH20 0xFFFFFFFFFFFFFFFFFFFFFFFFFFFFFFFFFFFFFFFF AND EQ PUSH2 0x462 JUMPI PUSH1 0x0 DUP1 REVERT JUMPDEST DUP1 PUSH1 0x2 PUSH1 0xD ADD PUSH1 0x0 PUSH2 0x100 EXP DUP2 SLOAD DUP2 PUSH20 0xFFFFFFFFFFFFFFFFFFFFFFFFFFFFFFFFFFFFFFFF MUL NOT AND SWAP1 DUP4 PUSH20 0xFFFFFFFFFFFFFFFFFFFFFFFFFFFFFFFFFFFFFFFF AND MUL OR SWAP1 SSTORE POP POP JUMP JUMPDEST PUSH1 0x0 DUP1 PUSH1 0x2 SWAP1 POP DUP1 PUSH1 0x0 ADD PUSH1 0x3 SWAP1 SLOAD SWAP1 PUSH2 0x100 EXP SWAP1 DIV PUSH1 0xFF AND SWAP2 POP POP SWAP1 JUMP JUMPDEST PUSH1 0x1 PUSH1 0x0 SWAP1 SLOAD SWAP1 PUSH2 0x100 EXP SWAP1 DIV PUSH20 0xFFFFFFFFFFFFFFFFFFFFFFFFFFFFFFFFFFFFFFFF AND PUSH20 0xFFFFFFFFFFFFFFFFFFFFFFFFFFFFFFFFFFFFFFFF AND CALLER PUSH20 0xFFFFFFFFFFFFFFFFFFFFFFFFFFFFFFFFFFFFFFFF AND EQ PUSH2 0x522 JUMPI PUSH1 0x0 DUP1 REVERT JUMPDEST PUSH1 0x0 ISZERO ISZERO PUSH1 0x2 PUSH1 0x0 ADD PUSH1 0x1 SWAP1 SLOAD SWAP1 PUSH2 0x100 EXP SWAP1 DIV PUSH1 0xFF AND ISZERO ISZERO SUB PUSH2 0x563 JUMPI PUSH1 0x1 PUSH1 0x2 PUSH1 0x0 ADD PUSH1 0x1 PUSH2 0x100 EXP DUP2 SLOAD DUP2 PUSH1 0xFF MUL NOT AND SWAP1 DUP4 ISZERO ISZERO MUL OR SWAP1 SSTORE POP PUSH2 0x5A1 JUMP JUMPDEST PUSH1 0x1 ISZERO ISZERO PUSH1 0x2 PUSH1 0x0 ADD PUSH1 0x1 SWAP1 SLOAD SWAP1 PUSH2 0x100 EXP SWAP1 DIV PUSH1 0xFF AND ISZERO ISZERO SUB PUSH2 0x5A0 JUMPI PUSH1 0x0 PUSH1 0x2 PUSH1 0x0 ADD PUSH1 0x1 PUSH2 0x100 EXP DUP2 SLOAD DUP2 PUSH1 0xFF MUL NOT AND SWAP1 DUP4 ISZERO ISZERO MUL OR SWAP1 SSTORE POP JUMPDEST JUMPDEST JUMP JUMPDEST PUSH1 0x0 DUP1 PUSH1 0x2 SWAP1 POP DUP1 PUSH1 0xD ADD PUSH1 0x0 SWAP1 SLOAD SWAP1 PUSH2 0x100 EXP SWAP1 DIV PUSH20 0xFFFFFFFFFFFFFFFFFFFFFFFFFFFFFFFFFFFFFFFF AND SWAP2 POP POP SWAP1 JUMP JUMPDEST PUSH1 0x0 DUP1 PUSH1 0x2 SWAP1 POP DUP1 PUSH1 0x0 ADD PUSH1 0x2 SWAP1 SLOAD SWAP1 PUSH2 0x100 EXP SWAP1 DIV PUSH1 0xFF AND SWAP2 POP POP SWAP1 JUMP JUMPDEST PUSH1 0x1 PUSH1 0x0 SWAP1 SLOAD SWAP1 PUSH2 0x100 EXP SWAP1 DIV PUSH20 0xFFFFFFFFFFFFFFFFFFFFFFFFFFFFFFFFFFFFFFFF AND PUSH20 0xFFFFFFFFFFFFFFFFFFFFFFFFFFFFFFFFFFFFFFFF AND CALLER PUSH20 0xFFFFFFFFFFFFFFFFFFFFFFFFFFFFFFFFFFFFFFFF AND EQ PUSH2 0x64E JUMPI PUSH1 0x0 DUP1 REVERT JUMPDEST DUP1 PUSH1 0x2 PUSH1 0x4 ADD PUSH1 0x0 PUSH2 0x100 EXP DUP2 SLOAD DUP2 PUSH20 0xFFFFFFFFFFFFFFFFFFFFFFFFFFFFFFFFFFFFFFFF MUL NOT AND SWAP1 DUP4 PUSH20 0xFFFFFFFFFFFFFFFFFFFFFFFFFFFFFFFFFFFFFFFF AND MUL OR SWAP1 SSTORE POP POP JUMP JUMPDEST PUSH1 0x0 DUP1 PUSH1 0x2 SWAP1 POP DUP1 PUSH1 0x7 ADD PUSH1 0x0 SWAP1 SLOAD SWAP1 PUSH2 0x100 EXP SWAP1 DIV PUSH20 0xFFFFFFFFFFFFFFFFFFFFFFFFFFFFFFFFFFFFFFFF AND SWAP2 POP POP SWAP1 JUMP JUMPDEST PUSH2 0x6CF PUSH2 0x12E6 JUMP JUMPDEST PUSH1 0x0 PUSH1 0x2 SWAP1 POP DUP1 PUSH1 0x40 MLOAD DUP1 PUSH2 0x2C0 ADD PUSH1 0x40 MSTORE SWAP1 DUP2 PUSH1 0x0 DUP3 ADD PUSH1 0x0 SWAP1 SLOAD SWAP1 PUSH2 0x100 EXP SWAP1 DIV PUSH1 0xFF AND ISZERO ISZERO ISZERO ISZERO DUP2 MSTORE PUSH1 0x20 ADD PUSH1 0x0 DUP3 ADD PUSH1 0x1 SWAP1 SLOAD SWAP1 PUSH2 0x100 EXP SWAP1 DIV PUSH1 0xFF AND ISZERO ISZERO ISZERO ISZERO DUP2 MSTORE PUSH1 0x20 ADD PUSH1 0x0 DUP3 ADD PUSH1 0x2 SWAP1 SLOAD SWAP1 PUSH2 0x100 EXP SWAP1 DIV PUSH1 0xFF AND ISZERO ISZERO ISZERO ISZERO DUP2 MSTORE PUSH1 0x20 ADD PUSH1 0x0 DUP3 ADD PUSH1 0x3 SWAP1 SLOAD SWAP1 PUSH2 0x100 EXP SWAP1 DIV PUSH1 0xFF AND ISZERO ISZERO ISZERO ISZERO DUP2 MSTORE PUSH1 0x20 ADD PUSH1 0x0 DUP3 ADD PUSH1 0x4 SWAP1 SLOAD SWAP1 PUSH2 0x100 EXP SWAP1 DIV PUSH20 0xFFFFFFFFFFFFFFFFFFFFFFFFFFFFFFFFFFFFFFFF AND PUSH20 0xFFFFFFFFFFFFFFFFFFFFFFFFFFFFFFFFFFFFFFFF AND PUSH20 0xFFFFFFFFFFFFFFFFFFFFFFFFFFFFFFFFFFFFFFFF AND DUP2 MSTORE PUSH1 0x20 ADD PUSH1 0x1 DUP3 ADD PUSH1 0x0 SWAP1 SLOAD SWAP1 PUSH2 0x100 EXP SWAP1 DIV PUSH20 0xFFFFFFFFFFFFFFFFFFFFFFFFFFFFFFFFFFFFFFFF AND PUSH20 0xFFFFFFFFFFFFFFFFFFFFFFFFFFFFFFFFFFFFFFFF AND PUSH20 0xFFFFFFFFFFFFFFFFFFFFFFFFFFFFFFFFFFFFFFFF AND DUP2 MSTORE PUSH1 0x20 ADD PUSH1 0x2 DUP3 ADD PUSH1 0x0 SWAP1 SLOAD SWAP1 PUSH2 0x100 EXP SWAP1 DIV PUSH20 0xFFFFFFFFFFFFFFFFFFFFFFFFFFFFFFFFFFFFFFFF AND PUSH20 0xFFFFFFFFFFFFFFFFFFFFFFFFFFFFFFFFFFFFFFFF AND PUSH20 0xFFFFFFFFFFFFFFFFFFFFFFFFFFFFFFFFFFFFFFFF AND DUP2 MSTORE PUSH1 0x20 ADD PUSH1 0x3 DUP3 ADD PUSH1 0x0 SWAP1 SLOAD SWAP1 PUSH2 0x100 EXP SWAP1 DIV PUSH20 0xFFFFFFFFFFFFFFFFFFFFFFFFFFFFFFFFFFFFFFFF AND PUSH20 0xFFFFFFFFFFFFFFFFFFFFFFFFFFFFFFFFFFFFFFFF AND PUSH20 0xFFFFFFFFFFFFFFFFFFFFFFFFFFFFFFFFFFFFFFFF AND DUP2 MSTORE PUSH1 0x20 ADD PUSH1 0x4 DUP3 ADD PUSH1 0x0 SWAP1 SLOAD SWAP1 PUSH2 0x100 EXP SWAP1 DIV PUSH20 0xFFFFFFFFFFFFFFFFFFFFFFFFFFFFFFFFFFFFFFFF AND PUSH20 0xFFFFFFFFFFFFFFFFFFFFFFFFFFFFFFFFFFFFFFFF AND PUSH20 0xFFFFFFFFFFFFFFFFFFFFFFFFFFFFFFFFFFFFFFFF AND DUP2 MSTORE PUSH1 0x20 ADD PUSH1 0x5 DUP3 ADD PUSH1 0x0 SWAP1 SLOAD SWAP1 PUSH2 0x100 EXP SWAP1 DIV PUSH20 0xFFFFFFFFFFFFFFFFFFFFFFFFFFFFFFFFFFFFFFFF AND PUSH20 0xFFFFFFFFFFFFFFFFFFFFFFFFFFFFFFFFFFFFFFFF AND PUSH20 0xFFFFFFFFFFFFFFFFFFFFFFFFFFFFFFFFFFFFFFFF AND DUP2 MSTORE PUSH1 0x20 ADD PUSH1 0x6 DUP3 ADD PUSH1 0x0 SWAP1 SLOAD SWAP1 PUSH2 0x100 EXP SWAP1 DIV PUSH20 0xFFFFFFFFFFFFFFFFFFFFFFFFFFFFFFFFFFFFFFFF AND PUSH20 0xFFFFFFFFFFFFFFFFFFFFFFFFFFFFFFFFFFFFFFFF AND PUSH20 0xFFFFFFFFFFFFFFFFFFFFFFFFFFFFFFFFFFFFFFFF AND DUP2 MSTORE PUSH1 0x20 ADD PUSH1 0x7 DUP3 ADD PUSH1 0x0 SWAP1 SLOAD SWAP1 PUSH2 0x100 EXP SWAP1 DIV PUSH20 0xFFFFFFFFFFFFFFFFFFFFFFFFFFFFFFFFFFFFFFFF AND PUSH20 0xFFFFFFFFFFFFFFFFFFFFFFFFFFFFFFFFFFFFFFFF AND PUSH20 0xFFFFFFFFFFFFFFFFFFFFFFFFFFFFFFFFFFFFFFFF AND DUP2 MSTORE PUSH1 0x20 ADD PUSH1 0x8 DUP3 ADD PUSH1 0x0 SWAP1 SLOAD SWAP1 PUSH2 0x100 EXP SWAP1 DIV PUSH20 0xFFFFFFFFFFFFFFFFFFFFFFFFFFFFFFFFFFFFFFFF AND PUSH20 0xFFFFFFFFFFFFFFFFFFFFFFFFFFFFFFFFFFFFFFFF AND PUSH20 0xFFFFFFFFFFFFFFFFFFFFFFFFFFFFFFFFFFFFFFFF AND DUP2 MSTORE PUSH1 0x20 ADD PUSH1 0x9 DUP3 ADD PUSH1 0x0 SWAP1 SLOAD SWAP1 PUSH2 0x100 EXP SWAP1 DIV PUSH20 0xFFFFFFFFFFFFFFFFFFFFFFFFFFFFFFFFFFFFFFFF AND PUSH20 0xFFFFFFFFFFFFFFFFFFFFFFFFFFFFFFFFFFFFFFFF AND PUSH20 0xFFFFFFFFFFFFFFFFFFFFFFFFFFFFFFFFFFFFFFFF AND DUP2 MSTORE PUSH1 0x20 ADD PUSH1 0xA DUP3 ADD PUSH1 0x0 SWAP1 SLOAD SWAP1 PUSH2 0x100 EXP SWAP1 DIV PUSH20 0xFFFFFFFFFFFFFFFFFFFFFFFFFFFFFFFFFFFFFFFF AND PUSH20 0xFFFFFFFFFFFFFFFFFFFFFFFFFFFFFFFFFFFFFFFF AND PUSH20 0xFFFFFFFFFFFFFFFFFFFFFFFFFFFFFFFFFFFFFFFF AND DUP2 MSTORE PUSH1 0x20 ADD PUSH1 0xB DUP3 ADD PUSH1 0x0 SWAP1 SLOAD SWAP1 PUSH2 0x100 EXP SWAP1 DIV PUSH20 0xFFFFFFFFFFFFFFFFFFFFFFFFFFFFFFFFFFFFFFFF AND PUSH20 0xFFFFFFFFFFFFFFFFFFFFFFFFFFFFFFFFFFFFFFFF AND PUSH20 0xFFFFFFFFFFFFFFFFFFFFFFFFFFFFFFFFFFFFFFFF AND DUP2 MSTORE PUSH1 0x20 ADD PUSH1 0xC DUP3 ADD PUSH1 0x0 SWAP1 SLOAD SWAP1 PUSH2 0x100 EXP SWAP1 DIV PUSH20 0xFFFFFFFFFFFFFFFFFFFFFFFFFFFFFFFFFFFFFFFF AND PUSH20 0xFFFFFFFFFFFFFFFFFFFFFFFFFFFFFFFFFFFFFFFF AND PUSH20 0xFFFFFFFFFFFFFFFFFFFFFFFFFFFFFFFFFFFFFFFF AND DUP2 MSTORE PUSH1 0x20 ADD PUSH1 0xD DUP3 ADD PUSH1 0x0 SWAP1 SLOAD SWAP1 PUSH2 0x100 EXP SWAP1 DIV PUSH20 0xFFFFFFFFFFFFFFFFFFFFFFFFFFFFFFFFFFFFFFFF AND PUSH20 0xFFFFFFFFFFFFFFFFFFFFFFFFFFFFFFFFFFFFFFFF AND PUSH20 0xFFFFFFFFFFFFFFFFFFFFFFFFFFFFFFFFFFFFFFFF AND DUP2 MSTORE PUSH1 0x20 ADD PUSH1 0xE DUP3 ADD PUSH1 0x0 SWAP1 SLOAD SWAP1 PUSH2 0x100 EXP SWAP1 DIV PUSH20 0xFFFFFFFFFFFFFFFFFFFFFFFFFFFFFFFFFFFFFFFF AND PUSH20 0xFFFFFFFFFFFFFFFFFFFFFFFFFFFFFFFFFFFFFFFF AND PUSH20 0xFFFFFFFFFFFFFFFFFFFFFFFFFFFFFFFFFFFFFFFF AND DUP2 MSTORE PUSH1 0x20 ADD PUSH1 0xF DUP3 ADD PUSH1 0x0 SWAP1 SLOAD SWAP1 PUSH2 0x100 EXP SWAP1 DIV PUSH20 0xFFFFFFFFFFFFFFFFFFFFFFFFFFFFFFFFFFFFFFFF AND PUSH20 0xFFFFFFFFFFFFFFFFFFFFFFFFFFFFFFFFFFFFFFFF AND PUSH20 0xFFFFFFFFFFFFFFFFFFFFFFFFFFFFFFFFFFFFFFFF AND DUP2 MSTORE PUSH1 0x20 ADD PUSH1 0x10 DUP3 ADD PUSH1 0x0 SWAP1 SLOAD SWAP1 PUSH2 0x100 EXP SWAP1 DIV PUSH20 0xFFFFFFFFFFFFFFFFFFFFFFFFFFFFFFFFFFFFFFFF AND PUSH20 0xFFFFFFFFFFFFFFFFFFFFFFFFFFFFFFFFFFFFFFFF AND PUSH20 0xFFFFFFFFFFFFFFFFFFFFFFFFFFFFFFFFFFFFFFFF AND DUP2 MSTORE PUSH1 0x20 ADD PUSH1 0x11 DUP3 ADD PUSH1 0x0 SWAP1 SLOAD SWAP1 PUSH2 0x100 EXP SWAP1 DIV PUSH20 0xFFFFFFFFFFFFFFFFFFFFFFFFFFFFFFFFFFFFFFFF AND PUSH20 0xFFFFFFFFFFFFFFFFFFFFFFFFFFFFFFFFFFFFFFFF AND PUSH20 0xFFFFFFFFFFFFFFFFFFFFFFFFFFFFFFFFFFFFFFFF AND DUP2 MSTORE POP POP SWAP2 POP POP SWAP1 JUMP JUMPDEST PUSH1 0x1 PUSH1 0x0 SWAP1 SLOAD SWAP1 PUSH2 0x100 EXP SWAP1 DIV PUSH20 0xFFFFFFFFFFFFFFFFFFFFFFFFFFFFFFFFFFFFFFFF AND PUSH20 0xFFFFFFFFFFFFFFFFFFFFFFFFFFFFFFFFFFFFFFFF AND CALLER PUSH20 0xFFFFFFFFFFFFFFFFFFFFFFFFFFFFFFFFFFFFFFFF AND EQ PUSH2 0xDBA JUMPI PUSH1 0x0 DUP1 REVERT JUMPDEST PUSH1 0x0 ISZERO ISZERO PUSH1 0x2 PUSH1 0x0 ADD PUSH1 0x0 SWAP1 SLOAD SWAP1 PUSH2 0x100 EXP SWAP1 DIV PUSH1 0xFF AND ISZERO ISZERO SUB PUSH2 0xE19 JUMPI PUSH1 0x1 PUSH1 0x2 PUSH1 0x0 ADD PUSH1 0x0 PUSH2 0x100 EXP DUP2 SLOAD DUP2 PUSH1 0xFF MUL NOT AND SWAP1 DUP4 ISZERO ISZERO MUL OR SWAP1 SSTORE POP PUSH1 0x0 PUSH1 0x2 PUSH1 0x0 ADD PUSH1 0x2 PUSH2 0x100 EXP DUP2 SLOAD DUP2 PUSH1 0xFF MUL NOT AND SWAP1 DUP4 ISZERO ISZERO MUL OR SWAP1 SSTORE POP PUSH2 0xE57 JUMP JUMPDEST PUSH1 0x1 ISZERO ISZERO PUSH1 0x2 PUSH1 0x0 ADD PUSH1 0x0 SWAP1 SLOAD SWAP1 PUSH2 0x100 EXP SWAP1 DIV PUSH1 0xFF AND ISZERO ISZERO SUB PUSH2 0xE56 JUMPI PUSH1 0x0 PUSH1 0x2 PUSH1 0x0 ADD PUSH1 0x0 PUSH2 0x100 EXP DUP2 SLOAD DUP2 PUSH1 0xFF MUL NOT AND SWAP1 DUP4 ISZERO ISZERO MUL OR SWAP1 SSTORE POP JUMPDEST JUMPDEST JUMP JUMPDEST PUSH1 0x1 PUSH1 0x0 SWAP1 SLOAD SWAP1 PUSH2 0x100 EXP SWAP1 DIV PUSH20 0xFFFFFFFFFFFFFFFFFFFFFFFFFFFFFFFFFFFFFFFF AND PUSH20 0xFFFFFFFFFFFFFFFFFFFFFFFFFFFFFFFFFFFFFFFF AND CALLER PUSH20 0xFFFFFFFFFFFFFFFFFFFFFFFFFFFFFFFFFFFFFFFF AND EQ PUSH2 0xEB3 JUMPI PUSH1 0x0 DUP1 REVERT JUMPDEST DUP1 PUSH1 0x2 PUSH1 0x7 ADD PUSH1 0x0 PUSH2 0x100 EXP DUP2 SLOAD DUP2 PUSH20 0xFFFFFFFFFFFFFFFFFFFFFFFFFFFFFFFFFFFFFFFF MUL NOT AND SWAP1 DUP4 PUSH20 0xFFFFFFFFFFFFFFFFFFFFFFFFFFFFFFFFFFFFFFFF AND MUL OR SWAP1 SSTORE POP POP JUMP JUMPDEST PUSH1 0x0 DUP1 PUSH1 0x2 SWAP1 POP DUP1 PUSH1 0x0 ADD PUSH1 0x1 SWAP1 SLOAD SWAP1 PUSH2 0x100 EXP SWAP1 DIV PUSH1 0xFF AND SWAP2 POP POP SWAP1 JUMP JUMPDEST PUSH1 0x0 DUP1 PUSH1 0x2 SWAP1 POP DUP1 PUSH1 0x4 ADD PUSH1 0x0 SWAP1 SLOAD SWAP1 PUSH2 0x100 EXP SWAP1 DIV PUSH20 0xFFFFFFFFFFFFFFFFFFFFFFFFFFFFFFFFFFFFFFFF AND SWAP2 POP POP SWAP1 JUMP JUMPDEST PUSH1 0x1 PUSH1 0x0 SWAP1 SLOAD SWAP1 PUSH2 0x100 EXP SWAP1 DIV PUSH20 0xFFFFFFFFFFFFFFFFFFFFFFFFFFFFFFFFFFFFFFFF AND PUSH20 0xFFFFFFFFFFFFFFFFFFFFFFFFFFFFFFFFFFFFFFFF AND CALLER PUSH20 0xFFFFFFFFFFFFFFFFFFFFFFFFFFFFFFFFFFFFFFFF AND EQ PUSH2 0xFA5 JUMPI PUSH1 0x0 DUP1 REVERT JUMPDEST PUSH1 0x0 ISZERO ISZERO PUSH1 0x2 PUSH1 0x0 ADD PUSH1 0x3 SWAP1 SLOAD SWAP1 PUSH2 0x100 EXP SWAP1 DIV PUSH1 0xFF AND ISZERO ISZERO SUB PUSH2 0xFE6 JUMPI PUSH1 0x1 PUSH1 0x2 PUSH1 0x0 ADD PUSH1 0x3 PUSH2 0x100 EXP DUP2 SLOAD DUP2 PUSH1 0xFF MUL NOT AND SWAP1 DUP4 ISZERO ISZERO MUL OR SWAP1 SSTORE POP PUSH2 0x107E JUMP JUMPDEST PUSH1 0x0 ISZERO ISZERO PUSH1 0x2 PUSH1 0x0 ADD PUSH1 0x3 SWAP1 SLOAD SWAP1 PUSH2 0x100 EXP SWAP1 DIV PUSH1 0xFF AND ISZERO ISZERO SUB PUSH2 0x107D JUMPI PUSH1 0x0 PUSH1 0x2 PUSH1 0x0 ADD PUSH1 0x0 PUSH2 0x100 EXP DUP2 SLOAD DUP2 PUSH1 0xFF MUL NOT AND SWAP1 DUP4 ISZERO ISZERO MUL OR SWAP1 SSTORE POP PUSH1 0x1 PUSH1 0x2 PUSH1 0x0 ADD PUSH1 0x1 PUSH2 0x100 EXP DUP2 SLOAD DUP2 PUSH1 0xFF MUL NOT AND SWAP1 DUP4 ISZERO ISZERO MUL OR SWAP1 SSTORE POP PUSH1 0x1 PUSH1 0x2 PUSH1 0x0 ADD PUSH1 0x2 PUSH2 0x100 EXP DUP2 SLOAD DUP2 PUSH1 0xFF MUL NOT AND SWAP1 DUP4 ISZERO ISZERO MUL OR SWAP1 SSTORE POP PUSH1 0x1 PUSH1 0x2 PUSH1 0x0 ADD PUSH1 0x3 PUSH2 0x100 EXP DUP2 SLOAD DUP2 PUSH1 0xFF MUL NOT AND SWAP1 DUP4 ISZERO ISZERO MUL OR SWAP1 SSTORE POP JUMPDEST JUMPDEST JUMP JUMPDEST PUSH1 0x0 DUP1 PUSH1 0x2 SWAP1 POP DUP1 PUSH1 0x0 ADD PUSH1 0x0 SWAP1 SLOAD SWAP1 PUSH2 0x100 EXP SWAP1 DIV PUSH1 0xFF AND SWAP2 POP POP SWAP1 JUMP JUMPDEST PUSH1 0x1 PUSH1 0x0 SWAP1 SLOAD SWAP1 PUSH2 0x100 EXP SWAP1 DIV PUSH20 0xFFFFFFFFFFFFFFFFFFFFFFFFFFFFFFFFFFFFFFFF AND PUSH20 0xFFFFFFFFFFFFFFFFFFFFFFFFFFFFFFFFFFFFFFFF AND CALLER PUSH20 0xFFFFFFFFFFFFFFFFFFFFFFFFFFFFFFFFFFFFFFFF AND EQ PUSH2 0x10F9 JUMPI PUSH1 0x0 DUP1 REVERT JUMPDEST DUP1 PUSH1 0x2 PUSH1 0x10 ADD PUSH1 0x0 PUSH2 0x100 EXP DUP2 SLOAD DUP2 PUSH20 0xFFFFFFFFFFFFFFFFFFFFFFFFFFFFFFFFFFFFFFFF MUL NOT AND SWAP1 DUP4 PUSH20 0xFFFFFFFFFFFFFFFFFFFFFFFFFFFFFFFFFFFFFFFF AND MUL OR SWAP1 SSTORE POP POP JUMP JUMPDEST PUSH1 0x0 DUP1 PUSH1 0x2 SWAP1 POP DUP1 PUSH1 0xA ADD PUSH1 0x0 SWAP1 SLOAD SWAP1 PUSH2 0x100 EXP SWAP1 DIV PUSH20 0xFFFFFFFFFFFFFFFFFFFFFFFFFFFFFFFFFFFFFFFF AND SWAP2 POP POP SWAP1 JUMP JUMPDEST PUSH1 0x1 PUSH1 0x0 SWAP1 SLOAD SWAP1 PUSH2 0x100 EXP SWAP1 DIV PUSH20 0xFFFFFFFFFFFFFFFFFFFFFFFFFFFFFFFFFFFFFFFF AND PUSH20 0xFFFFFFFFFFFFFFFFFFFFFFFFFFFFFFFFFFFFFFFF AND CALLER PUSH20 0xFFFFFFFFFFFFFFFFFFFFFFFFFFFFFFFFFFFFFFFF AND EQ PUSH2 0x11CC JUMPI PUSH1 0x0 DUP1 REVERT JUMPDEST DUP1 PUSH1 0x2 PUSH1 0xA ADD PUSH1 0x0 PUSH2 0x100 EXP DUP2 SLOAD DUP2 PUSH20 0xFFFFFFFFFFFFFFFFFFFFFFFFFFFFFFFFFFFFFFFF MUL NOT AND SWAP1 DUP4 PUSH20 0xFFFFFFFFFFFFFFFFFFFFFFFFFFFFFFFFFFFFFFFF AND MUL OR SWAP1 SSTORE POP POP JUMP JUMPDEST PUSH1 0x0 DUP1 PUSH1 0x2 SWAP1 POP DUP1 PUSH1 0x1 ADD PUSH1 0x0 SWAP1 SLOAD SWAP1 PUSH2 0x100 EXP SWAP1 DIV PUSH20 0xFFFFFFFFFFFFFFFFFFFFFFFFFFFFFFFFFFFFFFFF AND SWAP2 POP POP SWAP1 JUMP JUMPDEST PUSH1 0x1 PUSH1 0x0 SWAP1 SLOAD SWAP1 PUSH2 0x100 EXP SWAP1 DIV PUSH20 0xFFFFFFFFFFFFFFFFFFFFFFFFFFFFFFFFFFFFFFFF AND PUSH20 0xFFFFFFFFFFFFFFFFFFFFFFFFFFFFFFFFFFFFFFFF AND CALLER PUSH20 0xFFFFFFFFFFFFFFFFFFFFFFFFFFFFFFFFFFFFFFFF AND EQ PUSH2 0x129F JUMPI PUSH1 0x0 DUP1 REVERT JUMPDEST DUP1 PUSH1 0x2 PUSH1 0x1 ADD PUSH1 0x0 PUSH2 0x100 EXP DUP2 SLOAD DUP2 PUSH20 0xFFFFFFFFFFFFFFFFFFFFFFFFFFFFFFFFFFFFFFFF MUL NOT AND SWAP1 DUP4 PUSH20 0xFFFFFFFFFFFFFFFFFFFFFFFFFFFFFFFFFFFFFFFF AND MUL OR SWAP1 SSTORE POP POP JUMP JUMPDEST PUSH1 0x40 MLOAD DUP1 PUSH2 0x2C0 ADD PUSH1 0x40 MSTORE DUP1 PUSH1 0x0 ISZERO ISZERO DUP2 MSTORE PUSH1 0x20 ADD PUSH1 0x0 ISZERO ISZERO DUP2 MSTORE PUSH1 0x20 ADD PUSH1 0x0 ISZERO ISZERO DUP2 MSTORE PUSH1 0x20 ADD PUSH1 0x0 ISZERO ISZERO DUP2 MSTORE PUSH1 0x20 ADD PUSH1 0x0 PUSH20 0xFFFFFFFFFFFFFFFFFFFFFFFFFFFFFFFFFFFFFFFF AND DUP2 MSTORE PUSH1 0x20 ADD PUSH1 0x0 PUSH20 0xFFFFFFFFFFFFFFFFFFFFFFFFFFFFFFFFFFFFFFFF AND DUP2 MSTORE PUSH1 0x20 ADD PUSH1 0x0 PUSH20 0xFFFFFFFFFFFFFFFFFFFFFFFFFFFFFFFFFFFFFFFF AND DUP2 MSTORE PUSH1 0x20 ADD PUSH1 0x0 PUSH20 0xFFFFFFFFFFFFFFFFFFFFFFFFFFFFFFFFFFFFFFFF AND DUP2 MSTORE PUSH1 0x20 ADD PUSH1 0x0 PUSH20 0xFFFFFFFFFFFFFFFFFFFFFFFFFFFFFFFFFFFFFFFF AND DUP2 MSTORE PUSH1 0x20 ADD PUSH1 0x0 PUSH20 0xFFFFFFFFFFFFFFFFFFFFFFFFFFFFFFFFFFFFFFFF AND DUP2 MSTORE PUSH1 0x20 ADD PUSH1 0x0 PUSH20 0xFFFFFFFFFFFFFFFFFFFFFFFFFFFFFFFFFFFFFFFF AND DUP2 MSTORE PUSH1 0x20 ADD PUSH1 0x0 PUSH20 0xFFFFFFFFFFFFFFFFFFFFFFFFFFFFFFFFFFFFFFFF AND DUP2 MSTORE PUSH1 0x20 ADD PUSH1 0x0 PUSH20 0xFFFFFFFFFFFFFFFFFFFFFFFFFFFFFFFFFFFFFFFF AND DUP2 MSTORE PUSH1 0x20 ADD PUSH1 0x0 PUSH20 0xFFFFFFFFFFFFFFFFFFFFFFFFFFFFFFFFFFFFFFFF AND DUP2 MSTORE PUSH1 0x20 ADD PUSH1 0x0 PUSH20 0xFFFFFFFFFFFFFFFFFFFFFFFFFFFFFFFFFFFFFFFF AND DUP2 MSTORE PUSH1 0x20 ADD PUSH1 0x0 PUSH20 0xFFFFFFFFFFFFFFFFFFFFFFFFFFFFFFFFFFFFFFFF AND DUP2 MSTORE PUSH1 0x20 ADD PUSH1 0x0 PUSH20 0xFFFFFFFFFFFFFFFFFFFFFFFFFFFFFFFFFFFFFFFF AND DUP2 MSTORE PUSH1 0x20 ADD PUSH1 0x0 PUSH20 0xFFFFFFFFFFFFFFFFFFFFFFFFFFFFFFFFFFFFFFFF AND DUP2 MSTORE PUSH1 0x20 ADD PUSH1 0x0 PUSH20 0xFFFFFFFFFFFFFFFFFFFFFFFFFFFFFFFFFFFFFFFF AND DUP2 MSTORE PUSH1 0x20 ADD PUSH1 0x0 PUSH20 0xFFFFFFFFFFFFFFFFFFFFFFFFFFFFFFFFFFFFFFFF AND DUP2 MSTORE PUSH1 0x20 ADD PUSH1 0x0 PUSH20 0xFFFFFFFFFFFFFFFFFFFFFFFFFFFFFFFFFFFFFFFF AND DUP2 MSTORE PUSH1 0x20 ADD PUSH1 0x0 PUSH20 0xFFFFFFFFFFFFFFFFFFFFFFFFFFFFFFFFFFFFFFFF AND DUP2 MSTORE POP SWAP1 JUMP JUMPDEST PUSH1 0x0 DUP1 REVERT JUMPDEST PUSH1 0x0 PUSH20 0xFFFFFFFFFFFFFFFFFFFFFFFFFFFFFFFFFFFFFFFF DUP3 AND SWAP1 POP SWAP2 SWAP1 POP JUMP JUMPDEST PUSH1 0x0 PUSH2 0x1551 DUP3 PUSH2 0x1526 JUMP JUMPDEST SWAP1 POP SWAP2 SWAP1 POP JUMP JUMPDEST PUSH2 0x1561 DUP2 PUSH2 0x1546 JUMP JUMPDEST DUP2 EQ PUSH2 0x156C JUMPI PUSH1 0x0 DUP1 REVERT JUMPDEST POP JUMP JUMPDEST PUSH1 0x0 DUP2 CALLDATALOAD SWAP1 POP PUSH2 0x157E DUP2 PUSH2 0x1558 JUMP JUMPDEST SWAP3 SWAP2 POP POP JUMP JUMPDEST PUSH1 0x0 PUSH1 0x20 DUP3 DUP5 SUB SLT ISZERO PUSH2 0x159A JUMPI PUSH2 0x1599 PUSH2 0x1521 JUMP JUMPDEST JUMPDEST PUSH1 0x0 PUSH2 0x15A8 DUP5 DUP3 DUP6 ADD PUSH2 0x156F JUMP JUMPDEST SWAP2 POP POP SWAP3 SWAP2 POP POP JUMP JUMPDEST PUSH1 0x0 DUP2 ISZERO ISZERO SWAP1 POP SWAP2 SWAP1 POP JUMP JUMPDEST PUSH2 0x15C6 DUP2 PUSH2 0x15B1 JUMP JUMPDEST DUP3 MSTORE POP POP JUMP JUMPDEST PUSH1 0x0 PUSH1 0x20 DUP3 ADD SWAP1 POP PUSH2 0x15E1 PUSH1 0x0 DUP4 ADD DUP5 PUSH2 0x15BD JUMP JUMPDEST SWAP3 SWAP2 POP POP JUMP JUMPDEST PUSH2 0x15F0 DUP2 PUSH2 0x1546 JUMP JUMPDEST DUP3 MSTORE POP POP JUMP JUMPDEST PUSH1 0x0 PUSH1 0x20 DUP3 ADD SWAP1 POP PUSH2 0x160B PUSH1 0x0 DUP4 ADD DUP5 PUSH2 0x15E7 JUMP JUMPDEST SWAP3 SWAP2 POP POP JUMP JUMPDEST PUSH2 0x161A DUP2 PUSH2 0x15B1 JUMP JUMPDEST DUP3 MSTORE POP POP JUMP JUMPDEST PUSH2 0x1629 DUP2 PUSH2 0x1546 JUMP JUMPDEST DUP3 MSTORE POP POP JUMP JUMPDEST PUSH2 0x2C0 DUP3 ADD PUSH1 0x0 DUP3 ADD MLOAD PUSH2 0x1646 PUSH1 0x0 DUP6 ADD DUP3 PUSH2 0x1611 JUMP JUMPDEST POP PUSH1 0x20 DUP3 ADD MLOAD PUSH2 0x1659 PUSH1 0x20 DUP6 ADD DUP3 PUSH2 0x1611 JUMP JUMPDEST POP PUSH1 0x40 DUP3 ADD MLOAD PUSH2 0x166C PUSH1 0x40 DUP6 ADD DUP3 PUSH2 0x1611 JUMP JUMPDEST POP PUSH1 0x60 DUP3 ADD MLOAD PUSH2 0x167F PUSH1 0x60 DUP6 ADD DUP3 PUSH2 0x1611 JUMP JUMPDEST POP PUSH1 0x80 DUP3 ADD MLOAD PUSH2 0x1692 PUSH1 0x80 DUP6 ADD DUP3 PUSH2 0x1620 JUMP JUMPDEST POP PUSH1 0xA0 DUP3 ADD MLOAD PUSH2 0x16A5 PUSH1 0xA0 DUP6 ADD DUP3 PUSH2 0x1620 JUMP JUMPDEST POP PUSH1 0xC0 DUP3 ADD MLOAD PUSH2 0x16B8 PUSH1 0xC0 DUP6 ADD DUP3 PUSH2 0x1620 JUMP JUMPDEST POP PUSH1 0xE0 DUP3 ADD MLOAD PUSH2 0x16CB PUSH1 0xE0 DUP6 ADD DUP3 PUSH2 0x1620 JUMP JUMPDEST POP PUSH2 0x100 DUP3 ADD MLOAD PUSH2 0x16E0 PUSH2 0x100 DUP6 ADD DUP3 PUSH2 0x1620 JUMP JUMPDEST POP PUSH2 0x120 DUP3 ADD MLOAD PUSH2 0x16F5 PUSH2 0x120 DUP6 ADD DUP3 PUSH2 0x1620 JUMP JUMPDEST POP PUSH2 0x140 DUP3 ADD MLOAD PUSH2 0x170A PUSH2 0x140 DUP6 ADD DUP3 PUSH2 0x1620 JUMP JUMPDEST POP PUSH2 0x160 DUP3 ADD MLOAD PUSH2 0x171F PUSH2 0x160 DUP6 ADD DUP3 PUSH2 0x1620 JUMP JUMPDEST POP PUSH2 0x180 DUP3 ADD MLOAD PUSH2 0x1734 PUSH2 0x180 DUP6 ADD DUP3 PUSH2 0x1620 JUMP JUMPDEST POP PUSH2 0x1A0 DUP3 ADD MLOAD PUSH2 0x1749 PUSH2 0x1A0 DUP6 ADD DUP3 PUSH2 0x1620 JUMP JUMPDEST POP PUSH2 0x1C0 DUP3 ADD MLOAD PUSH2 0x175E PUSH2 0x1C0 DUP6 ADD DUP3 PUSH2 0x1620 JUMP JUMPDEST POP PUSH2 0x1E0 DUP3 ADD MLOAD PUSH2 0x1773 PUSH2 0x1E0 DUP6 ADD DUP3 PUSH2 0x1620 JUMP JUMPDEST POP PUSH2 0x200 DUP3 ADD MLOAD PUSH2 0x1788 PUSH2 0x200 DUP6 ADD DUP3 PUSH2 0x1620 JUMP JUMPDEST POP PUSH2 0x220 DUP3 ADD MLOAD PUSH2 0x179D PUSH2 0x220 DUP6 ADD DUP3 PUSH2 0x1620 JUMP JUMPDEST POP PUSH2 0x240 DUP3 ADD MLOAD PUSH2 0x17B2 PUSH2 0x240 DUP6 ADD DUP3 PUSH2 0x1620 JUMP JUMPDEST POP PUSH2 0x260 DUP3 ADD MLOAD PUSH2 0x17C7 PUSH2 0x260 DUP6 ADD DUP3 PUSH2 0x1620 JUMP JUMPDEST POP PUSH2 0x280 DUP3 ADD MLOAD PUSH2 0x17DC PUSH2 0x280 DUP6 ADD DUP3 PUSH2 0x1620 JUMP JUMPDEST POP PUSH2 0x2A0 DUP3 ADD MLOAD PUSH2 0x17F1 PUSH2 0x2A0 DUP6 ADD DUP3 PUSH2 0x1620 JUMP JUMPDEST POP POP POP POP JUMP JUMPDEST PUSH1 0x0 PUSH2 0x2C0 DUP3 ADD SWAP1 POP PUSH2 0x180D PUSH1 0x0 DUP4 ADD DUP5 PUSH2 0x162F JUMP JUMPDEST SWAP3 SWAP2 POP POP JUMP INVALID LOG2 PUSH5 0x6970667358 0x22 SLT KECCAK256 SLOAD 0xD8 0x5F 0xCC PUSH32 0xDD2AD441CBC52C6E7DDA25E5EDA5ACC6961A978911FB16313474E764736F6C63 NUMBER STOP ADDMOD LT STOP CALLER "
				},
				"gasEstimates": {
					"creation": {
						"codeDepositCost": "1243400",
						"executionCost": "582567",
						"totalCost": "1825967"
					},
					"external": {
						"gameProfitsGalacticSettingsCurrent()": "2608",
						"ichoroniumFinanceSettingsCurrent()": "2653",
						"ichoroniumGalacticMeteaverseCurrent()": "2585",
						"ichoroniumNetworkPermissionsCurrent()": "2608",
						"ichoroniumNetworkProfilesCurrent()": "2629",
						"ichoroniumReturnSettings()": "infinite",
						"isNetworkActive()": "2609",
						"isNetworkIsCoolingDown()": "2593",
						"isNetworkIsDeactive()": "2571",
						"killswitch()": "2616",
						"killswitchActivate()": "104100",
						"switchgameProfitsGalacticSettingsCurrent(address)": "26921",
						"switchichoroniumCloudSettingsCurrent(address)": "26920",
						"switchichoroniumFinanceSettingsCurrent(address)": "26944",
						"switchichoroniumGalacticMeteaverseCurrent(address)": "26964",
						"switchichoroniumNetworkPermissionsCurrent(address)": "26943",
						"switchichoroniumNetworkProfilesCurrent(address)": "27008",
						"switchisNetworkActive()": "53209",
						"switchisNetworkIsCoolingDown()": "31182",
						"switchisNetworkIsDeactive()": "31116"
					}
				},
				"methodIdentifiers": {
					"gameProfitsGalacticSettingsCurrent()": "6ef6346f",
					"ichoroniumFinanceSettingsCurrent()": "5d0d3816",
					"ichoroniumGalacticMeteaverseCurrent()": "bfed3cf2",
					"ichoroniumNetworkPermissionsCurrent()": "96d54ebe",
					"ichoroniumNetworkProfilesCurrent()": "e6a52e8a",
					"ichoroniumReturnSettings()": "7f0b2e7d",
					"isNetworkActive()": "b343c438",
					"isNetworkIsCoolingDown()": "8df57580",
					"isNetworkIsDeactive()": "64aa0754",
					"killswitch()": "42dd96f7",
					"killswitchActivate()": "ae35cfa2",
					"switchgameProfitsGalacticSettingsCurrent(address)": "8c920bd3",
					"switchichoroniumCloudSettingsCurrent(address)": "b4840993",
					"switchichoroniumFinanceSettingsCurrent(address)": "3d3e8321",
					"switchichoroniumGalacticMeteaverseCurrent(address)": "d468fdf4",
					"switchichoroniumNetworkPermissionsCurrent(address)": "6bc5b0c4",
					"switchichoroniumNetworkProfilesCurrent(address)": "f23e9c3b",
					"switchisNetworkActive()": "85ff6e63",
					"switchisNetworkIsCoolingDown()": "45769e25",
					"switchisNetworkIsDeactive()": "12902cd8"
				}
			},
			"storageLayout": {
				"storage": [
					{
						"astId": 3,
						"contract": "ichoronium-galactic-contracts/governence/ichoroniumNetworkSettings.sol:ichoroniumNetworkSettings",
						"label": "todaysDate",
						"offset": 0,
						"slot": "0",
						"type": "t_uint256"
					},
					{
						"astId": 5,
						"contract": "ichoronium-galactic-contracts/governence/ichoroniumNetworkSettings.sol:ichoroniumNetworkSettings",
						"label": "owner",
						"offset": 0,
						"slot": "1",
						"type": "t_address"
					},
					{
						"astId": 43,
						"contract": "ichoronium-galactic-contracts/governence/ichoroniumNetworkSettings.sol:ichoroniumNetworkSettings",
						"label": "ichoroniumSettings",
						"offset": 0,
						"slot": "2",
						"type": "t_struct(networkSettings)470_storage"
					}
				],
				"types": {
					"t_address": {
						"encoding": "inplace",
						"label": "address",
						"numberOfBytes": "20"
					},
					"t_bool": {
						"encoding": "inplace",
						"label": "bool",
						"numberOfBytes": "1"
					},
					"t_struct(networkSettings)470_storage": {
						"encoding": "inplace",
						"label": "struct ichoroniumNetworkSettings.networkSettings",
						"members": [
							{
								"astId": 427,
								"contract": "ichoronium-galactic-contracts/governence/ichoroniumNetworkSettings.sol:ichoroniumNetworkSettings",
								"label": "isNetworkActive",
								"offset": 0,
								"slot": "0",
								"type": "t_bool"
							},
							{
								"astId": 429,
								"contract": "ichoronium-galactic-contracts/governence/ichoroniumNetworkSettings.sol:ichoroniumNetworkSettings",
								"label": "isNetworkIsCoolingDown",
								"offset": 1,
								"slot": "0",
								"type": "t_bool"
							},
							{
								"astId": 431,
								"contract": "ichoronium-galactic-contracts/governence/ichoroniumNetworkSettings.sol:ichoroniumNetworkSettings",
								"label": "isNetworkIsDeactive",
								"offset": 2,
								"slot": "0",
								"type": "t_bool"
							},
							{
								"astId": 433,
								"contract": "ichoronium-galactic-contracts/governence/ichoroniumNetworkSettings.sol:ichoroniumNetworkSettings",
								"label": "killswitch",
								"offset": 3,
								"slot": "0",
								"type": "t_bool"
							},
							{
								"astId": 435,
								"contract": "ichoronium-galactic-contracts/governence/ichoroniumNetworkSettings.sol:ichoroniumNetworkSettings",
								"label": "ichoroniumNetworkProfilesPrevious",
								"offset": 4,
								"slot": "0",
								"type": "t_address"
							},
							{
								"astId": 437,
								"contract": "ichoronium-galactic-contracts/governence/ichoroniumNetworkSettings.sol:ichoroniumNetworkSettings",
								"label": "ichoroniumNetworkProfilesCurrent",
								"offset": 0,
								"slot": "1",
								"type": "t_address"
							},
							{
								"astId": 439,
								"contract": "ichoronium-galactic-contracts/governence/ichoroniumNetworkSettings.sol:ichoroniumNetworkSettings",
								"label": "ichoroniumNetworkProfilesUpgradeProposal",
								"offset": 0,
								"slot": "2",
								"type": "t_address"
							},
							{
								"astId": 441,
								"contract": "ichoronium-galactic-contracts/governence/ichoroniumNetworkSettings.sol:ichoroniumNetworkSettings",
								"label": "ichoroniumNetworkPermissionsPrevious",
								"offset": 0,
								"slot": "3",
								"type": "t_address"
							},
							{
								"astId": 443,
								"contract": "ichoronium-galactic-contracts/governence/ichoroniumNetworkSettings.sol:ichoroniumNetworkSettings",
								"label": "ichoroniumNetworkPermissionsCurrent",
								"offset": 0,
								"slot": "4",
								"type": "t_address"
							},
							{
								"astId": 445,
								"contract": "ichoronium-galactic-contracts/governence/ichoroniumNetworkSettings.sol:ichoroniumNetworkSettings",
								"label": "ichoroniumNetworkPermissionsUpgradeProposal",
								"offset": 0,
								"slot": "5",
								"type": "t_address"
							},
							{
								"astId": 447,
								"contract": "ichoronium-galactic-contracts/governence/ichoroniumNetworkSettings.sol:ichoroniumNetworkSettings",
								"label": "gameProfitsGalacticSettingsPrevious",
								"offset": 0,
								"slot": "6",
								"type": "t_address"
							},
							{
								"astId": 449,
								"contract": "ichoronium-galactic-contracts/governence/ichoroniumNetworkSettings.sol:ichoroniumNetworkSettings",
								"label": "gameProfitsGalacticSettingsCurrent",
								"offset": 0,
								"slot": "7",
								"type": "t_address"
							},
							{
								"astId": 451,
								"contract": "ichoronium-galactic-contracts/governence/ichoroniumNetworkSettings.sol:ichoroniumNetworkSettings",
								"label": "gameProfitsGalacticSettingsUpgradeProposal",
								"offset": 0,
								"slot": "8",
								"type": "t_address"
							},
							{
								"astId": 453,
								"contract": "ichoronium-galactic-contracts/governence/ichoroniumNetworkSettings.sol:ichoroniumNetworkSettings",
								"label": "ichoroniumGalacticMeteaversePrevious",
								"offset": 0,
								"slot": "9",
								"type": "t_address"
							},
							{
								"astId": 455,
								"contract": "ichoronium-galactic-contracts/governence/ichoroniumNetworkSettings.sol:ichoroniumNetworkSettings",
								"label": "ichoroniumGalacticMeteaverseCurrent",
								"offset": 0,
								"slot": "10",
								"type": "t_address"
							},
							{
								"astId": 457,
								"contract": "ichoronium-galactic-contracts/governence/ichoroniumNetworkSettings.sol:ichoroniumNetworkSettings",
								"label": "ichoroniumGalacticMeteaverseUpgradeProposal",
								"offset": 0,
								"slot": "11",
								"type": "t_address"
							},
							{
								"astId": 459,
								"contract": "ichoronium-galactic-contracts/governence/ichoroniumNetworkSettings.sol:ichoroniumNetworkSettings",
								"label": "ichoroniumFinanceSettingsPrevious",
								"offset": 0,
								"slot": "12",
								"type": "t_address"
							},
							{
								"astId": 461,
								"contract": "ichoronium-galactic-contracts/governence/ichoroniumNetworkSettings.sol:ichoroniumNetworkSettings",
								"label": "ichoroniumFinanceSettingsCurrent",
								"offset": 0,
								"slot": "13",
								"type": "t_address"
							},
							{
								"astId": 463,
								"contract": "ichoronium-galactic-contracts/governence/ichoroniumNetworkSettings.sol:ichoroniumNetworkSettings",
								"label": "ichoroniumFinanceSettingsUpgradeProposal",
								"offset": 0,
								"slot": "14",
								"type": "t_address"
							},
							{
								"astId": 465,
								"contract": "ichoronium-galactic-contracts/governence/ichoroniumNetworkSettings.sol:ichoroniumNetworkSettings",
								"label": "ichoroniumCloudSettingsPrevious",
								"offset": 0,
								"slot": "15",
								"type": "t_address"
							},
							{
								"astId": 467,
								"contract": "ichoronium-galactic-contracts/governence/ichoroniumNetworkSettings.sol:ichoroniumNetworkSettings",
								"label": "ichoroniumCloudSettingsCurrent",
								"offset": 0,
								"slot": "16",
								"type": "t_address"
							},
							{
								"astId": 469,
								"contract": "ichoronium-galactic-contracts/governence/ichoroniumNetworkSettings.sol:ichoroniumNetworkSettings",
								"label": "ichoroniumCloudSettingsUpgradeProposal",
								"offset": 0,
								"slot": "17",
								"type": "t_address"
							}
						],
						"numberOfBytes": "576"
					},
					"t_uint256": {
						"encoding": "inplace",
						"label": "uint256",
						"numberOfBytes": "32"
					}
				}
			},
			"userdoc": {
				"kind": "user",
				"methods": {},
				"version": 1
			}
		}
	}
}