{
	"ichoronium-galactic-contracts/governence/ichoroniumNetworkSettings.sol": {
		"ichoroniumNetworkSettings": {
			"abi": [
				{
					"inputs": [],
					"stateMutability": "nonpayable",
					"type": "constructor"
				},
				{
					"inputs": [],
					"name": "gameProfitsGalacticSettingsCurrent",
					"outputs": [
						{
							"internalType": "address",
							"name": "",
							"type": "address"
						}
					],
					"stateMutability": "view",
					"type": "function"
				},
				{
					"inputs": [],
					"name": "ichoroniumFinanceSettingsCurrent",
					"outputs": [
						{
							"internalType": "address",
							"name": "",
							"type": "address"
						}
					],
					"stateMutability": "view",
					"type": "function"
				},
				{
					"inputs": [],
					"name": "ichoroniumGalacticMeteaverseCurrent",
					"outputs": [
						{
							"internalType": "address",
							"name": "",
							"type": "address"
						}
					],
					"stateMutability": "view",
					"type": "function"
				},
				{
					"inputs": [],
					"name": "ichoroniumNetworkPermissionsCurrent",
					"outputs": [
						{
							"internalType": "address",
							"name": "",
							"type": "address"
						}
					],
					"stateMutability": "view",
					"type": "function"
				},
				{
					"inputs": [],
					"name": "ichoroniumNetworkProfilesCurrent",
					"outputs": [
						{
							"internalType": "address",
							"name": "",
							"type": "address"
						}
					],
					"stateMutability": "view",
					"type": "function"
				},
				{
					"inputs": [],
					"name": "ichoroniumReturnSettings",
					"outputs": [
						{
							"components": [
								{
									"internalType": "bool",
									"name": "isNetworkActive",
									"type": "bool"
								},
								{
									"internalType": "bool",
									"name": "isNetworkIsCoolingDown",
									"type": "bool"
								},
								{
									"internalType": "bool",
									"name": "isNetworkIsDeactive",
									"type": "bool"
								},
								{
									"internalType": "bool",
									"name": "killswitch",
									"type": "bool"
								},
								{
									"internalType": "address",
									"name": "ichoroniumNetworkProfilesPrevious",
									"type": "address"
								},
								{
									"internalType": "address",
									"name": "ichoroniumNetworkProfilesCurrent",
									"type": "address"
								},
								{
									"internalType": "address",
									"name": "ichoroniumNetworkProfilesUpgradeProposal",
									"type": "address"
								},
								{
									"internalType": "address",
									"name": "ichoroniumNetworkPermissionsPrevious",
									"type": "address"
								},
								{
									"internalType": "address",
									"name": "ichoroniumNetworkPermissionsCurrent",
									"type": "address"
								},
								{
									"internalType": "address",
									"name": "ichoroniumNetworkPermissionsUpgradeProposal",
									"type": "address"
								},
								{
									"internalType": "address",
									"name": "gameProfitsGalacticSettingsPrevious",
									"type": "address"
								},
								{
									"internalType": "address",
									"name": "gameProfitsGalacticSettingsCurrent",
									"type": "address"
								},
								{
									"internalType": "address",
									"name": "gameProfitsGalacticSettingsUpgradeProposal",
									"type": "address"
								},
								{
									"internalType": "address",
									"name": "ichoroniumGalacticMeteaversePrevious",
									"type": "address"
								},
								{
									"internalType": "address",
									"name": "ichoroniumGalacticMeteaverseCurrent",
									"type": "address"
								},
								{
									"internalType": "address",
									"name": "ichoroniumGalacticMeteaverseUpgradeProposal",
									"type": "address"
								},
								{
									"internalType": "address",
									"name": "ichoroniumFinanceSettingsPrevious",
									"type": "address"
								},
								{
									"internalType": "address",
									"name": "ichoroniumFinanceSettingsCurrent",
									"type": "address"
								},
								{
									"internalType": "address",
									"name": "ichoroniumFinanceSettingsUpgradeProposal",
									"type": "address"
								},
								{
									"internalType": "address",
									"name": "ichoroniumCloudSettingsPrevious",
									"type": "address"
								},
								{
									"internalType": "address",
									"name": "ichoroniumCloudSettingsCurrent",
									"type": "address"
								},
								{
									"internalType": "address",
									"name": "ichoroniumCloudSettingsUpgradeProposal",
									"type": "address"
								}
							],
							"internalType": "struct ichoroniumNetworkSettings.networkSettings",
							"name": "networkSetting",
							"type": "tuple"
						}
					],
					"stateMutability": "view",
					"type": "function"
				},
				{
					"inputs": [],
					"name": "isNetworkActive",
					"outputs": [
						{
							"internalType": "bool",
							"name": "",
							"type": "bool"
						}
					],
					"stateMutability": "view",
					"type": "function"
				},
				{
					"inputs": [],
					"name": "isNetworkIsCoolingDown",
					"outputs": [
						{
							"internalType": "bool",
							"name": "",
							"type": "bool"
						}
					],
					"stateMutability": "view",
					"type": "function"
				},
				{
					"inputs": [],
					"name": "isNetworkIsDeactive",
					"outputs": [
						{
							"internalType": "bool",
							"name": "",
							"type": "bool"
						}
					],
					"stateMutability": "view",
					"type": "function"
				},
				{
					"inputs": [],
					"name": "killswitch",
					"outputs": [
						{
							"internalType": "bool",
							"name": "",
							"type": "bool"
						}
					],
					"stateMutability": "view",
					"type": "function"
				},
				{
					"inputs": [
						{
							"internalType": "address",
							"name": "newSetting",
							"type": "address"
						}
					],
					"name": "switchgameProfitsGalacticSettingsCurrent",
					"outputs": [],
					"stateMutability": "nonpayable",
					"type": "function"
				},
				{
					"inputs": [
						{
							"internalType": "address",
							"name": "newSetting",
							"type": "address"
						}
					],
					"name": "switchichoroniumCloudSettingsCurrent",
					"outputs": [],
					"stateMutability": "nonpayable",
					"type": "function"
				},
				{
					"inputs": [
						{
							"internalType": "address",
							"name": "newSetting",
							"type": "address"
						}
					],
					"name": "switchichoroniumFinanceSettingsCurrent",
					"outputs": [],
					"stateMutability": "nonpayable",
					"type": "function"
				},
				{
					"inputs": [
						{
							"internalType": "address",
							"name": "newSetting",
							"type": "address"
						}
					],
					"name": "switchichoroniumGalacticMeteaverseCurrent",
					"outputs": [],
					"stateMutability": "nonpayable",
					"type": "function"
				},
				{
					"inputs": [
						{
							"internalType": "address",
							"name": "newSetting",
							"type": "address"
						}
					],
					"name": "switchichoroniumNetworkPermissionsCurrent",
					"outputs": [],
					"stateMutability": "nonpayable",
					"type": "function"
				},
				{
					"inputs": [
						{
							"internalType": "address",
							"name": "newSetting",
							"type": "address"
						}
					],
					"name": "switchichoroniumNetworkProfilesCurrent",
					"outputs": [],
					"stateMutability": "nonpayable",
					"type": "function"
				}
			],
			"devdoc": {
				"kind": "dev",
				"methods": {},
				"version": 1
			},
			"evm": {
				"assembly": "    /* \"ichoronium-galactic-contracts/governence/ichoroniumNetworkSettings.sol\":87:5934  contract ichoroniumNetworkSettings {... */\n  mstore(0x40, 0x80)\n    /* \"ichoronium-galactic-contracts/governence/ichoroniumNetworkSettings.sol\":280:1093  networkSettings(false,false,true,false,0x0000000000000000000000000000000000000000,0x0000000000000000000000000000000000000000,0x0000000000000000000000000000000000000000,0x0000000000000000000000000000000000000000,0x0000000000000000000000000000000000000000,0x0000000000000000000000000000000000000000,0x0000000000000000000000000000000000000000,0x0000000000000000000000000000000000000000,0x0000000000000000000000000000000000000000,0x0000000000000000000000000000000000000000,0x0000000000000000000000000000000000000000,0x0000000000000000000000000000000000000000,0x0000000000000000000000000000000000000000,0x0000000000000000000000000000000000000000,0x0000000000000000000000000000000000000000,0x0000000000000000000000000000000000000000,0x0000000000000000000000000000000000000000,0x0000000000000000000000000000000000000000) */\n  mload(0x40)\n  dup1\n  0x02c0\n  add\n  0x40\n  mstore\n  dup1\n    /* \"ichoronium-galactic-contracts/governence/ichoroniumNetworkSettings.sol\":296:301  false */\n  0x00\n    /* \"ichoronium-galactic-contracts/governence/ichoroniumNetworkSettings.sol\":280:1093  networkSettings(false,false,true,false,0x0000000000000000000000000000000000000000,0x0000000000000000000000000000000000000000,0x0000000000000000000000000000000000000000,0x0000000000000000000000000000000000000000,0x0000000000000000000000000000000000000000,0x0000000000000000000000000000000000000000,0x0000000000000000000000000000000000000000,0x0000000000000000000000000000000000000000,0x0000000000000000000000000000000000000000,0x0000000000000000000000000000000000000000,0x0000000000000000000000000000000000000000,0x0000000000000000000000000000000000000000,0x0000000000000000000000000000000000000000,0x0000000000000000000000000000000000000000,0x0000000000000000000000000000000000000000,0x0000000000000000000000000000000000000000,0x0000000000000000000000000000000000000000,0x0000000000000000000000000000000000000000) */\n  iszero\n  iszero\n  dup2\n  mstore\n  0x20\n  add\n    /* \"ichoronium-galactic-contracts/governence/ichoroniumNetworkSettings.sol\":302:307  false */\n  0x00\n    /* \"ichoronium-galactic-contracts/governence/ichoroniumNetworkSettings.sol\":280:1093  networkSettings(false,false,true,false,0x0000000000000000000000000000000000000000,0x0000000000000000000000000000000000000000,0x0000000000000000000000000000000000000000,0x0000000000000000000000000000000000000000,0x0000000000000000000000000000000000000000,0x0000000000000000000000000000000000000000,0x0000000000000000000000000000000000000000,0x0000000000000000000000000000000000000000,0x0000000000000000000000000000000000000000,0x0000000000000000000000000000000000000000,0x0000000000000000000000000000000000000000,0x0000000000000000000000000000000000000000,0x0000000000000000000000000000000000000000,0x0000000000000000000000000000000000000000,0x0000000000000000000000000000000000000000,0x0000000000000000000000000000000000000000,0x0000000000000000000000000000000000000000,0x0000000000000000000000000000000000000000) */\n  iszero\n  iszero\n  dup2\n  mstore\n  0x20\n  add\n    /* \"ichoronium-galactic-contracts/governence/ichoroniumNetworkSettings.sol\":308:312  true */\n  0x01\n    /* \"ichoronium-galactic-contracts/governence/ichoroniumNetworkSettings.sol\":280:1093  networkSettings(false,false,true,false,0x0000000000000000000000000000000000000000,0x0000000000000000000000000000000000000000,0x0000000000000000000000000000000000000000,0x0000000000000000000000000000000000000000,0x0000000000000000000000000000000000000000,0x0000000000000000000000000000000000000000,0x0000000000000000000000000000000000000000,0x0000000000000000000000000000000000000000,0x0000000000000000000000000000000000000000,0x0000000000000000000000000000000000000000,0x0000000000000000000000000000000000000000,0x0000000000000000000000000000000000000000,0x0000000000000000000000000000000000000000,0x0000000000000000000000000000000000000000,0x0000000000000000000000000000000000000000,0x0000000000000000000000000000000000000000,0x0000000000000000000000000000000000000000,0x0000000000000000000000000000000000000000) */\n  iszero\n  iszero\n  dup2\n  mstore\n  0x20\n  add\n    /* \"ichoronium-galactic-contracts/governence/ichoroniumNetworkSettings.sol\":313:318  false */\n  0x00\n    /* \"ichoronium-galactic-contracts/governence/ichoroniumNetworkSettings.sol\":280:1093  networkSettings(false,false,true,false,0x0000000000000000000000000000000000000000,0x0000000000000000000000000000000000000000,0x0000000000000000000000000000000000000000,0x0000000000000000000000000000000000000000,0x0000000000000000000000000000000000000000,0x0000000000000000000000000000000000000000,0x0000000000000000000000000000000000000000,0x0000000000000000000000000000000000000000,0x0000000000000000000000000000000000000000,0x0000000000000000000000000000000000000000,0x0000000000000000000000000000000000000000,0x0000000000000000000000000000000000000000,0x0000000000000000000000000000000000000000,0x0000000000000000000000000000000000000000,0x0000000000000000000000000000000000000000,0x0000000000000000000000000000000000000000,0x0000000000000000000000000000000000000000,0x0000000000000000000000000000000000000000) */\n  iszero\n  iszero\n  dup2\n  mstore\n  0x20\n  add\n    /* \"ichoronium-galactic-contracts/governence/ichoroniumNetworkSettings.sol\":319:361  0x0000000000000000000000000000000000000000 */\n  0x00\n    /* \"ichoronium-galactic-contracts/governence/ichoroniumNetworkSettings.sol\":280:1093  networkSettings(false,false,true,false,0x0000000000000000000000000000000000000000,0x0000000000000000000000000000000000000000,0x0000000000000000000000000000000000000000,0x0000000000000000000000000000000000000000,0x0000000000000000000000000000000000000000,0x0000000000000000000000000000000000000000,0x0000000000000000000000000000000000000000,0x0000000000000000000000000000000000000000,0x0000000000000000000000000000000000000000,0x0000000000000000000000000000000000000000,0x0000000000000000000000000000000000000000,0x0000000000000000000000000000000000000000,0x0000000000000000000000000000000000000000,0x0000000000000000000000000000000000000000,0x0000000000000000000000000000000000000000,0x0000000000000000000000000000000000000000,0x0000000000000000000000000000000000000000,0x0000000000000000000000000000000000000000) */\n  0xffffffffffffffffffffffffffffffffffffffff\n  and\n  dup2\n  mstore\n  0x20\n  add\n    /* \"ichoronium-galactic-contracts/governence/ichoroniumNetworkSettings.sol\":362:404  0x0000000000000000000000000000000000000000 */\n  0x00\n    /* \"ichoronium-galactic-contracts/governence/ichoroniumNetworkSettings.sol\":280:1093  networkSettings(false,false,true,false,0x0000000000000000000000000000000000000000,0x0000000000000000000000000000000000000000,0x0000000000000000000000000000000000000000,0x0000000000000000000000000000000000000000,0x0000000000000000000000000000000000000000,0x0000000000000000000000000000000000000000,0x0000000000000000000000000000000000000000,0x0000000000000000000000000000000000000000,0x0000000000000000000000000000000000000000,0x0000000000000000000000000000000000000000,0x0000000000000000000000000000000000000000,0x0000000000000000000000000000000000000000,0x0000000000000000000000000000000000000000,0x0000000000000000000000000000000000000000,0x0000000000000000000000000000000000000000,0x0000000000000000000000000000000000000000,0x0000000000000000000000000000000000000000,0x0000000000000000000000000000000000000000) */\n  0xffffffffffffffffffffffffffffffffffffffff\n  and\n  dup2\n  mstore\n  0x20\n  add\n    /* \"ichoronium-galactic-contracts/governence/ichoroniumNetworkSettings.sol\":405:447  0x0000000000000000000000000000000000000000 */\n  0x00\n    /* \"ichoronium-galactic-contracts/governence/ichoroniumNetworkSettings.sol\":280:1093  networkSettings(false,false,true,false,0x0000000000000000000000000000000000000000,0x0000000000000000000000000000000000000000,0x0000000000000000000000000000000000000000,0x0000000000000000000000000000000000000000,0x0000000000000000000000000000000000000000,0x0000000000000000000000000000000000000000,0x0000000000000000000000000000000000000000,0x0000000000000000000000000000000000000000,0x0000000000000000000000000000000000000000,0x0000000000000000000000000000000000000000,0x0000000000000000000000000000000000000000,0x0000000000000000000000000000000000000000,0x0000000000000000000000000000000000000000,0x0000000000000000000000000000000000000000,0x0000000000000000000000000000000000000000,0x0000000000000000000000000000000000000000,0x0000000000000000000000000000000000000000,0x0000000000000000000000000000000000000000) */\n  0xffffffffffffffffffffffffffffffffffffffff\n  and\n  dup2\n  mstore\n  0x20\n  add\n    /* \"ichoronium-galactic-contracts/governence/ichoroniumNetworkSettings.sol\":448:490  0x0000000000000000000000000000000000000000 */\n  0x00\n    /* \"ichoronium-galactic-contracts/governence/ichoroniumNetworkSettings.sol\":280:1093  networkSettings(false,false,true,false,0x0000000000000000000000000000000000000000,0x0000000000000000000000000000000000000000,0x0000000000000000000000000000000000000000,0x0000000000000000000000000000000000000000,0x0000000000000000000000000000000000000000,0x0000000000000000000000000000000000000000,0x0000000000000000000000000000000000000000,0x0000000000000000000000000000000000000000,0x0000000000000000000000000000000000000000,0x0000000000000000000000000000000000000000,0x0000000000000000000000000000000000000000,0x0000000000000000000000000000000000000000,0x0000000000000000000000000000000000000000,0x0000000000000000000000000000000000000000,0x0000000000000000000000000000000000000000,0x0000000000000000000000000000000000000000,0x0000000000000000000000000000000000000000,0x0000000000000000000000000000000000000000) */\n  0xffffffffffffffffffffffffffffffffffffffff\n  and\n  dup2\n  mstore\n  0x20\n  add\n    /* \"ichoronium-galactic-contracts/governence/ichoroniumNetworkSettings.sol\":491:533  0x0000000000000000000000000000000000000000 */\n  0x00\n    /* \"ichoronium-galactic-contracts/governence/ichoroniumNetworkSettings.sol\":280:1093  networkSettings(false,false,true,false,0x0000000000000000000000000000000000000000,0x0000000000000000000000000000000000000000,0x0000000000000000000000000000000000000000,0x0000000000000000000000000000000000000000,0x0000000000000000000000000000000000000000,0x0000000000000000000000000000000000000000,0x0000000000000000000000000000000000000000,0x0000000000000000000000000000000000000000,0x0000000000000000000000000000000000000000,0x0000000000000000000000000000000000000000,0x0000000000000000000000000000000000000000,0x0000000000000000000000000000000000000000,0x0000000000000000000000000000000000000000,0x0000000000000000000000000000000000000000,0x0000000000000000000000000000000000000000,0x0000000000000000000000000000000000000000,0x0000000000000000000000000000000000000000,0x0000000000000000000000000000000000000000) */\n  0xffffffffffffffffffffffffffffffffffffffff\n  and\n  dup2\n  mstore\n  0x20\n  add\n    /* \"ichoronium-galactic-contracts/governence/ichoroniumNetworkSettings.sol\":534:576  0x0000000000000000000000000000000000000000 */\n  0x00\n    /* \"ichoronium-galactic-contracts/governence/ichoroniumNetworkSettings.sol\":280:1093  networkSettings(false,false,true,false,0x0000000000000000000000000000000000000000,0x0000000000000000000000000000000000000000,0x0000000000000000000000000000000000000000,0x0000000000000000000000000000000000000000,0x0000000000000000000000000000000000000000,0x0000000000000000000000000000000000000000,0x0000000000000000000000000000000000000000,0x0000000000000000000000000000000000000000,0x0000000000000000000000000000000000000000,0x0000000000000000000000000000000000000000,0x0000000000000000000000000000000000000000,0x0000000000000000000000000000000000000000,0x0000000000000000000000000000000000000000,0x0000000000000000000000000000000000000000,0x0000000000000000000000000000000000000000,0x0000000000000000000000000000000000000000,0x0000000000000000000000000000000000000000,0x0000000000000000000000000000000000000000) */\n  0xffffffffffffffffffffffffffffffffffffffff\n  and\n  dup2\n  mstore\n  0x20\n  add\n    /* \"ichoronium-galactic-contracts/governence/ichoroniumNetworkSettings.sol\":577:619  0x0000000000000000000000000000000000000000 */\n  0x00\n    /* \"ichoronium-galactic-contracts/governence/ichoroniumNetworkSettings.sol\":280:1093  networkSettings(false,false,true,false,0x0000000000000000000000000000000000000000,0x0000000000000000000000000000000000000000,0x0000000000000000000000000000000000000000,0x0000000000000000000000000000000000000000,0x0000000000000000000000000000000000000000,0x0000000000000000000000000000000000000000,0x0000000000000000000000000000000000000000,0x0000000000000000000000000000000000000000,0x0000000000000000000000000000000000000000,0x0000000000000000000000000000000000000000,0x0000000000000000000000000000000000000000,0x0000000000000000000000000000000000000000,0x0000000000000000000000000000000000000000,0x0000000000000000000000000000000000000000,0x0000000000000000000000000000000000000000,0x0000000000000000000000000000000000000000,0x0000000000000000000000000000000000000000,0x0000000000000000000000000000000000000000) */\n  0xffffffffffffffffffffffffffffffffffffffff\n  and\n  dup2\n  mstore\n  0x20\n  add\n    /* \"ichoronium-galactic-contracts/governence/ichoroniumNetworkSettings.sol\":620:662  0x0000000000000000000000000000000000000000 */\n  0x00\n    /* \"ichoronium-galactic-contracts/governence/ichoroniumNetworkSettings.sol\":280:1093  networkSettings(false,false,true,false,0x0000000000000000000000000000000000000000,0x0000000000000000000000000000000000000000,0x0000000000000000000000000000000000000000,0x0000000000000000000000000000000000000000,0x0000000000000000000000000000000000000000,0x0000000000000000000000000000000000000000,0x0000000000000000000000000000000000000000,0x0000000000000000000000000000000000000000,0x0000000000000000000000000000000000000000,0x0000000000000000000000000000000000000000,0x0000000000000000000000000000000000000000,0x0000000000000000000000000000000000000000,0x0000000000000000000000000000000000000000,0x0000000000000000000000000000000000000000,0x0000000000000000000000000000000000000000,0x0000000000000000000000000000000000000000,0x0000000000000000000000000000000000000000,0x0000000000000000000000000000000000000000) */\n  0xffffffffffffffffffffffffffffffffffffffff\n  and\n  dup2\n  mstore\n  0x20\n  add\n    /* \"ichoronium-galactic-contracts/governence/ichoroniumNetworkSettings.sol\":663:705  0x0000000000000000000000000000000000000000 */\n  0x00\n    /* \"ichoronium-galactic-contracts/governence/ichoroniumNetworkSettings.sol\":280:1093  networkSettings(false,false,true,false,0x0000000000000000000000000000000000000000,0x0000000000000000000000000000000000000000,0x0000000000000000000000000000000000000000,0x0000000000000000000000000000000000000000,0x0000000000000000000000000000000000000000,0x0000000000000000000000000000000000000000,0x0000000000000000000000000000000000000000,0x0000000000000000000000000000000000000000,0x0000000000000000000000000000000000000000,0x0000000000000000000000000000000000000000,0x0000000000000000000000000000000000000000,0x0000000000000000000000000000000000000000,0x0000000000000000000000000000000000000000,0x0000000000000000000000000000000000000000,0x0000000000000000000000000000000000000000,0x0000000000000000000000000000000000000000,0x0000000000000000000000000000000000000000,0x0000000000000000000000000000000000000000) */\n  0xffffffffffffffffffffffffffffffffffffffff\n  and\n  dup2\n  mstore\n  0x20\n  add\n    /* \"ichoronium-galactic-contracts/governence/ichoroniumNetworkSettings.sol\":706:748  0x0000000000000000000000000000000000000000 */\n  0x00\n    /* \"ichoronium-galactic-contracts/governence/ichoroniumNetworkSettings.sol\":280:1093  networkSettings(false,false,true,false,0x0000000000000000000000000000000000000000,0x0000000000000000000000000000000000000000,0x0000000000000000000000000000000000000000,0x0000000000000000000000000000000000000000,0x0000000000000000000000000000000000000000,0x0000000000000000000000000000000000000000,0x0000000000000000000000000000000000000000,0x0000000000000000000000000000000000000000,0x0000000000000000000000000000000000000000,0x0000000000000000000000000000000000000000,0x0000000000000000000000000000000000000000,0x0000000000000000000000000000000000000000,0x0000000000000000000000000000000000000000,0x0000000000000000000000000000000000000000,0x0000000000000000000000000000000000000000,0x0000000000000000000000000000000000000000,0x0000000000000000000000000000000000000000,0x0000000000000000000000000000000000000000) */\n  0xffffffffffffffffffffffffffffffffffffffff\n  and\n  dup2\n  mstore\n  0x20\n  add\n    /* \"ichoronium-galactic-contracts/governence/ichoroniumNetworkSettings.sol\":749:791  0x0000000000000000000000000000000000000000 */\n  0x00\n    /* \"ichoronium-galactic-contracts/governence/ichoroniumNetworkSettings.sol\":280:1093  networkSettings(false,false,true,false,0x0000000000000000000000000000000000000000,0x0000000000000000000000000000000000000000,0x0000000000000000000000000000000000000000,0x0000000000000000000000000000000000000000,0x0000000000000000000000000000000000000000,0x0000000000000000000000000000000000000000,0x0000000000000000000000000000000000000000,0x0000000000000000000000000000000000000000,0x0000000000000000000000000000000000000000,0x0000000000000000000000000000000000000000,0x0000000000000000000000000000000000000000,0x0000000000000000000000000000000000000000,0x0000000000000000000000000000000000000000,0x0000000000000000000000000000000000000000,0x0000000000000000000000000000000000000000,0x0000000000000000000000000000000000000000,0x0000000000000000000000000000000000000000,0x0000000000000000000000000000000000000000) */\n  0xffffffffffffffffffffffffffffffffffffffff\n  and\n  dup2\n  mstore\n  0x20\n  add\n    /* \"ichoronium-galactic-contracts/governence/ichoroniumNetworkSettings.sol\":792:834  0x0000000000000000000000000000000000000000 */\n  0x00\n    /* \"ichoronium-galactic-contracts/governence/ichoroniumNetworkSettings.sol\":280:1093  networkSettings(false,false,true,false,0x0000000000000000000000000000000000000000,0x0000000000000000000000000000000000000000,0x0000000000000000000000000000000000000000,0x0000000000000000000000000000000000000000,0x0000000000000000000000000000000000000000,0x0000000000000000000000000000000000000000,0x0000000000000000000000000000000000000000,0x0000000000000000000000000000000000000000,0x0000000000000000000000000000000000000000,0x0000000000000000000000000000000000000000,0x0000000000000000000000000000000000000000,0x0000000000000000000000000000000000000000,0x0000000000000000000000000000000000000000,0x0000000000000000000000000000000000000000,0x0000000000000000000000000000000000000000,0x0000000000000000000000000000000000000000,0x0000000000000000000000000000000000000000,0x0000000000000000000000000000000000000000) */\n  0xffffffffffffffffffffffffffffffffffffffff\n  and\n  dup2\n  mstore\n  0x20\n  add\n    /* \"ichoronium-galactic-contracts/governence/ichoroniumNetworkSettings.sol\":835:877  0x0000000000000000000000000000000000000000 */\n  0x00\n    /* \"ichoronium-galactic-contracts/governence/ichoroniumNetworkSettings.sol\":280:1093  networkSettings(false,false,true,false,0x0000000000000000000000000000000000000000,0x0000000000000000000000000000000000000000,0x0000000000000000000000000000000000000000,0x0000000000000000000000000000000000000000,0x0000000000000000000000000000000000000000,0x0000000000000000000000000000000000000000,0x0000000000000000000000000000000000000000,0x0000000000000000000000000000000000000000,0x0000000000000000000000000000000000000000,0x0000000000000000000000000000000000000000,0x0000000000000000000000000000000000000000,0x0000000000000000000000000000000000000000,0x0000000000000000000000000000000000000000,0x0000000000000000000000000000000000000000,0x0000000000000000000000000000000000000000,0x0000000000000000000000000000000000000000,0x0000000000000000000000000000000000000000,0x0000000000000000000000000000000000000000) */\n  0xffffffffffffffffffffffffffffffffffffffff\n  and\n  dup2\n  mstore\n  0x20\n  add\n    /* \"ichoronium-galactic-contracts/governence/ichoroniumNetworkSettings.sol\":878:920  0x0000000000000000000000000000000000000000 */\n  0x00\n    /* \"ichoronium-galactic-contracts/governence/ichoroniumNetworkSettings.sol\":280:1093  networkSettings(false,false,true,false,0x0000000000000000000000000000000000000000,0x0000000000000000000000000000000000000000,0x0000000000000000000000000000000000000000,0x0000000000000000000000000000000000000000,0x0000000000000000000000000000000000000000,0x0000000000000000000000000000000000000000,0x0000000000000000000000000000000000000000,0x0000000000000000000000000000000000000000,0x0000000000000000000000000000000000000000,0x0000000000000000000000000000000000000000,0x0000000000000000000000000000000000000000,0x0000000000000000000000000000000000000000,0x0000000000000000000000000000000000000000,0x0000000000000000000000000000000000000000,0x0000000000000000000000000000000000000000,0x0000000000000000000000000000000000000000,0x0000000000000000000000000000000000000000,0x0000000000000000000000000000000000000000) */\n  0xffffffffffffffffffffffffffffffffffffffff\n  and\n  dup2\n  mstore\n  0x20\n  add\n    /* \"ichoronium-galactic-contracts/governence/ichoroniumNetworkSettings.sol\":921:963  0x0000000000000000000000000000000000000000 */\n  0x00\n    /* \"ichoronium-galactic-contracts/governence/ichoroniumNetworkSettings.sol\":280:1093  networkSettings(false,false,true,false,0x0000000000000000000000000000000000000000,0x0000000000000000000000000000000000000000,0x0000000000000000000000000000000000000000,0x0000000000000000000000000000000000000000,0x0000000000000000000000000000000000000000,0x0000000000000000000000000000000000000000,0x0000000000000000000000000000000000000000,0x0000000000000000000000000000000000000000,0x0000000000000000000000000000000000000000,0x0000000000000000000000000000000000000000,0x0000000000000000000000000000000000000000,0x0000000000000000000000000000000000000000,0x0000000000000000000000000000000000000000,0x0000000000000000000000000000000000000000,0x0000000000000000000000000000000000000000,0x0000000000000000000000000000000000000000,0x0000000000000000000000000000000000000000,0x0000000000000000000000000000000000000000) */\n  0xffffffffffffffffffffffffffffffffffffffff\n  and\n  dup2\n  mstore\n  0x20\n  add\n    /* \"ichoronium-galactic-contracts/governence/ichoroniumNetworkSettings.sol\":964:1006  0x0000000000000000000000000000000000000000 */\n  0x00\n    /* \"ichoronium-galactic-contracts/governence/ichoroniumNetworkSettings.sol\":280:1093  networkSettings(false,false,true,false,0x0000000000000000000000000000000000000000,0x0000000000000000000000000000000000000000,0x0000000000000000000000000000000000000000,0x0000000000000000000000000000000000000000,0x0000000000000000000000000000000000000000,0x0000000000000000000000000000000000000000,0x0000000000000000000000000000000000000000,0x0000000000000000000000000000000000000000,0x0000000000000000000000000000000000000000,0x0000000000000000000000000000000000000000,0x0000000000000000000000000000000000000000,0x0000000000000000000000000000000000000000,0x0000000000000000000000000000000000000000,0x0000000000000000000000000000000000000000,0x0000000000000000000000000000000000000000,0x0000000000000000000000000000000000000000,0x0000000000000000000000000000000000000000,0x0000000000000000000000000000000000000000) */\n  0xffffffffffffffffffffffffffffffffffffffff\n  and\n  dup2\n  mstore\n  0x20\n  add\n    /* \"ichoronium-galactic-contracts/governence/ichoroniumNetworkSettings.sol\":1007:1049  0x0000000000000000000000000000000000000000 */\n  0x00\n    /* \"ichoronium-galactic-contracts/governence/ichoroniumNetworkSettings.sol\":280:1093  networkSettings(false,false,true,false,0x0000000000000000000000000000000000000000,0x0000000000000000000000000000000000000000,0x0000000000000000000000000000000000000000,0x0000000000000000000000000000000000000000,0x0000000000000000000000000000000000000000,0x0000000000000000000000000000000000000000,0x0000000000000000000000000000000000000000,0x0000000000000000000000000000000000000000,0x0000000000000000000000000000000000000000,0x0000000000000000000000000000000000000000,0x0000000000000000000000000000000000000000,0x0000000000000000000000000000000000000000,0x0000000000000000000000000000000000000000,0x0000000000000000000000000000000000000000,0x0000000000000000000000000000000000000000,0x0000000000000000000000000000000000000000,0x0000000000000000000000000000000000000000,0x0000000000000000000000000000000000000000) */\n  0xffffffffffffffffffffffffffffffffffffffff\n  and\n  dup2\n  mstore\n  0x20\n  add\n    /* \"ichoronium-galactic-contracts/governence/ichoroniumNetworkSettings.sol\":1050:1092  0x0000000000000000000000000000000000000000 */\n  0x00\n    /* \"ichoronium-galactic-contracts/governence/ichoroniumNetworkSettings.sol\":280:1093  networkSettings(false,false,true,false,0x0000000000000000000000000000000000000000,0x0000000000000000000000000000000000000000,0x0000000000000000000000000000000000000000,0x0000000000000000000000000000000000000000,0x0000000000000000000000000000000000000000,0x0000000000000000000000000000000000000000,0x0000000000000000000000000000000000000000,0x0000000000000000000000000000000000000000,0x0000000000000000000000000000000000000000,0x0000000000000000000000000000000000000000,0x0000000000000000000000000000000000000000,0x0000000000000000000000000000000000000000,0x0000000000000000000000000000000000000000,0x0000000000000000000000000000000000000000,0x0000000000000000000000000000000000000000,0x0000000000000000000000000000000000000000,0x0000000000000000000000000000000000000000,0x0000000000000000000000000000000000000000) */\n  0xffffffffffffffffffffffffffffffffffffffff\n  and\n  dup2\n  mstore\n  pop\n    /* \"ichoronium-galactic-contracts/governence/ichoroniumNetworkSettings.sol\":242:1093  networkSettings  ichoroniumSettings = networkSettings(false,false,true,false,0x0000000000000000000000000000000000000000,0x0000000000000000000000000000000000000000,0x0000000000000000000000000000000000000000,0x0000000000000000000000000000000000000000,0x0000000000000000000000000000000000000000,0x0000000000000000000000000000000000000000,0x0000000000000000000000000000000000000000,0x0000000000000000000000000000000000000000,0x0000000000000000000000000000000000000000,0x0000000000000000000000000000000000000000,0x0000000000000000000000000000000000000000,0x0000000000000000000000000000000000000000,0x0000000000000000000000000000000000000000,0x0000000000000000000000000000000000000000,0x0000000000000000000000000000000000000000,0x0000000000000000000000000000000000000000,0x0000000000000000000000000000000000000000,0x0000000000000000000000000000000000000000) */\n  0x02\n  0x00\n  dup3\n  add\n  mload\n  dup2\n  0x00\n  add\n  exp(0x0100, 0x00)\n  dup2\n  sload\n  dup2\n  0xff\n  mul\n  not\n  and\n  swap1\n  dup4\n  iszero\n  iszero\n  mul\n  or\n  swap1\n  sstore\n  pop\n  0x20\n  dup3\n  add\n  mload\n  dup2\n  0x00\n  add\n  exp(0x0100, 0x01)\n  dup2\n  sload\n  dup2\n  0xff\n  mul\n  not\n  and\n  swap1\n  dup4\n  iszero\n  iszero\n  mul\n  or\n  swap1\n  sstore\n  pop\n  0x40\n  dup3\n  add\n  mload\n  dup2\n  0x00\n  add\n  exp(0x0100, 0x02)\n  dup2\n  sload\n  dup2\n  0xff\n  mul\n  not\n  and\n  swap1\n  dup4\n  iszero\n  iszero\n  mul\n  or\n  swap1\n  sstore\n  pop\n  0x60\n  dup3\n  add\n  mload\n  dup2\n  0x00\n  add\n  exp(0x0100, 0x03)\n  dup2\n  sload\n  dup2\n  0xff\n  mul\n  not\n  and\n  swap1\n  dup4\n  iszero\n  iszero\n  mul\n  or\n  swap1\n  sstore\n  pop\n  0x80\n  dup3\n  add\n  mload\n  dup2\n  0x00\n  add\n  exp(0x0100, 0x04)\n  dup2\n  sload\n  dup2\n  0xffffffffffffffffffffffffffffffffffffffff\n  mul\n  not\n  and\n  swap1\n  dup4\n  0xffffffffffffffffffffffffffffffffffffffff\n  and\n  mul\n  or\n  swap1\n  sstore\n  pop\n  0xa0\n  dup3\n  add\n  mload\n  dup2\n  0x01\n  add\n  exp(0x0100, 0x00)\n  dup2\n  sload\n  dup2\n  0xffffffffffffffffffffffffffffffffffffffff\n  mul\n  not\n  and\n  swap1\n  dup4\n  0xffffffffffffffffffffffffffffffffffffffff\n  and\n  mul\n  or\n  swap1\n  sstore\n  pop\n  0xc0\n  dup3\n  add\n  mload\n  dup2\n  0x02\n  add\n  exp(0x0100, 0x00)\n  dup2\n  sload\n  dup2\n  0xffffffffffffffffffffffffffffffffffffffff\n  mul\n  not\n  and\n  swap1\n  dup4\n  0xffffffffffffffffffffffffffffffffffffffff\n  and\n  mul\n  or\n  swap1\n  sstore\n  pop\n  0xe0\n  dup3\n  add\n  mload\n  dup2\n  0x03\n  add\n  exp(0x0100, 0x00)\n  dup2\n  sload\n  dup2\n  0xffffffffffffffffffffffffffffffffffffffff\n  mul\n  not\n  and\n  swap1\n  dup4\n  0xffffffffffffffffffffffffffffffffffffffff\n  and\n  mul\n  or\n  swap1\n  sstore\n  pop\n  0x0100\n  dup3\n  add\n  mload\n  dup2\n  0x04\n  add\n  exp(0x0100, 0x00)\n  dup2\n  sload\n  dup2\n  0xffffffffffffffffffffffffffffffffffffffff\n  mul\n  not\n  and\n  swap1\n  dup4\n  0xffffffffffffffffffffffffffffffffffffffff\n  and\n  mul\n  or\n  swap1\n  sstore\n  pop\n  0x0120\n  dup3\n  add\n  mload\n  dup2\n  0x05\n  add\n  exp(0x0100, 0x00)\n  dup2\n  sload\n  dup2\n  0xffffffffffffffffffffffffffffffffffffffff\n  mul\n  not\n  and\n  swap1\n  dup4\n  0xffffffffffffffffffffffffffffffffffffffff\n  and\n  mul\n  or\n  swap1\n  sstore\n  pop\n  0x0140\n  dup3\n  add\n  mload\n  dup2\n  0x06\n  add\n  exp(0x0100, 0x00)\n  dup2\n  sload\n  dup2\n  0xffffffffffffffffffffffffffffffffffffffff\n  mul\n  not\n  and\n  swap1\n  dup4\n  0xffffffffffffffffffffffffffffffffffffffff\n  and\n  mul\n  or\n  swap1\n  sstore\n  pop\n  0x0160\n  dup3\n  add\n  mload\n  dup2\n  0x07\n  add\n  exp(0x0100, 0x00)\n  dup2\n  sload\n  dup2\n  0xffffffffffffffffffffffffffffffffffffffff\n  mul\n  not\n  and\n  swap1\n  dup4\n  0xffffffffffffffffffffffffffffffffffffffff\n  and\n  mul\n  or\n  swap1\n  sstore\n  pop\n  0x0180\n  dup3\n  add\n  mload\n  dup2\n  0x08\n  add\n  exp(0x0100, 0x00)\n  dup2\n  sload\n  dup2\n  0xffffffffffffffffffffffffffffffffffffffff\n  mul\n  not\n  and\n  swap1\n  dup4\n  0xffffffffffffffffffffffffffffffffffffffff\n  and\n  mul\n  or\n  swap1\n  sstore\n  pop\n  0x01a0\n  dup3\n  add\n  mload\n  dup2\n  0x09\n  add\n  exp(0x0100, 0x00)\n  dup2\n  sload\n  dup2\n  0xffffffffffffffffffffffffffffffffffffffff\n  mul\n  not\n  and\n  swap1\n  dup4\n  0xffffffffffffffffffffffffffffffffffffffff\n  and\n  mul\n  or\n  swap1\n  sstore\n  pop\n  0x01c0\n  dup3\n  add\n  mload\n  dup2\n  0x0a\n  add\n  exp(0x0100, 0x00)\n  dup2\n  sload\n  dup2\n  0xffffffffffffffffffffffffffffffffffffffff\n  mul\n  not\n  and\n  swap1\n  dup4\n  0xffffffffffffffffffffffffffffffffffffffff\n  and\n  mul\n  or\n  swap1\n  sstore\n  pop\n  0x01e0\n  dup3\n  add\n  mload\n  dup2\n  0x0b\n  add\n  exp(0x0100, 0x00)\n  dup2\n  sload\n  dup2\n  0xffffffffffffffffffffffffffffffffffffffff\n  mul\n  not\n  and\n  swap1\n  dup4\n  0xffffffffffffffffffffffffffffffffffffffff\n  and\n  mul\n  or\n  swap1\n  sstore\n  pop\n  0x0200\n  dup3\n  add\n  mload\n  dup2\n  0x0c\n  add\n  exp(0x0100, 0x00)\n  dup2\n  sload\n  dup2\n  0xffffffffffffffffffffffffffffffffffffffff\n  mul\n  not\n  and\n  swap1\n  dup4\n  0xffffffffffffffffffffffffffffffffffffffff\n  and\n  mul\n  or\n  swap1\n  sstore\n  pop\n  0x0220\n  dup3\n  add\n  mload\n  dup2\n  0x0d\n  add\n  exp(0x0100, 0x00)\n  dup2\n  sload\n  dup2\n  0xffffffffffffffffffffffffffffffffffffffff\n  mul\n  not\n  and\n  swap1\n  dup4\n  0xffffffffffffffffffffffffffffffffffffffff\n  and\n  mul\n  or\n  swap1\n  sstore\n  pop\n  0x0240\n  dup3\n  add\n  mload\n  dup2\n  0x0e\n  add\n  exp(0x0100, 0x00)\n  dup2\n  sload\n  dup2\n  0xffffffffffffffffffffffffffffffffffffffff\n  mul\n  not\n  and\n  swap1\n  dup4\n  0xffffffffffffffffffffffffffffffffffffffff\n  and\n  mul\n  or\n  swap1\n  sstore\n  pop\n  0x0260\n  dup3\n  add\n  mload\n  dup2\n  0x0f\n  add\n  exp(0x0100, 0x00)\n  dup2\n  sload\n  dup2\n  0xffffffffffffffffffffffffffffffffffffffff\n  mul\n  not\n  and\n  swap1\n  dup4\n  0xffffffffffffffffffffffffffffffffffffffff\n  and\n  mul\n  or\n  swap1\n  sstore\n  pop\n  0x0280\n  dup3\n  add\n  mload\n  dup2\n  0x10\n  add\n  exp(0x0100, 0x00)\n  dup2\n  sload\n  dup2\n  0xffffffffffffffffffffffffffffffffffffffff\n  mul\n  not\n  and\n  swap1\n  dup4\n  0xffffffffffffffffffffffffffffffffffffffff\n  and\n  mul\n  or\n  swap1\n  sstore\n  pop\n  0x02a0\n  dup3\n  add\n  mload\n  dup2\n  0x11\n  add\n  exp(0x0100, 0x00)\n  dup2\n  sload\n  dup2\n  0xffffffffffffffffffffffffffffffffffffffff\n  mul\n  not\n  and\n  swap1\n  dup4\n  0xffffffffffffffffffffffffffffffffffffffff\n  and\n  mul\n  or\n  swap1\n  sstore\n  pop\n  pop\n  pop\n    /* \"ichoronium-galactic-contracts/governence/ichoroniumNetworkSettings.sol\":4798:4951  constructor() public... */\n  callvalue\n  dup1\n  iszero\n  tag_1\n  jumpi\n  0x00\n  dup1\n  revert\ntag_1:\n  pop\n    /* \"ichoronium-galactic-contracts/governence/ichoroniumNetworkSettings.sol\":4868:4883  block.timestamp */\n  timestamp\n    /* \"ichoronium-galactic-contracts/governence/ichoroniumNetworkSettings.sol\":4855:4865  todaysDate */\n  0x00\n    /* \"ichoronium-galactic-contracts/governence/ichoroniumNetworkSettings.sol\":4855:4883  todaysDate = block.timestamp */\n  dup2\n  swap1\n  sstore\n  pop\n    /* \"ichoronium-galactic-contracts/governence/ichoroniumNetworkSettings.sol\":4912:4922  msg.sender */\n  caller\n    /* \"ichoronium-galactic-contracts/governence/ichoroniumNetworkSettings.sol\":4904:4909  owner */\n  0x01\n  0x00\n    /* \"ichoronium-galactic-contracts/governence/ichoroniumNetworkSettings.sol\":4904:4922  owner = msg.sender */\n  0x0100\n  exp\n  dup2\n  sload\n  dup2\n  0xffffffffffffffffffffffffffffffffffffffff\n  mul\n  not\n  and\n  swap1\n  dup4\n  0xffffffffffffffffffffffffffffffffffffffff\n  and\n  mul\n  or\n  swap1\n  sstore\n  pop\n    /* \"ichoronium-galactic-contracts/governence/ichoroniumNetworkSettings.sol\":87:5934  contract ichoroniumNetworkSettings {... */\n  dataSize(sub_0)\n  dup1\n  dataOffset(sub_0)\n  0x00\n  codecopy\n  0x00\n  return\nstop\n\nsub_0: assembly {\n        /* \"ichoronium-galactic-contracts/governence/ichoroniumNetworkSettings.sol\":87:5934  contract ichoroniumNetworkSettings {... */\n      mstore(0x40, 0x80)\n      callvalue\n      dup1\n      iszero\n      tag_1\n      jumpi\n      0x00\n      dup1\n      revert\n    tag_1:\n      pop\n      jumpi(tag_2, lt(calldatasize, 0x04))\n      shr(0xe0, calldataload(0x00))\n      dup1\n      0x8df57580\n      gt\n      tag_19\n      jumpi\n      dup1\n      0xbfed3cf2\n      gt\n      tag_20\n      jumpi\n      dup1\n      0xbfed3cf2\n      eq\n      tag_15\n      jumpi\n      dup1\n      0xd468fdf4\n      eq\n      tag_16\n      jumpi\n      dup1\n      0xe6a52e8a\n      eq\n      tag_17\n      jumpi\n      dup1\n      0xf23e9c3b\n      eq\n      tag_18\n      jumpi\n      jump(tag_2)\n    tag_20:\n      dup1\n      0x8df57580\n      eq\n      tag_11\n      jumpi\n      dup1\n      0x96d54ebe\n      eq\n      tag_12\n      jumpi\n      dup1\n      0xb343c438\n      eq\n      tag_13\n      jumpi\n      dup1\n      0xb4840993\n      eq\n      tag_14\n      jumpi\n      jump(tag_2)\n    tag_19:\n      dup1\n      0x6bc5b0c4\n      gt\n      tag_21\n      jumpi\n      dup1\n      0x6bc5b0c4\n      eq\n      tag_7\n      jumpi\n      dup1\n      0x6ef6346f\n      eq\n      tag_8\n      jumpi\n      dup1\n      0x7f0b2e7d\n      eq\n      tag_9\n      jumpi\n      dup1\n      0x8c920bd3\n      eq\n      tag_10\n      jumpi\n      jump(tag_2)\n    tag_21:\n      dup1\n      0x3d3e8321\n      eq\n      tag_3\n      jumpi\n      dup1\n      0x42dd96f7\n      eq\n      tag_4\n      jumpi\n      dup1\n      0x5d0d3816\n      eq\n      tag_5\n      jumpi\n      dup1\n      0x64aa0754\n      eq\n      tag_6\n      jumpi\n    tag_2:\n      0x00\n      dup1\n      revert\n        /* \"ichoronium-galactic-contracts/governence/ichoroniumNetworkSettings.sol\":4254:4525  function switchichoroniumFinanceSettingsCurrent(address newSetting... */\n    tag_3:\n      tag_22\n      0x04\n      dup1\n      calldatasize\n      sub\n      dup2\n      add\n      swap1\n      tag_23\n      swap2\n      swap1\n      tag_24\n      jump\t// in\n    tag_23:\n      tag_25\n      jump\t// in\n    tag_22:\n      stop\n        /* \"ichoronium-galactic-contracts/governence/ichoroniumNetworkSettings.sol\":1666:1836  function killswitch() public view returns (bool) {... */\n    tag_4:\n      tag_26\n      tag_27\n      jump\t// in\n    tag_26:\n      mload(0x40)\n      tag_28\n      swap2\n      swap1\n      tag_29\n      jump\t// in\n    tag_28:\n      mload(0x40)\n      dup1\n      swap2\n      sub\n      swap1\n      return\n        /* \"ichoronium-galactic-contracts/governence/ichoroniumNetworkSettings.sol\":2738:2955  function ichoroniumFinanceSettingsCurrent() public view returns (address) {... */\n    tag_5:\n      tag_30\n      tag_31\n      jump\t// in\n    tag_30:\n      mload(0x40)\n      tag_32\n      swap2\n      swap1\n      tag_33\n      jump\t// in\n    tag_32:\n      mload(0x40)\n      dup1\n      swap2\n      sub\n      swap1\n      return\n        /* \"ichoronium-galactic-contracts/governence/ichoroniumNetworkSettings.sol\":1476:1664  function isNetworkIsDeactive() public view returns (bool) {... */\n    tag_6:\n      tag_34\n      tag_35\n      jump\t// in\n    tag_34:\n      mload(0x40)\n      tag_36\n      swap2\n      swap1\n      tag_29\n      jump\t// in\n    tag_36:\n      mload(0x40)\n      dup1\n      swap2\n      sub\n      swap1\n      return\n        /* \"ichoronium-galactic-contracts/governence/ichoroniumNetworkSettings.sol\":3444:3696  function switchichoroniumNetworkPermissionsCurrent(address newSetting... */\n    tag_7:\n      tag_37\n      0x04\n      dup1\n      calldatasize\n      sub\n      dup2\n      add\n      swap1\n      tag_38\n      swap2\n      swap1\n      tag_24\n      jump\t// in\n    tag_38:\n      tag_39\n      jump\t// in\n    tag_37:\n      stop\n        /* \"ichoronium-galactic-contracts/governence/ichoroniumNetworkSettings.sol\":2288:2509  function gameProfitsGalacticSettingsCurrent() public view returns (address) {... */\n    tag_8:\n      tag_40\n      tag_41\n      jump\t// in\n    tag_40:\n      mload(0x40)\n      tag_42\n      swap2\n      swap1\n      tag_33\n      jump\t// in\n    tag_42:\n      mload(0x40)\n      dup1\n      swap2\n      sub\n      swap1\n      return\n        /* \"ichoronium-galactic-contracts/governence/ichoroniumNetworkSettings.sol\":2957:3163  function ichoroniumReturnSettings() public view returns (networkSettings memory networkSetting) {... */\n    tag_9:\n      tag_43\n      tag_44\n      jump\t// in\n    tag_43:\n      mload(0x40)\n      tag_45\n      swap2\n      swap1\n      tag_46\n      jump\t// in\n    tag_45:\n      mload(0x40)\n      dup1\n      swap2\n      sub\n      swap1\n      return\n        /* \"ichoronium-galactic-contracts/governence/ichoroniumNetworkSettings.sol\":3698:3973  function switchgameProfitsGalacticSettingsCurrent(address newSetting... */\n    tag_10:\n      tag_47\n      0x04\n      dup1\n      calldatasize\n      sub\n      dup2\n      add\n      swap1\n      tag_48\n      swap2\n      swap1\n      tag_24\n      jump\t// in\n    tag_48:\n      tag_49\n      jump\t// in\n    tag_47:\n      stop\n        /* \"ichoronium-galactic-contracts/governence/ichoroniumNetworkSettings.sol\":1280:1474  function isNetworkIsCoolingDown() public view returns (bool) {... */\n    tag_11:\n      tag_50\n      tag_51\n      jump\t// in\n    tag_50:\n      mload(0x40)\n      tag_52\n      swap2\n      swap1\n      tag_29\n      jump\t// in\n    tag_52:\n      mload(0x40)\n      dup1\n      swap2\n      sub\n      swap1\n      return\n        /* \"ichoronium-galactic-contracts/governence/ichoroniumNetworkSettings.sol\":2063:2286  function ichoroniumNetworkPermissionsCurrent() public view returns (address) {... */\n    tag_12:\n      tag_53\n      tag_54\n      jump\t// in\n    tag_53:\n      mload(0x40)\n      tag_55\n      swap2\n      swap1\n      tag_33\n      jump\t// in\n    tag_55:\n      mload(0x40)\n      dup1\n      swap2\n      sub\n      swap1\n      return\n        /* \"ichoronium-galactic-contracts/governence/ichoroniumNetworkSettings.sol\":1098:1278  function isNetworkActive() public view returns (bool) {... */\n    tag_13:\n      tag_56\n      tag_57\n      jump\t// in\n    tag_56:\n      mload(0x40)\n      tag_58\n      swap2\n      swap1\n      tag_29\n      jump\t// in\n    tag_58:\n      mload(0x40)\n      dup1\n      swap2\n      sub\n      swap1\n      return\n        /* \"ichoronium-galactic-contracts/governence/ichoroniumNetworkSettings.sol\":4527:4794  function switchichoroniumCloudSettingsCurrent(address newSetting... */\n    tag_14:\n      tag_59\n      0x04\n      dup1\n      calldatasize\n      sub\n      dup2\n      add\n      swap1\n      tag_60\n      swap2\n      swap1\n      tag_24\n      jump\t// in\n    tag_60:\n      tag_61\n      jump\t// in\n    tag_59:\n      stop\n        /* \"ichoronium-galactic-contracts/governence/ichoroniumNetworkSettings.sol\":2511:2734  function ichoroniumGalacticMeteaverseCurrent() public view returns (address) {... */\n    tag_15:\n      tag_62\n      tag_63\n      jump\t// in\n    tag_62:\n      mload(0x40)\n      tag_64\n      swap2\n      swap1\n      tag_33\n      jump\t// in\n    tag_64:\n      mload(0x40)\n      dup1\n      swap2\n      sub\n      swap1\n      return\n        /* \"ichoronium-galactic-contracts/governence/ichoroniumNetworkSettings.sol\":3975:4252  function switchichoroniumGalacticMeteaverseCurrent(address newSetting... */\n    tag_16:\n      tag_65\n      0x04\n      dup1\n      calldatasize\n      sub\n      dup2\n      add\n      swap1\n      tag_66\n      swap2\n      swap1\n      tag_24\n      jump\t// in\n    tag_66:\n      tag_67\n      jump\t// in\n    tag_65:\n      stop\n        /* \"ichoronium-galactic-contracts/governence/ichoroniumNetworkSettings.sol\":1840:2057  function ichoroniumNetworkProfilesCurrent() public view returns (address) {... */\n    tag_17:\n      tag_68\n      tag_69\n      jump\t// in\n    tag_68:\n      mload(0x40)\n      tag_70\n      swap2\n      swap1\n      tag_33\n      jump\t// in\n    tag_70:\n      mload(0x40)\n      dup1\n      swap2\n      sub\n      swap1\n      return\n        /* \"ichoronium-galactic-contracts/governence/ichoroniumNetworkSettings.sol\":3165:3442  function switchichoroniumNetworkProfilesCurrent(address newSetting... */\n    tag_18:\n      tag_71\n      0x04\n      dup1\n      calldatasize\n      sub\n      dup2\n      add\n      swap1\n      tag_72\n      swap2\n      swap1\n      tag_24\n      jump\t// in\n    tag_72:\n      tag_73\n      jump\t// in\n    tag_71:\n      stop\n        /* \"ichoronium-galactic-contracts/governence/ichoroniumNetworkSettings.sol\":4254:4525  function switchichoroniumFinanceSettingsCurrent(address newSetting... */\n    tag_25:\n        /* \"ichoronium-galactic-contracts/governence/ichoroniumNetworkSettings.sol\":215:220  owner */\n      0x01\n      0x00\n      swap1\n      sload\n      swap1\n      0x0100\n      exp\n      swap1\n      div\n      0xffffffffffffffffffffffffffffffffffffffff\n      and\n        /* \"ichoronium-galactic-contracts/governence/ichoroniumNetworkSettings.sol\":201:220  msg.sender == owner */\n      0xffffffffffffffffffffffffffffffffffffffff\n      and\n        /* \"ichoronium-galactic-contracts/governence/ichoroniumNetworkSettings.sol\":201:211  msg.sender */\n      caller\n        /* \"ichoronium-galactic-contracts/governence/ichoroniumNetworkSettings.sol\":201:220  msg.sender == owner */\n      0xffffffffffffffffffffffffffffffffffffffff\n      and\n      eq\n        /* \"ichoronium-galactic-contracts/governence/ichoroniumNetworkSettings.sol\":192:221  require (msg.sender == owner) */\n      tag_75\n      jumpi\n      0x00\n      dup1\n      revert\n    tag_75:\n        /* \"ichoronium-galactic-contracts/governence/ichoroniumNetworkSettings.sol\":4472:4482  newSetting */\n      dup1\n        /* \"ichoronium-galactic-contracts/governence/ichoroniumNetworkSettings.sol\":4418:4436  ichoroniumSettings */\n      0x02\n        /* \"ichoronium-galactic-contracts/governence/ichoroniumNetworkSettings.sol\":4418:4469  ichoroniumSettings.ichoroniumFinanceSettingsCurrent */\n      0x0d\n      add\n      0x00\n        /* \"ichoronium-galactic-contracts/governence/ichoroniumNetworkSettings.sol\":4418:4482  ichoroniumSettings.ichoroniumFinanceSettingsCurrent = newSetting */\n      0x0100\n      exp\n      dup2\n      sload\n      dup2\n      0xffffffffffffffffffffffffffffffffffffffff\n      mul\n      not\n      and\n      swap1\n      dup4\n      0xffffffffffffffffffffffffffffffffffffffff\n      and\n      mul\n      or\n      swap1\n      sstore\n      pop\n        /* \"ichoronium-galactic-contracts/governence/ichoroniumNetworkSettings.sol\":4254:4525  function switchichoroniumFinanceSettingsCurrent(address newSetting... */\n      pop\n      jump\t// out\n        /* \"ichoronium-galactic-contracts/governence/ichoroniumNetworkSettings.sol\":1666:1836  function killswitch() public view returns (bool) {... */\n    tag_27:\n        /* \"ichoronium-galactic-contracts/governence/ichoroniumNetworkSettings.sol\":1709:1713  bool */\n      0x00\n        /* \"ichoronium-galactic-contracts/governence/ichoroniumNetworkSettings.sol\":1726:1764  networkSettings storage networksetting */\n      dup1\n        /* \"ichoronium-galactic-contracts/governence/ichoroniumNetworkSettings.sol\":1767:1785  ichoroniumSettings */\n      0x02\n        /* \"ichoronium-galactic-contracts/governence/ichoroniumNetworkSettings.sol\":1726:1785  networkSettings storage networksetting = ichoroniumSettings */\n      swap1\n      pop\n        /* \"ichoronium-galactic-contracts/governence/ichoroniumNetworkSettings.sol\":1803:1817  networksetting */\n      dup1\n        /* \"ichoronium-galactic-contracts/governence/ichoroniumNetworkSettings.sol\":1803:1828  networksetting.killswitch */\n      0x00\n      add\n      0x03\n      swap1\n      sload\n      swap1\n      0x0100\n      exp\n      swap1\n      div\n      0xff\n      and\n        /* \"ichoronium-galactic-contracts/governence/ichoroniumNetworkSettings.sol\":1796:1828  return networksetting.killswitch */\n      swap2\n      pop\n      pop\n        /* \"ichoronium-galactic-contracts/governence/ichoroniumNetworkSettings.sol\":1666:1836  function killswitch() public view returns (bool) {... */\n      swap1\n      jump\t// out\n        /* \"ichoronium-galactic-contracts/governence/ichoroniumNetworkSettings.sol\":2738:2955  function ichoroniumFinanceSettingsCurrent() public view returns (address) {... */\n    tag_31:\n        /* \"ichoronium-galactic-contracts/governence/ichoroniumNetworkSettings.sol\":2803:2810  address */\n      0x00\n        /* \"ichoronium-galactic-contracts/governence/ichoroniumNetworkSettings.sol\":2823:2861  networkSettings storage networksetting */\n      dup1\n        /* \"ichoronium-galactic-contracts/governence/ichoroniumNetworkSettings.sol\":2864:2882  ichoroniumSettings */\n      0x02\n        /* \"ichoronium-galactic-contracts/governence/ichoroniumNetworkSettings.sol\":2823:2882  networkSettings storage networksetting = ichoroniumSettings */\n      swap1\n      pop\n        /* \"ichoronium-galactic-contracts/governence/ichoroniumNetworkSettings.sol\":2900:2914  networksetting */\n      dup1\n        /* \"ichoronium-galactic-contracts/governence/ichoroniumNetworkSettings.sol\":2900:2947  networksetting.ichoroniumFinanceSettingsCurrent */\n      0x0d\n      add\n      0x00\n      swap1\n      sload\n      swap1\n      0x0100\n      exp\n      swap1\n      div\n      0xffffffffffffffffffffffffffffffffffffffff\n      and\n        /* \"ichoronium-galactic-contracts/governence/ichoroniumNetworkSettings.sol\":2893:2947  return networksetting.ichoroniumFinanceSettingsCurrent */\n      swap2\n      pop\n      pop\n        /* \"ichoronium-galactic-contracts/governence/ichoroniumNetworkSettings.sol\":2738:2955  function ichoroniumFinanceSettingsCurrent() public view returns (address) {... */\n      swap1\n      jump\t// out\n        /* \"ichoronium-galactic-contracts/governence/ichoroniumNetworkSettings.sol\":1476:1664  function isNetworkIsDeactive() public view returns (bool) {... */\n    tag_35:\n        /* \"ichoronium-galactic-contracts/governence/ichoroniumNetworkSettings.sol\":1528:1532  bool */\n      0x00\n        /* \"ichoronium-galactic-contracts/governence/ichoroniumNetworkSettings.sol\":1545:1583  networkSettings storage networksetting */\n      dup1\n        /* \"ichoronium-galactic-contracts/governence/ichoroniumNetworkSettings.sol\":1586:1604  ichoroniumSettings */\n      0x02\n        /* \"ichoronium-galactic-contracts/governence/ichoroniumNetworkSettings.sol\":1545:1604  networkSettings storage networksetting = ichoroniumSettings */\n      swap1\n      pop\n        /* \"ichoronium-galactic-contracts/governence/ichoroniumNetworkSettings.sol\":1622:1636  networksetting */\n      dup1\n        /* \"ichoronium-galactic-contracts/governence/ichoroniumNetworkSettings.sol\":1622:1656  networksetting.isNetworkIsDeactive */\n      0x00\n      add\n      0x02\n      swap1\n      sload\n      swap1\n      0x0100\n      exp\n      swap1\n      div\n      0xff\n      and\n        /* \"ichoronium-galactic-contracts/governence/ichoroniumNetworkSettings.sol\":1615:1656  return networksetting.isNetworkIsDeactive */\n      swap2\n      pop\n      pop\n        /* \"ichoronium-galactic-contracts/governence/ichoroniumNetworkSettings.sol\":1476:1664  function isNetworkIsDeactive() public view returns (bool) {... */\n      swap1\n      jump\t// out\n        /* \"ichoronium-galactic-contracts/governence/ichoroniumNetworkSettings.sol\":3444:3696  function switchichoroniumNetworkPermissionsCurrent(address newSetting... */\n    tag_39:\n        /* \"ichoronium-galactic-contracts/governence/ichoroniumNetworkSettings.sol\":215:220  owner */\n      0x01\n      0x00\n      swap1\n      sload\n      swap1\n      0x0100\n      exp\n      swap1\n      div\n      0xffffffffffffffffffffffffffffffffffffffff\n      and\n        /* \"ichoronium-galactic-contracts/governence/ichoroniumNetworkSettings.sol\":201:220  msg.sender == owner */\n      0xffffffffffffffffffffffffffffffffffffffff\n      and\n        /* \"ichoronium-galactic-contracts/governence/ichoroniumNetworkSettings.sol\":201:211  msg.sender */\n      caller\n        /* \"ichoronium-galactic-contracts/governence/ichoroniumNetworkSettings.sol\":201:220  msg.sender == owner */\n      0xffffffffffffffffffffffffffffffffffffffff\n      and\n      eq\n        /* \"ichoronium-galactic-contracts/governence/ichoroniumNetworkSettings.sol\":192:221  require (msg.sender == owner) */\n      tag_81\n      jumpi\n      0x00\n      dup1\n      revert\n    tag_81:\n        /* \"ichoronium-galactic-contracts/governence/ichoroniumNetworkSettings.sol\":3668:3678  newSetting */\n      dup1\n        /* \"ichoronium-galactic-contracts/governence/ichoroniumNetworkSettings.sol\":3611:3629  ichoroniumSettings */\n      0x02\n        /* \"ichoronium-galactic-contracts/governence/ichoroniumNetworkSettings.sol\":3611:3665  ichoroniumSettings.ichoroniumNetworkPermissionsCurrent */\n      0x04\n      add\n      0x00\n        /* \"ichoronium-galactic-contracts/governence/ichoroniumNetworkSettings.sol\":3611:3678  ichoroniumSettings.ichoroniumNetworkPermissionsCurrent = newSetting */\n      0x0100\n      exp\n      dup2\n      sload\n      dup2\n      0xffffffffffffffffffffffffffffffffffffffff\n      mul\n      not\n      and\n      swap1\n      dup4\n      0xffffffffffffffffffffffffffffffffffffffff\n      and\n      mul\n      or\n      swap1\n      sstore\n      pop\n        /* \"ichoronium-galactic-contracts/governence/ichoroniumNetworkSettings.sol\":3444:3696  function switchichoroniumNetworkPermissionsCurrent(address newSetting... */\n      pop\n      jump\t// out\n        /* \"ichoronium-galactic-contracts/governence/ichoroniumNetworkSettings.sol\":2288:2509  function gameProfitsGalacticSettingsCurrent() public view returns (address) {... */\n    tag_41:\n        /* \"ichoronium-galactic-contracts/governence/ichoroniumNetworkSettings.sol\":2355:2362  address */\n      0x00\n        /* \"ichoronium-galactic-contracts/governence/ichoroniumNetworkSettings.sol\":2375:2413  networkSettings storage networksetting */\n      dup1\n        /* \"ichoronium-galactic-contracts/governence/ichoroniumNetworkSettings.sol\":2416:2434  ichoroniumSettings */\n      0x02\n        /* \"ichoronium-galactic-contracts/governence/ichoroniumNetworkSettings.sol\":2375:2434  networkSettings storage networksetting = ichoroniumSettings */\n      swap1\n      pop\n        /* \"ichoronium-galactic-contracts/governence/ichoroniumNetworkSettings.sol\":2452:2466  networksetting */\n      dup1\n        /* \"ichoronium-galactic-contracts/governence/ichoroniumNetworkSettings.sol\":2452:2501  networksetting.gameProfitsGalacticSettingsCurrent */\n      0x07\n      add\n      0x00\n      swap1\n      sload\n      swap1\n      0x0100\n      exp\n      swap1\n      div\n      0xffffffffffffffffffffffffffffffffffffffff\n      and\n        /* \"ichoronium-galactic-contracts/governence/ichoroniumNetworkSettings.sol\":2445:2501  return networksetting.gameProfitsGalacticSettingsCurrent */\n      swap2\n      pop\n      pop\n        /* \"ichoronium-galactic-contracts/governence/ichoroniumNetworkSettings.sol\":2288:2509  function gameProfitsGalacticSettingsCurrent() public view returns (address) {... */\n      swap1\n      jump\t// out\n        /* \"ichoronium-galactic-contracts/governence/ichoroniumNetworkSettings.sol\":2957:3163  function ichoroniumReturnSettings() public view returns (networkSettings memory networkSetting) {... */\n    tag_44:\n        /* \"ichoronium-galactic-contracts/governence/ichoroniumNetworkSettings.sol\":3014:3051  networkSettings memory networkSetting */\n      tag_84\n      tag_85\n      jump\t// in\n    tag_84:\n        /* \"ichoronium-galactic-contracts/governence/ichoroniumNetworkSettings.sol\":3064:3102  networkSettings storage networksetting */\n      0x00\n        /* \"ichoronium-galactic-contracts/governence/ichoroniumNetworkSettings.sol\":3105:3123  ichoroniumSettings */\n      0x02\n        /* \"ichoronium-galactic-contracts/governence/ichoroniumNetworkSettings.sol\":3064:3123  networkSettings storage networksetting = ichoroniumSettings */\n      swap1\n      pop\n        /* \"ichoronium-galactic-contracts/governence/ichoroniumNetworkSettings.sol\":3141:3155  networksetting */\n      dup1\n        /* \"ichoronium-galactic-contracts/governence/ichoroniumNetworkSettings.sol\":3134:3155  return networksetting */\n      mload(0x40)\n      dup1\n      0x02c0\n      add\n      0x40\n      mstore\n      swap1\n      dup2\n      0x00\n      dup3\n      add\n      0x00\n      swap1\n      sload\n      swap1\n      0x0100\n      exp\n      swap1\n      div\n      0xff\n      and\n      iszero\n      iszero\n      iszero\n      iszero\n      dup2\n      mstore\n      0x20\n      add\n      0x00\n      dup3\n      add\n      0x01\n      swap1\n      sload\n      swap1\n      0x0100\n      exp\n      swap1\n      div\n      0xff\n      and\n      iszero\n      iszero\n      iszero\n      iszero\n      dup2\n      mstore\n      0x20\n      add\n      0x00\n      dup3\n      add\n      0x02\n      swap1\n      sload\n      swap1\n      0x0100\n      exp\n      swap1\n      div\n      0xff\n      and\n      iszero\n      iszero\n      iszero\n      iszero\n      dup2\n      mstore\n      0x20\n      add\n      0x00\n      dup3\n      add\n      0x03\n      swap1\n      sload\n      swap1\n      0x0100\n      exp\n      swap1\n      div\n      0xff\n      and\n      iszero\n      iszero\n      iszero\n      iszero\n      dup2\n      mstore\n      0x20\n      add\n      0x00\n      dup3\n      add\n      0x04\n      swap1\n      sload\n      swap1\n      0x0100\n      exp\n      swap1\n      div\n      0xffffffffffffffffffffffffffffffffffffffff\n      and\n      0xffffffffffffffffffffffffffffffffffffffff\n      and\n      0xffffffffffffffffffffffffffffffffffffffff\n      and\n      dup2\n      mstore\n      0x20\n      add\n      0x01\n      dup3\n      add\n      0x00\n      swap1\n      sload\n      swap1\n      0x0100\n      exp\n      swap1\n      div\n      0xffffffffffffffffffffffffffffffffffffffff\n      and\n      0xffffffffffffffffffffffffffffffffffffffff\n      and\n      0xffffffffffffffffffffffffffffffffffffffff\n      and\n      dup2\n      mstore\n      0x20\n      add\n      0x02\n      dup3\n      add\n      0x00\n      swap1\n      sload\n      swap1\n      0x0100\n      exp\n      swap1\n      div\n      0xffffffffffffffffffffffffffffffffffffffff\n      and\n      0xffffffffffffffffffffffffffffffffffffffff\n      and\n      0xffffffffffffffffffffffffffffffffffffffff\n      and\n      dup2\n      mstore\n      0x20\n      add\n      0x03\n      dup3\n      add\n      0x00\n      swap1\n      sload\n      swap1\n      0x0100\n      exp\n      swap1\n      div\n      0xffffffffffffffffffffffffffffffffffffffff\n      and\n      0xffffffffffffffffffffffffffffffffffffffff\n      and\n      0xffffffffffffffffffffffffffffffffffffffff\n      and\n      dup2\n      mstore\n      0x20\n      add\n      0x04\n      dup3\n      add\n      0x00\n      swap1\n      sload\n      swap1\n      0x0100\n      exp\n      swap1\n      div\n      0xffffffffffffffffffffffffffffffffffffffff\n      and\n      0xffffffffffffffffffffffffffffffffffffffff\n      and\n      0xffffffffffffffffffffffffffffffffffffffff\n      and\n      dup2\n      mstore\n      0x20\n      add\n      0x05\n      dup3\n      add\n      0x00\n      swap1\n      sload\n      swap1\n      0x0100\n      exp\n      swap1\n      div\n      0xffffffffffffffffffffffffffffffffffffffff\n      and\n      0xffffffffffffffffffffffffffffffffffffffff\n      and\n      0xffffffffffffffffffffffffffffffffffffffff\n      and\n      dup2\n      mstore\n      0x20\n      add\n      0x06\n      dup3\n      add\n      0x00\n      swap1\n      sload\n      swap1\n      0x0100\n      exp\n      swap1\n      div\n      0xffffffffffffffffffffffffffffffffffffffff\n      and\n      0xffffffffffffffffffffffffffffffffffffffff\n      and\n      0xffffffffffffffffffffffffffffffffffffffff\n      and\n      dup2\n      mstore\n      0x20\n      add\n      0x07\n      dup3\n      add\n      0x00\n      swap1\n      sload\n      swap1\n      0x0100\n      exp\n      swap1\n      div\n      0xffffffffffffffffffffffffffffffffffffffff\n      and\n      0xffffffffffffffffffffffffffffffffffffffff\n      and\n      0xffffffffffffffffffffffffffffffffffffffff\n      and\n      dup2\n      mstore\n      0x20\n      add\n      0x08\n      dup3\n      add\n      0x00\n      swap1\n      sload\n      swap1\n      0x0100\n      exp\n      swap1\n      div\n      0xffffffffffffffffffffffffffffffffffffffff\n      and\n      0xffffffffffffffffffffffffffffffffffffffff\n      and\n      0xffffffffffffffffffffffffffffffffffffffff\n      and\n      dup2\n      mstore\n      0x20\n      add\n      0x09\n      dup3\n      add\n      0x00\n      swap1\n      sload\n      swap1\n      0x0100\n      exp\n      swap1\n      div\n      0xffffffffffffffffffffffffffffffffffffffff\n      and\n      0xffffffffffffffffffffffffffffffffffffffff\n      and\n      0xffffffffffffffffffffffffffffffffffffffff\n      and\n      dup2\n      mstore\n      0x20\n      add\n      0x0a\n      dup3\n      add\n      0x00\n      swap1\n      sload\n      swap1\n      0x0100\n      exp\n      swap1\n      div\n      0xffffffffffffffffffffffffffffffffffffffff\n      and\n      0xffffffffffffffffffffffffffffffffffffffff\n      and\n      0xffffffffffffffffffffffffffffffffffffffff\n      and\n      dup2\n      mstore\n      0x20\n      add\n      0x0b\n      dup3\n      add\n      0x00\n      swap1\n      sload\n      swap1\n      0x0100\n      exp\n      swap1\n      div\n      0xffffffffffffffffffffffffffffffffffffffff\n      and\n      0xffffffffffffffffffffffffffffffffffffffff\n      and\n      0xffffffffffffffffffffffffffffffffffffffff\n      and\n      dup2\n      mstore\n      0x20\n      add\n      0x0c\n      dup3\n      add\n      0x00\n      swap1\n      sload\n      swap1\n      0x0100\n      exp\n      swap1\n      div\n      0xffffffffffffffffffffffffffffffffffffffff\n      and\n      0xffffffffffffffffffffffffffffffffffffffff\n      and\n      0xffffffffffffffffffffffffffffffffffffffff\n      and\n      dup2\n      mstore\n      0x20\n      add\n      0x0d\n      dup3\n      add\n      0x00\n      swap1\n      sload\n      swap1\n      0x0100\n      exp\n      swap1\n      div\n      0xffffffffffffffffffffffffffffffffffffffff\n      and\n      0xffffffffffffffffffffffffffffffffffffffff\n      and\n      0xffffffffffffffffffffffffffffffffffffffff\n      and\n      dup2\n      mstore\n      0x20\n      add\n      0x0e\n      dup3\n      add\n      0x00\n      swap1\n      sload\n      swap1\n      0x0100\n      exp\n      swap1\n      div\n      0xffffffffffffffffffffffffffffffffffffffff\n      and\n      0xffffffffffffffffffffffffffffffffffffffff\n      and\n      0xffffffffffffffffffffffffffffffffffffffff\n      and\n      dup2\n      mstore\n      0x20\n      add\n      0x0f\n      dup3\n      add\n      0x00\n      swap1\n      sload\n      swap1\n      0x0100\n      exp\n      swap1\n      div\n      0xffffffffffffffffffffffffffffffffffffffff\n      and\n      0xffffffffffffffffffffffffffffffffffffffff\n      and\n      0xffffffffffffffffffffffffffffffffffffffff\n      and\n      dup2\n      mstore\n      0x20\n      add\n      0x10\n      dup3\n      add\n      0x00\n      swap1\n      sload\n      swap1\n      0x0100\n      exp\n      swap1\n      div\n      0xffffffffffffffffffffffffffffffffffffffff\n      and\n      0xffffffffffffffffffffffffffffffffffffffff\n      and\n      0xffffffffffffffffffffffffffffffffffffffff\n      and\n      dup2\n      mstore\n      0x20\n      add\n      0x11\n      dup3\n      add\n      0x00\n      swap1\n      sload\n      swap1\n      0x0100\n      exp\n      swap1\n      div\n      0xffffffffffffffffffffffffffffffffffffffff\n      and\n      0xffffffffffffffffffffffffffffffffffffffff\n      and\n      0xffffffffffffffffffffffffffffffffffffffff\n      and\n      dup2\n      mstore\n      pop\n      pop\n      swap2\n      pop\n      pop\n        /* \"ichoronium-galactic-contracts/governence/ichoroniumNetworkSettings.sol\":2957:3163  function ichoroniumReturnSettings() public view returns (networkSettings memory networkSetting) {... */\n      swap1\n      jump\t// out\n        /* \"ichoronium-galactic-contracts/governence/ichoroniumNetworkSettings.sol\":3698:3973  function switchgameProfitsGalacticSettingsCurrent(address newSetting... */\n    tag_49:\n        /* \"ichoronium-galactic-contracts/governence/ichoroniumNetworkSettings.sol\":215:220  owner */\n      0x01\n      0x00\n      swap1\n      sload\n      swap1\n      0x0100\n      exp\n      swap1\n      div\n      0xffffffffffffffffffffffffffffffffffffffff\n      and\n        /* \"ichoronium-galactic-contracts/governence/ichoroniumNetworkSettings.sol\":201:220  msg.sender == owner */\n      0xffffffffffffffffffffffffffffffffffffffff\n      and\n        /* \"ichoronium-galactic-contracts/governence/ichoroniumNetworkSettings.sol\":201:211  msg.sender */\n      caller\n        /* \"ichoronium-galactic-contracts/governence/ichoroniumNetworkSettings.sol\":201:220  msg.sender == owner */\n      0xffffffffffffffffffffffffffffffffffffffff\n      and\n      eq\n        /* \"ichoronium-galactic-contracts/governence/ichoroniumNetworkSettings.sol\":192:221  require (msg.sender == owner) */\n      tag_88\n      jumpi\n      0x00\n      dup1\n      revert\n    tag_88:\n        /* \"ichoronium-galactic-contracts/governence/ichoroniumNetworkSettings.sol\":3920:3930  newSetting */\n      dup1\n        /* \"ichoronium-galactic-contracts/governence/ichoroniumNetworkSettings.sol\":3864:3882  ichoroniumSettings */\n      0x02\n        /* \"ichoronium-galactic-contracts/governence/ichoroniumNetworkSettings.sol\":3864:3917  ichoroniumSettings.gameProfitsGalacticSettingsCurrent */\n      0x07\n      add\n      0x00\n        /* \"ichoronium-galactic-contracts/governence/ichoroniumNetworkSettings.sol\":3864:3930  ichoroniumSettings.gameProfitsGalacticSettingsCurrent = newSetting */\n      0x0100\n      exp\n      dup2\n      sload\n      dup2\n      0xffffffffffffffffffffffffffffffffffffffff\n      mul\n      not\n      and\n      swap1\n      dup4\n      0xffffffffffffffffffffffffffffffffffffffff\n      and\n      mul\n      or\n      swap1\n      sstore\n      pop\n        /* \"ichoronium-galactic-contracts/governence/ichoroniumNetworkSettings.sol\":3698:3973  function switchgameProfitsGalacticSettingsCurrent(address newSetting... */\n      pop\n      jump\t// out\n        /* \"ichoronium-galactic-contracts/governence/ichoroniumNetworkSettings.sol\":1280:1474  function isNetworkIsCoolingDown() public view returns (bool) {... */\n    tag_51:\n        /* \"ichoronium-galactic-contracts/governence/ichoroniumNetworkSettings.sol\":1335:1339  bool */\n      0x00\n        /* \"ichoronium-galactic-contracts/governence/ichoroniumNetworkSettings.sol\":1352:1390  networkSettings storage networksetting */\n      dup1\n        /* \"ichoronium-galactic-contracts/governence/ichoroniumNetworkSettings.sol\":1393:1411  ichoroniumSettings */\n      0x02\n        /* \"ichoronium-galactic-contracts/governence/ichoroniumNetworkSettings.sol\":1352:1411  networkSettings storage networksetting = ichoroniumSettings */\n      swap1\n      pop\n        /* \"ichoronium-galactic-contracts/governence/ichoroniumNetworkSettings.sol\":1429:1443  networksetting */\n      dup1\n        /* \"ichoronium-galactic-contracts/governence/ichoroniumNetworkSettings.sol\":1429:1466  networksetting.isNetworkIsCoolingDown */\n      0x00\n      add\n      0x01\n      swap1\n      sload\n      swap1\n      0x0100\n      exp\n      swap1\n      div\n      0xff\n      and\n        /* \"ichoronium-galactic-contracts/governence/ichoroniumNetworkSettings.sol\":1422:1466  return networksetting.isNetworkIsCoolingDown */\n      swap2\n      pop\n      pop\n        /* \"ichoronium-galactic-contracts/governence/ichoroniumNetworkSettings.sol\":1280:1474  function isNetworkIsCoolingDown() public view returns (bool) {... */\n      swap1\n      jump\t// out\n        /* \"ichoronium-galactic-contracts/governence/ichoroniumNetworkSettings.sol\":2063:2286  function ichoroniumNetworkPermissionsCurrent() public view returns (address) {... */\n    tag_54:\n        /* \"ichoronium-galactic-contracts/governence/ichoroniumNetworkSettings.sol\":2131:2138  address */\n      0x00\n        /* \"ichoronium-galactic-contracts/governence/ichoroniumNetworkSettings.sol\":2151:2189  networkSettings storage networksetting */\n      dup1\n        /* \"ichoronium-galactic-contracts/governence/ichoroniumNetworkSettings.sol\":2192:2210  ichoroniumSettings */\n      0x02\n        /* \"ichoronium-galactic-contracts/governence/ichoroniumNetworkSettings.sol\":2151:2210  networkSettings storage networksetting = ichoroniumSettings */\n      swap1\n      pop\n        /* \"ichoronium-galactic-contracts/governence/ichoroniumNetworkSettings.sol\":2228:2242  networksetting */\n      dup1\n        /* \"ichoronium-galactic-contracts/governence/ichoroniumNetworkSettings.sol\":2228:2278  networksetting.ichoroniumNetworkPermissionsCurrent */\n      0x04\n      add\n      0x00\n      swap1\n      sload\n      swap1\n      0x0100\n      exp\n      swap1\n      div\n      0xffffffffffffffffffffffffffffffffffffffff\n      and\n        /* \"ichoronium-galactic-contracts/governence/ichoroniumNetworkSettings.sol\":2221:2278  return networksetting.ichoroniumNetworkPermissionsCurrent */\n      swap2\n      pop\n      pop\n        /* \"ichoronium-galactic-contracts/governence/ichoroniumNetworkSettings.sol\":2063:2286  function ichoroniumNetworkPermissionsCurrent() public view returns (address) {... */\n      swap1\n      jump\t// out\n        /* \"ichoronium-galactic-contracts/governence/ichoroniumNetworkSettings.sol\":1098:1278  function isNetworkActive() public view returns (bool) {... */\n    tag_57:\n        /* \"ichoronium-galactic-contracts/governence/ichoroniumNetworkSettings.sol\":1146:1150  bool */\n      0x00\n        /* \"ichoronium-galactic-contracts/governence/ichoroniumNetworkSettings.sol\":1163:1201  networkSettings storage networksetting */\n      dup1\n        /* \"ichoronium-galactic-contracts/governence/ichoroniumNetworkSettings.sol\":1204:1222  ichoroniumSettings */\n      0x02\n        /* \"ichoronium-galactic-contracts/governence/ichoroniumNetworkSettings.sol\":1163:1222  networkSettings storage networksetting = ichoroniumSettings */\n      swap1\n      pop\n        /* \"ichoronium-galactic-contracts/governence/ichoroniumNetworkSettings.sol\":1240:1254  networksetting */\n      dup1\n        /* \"ichoronium-galactic-contracts/governence/ichoroniumNetworkSettings.sol\":1240:1270  networksetting.isNetworkActive */\n      0x00\n      add\n      0x00\n      swap1\n      sload\n      swap1\n      0x0100\n      exp\n      swap1\n      div\n      0xff\n      and\n        /* \"ichoronium-galactic-contracts/governence/ichoroniumNetworkSettings.sol\":1233:1270  return networksetting.isNetworkActive */\n      swap2\n      pop\n      pop\n        /* \"ichoronium-galactic-contracts/governence/ichoroniumNetworkSettings.sol\":1098:1278  function isNetworkActive() public view returns (bool) {... */\n      swap1\n      jump\t// out\n        /* \"ichoronium-galactic-contracts/governence/ichoroniumNetworkSettings.sol\":4527:4794  function switchichoroniumCloudSettingsCurrent(address newSetting... */\n    tag_61:\n        /* \"ichoronium-galactic-contracts/governence/ichoroniumNetworkSettings.sol\":215:220  owner */\n      0x01\n      0x00\n      swap1\n      sload\n      swap1\n      0x0100\n      exp\n      swap1\n      div\n      0xffffffffffffffffffffffffffffffffffffffff\n      and\n        /* \"ichoronium-galactic-contracts/governence/ichoroniumNetworkSettings.sol\":201:220  msg.sender == owner */\n      0xffffffffffffffffffffffffffffffffffffffff\n      and\n        /* \"ichoronium-galactic-contracts/governence/ichoroniumNetworkSettings.sol\":201:211  msg.sender */\n      caller\n        /* \"ichoronium-galactic-contracts/governence/ichoroniumNetworkSettings.sol\":201:220  msg.sender == owner */\n      0xffffffffffffffffffffffffffffffffffffffff\n      and\n      eq\n        /* \"ichoronium-galactic-contracts/governence/ichoroniumNetworkSettings.sol\":192:221  require (msg.sender == owner) */\n      tag_94\n      jumpi\n      0x00\n      dup1\n      revert\n    tag_94:\n        /* \"ichoronium-galactic-contracts/governence/ichoroniumNetworkSettings.sol\":4741:4751  newSetting */\n      dup1\n        /* \"ichoronium-galactic-contracts/governence/ichoroniumNetworkSettings.sol\":4689:4707  ichoroniumSettings */\n      0x02\n        /* \"ichoronium-galactic-contracts/governence/ichoroniumNetworkSettings.sol\":4689:4738  ichoroniumSettings.ichoroniumCloudSettingsCurrent */\n      0x10\n      add\n      0x00\n        /* \"ichoronium-galactic-contracts/governence/ichoroniumNetworkSettings.sol\":4689:4751  ichoroniumSettings.ichoroniumCloudSettingsCurrent = newSetting */\n      0x0100\n      exp\n      dup2\n      sload\n      dup2\n      0xffffffffffffffffffffffffffffffffffffffff\n      mul\n      not\n      and\n      swap1\n      dup4\n      0xffffffffffffffffffffffffffffffffffffffff\n      and\n      mul\n      or\n      swap1\n      sstore\n      pop\n        /* \"ichoronium-galactic-contracts/governence/ichoroniumNetworkSettings.sol\":4527:4794  function switchichoroniumCloudSettingsCurrent(address newSetting... */\n      pop\n      jump\t// out\n        /* \"ichoronium-galactic-contracts/governence/ichoroniumNetworkSettings.sol\":2511:2734  function ichoroniumGalacticMeteaverseCurrent() public view returns (address) {... */\n    tag_63:\n        /* \"ichoronium-galactic-contracts/governence/ichoroniumNetworkSettings.sol\":2579:2586  address */\n      0x00\n        /* \"ichoronium-galactic-contracts/governence/ichoroniumNetworkSettings.sol\":2599:2637  networkSettings storage networksetting */\n      dup1\n        /* \"ichoronium-galactic-contracts/governence/ichoroniumNetworkSettings.sol\":2640:2658  ichoroniumSettings */\n      0x02\n        /* \"ichoronium-galactic-contracts/governence/ichoroniumNetworkSettings.sol\":2599:2658  networkSettings storage networksetting = ichoroniumSettings */\n      swap1\n      pop\n        /* \"ichoronium-galactic-contracts/governence/ichoroniumNetworkSettings.sol\":2676:2690  networksetting */\n      dup1\n        /* \"ichoronium-galactic-contracts/governence/ichoroniumNetworkSettings.sol\":2676:2726  networksetting.ichoroniumGalacticMeteaverseCurrent */\n      0x0a\n      add\n      0x00\n      swap1\n      sload\n      swap1\n      0x0100\n      exp\n      swap1\n      div\n      0xffffffffffffffffffffffffffffffffffffffff\n      and\n        /* \"ichoronium-galactic-contracts/governence/ichoroniumNetworkSettings.sol\":2669:2726  return networksetting.ichoroniumGalacticMeteaverseCurrent */\n      swap2\n      pop\n      pop\n        /* \"ichoronium-galactic-contracts/governence/ichoroniumNetworkSettings.sol\":2511:2734  function ichoroniumGalacticMeteaverseCurrent() public view returns (address) {... */\n      swap1\n      jump\t// out\n        /* \"ichoronium-galactic-contracts/governence/ichoroniumNetworkSettings.sol\":3975:4252  function switchichoroniumGalacticMeteaverseCurrent(address newSetting... */\n    tag_67:\n        /* \"ichoronium-galactic-contracts/governence/ichoroniumNetworkSettings.sol\":215:220  owner */\n      0x01\n      0x00\n      swap1\n      sload\n      swap1\n      0x0100\n      exp\n      swap1\n      div\n      0xffffffffffffffffffffffffffffffffffffffff\n      and\n        /* \"ichoronium-galactic-contracts/governence/ichoroniumNetworkSettings.sol\":201:220  msg.sender == owner */\n      0xffffffffffffffffffffffffffffffffffffffff\n      and\n        /* \"ichoronium-galactic-contracts/governence/ichoroniumNetworkSettings.sol\":201:211  msg.sender */\n      caller\n        /* \"ichoronium-galactic-contracts/governence/ichoroniumNetworkSettings.sol\":201:220  msg.sender == owner */\n      0xffffffffffffffffffffffffffffffffffffffff\n      and\n      eq\n        /* \"ichoronium-galactic-contracts/governence/ichoroniumNetworkSettings.sol\":192:221  require (msg.sender == owner) */\n      tag_98\n      jumpi\n      0x00\n      dup1\n      revert\n    tag_98:\n        /* \"ichoronium-galactic-contracts/governence/ichoroniumNetworkSettings.sol\":4199:4209  newSetting */\n      dup1\n        /* \"ichoronium-galactic-contracts/governence/ichoroniumNetworkSettings.sol\":4142:4160  ichoroniumSettings */\n      0x02\n        /* \"ichoronium-galactic-contracts/governence/ichoroniumNetworkSettings.sol\":4142:4196  ichoroniumSettings.ichoroniumGalacticMeteaverseCurrent */\n      0x0a\n      add\n      0x00\n        /* \"ichoronium-galactic-contracts/governence/ichoroniumNetworkSettings.sol\":4142:4209  ichoroniumSettings.ichoroniumGalacticMeteaverseCurrent = newSetting */\n      0x0100\n      exp\n      dup2\n      sload\n      dup2\n      0xffffffffffffffffffffffffffffffffffffffff\n      mul\n      not\n      and\n      swap1\n      dup4\n      0xffffffffffffffffffffffffffffffffffffffff\n      and\n      mul\n      or\n      swap1\n      sstore\n      pop\n        /* \"ichoronium-galactic-contracts/governence/ichoroniumNetworkSettings.sol\":3975:4252  function switchichoroniumGalacticMeteaverseCurrent(address newSetting... */\n      pop\n      jump\t// out\n        /* \"ichoronium-galactic-contracts/governence/ichoroniumNetworkSettings.sol\":1840:2057  function ichoroniumNetworkProfilesCurrent() public view returns (address) {... */\n    tag_69:\n        /* \"ichoronium-galactic-contracts/governence/ichoroniumNetworkSettings.sol\":1905:1912  address */\n      0x00\n        /* \"ichoronium-galactic-contracts/governence/ichoroniumNetworkSettings.sol\":1925:1963  networkSettings storage networksetting */\n      dup1\n        /* \"ichoronium-galactic-contracts/governence/ichoroniumNetworkSettings.sol\":1966:1984  ichoroniumSettings */\n      0x02\n        /* \"ichoronium-galactic-contracts/governence/ichoroniumNetworkSettings.sol\":1925:1984  networkSettings storage networksetting = ichoroniumSettings */\n      swap1\n      pop\n        /* \"ichoronium-galactic-contracts/governence/ichoroniumNetworkSettings.sol\":2002:2016  networksetting */\n      dup1\n        /* \"ichoronium-galactic-contracts/governence/ichoroniumNetworkSettings.sol\":2002:2049  networksetting.ichoroniumNetworkProfilesCurrent */\n      0x01\n      add\n      0x00\n      swap1\n      sload\n      swap1\n      0x0100\n      exp\n      swap1\n      div\n      0xffffffffffffffffffffffffffffffffffffffff\n      and\n        /* \"ichoronium-galactic-contracts/governence/ichoroniumNetworkSettings.sol\":1995:2049  return networksetting.ichoroniumNetworkProfilesCurrent */\n      swap2\n      pop\n      pop\n        /* \"ichoronium-galactic-contracts/governence/ichoroniumNetworkSettings.sol\":1840:2057  function ichoroniumNetworkProfilesCurrent() public view returns (address) {... */\n      swap1\n      jump\t// out\n        /* \"ichoronium-galactic-contracts/governence/ichoroniumNetworkSettings.sol\":3165:3442  function switchichoroniumNetworkProfilesCurrent(address newSetting... */\n    tag_73:\n        /* \"ichoronium-galactic-contracts/governence/ichoroniumNetworkSettings.sol\":215:220  owner */\n      0x01\n      0x00\n      swap1\n      sload\n      swap1\n      0x0100\n      exp\n      swap1\n      div\n      0xffffffffffffffffffffffffffffffffffffffff\n      and\n        /* \"ichoronium-galactic-contracts/governence/ichoroniumNetworkSettings.sol\":201:220  msg.sender == owner */\n      0xffffffffffffffffffffffffffffffffffffffff\n      and\n        /* \"ichoronium-galactic-contracts/governence/ichoroniumNetworkSettings.sol\":201:211  msg.sender */\n      caller\n        /* \"ichoronium-galactic-contracts/governence/ichoroniumNetworkSettings.sol\":201:220  msg.sender == owner */\n      0xffffffffffffffffffffffffffffffffffffffff\n      and\n      eq\n        /* \"ichoronium-galactic-contracts/governence/ichoroniumNetworkSettings.sol\":192:221  require (msg.sender == owner) */\n      tag_102\n      jumpi\n      0x00\n      dup1\n      revert\n    tag_102:\n        /* \"ichoronium-galactic-contracts/governence/ichoroniumNetworkSettings.sol\":3383:3393  newSetting */\n      dup1\n        /* \"ichoronium-galactic-contracts/governence/ichoroniumNetworkSettings.sol\":3329:3347  ichoroniumSettings */\n      0x02\n        /* \"ichoronium-galactic-contracts/governence/ichoroniumNetworkSettings.sol\":3329:3380  ichoroniumSettings.ichoroniumNetworkProfilesCurrent */\n      0x01\n      add\n      0x00\n        /* \"ichoronium-galactic-contracts/governence/ichoroniumNetworkSettings.sol\":3329:3393  ichoroniumSettings.ichoroniumNetworkProfilesCurrent = newSetting */\n      0x0100\n      exp\n      dup2\n      sload\n      dup2\n      0xffffffffffffffffffffffffffffffffffffffff\n      mul\n      not\n      and\n      swap1\n      dup4\n      0xffffffffffffffffffffffffffffffffffffffff\n      and\n      mul\n      or\n      swap1\n      sstore\n      pop\n        /* \"ichoronium-galactic-contracts/governence/ichoroniumNetworkSettings.sol\":3165:3442  function switchichoroniumNetworkProfilesCurrent(address newSetting... */\n      pop\n      jump\t// out\n    tag_85:\n      mload(0x40)\n      dup1\n      0x02c0\n      add\n      0x40\n      mstore\n      dup1\n      iszero(iszero(0x00))\n      dup2\n      mstore\n      0x20\n      add\n      iszero(iszero(0x00))\n      dup2\n      mstore\n      0x20\n      add\n      iszero(iszero(0x00))\n      dup2\n      mstore\n      0x20\n      add\n      iszero(iszero(0x00))\n      dup2\n      mstore\n      0x20\n      add\n      and(0xffffffffffffffffffffffffffffffffffffffff, 0x00)\n      dup2\n      mstore\n      0x20\n      add\n      and(0xffffffffffffffffffffffffffffffffffffffff, 0x00)\n      dup2\n      mstore\n      0x20\n      add\n      and(0xffffffffffffffffffffffffffffffffffffffff, 0x00)\n      dup2\n      mstore\n      0x20\n      add\n      and(0xffffffffffffffffffffffffffffffffffffffff, 0x00)\n      dup2\n      mstore\n      0x20\n      add\n      and(0xffffffffffffffffffffffffffffffffffffffff, 0x00)\n      dup2\n      mstore\n      0x20\n      add\n      and(0xffffffffffffffffffffffffffffffffffffffff, 0x00)\n      dup2\n      mstore\n      0x20\n      add\n      and(0xffffffffffffffffffffffffffffffffffffffff, 0x00)\n      dup2\n      mstore\n      0x20\n      add\n      and(0xffffffffffffffffffffffffffffffffffffffff, 0x00)\n      dup2\n      mstore\n      0x20\n      add\n      and(0xffffffffffffffffffffffffffffffffffffffff, 0x00)\n      dup2\n      mstore\n      0x20\n      add\n      and(0xffffffffffffffffffffffffffffffffffffffff, 0x00)\n      dup2\n      mstore\n      0x20\n      add\n      and(0xffffffffffffffffffffffffffffffffffffffff, 0x00)\n      dup2\n      mstore\n      0x20\n      add\n      and(0xffffffffffffffffffffffffffffffffffffffff, 0x00)\n      dup2\n      mstore\n      0x20\n      add\n      and(0xffffffffffffffffffffffffffffffffffffffff, 0x00)\n      dup2\n      mstore\n      0x20\n      add\n      and(0xffffffffffffffffffffffffffffffffffffffff, 0x00)\n      dup2\n      mstore\n      0x20\n      add\n      and(0xffffffffffffffffffffffffffffffffffffffff, 0x00)\n      dup2\n      mstore\n      0x20\n      add\n      and(0xffffffffffffffffffffffffffffffffffffffff, 0x00)\n      dup2\n      mstore\n      0x20\n      add\n      and(0xffffffffffffffffffffffffffffffffffffffff, 0x00)\n      dup2\n      mstore\n      0x20\n      add\n      and(0xffffffffffffffffffffffffffffffffffffffff, 0x00)\n      dup2\n      mstore\n      pop\n      swap1\n      jump\t// out\n        /* \"#utility.yul\":88:205   */\n    tag_105:\n        /* \"#utility.yul\":197:198   */\n      0x00\n        /* \"#utility.yul\":194:195   */\n      dup1\n        /* \"#utility.yul\":187:199   */\n      revert\n        /* \"#utility.yul\":334:460   */\n    tag_107:\n        /* \"#utility.yul\":371:378   */\n      0x00\n        /* \"#utility.yul\":411:453   */\n      0xffffffffffffffffffffffffffffffffffffffff\n        /* \"#utility.yul\":404:409   */\n      dup3\n        /* \"#utility.yul\":400:454   */\n      and\n        /* \"#utility.yul\":389:454   */\n      swap1\n      pop\n        /* \"#utility.yul\":334:460   */\n      swap2\n      swap1\n      pop\n      jump\t// out\n        /* \"#utility.yul\":466:562   */\n    tag_108:\n        /* \"#utility.yul\":503:510   */\n      0x00\n        /* \"#utility.yul\":532:556   */\n      tag_123\n        /* \"#utility.yul\":550:555   */\n      dup3\n        /* \"#utility.yul\":532:556   */\n      tag_107\n      jump\t// in\n    tag_123:\n        /* \"#utility.yul\":521:556   */\n      swap1\n      pop\n        /* \"#utility.yul\":466:562   */\n      swap2\n      swap1\n      pop\n      jump\t// out\n        /* \"#utility.yul\":568:690   */\n    tag_109:\n        /* \"#utility.yul\":641:665   */\n      tag_125\n        /* \"#utility.yul\":659:664   */\n      dup2\n        /* \"#utility.yul\":641:665   */\n      tag_108\n      jump\t// in\n    tag_125:\n        /* \"#utility.yul\":634:639   */\n      dup2\n        /* \"#utility.yul\":631:666   */\n      eq\n        /* \"#utility.yul\":621:684   */\n      tag_126\n      jumpi\n        /* \"#utility.yul\":680:681   */\n      0x00\n        /* \"#utility.yul\":677:678   */\n      dup1\n        /* \"#utility.yul\":670:682   */\n      revert\n        /* \"#utility.yul\":621:684   */\n    tag_126:\n        /* \"#utility.yul\":568:690   */\n      pop\n      jump\t// out\n        /* \"#utility.yul\":696:835   */\n    tag_110:\n        /* \"#utility.yul\":742:747   */\n      0x00\n        /* \"#utility.yul\":780:786   */\n      dup2\n        /* \"#utility.yul\":767:787   */\n      calldataload\n        /* \"#utility.yul\":758:787   */\n      swap1\n      pop\n        /* \"#utility.yul\":796:829   */\n      tag_128\n        /* \"#utility.yul\":823:828   */\n      dup2\n        /* \"#utility.yul\":796:829   */\n      tag_109\n      jump\t// in\n    tag_128:\n        /* \"#utility.yul\":696:835   */\n      swap3\n      swap2\n      pop\n      pop\n      jump\t// out\n        /* \"#utility.yul\":841:1170   */\n    tag_24:\n        /* \"#utility.yul\":900:906   */\n      0x00\n        /* \"#utility.yul\":949:951   */\n      0x20\n        /* \"#utility.yul\":937:946   */\n      dup3\n        /* \"#utility.yul\":928:935   */\n      dup5\n        /* \"#utility.yul\":924:947   */\n      sub\n        /* \"#utility.yul\":920:952   */\n      slt\n        /* \"#utility.yul\":917:1036   */\n      iszero\n      tag_130\n      jumpi\n        /* \"#utility.yul\":955:1034   */\n      tag_131\n      tag_105\n      jump\t// in\n    tag_131:\n        /* \"#utility.yul\":917:1036   */\n    tag_130:\n        /* \"#utility.yul\":1075:1076   */\n      0x00\n        /* \"#utility.yul\":1100:1153   */\n      tag_132\n        /* \"#utility.yul\":1145:1152   */\n      dup5\n        /* \"#utility.yul\":1136:1142   */\n      dup3\n        /* \"#utility.yul\":1125:1134   */\n      dup6\n        /* \"#utility.yul\":1121:1143   */\n      add\n        /* \"#utility.yul\":1100:1153   */\n      tag_110\n      jump\t// in\n    tag_132:\n        /* \"#utility.yul\":1090:1153   */\n      swap2\n      pop\n        /* \"#utility.yul\":1046:1163   */\n      pop\n        /* \"#utility.yul\":841:1170   */\n      swap3\n      swap2\n      pop\n      pop\n      jump\t// out\n        /* \"#utility.yul\":1176:1266   */\n    tag_111:\n        /* \"#utility.yul\":1210:1217   */\n      0x00\n        /* \"#utility.yul\":1253:1258   */\n      dup2\n        /* \"#utility.yul\":1246:1259   */\n      iszero\n        /* \"#utility.yul\":1239:1260   */\n      iszero\n        /* \"#utility.yul\":1228:1260   */\n      swap1\n      pop\n        /* \"#utility.yul\":1176:1266   */\n      swap2\n      swap1\n      pop\n      jump\t// out\n        /* \"#utility.yul\":1272:1381   */\n    tag_112:\n        /* \"#utility.yul\":1353:1374   */\n      tag_135\n        /* \"#utility.yul\":1368:1373   */\n      dup2\n        /* \"#utility.yul\":1353:1374   */\n      tag_111\n      jump\t// in\n    tag_135:\n        /* \"#utility.yul\":1348:1351   */\n      dup3\n        /* \"#utility.yul\":1341:1375   */\n      mstore\n        /* \"#utility.yul\":1272:1381   */\n      pop\n      pop\n      jump\t// out\n        /* \"#utility.yul\":1387:1597   */\n    tag_29:\n        /* \"#utility.yul\":1474:1478   */\n      0x00\n        /* \"#utility.yul\":1512:1514   */\n      0x20\n        /* \"#utility.yul\":1501:1510   */\n      dup3\n        /* \"#utility.yul\":1497:1515   */\n      add\n        /* \"#utility.yul\":1489:1515   */\n      swap1\n      pop\n        /* \"#utility.yul\":1525:1590   */\n      tag_137\n        /* \"#utility.yul\":1587:1588   */\n      0x00\n        /* \"#utility.yul\":1576:1585   */\n      dup4\n        /* \"#utility.yul\":1572:1589   */\n      add\n        /* \"#utility.yul\":1563:1569   */\n      dup5\n        /* \"#utility.yul\":1525:1590   */\n      tag_112\n      jump\t// in\n    tag_137:\n        /* \"#utility.yul\":1387:1597   */\n      swap3\n      swap2\n      pop\n      pop\n      jump\t// out\n        /* \"#utility.yul\":1603:1721   */\n    tag_113:\n        /* \"#utility.yul\":1690:1714   */\n      tag_139\n        /* \"#utility.yul\":1708:1713   */\n      dup2\n        /* \"#utility.yul\":1690:1714   */\n      tag_108\n      jump\t// in\n    tag_139:\n        /* \"#utility.yul\":1685:1688   */\n      dup3\n        /* \"#utility.yul\":1678:1715   */\n      mstore\n        /* \"#utility.yul\":1603:1721   */\n      pop\n      pop\n      jump\t// out\n        /* \"#utility.yul\":1727:1949   */\n    tag_33:\n        /* \"#utility.yul\":1820:1824   */\n      0x00\n        /* \"#utility.yul\":1858:1860   */\n      0x20\n        /* \"#utility.yul\":1847:1856   */\n      dup3\n        /* \"#utility.yul\":1843:1861   */\n      add\n        /* \"#utility.yul\":1835:1861   */\n      swap1\n      pop\n        /* \"#utility.yul\":1871:1942   */\n      tag_141\n        /* \"#utility.yul\":1939:1940   */\n      0x00\n        /* \"#utility.yul\":1928:1937   */\n      dup4\n        /* \"#utility.yul\":1924:1941   */\n      add\n        /* \"#utility.yul\":1915:1921   */\n      dup5\n        /* \"#utility.yul\":1871:1942   */\n      tag_113\n      jump\t// in\n    tag_141:\n        /* \"#utility.yul\":1727:1949   */\n      swap3\n      swap2\n      pop\n      pop\n      jump\t// out\n        /* \"#utility.yul\":1955:2054   */\n    tag_114:\n        /* \"#utility.yul\":2026:2047   */\n      tag_143\n        /* \"#utility.yul\":2041:2046   */\n      dup2\n        /* \"#utility.yul\":2026:2047   */\n      tag_111\n      jump\t// in\n    tag_143:\n        /* \"#utility.yul\":2021:2024   */\n      dup3\n        /* \"#utility.yul\":2014:2048   */\n      mstore\n        /* \"#utility.yul\":1955:2054   */\n      pop\n      pop\n      jump\t// out\n        /* \"#utility.yul\":2060:2168   */\n    tag_115:\n        /* \"#utility.yul\":2137:2161   */\n      tag_145\n        /* \"#utility.yul\":2155:2160   */\n      dup2\n        /* \"#utility.yul\":2137:2161   */\n      tag_108\n      jump\t// in\n    tag_145:\n        /* \"#utility.yul\":2132:2135   */\n      dup3\n        /* \"#utility.yul\":2125:2162   */\n      mstore\n        /* \"#utility.yul\":2060:2168   */\n      pop\n      pop\n      jump\t// out\n        /* \"#utility.yul\":2282:6943   */\n    tag_116:\n        /* \"#utility.yul\":2443:2449   */\n      0x02c0\n        /* \"#utility.yul\":2438:2441   */\n      dup3\n        /* \"#utility.yul\":2434:2450   */\n      add\n        /* \"#utility.yul\":2543:2547   */\n      0x00\n        /* \"#utility.yul\":2536:2541   */\n      dup3\n        /* \"#utility.yul\":2532:2548   */\n      add\n        /* \"#utility.yul\":2526:2549   */\n      mload\n        /* \"#utility.yul\":2562:2619   */\n      tag_147\n        /* \"#utility.yul\":2613:2617   */\n      0x00\n        /* \"#utility.yul\":2608:2611   */\n      dup6\n        /* \"#utility.yul\":2604:2618   */\n      add\n        /* \"#utility.yul\":2590:2602   */\n      dup3\n        /* \"#utility.yul\":2562:2619   */\n      tag_114\n      jump\t// in\n    tag_147:\n        /* \"#utility.yul\":2460:2629   */\n      pop\n        /* \"#utility.yul\":2729:2733   */\n      0x20\n        /* \"#utility.yul\":2722:2727   */\n      dup3\n        /* \"#utility.yul\":2718:2734   */\n      add\n        /* \"#utility.yul\":2712:2735   */\n      mload\n        /* \"#utility.yul\":2748:2805   */\n      tag_148\n        /* \"#utility.yul\":2799:2803   */\n      0x20\n        /* \"#utility.yul\":2794:2797   */\n      dup6\n        /* \"#utility.yul\":2790:2804   */\n      add\n        /* \"#utility.yul\":2776:2788   */\n      dup3\n        /* \"#utility.yul\":2748:2805   */\n      tag_114\n      jump\t// in\n    tag_148:\n        /* \"#utility.yul\":2639:2815   */\n      pop\n        /* \"#utility.yul\":2912:2916   */\n      0x40\n        /* \"#utility.yul\":2905:2910   */\n      dup3\n        /* \"#utility.yul\":2901:2917   */\n      add\n        /* \"#utility.yul\":2895:2918   */\n      mload\n        /* \"#utility.yul\":2931:2988   */\n      tag_149\n        /* \"#utility.yul\":2982:2986   */\n      0x40\n        /* \"#utility.yul\":2977:2980   */\n      dup6\n        /* \"#utility.yul\":2973:2987   */\n      add\n        /* \"#utility.yul\":2959:2971   */\n      dup3\n        /* \"#utility.yul\":2931:2988   */\n      tag_114\n      jump\t// in\n    tag_149:\n        /* \"#utility.yul\":2825:2998   */\n      pop\n        /* \"#utility.yul\":3086:3090   */\n      0x60\n        /* \"#utility.yul\":3079:3084   */\n      dup3\n        /* \"#utility.yul\":3075:3091   */\n      add\n        /* \"#utility.yul\":3069:3092   */\n      mload\n        /* \"#utility.yul\":3105:3162   */\n      tag_150\n        /* \"#utility.yul\":3156:3160   */\n      0x60\n        /* \"#utility.yul\":3151:3154   */\n      dup6\n        /* \"#utility.yul\":3147:3161   */\n      add\n        /* \"#utility.yul\":3133:3145   */\n      dup3\n        /* \"#utility.yul\":3105:3162   */\n      tag_114\n      jump\t// in\n    tag_150:\n        /* \"#utility.yul\":3008:3172   */\n      pop\n        /* \"#utility.yul\":3283:3287   */\n      0x80\n        /* \"#utility.yul\":3276:3281   */\n      dup3\n        /* \"#utility.yul\":3272:3288   */\n      add\n        /* \"#utility.yul\":3266:3289   */\n      mload\n        /* \"#utility.yul\":3302:3365   */\n      tag_151\n        /* \"#utility.yul\":3359:3363   */\n      0x80\n        /* \"#utility.yul\":3354:3357   */\n      dup6\n        /* \"#utility.yul\":3350:3364   */\n      add\n        /* \"#utility.yul\":3336:3348   */\n      dup3\n        /* \"#utility.yul\":3302:3365   */\n      tag_115\n      jump\t// in\n    tag_151:\n        /* \"#utility.yul\":3182:3375   */\n      pop\n        /* \"#utility.yul\":3485:3489   */\n      0xa0\n        /* \"#utility.yul\":3478:3483   */\n      dup3\n        /* \"#utility.yul\":3474:3490   */\n      add\n        /* \"#utility.yul\":3468:3491   */\n      mload\n        /* \"#utility.yul\":3504:3567   */\n      tag_152\n        /* \"#utility.yul\":3561:3565   */\n      0xa0\n        /* \"#utility.yul\":3556:3559   */\n      dup6\n        /* \"#utility.yul\":3552:3566   */\n      add\n        /* \"#utility.yul\":3538:3550   */\n      dup3\n        /* \"#utility.yul\":3504:3567   */\n      tag_115\n      jump\t// in\n    tag_152:\n        /* \"#utility.yul\":3385:3577   */\n      pop\n        /* \"#utility.yul\":3695:3699   */\n      0xc0\n        /* \"#utility.yul\":3688:3693   */\n      dup3\n        /* \"#utility.yul\":3684:3700   */\n      add\n        /* \"#utility.yul\":3678:3701   */\n      mload\n        /* \"#utility.yul\":3714:3777   */\n      tag_153\n        /* \"#utility.yul\":3771:3775   */\n      0xc0\n        /* \"#utility.yul\":3766:3769   */\n      dup6\n        /* \"#utility.yul\":3762:3776   */\n      add\n        /* \"#utility.yul\":3748:3760   */\n      dup3\n        /* \"#utility.yul\":3714:3777   */\n      tag_115\n      jump\t// in\n    tag_153:\n        /* \"#utility.yul\":3587:3787   */\n      pop\n        /* \"#utility.yul\":3901:3905   */\n      0xe0\n        /* \"#utility.yul\":3894:3899   */\n      dup3\n        /* \"#utility.yul\":3890:3906   */\n      add\n        /* \"#utility.yul\":3884:3907   */\n      mload\n        /* \"#utility.yul\":3920:3983   */\n      tag_154\n        /* \"#utility.yul\":3977:3981   */\n      0xe0\n        /* \"#utility.yul\":3972:3975   */\n      dup6\n        /* \"#utility.yul\":3968:3982   */\n      add\n        /* \"#utility.yul\":3954:3966   */\n      dup3\n        /* \"#utility.yul\":3920:3983   */\n      tag_115\n      jump\t// in\n    tag_154:\n        /* \"#utility.yul\":3797:3993   */\n      pop\n        /* \"#utility.yul\":4106:4112   */\n      0x0100\n        /* \"#utility.yul\":4099:4104   */\n      dup3\n        /* \"#utility.yul\":4095:4113   */\n      add\n        /* \"#utility.yul\":4089:4114   */\n      mload\n        /* \"#utility.yul\":4127:4192   */\n      tag_155\n        /* \"#utility.yul\":4184:4190   */\n      0x0100\n        /* \"#utility.yul\":4179:4182   */\n      dup6\n        /* \"#utility.yul\":4175:4191   */\n      add\n        /* \"#utility.yul\":4161:4173   */\n      dup3\n        /* \"#utility.yul\":4127:4192   */\n      tag_115\n      jump\t// in\n    tag_155:\n        /* \"#utility.yul\":4003:4202   */\n      pop\n        /* \"#utility.yul\":4323:4329   */\n      0x0120\n        /* \"#utility.yul\":4316:4321   */\n      dup3\n        /* \"#utility.yul\":4312:4330   */\n      add\n        /* \"#utility.yul\":4306:4331   */\n      mload\n        /* \"#utility.yul\":4344:4409   */\n      tag_156\n        /* \"#utility.yul\":4401:4407   */\n      0x0120\n        /* \"#utility.yul\":4396:4399   */\n      dup6\n        /* \"#utility.yul\":4392:4408   */\n      add\n        /* \"#utility.yul\":4378:4390   */\n      dup3\n        /* \"#utility.yul\":4344:4409   */\n      tag_115\n      jump\t// in\n    tag_156:\n        /* \"#utility.yul\":4212:4419   */\n      pop\n        /* \"#utility.yul\":4532:4538   */\n      0x0140\n        /* \"#utility.yul\":4525:4530   */\n      dup3\n        /* \"#utility.yul\":4521:4539   */\n      add\n        /* \"#utility.yul\":4515:4540   */\n      mload\n        /* \"#utility.yul\":4553:4618   */\n      tag_157\n        /* \"#utility.yul\":4610:4616   */\n      0x0140\n        /* \"#utility.yul\":4605:4608   */\n      dup6\n        /* \"#utility.yul\":4601:4617   */\n      add\n        /* \"#utility.yul\":4587:4599   */\n      dup3\n        /* \"#utility.yul\":4553:4618   */\n      tag_115\n      jump\t// in\n    tag_157:\n        /* \"#utility.yul\":4429:4628   */\n      pop\n        /* \"#utility.yul\":4740:4746   */\n      0x0160\n        /* \"#utility.yul\":4733:4738   */\n      dup3\n        /* \"#utility.yul\":4729:4747   */\n      add\n        /* \"#utility.yul\":4723:4748   */\n      mload\n        /* \"#utility.yul\":4761:4826   */\n      tag_158\n        /* \"#utility.yul\":4818:4824   */\n      0x0160\n        /* \"#utility.yul\":4813:4816   */\n      dup6\n        /* \"#utility.yul\":4809:4825   */\n      add\n        /* \"#utility.yul\":4795:4807   */\n      dup3\n        /* \"#utility.yul\":4761:4826   */\n      tag_115\n      jump\t// in\n    tag_158:\n        /* \"#utility.yul\":4638:4836   */\n      pop\n        /* \"#utility.yul\":4956:4962   */\n      0x0180\n        /* \"#utility.yul\":4949:4954   */\n      dup3\n        /* \"#utility.yul\":4945:4963   */\n      add\n        /* \"#utility.yul\":4939:4964   */\n      mload\n        /* \"#utility.yul\":4977:5042   */\n      tag_159\n        /* \"#utility.yul\":5034:5040   */\n      0x0180\n        /* \"#utility.yul\":5029:5032   */\n      dup6\n        /* \"#utility.yul\":5025:5041   */\n      add\n        /* \"#utility.yul\":5011:5023   */\n      dup3\n        /* \"#utility.yul\":4977:5042   */\n      tag_115\n      jump\t// in\n    tag_159:\n        /* \"#utility.yul\":4846:5052   */\n      pop\n        /* \"#utility.yul\":5166:5172   */\n      0x01a0\n        /* \"#utility.yul\":5159:5164   */\n      dup3\n        /* \"#utility.yul\":5155:5173   */\n      add\n        /* \"#utility.yul\":5149:5174   */\n      mload\n        /* \"#utility.yul\":5187:5252   */\n      tag_160\n        /* \"#utility.yul\":5244:5250   */\n      0x01a0\n        /* \"#utility.yul\":5239:5242   */\n      dup6\n        /* \"#utility.yul\":5235:5251   */\n      add\n        /* \"#utility.yul\":5221:5233   */\n      dup3\n        /* \"#utility.yul\":5187:5252   */\n      tag_115\n      jump\t// in\n    tag_160:\n        /* \"#utility.yul\":5062:5262   */\n      pop\n        /* \"#utility.yul\":5375:5381   */\n      0x01c0\n        /* \"#utility.yul\":5368:5373   */\n      dup3\n        /* \"#utility.yul\":5364:5382   */\n      add\n        /* \"#utility.yul\":5358:5383   */\n      mload\n        /* \"#utility.yul\":5396:5461   */\n      tag_161\n        /* \"#utility.yul\":5453:5459   */\n      0x01c0\n        /* \"#utility.yul\":5448:5451   */\n      dup6\n        /* \"#utility.yul\":5444:5460   */\n      add\n        /* \"#utility.yul\":5430:5442   */\n      dup3\n        /* \"#utility.yul\":5396:5461   */\n      tag_115\n      jump\t// in\n    tag_161:\n        /* \"#utility.yul\":5272:5471   */\n      pop\n        /* \"#utility.yul\":5592:5598   */\n      0x01e0\n        /* \"#utility.yul\":5585:5590   */\n      dup3\n        /* \"#utility.yul\":5581:5599   */\n      add\n        /* \"#utility.yul\":5575:5600   */\n      mload\n        /* \"#utility.yul\":5613:5678   */\n      tag_162\n        /* \"#utility.yul\":5670:5676   */\n      0x01e0\n        /* \"#utility.yul\":5665:5668   */\n      dup6\n        /* \"#utility.yul\":5661:5677   */\n      add\n        /* \"#utility.yul\":5647:5659   */\n      dup3\n        /* \"#utility.yul\":5613:5678   */\n      tag_115\n      jump\t// in\n    tag_162:\n        /* \"#utility.yul\":5481:5688   */\n      pop\n        /* \"#utility.yul\":5799:5805   */\n      0x0200\n        /* \"#utility.yul\":5792:5797   */\n      dup3\n        /* \"#utility.yul\":5788:5806   */\n      add\n        /* \"#utility.yul\":5782:5807   */\n      mload\n        /* \"#utility.yul\":5820:5885   */\n      tag_163\n        /* \"#utility.yul\":5877:5883   */\n      0x0200\n        /* \"#utility.yul\":5872:5875   */\n      dup6\n        /* \"#utility.yul\":5868:5884   */\n      add\n        /* \"#utility.yul\":5854:5866   */\n      dup3\n        /* \"#utility.yul\":5820:5885   */\n      tag_115\n      jump\t// in\n    tag_163:\n        /* \"#utility.yul\":5698:5895   */\n      pop\n        /* \"#utility.yul\":6005:6011   */\n      0x0220\n        /* \"#utility.yul\":5998:6003   */\n      dup3\n        /* \"#utility.yul\":5994:6012   */\n      add\n        /* \"#utility.yul\":5988:6013   */\n      mload\n        /* \"#utility.yul\":6026:6091   */\n      tag_164\n        /* \"#utility.yul\":6083:6089   */\n      0x0220\n        /* \"#utility.yul\":6078:6081   */\n      dup6\n        /* \"#utility.yul\":6074:6090   */\n      add\n        /* \"#utility.yul\":6060:6072   */\n      dup3\n        /* \"#utility.yul\":6026:6091   */\n      tag_115\n      jump\t// in\n    tag_164:\n        /* \"#utility.yul\":5905:6101   */\n      pop\n        /* \"#utility.yul\":6219:6225   */\n      0x0240\n        /* \"#utility.yul\":6212:6217   */\n      dup3\n        /* \"#utility.yul\":6208:6226   */\n      add\n        /* \"#utility.yul\":6202:6227   */\n      mload\n        /* \"#utility.yul\":6240:6305   */\n      tag_165\n        /* \"#utility.yul\":6297:6303   */\n      0x0240\n        /* \"#utility.yul\":6292:6295   */\n      dup6\n        /* \"#utility.yul\":6288:6304   */\n      add\n        /* \"#utility.yul\":6274:6286   */\n      dup3\n        /* \"#utility.yul\":6240:6305   */\n      tag_115\n      jump\t// in\n    tag_165:\n        /* \"#utility.yul\":6111:6315   */\n      pop\n        /* \"#utility.yul\":6424:6430   */\n      0x0260\n        /* \"#utility.yul\":6417:6422   */\n      dup3\n        /* \"#utility.yul\":6413:6431   */\n      add\n        /* \"#utility.yul\":6407:6432   */\n      mload\n        /* \"#utility.yul\":6445:6510   */\n      tag_166\n        /* \"#utility.yul\":6502:6508   */\n      0x0260\n        /* \"#utility.yul\":6497:6500   */\n      dup6\n        /* \"#utility.yul\":6493:6509   */\n      add\n        /* \"#utility.yul\":6479:6491   */\n      dup3\n        /* \"#utility.yul\":6445:6510   */\n      tag_115\n      jump\t// in\n    tag_166:\n        /* \"#utility.yul\":6325:6520   */\n      pop\n        /* \"#utility.yul\":6628:6634   */\n      0x0280\n        /* \"#utility.yul\":6621:6626   */\n      dup3\n        /* \"#utility.yul\":6617:6635   */\n      add\n        /* \"#utility.yul\":6611:6636   */\n      mload\n        /* \"#utility.yul\":6649:6714   */\n      tag_167\n        /* \"#utility.yul\":6706:6712   */\n      0x0280\n        /* \"#utility.yul\":6701:6704   */\n      dup6\n        /* \"#utility.yul\":6697:6713   */\n      add\n        /* \"#utility.yul\":6683:6695   */\n      dup3\n        /* \"#utility.yul\":6649:6714   */\n      tag_115\n      jump\t// in\n    tag_167:\n        /* \"#utility.yul\":6530:6724   */\n      pop\n        /* \"#utility.yul\":6840:6846   */\n      0x02a0\n        /* \"#utility.yul\":6833:6838   */\n      dup3\n        /* \"#utility.yul\":6829:6847   */\n      add\n        /* \"#utility.yul\":6823:6848   */\n      mload\n        /* \"#utility.yul\":6861:6926   */\n      tag_168\n        /* \"#utility.yul\":6918:6924   */\n      0x02a0\n        /* \"#utility.yul\":6913:6916   */\n      dup6\n        /* \"#utility.yul\":6909:6925   */\n      add\n        /* \"#utility.yul\":6895:6907   */\n      dup3\n        /* \"#utility.yul\":6861:6926   */\n      tag_115\n      jump\t// in\n    tag_168:\n        /* \"#utility.yul\":6734:6936   */\n      pop\n        /* \"#utility.yul\":2412:6943   */\n      pop\n        /* \"#utility.yul\":2282:6943   */\n      pop\n      pop\n      jump\t// out\n        /* \"#utility.yul\":6949:7300   */\n    tag_46:\n        /* \"#utility.yul\":7106:7110   */\n      0x00\n        /* \"#utility.yul\":7144:7147   */\n      0x02c0\n        /* \"#utility.yul\":7133:7142   */\n      dup3\n        /* \"#utility.yul\":7129:7148   */\n      add\n        /* \"#utility.yul\":7121:7148   */\n      swap1\n      pop\n        /* \"#utility.yul\":7158:7293   */\n      tag_170\n        /* \"#utility.yul\":7290:7291   */\n      0x00\n        /* \"#utility.yul\":7279:7288   */\n      dup4\n        /* \"#utility.yul\":7275:7292   */\n      add\n        /* \"#utility.yul\":7266:7272   */\n      dup5\n        /* \"#utility.yul\":7158:7293   */\n      tag_116\n      jump\t// in\n    tag_170:\n        /* \"#utility.yul\":6949:7300   */\n      swap3\n      swap2\n      pop\n      pop\n      jump\t// out\n\n    auxdata: 0xa2646970667358221220ce4d0c352f77dfad454c769aaaf63b2dbee5e54d02a4005475b48b688c1013fe64736f6c63430008100033\n}\n",
				"bytecode": {
					"linkReferences": {},
					"object": "6080604052604051806102c00160405280600015158152602001600015158152602001600115158152602001600015158152602001600073ffffffffffffffffffffffffffffffffffffffff168152602001600073ffffffffffffffffffffffffffffffffffffffff168152602001600073ffffffffffffffffffffffffffffffffffffffff168152602001600073ffffffffffffffffffffffffffffffffffffffff168152602001600073ffffffffffffffffffffffffffffffffffffffff168152602001600073ffffffffffffffffffffffffffffffffffffffff168152602001600073ffffffffffffffffffffffffffffffffffffffff168152602001600073ffffffffffffffffffffffffffffffffffffffff168152602001600073ffffffffffffffffffffffffffffffffffffffff168152602001600073ffffffffffffffffffffffffffffffffffffffff168152602001600073ffffffffffffffffffffffffffffffffffffffff168152602001600073ffffffffffffffffffffffffffffffffffffffff168152602001600073ffffffffffffffffffffffffffffffffffffffff168152602001600073ffffffffffffffffffffffffffffffffffffffff168152602001600073ffffffffffffffffffffffffffffffffffffffff168152602001600073ffffffffffffffffffffffffffffffffffffffff168152602001600073ffffffffffffffffffffffffffffffffffffffff168152602001600073ffffffffffffffffffffffffffffffffffffffff16815250600260008201518160000160006101000a81548160ff02191690831515021790555060208201518160000160016101000a81548160ff02191690831515021790555060408201518160000160026101000a81548160ff02191690831515021790555060608201518160000160036101000a81548160ff02191690831515021790555060808201518160000160046101000a81548173ffffffffffffffffffffffffffffffffffffffff021916908373ffffffffffffffffffffffffffffffffffffffff16021790555060a08201518160010160006101000a81548173ffffffffffffffffffffffffffffffffffffffff021916908373ffffffffffffffffffffffffffffffffffffffff16021790555060c08201518160020160006101000a81548173ffffffffffffffffffffffffffffffffffffffff021916908373ffffffffffffffffffffffffffffffffffffffff16021790555060e08201518160030160006101000a81548173ffffffffffffffffffffffffffffffffffffffff021916908373ffffffffffffffffffffffffffffffffffffffff1602179055506101008201518160040160006101000a81548173ffffffffffffffffffffffffffffffffffffffff021916908373ffffffffffffffffffffffffffffffffffffffff1602179055506101208201518160050160006101000a81548173ffffffffffffffffffffffffffffffffffffffff021916908373ffffffffffffffffffffffffffffffffffffffff1602179055506101408201518160060160006101000a81548173ffffffffffffffffffffffffffffffffffffffff021916908373ffffffffffffffffffffffffffffffffffffffff1602179055506101608201518160070160006101000a81548173ffffffffffffffffffffffffffffffffffffffff021916908373ffffffffffffffffffffffffffffffffffffffff1602179055506101808201518160080160006101000a81548173ffffffffffffffffffffffffffffffffffffffff021916908373ffffffffffffffffffffffffffffffffffffffff1602179055506101a08201518160090160006101000a81548173ffffffffffffffffffffffffffffffffffffffff021916908373ffffffffffffffffffffffffffffffffffffffff1602179055506101c082015181600a0160006101000a81548173ffffffffffffffffffffffffffffffffffffffff021916908373ffffffffffffffffffffffffffffffffffffffff1602179055506101e082015181600b0160006101000a81548173ffffffffffffffffffffffffffffffffffffffff021916908373ffffffffffffffffffffffffffffffffffffffff16021790555061020082015181600c0160006101000a81548173ffffffffffffffffffffffffffffffffffffffff021916908373ffffffffffffffffffffffffffffffffffffffff16021790555061022082015181600d0160006101000a81548173ffffffffffffffffffffffffffffffffffffffff021916908373ffffffffffffffffffffffffffffffffffffffff16021790555061024082015181600e0160006101000a81548173ffffffffffffffffffffffffffffffffffffffff021916908373ffffffffffffffffffffffffffffffffffffffff16021790555061026082015181600f0160006101000a81548173ffffffffffffffffffffffffffffffffffffffff021916908373ffffffffffffffffffffffffffffffffffffffff1602179055506102808201518160100160006101000a81548173ffffffffffffffffffffffffffffffffffffffff021916908373ffffffffffffffffffffffffffffffffffffffff1602179055506102a08201518160110160006101000a81548173ffffffffffffffffffffffffffffffffffffffff021916908373ffffffffffffffffffffffffffffffffffffffff16021790555050503480156107d857600080fd5b504260008190555033600160006101000a81548173ffffffffffffffffffffffffffffffffffffffff021916908373ffffffffffffffffffffffffffffffffffffffff160217905550611411806108306000396000f3fe608060405234801561001057600080fd5b50600436106101005760003560e01c80638df5758011610097578063bfed3cf211610066578063bfed3cf214610265578063d468fdf414610283578063e6a52e8a1461029f578063f23e9c3b146102bd57610100565b80638df57580146101ef57806396d54ebe1461020d578063b343c4381461022b578063b48409931461024957610100565b80636bc5b0c4116100d35780636bc5b0c41461017b5780636ef6346f146101975780637f0b2e7d146101b55780638c920bd3146101d357610100565b80633d3e83211461010557806342dd96f7146101215780635d0d38161461013f57806364aa07541461015d575b600080fd5b61011f600480360381019061011a919061114c565b6102d9565b005b61012961037a565b6040516101369190611194565b60405180910390f35b610147610399565b60405161015491906111be565b60405180910390f35b6101656103cb565b6040516101729190611194565b60405180910390f35b6101956004803603810190610190919061114c565b6103ea565b005b61019f61048b565b6040516101ac91906111be565b60405180910390f35b6101bd6104bd565b6040516101ca91906113bf565b60405180910390f35b6101ed60048036038101906101e8919061114c565b610b56565b005b6101f7610bf7565b6040516102049190611194565b60405180910390f35b610215610c16565b60405161022291906111be565b60405180910390f35b610233610c48565b6040516102409190611194565b60405180910390f35b610263600480360381019061025e919061114c565b610c67565b005b61026d610d08565b60405161027a91906111be565b60405180910390f35b61029d6004803603810190610298919061114c565b610d3a565b005b6102a7610ddb565b6040516102b491906111be565b60405180910390f35b6102d760048036038101906102d2919061114c565b610e0d565b005b600160009054906101000a900473ffffffffffffffffffffffffffffffffffffffff1673ffffffffffffffffffffffffffffffffffffffff163373ffffffffffffffffffffffffffffffffffffffff161461033357600080fd5b806002600d0160006101000a81548173ffffffffffffffffffffffffffffffffffffffff021916908373ffffffffffffffffffffffffffffffffffffffff16021790555050565b600080600290508060000160039054906101000a900460ff1691505090565b6000806002905080600d0160009054906101000a900473ffffffffffffffffffffffffffffffffffffffff1691505090565b600080600290508060000160029054906101000a900460ff1691505090565b600160009054906101000a900473ffffffffffffffffffffffffffffffffffffffff1673ffffffffffffffffffffffffffffffffffffffff163373ffffffffffffffffffffffffffffffffffffffff161461044457600080fd5b80600260040160006101000a81548173ffffffffffffffffffffffffffffffffffffffff021916908373ffffffffffffffffffffffffffffffffffffffff16021790555050565b600080600290508060070160009054906101000a900473ffffffffffffffffffffffffffffffffffffffff1691505090565b6104c5610eae565b60006002905080604051806102c00160405290816000820160009054906101000a900460ff161515151581526020016000820160019054906101000a900460ff161515151581526020016000820160029054906101000a900460ff161515151581526020016000820160039054906101000a900460ff161515151581526020016000820160049054906101000a900473ffffffffffffffffffffffffffffffffffffffff1673ffffffffffffffffffffffffffffffffffffffff1673ffffffffffffffffffffffffffffffffffffffff1681526020016001820160009054906101000a900473ffffffffffffffffffffffffffffffffffffffff1673ffffffffffffffffffffffffffffffffffffffff1673ffffffffffffffffffffffffffffffffffffffff1681526020016002820160009054906101000a900473ffffffffffffffffffffffffffffffffffffffff1673ffffffffffffffffffffffffffffffffffffffff1673ffffffffffffffffffffffffffffffffffffffff1681526020016003820160009054906101000a900473ffffffffffffffffffffffffffffffffffffffff1673ffffffffffffffffffffffffffffffffffffffff1673ffffffffffffffffffffffffffffffffffffffff1681526020016004820160009054906101000a900473ffffffffffffffffffffffffffffffffffffffff1673ffffffffffffffffffffffffffffffffffffffff1673ffffffffffffffffffffffffffffffffffffffff1681526020016005820160009054906101000a900473ffffffffffffffffffffffffffffffffffffffff1673ffffffffffffffffffffffffffffffffffffffff1673ffffffffffffffffffffffffffffffffffffffff1681526020016006820160009054906101000a900473ffffffffffffffffffffffffffffffffffffffff1673ffffffffffffffffffffffffffffffffffffffff1673ffffffffffffffffffffffffffffffffffffffff1681526020016007820160009054906101000a900473ffffffffffffffffffffffffffffffffffffffff1673ffffffffffffffffffffffffffffffffffffffff1673ffffffffffffffffffffffffffffffffffffffff1681526020016008820160009054906101000a900473ffffffffffffffffffffffffffffffffffffffff1673ffffffffffffffffffffffffffffffffffffffff1673ffffffffffffffffffffffffffffffffffffffff1681526020016009820160009054906101000a900473ffffffffffffffffffffffffffffffffffffffff1673ffffffffffffffffffffffffffffffffffffffff1673ffffffffffffffffffffffffffffffffffffffff168152602001600a820160009054906101000a900473ffffffffffffffffffffffffffffffffffffffff1673ffffffffffffffffffffffffffffffffffffffff1673ffffffffffffffffffffffffffffffffffffffff168152602001600b820160009054906101000a900473ffffffffffffffffffffffffffffffffffffffff1673ffffffffffffffffffffffffffffffffffffffff1673ffffffffffffffffffffffffffffffffffffffff168152602001600c820160009054906101000a900473ffffffffffffffffffffffffffffffffffffffff1673ffffffffffffffffffffffffffffffffffffffff1673ffffffffffffffffffffffffffffffffffffffff168152602001600d820160009054906101000a900473ffffffffffffffffffffffffffffffffffffffff1673ffffffffffffffffffffffffffffffffffffffff1673ffffffffffffffffffffffffffffffffffffffff168152602001600e820160009054906101000a900473ffffffffffffffffffffffffffffffffffffffff1673ffffffffffffffffffffffffffffffffffffffff1673ffffffffffffffffffffffffffffffffffffffff168152602001600f820160009054906101000a900473ffffffffffffffffffffffffffffffffffffffff1673ffffffffffffffffffffffffffffffffffffffff1673ffffffffffffffffffffffffffffffffffffffff1681526020016010820160009054906101000a900473ffffffffffffffffffffffffffffffffffffffff1673ffffffffffffffffffffffffffffffffffffffff1673ffffffffffffffffffffffffffffffffffffffff1681526020016011820160009054906101000a900473ffffffffffffffffffffffffffffffffffffffff1673ffffffffffffffffffffffffffffffffffffffff1673ffffffffffffffffffffffffffffffffffffffff168152505091505090565b600160009054906101000a900473ffffffffffffffffffffffffffffffffffffffff1673ffffffffffffffffffffffffffffffffffffffff163373ffffffffffffffffffffffffffffffffffffffff1614610bb057600080fd5b80600260070160006101000a81548173ffffffffffffffffffffffffffffffffffffffff021916908373ffffffffffffffffffffffffffffffffffffffff16021790555050565b600080600290508060000160019054906101000a900460ff1691505090565b600080600290508060040160009054906101000a900473ffffffffffffffffffffffffffffffffffffffff1691505090565b600080600290508060000160009054906101000a900460ff1691505090565b600160009054906101000a900473ffffffffffffffffffffffffffffffffffffffff1673ffffffffffffffffffffffffffffffffffffffff163373ffffffffffffffffffffffffffffffffffffffff1614610cc157600080fd5b80600260100160006101000a81548173ffffffffffffffffffffffffffffffffffffffff021916908373ffffffffffffffffffffffffffffffffffffffff16021790555050565b6000806002905080600a0160009054906101000a900473ffffffffffffffffffffffffffffffffffffffff1691505090565b600160009054906101000a900473ffffffffffffffffffffffffffffffffffffffff1673ffffffffffffffffffffffffffffffffffffffff163373ffffffffffffffffffffffffffffffffffffffff1614610d9457600080fd5b806002600a0160006101000a81548173ffffffffffffffffffffffffffffffffffffffff021916908373ffffffffffffffffffffffffffffffffffffffff16021790555050565b600080600290508060010160009054906101000a900473ffffffffffffffffffffffffffffffffffffffff1691505090565b600160009054906101000a900473ffffffffffffffffffffffffffffffffffffffff1673ffffffffffffffffffffffffffffffffffffffff163373ffffffffffffffffffffffffffffffffffffffff1614610e6757600080fd5b80600260010160006101000a81548173ffffffffffffffffffffffffffffffffffffffff021916908373ffffffffffffffffffffffffffffffffffffffff16021790555050565b604051806102c00160405280600015158152602001600015158152602001600015158152602001600015158152602001600073ffffffffffffffffffffffffffffffffffffffff168152602001600073ffffffffffffffffffffffffffffffffffffffff168152602001600073ffffffffffffffffffffffffffffffffffffffff168152602001600073ffffffffffffffffffffffffffffffffffffffff168152602001600073ffffffffffffffffffffffffffffffffffffffff168152602001600073ffffffffffffffffffffffffffffffffffffffff168152602001600073ffffffffffffffffffffffffffffffffffffffff168152602001600073ffffffffffffffffffffffffffffffffffffffff168152602001600073ffffffffffffffffffffffffffffffffffffffff168152602001600073ffffffffffffffffffffffffffffffffffffffff168152602001600073ffffffffffffffffffffffffffffffffffffffff168152602001600073ffffffffffffffffffffffffffffffffffffffff168152602001600073ffffffffffffffffffffffffffffffffffffffff168152602001600073ffffffffffffffffffffffffffffffffffffffff168152602001600073ffffffffffffffffffffffffffffffffffffffff168152602001600073ffffffffffffffffffffffffffffffffffffffff168152602001600073ffffffffffffffffffffffffffffffffffffffff168152602001600073ffffffffffffffffffffffffffffffffffffffff1681525090565b600080fd5b600073ffffffffffffffffffffffffffffffffffffffff82169050919050565b6000611119826110ee565b9050919050565b6111298161110e565b811461113457600080fd5b50565b60008135905061114681611120565b92915050565b600060208284031215611162576111616110e9565b5b600061117084828501611137565b91505092915050565b60008115159050919050565b61118e81611179565b82525050565b60006020820190506111a96000830184611185565b92915050565b6111b88161110e565b82525050565b60006020820190506111d360008301846111af565b92915050565b6111e281611179565b82525050565b6111f18161110e565b82525050565b6102c08201600082015161120e60008501826111d9565b50602082015161122160208501826111d9565b50604082015161123460408501826111d9565b50606082015161124760608501826111d9565b50608082015161125a60808501826111e8565b5060a082015161126d60a08501826111e8565b5060c082015161128060c08501826111e8565b5060e082015161129360e08501826111e8565b506101008201516112a86101008501826111e8565b506101208201516112bd6101208501826111e8565b506101408201516112d26101408501826111e8565b506101608201516112e76101608501826111e8565b506101808201516112fc6101808501826111e8565b506101a08201516113116101a08501826111e8565b506101c08201516113266101c08501826111e8565b506101e082015161133b6101e08501826111e8565b506102008201516113506102008501826111e8565b506102208201516113656102208501826111e8565b5061024082015161137a6102408501826111e8565b5061026082015161138f6102608501826111e8565b506102808201516113a46102808501826111e8565b506102a08201516113b96102a08501826111e8565b50505050565b60006102c0820190506113d560008301846111f7565b9291505056fea2646970667358221220ce4d0c352f77dfad454c769aaaf63b2dbee5e54d02a4005475b48b688c1013fe64736f6c63430008100033",
					"opcodes": "PUSH1 0x80 PUSH1 0x40 MSTORE PUSH1 0x40 MLOAD DUP1 PUSH2 0x2C0 ADD PUSH1 0x40 MSTORE DUP1 PUSH1 0x0 ISZERO ISZERO DUP2 MSTORE PUSH1 0x20 ADD PUSH1 0x0 ISZERO ISZERO DUP2 MSTORE PUSH1 0x20 ADD PUSH1 0x1 ISZERO ISZERO DUP2 MSTORE PUSH1 0x20 ADD PUSH1 0x0 ISZERO ISZERO DUP2 MSTORE PUSH1 0x20 ADD PUSH1 0x0 PUSH20 0xFFFFFFFFFFFFFFFFFFFFFFFFFFFFFFFFFFFFFFFF AND DUP2 MSTORE PUSH1 0x20 ADD PUSH1 0x0 PUSH20 0xFFFFFFFFFFFFFFFFFFFFFFFFFFFFFFFFFFFFFFFF AND DUP2 MSTORE PUSH1 0x20 ADD PUSH1 0x0 PUSH20 0xFFFFFFFFFFFFFFFFFFFFFFFFFFFFFFFFFFFFFFFF AND DUP2 MSTORE PUSH1 0x20 ADD PUSH1 0x0 PUSH20 0xFFFFFFFFFFFFFFFFFFFFFFFFFFFFFFFFFFFFFFFF AND DUP2 MSTORE PUSH1 0x20 ADD PUSH1 0x0 PUSH20 0xFFFFFFFFFFFFFFFFFFFFFFFFFFFFFFFFFFFFFFFF AND DUP2 MSTORE PUSH1 0x20 ADD PUSH1 0x0 PUSH20 0xFFFFFFFFFFFFFFFFFFFFFFFFFFFFFFFFFFFFFFFF AND DUP2 MSTORE PUSH1 0x20 ADD PUSH1 0x0 PUSH20 0xFFFFFFFFFFFFFFFFFFFFFFFFFFFFFFFFFFFFFFFF AND DUP2 MSTORE PUSH1 0x20 ADD PUSH1 0x0 PUSH20 0xFFFFFFFFFFFFFFFFFFFFFFFFFFFFFFFFFFFFFFFF AND DUP2 MSTORE PUSH1 0x20 ADD PUSH1 0x0 PUSH20 0xFFFFFFFFFFFFFFFFFFFFFFFFFFFFFFFFFFFFFFFF AND DUP2 MSTORE PUSH1 0x20 ADD PUSH1 0x0 PUSH20 0xFFFFFFFFFFFFFFFFFFFFFFFFFFFFFFFFFFFFFFFF AND DUP2 MSTORE PUSH1 0x20 ADD PUSH1 0x0 PUSH20 0xFFFFFFFFFFFFFFFFFFFFFFFFFFFFFFFFFFFFFFFF AND DUP2 MSTORE PUSH1 0x20 ADD PUSH1 0x0 PUSH20 0xFFFFFFFFFFFFFFFFFFFFFFFFFFFFFFFFFFFFFFFF AND DUP2 MSTORE PUSH1 0x20 ADD PUSH1 0x0 PUSH20 0xFFFFFFFFFFFFFFFFFFFFFFFFFFFFFFFFFFFFFFFF AND DUP2 MSTORE PUSH1 0x20 ADD PUSH1 0x0 PUSH20 0xFFFFFFFFFFFFFFFFFFFFFFFFFFFFFFFFFFFFFFFF AND DUP2 MSTORE PUSH1 0x20 ADD PUSH1 0x0 PUSH20 0xFFFFFFFFFFFFFFFFFFFFFFFFFFFFFFFFFFFFFFFF AND DUP2 MSTORE PUSH1 0x20 ADD PUSH1 0x0 PUSH20 0xFFFFFFFFFFFFFFFFFFFFFFFFFFFFFFFFFFFFFFFF AND DUP2 MSTORE PUSH1 0x20 ADD PUSH1 0x0 PUSH20 0xFFFFFFFFFFFFFFFFFFFFFFFFFFFFFFFFFFFFFFFF AND DUP2 MSTORE PUSH1 0x20 ADD PUSH1 0x0 PUSH20 0xFFFFFFFFFFFFFFFFFFFFFFFFFFFFFFFFFFFFFFFF AND DUP2 MSTORE POP PUSH1 0x2 PUSH1 0x0 DUP3 ADD MLOAD DUP2 PUSH1 0x0 ADD PUSH1 0x0 PUSH2 0x100 EXP DUP2 SLOAD DUP2 PUSH1 0xFF MUL NOT AND SWAP1 DUP4 ISZERO ISZERO MUL OR SWAP1 SSTORE POP PUSH1 0x20 DUP3 ADD MLOAD DUP2 PUSH1 0x0 ADD PUSH1 0x1 PUSH2 0x100 EXP DUP2 SLOAD DUP2 PUSH1 0xFF MUL NOT AND SWAP1 DUP4 ISZERO ISZERO MUL OR SWAP1 SSTORE POP PUSH1 0x40 DUP3 ADD MLOAD DUP2 PUSH1 0x0 ADD PUSH1 0x2 PUSH2 0x100 EXP DUP2 SLOAD DUP2 PUSH1 0xFF MUL NOT AND SWAP1 DUP4 ISZERO ISZERO MUL OR SWAP1 SSTORE POP PUSH1 0x60 DUP3 ADD MLOAD DUP2 PUSH1 0x0 ADD PUSH1 0x3 PUSH2 0x100 EXP DUP2 SLOAD DUP2 PUSH1 0xFF MUL NOT AND SWAP1 DUP4 ISZERO ISZERO MUL OR SWAP1 SSTORE POP PUSH1 0x80 DUP3 ADD MLOAD DUP2 PUSH1 0x0 ADD PUSH1 0x4 PUSH2 0x100 EXP DUP2 SLOAD DUP2 PUSH20 0xFFFFFFFFFFFFFFFFFFFFFFFFFFFFFFFFFFFFFFFF MUL NOT AND SWAP1 DUP4 PUSH20 0xFFFFFFFFFFFFFFFFFFFFFFFFFFFFFFFFFFFFFFFF AND MUL OR SWAP1 SSTORE POP PUSH1 0xA0 DUP3 ADD MLOAD DUP2 PUSH1 0x1 ADD PUSH1 0x0 PUSH2 0x100 EXP DUP2 SLOAD DUP2 PUSH20 0xFFFFFFFFFFFFFFFFFFFFFFFFFFFFFFFFFFFFFFFF MUL NOT AND SWAP1 DUP4 PUSH20 0xFFFFFFFFFFFFFFFFFFFFFFFFFFFFFFFFFFFFFFFF AND MUL OR SWAP1 SSTORE POP PUSH1 0xC0 DUP3 ADD MLOAD DUP2 PUSH1 0x2 ADD PUSH1 0x0 PUSH2 0x100 EXP DUP2 SLOAD DUP2 PUSH20 0xFFFFFFFFFFFFFFFFFFFFFFFFFFFFFFFFFFFFFFFF MUL NOT AND SWAP1 DUP4 PUSH20 0xFFFFFFFFFFFFFFFFFFFFFFFFFFFFFFFFFFFFFFFF AND MUL OR SWAP1 SSTORE POP PUSH1 0xE0 DUP3 ADD MLOAD DUP2 PUSH1 0x3 ADD PUSH1 0x0 PUSH2 0x100 EXP DUP2 SLOAD DUP2 PUSH20 0xFFFFFFFFFFFFFFFFFFFFFFFFFFFFFFFFFFFFFFFF MUL NOT AND SWAP1 DUP4 PUSH20 0xFFFFFFFFFFFFFFFFFFFFFFFFFFFFFFFFFFFFFFFF AND MUL OR SWAP1 SSTORE POP PUSH2 0x100 DUP3 ADD MLOAD DUP2 PUSH1 0x4 ADD PUSH1 0x0 PUSH2 0x100 EXP DUP2 SLOAD DUP2 PUSH20 0xFFFFFFFFFFFFFFFFFFFFFFFFFFFFFFFFFFFFFFFF MUL NOT AND SWAP1 DUP4 PUSH20 0xFFFFFFFFFFFFFFFFFFFFFFFFFFFFFFFFFFFFFFFF AND MUL OR SWAP1 SSTORE POP PUSH2 0x120 DUP3 ADD MLOAD DUP2 PUSH1 0x5 ADD PUSH1 0x0 PUSH2 0x100 EXP DUP2 SLOAD DUP2 PUSH20 0xFFFFFFFFFFFFFFFFFFFFFFFFFFFFFFFFFFFFFFFF MUL NOT AND SWAP1 DUP4 PUSH20 0xFFFFFFFFFFFFFFFFFFFFFFFFFFFFFFFFFFFFFFFF AND MUL OR SWAP1 SSTORE POP PUSH2 0x140 DUP3 ADD MLOAD DUP2 PUSH1 0x6 ADD PUSH1 0x0 PUSH2 0x100 EXP DUP2 SLOAD DUP2 PUSH20 0xFFFFFFFFFFFFFFFFFFFFFFFFFFFFFFFFFFFFFFFF MUL NOT AND SWAP1 DUP4 PUSH20 0xFFFFFFFFFFFFFFFFFFFFFFFFFFFFFFFFFFFFFFFF AND MUL OR SWAP1 SSTORE POP PUSH2 0x160 DUP3 ADD MLOAD DUP2 PUSH1 0x7 ADD PUSH1 0x0 PUSH2 0x100 EXP DUP2 SLOAD DUP2 PUSH20 0xFFFFFFFFFFFFFFFFFFFFFFFFFFFFFFFFFFFFFFFF MUL NOT AND SWAP1 DUP4 PUSH20 0xFFFFFFFFFFFFFFFFFFFFFFFFFFFFFFFFFFFFFFFF AND MUL OR SWAP1 SSTORE POP PUSH2 0x180 DUP3 ADD MLOAD DUP2 PUSH1 0x8 ADD PUSH1 0x0 PUSH2 0x100 EXP DUP2 SLOAD DUP2 PUSH20 0xFFFFFFFFFFFFFFFFFFFFFFFFFFFFFFFFFFFFFFFF MUL NOT AND SWAP1 DUP4 PUSH20 0xFFFFFFFFFFFFFFFFFFFFFFFFFFFFFFFFFFFFFFFF AND MUL OR SWAP1 SSTORE POP PUSH2 0x1A0 DUP3 ADD MLOAD DUP2 PUSH1 0x9 ADD PUSH1 0x0 PUSH2 0x100 EXP DUP2 SLOAD DUP2 PUSH20 0xFFFFFFFFFFFFFFFFFFFFFFFFFFFFFFFFFFFFFFFF MUL NOT AND SWAP1 DUP4 PUSH20 0xFFFFFFFFFFFFFFFFFFFFFFFFFFFFFFFFFFFFFFFF AND MUL OR SWAP1 SSTORE POP PUSH2 0x1C0 DUP3 ADD MLOAD DUP2 PUSH1 0xA ADD PUSH1 0x0 PUSH2 0x100 EXP DUP2 SLOAD DUP2 PUSH20 0xFFFFFFFFFFFFFFFFFFFFFFFFFFFFFFFFFFFFFFFF MUL NOT AND SWAP1 DUP4 PUSH20 0xFFFFFFFFFFFFFFFFFFFFFFFFFFFFFFFFFFFFFFFF AND MUL OR SWAP1 SSTORE POP PUSH2 0x1E0 DUP3 ADD MLOAD DUP2 PUSH1 0xB ADD PUSH1 0x0 PUSH2 0x100 EXP DUP2 SLOAD DUP2 PUSH20 0xFFFFFFFFFFFFFFFFFFFFFFFFFFFFFFFFFFFFFFFF MUL NOT AND SWAP1 DUP4 PUSH20 0xFFFFFFFFFFFFFFFFFFFFFFFFFFFFFFFFFFFFFFFF AND MUL OR SWAP1 SSTORE POP PUSH2 0x200 DUP3 ADD MLOAD DUP2 PUSH1 0xC ADD PUSH1 0x0 PUSH2 0x100 EXP DUP2 SLOAD DUP2 PUSH20 0xFFFFFFFFFFFFFFFFFFFFFFFFFFFFFFFFFFFFFFFF MUL NOT AND SWAP1 DUP4 PUSH20 0xFFFFFFFFFFFFFFFFFFFFFFFFFFFFFFFFFFFFFFFF AND MUL OR SWAP1 SSTORE POP PUSH2 0x220 DUP3 ADD MLOAD DUP2 PUSH1 0xD ADD PUSH1 0x0 PUSH2 0x100 EXP DUP2 SLOAD DUP2 PUSH20 0xFFFFFFFFFFFFFFFFFFFFFFFFFFFFFFFFFFFFFFFF MUL NOT AND SWAP1 DUP4 PUSH20 0xFFFFFFFFFFFFFFFFFFFFFFFFFFFFFFFFFFFFFFFF AND MUL OR SWAP1 SSTORE POP PUSH2 0x240 DUP3 ADD MLOAD DUP2 PUSH1 0xE ADD PUSH1 0x0 PUSH2 0x100 EXP DUP2 SLOAD DUP2 PUSH20 0xFFFFFFFFFFFFFFFFFFFFFFFFFFFFFFFFFFFFFFFF MUL NOT AND SWAP1 DUP4 PUSH20 0xFFFFFFFFFFFFFFFFFFFFFFFFFFFFFFFFFFFFFFFF AND MUL OR SWAP1 SSTORE POP PUSH2 0x260 DUP3 ADD MLOAD DUP2 PUSH1 0xF ADD PUSH1 0x0 PUSH2 0x100 EXP DUP2 SLOAD DUP2 PUSH20 0xFFFFFFFFFFFFFFFFFFFFFFFFFFFFFFFFFFFFFFFF MUL NOT AND SWAP1 DUP4 PUSH20 0xFFFFFFFFFFFFFFFFFFFFFFFFFFFFFFFFFFFFFFFF AND MUL OR SWAP1 SSTORE POP PUSH2 0x280 DUP3 ADD MLOAD DUP2 PUSH1 0x10 ADD PUSH1 0x0 PUSH2 0x100 EXP DUP2 SLOAD DUP2 PUSH20 0xFFFFFFFFFFFFFFFFFFFFFFFFFFFFFFFFFFFFFFFF MUL NOT AND SWAP1 DUP4 PUSH20 0xFFFFFFFFFFFFFFFFFFFFFFFFFFFFFFFFFFFFFFFF AND MUL OR SWAP1 SSTORE POP PUSH2 0x2A0 DUP3 ADD MLOAD DUP2 PUSH1 0x11 ADD PUSH1 0x0 PUSH2 0x100 EXP DUP2 SLOAD DUP2 PUSH20 0xFFFFFFFFFFFFFFFFFFFFFFFFFFFFFFFFFFFFFFFF MUL NOT AND SWAP1 DUP4 PUSH20 0xFFFFFFFFFFFFFFFFFFFFFFFFFFFFFFFFFFFFFFFF AND MUL OR SWAP1 SSTORE POP POP POP CALLVALUE DUP1 ISZERO PUSH2 0x7D8 JUMPI PUSH1 0x0 DUP1 REVERT JUMPDEST POP TIMESTAMP PUSH1 0x0 DUP2 SWAP1 SSTORE POP CALLER PUSH1 0x1 PUSH1 0x0 PUSH2 0x100 EXP DUP2 SLOAD DUP2 PUSH20 0xFFFFFFFFFFFFFFFFFFFFFFFFFFFFFFFFFFFFFFFF MUL NOT AND SWAP1 DUP4 PUSH20 0xFFFFFFFFFFFFFFFFFFFFFFFFFFFFFFFFFFFFFFFF AND MUL OR SWAP1 SSTORE POP PUSH2 0x1411 DUP1 PUSH2 0x830 PUSH1 0x0 CODECOPY PUSH1 0x0 RETURN INVALID PUSH1 0x80 PUSH1 0x40 MSTORE CALLVALUE DUP1 ISZERO PUSH2 0x10 JUMPI PUSH1 0x0 DUP1 REVERT JUMPDEST POP PUSH1 0x4 CALLDATASIZE LT PUSH2 0x100 JUMPI PUSH1 0x0 CALLDATALOAD PUSH1 0xE0 SHR DUP1 PUSH4 0x8DF57580 GT PUSH2 0x97 JUMPI DUP1 PUSH4 0xBFED3CF2 GT PUSH2 0x66 JUMPI DUP1 PUSH4 0xBFED3CF2 EQ PUSH2 0x265 JUMPI DUP1 PUSH4 0xD468FDF4 EQ PUSH2 0x283 JUMPI DUP1 PUSH4 0xE6A52E8A EQ PUSH2 0x29F JUMPI DUP1 PUSH4 0xF23E9C3B EQ PUSH2 0x2BD JUMPI PUSH2 0x100 JUMP JUMPDEST DUP1 PUSH4 0x8DF57580 EQ PUSH2 0x1EF JUMPI DUP1 PUSH4 0x96D54EBE EQ PUSH2 0x20D JUMPI DUP1 PUSH4 0xB343C438 EQ PUSH2 0x22B JUMPI DUP1 PUSH4 0xB4840993 EQ PUSH2 0x249 JUMPI PUSH2 0x100 JUMP JUMPDEST DUP1 PUSH4 0x6BC5B0C4 GT PUSH2 0xD3 JUMPI DUP1 PUSH4 0x6BC5B0C4 EQ PUSH2 0x17B JUMPI DUP1 PUSH4 0x6EF6346F EQ PUSH2 0x197 JUMPI DUP1 PUSH4 0x7F0B2E7D EQ PUSH2 0x1B5 JUMPI DUP1 PUSH4 0x8C920BD3 EQ PUSH2 0x1D3 JUMPI PUSH2 0x100 JUMP JUMPDEST DUP1 PUSH4 0x3D3E8321 EQ PUSH2 0x105 JUMPI DUP1 PUSH4 0x42DD96F7 EQ PUSH2 0x121 JUMPI DUP1 PUSH4 0x5D0D3816 EQ PUSH2 0x13F JUMPI DUP1 PUSH4 0x64AA0754 EQ PUSH2 0x15D JUMPI JUMPDEST PUSH1 0x0 DUP1 REVERT JUMPDEST PUSH2 0x11F PUSH1 0x4 DUP1 CALLDATASIZE SUB DUP2 ADD SWAP1 PUSH2 0x11A SWAP2 SWAP1 PUSH2 0x114C JUMP JUMPDEST PUSH2 0x2D9 JUMP JUMPDEST STOP JUMPDEST PUSH2 0x129 PUSH2 0x37A JUMP JUMPDEST PUSH1 0x40 MLOAD PUSH2 0x136 SWAP2 SWAP1 PUSH2 0x1194 JUMP JUMPDEST PUSH1 0x40 MLOAD DUP1 SWAP2 SUB SWAP1 RETURN JUMPDEST PUSH2 0x147 PUSH2 0x399 JUMP JUMPDEST PUSH1 0x40 MLOAD PUSH2 0x154 SWAP2 SWAP1 PUSH2 0x11BE JUMP JUMPDEST PUSH1 0x40 MLOAD DUP1 SWAP2 SUB SWAP1 RETURN JUMPDEST PUSH2 0x165 PUSH2 0x3CB JUMP JUMPDEST PUSH1 0x40 MLOAD PUSH2 0x172 SWAP2 SWAP1 PUSH2 0x1194 JUMP JUMPDEST PUSH1 0x40 MLOAD DUP1 SWAP2 SUB SWAP1 RETURN JUMPDEST PUSH2 0x195 PUSH1 0x4 DUP1 CALLDATASIZE SUB DUP2 ADD SWAP1 PUSH2 0x190 SWAP2 SWAP1 PUSH2 0x114C JUMP JUMPDEST PUSH2 0x3EA JUMP JUMPDEST STOP JUMPDEST PUSH2 0x19F PUSH2 0x48B JUMP JUMPDEST PUSH1 0x40 MLOAD PUSH2 0x1AC SWAP2 SWAP1 PUSH2 0x11BE JUMP JUMPDEST PUSH1 0x40 MLOAD DUP1 SWAP2 SUB SWAP1 RETURN JUMPDEST PUSH2 0x1BD PUSH2 0x4BD JUMP JUMPDEST PUSH1 0x40 MLOAD PUSH2 0x1CA SWAP2 SWAP1 PUSH2 0x13BF JUMP JUMPDEST PUSH1 0x40 MLOAD DUP1 SWAP2 SUB SWAP1 RETURN JUMPDEST PUSH2 0x1ED PUSH1 0x4 DUP1 CALLDATASIZE SUB DUP2 ADD SWAP1 PUSH2 0x1E8 SWAP2 SWAP1 PUSH2 0x114C JUMP JUMPDEST PUSH2 0xB56 JUMP JUMPDEST STOP JUMPDEST PUSH2 0x1F7 PUSH2 0xBF7 JUMP JUMPDEST PUSH1 0x40 MLOAD PUSH2 0x204 SWAP2 SWAP1 PUSH2 0x1194 JUMP JUMPDEST PUSH1 0x40 MLOAD DUP1 SWAP2 SUB SWAP1 RETURN JUMPDEST PUSH2 0x215 PUSH2 0xC16 JUMP JUMPDEST PUSH1 0x40 MLOAD PUSH2 0x222 SWAP2 SWAP1 PUSH2 0x11BE JUMP JUMPDEST PUSH1 0x40 MLOAD DUP1 SWAP2 SUB SWAP1 RETURN JUMPDEST PUSH2 0x233 PUSH2 0xC48 JUMP JUMPDEST PUSH1 0x40 MLOAD PUSH2 0x240 SWAP2 SWAP1 PUSH2 0x1194 JUMP JUMPDEST PUSH1 0x40 MLOAD DUP1 SWAP2 SUB SWAP1 RETURN JUMPDEST PUSH2 0x263 PUSH1 0x4 DUP1 CALLDATASIZE SUB DUP2 ADD SWAP1 PUSH2 0x25E SWAP2 SWAP1 PUSH2 0x114C JUMP JUMPDEST PUSH2 0xC67 JUMP JUMPDEST STOP JUMPDEST PUSH2 0x26D PUSH2 0xD08 JUMP JUMPDEST PUSH1 0x40 MLOAD PUSH2 0x27A SWAP2 SWAP1 PUSH2 0x11BE JUMP JUMPDEST PUSH1 0x40 MLOAD DUP1 SWAP2 SUB SWAP1 RETURN JUMPDEST PUSH2 0x29D PUSH1 0x4 DUP1 CALLDATASIZE SUB DUP2 ADD SWAP1 PUSH2 0x298 SWAP2 SWAP1 PUSH2 0x114C JUMP JUMPDEST PUSH2 0xD3A JUMP JUMPDEST STOP JUMPDEST PUSH2 0x2A7 PUSH2 0xDDB JUMP JUMPDEST PUSH1 0x40 MLOAD PUSH2 0x2B4 SWAP2 SWAP1 PUSH2 0x11BE JUMP JUMPDEST PUSH1 0x40 MLOAD DUP1 SWAP2 SUB SWAP1 RETURN JUMPDEST PUSH2 0x2D7 PUSH1 0x4 DUP1 CALLDATASIZE SUB DUP2 ADD SWAP1 PUSH2 0x2D2 SWAP2 SWAP1 PUSH2 0x114C JUMP JUMPDEST PUSH2 0xE0D JUMP JUMPDEST STOP JUMPDEST PUSH1 0x1 PUSH1 0x0 SWAP1 SLOAD SWAP1 PUSH2 0x100 EXP SWAP1 DIV PUSH20 0xFFFFFFFFFFFFFFFFFFFFFFFFFFFFFFFFFFFFFFFF AND PUSH20 0xFFFFFFFFFFFFFFFFFFFFFFFFFFFFFFFFFFFFFFFF AND CALLER PUSH20 0xFFFFFFFFFFFFFFFFFFFFFFFFFFFFFFFFFFFFFFFF AND EQ PUSH2 0x333 JUMPI PUSH1 0x0 DUP1 REVERT JUMPDEST DUP1 PUSH1 0x2 PUSH1 0xD ADD PUSH1 0x0 PUSH2 0x100 EXP DUP2 SLOAD DUP2 PUSH20 0xFFFFFFFFFFFFFFFFFFFFFFFFFFFFFFFFFFFFFFFF MUL NOT AND SWAP1 DUP4 PUSH20 0xFFFFFFFFFFFFFFFFFFFFFFFFFFFFFFFFFFFFFFFF AND MUL OR SWAP1 SSTORE POP POP JUMP JUMPDEST PUSH1 0x0 DUP1 PUSH1 0x2 SWAP1 POP DUP1 PUSH1 0x0 ADD PUSH1 0x3 SWAP1 SLOAD SWAP1 PUSH2 0x100 EXP SWAP1 DIV PUSH1 0xFF AND SWAP2 POP POP SWAP1 JUMP JUMPDEST PUSH1 0x0 DUP1 PUSH1 0x2 SWAP1 POP DUP1 PUSH1 0xD ADD PUSH1 0x0 SWAP1 SLOAD SWAP1 PUSH2 0x100 EXP SWAP1 DIV PUSH20 0xFFFFFFFFFFFFFFFFFFFFFFFFFFFFFFFFFFFFFFFF AND SWAP2 POP POP SWAP1 JUMP JUMPDEST PUSH1 0x0 DUP1 PUSH1 0x2 SWAP1 POP DUP1 PUSH1 0x0 ADD PUSH1 0x2 SWAP1 SLOAD SWAP1 PUSH2 0x100 EXP SWAP1 DIV PUSH1 0xFF AND SWAP2 POP POP SWAP1 JUMP JUMPDEST PUSH1 0x1 PUSH1 0x0 SWAP1 SLOAD SWAP1 PUSH2 0x100 EXP SWAP1 DIV PUSH20 0xFFFFFFFFFFFFFFFFFFFFFFFFFFFFFFFFFFFFFFFF AND PUSH20 0xFFFFFFFFFFFFFFFFFFFFFFFFFFFFFFFFFFFFFFFF AND CALLER PUSH20 0xFFFFFFFFFFFFFFFFFFFFFFFFFFFFFFFFFFFFFFFF AND EQ PUSH2 0x444 JUMPI PUSH1 0x0 DUP1 REVERT JUMPDEST DUP1 PUSH1 0x2 PUSH1 0x4 ADD PUSH1 0x0 PUSH2 0x100 EXP DUP2 SLOAD DUP2 PUSH20 0xFFFFFFFFFFFFFFFFFFFFFFFFFFFFFFFFFFFFFFFF MUL NOT AND SWAP1 DUP4 PUSH20 0xFFFFFFFFFFFFFFFFFFFFFFFFFFFFFFFFFFFFFFFF AND MUL OR SWAP1 SSTORE POP POP JUMP JUMPDEST PUSH1 0x0 DUP1 PUSH1 0x2 SWAP1 POP DUP1 PUSH1 0x7 ADD PUSH1 0x0 SWAP1 SLOAD SWAP1 PUSH2 0x100 EXP SWAP1 DIV PUSH20 0xFFFFFFFFFFFFFFFFFFFFFFFFFFFFFFFFFFFFFFFF AND SWAP2 POP POP SWAP1 JUMP JUMPDEST PUSH2 0x4C5 PUSH2 0xEAE JUMP JUMPDEST PUSH1 0x0 PUSH1 0x2 SWAP1 POP DUP1 PUSH1 0x40 MLOAD DUP1 PUSH2 0x2C0 ADD PUSH1 0x40 MSTORE SWAP1 DUP2 PUSH1 0x0 DUP3 ADD PUSH1 0x0 SWAP1 SLOAD SWAP1 PUSH2 0x100 EXP SWAP1 DIV PUSH1 0xFF AND ISZERO ISZERO ISZERO ISZERO DUP2 MSTORE PUSH1 0x20 ADD PUSH1 0x0 DUP3 ADD PUSH1 0x1 SWAP1 SLOAD SWAP1 PUSH2 0x100 EXP SWAP1 DIV PUSH1 0xFF AND ISZERO ISZERO ISZERO ISZERO DUP2 MSTORE PUSH1 0x20 ADD PUSH1 0x0 DUP3 ADD PUSH1 0x2 SWAP1 SLOAD SWAP1 PUSH2 0x100 EXP SWAP1 DIV PUSH1 0xFF AND ISZERO ISZERO ISZERO ISZERO DUP2 MSTORE PUSH1 0x20 ADD PUSH1 0x0 DUP3 ADD PUSH1 0x3 SWAP1 SLOAD SWAP1 PUSH2 0x100 EXP SWAP1 DIV PUSH1 0xFF AND ISZERO ISZERO ISZERO ISZERO DUP2 MSTORE PUSH1 0x20 ADD PUSH1 0x0 DUP3 ADD PUSH1 0x4 SWAP1 SLOAD SWAP1 PUSH2 0x100 EXP SWAP1 DIV PUSH20 0xFFFFFFFFFFFFFFFFFFFFFFFFFFFFFFFFFFFFFFFF AND PUSH20 0xFFFFFFFFFFFFFFFFFFFFFFFFFFFFFFFFFFFFFFFF AND PUSH20 0xFFFFFFFFFFFFFFFFFFFFFFFFFFFFFFFFFFFFFFFF AND DUP2 MSTORE PUSH1 0x20 ADD PUSH1 0x1 DUP3 ADD PUSH1 0x0 SWAP1 SLOAD SWAP1 PUSH2 0x100 EXP SWAP1 DIV PUSH20 0xFFFFFFFFFFFFFFFFFFFFFFFFFFFFFFFFFFFFFFFF AND PUSH20 0xFFFFFFFFFFFFFFFFFFFFFFFFFFFFFFFFFFFFFFFF AND PUSH20 0xFFFFFFFFFFFFFFFFFFFFFFFFFFFFFFFFFFFFFFFF AND DUP2 MSTORE PUSH1 0x20 ADD PUSH1 0x2 DUP3 ADD PUSH1 0x0 SWAP1 SLOAD SWAP1 PUSH2 0x100 EXP SWAP1 DIV PUSH20 0xFFFFFFFFFFFFFFFFFFFFFFFFFFFFFFFFFFFFFFFF AND PUSH20 0xFFFFFFFFFFFFFFFFFFFFFFFFFFFFFFFFFFFFFFFF AND PUSH20 0xFFFFFFFFFFFFFFFFFFFFFFFFFFFFFFFFFFFFFFFF AND DUP2 MSTORE PUSH1 0x20 ADD PUSH1 0x3 DUP3 ADD PUSH1 0x0 SWAP1 SLOAD SWAP1 PUSH2 0x100 EXP SWAP1 DIV PUSH20 0xFFFFFFFFFFFFFFFFFFFFFFFFFFFFFFFFFFFFFFFF AND PUSH20 0xFFFFFFFFFFFFFFFFFFFFFFFFFFFFFFFFFFFFFFFF AND PUSH20 0xFFFFFFFFFFFFFFFFFFFFFFFFFFFFFFFFFFFFFFFF AND DUP2 MSTORE PUSH1 0x20 ADD PUSH1 0x4 DUP3 ADD PUSH1 0x0 SWAP1 SLOAD SWAP1 PUSH2 0x100 EXP SWAP1 DIV PUSH20 0xFFFFFFFFFFFFFFFFFFFFFFFFFFFFFFFFFFFFFFFF AND PUSH20 0xFFFFFFFFFFFFFFFFFFFFFFFFFFFFFFFFFFFFFFFF AND PUSH20 0xFFFFFFFFFFFFFFFFFFFFFFFFFFFFFFFFFFFFFFFF AND DUP2 MSTORE PUSH1 0x20 ADD PUSH1 0x5 DUP3 ADD PUSH1 0x0 SWAP1 SLOAD SWAP1 PUSH2 0x100 EXP SWAP1 DIV PUSH20 0xFFFFFFFFFFFFFFFFFFFFFFFFFFFFFFFFFFFFFFFF AND PUSH20 0xFFFFFFFFFFFFFFFFFFFFFFFFFFFFFFFFFFFFFFFF AND PUSH20 0xFFFFFFFFFFFFFFFFFFFFFFFFFFFFFFFFFFFFFFFF AND DUP2 MSTORE PUSH1 0x20 ADD PUSH1 0x6 DUP3 ADD PUSH1 0x0 SWAP1 SLOAD SWAP1 PUSH2 0x100 EXP SWAP1 DIV PUSH20 0xFFFFFFFFFFFFFFFFFFFFFFFFFFFFFFFFFFFFFFFF AND PUSH20 0xFFFFFFFFFFFFFFFFFFFFFFFFFFFFFFFFFFFFFFFF AND PUSH20 0xFFFFFFFFFFFFFFFFFFFFFFFFFFFFFFFFFFFFFFFF AND DUP2 MSTORE PUSH1 0x20 ADD PUSH1 0x7 DUP3 ADD PUSH1 0x0 SWAP1 SLOAD SWAP1 PUSH2 0x100 EXP SWAP1 DIV PUSH20 0xFFFFFFFFFFFFFFFFFFFFFFFFFFFFFFFFFFFFFFFF AND PUSH20 0xFFFFFFFFFFFFFFFFFFFFFFFFFFFFFFFFFFFFFFFF AND PUSH20 0xFFFFFFFFFFFFFFFFFFFFFFFFFFFFFFFFFFFFFFFF AND DUP2 MSTORE PUSH1 0x20 ADD PUSH1 0x8 DUP3 ADD PUSH1 0x0 SWAP1 SLOAD SWAP1 PUSH2 0x100 EXP SWAP1 DIV PUSH20 0xFFFFFFFFFFFFFFFFFFFFFFFFFFFFFFFFFFFFFFFF AND PUSH20 0xFFFFFFFFFFFFFFFFFFFFFFFFFFFFFFFFFFFFFFFF AND PUSH20 0xFFFFFFFFFFFFFFFFFFFFFFFFFFFFFFFFFFFFFFFF AND DUP2 MSTORE PUSH1 0x20 ADD PUSH1 0x9 DUP3 ADD PUSH1 0x0 SWAP1 SLOAD SWAP1 PUSH2 0x100 EXP SWAP1 DIV PUSH20 0xFFFFFFFFFFFFFFFFFFFFFFFFFFFFFFFFFFFFFFFF AND PUSH20 0xFFFFFFFFFFFFFFFFFFFFFFFFFFFFFFFFFFFFFFFF AND PUSH20 0xFFFFFFFFFFFFFFFFFFFFFFFFFFFFFFFFFFFFFFFF AND DUP2 MSTORE PUSH1 0x20 ADD PUSH1 0xA DUP3 ADD PUSH1 0x0 SWAP1 SLOAD SWAP1 PUSH2 0x100 EXP SWAP1 DIV PUSH20 0xFFFFFFFFFFFFFFFFFFFFFFFFFFFFFFFFFFFFFFFF AND PUSH20 0xFFFFFFFFFFFFFFFFFFFFFFFFFFFFFFFFFFFFFFFF AND PUSH20 0xFFFFFFFFFFFFFFFFFFFFFFFFFFFFFFFFFFFFFFFF AND DUP2 MSTORE PUSH1 0x20 ADD PUSH1 0xB DUP3 ADD PUSH1 0x0 SWAP1 SLOAD SWAP1 PUSH2 0x100 EXP SWAP1 DIV PUSH20 0xFFFFFFFFFFFFFFFFFFFFFFFFFFFFFFFFFFFFFFFF AND PUSH20 0xFFFFFFFFFFFFFFFFFFFFFFFFFFFFFFFFFFFFFFFF AND PUSH20 0xFFFFFFFFFFFFFFFFFFFFFFFFFFFFFFFFFFFFFFFF AND DUP2 MSTORE PUSH1 0x20 ADD PUSH1 0xC DUP3 ADD PUSH1 0x0 SWAP1 SLOAD SWAP1 PUSH2 0x100 EXP SWAP1 DIV PUSH20 0xFFFFFFFFFFFFFFFFFFFFFFFFFFFFFFFFFFFFFFFF AND PUSH20 0xFFFFFFFFFFFFFFFFFFFFFFFFFFFFFFFFFFFFFFFF AND PUSH20 0xFFFFFFFFFFFFFFFFFFFFFFFFFFFFFFFFFFFFFFFF AND DUP2 MSTORE PUSH1 0x20 ADD PUSH1 0xD DUP3 ADD PUSH1 0x0 SWAP1 SLOAD SWAP1 PUSH2 0x100 EXP SWAP1 DIV PUSH20 0xFFFFFFFFFFFFFFFFFFFFFFFFFFFFFFFFFFFFFFFF AND PUSH20 0xFFFFFFFFFFFFFFFFFFFFFFFFFFFFFFFFFFFFFFFF AND PUSH20 0xFFFFFFFFFFFFFFFFFFFFFFFFFFFFFFFFFFFFFFFF AND DUP2 MSTORE PUSH1 0x20 ADD PUSH1 0xE DUP3 ADD PUSH1 0x0 SWAP1 SLOAD SWAP1 PUSH2 0x100 EXP SWAP1 DIV PUSH20 0xFFFFFFFFFFFFFFFFFFFFFFFFFFFFFFFFFFFFFFFF AND PUSH20 0xFFFFFFFFFFFFFFFFFFFFFFFFFFFFFFFFFFFFFFFF AND PUSH20 0xFFFFFFFFFFFFFFFFFFFFFFFFFFFFFFFFFFFFFFFF AND DUP2 MSTORE PUSH1 0x20 ADD PUSH1 0xF DUP3 ADD PUSH1 0x0 SWAP1 SLOAD SWAP1 PUSH2 0x100 EXP SWAP1 DIV PUSH20 0xFFFFFFFFFFFFFFFFFFFFFFFFFFFFFFFFFFFFFFFF AND PUSH20 0xFFFFFFFFFFFFFFFFFFFFFFFFFFFFFFFFFFFFFFFF AND PUSH20 0xFFFFFFFFFFFFFFFFFFFFFFFFFFFFFFFFFFFFFFFF AND DUP2 MSTORE PUSH1 0x20 ADD PUSH1 0x10 DUP3 ADD PUSH1 0x0 SWAP1 SLOAD SWAP1 PUSH2 0x100 EXP SWAP1 DIV PUSH20 0xFFFFFFFFFFFFFFFFFFFFFFFFFFFFFFFFFFFFFFFF AND PUSH20 0xFFFFFFFFFFFFFFFFFFFFFFFFFFFFFFFFFFFFFFFF AND PUSH20 0xFFFFFFFFFFFFFFFFFFFFFFFFFFFFFFFFFFFFFFFF AND DUP2 MSTORE PUSH1 0x20 ADD PUSH1 0x11 DUP3 ADD PUSH1 0x0 SWAP1 SLOAD SWAP1 PUSH2 0x100 EXP SWAP1 DIV PUSH20 0xFFFFFFFFFFFFFFFFFFFFFFFFFFFFFFFFFFFFFFFF AND PUSH20 0xFFFFFFFFFFFFFFFFFFFFFFFFFFFFFFFFFFFFFFFF AND PUSH20 0xFFFFFFFFFFFFFFFFFFFFFFFFFFFFFFFFFFFFFFFF AND DUP2 MSTORE POP POP SWAP2 POP POP SWAP1 JUMP JUMPDEST PUSH1 0x1 PUSH1 0x0 SWAP1 SLOAD SWAP1 PUSH2 0x100 EXP SWAP1 DIV PUSH20 0xFFFFFFFFFFFFFFFFFFFFFFFFFFFFFFFFFFFFFFFF AND PUSH20 0xFFFFFFFFFFFFFFFFFFFFFFFFFFFFFFFFFFFFFFFF AND CALLER PUSH20 0xFFFFFFFFFFFFFFFFFFFFFFFFFFFFFFFFFFFFFFFF AND EQ PUSH2 0xBB0 JUMPI PUSH1 0x0 DUP1 REVERT JUMPDEST DUP1 PUSH1 0x2 PUSH1 0x7 ADD PUSH1 0x0 PUSH2 0x100 EXP DUP2 SLOAD DUP2 PUSH20 0xFFFFFFFFFFFFFFFFFFFFFFFFFFFFFFFFFFFFFFFF MUL NOT AND SWAP1 DUP4 PUSH20 0xFFFFFFFFFFFFFFFFFFFFFFFFFFFFFFFFFFFFFFFF AND MUL OR SWAP1 SSTORE POP POP JUMP JUMPDEST PUSH1 0x0 DUP1 PUSH1 0x2 SWAP1 POP DUP1 PUSH1 0x0 ADD PUSH1 0x1 SWAP1 SLOAD SWAP1 PUSH2 0x100 EXP SWAP1 DIV PUSH1 0xFF AND SWAP2 POP POP SWAP1 JUMP JUMPDEST PUSH1 0x0 DUP1 PUSH1 0x2 SWAP1 POP DUP1 PUSH1 0x4 ADD PUSH1 0x0 SWAP1 SLOAD SWAP1 PUSH2 0x100 EXP SWAP1 DIV PUSH20 0xFFFFFFFFFFFFFFFFFFFFFFFFFFFFFFFFFFFFFFFF AND SWAP2 POP POP SWAP1 JUMP JUMPDEST PUSH1 0x0 DUP1 PUSH1 0x2 SWAP1 POP DUP1 PUSH1 0x0 ADD PUSH1 0x0 SWAP1 SLOAD SWAP1 PUSH2 0x100 EXP SWAP1 DIV PUSH1 0xFF AND SWAP2 POP POP SWAP1 JUMP JUMPDEST PUSH1 0x1 PUSH1 0x0 SWAP1 SLOAD SWAP1 PUSH2 0x100 EXP SWAP1 DIV PUSH20 0xFFFFFFFFFFFFFFFFFFFFFFFFFFFFFFFFFFFFFFFF AND PUSH20 0xFFFFFFFFFFFFFFFFFFFFFFFFFFFFFFFFFFFFFFFF AND CALLER PUSH20 0xFFFFFFFFFFFFFFFFFFFFFFFFFFFFFFFFFFFFFFFF AND EQ PUSH2 0xCC1 JUMPI PUSH1 0x0 DUP1 REVERT JUMPDEST DUP1 PUSH1 0x2 PUSH1 0x10 ADD PUSH1 0x0 PUSH2 0x100 EXP DUP2 SLOAD DUP2 PUSH20 0xFFFFFFFFFFFFFFFFFFFFFFFFFFFFFFFFFFFFFFFF MUL NOT AND SWAP1 DUP4 PUSH20 0xFFFFFFFFFFFFFFFFFFFFFFFFFFFFFFFFFFFFFFFF AND MUL OR SWAP1 SSTORE POP POP JUMP JUMPDEST PUSH1 0x0 DUP1 PUSH1 0x2 SWAP1 POP DUP1 PUSH1 0xA ADD PUSH1 0x0 SWAP1 SLOAD SWAP1 PUSH2 0x100 EXP SWAP1 DIV PUSH20 0xFFFFFFFFFFFFFFFFFFFFFFFFFFFFFFFFFFFFFFFF AND SWAP2 POP POP SWAP1 JUMP JUMPDEST PUSH1 0x1 PUSH1 0x0 SWAP1 SLOAD SWAP1 PUSH2 0x100 EXP SWAP1 DIV PUSH20 0xFFFFFFFFFFFFFFFFFFFFFFFFFFFFFFFFFFFFFFFF AND PUSH20 0xFFFFFFFFFFFFFFFFFFFFFFFFFFFFFFFFFFFFFFFF AND CALLER PUSH20 0xFFFFFFFFFFFFFFFFFFFFFFFFFFFFFFFFFFFFFFFF AND EQ PUSH2 0xD94 JUMPI PUSH1 0x0 DUP1 REVERT JUMPDEST DUP1 PUSH1 0x2 PUSH1 0xA ADD PUSH1 0x0 PUSH2 0x100 EXP DUP2 SLOAD DUP2 PUSH20 0xFFFFFFFFFFFFFFFFFFFFFFFFFFFFFFFFFFFFFFFF MUL NOT AND SWAP1 DUP4 PUSH20 0xFFFFFFFFFFFFFFFFFFFFFFFFFFFFFFFFFFFFFFFF AND MUL OR SWAP1 SSTORE POP POP JUMP JUMPDEST PUSH1 0x0 DUP1 PUSH1 0x2 SWAP1 POP DUP1 PUSH1 0x1 ADD PUSH1 0x0 SWAP1 SLOAD SWAP1 PUSH2 0x100 EXP SWAP1 DIV PUSH20 0xFFFFFFFFFFFFFFFFFFFFFFFFFFFFFFFFFFFFFFFF AND SWAP2 POP POP SWAP1 JUMP JUMPDEST PUSH1 0x1 PUSH1 0x0 SWAP1 SLOAD SWAP1 PUSH2 0x100 EXP SWAP1 DIV PUSH20 0xFFFFFFFFFFFFFFFFFFFFFFFFFFFFFFFFFFFFFFFF AND PUSH20 0xFFFFFFFFFFFFFFFFFFFFFFFFFFFFFFFFFFFFFFFF AND CALLER PUSH20 0xFFFFFFFFFFFFFFFFFFFFFFFFFFFFFFFFFFFFFFFF AND EQ PUSH2 0xE67 JUMPI PUSH1 0x0 DUP1 REVERT JUMPDEST DUP1 PUSH1 0x2 PUSH1 0x1 ADD PUSH1 0x0 PUSH2 0x100 EXP DUP2 SLOAD DUP2 PUSH20 0xFFFFFFFFFFFFFFFFFFFFFFFFFFFFFFFFFFFFFFFF MUL NOT AND SWAP1 DUP4 PUSH20 0xFFFFFFFFFFFFFFFFFFFFFFFFFFFFFFFFFFFFFFFF AND MUL OR SWAP1 SSTORE POP POP JUMP JUMPDEST PUSH1 0x40 MLOAD DUP1 PUSH2 0x2C0 ADD PUSH1 0x40 MSTORE DUP1 PUSH1 0x0 ISZERO ISZERO DUP2 MSTORE PUSH1 0x20 ADD PUSH1 0x0 ISZERO ISZERO DUP2 MSTORE PUSH1 0x20 ADD PUSH1 0x0 ISZERO ISZERO DUP2 MSTORE PUSH1 0x20 ADD PUSH1 0x0 ISZERO ISZERO DUP2 MSTORE PUSH1 0x20 ADD PUSH1 0x0 PUSH20 0xFFFFFFFFFFFFFFFFFFFFFFFFFFFFFFFFFFFFFFFF AND DUP2 MSTORE PUSH1 0x20 ADD PUSH1 0x0 PUSH20 0xFFFFFFFFFFFFFFFFFFFFFFFFFFFFFFFFFFFFFFFF AND DUP2 MSTORE PUSH1 0x20 ADD PUSH1 0x0 PUSH20 0xFFFFFFFFFFFFFFFFFFFFFFFFFFFFFFFFFFFFFFFF AND DUP2 MSTORE PUSH1 0x20 ADD PUSH1 0x0 PUSH20 0xFFFFFFFFFFFFFFFFFFFFFFFFFFFFFFFFFFFFFFFF AND DUP2 MSTORE PUSH1 0x20 ADD PUSH1 0x0 PUSH20 0xFFFFFFFFFFFFFFFFFFFFFFFFFFFFFFFFFFFFFFFF AND DUP2 MSTORE PUSH1 0x20 ADD PUSH1 0x0 PUSH20 0xFFFFFFFFFFFFFFFFFFFFFFFFFFFFFFFFFFFFFFFF AND DUP2 MSTORE PUSH1 0x20 ADD PUSH1 0x0 PUSH20 0xFFFFFFFFFFFFFFFFFFFFFFFFFFFFFFFFFFFFFFFF AND DUP2 MSTORE PUSH1 0x20 ADD PUSH1 0x0 PUSH20 0xFFFFFFFFFFFFFFFFFFFFFFFFFFFFFFFFFFFFFFFF AND DUP2 MSTORE PUSH1 0x20 ADD PUSH1 0x0 PUSH20 0xFFFFFFFFFFFFFFFFFFFFFFFFFFFFFFFFFFFFFFFF AND DUP2 MSTORE PUSH1 0x20 ADD PUSH1 0x0 PUSH20 0xFFFFFFFFFFFFFFFFFFFFFFFFFFFFFFFFFFFFFFFF AND DUP2 MSTORE PUSH1 0x20 ADD PUSH1 0x0 PUSH20 0xFFFFFFFFFFFFFFFFFFFFFFFFFFFFFFFFFFFFFFFF AND DUP2 MSTORE PUSH1 0x20 ADD PUSH1 0x0 PUSH20 0xFFFFFFFFFFFFFFFFFFFFFFFFFFFFFFFFFFFFFFFF AND DUP2 MSTORE PUSH1 0x20 ADD PUSH1 0x0 PUSH20 0xFFFFFFFFFFFFFFFFFFFFFFFFFFFFFFFFFFFFFFFF AND DUP2 MSTORE PUSH1 0x20 ADD PUSH1 0x0 PUSH20 0xFFFFFFFFFFFFFFFFFFFFFFFFFFFFFFFFFFFFFFFF AND DUP2 MSTORE PUSH1 0x20 ADD PUSH1 0x0 PUSH20 0xFFFFFFFFFFFFFFFFFFFFFFFFFFFFFFFFFFFFFFFF AND DUP2 MSTORE PUSH1 0x20 ADD PUSH1 0x0 PUSH20 0xFFFFFFFFFFFFFFFFFFFFFFFFFFFFFFFFFFFFFFFF AND DUP2 MSTORE PUSH1 0x20 ADD PUSH1 0x0 PUSH20 0xFFFFFFFFFFFFFFFFFFFFFFFFFFFFFFFFFFFFFFFF AND DUP2 MSTORE PUSH1 0x20 ADD PUSH1 0x0 PUSH20 0xFFFFFFFFFFFFFFFFFFFFFFFFFFFFFFFFFFFFFFFF AND DUP2 MSTORE POP SWAP1 JUMP JUMPDEST PUSH1 0x0 DUP1 REVERT JUMPDEST PUSH1 0x0 PUSH20 0xFFFFFFFFFFFFFFFFFFFFFFFFFFFFFFFFFFFFFFFF DUP3 AND SWAP1 POP SWAP2 SWAP1 POP JUMP JUMPDEST PUSH1 0x0 PUSH2 0x1119 DUP3 PUSH2 0x10EE JUMP JUMPDEST SWAP1 POP SWAP2 SWAP1 POP JUMP JUMPDEST PUSH2 0x1129 DUP2 PUSH2 0x110E JUMP JUMPDEST DUP2 EQ PUSH2 0x1134 JUMPI PUSH1 0x0 DUP1 REVERT JUMPDEST POP JUMP JUMPDEST PUSH1 0x0 DUP2 CALLDATALOAD SWAP1 POP PUSH2 0x1146 DUP2 PUSH2 0x1120 JUMP JUMPDEST SWAP3 SWAP2 POP POP JUMP JUMPDEST PUSH1 0x0 PUSH1 0x20 DUP3 DUP5 SUB SLT ISZERO PUSH2 0x1162 JUMPI PUSH2 0x1161 PUSH2 0x10E9 JUMP JUMPDEST JUMPDEST PUSH1 0x0 PUSH2 0x1170 DUP5 DUP3 DUP6 ADD PUSH2 0x1137 JUMP JUMPDEST SWAP2 POP POP SWAP3 SWAP2 POP POP JUMP JUMPDEST PUSH1 0x0 DUP2 ISZERO ISZERO SWAP1 POP SWAP2 SWAP1 POP JUMP JUMPDEST PUSH2 0x118E DUP2 PUSH2 0x1179 JUMP JUMPDEST DUP3 MSTORE POP POP JUMP JUMPDEST PUSH1 0x0 PUSH1 0x20 DUP3 ADD SWAP1 POP PUSH2 0x11A9 PUSH1 0x0 DUP4 ADD DUP5 PUSH2 0x1185 JUMP JUMPDEST SWAP3 SWAP2 POP POP JUMP JUMPDEST PUSH2 0x11B8 DUP2 PUSH2 0x110E JUMP JUMPDEST DUP3 MSTORE POP POP JUMP JUMPDEST PUSH1 0x0 PUSH1 0x20 DUP3 ADD SWAP1 POP PUSH2 0x11D3 PUSH1 0x0 DUP4 ADD DUP5 PUSH2 0x11AF JUMP JUMPDEST SWAP3 SWAP2 POP POP JUMP JUMPDEST PUSH2 0x11E2 DUP2 PUSH2 0x1179 JUMP JUMPDEST DUP3 MSTORE POP POP JUMP JUMPDEST PUSH2 0x11F1 DUP2 PUSH2 0x110E JUMP JUMPDEST DUP3 MSTORE POP POP JUMP JUMPDEST PUSH2 0x2C0 DUP3 ADD PUSH1 0x0 DUP3 ADD MLOAD PUSH2 0x120E PUSH1 0x0 DUP6 ADD DUP3 PUSH2 0x11D9 JUMP JUMPDEST POP PUSH1 0x20 DUP3 ADD MLOAD PUSH2 0x1221 PUSH1 0x20 DUP6 ADD DUP3 PUSH2 0x11D9 JUMP JUMPDEST POP PUSH1 0x40 DUP3 ADD MLOAD PUSH2 0x1234 PUSH1 0x40 DUP6 ADD DUP3 PUSH2 0x11D9 JUMP JUMPDEST POP PUSH1 0x60 DUP3 ADD MLOAD PUSH2 0x1247 PUSH1 0x60 DUP6 ADD DUP3 PUSH2 0x11D9 JUMP JUMPDEST POP PUSH1 0x80 DUP3 ADD MLOAD PUSH2 0x125A PUSH1 0x80 DUP6 ADD DUP3 PUSH2 0x11E8 JUMP JUMPDEST POP PUSH1 0xA0 DUP3 ADD MLOAD PUSH2 0x126D PUSH1 0xA0 DUP6 ADD DUP3 PUSH2 0x11E8 JUMP JUMPDEST POP PUSH1 0xC0 DUP3 ADD MLOAD PUSH2 0x1280 PUSH1 0xC0 DUP6 ADD DUP3 PUSH2 0x11E8 JUMP JUMPDEST POP PUSH1 0xE0 DUP3 ADD MLOAD PUSH2 0x1293 PUSH1 0xE0 DUP6 ADD DUP3 PUSH2 0x11E8 JUMP JUMPDEST POP PUSH2 0x100 DUP3 ADD MLOAD PUSH2 0x12A8 PUSH2 0x100 DUP6 ADD DUP3 PUSH2 0x11E8 JUMP JUMPDEST POP PUSH2 0x120 DUP3 ADD MLOAD PUSH2 0x12BD PUSH2 0x120 DUP6 ADD DUP3 PUSH2 0x11E8 JUMP JUMPDEST POP PUSH2 0x140 DUP3 ADD MLOAD PUSH2 0x12D2 PUSH2 0x140 DUP6 ADD DUP3 PUSH2 0x11E8 JUMP JUMPDEST POP PUSH2 0x160 DUP3 ADD MLOAD PUSH2 0x12E7 PUSH2 0x160 DUP6 ADD DUP3 PUSH2 0x11E8 JUMP JUMPDEST POP PUSH2 0x180 DUP3 ADD MLOAD PUSH2 0x12FC PUSH2 0x180 DUP6 ADD DUP3 PUSH2 0x11E8 JUMP JUMPDEST POP PUSH2 0x1A0 DUP3 ADD MLOAD PUSH2 0x1311 PUSH2 0x1A0 DUP6 ADD DUP3 PUSH2 0x11E8 JUMP JUMPDEST POP PUSH2 0x1C0 DUP3 ADD MLOAD PUSH2 0x1326 PUSH2 0x1C0 DUP6 ADD DUP3 PUSH2 0x11E8 JUMP JUMPDEST POP PUSH2 0x1E0 DUP3 ADD MLOAD PUSH2 0x133B PUSH2 0x1E0 DUP6 ADD DUP3 PUSH2 0x11E8 JUMP JUMPDEST POP PUSH2 0x200 DUP3 ADD MLOAD PUSH2 0x1350 PUSH2 0x200 DUP6 ADD DUP3 PUSH2 0x11E8 JUMP JUMPDEST POP PUSH2 0x220 DUP3 ADD MLOAD PUSH2 0x1365 PUSH2 0x220 DUP6 ADD DUP3 PUSH2 0x11E8 JUMP JUMPDEST POP PUSH2 0x240 DUP3 ADD MLOAD PUSH2 0x137A PUSH2 0x240 DUP6 ADD DUP3 PUSH2 0x11E8 JUMP JUMPDEST POP PUSH2 0x260 DUP3 ADD MLOAD PUSH2 0x138F PUSH2 0x260 DUP6 ADD DUP3 PUSH2 0x11E8 JUMP JUMPDEST POP PUSH2 0x280 DUP3 ADD MLOAD PUSH2 0x13A4 PUSH2 0x280 DUP6 ADD DUP3 PUSH2 0x11E8 JUMP JUMPDEST POP PUSH2 0x2A0 DUP3 ADD MLOAD PUSH2 0x13B9 PUSH2 0x2A0 DUP6 ADD DUP3 PUSH2 0x11E8 JUMP JUMPDEST POP POP POP POP JUMP JUMPDEST PUSH1 0x0 PUSH2 0x2C0 DUP3 ADD SWAP1 POP PUSH2 0x13D5 PUSH1 0x0 DUP4 ADD DUP5 PUSH2 0x11F7 JUMP JUMPDEST SWAP3 SWAP2 POP POP JUMP INVALID LOG2 PUSH5 0x6970667358 0x22 SLT KECCAK256 0xCE 0x4D 0xC CALLDATALOAD 0x2F PUSH24 0xDFAD454C769AAAF63B2DBEE5E54D02A4005475B48B688C10 SGT INVALID PUSH5 0x736F6C6343 STOP ADDMOD LT STOP CALLER "
				},
				"gasEstimates": {
					"creation": {
						"codeDepositCost": "1027400",
						"executionCost": "582339",
						"totalCost": "1609739"
					},
					"external": {
						"gameProfitsGalacticSettingsCurrent()": "2586",
						"ichoroniumFinanceSettingsCurrent()": "2609",
						"ichoroniumGalacticMeteaverseCurrent()": "2563",
						"ichoroniumNetworkPermissionsCurrent()": "2586",
						"ichoroniumNetworkProfilesCurrent()": "2607",
						"ichoroniumReturnSettings()": "infinite",
						"isNetworkActive()": "2565",
						"isNetworkIsCoolingDown()": "2571",
						"isNetworkIsDeactive()": "2638",
						"killswitch()": "2594",
						"switchgameProfitsGalacticSettingsCurrent(address)": "26987",
						"switchichoroniumCloudSettingsCurrent(address)": "26987",
						"switchichoroniumFinanceSettingsCurrent(address)": "26922",
						"switchichoroniumGalacticMeteaverseCurrent(address)": "26942",
						"switchichoroniumNetworkPermissionsCurrent(address)": "26921",
						"switchichoroniumNetworkProfilesCurrent(address)": "26986"
					}
				},
				"methodIdentifiers": {
					"gameProfitsGalacticSettingsCurrent()": "6ef6346f",
					"ichoroniumFinanceSettingsCurrent()": "5d0d3816",
					"ichoroniumGalacticMeteaverseCurrent()": "bfed3cf2",
					"ichoroniumNetworkPermissionsCurrent()": "96d54ebe",
					"ichoroniumNetworkProfilesCurrent()": "e6a52e8a",
					"ichoroniumReturnSettings()": "7f0b2e7d",
					"isNetworkActive()": "b343c438",
					"isNetworkIsCoolingDown()": "8df57580",
					"isNetworkIsDeactive()": "64aa0754",
					"killswitch()": "42dd96f7",
					"switchgameProfitsGalacticSettingsCurrent(address)": "8c920bd3",
					"switchichoroniumCloudSettingsCurrent(address)": "b4840993",
					"switchichoroniumFinanceSettingsCurrent(address)": "3d3e8321",
					"switchichoroniumGalacticMeteaverseCurrent(address)": "d468fdf4",
					"switchichoroniumNetworkPermissionsCurrent(address)": "6bc5b0c4",
					"switchichoroniumNetworkProfilesCurrent(address)": "f23e9c3b"
				}
			},
			"storageLayout": {
				"storage": [
					{
						"astId": 3,
						"contract": "ichoronium-galactic-contracts/governence/ichoroniumNetworkSettings.sol:ichoroniumNetworkSettings",
						"label": "todaysDate",
						"offset": 0,
						"slot": "0",
						"type": "t_uint256"
					},
					{
						"astId": 5,
						"contract": "ichoronium-galactic-contracts/governence/ichoroniumNetworkSettings.sol:ichoroniumNetworkSettings",
						"label": "owner",
						"offset": 0,
						"slot": "1",
						"type": "t_address"
					},
					{
						"astId": 43,
						"contract": "ichoronium-galactic-contracts/governence/ichoroniumNetworkSettings.sol:ichoroniumNetworkSettings",
						"label": "ichoroniumSettings",
						"offset": 0,
						"slot": "2",
						"type": "t_struct(networkSettings)326_storage"
					}
				],
				"types": {
					"t_address": {
						"encoding": "inplace",
						"label": "address",
						"numberOfBytes": "20"
					},
					"t_bool": {
						"encoding": "inplace",
						"label": "bool",
						"numberOfBytes": "1"
					},
					"t_struct(networkSettings)326_storage": {
						"encoding": "inplace",
						"label": "struct ichoroniumNetworkSettings.networkSettings",
						"members": [
							{
								"astId": 283,
								"contract": "ichoronium-galactic-contracts/governence/ichoroniumNetworkSettings.sol:ichoroniumNetworkSettings",
								"label": "isNetworkActive",
								"offset": 0,
								"slot": "0",
								"type": "t_bool"
							},
							{
								"astId": 285,
								"contract": "ichoronium-galactic-contracts/governence/ichoroniumNetworkSettings.sol:ichoroniumNetworkSettings",
								"label": "isNetworkIsCoolingDown",
								"offset": 1,
								"slot": "0",
								"type": "t_bool"
							},
							{
								"astId": 287,
								"contract": "ichoronium-galactic-contracts/governence/ichoroniumNetworkSettings.sol:ichoroniumNetworkSettings",
								"label": "isNetworkIsDeactive",
								"offset": 2,
								"slot": "0",
								"type": "t_bool"
							},
							{
								"astId": 289,
								"contract": "ichoronium-galactic-contracts/governence/ichoroniumNetworkSettings.sol:ichoroniumNetworkSettings",
								"label": "killswitch",
								"offset": 3,
								"slot": "0",
								"type": "t_bool"
							},
							{
								"astId": 291,
								"contract": "ichoronium-galactic-contracts/governence/ichoroniumNetworkSettings.sol:ichoroniumNetworkSettings",
								"label": "ichoroniumNetworkProfilesPrevious",
								"offset": 4,
								"slot": "0",
								"type": "t_address"
							},
							{
								"astId": 293,
								"contract": "ichoronium-galactic-contracts/governence/ichoroniumNetworkSettings.sol:ichoroniumNetworkSettings",
								"label": "ichoroniumNetworkProfilesCurrent",
								"offset": 0,
								"slot": "1",
								"type": "t_address"
							},
							{
								"astId": 295,
								"contract": "ichoronium-galactic-contracts/governence/ichoroniumNetworkSettings.sol:ichoroniumNetworkSettings",
								"label": "ichoroniumNetworkProfilesUpgradeProposal",
								"offset": 0,
								"slot": "2",
								"type": "t_address"
							},
							{
								"astId": 297,
								"contract": "ichoronium-galactic-contracts/governence/ichoroniumNetworkSettings.sol:ichoroniumNetworkSettings",
								"label": "ichoroniumNetworkPermissionsPrevious",
								"offset": 0,
								"slot": "3",
								"type": "t_address"
							},
							{
								"astId": 299,
								"contract": "ichoronium-galactic-contracts/governence/ichoroniumNetworkSettings.sol:ichoroniumNetworkSettings",
								"label": "ichoroniumNetworkPermissionsCurrent",
								"offset": 0,
								"slot": "4",
								"type": "t_address"
							},
							{
								"astId": 301,
								"contract": "ichoronium-galactic-contracts/governence/ichoroniumNetworkSettings.sol:ichoroniumNetworkSettings",
								"label": "ichoroniumNetworkPermissionsUpgradeProposal",
								"offset": 0,
								"slot": "5",
								"type": "t_address"
							},
							{
								"astId": 303,
								"contract": "ichoronium-galactic-contracts/governence/ichoroniumNetworkSettings.sol:ichoroniumNetworkSettings",
								"label": "gameProfitsGalacticSettingsPrevious",
								"offset": 0,
								"slot": "6",
								"type": "t_address"
							},
							{
								"astId": 305,
								"contract": "ichoronium-galactic-contracts/governence/ichoroniumNetworkSettings.sol:ichoroniumNetworkSettings",
								"label": "gameProfitsGalacticSettingsCurrent",
								"offset": 0,
								"slot": "7",
								"type": "t_address"
							},
							{
								"astId": 307,
								"contract": "ichoronium-galactic-contracts/governence/ichoroniumNetworkSettings.sol:ichoroniumNetworkSettings",
								"label": "gameProfitsGalacticSettingsUpgradeProposal",
								"offset": 0,
								"slot": "8",
								"type": "t_address"
							},
							{
								"astId": 309,
								"contract": "ichoronium-galactic-contracts/governence/ichoroniumNetworkSettings.sol:ichoroniumNetworkSettings",
								"label": "ichoroniumGalacticMeteaversePrevious",
								"offset": 0,
								"slot": "9",
								"type": "t_address"
							},
							{
								"astId": 311,
								"contract": "ichoronium-galactic-contracts/governence/ichoroniumNetworkSettings.sol:ichoroniumNetworkSettings",
								"label": "ichoroniumGalacticMeteaverseCurrent",
								"offset": 0,
								"slot": "10",
								"type": "t_address"
							},
							{
								"astId": 313,
								"contract": "ichoronium-galactic-contracts/governence/ichoroniumNetworkSettings.sol:ichoroniumNetworkSettings",
								"label": "ichoroniumGalacticMeteaverseUpgradeProposal",
								"offset": 0,
								"slot": "11",
								"type": "t_address"
							},
							{
								"astId": 315,
								"contract": "ichoronium-galactic-contracts/governence/ichoroniumNetworkSettings.sol:ichoroniumNetworkSettings",
								"label": "ichoroniumFinanceSettingsPrevious",
								"offset": 0,
								"slot": "12",
								"type": "t_address"
							},
							{
								"astId": 317,
								"contract": "ichoronium-galactic-contracts/governence/ichoroniumNetworkSettings.sol:ichoroniumNetworkSettings",
								"label": "ichoroniumFinanceSettingsCurrent",
								"offset": 0,
								"slot": "13",
								"type": "t_address"
							},
							{
								"astId": 319,
								"contract": "ichoronium-galactic-contracts/governence/ichoroniumNetworkSettings.sol:ichoroniumNetworkSettings",
								"label": "ichoroniumFinanceSettingsUpgradeProposal",
								"offset": 0,
								"slot": "14",
								"type": "t_address"
							},
							{
								"astId": 321,
								"contract": "ichoronium-galactic-contracts/governence/ichoroniumNetworkSettings.sol:ichoroniumNetworkSettings",
								"label": "ichoroniumCloudSettingsPrevious",
								"offset": 0,
								"slot": "15",
								"type": "t_address"
							},
							{
								"astId": 323,
								"contract": "ichoronium-galactic-contracts/governence/ichoroniumNetworkSettings.sol:ichoroniumNetworkSettings",
								"label": "ichoroniumCloudSettingsCurrent",
								"offset": 0,
								"slot": "16",
								"type": "t_address"
							},
							{
								"astId": 325,
								"contract": "ichoronium-galactic-contracts/governence/ichoroniumNetworkSettings.sol:ichoroniumNetworkSettings",
								"label": "ichoroniumCloudSettingsUpgradeProposal",
								"offset": 0,
								"slot": "17",
								"type": "t_address"
							}
						],
						"numberOfBytes": "576"
					},
					"t_uint256": {
						"encoding": "inplace",
						"label": "uint256",
						"numberOfBytes": "32"
					}
				}
			},
			"userdoc": {
				"kind": "user",
				"methods": {},
				"version": 1
			}
		}
	}
}